{"contracts/forum.sol":{"HKUSTForum":{"abi":[{"inputs":[],"stateMutability":"nonpayable","type":"constructor"},{"anonymous":false,"inputs":[{"indexed":true,"internalType":"uint256","name":"postId","type":"uint256"},{"indexed":true,"internalType":"uint256","name":"commentId","type":"uint256"},{"indexed":true,"internalType":"address","name":"author","type":"address"},{"indexed":false,"internalType":"string","name":"content","type":"string"},{"indexed":false,"internalType":"string","name":"tag","type":"string"}],"name":"CommentAdded","type":"event"},{"anonymous":false,"inputs":[{"indexed":true,"internalType":"uint256","name":"postId","type":"uint256"},{"indexed":true,"internalType":"address","name":"author","type":"address"},{"indexed":false,"internalType":"string","name":"tag","type":"string"},{"indexed":false,"internalType":"string","name":"content","type":"string"}],"name":"PostCreated","type":"event"},{"anonymous":false,"inputs":[{"indexed":true,"internalType":"uint256","name":"postId","type":"uint256"},{"indexed":true,"internalType":"address","name":"challenger","type":"address"}],"name":"TagChallenged","type":"event"},{"anonymous":false,"inputs":[{"indexed":true,"internalType":"uint256","name":"postId","type":"uint256"},{"indexed":true,"internalType":"address","name":"voter","type":"address"},{"indexed":false,"internalType":"bool","name":"isRealVote","type":"bool"}],"name":"VoteCast","type":"event"},{"inputs":[{"internalType":"uint256","name":"_postId","type":"uint256"},{"internalType":"string","name":"_content","type":"string"},{"internalType":"string","name":"_tag","type":"string"}],"name":"addComment","outputs":[],"stateMutability":"nonpayable","type":"function"},{"inputs":[{"internalType":"uint256","name":"","type":"uint256"},{"internalType":"uint256","name":"","type":"uint256"}],"name":"comments","outputs":[{"internalType":"address","name":"author","type":"address"},{"internalType":"string","name":"content","type":"string"},{"internalType":"string","name":"tag","type":"string"},{"internalType":"uint256","name":"timestamp","type":"uint256"}],"stateMutability":"view","type":"function"},{"inputs":[{"internalType":"string","name":"_content","type":"string"},{"internalType":"string","name":"_tag","type":"string"}],"name":"createPost","outputs":[],"stateMutability":"nonpayable","type":"function"},{"inputs":[{"internalType":"uint256","name":"_postId","type":"uint256"},{"internalType":"uint256","name":"_commentId","type":"uint256"}],"name":"getComment","outputs":[{"internalType":"address","name":"author","type":"address"},{"internalType":"string","name":"content","type":"string"},{"internalType":"string","name":"tag","type":"string"},{"internalType":"uint256","name":"timestamp","type":"uint256"}],"stateMutability":"view","type":"function"},{"inputs":[{"internalType":"uint256","name":"_postId","type":"uint256"}],"name":"getCommentCount","outputs":[{"internalType":"uint256","name":"","type":"uint256"}],"stateMutability":"view","type":"function"},{"inputs":[{"internalType":"uint256","name":"_postId","type":"uint256"},{"internalType":"uint256","name":"_startId","type":"uint256"},{"internalType":"uint256","name":"_batchSize","type":"uint256"}],"name":"getCommentsBatch","outputs":[{"internalType":"address[]","name":"authors","type":"address[]"},{"internalType":"string[]","name":"contents","type":"string[]"},{"internalType":"string[]","name":"tags","type":"string[]"},{"internalType":"uint256[]","name":"timestamps","type":"uint256[]"},{"internalType":"uint256","name":"totalCount","type":"uint256"}],"stateMutability":"view","type":"function"},{"inputs":[{"internalType":"uint256","name":"_postId","type":"uint256"}],"name":"getPost","outputs":[{"internalType":"address","name":"author","type":"address"},{"internalType":"string","name":"content","type":"string"},{"internalType":"string","name":"tag","type":"string"},{"internalType":"uint256","name":"timestamp","type":"uint256"},{"internalType":"bool","name":"isTagChallenged","type":"bool"},{"internalType":"uint256","name":"realVotes","type":"uint256"},{"internalType":"uint256","name":"fakerVotes","type":"uint256"},{"internalType":"uint256","name":"commentCount","type":"uint256"}],"stateMutability":"view","type":"function"},{"inputs":[{"internalType":"uint256","name":"_postId","type":"uint256"},{"internalType":"address","name":"_voter","type":"address"}],"name":"hasVoted","outputs":[{"internalType":"bool","name":"","type":"bool"}],"stateMutability":"view","type":"function"},{"inputs":[],"name":"postCount","outputs":[{"internalType":"uint256","name":"","type":"uint256"}],"stateMutability":"view","type":"function"},{"inputs":[{"internalType":"uint256","name":"","type":"uint256"}],"name":"posts","outputs":[{"internalType":"address","name":"author","type":"address"},{"internalType":"string","name":"content","type":"string"},{"internalType":"string","name":"tag","type":"string"},{"internalType":"uint256","name":"timestamp","type":"uint256"},{"internalType":"bool","name":"isTagChallenged","type":"bool"},{"internalType":"uint256","name":"realVotes","type":"uint256"},{"internalType":"uint256","name":"fakerVotes","type":"uint256"},{"internalType":"uint256","name":"commentCount","type":"uint256"}],"stateMutability":"view","type":"function"},{"inputs":[{"internalType":"uint256","name":"_postId","type":"uint256"},{"internalType":"bool","name":"_isRealVote","type":"bool"}],"name":"voteOnTag","outputs":[],"stateMutability":"nonpayable","type":"function"}],"evm":{"bytecode":{"linkReferences":{},"object":"60806040523480156200001157600080fd5b506001808055600090815260209081527fada5013122d395ba3c54772283fb069b10426056ef8ca54750cb9bb552a59e7d80546001600160a01b0319166000805160206200304f8339815191521781556040805180820190915260048152631d195cdd60e21b92810192909252907fada5013122d395ba3c54772283fb069b10426056ef8ca54750cb9bb552a59e7e90620000ad90826200131b565b506040805180820190915260078152661cdd1d59195b9d60ca1b60208201526002820190620000dd90826200131b565b5063681f3108600382015560048101805460ff1916905560006005820181905560068201819055600160088301819055805482526002602090815260408084209284529181529181902080546001600160a01b0319166000805160206200304f83398151915217815581516060810190925260298083529092620031359083013960018201906200016f90826200131b565b506040805180820190915260078152661cdd1d59195b9d60ca1b602082015260028201906200019f90826200131b565b5063681f314c60038201558154600180546040516001600160a01b0390931692909160008051602062002d2e83398151915291620001e6916002880191908801906200146c565b60405180910390a38054600180546040516001600160a01b039093169260008051602062002d908339815191529062000228908487019060028801906200146c565b60405180910390a46001805490600062000242836200149e565b90915550506001546000908152602081815260409182902080546001600160a01b0319166000805160206200304f833981519152178155825160608101909352602680845290929162003249908301396001820190620002a390826200131b565b50604080518082019091526009815268383937b332b9b9b7b960b91b60208201526002820190620002d590826200131b565b5063681f31b060038083019190915560048201805460ff19166001908117909155600060058401819055600684018290556008840192909255805482526002602090815260408084209284529181529181902080546001600160a01b0319166000805160206200304f833981519152178155815160608101909252602f808352909262002f8b9083013960018201906200037090826200131b565b506040805180820190915260078152661cdd1d59195b9d60ca1b60208201526002820190620003a090826200131b565b5063681f3278600382015560015460009081526002602081815260408084209284529181529181902080546001600160a01b031916733fc91a3afd70395cd496c647d5a6cc9d4b2b7fad178155815160608101909252602f808352909262002f0e9083013960018201906200041690826200131b565b506040805180820190915260078152661cdd1d59195b9d60ca1b602082015260028201906200044690826200131b565b5063681f334060038083019190915560015460009081526002602090815260408083209383529281529082902080546001600160a01b03191673a983d7e14ac1aaf050bb64fdab1024ae9c93c956178155825160c08101909352608f808452909291620030a6908301396001820190620004c190826200131b565b506040805180820190915260078152661cdd1d59195b9d60ca1b60208201526002820190620004f190826200131b565b5063681f4fbc60038201558354600180546040516001600160a01b0390931692909160008051602062002d2e83398151915291620005389160028a0191908a01906200146c565b60405180910390a38254600180546040516001600160a01b039093169260008051602062002d90833981519152906200057a908489019060028a01906200146c565b60405180910390a48154600180546040516001600160a01b039093169260029260008051602062002d9083398151915291620005bd91880190858901906200146c565b60405180910390a48054600180546040516001600160a01b039093169260039260008051602062002d9083398151915291620006019187019060028801906200146c565b60405180910390a4600180549060006200061b836200149e565b90915550506001546000908152602081815260409182902080546001600160a01b0319167378731d3ca6b7e34ac0f824c42a7cc18a495cabab178155825160808101909352604280845290929162002d4e9083013960018201906200068190826200131b565b506040805180820190915260078152661cdd1d59195b9d60ca1b60208201526002820190620006b190826200131b565b506368229cfc600382015560048101805460ff1916905560016005820181905560006006830181905560026008840181905582548252602090815260408083209383529281529082902080546001600160a01b031916733fc91a3afd70395cd496c647d5a6cc9d4b2b7fad178155825160808101909352604d808452909291620031fc9083013960018201906200074990826200131b565b5060408051808201909152600581526439ba30b33360d91b602082015260028201906200077790826200131b565b506368229d78600382015560015460009081526002602081815260408084209284529181529181902080546001600160a01b03191673a983d7e14ac1aaf050bb64fdab1024ae9c93c956178155815160808101909252604e808352909262002f3d908301396001820190620007ed90826200131b565b50604080518082019091526009815268383937b332b9b9b7b960b91b602082015260028201906200081f90826200131b565b5063681f4f6860038201556001805460009081526020818152604080832085546001600160a01b039081168552600790910190925291829020805460ff19168417905585548354925191169260008051602062002d2e8339815191529162000890916002890191908901906200146c565b60405180910390a38154600180546040516001600160a01b039093169260008051602062002d9083398151915290620008d2908488019060028901906200146c565b60405180910390a48054600180546040516001600160a01b039093169260029260008051602062002d90833981519152916200091591870190858801906200146c565b60405180910390a4600180549060006200092f836200149e565b90915550506001546000908152602081815260409182902080546001600160a01b0319166000805160206200304f833981519152178155825160608101909352602480845290929162002ea39083013960018201906200099090826200131b565b5060408051808201909152600581526439ba30b33360d91b60208201526002820190620009be90826200131b565b5063681f5fc860038083019190915560048201805460ff19166001908117909155600060058401819055600684018390556008840192909255805482526002602090815260408084209284529181529181902080546001600160a01b031916735b38da6a701c568545dcfcb03fcb875f56beddc4178155815160c081019092526086808352909262002ca890830139600182019062000a5e90826200131b565b506040805180820190915260078152661cdd1d59195b9d60ca1b6020820152600282019062000a8e90826200131b565b5063681f641460038201556001805460009081526020818152604080832085546001600160a01b031684526007018252808320805460ff19168517905592548252600280825283832090835281529082902080546001600160a01b03191673617f2e2fd72fd9d5503197092ac168c91465e7f217815582516060810190935260378084529092916200306f90830139600182019062000b2e90826200131b565b506040805180820190915260078152661cdd1d59195b9d60ca1b6020820152600282019062000b5e90826200131b565b5063681f68606003808301919091556001805460009081526020818152604080832086546001600160a01b031684526007018252808320805460ff191685179055925482526002815282822093825292835281902080546001600160a01b03191673a983d7e14ac1aaf050bb64fdab1024ae9c93c9561781558151608081019092526047808352909262002ec790830139600182019062000c0090826200131b565b506040805180820190915260078152661cdd1d59195b9d60ca1b6020820152600282019062000c3090826200131b565b5063681f6cac60038201556001805460009081526020818152604080832085546001600160a01b039081168552600790910190925291829020805460ff19168417905586548354925191169260008051602062002d2e8339815191529162000ca19160028a0191908a01906200146c565b60405180910390a38254600180546040516001600160a01b039093169260008051602062002d908339815191529062000ce3908489019060028a01906200146c565b60405180910390a48154600180546040516001600160a01b039093169260029260008051602062002d908339815191529162000d2691880190858901906200146c565b60405180910390a48054600180546040516001600160a01b039093169260039260008051602062002d908339815191529162000d6a9187019060028801906200146c565b60405180910390a46001805490600062000d84836200149e565b90915550506001546000908152602081815260409182902080546001600160a01b0319167311111111111111111111111111111111111111111781558251610120810190935260f380845290929162002db090830139600182019062000deb90826200131b565b50604080518082019091526009815268383937b332b9b9b7b960b91b6020820152600282019062000e1d90826200131b565b50636821ec20600382015560048101805460ff19908116600190811790925560026005840181905560068401819055600884018190558254600090815260208181526040808320732222222222222222222222222222222222222222845260079081018352818420805487168817905586548452838352818420733333333333333333333333333333333333333333855281018352818420805487168817905586548452838352818420734444444444444444444444444444444444444444855281018352818420805487168817905586548452838352818420735555555555555555555555555555555555555555855201825280832080549095168617909455845482529182528281209381529281529181902080546001600160a01b031916736666666666666666666666666666666666666666178155815160c08101909252609e80835290926200315e90830139600182019062000f7f90826200131b565b506040805180820190915260078152661cdd1d59195b9d60ca1b6020820152600282019062000faf90826200131b565b50636821ec84600382015560015460009081526002602081815260408084209284529181529181902080546001600160a01b031916737777777777777777777777777777777777777777178155815160c081019092526095808352909262002fba9083013960018201906200102590826200131b565b50604080518082019091526009815268383937b332b9b9b7b960b91b602082015260028201906200105790826200131b565b50636821ece860038201558254600180546040516001600160a01b0390931692909160008051602062002d2e833981519152916200109e916002890191908901906200146c565b60405180910390a360015460405173222222222222222222222222222222222222222291907fedc96ef82a3fd8ea664dd4fe50f94c77be3c3d6130792c3ed8b0199e3c28ec6290600090a3600180546040519182527322222222222222222222222222222222222222229160008051602062002c888339815191529060200160405180910390a360015460405160008152733333333333333333333333333333333333333333919060008051602062002c888339815191529060200160405180910390a3600180546040519182527344444444444444444444444444444444444444449160008051602062002c888339815191529060200160405180910390a360015460405160008152735555555555555555555555555555555555555555919060008051602062002c888339815191529060200160405180910390a38154600180546040516001600160a01b039093169260008051602062002d908339815191529062001215908488019060028901906200146c565b60405180910390a48054600180546040516001600160a01b039093169260029260008051602062002d90833981519152916200125891870190858801906200146c565b60405180910390a450505050505050505050505050505050620014c6565b634e487b7160e01b600052604160045260246000fd5b600181811c90821680620012a157607f821691505b602082108103620012c257634e487b7160e01b600052602260045260246000fd5b50919050565b601f8211156200131657600081815260208120601f850160051c81016020861015620012f15750805b601f850160051c820191505b818110156200131257828155600101620012fd565b5050505b505050565b81516001600160401b0381111562001337576200133762001276565b6200134f816200134884546200128c565b84620012c8565b602080601f8311600181146200138757600084156200136e5750858301515b600019600386901b1c1916600185901b17855562001312565b600085815260208120601f198616915b82811015620013b85788860151825594840194600190910190840162001397565b5085821015620013d75787850151600019600388901b60f8161c191681555b5050505050600190811b01905550565b60008154620013f6816200128c565b808552602060018381168015620014165760018114620014315762001461565b60ff1985168884015283151560051b88018301955062001461565b866000528260002060005b85811015620014595781548a82018601529083019084016200143c565b890184019650505b505050505092915050565b604081526000620014816040830185620013e7565b8281036020840152620014958185620013e7565b95945050505050565b600060018201620014bf57634e487b7160e01b600052601160045260246000fd5b5060010190565b6117b280620014d66000396000f3fe608060405234801561001057600080fd5b50600436106100a95760003560e01c8063392338f511610071578063392338f51461014157806340731c24146101545780634385963214610167578063488927531461018a5780636305dd23146101ad578063fc6c776f146101c057600080fd5b80630b1e7f83146100ae5780630d4bfb4f146100de5780631521e616146100ff57806317906c2e1461011457806325cfb1c51461011d575b600080fd5b6100c16100bc36600461112e565b6101d3565b6040516100d598979695949392919061118d565b60405180910390f35b6100f16100ec36600461112e565b610333565b6040519081526020016100d5565b61011261010d366004611295565b610381565b005b6100f160015481565b61013061012b366004611302565b6104c0565b6040516100d5959493929190611386565b61011261014f36600461143d565b61094f565b6100c161016236600461112e565b610a0f565b61017a6101753660046114a1565b610bca565b60405190151581526020016100d5565b61019d6101983660046114dd565b610c28565b6040516100d594939291906114ff565b6101126101bb366004611547565b610e22565b61019d6101ce3660046114dd565b610fe0565b600060208190529081526040902080546001820180546001600160a01b0390921692916101ff90611571565b80601f016020809104026020016040519081016040528092919081815260200182805461022b90611571565b80156102785780601f1061024d57610100808354040283529160200191610278565b820191906000526020600020905b81548152906001019060200180831161025b57829003601f168201915b50505050509080600201805461028d90611571565b80601f01602080910402602001604051908101604052809291908181526020018280546102b990611571565b80156103065780601f106102db57610100808354040283529160200191610306565b820191906000526020600020905b8154815290600101906020018083116102e957829003601f168201915b50505060038401546004850154600586015460068701546008909701549596929560ff9092169450925088565b6000808211801561034657506001548211155b61036b5760405162461bcd60e51b8152600401610362906115ab565b60405180910390fd5b5060009081526020819052604090206008015490565b60008311801561039357506001548311155b6103af5760405162461bcd60e51b8152600401610362906115ab565b60008251116104005760405162461bcd60e51b815260206004820152601760248201527f436f6d6d656e742063616e6e6f7420626520656d7074790000000000000000006044820152606401610362565b6000838152602081905260408120600881018054919261041f836115ea565b9091555050600084815260026020908152604080832060088501548452909152902080546001600160a01b031916331781556001810161045f8582611652565b506002810161046e8482611652565b50426003820155600882015460405133919087907f03a56e2377acf256c15a50f0b97834fa29a151d0b8a6d05c450576e40634fadc906104b19089908990611712565b60405180910390a45050505050565b606080606080600080881180156104d957506001548811155b6104f55760405162461bcd60e51b8152600401610362906115ab565b600087116105455760405162461bcd60e51b815260206004820152601f60248201527f5374617274204944206d7573742062652067726561746572207468616e2030006044820152606401610362565b5060008781526020819052604090206008015480808811156105e15760408051600080825260208201818152828401909352909190610594565b606081526020019060019003908161057f5790505b5060408051600080825260208201909252906105c0565b60608152602001906001900390816105ab5790505b50604080516000808252602082019092529050955095509550955050610944565b8660148111156105ef575060145b60006105fb8a84611740565b610606906001611753565b905080821115610614578091505b8167ffffffffffffffff81111561062d5761062d6111f2565b604051908082528060200260200182016040528015610656578160200160208202803683370190505b5097508167ffffffffffffffff811115610672576106726111f2565b6040519080825280602002602001820160405280156106a557816020015b60608152602001906001900390816106905790505b5096508167ffffffffffffffff8111156106c1576106c16111f2565b6040519080825280602002602001820160405280156106f457816020015b60608152602001906001900390816106df5790505b5095508167ffffffffffffffff811115610710576107106111f2565b604051908082528060200260200182016040528015610739578160200160208202803683370190505b50945060005b8281101561093f576000610753828d611753565b60008e8152600260209081526040808320848452909152902080548c5192935090916001600160a01b03909116908c908590811061079357610793611766565b60200260200101906001600160a01b031690816001600160a01b0316815250508060010180546107c290611571565b80601f01602080910402602001604051908101604052809291908181526020018280546107ee90611571565b801561083b5780601f106108105761010080835404028352916020019161083b565b820191906000526020600020905b81548152906001019060200180831161081e57829003601f168201915b50505050508a848151811061085257610852611766565b602002602001018190525080600201805461086c90611571565b80601f016020809104026020016040519081016040528092919081815260200182805461089890611571565b80156108e55780601f106108ba576101008083540402835291602001916108e5565b820191906000526020600020905b8154815290600101906020018083116108c857829003601f168201915b50505050508984815181106108fc576108fc611766565b6020026020010181905250806003015488848151811061091e5761091e611766565b60200260200101818152505050508080610937906115ea565b91505061073f565b505050505b939792965093509350565b6001805490600061095f836115ea565b909155505060018054600090815260208190526040902080546001600160a01b031916331781559081016109938482611652565b50600281016109a28382611652565b5042600382015560048101805460ff191690556000600582018190556006820181905560088201556001546040513391907f5475621b07408f75d49c828caa5aeacb3a5e98d3497e75730dc184677504401c90610a029086908890611712565b60405180910390a3505050565b600060608060008060008060008089118015610a2d57506001548911155b610a495760405162461bcd60e51b8152600401610362906115ab565b60008981526020819052604090208054600382015460048301546005840154600685015460088601546001870180546001600160a01b039097169690956002890195909460ff90911693909290918790610aa290611571565b80601f0160208091040260200160405190810160405280929190818152602001828054610ace90611571565b8015610b1b5780601f10610af057610100808354040283529160200191610b1b565b820191906000526020600020905b815481529060010190602001808311610afe57829003601f168201915b50505050509650858054610b2e90611571565b80601f0160208091040260200160405190810160405280929190818152602001828054610b5a90611571565b8015610ba75780601f10610b7c57610100808354040283529160200191610ba7565b820191906000526020600020905b815481529060010190602001808311610b8a57829003601f168201915b505050505095509850985098509850985098509850985050919395975091939597565b60008083118015610bdd57506001548311155b610bf95760405162461bcd60e51b8152600401610362906115ab565b506000828152602081815260408083206001600160a01b038516845260070190915290205460ff165b92915050565b600060608060008086118015610c4057506001548611155b610c5c5760405162461bcd60e51b8152600401610362906115ab565b600085118015610c7d57506000868152602081905260409020600801548511155b610cbe5760405162461bcd60e51b8152602060048201526012602482015271125b9d985b1a590818dbdb5b595b9d08125160721b6044820152606401610362565b60008681526002602081815260408084208985529091529091208054600382015460018301805493946001600160a01b03909316939092850191908390610d0490611571565b80601f0160208091040260200160405190810160405280929190818152602001828054610d3090611571565b8015610d7d5780601f10610d5257610100808354040283529160200191610d7d565b820191906000526020600020905b815481529060010190602001808311610d6057829003601f168201915b50505050509250818054610d9090611571565b80601f0160208091040260200160405190810160405280929190818152602001828054610dbc90611571565b8015610e095780601f10610dde57610100808354040283529160200191610e09565b820191906000526020600020905b815481529060010190602001808311610dec57829003601f168201915b5050505050915094509450945094505092959194509250565b600082118015610e3457506001548211155b610e505760405162461bcd60e51b8152600401610362906115ab565b60008281526020819052604090208054336001600160a01b0390911603610eb95760405162461bcd60e51b815260206004820152601c60248201527f43616e6e6f7420766f7465206f6e20796f7572206f776e20706f7374000000006044820152606401610362565b33600090815260078201602052604090205460ff1615610f0b5760405162461bcd60e51b815260206004820152600d60248201526c105b1c9958591e481d9bdd1959609a1b6044820152606401610362565b600481015460ff16610f545760048101805460ff19166001179055604051339084907fedc96ef82a3fd8ea664dd4fe50f94c77be3c3d6130792c3ed8b0199e3c28ec6290600090a35b3360009081526007820160205260409020805460ff191660011790558115610f9257600581018054906000610f88836115ea565b9190505550610faa565b600681018054906000610fa4836115ea565b91905055505b6040518215158152339084907fe71fcdac32df1877c1700e7bda2a03157e20993363a28fc35ac495cefc76e4d490602001610a02565b6002602090815260009283526040808420909152908252902080546001820180546001600160a01b03909216929161101790611571565b80601f016020809104026020016040519081016040528092919081815260200182805461104390611571565b80156110905780601f1061106557610100808354040283529160200191611090565b820191906000526020600020905b81548152906001019060200180831161107357829003601f168201915b5050505050908060020180546110a590611571565b80601f01602080910402602001604051908101604052809291908181526020018280546110d190611571565b801561111e5780601f106110f35761010080835404028352916020019161111e565b820191906000526020600020905b81548152906001019060200180831161110157829003601f168201915b5050505050908060030154905084565b60006020828403121561114057600080fd5b5035919050565b6000815180845260005b8181101561116d57602081850181015186830182015201611151565b506000602082860101526020601f19601f83011685010191505092915050565b6001600160a01b0389168152610100602082018190526000906111b28382018b611147565b905082810360408401526111c6818a611147565b60608401989098525050931515608085015260a084019290925260c083015260e0909101529392505050565b634e487b7160e01b600052604160045260246000fd5b600082601f83011261121957600080fd5b813567ffffffffffffffff80821115611234576112346111f2565b604051601f8301601f19908116603f0116810190828211818310171561125c5761125c6111f2565b8160405283815286602085880101111561127557600080fd5b836020870160208301376000602085830101528094505050505092915050565b6000806000606084860312156112aa57600080fd5b83359250602084013567ffffffffffffffff808211156112c957600080fd5b6112d587838801611208565b935060408601359150808211156112eb57600080fd5b506112f886828701611208565b9150509250925092565b60008060006060848603121561131757600080fd5b505081359360208301359350604090920135919050565b600082825180855260208086019550808260051b84010181860160005b8481101561137957601f19868403018952611367838351611147565b9884019892509083019060010161134b565b5090979650505050505050565b60a0808252865190820181905260009060209060c0840190828a01845b828110156113c85781516001600160a01b0316845292840192908401906001016113a3565b505050838103828501526113dc818961132e565b905083810360408501526113f0818861132e565b8481036060860152865180825283880192509083019060005b8181101561142557835183529284019291840191600101611409565b50508093505050508260808301529695505050505050565b6000806040838503121561145057600080fd5b823567ffffffffffffffff8082111561146857600080fd5b61147486838701611208565b9350602085013591508082111561148a57600080fd5b5061149785828601611208565b9150509250929050565b600080604083850312156114b457600080fd5b8235915060208301356001600160a01b03811681146114d257600080fd5b809150509250929050565b600080604083850312156114f057600080fd5b50508035926020909101359150565b6001600160a01b038516815260806020820181905260009061152390830186611147565b82810360408401526115358186611147565b91505082606083015295945050505050565b6000806040838503121561155a57600080fd5b82359150602083013580151581146114d257600080fd5b600181811c9082168061158557607f821691505b6020821081036115a557634e487b7160e01b600052602260045260246000fd5b50919050565b6020808252600f908201526e125b9d985b1a59081c1bdcdd081251608a1b604082015260600190565b634e487b7160e01b600052601160045260246000fd5b6000600182016115fc576115fc6115d4565b5060010190565b601f82111561164d57600081815260208120601f850160051c8101602086101561162a5750805b601f850160051c820191505b8181101561164957828155600101611636565b5050505b505050565b815167ffffffffffffffff81111561166c5761166c6111f2565b6116808161167a8454611571565b84611603565b602080601f8311600181146116b5576000841561169d5750858301515b600019600386901b1c1916600185901b178555611649565b600085815260208120601f198616915b828110156116e4578886015182559484019460019091019084016116c5565b50858210156117025787850151600019600388901b60f8161c191681555b5050505050600190811b01905550565b6040815260006117256040830185611147565b82810360208401526117378185611147565b95945050505050565b81810381811115610c2257610c226115d4565b80820180821115610c2257610c226115d4565b634e487b7160e01b600052603260045260246000fdfea26469706673582212206ecbb5f42ba428b77cfed686a1dd7447ce27c176e8f6fb44a58806c639a9d23164736f6c63430008130033e71fcdac32df1877c1700e7bda2a03157e20993363a28fc35ac495cefc76e4d45468697320706572736f6e207769746820696420233435206973206e6f742073746166662e2054686973206775792074727969696e6720746f2070726574656e7420626f74682070726f666573736f7220616e642073747566662e2049277665207365656e207468656d2061726f756e642063616d70757320617320612073747564656e742e5475621b07408f75d49c828caa5aeacb3a5e98d3497e75730dc184677504401c54686520657363616c61746f72206f757473696465204359542069732062726f6b656e20616761696e2120506c656173652066697820697420757267656e746c792103a56e2377acf256c15a50f0b97834fa29a151d0b8a6d05c450576e40634fadc50726f706f73616c3a20556e69766572736974792073686f756c64207072696f726974697a65205354454d2072657365617263682066756e64696e67207369676e69666963616e746c79206f7665722048756d616e697469657320746f206d61696e7461696e206f757220636f6d7065746974697665206564676520616e6420616c69676e207769746820667574757265206a6f62206d61726b65742064656d616e64732e2054686973206973206120707261676d6174696320617070726f61636820666f72206c6f6e672d7465726d20696e737469747574696f6e616c20737563636573732e20234675747572655354454d5768656e2077696c6c204c4731206f70656e206e6577206d65616c206f7074696f6e733f49206b6e6f77207468697320706572736f6e2066726f6d206d7920636c6173732e20546865792772652070726574656e64696e6720746f20626520737461666620616761696e215468697320697320646566696e6974656c792066616b65206e6577732e20446f6e27742062656c696576652069742e5468616e6b20796f7520746f2074686520737461666620666f722074686520717569636b20726573706f6e736521205468697320686173206265656e20616e206f6e676f696e672069737375652e4e6f207761792120492063616e2066696e616c6c7920626520667265652066726f6d207468652070726f6a656374214672616d696e6720746869732061732061202750726f666573736f7227207669657720697320612062697420646973696e67656e756f75732e204d616e7920666163756c74792062656c6965766520696e20612062616c616e63656420617070726f6163682e20546865206973737565206973206d6f7265206e75616e636564207468616e2070726573656e74656420686572652e0000000000000000000000004511277f98ba4282705da1c250110e24aa2f88a2492061677265652c20646566696e6974656c79206e6f742073746166662e20566f74696e672066616b65206f6e2074686973206f6e652e486f772063616e20796f752070726574656e6420746f20626520612070726f666573736f7220616e64207468656e20636f6d6d656e7420617320612073747564656e743f204f75722070726f6a656374206973207374696c6c206f6e676f696e672e2057652073686f756c64206368616c6c656e676520746869732075736572277320637265646962696c697479215468697320697320612073616d706c6520636f6d6d656e74206f6e20746865207465737420706f7374417320612073747564656e742c204920736565207468652070726163746963616c2062656e6566697473206f6620666f637573696e67206f6e205354454d20666f72206a6f622070726f7370656374732c206275742077652073686f756c646e277420636f6d706c6574656c7920646566756e642068756d616e69746965732e205468657920746561636820637269746963616c207468696e6b696e672e5468616e6b20796f7520666f72207265706f7274696e6720746869732069737375652e205765276c6c2073656e642061206d61696e74656e616e6365207465616d20726967687420617761792e74686520434f4d50343531312070726f6a6563742077696c6c2062652063616e63656c656421","opcodes":"PUSH1 0x80 PUSH1 0x40 MSTORE CALLVALUE DUP1 ISZERO PUSH3 0x11 JUMPI PUSH1 0x0 DUP1 REVERT JUMPDEST POP PUSH1 0x1 DUP1 DUP1 SSTORE PUSH1 0x0 SWAP1 DUP2 MSTORE PUSH1 0x20 SWAP1 DUP2 MSTORE PUSH32 0xADA5013122D395BA3C54772283FB069B10426056EF8CA54750CB9BB552A59E7D DUP1 SLOAD PUSH1 0x1 PUSH1 0x1 PUSH1 0xA0 SHL SUB NOT AND PUSH1 0x0 DUP1 MLOAD PUSH1 0x20 PUSH3 0x304F DUP4 CODECOPY DUP2 MLOAD SWAP2 MSTORE OR DUP2 SSTORE PUSH1 0x40 DUP1 MLOAD DUP1 DUP3 ADD SWAP1 SWAP2 MSTORE PUSH1 0x4 DUP2 MSTORE PUSH4 0x1D195CDD PUSH1 0xE2 SHL SWAP3 DUP2 ADD SWAP3 SWAP1 SWAP3 MSTORE SWAP1 PUSH32 0xADA5013122D395BA3C54772283FB069B10426056EF8CA54750CB9BB552A59E7E SWAP1 PUSH3 0xAD SWAP1 DUP3 PUSH3 0x131B JUMP JUMPDEST POP PUSH1 0x40 DUP1 MLOAD DUP1 DUP3 ADD SWAP1 SWAP2 MSTORE PUSH1 0x7 DUP2 MSTORE PUSH7 0x1CDD1D59195B9D PUSH1 0xCA SHL PUSH1 0x20 DUP3 ADD MSTORE PUSH1 0x2 DUP3 ADD SWAP1 PUSH3 0xDD SWAP1 DUP3 PUSH3 0x131B JUMP JUMPDEST POP PUSH4 0x681F3108 PUSH1 0x3 DUP3 ADD SSTORE PUSH1 0x4 DUP2 ADD DUP1 SLOAD PUSH1 0xFF NOT AND SWAP1 SSTORE PUSH1 0x0 PUSH1 0x5 DUP3 ADD DUP2 SWAP1 SSTORE PUSH1 0x6 DUP3 ADD DUP2 SWAP1 SSTORE PUSH1 0x1 PUSH1 0x8 DUP4 ADD DUP2 SWAP1 SSTORE DUP1 SLOAD DUP3 MSTORE PUSH1 0x2 PUSH1 0x20 SWAP1 DUP2 MSTORE PUSH1 0x40 DUP1 DUP5 KECCAK256 SWAP3 DUP5 MSTORE SWAP2 DUP2 MSTORE SWAP2 DUP2 SWAP1 KECCAK256 DUP1 SLOAD PUSH1 0x1 PUSH1 0x1 PUSH1 0xA0 SHL SUB NOT AND PUSH1 0x0 DUP1 MLOAD PUSH1 0x20 PUSH3 0x304F DUP4 CODECOPY DUP2 MLOAD SWAP2 MSTORE OR DUP2 SSTORE DUP2 MLOAD PUSH1 0x60 DUP2 ADD SWAP1 SWAP3 MSTORE PUSH1 0x29 DUP1 DUP4 MSTORE SWAP1 SWAP3 PUSH3 0x3135 SWAP1 DUP4 ADD CODECOPY PUSH1 0x1 DUP3 ADD SWAP1 PUSH3 0x16F SWAP1 DUP3 PUSH3 0x131B JUMP JUMPDEST POP PUSH1 0x40 DUP1 MLOAD DUP1 DUP3 ADD SWAP1 SWAP2 MSTORE PUSH1 0x7 DUP2 MSTORE PUSH7 0x1CDD1D59195B9D PUSH1 0xCA SHL PUSH1 0x20 DUP3 ADD MSTORE PUSH1 0x2 DUP3 ADD SWAP1 PUSH3 0x19F SWAP1 DUP3 PUSH3 0x131B JUMP JUMPDEST POP PUSH4 0x681F314C PUSH1 0x3 DUP3 ADD SSTORE DUP2 SLOAD PUSH1 0x1 DUP1 SLOAD PUSH1 0x40 MLOAD PUSH1 0x1 PUSH1 0x1 PUSH1 0xA0 SHL SUB SWAP1 SWAP4 AND SWAP3 SWAP1 SWAP2 PUSH1 0x0 DUP1 MLOAD PUSH1 0x20 PUSH3 0x2D2E DUP4 CODECOPY DUP2 MLOAD SWAP2 MSTORE SWAP2 PUSH3 0x1E6 SWAP2 PUSH1 0x2 DUP9 ADD SWAP2 SWAP1 DUP9 ADD SWAP1 PUSH3 0x146C JUMP JUMPDEST PUSH1 0x40 MLOAD DUP1 SWAP2 SUB SWAP1 LOG3 DUP1 SLOAD PUSH1 0x1 DUP1 SLOAD PUSH1 0x40 MLOAD PUSH1 0x1 PUSH1 0x1 PUSH1 0xA0 SHL SUB SWAP1 SWAP4 AND SWAP3 PUSH1 0x0 DUP1 MLOAD PUSH1 0x20 PUSH3 0x2D90 DUP4 CODECOPY DUP2 MLOAD SWAP2 MSTORE SWAP1 PUSH3 0x228 SWAP1 DUP5 DUP8 ADD SWAP1 PUSH1 0x2 DUP9 ADD SWAP1 PUSH3 0x146C JUMP JUMPDEST PUSH1 0x40 MLOAD DUP1 SWAP2 SUB SWAP1 LOG4 PUSH1 0x1 DUP1 SLOAD SWAP1 PUSH1 0x0 PUSH3 0x242 DUP4 PUSH3 0x149E JUMP JUMPDEST SWAP1 SWAP2 SSTORE POP POP PUSH1 0x1 SLOAD PUSH1 0x0 SWAP1 DUP2 MSTORE PUSH1 0x20 DUP2 DUP2 MSTORE PUSH1 0x40 SWAP2 DUP3 SWAP1 KECCAK256 DUP1 SLOAD PUSH1 0x1 PUSH1 0x1 PUSH1 0xA0 SHL SUB NOT AND PUSH1 0x0 DUP1 MLOAD PUSH1 0x20 PUSH3 0x304F DUP4 CODECOPY DUP2 MLOAD SWAP2 MSTORE OR DUP2 SSTORE DUP3 MLOAD PUSH1 0x60 DUP2 ADD SWAP1 SWAP4 MSTORE PUSH1 0x26 DUP1 DUP5 MSTORE SWAP1 SWAP3 SWAP2 PUSH3 0x3249 SWAP1 DUP4 ADD CODECOPY PUSH1 0x1 DUP3 ADD SWAP1 PUSH3 0x2A3 SWAP1 DUP3 PUSH3 0x131B JUMP JUMPDEST POP PUSH1 0x40 DUP1 MLOAD DUP1 DUP3 ADD SWAP1 SWAP2 MSTORE PUSH1 0x9 DUP2 MSTORE PUSH9 0x383937B332B9B9B7B9 PUSH1 0xB9 SHL PUSH1 0x20 DUP3 ADD MSTORE PUSH1 0x2 DUP3 ADD SWAP1 PUSH3 0x2D5 SWAP1 DUP3 PUSH3 0x131B JUMP JUMPDEST POP PUSH4 0x681F31B0 PUSH1 0x3 DUP1 DUP4 ADD SWAP2 SWAP1 SWAP2 SSTORE PUSH1 0x4 DUP3 ADD DUP1 SLOAD PUSH1 0xFF NOT AND PUSH1 0x1 SWAP1 DUP2 OR SWAP1 SWAP2 SSTORE PUSH1 0x0 PUSH1 0x5 DUP5 ADD DUP2 SWAP1 SSTORE PUSH1 0x6 DUP5 ADD DUP3 SWAP1 SSTORE PUSH1 0x8 DUP5 ADD SWAP3 SWAP1 SWAP3 SSTORE DUP1 SLOAD DUP3 MSTORE PUSH1 0x2 PUSH1 0x20 SWAP1 DUP2 MSTORE PUSH1 0x40 DUP1 DUP5 KECCAK256 SWAP3 DUP5 MSTORE SWAP2 DUP2 MSTORE SWAP2 DUP2 SWAP1 KECCAK256 DUP1 SLOAD PUSH1 0x1 PUSH1 0x1 PUSH1 0xA0 SHL SUB NOT AND PUSH1 0x0 DUP1 MLOAD PUSH1 0x20 PUSH3 0x304F DUP4 CODECOPY DUP2 MLOAD SWAP2 MSTORE OR DUP2 SSTORE DUP2 MLOAD PUSH1 0x60 DUP2 ADD SWAP1 SWAP3 MSTORE PUSH1 0x2F DUP1 DUP4 MSTORE SWAP1 SWAP3 PUSH3 0x2F8B SWAP1 DUP4 ADD CODECOPY PUSH1 0x1 DUP3 ADD SWAP1 PUSH3 0x370 SWAP1 DUP3 PUSH3 0x131B JUMP JUMPDEST POP PUSH1 0x40 DUP1 MLOAD DUP1 DUP3 ADD SWAP1 SWAP2 MSTORE PUSH1 0x7 DUP2 MSTORE PUSH7 0x1CDD1D59195B9D PUSH1 0xCA SHL PUSH1 0x20 DUP3 ADD MSTORE PUSH1 0x2 DUP3 ADD SWAP1 PUSH3 0x3A0 SWAP1 DUP3 PUSH3 0x131B JUMP JUMPDEST POP PUSH4 0x681F3278 PUSH1 0x3 DUP3 ADD SSTORE PUSH1 0x1 SLOAD PUSH1 0x0 SWAP1 DUP2 MSTORE PUSH1 0x2 PUSH1 0x20 DUP2 DUP2 MSTORE PUSH1 0x40 DUP1 DUP5 KECCAK256 SWAP3 DUP5 MSTORE SWAP2 DUP2 MSTORE SWAP2 DUP2 SWAP1 KECCAK256 DUP1 SLOAD PUSH1 0x1 PUSH1 0x1 PUSH1 0xA0 SHL SUB NOT AND PUSH20 0x3FC91A3AFD70395CD496C647D5A6CC9D4B2B7FAD OR DUP2 SSTORE DUP2 MLOAD PUSH1 0x60 DUP2 ADD SWAP1 SWAP3 MSTORE PUSH1 0x2F DUP1 DUP4 MSTORE SWAP1 SWAP3 PUSH3 0x2F0E SWAP1 DUP4 ADD CODECOPY PUSH1 0x1 DUP3 ADD SWAP1 PUSH3 0x416 SWAP1 DUP3 PUSH3 0x131B JUMP JUMPDEST POP PUSH1 0x40 DUP1 MLOAD DUP1 DUP3 ADD SWAP1 SWAP2 MSTORE PUSH1 0x7 DUP2 MSTORE PUSH7 0x1CDD1D59195B9D PUSH1 0xCA SHL PUSH1 0x20 DUP3 ADD MSTORE PUSH1 0x2 DUP3 ADD SWAP1 PUSH3 0x446 SWAP1 DUP3 PUSH3 0x131B JUMP JUMPDEST POP PUSH4 0x681F3340 PUSH1 0x3 DUP1 DUP4 ADD SWAP2 SWAP1 SWAP2 SSTORE PUSH1 0x1 SLOAD PUSH1 0x0 SWAP1 DUP2 MSTORE PUSH1 0x2 PUSH1 0x20 SWAP1 DUP2 MSTORE PUSH1 0x40 DUP1 DUP4 KECCAK256 SWAP4 DUP4 MSTORE SWAP3 DUP2 MSTORE SWAP1 DUP3 SWAP1 KECCAK256 DUP1 SLOAD PUSH1 0x1 PUSH1 0x1 PUSH1 0xA0 SHL SUB NOT AND PUSH20 0xA983D7E14AC1AAF050BB64FDAB1024AE9C93C956 OR DUP2 SSTORE DUP3 MLOAD PUSH1 0xC0 DUP2 ADD SWAP1 SWAP4 MSTORE PUSH1 0x8F DUP1 DUP5 MSTORE SWAP1 SWAP3 SWAP2 PUSH3 0x30A6 SWAP1 DUP4 ADD CODECOPY PUSH1 0x1 DUP3 ADD SWAP1 PUSH3 0x4C1 SWAP1 DUP3 PUSH3 0x131B JUMP JUMPDEST POP PUSH1 0x40 DUP1 MLOAD DUP1 DUP3 ADD SWAP1 SWAP2 MSTORE PUSH1 0x7 DUP2 MSTORE PUSH7 0x1CDD1D59195B9D PUSH1 0xCA SHL PUSH1 0x20 DUP3 ADD MSTORE PUSH1 0x2 DUP3 ADD SWAP1 PUSH3 0x4F1 SWAP1 DUP3 PUSH3 0x131B JUMP JUMPDEST POP PUSH4 0x681F4FBC PUSH1 0x3 DUP3 ADD SSTORE DUP4 SLOAD PUSH1 0x1 DUP1 SLOAD PUSH1 0x40 MLOAD PUSH1 0x1 PUSH1 0x1 PUSH1 0xA0 SHL SUB SWAP1 SWAP4 AND SWAP3 SWAP1 SWAP2 PUSH1 0x0 DUP1 MLOAD PUSH1 0x20 PUSH3 0x2D2E DUP4 CODECOPY DUP2 MLOAD SWAP2 MSTORE SWAP2 PUSH3 0x538 SWAP2 PUSH1 0x2 DUP11 ADD SWAP2 SWAP1 DUP11 ADD SWAP1 PUSH3 0x146C JUMP JUMPDEST PUSH1 0x40 MLOAD DUP1 SWAP2 SUB SWAP1 LOG3 DUP3 SLOAD PUSH1 0x1 DUP1 SLOAD PUSH1 0x40 MLOAD PUSH1 0x1 PUSH1 0x1 PUSH1 0xA0 SHL SUB SWAP1 SWAP4 AND SWAP3 PUSH1 0x0 DUP1 MLOAD PUSH1 0x20 PUSH3 0x2D90 DUP4 CODECOPY DUP2 MLOAD SWAP2 MSTORE SWAP1 PUSH3 0x57A SWAP1 DUP5 DUP10 ADD SWAP1 PUSH1 0x2 DUP11 ADD SWAP1 PUSH3 0x146C JUMP JUMPDEST PUSH1 0x40 MLOAD DUP1 SWAP2 SUB SWAP1 LOG4 DUP2 SLOAD PUSH1 0x1 DUP1 SLOAD PUSH1 0x40 MLOAD PUSH1 0x1 PUSH1 0x1 PUSH1 0xA0 SHL SUB SWAP1 SWAP4 AND SWAP3 PUSH1 0x2 SWAP3 PUSH1 0x0 DUP1 MLOAD PUSH1 0x20 PUSH3 0x2D90 DUP4 CODECOPY DUP2 MLOAD SWAP2 MSTORE SWAP2 PUSH3 0x5BD SWAP2 DUP9 ADD SWAP1 DUP6 DUP10 ADD SWAP1 PUSH3 0x146C JUMP JUMPDEST PUSH1 0x40 MLOAD DUP1 SWAP2 SUB SWAP1 LOG4 DUP1 SLOAD PUSH1 0x1 DUP1 SLOAD PUSH1 0x40 MLOAD PUSH1 0x1 PUSH1 0x1 PUSH1 0xA0 SHL SUB SWAP1 SWAP4 AND SWAP3 PUSH1 0x3 SWAP3 PUSH1 0x0 DUP1 MLOAD PUSH1 0x20 PUSH3 0x2D90 DUP4 CODECOPY DUP2 MLOAD SWAP2 MSTORE SWAP2 PUSH3 0x601 SWAP2 DUP8 ADD SWAP1 PUSH1 0x2 DUP9 ADD SWAP1 PUSH3 0x146C JUMP JUMPDEST PUSH1 0x40 MLOAD DUP1 SWAP2 SUB SWAP1 LOG4 PUSH1 0x1 DUP1 SLOAD SWAP1 PUSH1 0x0 PUSH3 0x61B DUP4 PUSH3 0x149E JUMP JUMPDEST SWAP1 SWAP2 SSTORE POP POP PUSH1 0x1 SLOAD PUSH1 0x0 SWAP1 DUP2 MSTORE PUSH1 0x20 DUP2 DUP2 MSTORE PUSH1 0x40 SWAP2 DUP3 SWAP1 KECCAK256 DUP1 SLOAD PUSH1 0x1 PUSH1 0x1 PUSH1 0xA0 SHL SUB NOT AND PUSH20 0x78731D3CA6B7E34AC0F824C42A7CC18A495CABAB OR DUP2 SSTORE DUP3 MLOAD PUSH1 0x80 DUP2 ADD SWAP1 SWAP4 MSTORE PUSH1 0x42 DUP1 DUP5 MSTORE SWAP1 SWAP3 SWAP2 PUSH3 0x2D4E SWAP1 DUP4 ADD CODECOPY PUSH1 0x1 DUP3 ADD SWAP1 PUSH3 0x681 SWAP1 DUP3 PUSH3 0x131B JUMP JUMPDEST POP PUSH1 0x40 DUP1 MLOAD DUP1 DUP3 ADD SWAP1 SWAP2 MSTORE PUSH1 0x7 DUP2 MSTORE PUSH7 0x1CDD1D59195B9D PUSH1 0xCA SHL PUSH1 0x20 DUP3 ADD MSTORE PUSH1 0x2 DUP3 ADD SWAP1 PUSH3 0x6B1 SWAP1 DUP3 PUSH3 0x131B JUMP JUMPDEST POP PUSH4 0x68229CFC PUSH1 0x3 DUP3 ADD SSTORE PUSH1 0x4 DUP2 ADD DUP1 SLOAD PUSH1 0xFF NOT AND SWAP1 SSTORE PUSH1 0x1 PUSH1 0x5 DUP3 ADD DUP2 SWAP1 SSTORE PUSH1 0x0 PUSH1 0x6 DUP4 ADD DUP2 SWAP1 SSTORE PUSH1 0x2 PUSH1 0x8 DUP5 ADD DUP2 SWAP1 SSTORE DUP3 SLOAD DUP3 MSTORE PUSH1 0x20 SWAP1 DUP2 MSTORE PUSH1 0x40 DUP1 DUP4 KECCAK256 SWAP4 DUP4 MSTORE SWAP3 DUP2 MSTORE SWAP1 DUP3 SWAP1 KECCAK256 DUP1 SLOAD PUSH1 0x1 PUSH1 0x1 PUSH1 0xA0 SHL SUB NOT AND PUSH20 0x3FC91A3AFD70395CD496C647D5A6CC9D4B2B7FAD OR DUP2 SSTORE DUP3 MLOAD PUSH1 0x80 DUP2 ADD SWAP1 SWAP4 MSTORE PUSH1 0x4D DUP1 DUP5 MSTORE SWAP1 SWAP3 SWAP2 PUSH3 0x31FC SWAP1 DUP4 ADD CODECOPY PUSH1 0x1 DUP3 ADD SWAP1 PUSH3 0x749 SWAP1 DUP3 PUSH3 0x131B JUMP JUMPDEST POP PUSH1 0x40 DUP1 MLOAD DUP1 DUP3 ADD SWAP1 SWAP2 MSTORE PUSH1 0x5 DUP2 MSTORE PUSH5 0x39BA30B333 PUSH1 0xD9 SHL PUSH1 0x20 DUP3 ADD MSTORE PUSH1 0x2 DUP3 ADD SWAP1 PUSH3 0x777 SWAP1 DUP3 PUSH3 0x131B JUMP JUMPDEST POP PUSH4 0x68229D78 PUSH1 0x3 DUP3 ADD SSTORE PUSH1 0x1 SLOAD PUSH1 0x0 SWAP1 DUP2 MSTORE PUSH1 0x2 PUSH1 0x20 DUP2 DUP2 MSTORE PUSH1 0x40 DUP1 DUP5 KECCAK256 SWAP3 DUP5 MSTORE SWAP2 DUP2 MSTORE SWAP2 DUP2 SWAP1 KECCAK256 DUP1 SLOAD PUSH1 0x1 PUSH1 0x1 PUSH1 0xA0 SHL SUB NOT AND PUSH20 0xA983D7E14AC1AAF050BB64FDAB1024AE9C93C956 OR DUP2 SSTORE DUP2 MLOAD PUSH1 0x80 DUP2 ADD SWAP1 SWAP3 MSTORE PUSH1 0x4E DUP1 DUP4 MSTORE SWAP1 SWAP3 PUSH3 0x2F3D SWAP1 DUP4 ADD CODECOPY PUSH1 0x1 DUP3 ADD SWAP1 PUSH3 0x7ED SWAP1 DUP3 PUSH3 0x131B JUMP JUMPDEST POP PUSH1 0x40 DUP1 MLOAD DUP1 DUP3 ADD SWAP1 SWAP2 MSTORE PUSH1 0x9 DUP2 MSTORE PUSH9 0x383937B332B9B9B7B9 PUSH1 0xB9 SHL PUSH1 0x20 DUP3 ADD MSTORE PUSH1 0x2 DUP3 ADD SWAP1 PUSH3 0x81F SWAP1 DUP3 PUSH3 0x131B JUMP JUMPDEST POP PUSH4 0x681F4F68 PUSH1 0x3 DUP3 ADD SSTORE PUSH1 0x1 DUP1 SLOAD PUSH1 0x0 SWAP1 DUP2 MSTORE PUSH1 0x20 DUP2 DUP2 MSTORE PUSH1 0x40 DUP1 DUP4 KECCAK256 DUP6 SLOAD PUSH1 0x1 PUSH1 0x1 PUSH1 0xA0 SHL SUB SWAP1 DUP2 AND DUP6 MSTORE PUSH1 0x7 SWAP1 SWAP2 ADD SWAP1 SWAP3 MSTORE SWAP2 DUP3 SWAP1 KECCAK256 DUP1 SLOAD PUSH1 0xFF NOT AND DUP5 OR SWAP1 SSTORE DUP6 SLOAD DUP4 SLOAD SWAP3 MLOAD SWAP2 AND SWAP3 PUSH1 0x0 DUP1 MLOAD PUSH1 0x20 PUSH3 0x2D2E DUP4 CODECOPY DUP2 MLOAD SWAP2 MSTORE SWAP2 PUSH3 0x890 SWAP2 PUSH1 0x2 DUP10 ADD SWAP2 SWAP1 DUP10 ADD SWAP1 PUSH3 0x146C JUMP JUMPDEST PUSH1 0x40 MLOAD DUP1 SWAP2 SUB SWAP1 LOG3 DUP2 SLOAD PUSH1 0x1 DUP1 SLOAD PUSH1 0x40 MLOAD PUSH1 0x1 PUSH1 0x1 PUSH1 0xA0 SHL SUB SWAP1 SWAP4 AND SWAP3 PUSH1 0x0 DUP1 MLOAD PUSH1 0x20 PUSH3 0x2D90 DUP4 CODECOPY DUP2 MLOAD SWAP2 MSTORE SWAP1 PUSH3 0x8D2 SWAP1 DUP5 DUP9 ADD SWAP1 PUSH1 0x2 DUP10 ADD SWAP1 PUSH3 0x146C JUMP JUMPDEST PUSH1 0x40 MLOAD DUP1 SWAP2 SUB SWAP1 LOG4 DUP1 SLOAD PUSH1 0x1 DUP1 SLOAD PUSH1 0x40 MLOAD PUSH1 0x1 PUSH1 0x1 PUSH1 0xA0 SHL SUB SWAP1 SWAP4 AND SWAP3 PUSH1 0x2 SWAP3 PUSH1 0x0 DUP1 MLOAD PUSH1 0x20 PUSH3 0x2D90 DUP4 CODECOPY DUP2 MLOAD SWAP2 MSTORE SWAP2 PUSH3 0x915 SWAP2 DUP8 ADD SWAP1 DUP6 DUP9 ADD SWAP1 PUSH3 0x146C JUMP JUMPDEST PUSH1 0x40 MLOAD DUP1 SWAP2 SUB SWAP1 LOG4 PUSH1 0x1 DUP1 SLOAD SWAP1 PUSH1 0x0 PUSH3 0x92F DUP4 PUSH3 0x149E JUMP JUMPDEST SWAP1 SWAP2 SSTORE POP POP PUSH1 0x1 SLOAD PUSH1 0x0 SWAP1 DUP2 MSTORE PUSH1 0x20 DUP2 DUP2 MSTORE PUSH1 0x40 SWAP2 DUP3 SWAP1 KECCAK256 DUP1 SLOAD PUSH1 0x1 PUSH1 0x1 PUSH1 0xA0 SHL SUB NOT AND PUSH1 0x0 DUP1 MLOAD PUSH1 0x20 PUSH3 0x304F DUP4 CODECOPY DUP2 MLOAD SWAP2 MSTORE OR DUP2 SSTORE DUP3 MLOAD PUSH1 0x60 DUP2 ADD SWAP1 SWAP4 MSTORE PUSH1 0x24 DUP1 DUP5 MSTORE SWAP1 SWAP3 SWAP2 PUSH3 0x2EA3 SWAP1 DUP4 ADD CODECOPY PUSH1 0x1 DUP3 ADD SWAP1 PUSH3 0x990 SWAP1 DUP3 PUSH3 0x131B JUMP JUMPDEST POP PUSH1 0x40 DUP1 MLOAD DUP1 DUP3 ADD SWAP1 SWAP2 MSTORE PUSH1 0x5 DUP2 MSTORE PUSH5 0x39BA30B333 PUSH1 0xD9 SHL PUSH1 0x20 DUP3 ADD MSTORE PUSH1 0x2 DUP3 ADD SWAP1 PUSH3 0x9BE SWAP1 DUP3 PUSH3 0x131B JUMP JUMPDEST POP PUSH4 0x681F5FC8 PUSH1 0x3 DUP1 DUP4 ADD SWAP2 SWAP1 SWAP2 SSTORE PUSH1 0x4 DUP3 ADD DUP1 SLOAD PUSH1 0xFF NOT AND PUSH1 0x1 SWAP1 DUP2 OR SWAP1 SWAP2 SSTORE PUSH1 0x0 PUSH1 0x5 DUP5 ADD DUP2 SWAP1 SSTORE PUSH1 0x6 DUP5 ADD DUP4 SWAP1 SSTORE PUSH1 0x8 DUP5 ADD SWAP3 SWAP1 SWAP3 SSTORE DUP1 SLOAD DUP3 MSTORE PUSH1 0x2 PUSH1 0x20 SWAP1 DUP2 MSTORE PUSH1 0x40 DUP1 DUP5 KECCAK256 SWAP3 DUP5 MSTORE SWAP2 DUP2 MSTORE SWAP2 DUP2 SWAP1 KECCAK256 DUP1 SLOAD PUSH1 0x1 PUSH1 0x1 PUSH1 0xA0 SHL SUB NOT AND PUSH20 0x5B38DA6A701C568545DCFCB03FCB875F56BEDDC4 OR DUP2 SSTORE DUP2 MLOAD PUSH1 0xC0 DUP2 ADD SWAP1 SWAP3 MSTORE PUSH1 0x86 DUP1 DUP4 MSTORE SWAP1 SWAP3 PUSH3 0x2CA8 SWAP1 DUP4 ADD CODECOPY PUSH1 0x1 DUP3 ADD SWAP1 PUSH3 0xA5E SWAP1 DUP3 PUSH3 0x131B JUMP JUMPDEST POP PUSH1 0x40 DUP1 MLOAD DUP1 DUP3 ADD SWAP1 SWAP2 MSTORE PUSH1 0x7 DUP2 MSTORE PUSH7 0x1CDD1D59195B9D PUSH1 0xCA SHL PUSH1 0x20 DUP3 ADD MSTORE PUSH1 0x2 DUP3 ADD SWAP1 PUSH3 0xA8E SWAP1 DUP3 PUSH3 0x131B JUMP JUMPDEST POP PUSH4 0x681F6414 PUSH1 0x3 DUP3 ADD SSTORE PUSH1 0x1 DUP1 SLOAD PUSH1 0x0 SWAP1 DUP2 MSTORE PUSH1 0x20 DUP2 DUP2 MSTORE PUSH1 0x40 DUP1 DUP4 KECCAK256 DUP6 SLOAD PUSH1 0x1 PUSH1 0x1 PUSH1 0xA0 SHL SUB AND DUP5 MSTORE PUSH1 0x7 ADD DUP3 MSTORE DUP1 DUP4 KECCAK256 DUP1 SLOAD PUSH1 0xFF NOT AND DUP6 OR SWAP1 SSTORE SWAP3 SLOAD DUP3 MSTORE PUSH1 0x2 DUP1 DUP3 MSTORE DUP4 DUP4 KECCAK256 SWAP1 DUP4 MSTORE DUP2 MSTORE SWAP1 DUP3 SWAP1 KECCAK256 DUP1 SLOAD PUSH1 0x1 PUSH1 0x1 PUSH1 0xA0 SHL SUB NOT AND PUSH20 0x617F2E2FD72FD9D5503197092AC168C91465E7F2 OR DUP2 SSTORE DUP3 MLOAD PUSH1 0x60 DUP2 ADD SWAP1 SWAP4 MSTORE PUSH1 0x37 DUP1 DUP5 MSTORE SWAP1 SWAP3 SWAP2 PUSH3 0x306F SWAP1 DUP4 ADD CODECOPY PUSH1 0x1 DUP3 ADD SWAP1 PUSH3 0xB2E SWAP1 DUP3 PUSH3 0x131B JUMP JUMPDEST POP PUSH1 0x40 DUP1 MLOAD DUP1 DUP3 ADD SWAP1 SWAP2 MSTORE PUSH1 0x7 DUP2 MSTORE PUSH7 0x1CDD1D59195B9D PUSH1 0xCA SHL PUSH1 0x20 DUP3 ADD MSTORE PUSH1 0x2 DUP3 ADD SWAP1 PUSH3 0xB5E SWAP1 DUP3 PUSH3 0x131B JUMP JUMPDEST POP PUSH4 0x681F6860 PUSH1 0x3 DUP1 DUP4 ADD SWAP2 SWAP1 SWAP2 SSTORE PUSH1 0x1 DUP1 SLOAD PUSH1 0x0 SWAP1 DUP2 MSTORE PUSH1 0x20 DUP2 DUP2 MSTORE PUSH1 0x40 DUP1 DUP4 KECCAK256 DUP7 SLOAD PUSH1 0x1 PUSH1 0x1 PUSH1 0xA0 SHL SUB AND DUP5 MSTORE PUSH1 0x7 ADD DUP3 MSTORE DUP1 DUP4 KECCAK256 DUP1 SLOAD PUSH1 0xFF NOT AND DUP6 OR SWAP1 SSTORE SWAP3 SLOAD DUP3 MSTORE PUSH1 0x2 DUP2 MSTORE DUP3 DUP3 KECCAK256 SWAP4 DUP3 MSTORE SWAP3 DUP4 MSTORE DUP2 SWAP1 KECCAK256 DUP1 SLOAD PUSH1 0x1 PUSH1 0x1 PUSH1 0xA0 SHL SUB NOT AND PUSH20 0xA983D7E14AC1AAF050BB64FDAB1024AE9C93C956 OR DUP2 SSTORE DUP2 MLOAD PUSH1 0x80 DUP2 ADD SWAP1 SWAP3 MSTORE PUSH1 0x47 DUP1 DUP4 MSTORE SWAP1 SWAP3 PUSH3 0x2EC7 SWAP1 DUP4 ADD CODECOPY PUSH1 0x1 DUP3 ADD SWAP1 PUSH3 0xC00 SWAP1 DUP3 PUSH3 0x131B JUMP JUMPDEST POP PUSH1 0x40 DUP1 MLOAD DUP1 DUP3 ADD SWAP1 SWAP2 MSTORE PUSH1 0x7 DUP2 MSTORE PUSH7 0x1CDD1D59195B9D PUSH1 0xCA SHL PUSH1 0x20 DUP3 ADD MSTORE PUSH1 0x2 DUP3 ADD SWAP1 PUSH3 0xC30 SWAP1 DUP3 PUSH3 0x131B JUMP JUMPDEST POP PUSH4 0x681F6CAC PUSH1 0x3 DUP3 ADD SSTORE PUSH1 0x1 DUP1 SLOAD PUSH1 0x0 SWAP1 DUP2 MSTORE PUSH1 0x20 DUP2 DUP2 MSTORE PUSH1 0x40 DUP1 DUP4 KECCAK256 DUP6 SLOAD PUSH1 0x1 PUSH1 0x1 PUSH1 0xA0 SHL SUB SWAP1 DUP2 AND DUP6 MSTORE PUSH1 0x7 SWAP1 SWAP2 ADD SWAP1 SWAP3 MSTORE SWAP2 DUP3 SWAP1 KECCAK256 DUP1 SLOAD PUSH1 0xFF NOT AND DUP5 OR SWAP1 SSTORE DUP7 SLOAD DUP4 SLOAD SWAP3 MLOAD SWAP2 AND SWAP3 PUSH1 0x0 DUP1 MLOAD PUSH1 0x20 PUSH3 0x2D2E DUP4 CODECOPY DUP2 MLOAD SWAP2 MSTORE SWAP2 PUSH3 0xCA1 SWAP2 PUSH1 0x2 DUP11 ADD SWAP2 SWAP1 DUP11 ADD SWAP1 PUSH3 0x146C JUMP JUMPDEST PUSH1 0x40 MLOAD DUP1 SWAP2 SUB SWAP1 LOG3 DUP3 SLOAD PUSH1 0x1 DUP1 SLOAD PUSH1 0x40 MLOAD PUSH1 0x1 PUSH1 0x1 PUSH1 0xA0 SHL SUB SWAP1 SWAP4 AND SWAP3 PUSH1 0x0 DUP1 MLOAD PUSH1 0x20 PUSH3 0x2D90 DUP4 CODECOPY DUP2 MLOAD SWAP2 MSTORE SWAP1 PUSH3 0xCE3 SWAP1 DUP5 DUP10 ADD SWAP1 PUSH1 0x2 DUP11 ADD SWAP1 PUSH3 0x146C JUMP JUMPDEST PUSH1 0x40 MLOAD DUP1 SWAP2 SUB SWAP1 LOG4 DUP2 SLOAD PUSH1 0x1 DUP1 SLOAD PUSH1 0x40 MLOAD PUSH1 0x1 PUSH1 0x1 PUSH1 0xA0 SHL SUB SWAP1 SWAP4 AND SWAP3 PUSH1 0x2 SWAP3 PUSH1 0x0 DUP1 MLOAD PUSH1 0x20 PUSH3 0x2D90 DUP4 CODECOPY DUP2 MLOAD SWAP2 MSTORE SWAP2 PUSH3 0xD26 SWAP2 DUP9 ADD SWAP1 DUP6 DUP10 ADD SWAP1 PUSH3 0x146C JUMP JUMPDEST PUSH1 0x40 MLOAD DUP1 SWAP2 SUB SWAP1 LOG4 DUP1 SLOAD PUSH1 0x1 DUP1 SLOAD PUSH1 0x40 MLOAD PUSH1 0x1 PUSH1 0x1 PUSH1 0xA0 SHL SUB SWAP1 SWAP4 AND SWAP3 PUSH1 0x3 SWAP3 PUSH1 0x0 DUP1 MLOAD PUSH1 0x20 PUSH3 0x2D90 DUP4 CODECOPY DUP2 MLOAD SWAP2 MSTORE SWAP2 PUSH3 0xD6A SWAP2 DUP8 ADD SWAP1 PUSH1 0x2 DUP9 ADD SWAP1 PUSH3 0x146C JUMP JUMPDEST PUSH1 0x40 MLOAD DUP1 SWAP2 SUB SWAP1 LOG4 PUSH1 0x1 DUP1 SLOAD SWAP1 PUSH1 0x0 PUSH3 0xD84 DUP4 PUSH3 0x149E JUMP JUMPDEST SWAP1 SWAP2 SSTORE POP POP PUSH1 0x1 SLOAD PUSH1 0x0 SWAP1 DUP2 MSTORE PUSH1 0x20 DUP2 DUP2 MSTORE PUSH1 0x40 SWAP2 DUP3 SWAP1 KECCAK256 DUP1 SLOAD PUSH1 0x1 PUSH1 0x1 PUSH1 0xA0 SHL SUB NOT AND PUSH20 0x1111111111111111111111111111111111111111 OR DUP2 SSTORE DUP3 MLOAD PUSH2 0x120 DUP2 ADD SWAP1 SWAP4 MSTORE PUSH1 0xF3 DUP1 DUP5 MSTORE SWAP1 SWAP3 SWAP2 PUSH3 0x2DB0 SWAP1 DUP4 ADD CODECOPY PUSH1 0x1 DUP3 ADD SWAP1 PUSH3 0xDEB SWAP1 DUP3 PUSH3 0x131B JUMP JUMPDEST POP PUSH1 0x40 DUP1 MLOAD DUP1 DUP3 ADD SWAP1 SWAP2 MSTORE PUSH1 0x9 DUP2 MSTORE PUSH9 0x383937B332B9B9B7B9 PUSH1 0xB9 SHL PUSH1 0x20 DUP3 ADD MSTORE PUSH1 0x2 DUP3 ADD SWAP1 PUSH3 0xE1D SWAP1 DUP3 PUSH3 0x131B JUMP JUMPDEST POP PUSH4 0x6821EC20 PUSH1 0x3 DUP3 ADD SSTORE PUSH1 0x4 DUP2 ADD DUP1 SLOAD PUSH1 0xFF NOT SWAP1 DUP2 AND PUSH1 0x1 SWAP1 DUP2 OR SWAP1 SWAP3 SSTORE PUSH1 0x2 PUSH1 0x5 DUP5 ADD DUP2 SWAP1 SSTORE PUSH1 0x6 DUP5 ADD DUP2 SWAP1 SSTORE PUSH1 0x8 DUP5 ADD DUP2 SWAP1 SSTORE DUP3 SLOAD PUSH1 0x0 SWAP1 DUP2 MSTORE PUSH1 0x20 DUP2 DUP2 MSTORE PUSH1 0x40 DUP1 DUP4 KECCAK256 PUSH20 0x2222222222222222222222222222222222222222 DUP5 MSTORE PUSH1 0x7 SWAP1 DUP2 ADD DUP4 MSTORE DUP2 DUP5 KECCAK256 DUP1 SLOAD DUP8 AND DUP9 OR SWAP1 SSTORE DUP7 SLOAD DUP5 MSTORE DUP4 DUP4 MSTORE DUP2 DUP5 KECCAK256 PUSH20 0x3333333333333333333333333333333333333333 DUP6 MSTORE DUP2 ADD DUP4 MSTORE DUP2 DUP5 KECCAK256 DUP1 SLOAD DUP8 AND DUP9 OR SWAP1 SSTORE DUP7 SLOAD DUP5 MSTORE DUP4 DUP4 MSTORE DUP2 DUP5 KECCAK256 PUSH20 0x4444444444444444444444444444444444444444 DUP6 MSTORE DUP2 ADD DUP4 MSTORE DUP2 DUP5 KECCAK256 DUP1 SLOAD DUP8 AND DUP9 OR SWAP1 SSTORE DUP7 SLOAD DUP5 MSTORE DUP4 DUP4 MSTORE DUP2 DUP5 KECCAK256 PUSH20 0x5555555555555555555555555555555555555555 DUP6 MSTORE ADD DUP3 MSTORE DUP1 DUP4 KECCAK256 DUP1 SLOAD SWAP1 SWAP6 AND DUP7 OR SWAP1 SWAP5 SSTORE DUP5 SLOAD DUP3 MSTORE SWAP2 DUP3 MSTORE DUP3 DUP2 KECCAK256 SWAP4 DUP2 MSTORE SWAP3 DUP2 MSTORE SWAP2 DUP2 SWAP1 KECCAK256 DUP1 SLOAD PUSH1 0x1 PUSH1 0x1 PUSH1 0xA0 SHL SUB NOT AND PUSH20 0x6666666666666666666666666666666666666666 OR DUP2 SSTORE DUP2 MLOAD PUSH1 0xC0 DUP2 ADD SWAP1 SWAP3 MSTORE PUSH1 0x9E DUP1 DUP4 MSTORE SWAP1 SWAP3 PUSH3 0x315E SWAP1 DUP4 ADD CODECOPY PUSH1 0x1 DUP3 ADD SWAP1 PUSH3 0xF7F SWAP1 DUP3 PUSH3 0x131B JUMP JUMPDEST POP PUSH1 0x40 DUP1 MLOAD DUP1 DUP3 ADD SWAP1 SWAP2 MSTORE PUSH1 0x7 DUP2 MSTORE PUSH7 0x1CDD1D59195B9D PUSH1 0xCA SHL PUSH1 0x20 DUP3 ADD MSTORE PUSH1 0x2 DUP3 ADD SWAP1 PUSH3 0xFAF SWAP1 DUP3 PUSH3 0x131B JUMP JUMPDEST POP PUSH4 0x6821EC84 PUSH1 0x3 DUP3 ADD SSTORE PUSH1 0x1 SLOAD PUSH1 0x0 SWAP1 DUP2 MSTORE PUSH1 0x2 PUSH1 0x20 DUP2 DUP2 MSTORE PUSH1 0x40 DUP1 DUP5 KECCAK256 SWAP3 DUP5 MSTORE SWAP2 DUP2 MSTORE SWAP2 DUP2 SWAP1 KECCAK256 DUP1 SLOAD PUSH1 0x1 PUSH1 0x1 PUSH1 0xA0 SHL SUB NOT AND PUSH20 0x7777777777777777777777777777777777777777 OR DUP2 SSTORE DUP2 MLOAD PUSH1 0xC0 DUP2 ADD SWAP1 SWAP3 MSTORE PUSH1 0x95 DUP1 DUP4 MSTORE SWAP1 SWAP3 PUSH3 0x2FBA SWAP1 DUP4 ADD CODECOPY PUSH1 0x1 DUP3 ADD SWAP1 PUSH3 0x1025 SWAP1 DUP3 PUSH3 0x131B JUMP JUMPDEST POP PUSH1 0x40 DUP1 MLOAD DUP1 DUP3 ADD SWAP1 SWAP2 MSTORE PUSH1 0x9 DUP2 MSTORE PUSH9 0x383937B332B9B9B7B9 PUSH1 0xB9 SHL PUSH1 0x20 DUP3 ADD MSTORE PUSH1 0x2 DUP3 ADD SWAP1 PUSH3 0x1057 SWAP1 DUP3 PUSH3 0x131B JUMP JUMPDEST POP PUSH4 0x6821ECE8 PUSH1 0x3 DUP3 ADD SSTORE DUP3 SLOAD PUSH1 0x1 DUP1 SLOAD PUSH1 0x40 MLOAD PUSH1 0x1 PUSH1 0x1 PUSH1 0xA0 SHL SUB SWAP1 SWAP4 AND SWAP3 SWAP1 SWAP2 PUSH1 0x0 DUP1 MLOAD PUSH1 0x20 PUSH3 0x2D2E DUP4 CODECOPY DUP2 MLOAD SWAP2 MSTORE SWAP2 PUSH3 0x109E SWAP2 PUSH1 0x2 DUP10 ADD SWAP2 SWAP1 DUP10 ADD SWAP1 PUSH3 0x146C JUMP JUMPDEST PUSH1 0x40 MLOAD DUP1 SWAP2 SUB SWAP1 LOG3 PUSH1 0x1 SLOAD PUSH1 0x40 MLOAD PUSH20 0x2222222222222222222222222222222222222222 SWAP2 SWAP1 PUSH32 0xEDC96EF82A3FD8EA664DD4FE50F94C77BE3C3D6130792C3ED8B0199E3C28EC62 SWAP1 PUSH1 0x0 SWAP1 LOG3 PUSH1 0x1 DUP1 SLOAD PUSH1 0x40 MLOAD SWAP2 DUP3 MSTORE PUSH20 0x2222222222222222222222222222222222222222 SWAP2 PUSH1 0x0 DUP1 MLOAD PUSH1 0x20 PUSH3 0x2C88 DUP4 CODECOPY DUP2 MLOAD SWAP2 MSTORE SWAP1 PUSH1 0x20 ADD PUSH1 0x40 MLOAD DUP1 SWAP2 SUB SWAP1 LOG3 PUSH1 0x1 SLOAD PUSH1 0x40 MLOAD PUSH1 0x0 DUP2 MSTORE PUSH20 0x3333333333333333333333333333333333333333 SWAP2 SWAP1 PUSH1 0x0 DUP1 MLOAD PUSH1 0x20 PUSH3 0x2C88 DUP4 CODECOPY DUP2 MLOAD SWAP2 MSTORE SWAP1 PUSH1 0x20 ADD PUSH1 0x40 MLOAD DUP1 SWAP2 SUB SWAP1 LOG3 PUSH1 0x1 DUP1 SLOAD PUSH1 0x40 MLOAD SWAP2 DUP3 MSTORE PUSH20 0x4444444444444444444444444444444444444444 SWAP2 PUSH1 0x0 DUP1 MLOAD PUSH1 0x20 PUSH3 0x2C88 DUP4 CODECOPY DUP2 MLOAD SWAP2 MSTORE SWAP1 PUSH1 0x20 ADD PUSH1 0x40 MLOAD DUP1 SWAP2 SUB SWAP1 LOG3 PUSH1 0x1 SLOAD PUSH1 0x40 MLOAD PUSH1 0x0 DUP2 MSTORE PUSH20 0x5555555555555555555555555555555555555555 SWAP2 SWAP1 PUSH1 0x0 DUP1 MLOAD PUSH1 0x20 PUSH3 0x2C88 DUP4 CODECOPY DUP2 MLOAD SWAP2 MSTORE SWAP1 PUSH1 0x20 ADD PUSH1 0x40 MLOAD DUP1 SWAP2 SUB SWAP1 LOG3 DUP2 SLOAD PUSH1 0x1 DUP1 SLOAD PUSH1 0x40 MLOAD PUSH1 0x1 PUSH1 0x1 PUSH1 0xA0 SHL SUB SWAP1 SWAP4 AND SWAP3 PUSH1 0x0 DUP1 MLOAD PUSH1 0x20 PUSH3 0x2D90 DUP4 CODECOPY DUP2 MLOAD SWAP2 MSTORE SWAP1 PUSH3 0x1215 SWAP1 DUP5 DUP9 ADD SWAP1 PUSH1 0x2 DUP10 ADD SWAP1 PUSH3 0x146C JUMP JUMPDEST PUSH1 0x40 MLOAD DUP1 SWAP2 SUB SWAP1 LOG4 DUP1 SLOAD PUSH1 0x1 DUP1 SLOAD PUSH1 0x40 MLOAD PUSH1 0x1 PUSH1 0x1 PUSH1 0xA0 SHL SUB SWAP1 SWAP4 AND SWAP3 PUSH1 0x2 SWAP3 PUSH1 0x0 DUP1 MLOAD PUSH1 0x20 PUSH3 0x2D90 DUP4 CODECOPY DUP2 MLOAD SWAP2 MSTORE SWAP2 PUSH3 0x1258 SWAP2 DUP8 ADD SWAP1 DUP6 DUP9 ADD SWAP1 PUSH3 0x146C JUMP JUMPDEST PUSH1 0x40 MLOAD DUP1 SWAP2 SUB SWAP1 LOG4 POP POP POP POP POP POP POP POP POP POP POP POP POP POP POP POP PUSH3 0x14C6 JUMP JUMPDEST PUSH4 0x4E487B71 PUSH1 0xE0 SHL PUSH1 0x0 MSTORE PUSH1 0x41 PUSH1 0x4 MSTORE PUSH1 0x24 PUSH1 0x0 REVERT JUMPDEST PUSH1 0x1 DUP2 DUP2 SHR SWAP1 DUP3 AND DUP1 PUSH3 0x12A1 JUMPI PUSH1 0x7F DUP3 AND SWAP2 POP JUMPDEST PUSH1 0x20 DUP3 LT DUP2 SUB PUSH3 0x12C2 JUMPI PUSH4 0x4E487B71 PUSH1 0xE0 SHL PUSH1 0x0 MSTORE PUSH1 0x22 PUSH1 0x4 MSTORE PUSH1 0x24 PUSH1 0x0 REVERT JUMPDEST POP SWAP2 SWAP1 POP JUMP JUMPDEST PUSH1 0x1F DUP3 GT ISZERO PUSH3 0x1316 JUMPI PUSH1 0x0 DUP2 DUP2 MSTORE PUSH1 0x20 DUP2 KECCAK256 PUSH1 0x1F DUP6 ADD PUSH1 0x5 SHR DUP2 ADD PUSH1 0x20 DUP7 LT ISZERO PUSH3 0x12F1 JUMPI POP DUP1 JUMPDEST PUSH1 0x1F DUP6 ADD PUSH1 0x5 SHR DUP3 ADD SWAP2 POP JUMPDEST DUP2 DUP2 LT ISZERO PUSH3 0x1312 JUMPI DUP3 DUP2 SSTORE PUSH1 0x1 ADD PUSH3 0x12FD JUMP JUMPDEST POP POP POP JUMPDEST POP POP POP JUMP JUMPDEST DUP2 MLOAD PUSH1 0x1 PUSH1 0x1 PUSH1 0x40 SHL SUB DUP2 GT ISZERO PUSH3 0x1337 JUMPI PUSH3 0x1337 PUSH3 0x1276 JUMP JUMPDEST PUSH3 0x134F DUP2 PUSH3 0x1348 DUP5 SLOAD PUSH3 0x128C JUMP JUMPDEST DUP5 PUSH3 0x12C8 JUMP JUMPDEST PUSH1 0x20 DUP1 PUSH1 0x1F DUP4 GT PUSH1 0x1 DUP2 EQ PUSH3 0x1387 JUMPI PUSH1 0x0 DUP5 ISZERO PUSH3 0x136E JUMPI POP DUP6 DUP4 ADD MLOAD JUMPDEST PUSH1 0x0 NOT PUSH1 0x3 DUP7 SWAP1 SHL SHR NOT AND PUSH1 0x1 DUP6 SWAP1 SHL OR DUP6 SSTORE PUSH3 0x1312 JUMP JUMPDEST PUSH1 0x0 DUP6 DUP2 MSTORE PUSH1 0x20 DUP2 KECCAK256 PUSH1 0x1F NOT DUP7 AND SWAP2 JUMPDEST DUP3 DUP2 LT ISZERO PUSH3 0x13B8 JUMPI DUP9 DUP7 ADD MLOAD DUP3 SSTORE SWAP5 DUP5 ADD SWAP5 PUSH1 0x1 SWAP1 SWAP2 ADD SWAP1 DUP5 ADD PUSH3 0x1397 JUMP JUMPDEST POP DUP6 DUP3 LT ISZERO PUSH3 0x13D7 JUMPI DUP8 DUP6 ADD MLOAD PUSH1 0x0 NOT PUSH1 0x3 DUP9 SWAP1 SHL PUSH1 0xF8 AND SHR NOT AND DUP2 SSTORE JUMPDEST POP POP POP POP POP PUSH1 0x1 SWAP1 DUP2 SHL ADD SWAP1 SSTORE POP JUMP JUMPDEST PUSH1 0x0 DUP2 SLOAD PUSH3 0x13F6 DUP2 PUSH3 0x128C JUMP JUMPDEST DUP1 DUP6 MSTORE PUSH1 0x20 PUSH1 0x1 DUP4 DUP2 AND DUP1 ISZERO PUSH3 0x1416 JUMPI PUSH1 0x1 DUP2 EQ PUSH3 0x1431 JUMPI PUSH3 0x1461 JUMP JUMPDEST PUSH1 0xFF NOT DUP6 AND DUP9 DUP5 ADD MSTORE DUP4 ISZERO ISZERO PUSH1 0x5 SHL DUP9 ADD DUP4 ADD SWAP6 POP PUSH3 0x1461 JUMP JUMPDEST DUP7 PUSH1 0x0 MSTORE DUP3 PUSH1 0x0 KECCAK256 PUSH1 0x0 JUMPDEST DUP6 DUP2 LT ISZERO PUSH3 0x1459 JUMPI DUP2 SLOAD DUP11 DUP3 ADD DUP7 ADD MSTORE SWAP1 DUP4 ADD SWAP1 DUP5 ADD PUSH3 0x143C JUMP JUMPDEST DUP10 ADD DUP5 ADD SWAP7 POP POP JUMPDEST POP POP POP POP POP SWAP3 SWAP2 POP POP JUMP JUMPDEST PUSH1 0x40 DUP2 MSTORE PUSH1 0x0 PUSH3 0x1481 PUSH1 0x40 DUP4 ADD DUP6 PUSH3 0x13E7 JUMP JUMPDEST DUP3 DUP2 SUB PUSH1 0x20 DUP5 ADD MSTORE PUSH3 0x1495 DUP2 DUP6 PUSH3 0x13E7 JUMP JUMPDEST SWAP6 SWAP5 POP POP POP POP POP JUMP JUMPDEST PUSH1 0x0 PUSH1 0x1 DUP3 ADD PUSH3 0x14BF JUMPI PUSH4 0x4E487B71 PUSH1 0xE0 SHL PUSH1 0x0 MSTORE PUSH1 0x11 PUSH1 0x4 MSTORE PUSH1 0x24 PUSH1 0x0 REVERT JUMPDEST POP PUSH1 0x1 ADD SWAP1 JUMP JUMPDEST PUSH2 0x17B2 DUP1 PUSH3 0x14D6 PUSH1 0x0 CODECOPY PUSH1 0x0 RETURN INVALID PUSH1 0x80 PUSH1 0x40 MSTORE CALLVALUE DUP1 ISZERO PUSH2 0x10 JUMPI PUSH1 0x0 DUP1 REVERT JUMPDEST POP PUSH1 0x4 CALLDATASIZE LT PUSH2 0xA9 JUMPI PUSH1 0x0 CALLDATALOAD PUSH1 0xE0 SHR DUP1 PUSH4 0x392338F5 GT PUSH2 0x71 JUMPI DUP1 PUSH4 0x392338F5 EQ PUSH2 0x141 JUMPI DUP1 PUSH4 0x40731C24 EQ PUSH2 0x154 JUMPI DUP1 PUSH4 0x43859632 EQ PUSH2 0x167 JUMPI DUP1 PUSH4 0x48892753 EQ PUSH2 0x18A JUMPI DUP1 PUSH4 0x6305DD23 EQ PUSH2 0x1AD JUMPI DUP1 PUSH4 0xFC6C776F EQ PUSH2 0x1C0 JUMPI PUSH1 0x0 DUP1 REVERT JUMPDEST DUP1 PUSH4 0xB1E7F83 EQ PUSH2 0xAE JUMPI DUP1 PUSH4 0xD4BFB4F EQ PUSH2 0xDE JUMPI DUP1 PUSH4 0x1521E616 EQ PUSH2 0xFF JUMPI DUP1 PUSH4 0x17906C2E EQ PUSH2 0x114 JUMPI DUP1 PUSH4 0x25CFB1C5 EQ PUSH2 0x11D JUMPI JUMPDEST PUSH1 0x0 DUP1 REVERT JUMPDEST PUSH2 0xC1 PUSH2 0xBC CALLDATASIZE PUSH1 0x4 PUSH2 0x112E JUMP JUMPDEST PUSH2 0x1D3 JUMP JUMPDEST PUSH1 0x40 MLOAD PUSH2 0xD5 SWAP9 SWAP8 SWAP7 SWAP6 SWAP5 SWAP4 SWAP3 SWAP2 SWAP1 PUSH2 0x118D JUMP JUMPDEST PUSH1 0x40 MLOAD DUP1 SWAP2 SUB SWAP1 RETURN JUMPDEST PUSH2 0xF1 PUSH2 0xEC CALLDATASIZE PUSH1 0x4 PUSH2 0x112E JUMP JUMPDEST PUSH2 0x333 JUMP JUMPDEST PUSH1 0x40 MLOAD SWAP1 DUP2 MSTORE PUSH1 0x20 ADD PUSH2 0xD5 JUMP JUMPDEST PUSH2 0x112 PUSH2 0x10D CALLDATASIZE PUSH1 0x4 PUSH2 0x1295 JUMP JUMPDEST PUSH2 0x381 JUMP JUMPDEST STOP JUMPDEST PUSH2 0xF1 PUSH1 0x1 SLOAD DUP2 JUMP JUMPDEST PUSH2 0x130 PUSH2 0x12B CALLDATASIZE PUSH1 0x4 PUSH2 0x1302 JUMP JUMPDEST PUSH2 0x4C0 JUMP JUMPDEST PUSH1 0x40 MLOAD PUSH2 0xD5 SWAP6 SWAP5 SWAP4 SWAP3 SWAP2 SWAP1 PUSH2 0x1386 JUMP JUMPDEST PUSH2 0x112 PUSH2 0x14F CALLDATASIZE PUSH1 0x4 PUSH2 0x143D JUMP JUMPDEST PUSH2 0x94F JUMP JUMPDEST PUSH2 0xC1 PUSH2 0x162 CALLDATASIZE PUSH1 0x4 PUSH2 0x112E JUMP JUMPDEST PUSH2 0xA0F JUMP JUMPDEST PUSH2 0x17A PUSH2 0x175 CALLDATASIZE PUSH1 0x4 PUSH2 0x14A1 JUMP JUMPDEST PUSH2 0xBCA JUMP JUMPDEST PUSH1 0x40 MLOAD SWAP1 ISZERO ISZERO DUP2 MSTORE PUSH1 0x20 ADD PUSH2 0xD5 JUMP JUMPDEST PUSH2 0x19D PUSH2 0x198 CALLDATASIZE PUSH1 0x4 PUSH2 0x14DD JUMP JUMPDEST PUSH2 0xC28 JUMP JUMPDEST PUSH1 0x40 MLOAD PUSH2 0xD5 SWAP5 SWAP4 SWAP3 SWAP2 SWAP1 PUSH2 0x14FF JUMP JUMPDEST PUSH2 0x112 PUSH2 0x1BB CALLDATASIZE PUSH1 0x4 PUSH2 0x1547 JUMP JUMPDEST PUSH2 0xE22 JUMP JUMPDEST PUSH2 0x19D PUSH2 0x1CE CALLDATASIZE PUSH1 0x4 PUSH2 0x14DD JUMP JUMPDEST PUSH2 0xFE0 JUMP JUMPDEST PUSH1 0x0 PUSH1 0x20 DUP2 SWAP1 MSTORE SWAP1 DUP2 MSTORE PUSH1 0x40 SWAP1 KECCAK256 DUP1 SLOAD PUSH1 0x1 DUP3 ADD DUP1 SLOAD PUSH1 0x1 PUSH1 0x1 PUSH1 0xA0 SHL SUB SWAP1 SWAP3 AND SWAP3 SWAP2 PUSH2 0x1FF SWAP1 PUSH2 0x1571 JUMP JUMPDEST DUP1 PUSH1 0x1F ADD PUSH1 0x20 DUP1 SWAP2 DIV MUL PUSH1 0x20 ADD PUSH1 0x40 MLOAD SWAP1 DUP2 ADD PUSH1 0x40 MSTORE DUP1 SWAP3 SWAP2 SWAP1 DUP2 DUP2 MSTORE PUSH1 0x20 ADD DUP3 DUP1 SLOAD PUSH2 0x22B SWAP1 PUSH2 0x1571 JUMP JUMPDEST DUP1 ISZERO PUSH2 0x278 JUMPI DUP1 PUSH1 0x1F LT PUSH2 0x24D JUMPI PUSH2 0x100 DUP1 DUP4 SLOAD DIV MUL DUP4 MSTORE SWAP2 PUSH1 0x20 ADD SWAP2 PUSH2 0x278 JUMP JUMPDEST DUP3 ADD SWAP2 SWAP1 PUSH1 0x0 MSTORE PUSH1 0x20 PUSH1 0x0 KECCAK256 SWAP1 JUMPDEST DUP2 SLOAD DUP2 MSTORE SWAP1 PUSH1 0x1 ADD SWAP1 PUSH1 0x20 ADD DUP1 DUP4 GT PUSH2 0x25B JUMPI DUP3 SWAP1 SUB PUSH1 0x1F AND DUP3 ADD SWAP2 JUMPDEST POP POP POP POP POP SWAP1 DUP1 PUSH1 0x2 ADD DUP1 SLOAD PUSH2 0x28D SWAP1 PUSH2 0x1571 JUMP JUMPDEST DUP1 PUSH1 0x1F ADD PUSH1 0x20 DUP1 SWAP2 DIV MUL PUSH1 0x20 ADD PUSH1 0x40 MLOAD SWAP1 DUP2 ADD PUSH1 0x40 MSTORE DUP1 SWAP3 SWAP2 SWAP1 DUP2 DUP2 MSTORE PUSH1 0x20 ADD DUP3 DUP1 SLOAD PUSH2 0x2B9 SWAP1 PUSH2 0x1571 JUMP JUMPDEST DUP1 ISZERO PUSH2 0x306 JUMPI DUP1 PUSH1 0x1F LT PUSH2 0x2DB JUMPI PUSH2 0x100 DUP1 DUP4 SLOAD DIV MUL DUP4 MSTORE SWAP2 PUSH1 0x20 ADD SWAP2 PUSH2 0x306 JUMP JUMPDEST DUP3 ADD SWAP2 SWAP1 PUSH1 0x0 MSTORE PUSH1 0x20 PUSH1 0x0 KECCAK256 SWAP1 JUMPDEST DUP2 SLOAD DUP2 MSTORE SWAP1 PUSH1 0x1 ADD SWAP1 PUSH1 0x20 ADD DUP1 DUP4 GT PUSH2 0x2E9 JUMPI DUP3 SWAP1 SUB PUSH1 0x1F AND DUP3 ADD SWAP2 JUMPDEST POP POP POP PUSH1 0x3 DUP5 ADD SLOAD PUSH1 0x4 DUP6 ADD SLOAD PUSH1 0x5 DUP7 ADD SLOAD PUSH1 0x6 DUP8 ADD SLOAD PUSH1 0x8 SWAP1 SWAP8 ADD SLOAD SWAP6 SWAP7 SWAP3 SWAP6 PUSH1 0xFF SWAP1 SWAP3 AND SWAP5 POP SWAP3 POP DUP9 JUMP JUMPDEST PUSH1 0x0 DUP1 DUP3 GT DUP1 ISZERO PUSH2 0x346 JUMPI POP PUSH1 0x1 SLOAD DUP3 GT ISZERO JUMPDEST PUSH2 0x36B JUMPI PUSH1 0x40 MLOAD PUSH3 0x461BCD PUSH1 0xE5 SHL DUP2 MSTORE PUSH1 0x4 ADD PUSH2 0x362 SWAP1 PUSH2 0x15AB JUMP JUMPDEST PUSH1 0x40 MLOAD DUP1 SWAP2 SUB SWAP1 REVERT JUMPDEST POP PUSH1 0x0 SWAP1 DUP2 MSTORE PUSH1 0x20 DUP2 SWAP1 MSTORE PUSH1 0x40 SWAP1 KECCAK256 PUSH1 0x8 ADD SLOAD SWAP1 JUMP JUMPDEST PUSH1 0x0 DUP4 GT DUP1 ISZERO PUSH2 0x393 JUMPI POP PUSH1 0x1 SLOAD DUP4 GT ISZERO JUMPDEST PUSH2 0x3AF JUMPI PUSH1 0x40 MLOAD PUSH3 0x461BCD PUSH1 0xE5 SHL DUP2 MSTORE PUSH1 0x4 ADD PUSH2 0x362 SWAP1 PUSH2 0x15AB JUMP JUMPDEST PUSH1 0x0 DUP3 MLOAD GT PUSH2 0x400 JUMPI PUSH1 0x40 MLOAD PUSH3 0x461BCD PUSH1 0xE5 SHL DUP2 MSTORE PUSH1 0x20 PUSH1 0x4 DUP3 ADD MSTORE PUSH1 0x17 PUSH1 0x24 DUP3 ADD MSTORE PUSH32 0x436F6D6D656E742063616E6E6F7420626520656D707479000000000000000000 PUSH1 0x44 DUP3 ADD MSTORE PUSH1 0x64 ADD PUSH2 0x362 JUMP JUMPDEST PUSH1 0x0 DUP4 DUP2 MSTORE PUSH1 0x20 DUP2 SWAP1 MSTORE PUSH1 0x40 DUP2 KECCAK256 PUSH1 0x8 DUP2 ADD DUP1 SLOAD SWAP2 SWAP3 PUSH2 0x41F DUP4 PUSH2 0x15EA JUMP JUMPDEST SWAP1 SWAP2 SSTORE POP POP PUSH1 0x0 DUP5 DUP2 MSTORE PUSH1 0x2 PUSH1 0x20 SWAP1 DUP2 MSTORE PUSH1 0x40 DUP1 DUP4 KECCAK256 PUSH1 0x8 DUP6 ADD SLOAD DUP5 MSTORE SWAP1 SWAP2 MSTORE SWAP1 KECCAK256 DUP1 SLOAD PUSH1 0x1 PUSH1 0x1 PUSH1 0xA0 SHL SUB NOT AND CALLER OR DUP2 SSTORE PUSH1 0x1 DUP2 ADD PUSH2 0x45F DUP6 DUP3 PUSH2 0x1652 JUMP JUMPDEST POP PUSH1 0x2 DUP2 ADD PUSH2 0x46E DUP5 DUP3 PUSH2 0x1652 JUMP JUMPDEST POP TIMESTAMP PUSH1 0x3 DUP3 ADD SSTORE PUSH1 0x8 DUP3 ADD SLOAD PUSH1 0x40 MLOAD CALLER SWAP2 SWAP1 DUP8 SWAP1 PUSH32 0x3A56E2377ACF256C15A50F0B97834FA29A151D0B8A6D05C450576E40634FADC SWAP1 PUSH2 0x4B1 SWAP1 DUP10 SWAP1 DUP10 SWAP1 PUSH2 0x1712 JUMP JUMPDEST PUSH1 0x40 MLOAD DUP1 SWAP2 SUB SWAP1 LOG4 POP POP POP POP POP JUMP JUMPDEST PUSH1 0x60 DUP1 PUSH1 0x60 DUP1 PUSH1 0x0 DUP1 DUP9 GT DUP1 ISZERO PUSH2 0x4D9 JUMPI POP PUSH1 0x1 SLOAD DUP9 GT ISZERO JUMPDEST PUSH2 0x4F5 JUMPI PUSH1 0x40 MLOAD PUSH3 0x461BCD PUSH1 0xE5 SHL DUP2 MSTORE PUSH1 0x4 ADD PUSH2 0x362 SWAP1 PUSH2 0x15AB JUMP JUMPDEST PUSH1 0x0 DUP8 GT PUSH2 0x545 JUMPI PUSH1 0x40 MLOAD PUSH3 0x461BCD PUSH1 0xE5 SHL DUP2 MSTORE PUSH1 0x20 PUSH1 0x4 DUP3 ADD MSTORE PUSH1 0x1F PUSH1 0x24 DUP3 ADD MSTORE PUSH32 0x5374617274204944206D7573742062652067726561746572207468616E203000 PUSH1 0x44 DUP3 ADD MSTORE PUSH1 0x64 ADD PUSH2 0x362 JUMP JUMPDEST POP PUSH1 0x0 DUP8 DUP2 MSTORE PUSH1 0x20 DUP2 SWAP1 MSTORE PUSH1 0x40 SWAP1 KECCAK256 PUSH1 0x8 ADD SLOAD DUP1 DUP1 DUP9 GT ISZERO PUSH2 0x5E1 JUMPI PUSH1 0x40 DUP1 MLOAD PUSH1 0x0 DUP1 DUP3 MSTORE PUSH1 0x20 DUP3 ADD DUP2 DUP2 MSTORE DUP3 DUP5 ADD SWAP1 SWAP4 MSTORE SWAP1 SWAP2 SWAP1 PUSH2 0x594 JUMP JUMPDEST PUSH1 0x60 DUP2 MSTORE PUSH1 0x20 ADD SWAP1 PUSH1 0x1 SWAP1 SUB SWAP1 DUP2 PUSH2 0x57F JUMPI SWAP1 POP JUMPDEST POP PUSH1 0x40 DUP1 MLOAD PUSH1 0x0 DUP1 DUP3 MSTORE PUSH1 0x20 DUP3 ADD SWAP1 SWAP3 MSTORE SWAP1 PUSH2 0x5C0 JUMP JUMPDEST PUSH1 0x60 DUP2 MSTORE PUSH1 0x20 ADD SWAP1 PUSH1 0x1 SWAP1 SUB SWAP1 DUP2 PUSH2 0x5AB JUMPI SWAP1 POP JUMPDEST POP PUSH1 0x40 DUP1 MLOAD PUSH1 0x0 DUP1 DUP3 MSTORE PUSH1 0x20 DUP3 ADD SWAP1 SWAP3 MSTORE SWAP1 POP SWAP6 POP SWAP6 POP SWAP6 POP SWAP6 POP POP PUSH2 0x944 JUMP JUMPDEST DUP7 PUSH1 0x14 DUP2 GT ISZERO PUSH2 0x5EF JUMPI POP PUSH1 0x14 JUMPDEST PUSH1 0x0 PUSH2 0x5FB DUP11 DUP5 PUSH2 0x1740 JUMP JUMPDEST PUSH2 0x606 SWAP1 PUSH1 0x1 PUSH2 0x1753 JUMP JUMPDEST SWAP1 POP DUP1 DUP3 GT ISZERO PUSH2 0x614 JUMPI DUP1 SWAP2 POP JUMPDEST DUP2 PUSH8 0xFFFFFFFFFFFFFFFF DUP2 GT ISZERO PUSH2 0x62D JUMPI PUSH2 0x62D PUSH2 0x11F2 JUMP JUMPDEST PUSH1 0x40 MLOAD SWAP1 DUP1 DUP3 MSTORE DUP1 PUSH1 0x20 MUL PUSH1 0x20 ADD DUP3 ADD PUSH1 0x40 MSTORE DUP1 ISZERO PUSH2 0x656 JUMPI DUP2 PUSH1 0x20 ADD PUSH1 0x20 DUP3 MUL DUP1 CALLDATASIZE DUP4 CALLDATACOPY ADD SWAP1 POP JUMPDEST POP SWAP8 POP DUP2 PUSH8 0xFFFFFFFFFFFFFFFF DUP2 GT ISZERO PUSH2 0x672 JUMPI PUSH2 0x672 PUSH2 0x11F2 JUMP JUMPDEST PUSH1 0x40 MLOAD SWAP1 DUP1 DUP3 MSTORE DUP1 PUSH1 0x20 MUL PUSH1 0x20 ADD DUP3 ADD PUSH1 0x40 MSTORE DUP1 ISZERO PUSH2 0x6A5 JUMPI DUP2 PUSH1 0x20 ADD JUMPDEST PUSH1 0x60 DUP2 MSTORE PUSH1 0x20 ADD SWAP1 PUSH1 0x1 SWAP1 SUB SWAP1 DUP2 PUSH2 0x690 JUMPI SWAP1 POP JUMPDEST POP SWAP7 POP DUP2 PUSH8 0xFFFFFFFFFFFFFFFF DUP2 GT ISZERO PUSH2 0x6C1 JUMPI PUSH2 0x6C1 PUSH2 0x11F2 JUMP JUMPDEST PUSH1 0x40 MLOAD SWAP1 DUP1 DUP3 MSTORE DUP1 PUSH1 0x20 MUL PUSH1 0x20 ADD DUP3 ADD PUSH1 0x40 MSTORE DUP1 ISZERO PUSH2 0x6F4 JUMPI DUP2 PUSH1 0x20 ADD JUMPDEST PUSH1 0x60 DUP2 MSTORE PUSH1 0x20 ADD SWAP1 PUSH1 0x1 SWAP1 SUB SWAP1 DUP2 PUSH2 0x6DF JUMPI SWAP1 POP JUMPDEST POP SWAP6 POP DUP2 PUSH8 0xFFFFFFFFFFFFFFFF DUP2 GT ISZERO PUSH2 0x710 JUMPI PUSH2 0x710 PUSH2 0x11F2 JUMP JUMPDEST PUSH1 0x40 MLOAD SWAP1 DUP1 DUP3 MSTORE DUP1 PUSH1 0x20 MUL PUSH1 0x20 ADD DUP3 ADD PUSH1 0x40 MSTORE DUP1 ISZERO PUSH2 0x739 JUMPI DUP2 PUSH1 0x20 ADD PUSH1 0x20 DUP3 MUL DUP1 CALLDATASIZE DUP4 CALLDATACOPY ADD SWAP1 POP JUMPDEST POP SWAP5 POP PUSH1 0x0 JUMPDEST DUP3 DUP2 LT ISZERO PUSH2 0x93F JUMPI PUSH1 0x0 PUSH2 0x753 DUP3 DUP14 PUSH2 0x1753 JUMP JUMPDEST PUSH1 0x0 DUP15 DUP2 MSTORE PUSH1 0x2 PUSH1 0x20 SWAP1 DUP2 MSTORE PUSH1 0x40 DUP1 DUP4 KECCAK256 DUP5 DUP5 MSTORE SWAP1 SWAP2 MSTORE SWAP1 KECCAK256 DUP1 SLOAD DUP13 MLOAD SWAP3 SWAP4 POP SWAP1 SWAP2 PUSH1 0x1 PUSH1 0x1 PUSH1 0xA0 SHL SUB SWAP1 SWAP2 AND SWAP1 DUP13 SWAP1 DUP6 SWAP1 DUP2 LT PUSH2 0x793 JUMPI PUSH2 0x793 PUSH2 0x1766 JUMP JUMPDEST PUSH1 0x20 MUL PUSH1 0x20 ADD ADD SWAP1 PUSH1 0x1 PUSH1 0x1 PUSH1 0xA0 SHL SUB AND SWAP1 DUP2 PUSH1 0x1 PUSH1 0x1 PUSH1 0xA0 SHL SUB AND DUP2 MSTORE POP POP DUP1 PUSH1 0x1 ADD DUP1 SLOAD PUSH2 0x7C2 SWAP1 PUSH2 0x1571 JUMP JUMPDEST DUP1 PUSH1 0x1F ADD PUSH1 0x20 DUP1 SWAP2 DIV MUL PUSH1 0x20 ADD PUSH1 0x40 MLOAD SWAP1 DUP2 ADD PUSH1 0x40 MSTORE DUP1 SWAP3 SWAP2 SWAP1 DUP2 DUP2 MSTORE PUSH1 0x20 ADD DUP3 DUP1 SLOAD PUSH2 0x7EE SWAP1 PUSH2 0x1571 JUMP JUMPDEST DUP1 ISZERO PUSH2 0x83B JUMPI DUP1 PUSH1 0x1F LT PUSH2 0x810 JUMPI PUSH2 0x100 DUP1 DUP4 SLOAD DIV MUL DUP4 MSTORE SWAP2 PUSH1 0x20 ADD SWAP2 PUSH2 0x83B JUMP JUMPDEST DUP3 ADD SWAP2 SWAP1 PUSH1 0x0 MSTORE PUSH1 0x20 PUSH1 0x0 KECCAK256 SWAP1 JUMPDEST DUP2 SLOAD DUP2 MSTORE SWAP1 PUSH1 0x1 ADD SWAP1 PUSH1 0x20 ADD DUP1 DUP4 GT PUSH2 0x81E JUMPI DUP3 SWAP1 SUB PUSH1 0x1F AND DUP3 ADD SWAP2 JUMPDEST POP POP POP POP POP DUP11 DUP5 DUP2 MLOAD DUP2 LT PUSH2 0x852 JUMPI PUSH2 0x852 PUSH2 0x1766 JUMP JUMPDEST PUSH1 0x20 MUL PUSH1 0x20 ADD ADD DUP2 SWAP1 MSTORE POP DUP1 PUSH1 0x2 ADD DUP1 SLOAD PUSH2 0x86C SWAP1 PUSH2 0x1571 JUMP JUMPDEST DUP1 PUSH1 0x1F ADD PUSH1 0x20 DUP1 SWAP2 DIV MUL PUSH1 0x20 ADD PUSH1 0x40 MLOAD SWAP1 DUP2 ADD PUSH1 0x40 MSTORE DUP1 SWAP3 SWAP2 SWAP1 DUP2 DUP2 MSTORE PUSH1 0x20 ADD DUP3 DUP1 SLOAD PUSH2 0x898 SWAP1 PUSH2 0x1571 JUMP JUMPDEST DUP1 ISZERO PUSH2 0x8E5 JUMPI DUP1 PUSH1 0x1F LT PUSH2 0x8BA JUMPI PUSH2 0x100 DUP1 DUP4 SLOAD DIV MUL DUP4 MSTORE SWAP2 PUSH1 0x20 ADD SWAP2 PUSH2 0x8E5 JUMP JUMPDEST DUP3 ADD SWAP2 SWAP1 PUSH1 0x0 MSTORE PUSH1 0x20 PUSH1 0x0 KECCAK256 SWAP1 JUMPDEST DUP2 SLOAD DUP2 MSTORE SWAP1 PUSH1 0x1 ADD SWAP1 PUSH1 0x20 ADD DUP1 DUP4 GT PUSH2 0x8C8 JUMPI DUP3 SWAP1 SUB PUSH1 0x1F AND DUP3 ADD SWAP2 JUMPDEST POP POP POP POP POP DUP10 DUP5 DUP2 MLOAD DUP2 LT PUSH2 0x8FC JUMPI PUSH2 0x8FC PUSH2 0x1766 JUMP JUMPDEST PUSH1 0x20 MUL PUSH1 0x20 ADD ADD DUP2 SWAP1 MSTORE POP DUP1 PUSH1 0x3 ADD SLOAD DUP9 DUP5 DUP2 MLOAD DUP2 LT PUSH2 0x91E JUMPI PUSH2 0x91E PUSH2 0x1766 JUMP JUMPDEST PUSH1 0x20 MUL PUSH1 0x20 ADD ADD DUP2 DUP2 MSTORE POP POP POP POP DUP1 DUP1 PUSH2 0x937 SWAP1 PUSH2 0x15EA JUMP JUMPDEST SWAP2 POP POP PUSH2 0x73F JUMP JUMPDEST POP POP POP POP JUMPDEST SWAP4 SWAP8 SWAP3 SWAP7 POP SWAP4 POP SWAP4 POP JUMP JUMPDEST PUSH1 0x1 DUP1 SLOAD SWAP1 PUSH1 0x0 PUSH2 0x95F DUP4 PUSH2 0x15EA JUMP JUMPDEST SWAP1 SWAP2 SSTORE POP POP PUSH1 0x1 DUP1 SLOAD PUSH1 0x0 SWAP1 DUP2 MSTORE PUSH1 0x20 DUP2 SWAP1 MSTORE PUSH1 0x40 SWAP1 KECCAK256 DUP1 SLOAD PUSH1 0x1 PUSH1 0x1 PUSH1 0xA0 SHL SUB NOT AND CALLER OR DUP2 SSTORE SWAP1 DUP2 ADD PUSH2 0x993 DUP5 DUP3 PUSH2 0x1652 JUMP JUMPDEST POP PUSH1 0x2 DUP2 ADD PUSH2 0x9A2 DUP4 DUP3 PUSH2 0x1652 JUMP JUMPDEST POP TIMESTAMP PUSH1 0x3 DUP3 ADD SSTORE PUSH1 0x4 DUP2 ADD DUP1 SLOAD PUSH1 0xFF NOT AND SWAP1 SSTORE PUSH1 0x0 PUSH1 0x5 DUP3 ADD DUP2 SWAP1 SSTORE PUSH1 0x6 DUP3 ADD DUP2 SWAP1 SSTORE PUSH1 0x8 DUP3 ADD SSTORE PUSH1 0x1 SLOAD PUSH1 0x40 MLOAD CALLER SWAP2 SWAP1 PUSH32 0x5475621B07408F75D49C828CAA5AEACB3A5E98D3497E75730DC184677504401C SWAP1 PUSH2 0xA02 SWAP1 DUP7 SWAP1 DUP9 SWAP1 PUSH2 0x1712 JUMP JUMPDEST PUSH1 0x40 MLOAD DUP1 SWAP2 SUB SWAP1 LOG3 POP POP POP JUMP JUMPDEST PUSH1 0x0 PUSH1 0x60 DUP1 PUSH1 0x0 DUP1 PUSH1 0x0 DUP1 PUSH1 0x0 DUP1 DUP10 GT DUP1 ISZERO PUSH2 0xA2D JUMPI POP PUSH1 0x1 SLOAD DUP10 GT ISZERO JUMPDEST PUSH2 0xA49 JUMPI PUSH1 0x40 MLOAD PUSH3 0x461BCD PUSH1 0xE5 SHL DUP2 MSTORE PUSH1 0x4 ADD PUSH2 0x362 SWAP1 PUSH2 0x15AB JUMP JUMPDEST PUSH1 0x0 DUP10 DUP2 MSTORE PUSH1 0x20 DUP2 SWAP1 MSTORE PUSH1 0x40 SWAP1 KECCAK256 DUP1 SLOAD PUSH1 0x3 DUP3 ADD SLOAD PUSH1 0x4 DUP4 ADD SLOAD PUSH1 0x5 DUP5 ADD SLOAD PUSH1 0x6 DUP6 ADD SLOAD PUSH1 0x8 DUP7 ADD SLOAD PUSH1 0x1 DUP8 ADD DUP1 SLOAD PUSH1 0x1 PUSH1 0x1 PUSH1 0xA0 SHL SUB SWAP1 SWAP8 AND SWAP7 SWAP1 SWAP6 PUSH1 0x2 DUP10 ADD SWAP6 SWAP1 SWAP5 PUSH1 0xFF SWAP1 SWAP2 AND SWAP4 SWAP1 SWAP3 SWAP1 SWAP2 DUP8 SWAP1 PUSH2 0xAA2 SWAP1 PUSH2 0x1571 JUMP JUMPDEST DUP1 PUSH1 0x1F ADD PUSH1 0x20 DUP1 SWAP2 DIV MUL PUSH1 0x20 ADD PUSH1 0x40 MLOAD SWAP1 DUP2 ADD PUSH1 0x40 MSTORE DUP1 SWAP3 SWAP2 SWAP1 DUP2 DUP2 MSTORE PUSH1 0x20 ADD DUP3 DUP1 SLOAD PUSH2 0xACE SWAP1 PUSH2 0x1571 JUMP JUMPDEST DUP1 ISZERO PUSH2 0xB1B JUMPI DUP1 PUSH1 0x1F LT PUSH2 0xAF0 JUMPI PUSH2 0x100 DUP1 DUP4 SLOAD DIV MUL DUP4 MSTORE SWAP2 PUSH1 0x20 ADD SWAP2 PUSH2 0xB1B JUMP JUMPDEST DUP3 ADD SWAP2 SWAP1 PUSH1 0x0 MSTORE PUSH1 0x20 PUSH1 0x0 KECCAK256 SWAP1 JUMPDEST DUP2 SLOAD DUP2 MSTORE SWAP1 PUSH1 0x1 ADD SWAP1 PUSH1 0x20 ADD DUP1 DUP4 GT PUSH2 0xAFE JUMPI DUP3 SWAP1 SUB PUSH1 0x1F AND DUP3 ADD SWAP2 JUMPDEST POP POP POP POP POP SWAP7 POP DUP6 DUP1 SLOAD PUSH2 0xB2E SWAP1 PUSH2 0x1571 JUMP JUMPDEST DUP1 PUSH1 0x1F ADD PUSH1 0x20 DUP1 SWAP2 DIV MUL PUSH1 0x20 ADD PUSH1 0x40 MLOAD SWAP1 DUP2 ADD PUSH1 0x40 MSTORE DUP1 SWAP3 SWAP2 SWAP1 DUP2 DUP2 MSTORE PUSH1 0x20 ADD DUP3 DUP1 SLOAD PUSH2 0xB5A SWAP1 PUSH2 0x1571 JUMP JUMPDEST DUP1 ISZERO PUSH2 0xBA7 JUMPI DUP1 PUSH1 0x1F LT PUSH2 0xB7C JUMPI PUSH2 0x100 DUP1 DUP4 SLOAD DIV MUL DUP4 MSTORE SWAP2 PUSH1 0x20 ADD SWAP2 PUSH2 0xBA7 JUMP JUMPDEST DUP3 ADD SWAP2 SWAP1 PUSH1 0x0 MSTORE PUSH1 0x20 PUSH1 0x0 KECCAK256 SWAP1 JUMPDEST DUP2 SLOAD DUP2 MSTORE SWAP1 PUSH1 0x1 ADD SWAP1 PUSH1 0x20 ADD DUP1 DUP4 GT PUSH2 0xB8A JUMPI DUP3 SWAP1 SUB PUSH1 0x1F AND DUP3 ADD SWAP2 JUMPDEST POP POP POP POP POP SWAP6 POP SWAP9 POP SWAP9 POP SWAP9 POP SWAP9 POP SWAP9 POP SWAP9 POP SWAP9 POP SWAP9 POP POP SWAP2 SWAP4 SWAP6 SWAP8 POP SWAP2 SWAP4 SWAP6 SWAP8 JUMP JUMPDEST PUSH1 0x0 DUP1 DUP4 GT DUP1 ISZERO PUSH2 0xBDD JUMPI POP PUSH1 0x1 SLOAD DUP4 GT ISZERO JUMPDEST PUSH2 0xBF9 JUMPI PUSH1 0x40 MLOAD PUSH3 0x461BCD PUSH1 0xE5 SHL DUP2 MSTORE PUSH1 0x4 ADD PUSH2 0x362 SWAP1 PUSH2 0x15AB JUMP JUMPDEST POP PUSH1 0x0 DUP3 DUP2 MSTORE PUSH1 0x20 DUP2 DUP2 MSTORE PUSH1 0x40 DUP1 DUP4 KECCAK256 PUSH1 0x1 PUSH1 0x1 PUSH1 0xA0 SHL SUB DUP6 AND DUP5 MSTORE PUSH1 0x7 ADD SWAP1 SWAP2 MSTORE SWAP1 KECCAK256 SLOAD PUSH1 0xFF AND JUMPDEST SWAP3 SWAP2 POP POP JUMP JUMPDEST PUSH1 0x0 PUSH1 0x60 DUP1 PUSH1 0x0 DUP1 DUP7 GT DUP1 ISZERO PUSH2 0xC40 JUMPI POP PUSH1 0x1 SLOAD DUP7 GT ISZERO JUMPDEST PUSH2 0xC5C JUMPI PUSH1 0x40 MLOAD PUSH3 0x461BCD PUSH1 0xE5 SHL DUP2 MSTORE PUSH1 0x4 ADD PUSH2 0x362 SWAP1 PUSH2 0x15AB JUMP JUMPDEST PUSH1 0x0 DUP6 GT DUP1 ISZERO PUSH2 0xC7D JUMPI POP PUSH1 0x0 DUP7 DUP2 MSTORE PUSH1 0x20 DUP2 SWAP1 MSTORE PUSH1 0x40 SWAP1 KECCAK256 PUSH1 0x8 ADD SLOAD DUP6 GT ISZERO JUMPDEST PUSH2 0xCBE JUMPI PUSH1 0x40 MLOAD PUSH3 0x461BCD PUSH1 0xE5 SHL DUP2 MSTORE PUSH1 0x20 PUSH1 0x4 DUP3 ADD MSTORE PUSH1 0x12 PUSH1 0x24 DUP3 ADD MSTORE PUSH18 0x125B9D985B1A590818DBDB5B595B9D081251 PUSH1 0x72 SHL PUSH1 0x44 DUP3 ADD MSTORE PUSH1 0x64 ADD PUSH2 0x362 JUMP JUMPDEST PUSH1 0x0 DUP7 DUP2 MSTORE PUSH1 0x2 PUSH1 0x20 DUP2 DUP2 MSTORE PUSH1 0x40 DUP1 DUP5 KECCAK256 DUP10 DUP6 MSTORE SWAP1 SWAP2 MSTORE SWAP1 SWAP2 KECCAK256 DUP1 SLOAD PUSH1 0x3 DUP3 ADD SLOAD PUSH1 0x1 DUP4 ADD DUP1 SLOAD SWAP4 SWAP5 PUSH1 0x1 PUSH1 0x1 PUSH1 0xA0 SHL SUB SWAP1 SWAP4 AND SWAP4 SWAP1 SWAP3 DUP6 ADD SWAP2 SWAP1 DUP4 SWAP1 PUSH2 0xD04 SWAP1 PUSH2 0x1571 JUMP JUMPDEST DUP1 PUSH1 0x1F ADD PUSH1 0x20 DUP1 SWAP2 DIV MUL PUSH1 0x20 ADD PUSH1 0x40 MLOAD SWAP1 DUP2 ADD PUSH1 0x40 MSTORE DUP1 SWAP3 SWAP2 SWAP1 DUP2 DUP2 MSTORE PUSH1 0x20 ADD DUP3 DUP1 SLOAD PUSH2 0xD30 SWAP1 PUSH2 0x1571 JUMP JUMPDEST DUP1 ISZERO PUSH2 0xD7D JUMPI DUP1 PUSH1 0x1F LT PUSH2 0xD52 JUMPI PUSH2 0x100 DUP1 DUP4 SLOAD DIV MUL DUP4 MSTORE SWAP2 PUSH1 0x20 ADD SWAP2 PUSH2 0xD7D JUMP JUMPDEST DUP3 ADD SWAP2 SWAP1 PUSH1 0x0 MSTORE PUSH1 0x20 PUSH1 0x0 KECCAK256 SWAP1 JUMPDEST DUP2 SLOAD DUP2 MSTORE SWAP1 PUSH1 0x1 ADD SWAP1 PUSH1 0x20 ADD DUP1 DUP4 GT PUSH2 0xD60 JUMPI DUP3 SWAP1 SUB PUSH1 0x1F AND DUP3 ADD SWAP2 JUMPDEST POP POP POP POP POP SWAP3 POP DUP2 DUP1 SLOAD PUSH2 0xD90 SWAP1 PUSH2 0x1571 JUMP JUMPDEST DUP1 PUSH1 0x1F ADD PUSH1 0x20 DUP1 SWAP2 DIV MUL PUSH1 0x20 ADD PUSH1 0x40 MLOAD SWAP1 DUP2 ADD PUSH1 0x40 MSTORE DUP1 SWAP3 SWAP2 SWAP1 DUP2 DUP2 MSTORE PUSH1 0x20 ADD DUP3 DUP1 SLOAD PUSH2 0xDBC SWAP1 PUSH2 0x1571 JUMP JUMPDEST DUP1 ISZERO PUSH2 0xE09 JUMPI DUP1 PUSH1 0x1F LT PUSH2 0xDDE JUMPI PUSH2 0x100 DUP1 DUP4 SLOAD DIV MUL DUP4 MSTORE SWAP2 PUSH1 0x20 ADD SWAP2 PUSH2 0xE09 JUMP JUMPDEST DUP3 ADD SWAP2 SWAP1 PUSH1 0x0 MSTORE PUSH1 0x20 PUSH1 0x0 KECCAK256 SWAP1 JUMPDEST DUP2 SLOAD DUP2 MSTORE SWAP1 PUSH1 0x1 ADD SWAP1 PUSH1 0x20 ADD DUP1 DUP4 GT PUSH2 0xDEC JUMPI DUP3 SWAP1 SUB PUSH1 0x1F AND DUP3 ADD SWAP2 JUMPDEST POP POP POP POP POP SWAP2 POP SWAP5 POP SWAP5 POP SWAP5 POP SWAP5 POP POP SWAP3 SWAP6 SWAP2 SWAP5 POP SWAP3 POP JUMP JUMPDEST PUSH1 0x0 DUP3 GT DUP1 ISZERO PUSH2 0xE34 JUMPI POP PUSH1 0x1 SLOAD DUP3 GT ISZERO JUMPDEST PUSH2 0xE50 JUMPI PUSH1 0x40 MLOAD PUSH3 0x461BCD PUSH1 0xE5 SHL DUP2 MSTORE PUSH1 0x4 ADD PUSH2 0x362 SWAP1 PUSH2 0x15AB JUMP JUMPDEST PUSH1 0x0 DUP3 DUP2 MSTORE PUSH1 0x20 DUP2 SWAP1 MSTORE PUSH1 0x40 SWAP1 KECCAK256 DUP1 SLOAD CALLER PUSH1 0x1 PUSH1 0x1 PUSH1 0xA0 SHL SUB SWAP1 SWAP2 AND SUB PUSH2 0xEB9 JUMPI PUSH1 0x40 MLOAD PUSH3 0x461BCD PUSH1 0xE5 SHL DUP2 MSTORE PUSH1 0x20 PUSH1 0x4 DUP3 ADD MSTORE PUSH1 0x1C PUSH1 0x24 DUP3 ADD MSTORE PUSH32 0x43616E6E6F7420766F7465206F6E20796F7572206F776E20706F737400000000 PUSH1 0x44 DUP3 ADD MSTORE PUSH1 0x64 ADD PUSH2 0x362 JUMP JUMPDEST CALLER PUSH1 0x0 SWAP1 DUP2 MSTORE PUSH1 0x7 DUP3 ADD PUSH1 0x20 MSTORE PUSH1 0x40 SWAP1 KECCAK256 SLOAD PUSH1 0xFF AND ISZERO PUSH2 0xF0B JUMPI PUSH1 0x40 MLOAD PUSH3 0x461BCD PUSH1 0xE5 SHL DUP2 MSTORE PUSH1 0x20 PUSH1 0x4 DUP3 ADD MSTORE PUSH1 0xD PUSH1 0x24 DUP3 ADD MSTORE PUSH13 0x105B1C9958591E481D9BDD1959 PUSH1 0x9A SHL PUSH1 0x44 DUP3 ADD MSTORE PUSH1 0x64 ADD PUSH2 0x362 JUMP JUMPDEST PUSH1 0x4 DUP2 ADD SLOAD PUSH1 0xFF AND PUSH2 0xF54 JUMPI PUSH1 0x4 DUP2 ADD DUP1 SLOAD PUSH1 0xFF NOT AND PUSH1 0x1 OR SWAP1 SSTORE PUSH1 0x40 MLOAD CALLER SWAP1 DUP5 SWAP1 PUSH32 0xEDC96EF82A3FD8EA664DD4FE50F94C77BE3C3D6130792C3ED8B0199E3C28EC62 SWAP1 PUSH1 0x0 SWAP1 LOG3 JUMPDEST CALLER PUSH1 0x0 SWAP1 DUP2 MSTORE PUSH1 0x7 DUP3 ADD PUSH1 0x20 MSTORE PUSH1 0x40 SWAP1 KECCAK256 DUP1 SLOAD PUSH1 0xFF NOT AND PUSH1 0x1 OR SWAP1 SSTORE DUP2 ISZERO PUSH2 0xF92 JUMPI PUSH1 0x5 DUP2 ADD DUP1 SLOAD SWAP1 PUSH1 0x0 PUSH2 0xF88 DUP4 PUSH2 0x15EA JUMP JUMPDEST SWAP2 SWAP1 POP SSTORE POP PUSH2 0xFAA JUMP JUMPDEST PUSH1 0x6 DUP2 ADD DUP1 SLOAD SWAP1 PUSH1 0x0 PUSH2 0xFA4 DUP4 PUSH2 0x15EA JUMP JUMPDEST SWAP2 SWAP1 POP SSTORE POP JUMPDEST PUSH1 0x40 MLOAD DUP3 ISZERO ISZERO DUP2 MSTORE CALLER SWAP1 DUP5 SWAP1 PUSH32 0xE71FCDAC32DF1877C1700E7BDA2A03157E20993363A28FC35AC495CEFC76E4D4 SWAP1 PUSH1 0x20 ADD PUSH2 0xA02 JUMP JUMPDEST PUSH1 0x2 PUSH1 0x20 SWAP1 DUP2 MSTORE PUSH1 0x0 SWAP3 DUP4 MSTORE PUSH1 0x40 DUP1 DUP5 KECCAK256 SWAP1 SWAP2 MSTORE SWAP1 DUP3 MSTORE SWAP1 KECCAK256 DUP1 SLOAD PUSH1 0x1 DUP3 ADD DUP1 SLOAD PUSH1 0x1 PUSH1 0x1 PUSH1 0xA0 SHL SUB SWAP1 SWAP3 AND SWAP3 SWAP2 PUSH2 0x1017 SWAP1 PUSH2 0x1571 JUMP JUMPDEST DUP1 PUSH1 0x1F ADD PUSH1 0x20 DUP1 SWAP2 DIV MUL PUSH1 0x20 ADD PUSH1 0x40 MLOAD SWAP1 DUP2 ADD PUSH1 0x40 MSTORE DUP1 SWAP3 SWAP2 SWAP1 DUP2 DUP2 MSTORE PUSH1 0x20 ADD DUP3 DUP1 SLOAD PUSH2 0x1043 SWAP1 PUSH2 0x1571 JUMP JUMPDEST DUP1 ISZERO PUSH2 0x1090 JUMPI DUP1 PUSH1 0x1F LT PUSH2 0x1065 JUMPI PUSH2 0x100 DUP1 DUP4 SLOAD DIV MUL DUP4 MSTORE SWAP2 PUSH1 0x20 ADD SWAP2 PUSH2 0x1090 JUMP JUMPDEST DUP3 ADD SWAP2 SWAP1 PUSH1 0x0 MSTORE PUSH1 0x20 PUSH1 0x0 KECCAK256 SWAP1 JUMPDEST DUP2 SLOAD DUP2 MSTORE SWAP1 PUSH1 0x1 ADD SWAP1 PUSH1 0x20 ADD DUP1 DUP4 GT PUSH2 0x1073 JUMPI DUP3 SWAP1 SUB PUSH1 0x1F AND DUP3 ADD SWAP2 JUMPDEST POP POP POP POP POP SWAP1 DUP1 PUSH1 0x2 ADD DUP1 SLOAD PUSH2 0x10A5 SWAP1 PUSH2 0x1571 JUMP JUMPDEST DUP1 PUSH1 0x1F ADD PUSH1 0x20 DUP1 SWAP2 DIV MUL PUSH1 0x20 ADD PUSH1 0x40 MLOAD SWAP1 DUP2 ADD PUSH1 0x40 MSTORE DUP1 SWAP3 SWAP2 SWAP1 DUP2 DUP2 MSTORE PUSH1 0x20 ADD DUP3 DUP1 SLOAD PUSH2 0x10D1 SWAP1 PUSH2 0x1571 JUMP JUMPDEST DUP1 ISZERO PUSH2 0x111E JUMPI DUP1 PUSH1 0x1F LT PUSH2 0x10F3 JUMPI PUSH2 0x100 DUP1 DUP4 SLOAD DIV MUL DUP4 MSTORE SWAP2 PUSH1 0x20 ADD SWAP2 PUSH2 0x111E JUMP JUMPDEST DUP3 ADD SWAP2 SWAP1 PUSH1 0x0 MSTORE PUSH1 0x20 PUSH1 0x0 KECCAK256 SWAP1 JUMPDEST DUP2 SLOAD DUP2 MSTORE SWAP1 PUSH1 0x1 ADD SWAP1 PUSH1 0x20 ADD DUP1 DUP4 GT PUSH2 0x1101 JUMPI DUP3 SWAP1 SUB PUSH1 0x1F AND DUP3 ADD SWAP2 JUMPDEST POP POP POP POP POP SWAP1 DUP1 PUSH1 0x3 ADD SLOAD SWAP1 POP DUP5 JUMP JUMPDEST PUSH1 0x0 PUSH1 0x20 DUP3 DUP5 SUB SLT ISZERO PUSH2 0x1140 JUMPI PUSH1 0x0 DUP1 REVERT JUMPDEST POP CALLDATALOAD SWAP2 SWAP1 POP JUMP JUMPDEST PUSH1 0x0 DUP2 MLOAD DUP1 DUP5 MSTORE PUSH1 0x0 JUMPDEST DUP2 DUP2 LT ISZERO PUSH2 0x116D JUMPI PUSH1 0x20 DUP2 DUP6 ADD DUP2 ADD MLOAD DUP7 DUP4 ADD DUP3 ADD MSTORE ADD PUSH2 0x1151 JUMP JUMPDEST POP PUSH1 0x0 PUSH1 0x20 DUP3 DUP7 ADD ADD MSTORE PUSH1 0x20 PUSH1 0x1F NOT PUSH1 0x1F DUP4 ADD AND DUP6 ADD ADD SWAP2 POP POP SWAP3 SWAP2 POP POP JUMP JUMPDEST PUSH1 0x1 PUSH1 0x1 PUSH1 0xA0 SHL SUB DUP10 AND DUP2 MSTORE PUSH2 0x100 PUSH1 0x20 DUP3 ADD DUP2 SWAP1 MSTORE PUSH1 0x0 SWAP1 PUSH2 0x11B2 DUP4 DUP3 ADD DUP12 PUSH2 0x1147 JUMP JUMPDEST SWAP1 POP DUP3 DUP2 SUB PUSH1 0x40 DUP5 ADD MSTORE PUSH2 0x11C6 DUP2 DUP11 PUSH2 0x1147 JUMP JUMPDEST PUSH1 0x60 DUP5 ADD SWAP9 SWAP1 SWAP9 MSTORE POP POP SWAP4 ISZERO ISZERO PUSH1 0x80 DUP6 ADD MSTORE PUSH1 0xA0 DUP5 ADD SWAP3 SWAP1 SWAP3 MSTORE PUSH1 0xC0 DUP4 ADD MSTORE PUSH1 0xE0 SWAP1 SWAP2 ADD MSTORE SWAP4 SWAP3 POP POP POP JUMP JUMPDEST PUSH4 0x4E487B71 PUSH1 0xE0 SHL PUSH1 0x0 MSTORE PUSH1 0x41 PUSH1 0x4 MSTORE PUSH1 0x24 PUSH1 0x0 REVERT JUMPDEST PUSH1 0x0 DUP3 PUSH1 0x1F DUP4 ADD SLT PUSH2 0x1219 JUMPI PUSH1 0x0 DUP1 REVERT JUMPDEST DUP2 CALLDATALOAD PUSH8 0xFFFFFFFFFFFFFFFF DUP1 DUP3 GT ISZERO PUSH2 0x1234 JUMPI PUSH2 0x1234 PUSH2 0x11F2 JUMP JUMPDEST PUSH1 0x40 MLOAD PUSH1 0x1F DUP4 ADD PUSH1 0x1F NOT SWAP1 DUP2 AND PUSH1 0x3F ADD AND DUP2 ADD SWAP1 DUP3 DUP3 GT DUP2 DUP4 LT OR ISZERO PUSH2 0x125C JUMPI PUSH2 0x125C PUSH2 0x11F2 JUMP JUMPDEST DUP2 PUSH1 0x40 MSTORE DUP4 DUP2 MSTORE DUP7 PUSH1 0x20 DUP6 DUP9 ADD ADD GT ISZERO PUSH2 0x1275 JUMPI PUSH1 0x0 DUP1 REVERT JUMPDEST DUP4 PUSH1 0x20 DUP8 ADD PUSH1 0x20 DUP4 ADD CALLDATACOPY PUSH1 0x0 PUSH1 0x20 DUP6 DUP4 ADD ADD MSTORE DUP1 SWAP5 POP POP POP POP POP SWAP3 SWAP2 POP POP JUMP JUMPDEST PUSH1 0x0 DUP1 PUSH1 0x0 PUSH1 0x60 DUP5 DUP7 SUB SLT ISZERO PUSH2 0x12AA JUMPI PUSH1 0x0 DUP1 REVERT JUMPDEST DUP4 CALLDATALOAD SWAP3 POP PUSH1 0x20 DUP5 ADD CALLDATALOAD PUSH8 0xFFFFFFFFFFFFFFFF DUP1 DUP3 GT ISZERO PUSH2 0x12C9 JUMPI PUSH1 0x0 DUP1 REVERT JUMPDEST PUSH2 0x12D5 DUP8 DUP4 DUP9 ADD PUSH2 0x1208 JUMP JUMPDEST SWAP4 POP PUSH1 0x40 DUP7 ADD CALLDATALOAD SWAP2 POP DUP1 DUP3 GT ISZERO PUSH2 0x12EB JUMPI PUSH1 0x0 DUP1 REVERT JUMPDEST POP PUSH2 0x12F8 DUP7 DUP3 DUP8 ADD PUSH2 0x1208 JUMP JUMPDEST SWAP2 POP POP SWAP3 POP SWAP3 POP SWAP3 JUMP JUMPDEST PUSH1 0x0 DUP1 PUSH1 0x0 PUSH1 0x60 DUP5 DUP7 SUB SLT ISZERO PUSH2 0x1317 JUMPI PUSH1 0x0 DUP1 REVERT JUMPDEST POP POP DUP2 CALLDATALOAD SWAP4 PUSH1 0x20 DUP4 ADD CALLDATALOAD SWAP4 POP PUSH1 0x40 SWAP1 SWAP3 ADD CALLDATALOAD SWAP2 SWAP1 POP JUMP JUMPDEST PUSH1 0x0 DUP3 DUP3 MLOAD DUP1 DUP6 MSTORE PUSH1 0x20 DUP1 DUP7 ADD SWAP6 POP DUP1 DUP3 PUSH1 0x5 SHL DUP5 ADD ADD DUP2 DUP7 ADD PUSH1 0x0 JUMPDEST DUP5 DUP2 LT ISZERO PUSH2 0x1379 JUMPI PUSH1 0x1F NOT DUP7 DUP5 SUB ADD DUP10 MSTORE PUSH2 0x1367 DUP4 DUP4 MLOAD PUSH2 0x1147 JUMP JUMPDEST SWAP9 DUP5 ADD SWAP9 SWAP3 POP SWAP1 DUP4 ADD SWAP1 PUSH1 0x1 ADD PUSH2 0x134B JUMP JUMPDEST POP SWAP1 SWAP8 SWAP7 POP POP POP POP POP POP POP JUMP JUMPDEST PUSH1 0xA0 DUP1 DUP3 MSTORE DUP7 MLOAD SWAP1 DUP3 ADD DUP2 SWAP1 MSTORE PUSH1 0x0 SWAP1 PUSH1 0x20 SWAP1 PUSH1 0xC0 DUP5 ADD SWAP1 DUP3 DUP11 ADD DUP5 JUMPDEST DUP3 DUP2 LT ISZERO PUSH2 0x13C8 JUMPI DUP2 MLOAD PUSH1 0x1 PUSH1 0x1 PUSH1 0xA0 SHL SUB AND DUP5 MSTORE SWAP3 DUP5 ADD SWAP3 SWAP1 DUP5 ADD SWAP1 PUSH1 0x1 ADD PUSH2 0x13A3 JUMP JUMPDEST POP POP POP DUP4 DUP2 SUB DUP3 DUP6 ADD MSTORE PUSH2 0x13DC DUP2 DUP10 PUSH2 0x132E JUMP JUMPDEST SWAP1 POP DUP4 DUP2 SUB PUSH1 0x40 DUP6 ADD MSTORE PUSH2 0x13F0 DUP2 DUP9 PUSH2 0x132E JUMP JUMPDEST DUP5 DUP2 SUB PUSH1 0x60 DUP7 ADD MSTORE DUP7 MLOAD DUP1 DUP3 MSTORE DUP4 DUP9 ADD SWAP3 POP SWAP1 DUP4 ADD SWAP1 PUSH1 0x0 JUMPDEST DUP2 DUP2 LT ISZERO PUSH2 0x1425 JUMPI DUP4 MLOAD DUP4 MSTORE SWAP3 DUP5 ADD SWAP3 SWAP2 DUP5 ADD SWAP2 PUSH1 0x1 ADD PUSH2 0x1409 JUMP JUMPDEST POP POP DUP1 SWAP4 POP POP POP POP DUP3 PUSH1 0x80 DUP4 ADD MSTORE SWAP7 SWAP6 POP POP POP POP POP POP JUMP JUMPDEST PUSH1 0x0 DUP1 PUSH1 0x40 DUP4 DUP6 SUB SLT ISZERO PUSH2 0x1450 JUMPI PUSH1 0x0 DUP1 REVERT JUMPDEST DUP3 CALLDATALOAD PUSH8 0xFFFFFFFFFFFFFFFF DUP1 DUP3 GT ISZERO PUSH2 0x1468 JUMPI PUSH1 0x0 DUP1 REVERT JUMPDEST PUSH2 0x1474 DUP7 DUP4 DUP8 ADD PUSH2 0x1208 JUMP JUMPDEST SWAP4 POP PUSH1 0x20 DUP6 ADD CALLDATALOAD SWAP2 POP DUP1 DUP3 GT ISZERO PUSH2 0x148A JUMPI PUSH1 0x0 DUP1 REVERT JUMPDEST POP PUSH2 0x1497 DUP6 DUP3 DUP7 ADD PUSH2 0x1208 JUMP JUMPDEST SWAP2 POP POP SWAP3 POP SWAP3 SWAP1 POP JUMP JUMPDEST PUSH1 0x0 DUP1 PUSH1 0x40 DUP4 DUP6 SUB SLT ISZERO PUSH2 0x14B4 JUMPI PUSH1 0x0 DUP1 REVERT JUMPDEST DUP3 CALLDATALOAD SWAP2 POP PUSH1 0x20 DUP4 ADD CALLDATALOAD PUSH1 0x1 PUSH1 0x1 PUSH1 0xA0 SHL SUB DUP2 AND DUP2 EQ PUSH2 0x14D2 JUMPI PUSH1 0x0 DUP1 REVERT JUMPDEST DUP1 SWAP2 POP POP SWAP3 POP SWAP3 SWAP1 POP JUMP JUMPDEST PUSH1 0x0 DUP1 PUSH1 0x40 DUP4 DUP6 SUB SLT ISZERO PUSH2 0x14F0 JUMPI PUSH1 0x0 DUP1 REVERT JUMPDEST POP POP DUP1 CALLDATALOAD SWAP3 PUSH1 0x20 SWAP1 SWAP2 ADD CALLDATALOAD SWAP2 POP JUMP JUMPDEST PUSH1 0x1 PUSH1 0x1 PUSH1 0xA0 SHL SUB DUP6 AND DUP2 MSTORE PUSH1 0x80 PUSH1 0x20 DUP3 ADD DUP2 SWAP1 MSTORE PUSH1 0x0 SWAP1 PUSH2 0x1523 SWAP1 DUP4 ADD DUP7 PUSH2 0x1147 JUMP JUMPDEST DUP3 DUP2 SUB PUSH1 0x40 DUP5 ADD MSTORE PUSH2 0x1535 DUP2 DUP7 PUSH2 0x1147 JUMP JUMPDEST SWAP2 POP POP DUP3 PUSH1 0x60 DUP4 ADD MSTORE SWAP6 SWAP5 POP POP POP POP POP JUMP JUMPDEST PUSH1 0x0 DUP1 PUSH1 0x40 DUP4 DUP6 SUB SLT ISZERO PUSH2 0x155A JUMPI PUSH1 0x0 DUP1 REVERT JUMPDEST DUP3 CALLDATALOAD SWAP2 POP PUSH1 0x20 DUP4 ADD CALLDATALOAD DUP1 ISZERO ISZERO DUP2 EQ PUSH2 0x14D2 JUMPI PUSH1 0x0 DUP1 REVERT JUMPDEST PUSH1 0x1 DUP2 DUP2 SHR SWAP1 DUP3 AND DUP1 PUSH2 0x1585 JUMPI PUSH1 0x7F DUP3 AND SWAP2 POP JUMPDEST PUSH1 0x20 DUP3 LT DUP2 SUB PUSH2 0x15A5 JUMPI PUSH4 0x4E487B71 PUSH1 0xE0 SHL PUSH1 0x0 MSTORE PUSH1 0x22 PUSH1 0x4 MSTORE PUSH1 0x24 PUSH1 0x0 REVERT JUMPDEST POP SWAP2 SWAP1 POP JUMP JUMPDEST PUSH1 0x20 DUP1 DUP3 MSTORE PUSH1 0xF SWAP1 DUP3 ADD MSTORE PUSH15 0x125B9D985B1A59081C1BDCDD081251 PUSH1 0x8A SHL PUSH1 0x40 DUP3 ADD MSTORE PUSH1 0x60 ADD SWAP1 JUMP JUMPDEST PUSH4 0x4E487B71 PUSH1 0xE0 SHL PUSH1 0x0 MSTORE PUSH1 0x11 PUSH1 0x4 MSTORE PUSH1 0x24 PUSH1 0x0 REVERT JUMPDEST PUSH1 0x0 PUSH1 0x1 DUP3 ADD PUSH2 0x15FC JUMPI PUSH2 0x15FC PUSH2 0x15D4 JUMP JUMPDEST POP PUSH1 0x1 ADD SWAP1 JUMP JUMPDEST PUSH1 0x1F DUP3 GT ISZERO PUSH2 0x164D JUMPI PUSH1 0x0 DUP2 DUP2 MSTORE PUSH1 0x20 DUP2 KECCAK256 PUSH1 0x1F DUP6 ADD PUSH1 0x5 SHR DUP2 ADD PUSH1 0x20 DUP7 LT ISZERO PUSH2 0x162A JUMPI POP DUP1 JUMPDEST PUSH1 0x1F DUP6 ADD PUSH1 0x5 SHR DUP3 ADD SWAP2 POP JUMPDEST DUP2 DUP2 LT ISZERO PUSH2 0x1649 JUMPI DUP3 DUP2 SSTORE PUSH1 0x1 ADD PUSH2 0x1636 JUMP JUMPDEST POP POP POP JUMPDEST POP POP POP JUMP JUMPDEST DUP2 MLOAD PUSH8 0xFFFFFFFFFFFFFFFF DUP2 GT ISZERO PUSH2 0x166C JUMPI PUSH2 0x166C PUSH2 0x11F2 JUMP JUMPDEST PUSH2 0x1680 DUP2 PUSH2 0x167A DUP5 SLOAD PUSH2 0x1571 JUMP JUMPDEST DUP5 PUSH2 0x1603 JUMP JUMPDEST PUSH1 0x20 DUP1 PUSH1 0x1F DUP4 GT PUSH1 0x1 DUP2 EQ PUSH2 0x16B5 JUMPI PUSH1 0x0 DUP5 ISZERO PUSH2 0x169D JUMPI POP DUP6 DUP4 ADD MLOAD JUMPDEST PUSH1 0x0 NOT PUSH1 0x3 DUP7 SWAP1 SHL SHR NOT AND PUSH1 0x1 DUP6 SWAP1 SHL OR DUP6 SSTORE PUSH2 0x1649 JUMP JUMPDEST PUSH1 0x0 DUP6 DUP2 MSTORE PUSH1 0x20 DUP2 KECCAK256 PUSH1 0x1F NOT DUP7 AND SWAP2 JUMPDEST DUP3 DUP2 LT ISZERO PUSH2 0x16E4 JUMPI DUP9 DUP7 ADD MLOAD DUP3 SSTORE SWAP5 DUP5 ADD SWAP5 PUSH1 0x1 SWAP1 SWAP2 ADD SWAP1 DUP5 ADD PUSH2 0x16C5 JUMP JUMPDEST POP DUP6 DUP3 LT ISZERO PUSH2 0x1702 JUMPI DUP8 DUP6 ADD MLOAD PUSH1 0x0 NOT PUSH1 0x3 DUP9 SWAP1 SHL PUSH1 0xF8 AND SHR NOT AND DUP2 SSTORE JUMPDEST POP POP POP POP POP PUSH1 0x1 SWAP1 DUP2 SHL ADD SWAP1 SSTORE POP JUMP JUMPDEST PUSH1 0x40 DUP2 MSTORE PUSH1 0x0 PUSH2 0x1725 PUSH1 0x40 DUP4 ADD DUP6 PUSH2 0x1147 JUMP JUMPDEST DUP3 DUP2 SUB PUSH1 0x20 DUP5 ADD MSTORE PUSH2 0x1737 DUP2 DUP6 PUSH2 0x1147 JUMP JUMPDEST SWAP6 SWAP5 POP POP POP POP POP JUMP JUMPDEST DUP2 DUP2 SUB DUP2 DUP2 GT ISZERO PUSH2 0xC22 JUMPI PUSH2 0xC22 PUSH2 0x15D4 JUMP JUMPDEST DUP1 DUP3 ADD DUP1 DUP3 GT ISZERO PUSH2 0xC22 JUMPI PUSH2 0xC22 PUSH2 0x15D4 JUMP JUMPDEST PUSH4 0x4E487B71 PUSH1 0xE0 SHL PUSH1 0x0 MSTORE PUSH1 0x32 PUSH1 0x4 MSTORE PUSH1 0x24 PUSH1 0x0 REVERT INVALID LOG2 PUSH5 0x6970667358 0x22 SLT KECCAK256 PUSH15 0xCBB5F42BA428B77CFED686A1DD7447 0xCE 0x27 0xC1 PUSH23 0xE8F6FB44A58806C639A9D23164736F6C63430008130033 0xE7 0x1F 0xCD 0xAC ORIGIN 0xDF XOR PUSH24 0xC1700E7BDA2A03157E20993363A28FC35AC495CEFC76E4D4 SLOAD PUSH9 0x697320706572736F6E KECCAK256 PUSH24 0x69746820696420233435206973206E6F742073746166662E KECCAK256 SLOAD PUSH9 0x697320677579207472 PUSH26 0x69696E6720746F2070726574656E7420626F74682070726F6665 PUSH20 0x736F7220616E642073747566662E204927766520 PUSH20 0x65656E207468656D2061726F756E642063616D70 PUSH22 0x7320617320612073747564656E742E5475621B07408F PUSH22 0xD49C828CAA5AEACB3A5E98D3497E75730DC184677504 BLOCKHASH SHR SLOAD PUSH9 0x6520657363616C6174 PUSH16 0x72206F75747369646520435954206973 KECCAK256 PUSH3 0x726F6B PUSH6 0x6E2061676169 PUSH15 0x2120506C6561736520666978206974 KECCAK256 PUSH22 0x7267656E746C792103A56E2377ACF256C15A50F0B978 CALLVALUE STATICCALL 0x29 LOG1 MLOAD 0xD0 0xB8 0xA6 0xD0 0x5C GASLIMIT SDIV PUSH23 0xE40634FADC50726F706F73616C3A20556E697665727369 PUSH21 0x792073686F756C64207072696F726974697A652053 SLOAD GASLIMIT 0x4D KECCAK256 PUSH19 0x657365617263682066756E64696E6720736967 PUSH15 0x69666963616E746C79206F76657220 BASEFEE PUSH22 0x6D616E697469657320746F206D61696E7461696E206F PUSH22 0x7220636F6D7065746974697665206564676520616E64 KECCAK256 PUSH2 0x6C69 PUSH8 0x6E20776974682066 PUSH22 0x74757265206A6F62206D61726B65742064656D616E64 PUSH20 0x2E2054686973206973206120707261676D617469 PUSH4 0x20617070 PUSH19 0x6F61636820666F72206C6F6E672D7465726D20 PUSH10 0x6E737469747574696F6E PUSH2 0x6C20 PUSH20 0x7563636573732E20234675747572655354454D57 PUSH9 0x656E2077696C6C204C SELFBALANCE BALANCE KECCAK256 PUSH16 0x70656E206E6577206D65616C206F7074 PUSH10 0x6F6E733F49206B6E6F77 KECCAK256 PUSH21 0x68697320706572736F6E2066726F6D206D7920636C PUSH2 0x7373 0x2E KECCAK256 SLOAD PUSH9 0x657927726520707265 PUSH21 0x656E64696E6720746F206265207374616666206167 PUSH2 0x696E 0x21 SLOAD PUSH9 0x697320697320646566 PUSH10 0x6E6974656C792066616B PUSH6 0x206E6577732E KECCAK256 PREVRANDAO PUSH16 0x6E27742062656C696576652069742E54 PUSH9 0x616E6B20796F752074 PUSH16 0x2074686520737461666620666F722074 PUSH9 0x6520717569636B2072 PUSH6 0x73706F6E7365 0x21 KECCAK256 SLOAD PUSH9 0x697320686173206265 PUSH6 0x6E20616E206F PUSH15 0x676F696E672069737375652E4E6F20 PUSH24 0x61792120492063616E2066696E616C6C7920626520667265 PUSH6 0x2066726F6D20 PUSH21 0x68652070726F6A656374214672616D696E67207468 PUSH10 0x73206173206120275072 PUSH16 0x666573736F7227207669657720697320 PUSH2 0x2062 PUSH10 0x7420646973696E67656E PUSH22 0x6F75732E204D616E7920666163756C74792062656C69 PUSH6 0x766520696E20 PUSH2 0x2062 PUSH2 0x6C61 PUSH15 0x63656420617070726F6163682E2054 PUSH9 0x652069737375652069 PUSH20 0x206D6F7265206E75616E636564207468616E2070 PUSH19 0x6573656E74656420686572652E000000000000 STOP STOP STOP STOP STOP STOP GASLIMIT GT 0x27 PUSH32 0x98BA4282705DA1C250110E24AA2F88A2492061677265652C20646566696E6974 PUSH6 0x6C79206E6F74 KECCAK256 PUSH20 0x746166662E20566F74696E672066616B65206F6E KECCAK256 PUSH21 0x686973206F6E652E486F772063616E20796F752070 PUSH19 0x6574656E6420746F20626520612070726F6665 PUSH20 0x736F7220616E64207468656E20636F6D6D656E74 KECCAK256 PUSH2 0x7320 PUSH2 0x2073 PUSH21 0x7564656E743F204F75722070726F6A656374206973 KECCAK256 PUSH20 0x74696C6C206F6E676F696E672E2057652073686F PUSH22 0x6C64206368616C6C656E676520746869732075736572 0x27 PUSH20 0x20637265646962696C6974792154686973206973 KECCAK256 PUSH2 0x2073 PUSH2 0x6D70 PUSH13 0x6520636F6D6D656E74206F6E20 PUSH21 0x6865207465737420706F7374417320612073747564 PUSH6 0x6E742C204920 PUSH20 0x6565207468652070726163746963616C2062656E PUSH6 0x66697473206F PUSH7 0x20666F63757369 PUSH15 0x67206F6E205354454D20666F72206A PUSH16 0x622070726F7370656374732C20627574 KECCAK256 PUSH24 0x652073686F756C646E277420636F6D706C6574656C792064 PUSH6 0x66756E642068 PUSH22 0x6D616E69746965732E20546865792074656163682063 PUSH19 0x69746963616C207468696E6B696E672E546861 PUSH15 0x6B20796F7520666F72207265706F72 PUSH21 0x696E6720746869732069737375652E205765276C6C KECCAK256 PUSH20 0x656E642061206D61696E74656E616E6365207465 PUSH2 0x6D20 PUSH19 0x6967687420617761792E74686520434F4D5034 CALLDATALOAD BALANCE BALANCE KECCAK256 PUSH17 0x726F6A6563742077696C6C206265206361 PUSH15 0x63656C656421000000000000000000 "},"methodIdentifiers":{"addComment(uint256,string,string)":"1521e616","comments(uint256,uint256)":"fc6c776f","createPost(string,string)":"392338f5","getComment(uint256,uint256)":"48892753","getCommentCount(uint256)":"0d4bfb4f","getCommentsBatch(uint256,uint256,uint256)":"25cfb1c5","getPost(uint256)":"40731c24","hasVoted(uint256,address)":"43859632","postCount()":"17906c2e","posts(uint256)":"0b1e7f83","voteOnTag(uint256,bool)":"6305dd23"}}}}}