{
  "_format": "hh-sol-artifact-1",
  "contractName": "HKUSTForum",
  "sourceName": "contracts/forum.sol",
  "abi": [
    {
      "inputs": [],
      "stateMutability": "nonpayable",
      "type": "constructor"
    },
    {
      "anonymous": false,
      "inputs": [
        {
          "indexed": true,
          "internalType": "uint256",
          "name": "postId",
          "type": "uint256"
        },
        {
          "indexed": true,
          "internalType": "uint256",
          "name": "commentId",
          "type": "uint256"
        },
        {
          "indexed": true,
          "internalType": "address",
          "name": "author",
          "type": "address"
        },
        {
          "indexed": false,
          "internalType": "string",
          "name": "content",
          "type": "string"
        },
        {
          "indexed": false,
          "internalType": "string",
          "name": "tag",
          "type": "string"
        }
      ],
      "name": "CommentAdded",
      "type": "event"
    },
    {
      "anonymous": false,
      "inputs": [
        {
          "indexed": true,
          "internalType": "uint256",
          "name": "postId",
          "type": "uint256"
        },
        {
          "indexed": true,
          "internalType": "address",
          "name": "author",
          "type": "address"
        },
        {
          "indexed": false,
          "internalType": "string",
          "name": "tag",
          "type": "string"
        },
        {
          "indexed": false,
          "internalType": "string",
          "name": "content",
          "type": "string"
        }
      ],
      "name": "PostCreated",
      "type": "event"
    },
    {
      "anonymous": false,
      "inputs": [
        {
          "indexed": true,
          "internalType": "uint256",
          "name": "postId",
          "type": "uint256"
        },
        {
          "indexed": true,
          "internalType": "address",
          "name": "challenger",
          "type": "address"
        }
      ],
      "name": "TagChallenged",
      "type": "event"
    },
    {
      "anonymous": false,
      "inputs": [
        {
          "indexed": true,
          "internalType": "uint256",
          "name": "postId",
          "type": "uint256"
        },
        {
          "indexed": true,
          "internalType": "address",
          "name": "voter",
          "type": "address"
        },
        {
          "indexed": false,
          "internalType": "bool",
          "name": "isRealVote",
          "type": "bool"
        }
      ],
      "name": "VoteCast",
      "type": "event"
    },
    {
      "inputs": [
        {
          "internalType": "uint256",
          "name": "_postId",
          "type": "uint256"
        },
        {
          "internalType": "string",
          "name": "_content",
          "type": "string"
        },
        {
          "internalType": "string",
          "name": "_tag",
          "type": "string"
        }
      ],
      "name": "addComment",
      "outputs": [],
      "stateMutability": "nonpayable",
      "type": "function"
    },
    {
      "inputs": [
        {
          "internalType": "uint256",
          "name": "",
          "type": "uint256"
        },
        {
          "internalType": "uint256",
          "name": "",
          "type": "uint256"
        }
      ],
      "name": "comments",
      "outputs": [
        {
          "internalType": "address",
          "name": "author",
          "type": "address"
        },
        {
          "internalType": "string",
          "name": "content",
          "type": "string"
        },
        {
          "internalType": "string",
          "name": "tag",
          "type": "string"
        },
        {
          "internalType": "uint256",
          "name": "timestamp",
          "type": "uint256"
        }
      ],
      "stateMutability": "view",
      "type": "function"
    },
    {
      "inputs": [
        {
          "internalType": "string",
          "name": "_content",
          "type": "string"
        },
        {
          "internalType": "string",
          "name": "_tag",
          "type": "string"
        }
      ],
      "name": "createPost",
      "outputs": [],
      "stateMutability": "nonpayable",
      "type": "function"
    },
    {
      "inputs": [
        {
          "internalType": "uint256",
          "name": "_postId",
          "type": "uint256"
        },
        {
          "internalType": "uint256",
          "name": "_commentId",
          "type": "uint256"
        }
      ],
      "name": "getComment",
      "outputs": [
        {
          "internalType": "address",
          "name": "author",
          "type": "address"
        },
        {
          "internalType": "string",
          "name": "content",
          "type": "string"
        },
        {
          "internalType": "string",
          "name": "tag",
          "type": "string"
        },
        {
          "internalType": "uint256",
          "name": "timestamp",
          "type": "uint256"
        }
      ],
      "stateMutability": "view",
      "type": "function"
    },
    {
      "inputs": [
        {
          "internalType": "uint256",
          "name": "_postId",
          "type": "uint256"
        }
      ],
      "name": "getCommentCount",
      "outputs": [
        {
          "internalType": "uint256",
          "name": "",
          "type": "uint256"
        }
      ],
      "stateMutability": "view",
      "type": "function"
    },
    {
      "inputs": [
        {
          "internalType": "uint256",
          "name": "_postId",
          "type": "uint256"
        },
        {
          "internalType": "uint256",
          "name": "_startId",
          "type": "uint256"
        },
        {
          "internalType": "uint256",
          "name": "_batchSize",
          "type": "uint256"
        }
      ],
      "name": "getCommentsBatch",
      "outputs": [
        {
          "internalType": "address[]",
          "name": "authors",
          "type": "address[]"
        },
        {
          "internalType": "string[]",
          "name": "contents",
          "type": "string[]"
        },
        {
          "internalType": "string[]",
          "name": "tags",
          "type": "string[]"
        },
        {
          "internalType": "uint256[]",
          "name": "timestamps",
          "type": "uint256[]"
        },
        {
          "internalType": "uint256",
          "name": "totalCount",
          "type": "uint256"
        }
      ],
      "stateMutability": "view",
      "type": "function"
    },
    {
      "inputs": [
        {
          "internalType": "uint256",
          "name": "_postId",
          "type": "uint256"
        }
      ],
      "name": "getPost",
      "outputs": [
        {
          "internalType": "address",
          "name": "author",
          "type": "address"
        },
        {
          "internalType": "string",
          "name": "content",
          "type": "string"
        },
        {
          "internalType": "string",
          "name": "tag",
          "type": "string"
        },
        {
          "internalType": "uint256",
          "name": "timestamp",
          "type": "uint256"
        },
        {
          "internalType": "bool",
          "name": "isTagChallenged",
          "type": "bool"
        },
        {
          "internalType": "uint256",
          "name": "realVotes",
          "type": "uint256"
        },
        {
          "internalType": "uint256",
          "name": "fakerVotes",
          "type": "uint256"
        },
        {
          "internalType": "uint256",
          "name": "commentCount",
          "type": "uint256"
        }
      ],
      "stateMutability": "view",
      "type": "function"
    },
    {
      "inputs": [
        {
          "internalType": "uint256",
          "name": "_postId",
          "type": "uint256"
        },
        {
          "internalType": "address",
          "name": "_voter",
          "type": "address"
        }
      ],
      "name": "hasVoted",
      "outputs": [
        {
          "internalType": "bool",
          "name": "",
          "type": "bool"
        }
      ],
      "stateMutability": "view",
      "type": "function"
    },
    {
      "inputs": [],
      "name": "postCount",
      "outputs": [
        {
          "internalType": "uint256",
          "name": "",
          "type": "uint256"
        }
      ],
      "stateMutability": "view",
      "type": "function"
    },
    {
      "inputs": [
        {
          "internalType": "uint256",
          "name": "",
          "type": "uint256"
        }
      ],
      "name": "posts",
      "outputs": [
        {
          "internalType": "address",
          "name": "author",
          "type": "address"
        },
        {
          "internalType": "string",
          "name": "content",
          "type": "string"
        },
        {
          "internalType": "string",
          "name": "tag",
          "type": "string"
        },
        {
          "internalType": "uint256",
          "name": "timestamp",
          "type": "uint256"
        },
        {
          "internalType": "bool",
          "name": "isTagChallenged",
          "type": "bool"
        },
        {
          "internalType": "uint256",
          "name": "realVotes",
          "type": "uint256"
        },
        {
          "internalType": "uint256",
          "name": "fakerVotes",
          "type": "uint256"
        },
        {
          "internalType": "uint256",
          "name": "commentCount",
          "type": "uint256"
        }
      ],
      "stateMutability": "view",
      "type": "function"
    },
    {
      "inputs": [
        {
          "internalType": "uint256",
          "name": "_postId",
          "type": "uint256"
        },
        {
          "internalType": "bool",
          "name": "_isRealVote",
          "type": "bool"
        }
      ],
      "name": "voteOnTag",
      "outputs": [],
      "stateMutability": "nonpayable",
      "type": "function"
    }
  ],
  "bytecode": "0x60806040523480156200001157600080fd5b506001808055600090815260209081527fada5013122d395ba3c54772283fb069b10426056ef8ca54750cb9bb552a59e7d80546001600160a01b0319166000805160206200304f8339815191521781556040805180820190915260048152631d195cdd60e21b92810192909252907fada5013122d395ba3c54772283fb069b10426056ef8ca54750cb9bb552a59e7e90620000ad90826200131b565b506040805180820190915260078152661cdd1d59195b9d60ca1b60208201526002820190620000dd90826200131b565b5063681f3108600382015560048101805460ff1916905560006005820181905560068201819055600160088301819055805482526002602090815260408084209284529181529181902080546001600160a01b0319166000805160206200304f83398151915217815581516060810190925260298083529092620031359083013960018201906200016f90826200131b565b506040805180820190915260078152661cdd1d59195b9d60ca1b602082015260028201906200019f90826200131b565b5063681f314c60038201558154600180546040516001600160a01b0390931692909160008051602062002d2e83398151915291620001e6916002880191908801906200146c565b60405180910390a38054600180546040516001600160a01b039093169260008051602062002d908339815191529062000228908487019060028801906200146c565b60405180910390a46001805490600062000242836200149e565b90915550506001546000908152602081815260409182902080546001600160a01b0319166000805160206200304f833981519152178155825160608101909352602680845290929162003249908301396001820190620002a390826200131b565b50604080518082019091526009815268383937b332b9b9b7b960b91b60208201526002820190620002d590826200131b565b5063681f31b060038083019190915560048201805460ff19166001908117909155600060058401819055600684018290556008840192909255805482526002602090815260408084209284529181529181902080546001600160a01b0319166000805160206200304f833981519152178155815160608101909252602f808352909262002f8b9083013960018201906200037090826200131b565b506040805180820190915260078152661cdd1d59195b9d60ca1b60208201526002820190620003a090826200131b565b5063681f3278600382015560015460009081526002602081815260408084209284529181529181902080546001600160a01b031916733fc91a3afd70395cd496c647d5a6cc9d4b2b7fad178155815160608101909252602f808352909262002f0e9083013960018201906200041690826200131b565b506040805180820190915260078152661cdd1d59195b9d60ca1b602082015260028201906200044690826200131b565b5063681f334060038083019190915560015460009081526002602090815260408083209383529281529082902080546001600160a01b03191673a983d7e14ac1aaf050bb64fdab1024ae9c93c956178155825160c08101909352608f808452909291620030a6908301396001820190620004c190826200131b565b506040805180820190915260078152661cdd1d59195b9d60ca1b60208201526002820190620004f190826200131b565b5063681f4fbc60038201558354600180546040516001600160a01b0390931692909160008051602062002d2e83398151915291620005389160028a0191908a01906200146c565b60405180910390a38254600180546040516001600160a01b039093169260008051602062002d90833981519152906200057a908489019060028a01906200146c565b60405180910390a48154600180546040516001600160a01b039093169260029260008051602062002d9083398151915291620005bd91880190858901906200146c565b60405180910390a48054600180546040516001600160a01b039093169260039260008051602062002d9083398151915291620006019187019060028801906200146c565b60405180910390a4600180549060006200061b836200149e565b90915550506001546000908152602081815260409182902080546001600160a01b0319167378731d3ca6b7e34ac0f824c42a7cc18a495cabab178155825160808101909352604280845290929162002d4e9083013960018201906200068190826200131b565b506040805180820190915260078152661cdd1d59195b9d60ca1b60208201526002820190620006b190826200131b565b506368229cfc600382015560048101805460ff1916905560016005820181905560006006830181905560026008840181905582548252602090815260408083209383529281529082902080546001600160a01b031916733fc91a3afd70395cd496c647d5a6cc9d4b2b7fad178155825160808101909352604d808452909291620031fc9083013960018201906200074990826200131b565b5060408051808201909152600581526439ba30b33360d91b602082015260028201906200077790826200131b565b506368229d78600382015560015460009081526002602081815260408084209284529181529181902080546001600160a01b03191673a983d7e14ac1aaf050bb64fdab1024ae9c93c956178155815160808101909252604e808352909262002f3d908301396001820190620007ed90826200131b565b50604080518082019091526009815268383937b332b9b9b7b960b91b602082015260028201906200081f90826200131b565b5063681f4f6860038201556001805460009081526020818152604080832085546001600160a01b039081168552600790910190925291829020805460ff19168417905585548354925191169260008051602062002d2e8339815191529162000890916002890191908901906200146c565b60405180910390a38154600180546040516001600160a01b039093169260008051602062002d9083398151915290620008d2908488019060028901906200146c565b60405180910390a48054600180546040516001600160a01b039093169260029260008051602062002d90833981519152916200091591870190858801906200146c565b60405180910390a4600180549060006200092f836200149e565b90915550506001546000908152602081815260409182902080546001600160a01b0319166000805160206200304f833981519152178155825160608101909352602480845290929162002ea39083013960018201906200099090826200131b565b5060408051808201909152600581526439ba30b33360d91b60208201526002820190620009be90826200131b565b5063681f5fc860038083019190915560048201805460ff19166001908117909155600060058401819055600684018390556008840192909255805482526002602090815260408084209284529181529181902080546001600160a01b031916735b38da6a701c568545dcfcb03fcb875f56beddc4178155815160c081019092526086808352909262002ca890830139600182019062000a5e90826200131b565b506040805180820190915260078152661cdd1d59195b9d60ca1b6020820152600282019062000a8e90826200131b565b5063681f641460038201556001805460009081526020818152604080832085546001600160a01b031684526007018252808320805460ff19168517905592548252600280825283832090835281529082902080546001600160a01b03191673617f2e2fd72fd9d5503197092ac168c91465e7f217815582516060810190935260378084529092916200306f90830139600182019062000b2e90826200131b565b506040805180820190915260078152661cdd1d59195b9d60ca1b6020820152600282019062000b5e90826200131b565b5063681f68606003808301919091556001805460009081526020818152604080832086546001600160a01b031684526007018252808320805460ff191685179055925482526002815282822093825292835281902080546001600160a01b03191673a983d7e14ac1aaf050bb64fdab1024ae9c93c9561781558151608081019092526047808352909262002ec790830139600182019062000c0090826200131b565b506040805180820190915260078152661cdd1d59195b9d60ca1b6020820152600282019062000c3090826200131b565b5063681f6cac60038201556001805460009081526020818152604080832085546001600160a01b039081168552600790910190925291829020805460ff19168417905586548354925191169260008051602062002d2e8339815191529162000ca19160028a0191908a01906200146c565b60405180910390a38254600180546040516001600160a01b039093169260008051602062002d908339815191529062000ce3908489019060028a01906200146c565b60405180910390a48154600180546040516001600160a01b039093169260029260008051602062002d908339815191529162000d2691880190858901906200146c565b60405180910390a48054600180546040516001600160a01b039093169260039260008051602062002d908339815191529162000d6a9187019060028801906200146c565b60405180910390a46001805490600062000d84836200149e565b90915550506001546000908152602081815260409182902080546001600160a01b0319167311111111111111111111111111111111111111111781558251610120810190935260f380845290929162002db090830139600182019062000deb90826200131b565b50604080518082019091526009815268383937b332b9b9b7b960b91b6020820152600282019062000e1d90826200131b565b50636821ec20600382015560048101805460ff19908116600190811790925560026005840181905560068401819055600884018190558254600090815260208181526040808320732222222222222222222222222222222222222222845260079081018352818420805487168817905586548452838352818420733333333333333333333333333333333333333333855281018352818420805487168817905586548452838352818420734444444444444444444444444444444444444444855281018352818420805487168817905586548452838352818420735555555555555555555555555555555555555555855201825280832080549095168617909455845482529182528281209381529281529181902080546001600160a01b031916736666666666666666666666666666666666666666178155815160c08101909252609e80835290926200315e90830139600182019062000f7f90826200131b565b506040805180820190915260078152661cdd1d59195b9d60ca1b6020820152600282019062000faf90826200131b565b50636821ec84600382015560015460009081526002602081815260408084209284529181529181902080546001600160a01b031916737777777777777777777777777777777777777777178155815160c081019092526095808352909262002fba9083013960018201906200102590826200131b565b50604080518082019091526009815268383937b332b9b9b7b960b91b602082015260028201906200105790826200131b565b50636821ece860038201558254600180546040516001600160a01b0390931692909160008051602062002d2e833981519152916200109e916002890191908901906200146c565b60405180910390a360015460405173222222222222222222222222222222222222222291907fedc96ef82a3fd8ea664dd4fe50f94c77be3c3d6130792c3ed8b0199e3c28ec6290600090a3600180546040519182527322222222222222222222222222222222222222229160008051602062002c888339815191529060200160405180910390a360015460405160008152733333333333333333333333333333333333333333919060008051602062002c888339815191529060200160405180910390a3600180546040519182527344444444444444444444444444444444444444449160008051602062002c888339815191529060200160405180910390a360015460405160008152735555555555555555555555555555555555555555919060008051602062002c888339815191529060200160405180910390a38154600180546040516001600160a01b039093169260008051602062002d908339815191529062001215908488019060028901906200146c565b60405180910390a48054600180546040516001600160a01b039093169260029260008051602062002d90833981519152916200125891870190858801906200146c565b60405180910390a450505050505050505050505050505050620014c6565b634e487b7160e01b600052604160045260246000fd5b600181811c90821680620012a157607f821691505b602082108103620012c257634e487b7160e01b600052602260045260246000fd5b50919050565b601f8211156200131657600081815260208120601f850160051c81016020861015620012f15750805b601f850160051c820191505b818110156200131257828155600101620012fd565b5050505b505050565b81516001600160401b0381111562001337576200133762001276565b6200134f816200134884546200128c565b84620012c8565b602080601f8311600181146200138757600084156200136e5750858301515b600019600386901b1c1916600185901b17855562001312565b600085815260208120601f198616915b82811015620013b85788860151825594840194600190910190840162001397565b5085821015620013d75787850151600019600388901b60f8161c191681555b5050505050600190811b01905550565b60008154620013f6816200128c565b808552602060018381168015620014165760018114620014315762001461565b60ff1985168884015283151560051b88018301955062001461565b866000528260002060005b85811015620014595781548a82018601529083019084016200143c565b890184019650505b505050505092915050565b604081526000620014816040830185620013e7565b8281036020840152620014958185620013e7565b95945050505050565b600060018201620014bf57634e487b7160e01b600052601160045260246000fd5b5060010190565b6117b280620014d66000396000f3fe608060405234801561001057600080fd5b50600436106100a95760003560e01c8063392338f511610071578063392338f51461014157806340731c24146101545780634385963214610167578063488927531461018a5780636305dd23146101ad578063fc6c776f146101c057600080fd5b80630b1e7f83146100ae5780630d4bfb4f146100de5780631521e616146100ff57806317906c2e1461011457806325cfb1c51461011d575b600080fd5b6100c16100bc36600461112e565b6101d3565b6040516100d598979695949392919061118d565b60405180910390f35b6100f16100ec36600461112e565b610333565b6040519081526020016100d5565b61011261010d366004611295565b610381565b005b6100f160015481565b61013061012b366004611302565b6104c0565b6040516100d5959493929190611386565b61011261014f36600461143d565b61094f565b6100c161016236600461112e565b610a0f565b61017a6101753660046114a1565b610bca565b60405190151581526020016100d5565b61019d6101983660046114dd565b610c28565b6040516100d594939291906114ff565b6101126101bb366004611547565b610e22565b61019d6101ce3660046114dd565b610fe0565b600060208190529081526040902080546001820180546001600160a01b0390921692916101ff90611571565b80601f016020809104026020016040519081016040528092919081815260200182805461022b90611571565b80156102785780601f1061024d57610100808354040283529160200191610278565b820191906000526020600020905b81548152906001019060200180831161025b57829003601f168201915b50505050509080600201805461028d90611571565b80601f01602080910402602001604051908101604052809291908181526020018280546102b990611571565b80156103065780601f106102db57610100808354040283529160200191610306565b820191906000526020600020905b8154815290600101906020018083116102e957829003601f168201915b50505060038401546004850154600586015460068701546008909701549596929560ff9092169450925088565b6000808211801561034657506001548211155b61036b5760405162461bcd60e51b8152600401610362906115ab565b60405180910390fd5b5060009081526020819052604090206008015490565b60008311801561039357506001548311155b6103af5760405162461bcd60e51b8152600401610362906115ab565b60008251116104005760405162461bcd60e51b815260206004820152601760248201527f436f6d6d656e742063616e6e6f7420626520656d7074790000000000000000006044820152606401610362565b6000838152602081905260408120600881018054919261041f836115ea565b9091555050600084815260026020908152604080832060088501548452909152902080546001600160a01b031916331781556001810161045f8582611652565b506002810161046e8482611652565b50426003820155600882015460405133919087907f03a56e2377acf256c15a50f0b97834fa29a151d0b8a6d05c450576e40634fadc906104b19089908990611712565b60405180910390a45050505050565b606080606080600080881180156104d957506001548811155b6104f55760405162461bcd60e51b8152600401610362906115ab565b600087116105455760405162461bcd60e51b815260206004820152601f60248201527f5374617274204944206d7573742062652067726561746572207468616e2030006044820152606401610362565b5060008781526020819052604090206008015480808811156105e15760408051600080825260208201818152828401909352909190610594565b606081526020019060019003908161057f5790505b5060408051600080825260208201909252906105c0565b60608152602001906001900390816105ab5790505b50604080516000808252602082019092529050955095509550955050610944565b8660148111156105ef575060145b60006105fb8a84611740565b610606906001611753565b905080821115610614578091505b8167ffffffffffffffff81111561062d5761062d6111f2565b604051908082528060200260200182016040528015610656578160200160208202803683370190505b5097508167ffffffffffffffff811115610672576106726111f2565b6040519080825280602002602001820160405280156106a557816020015b60608152602001906001900390816106905790505b5096508167ffffffffffffffff8111156106c1576106c16111f2565b6040519080825280602002602001820160405280156106f457816020015b60608152602001906001900390816106df5790505b5095508167ffffffffffffffff811115610710576107106111f2565b604051908082528060200260200182016040528015610739578160200160208202803683370190505b50945060005b8281101561093f576000610753828d611753565b60008e8152600260209081526040808320848452909152902080548c5192935090916001600160a01b03909116908c908590811061079357610793611766565b60200260200101906001600160a01b031690816001600160a01b0316815250508060010180546107c290611571565b80601f01602080910402602001604051908101604052809291908181526020018280546107ee90611571565b801561083b5780601f106108105761010080835404028352916020019161083b565b820191906000526020600020905b81548152906001019060200180831161081e57829003601f168201915b50505050508a848151811061085257610852611766565b602002602001018190525080600201805461086c90611571565b80601f016020809104026020016040519081016040528092919081815260200182805461089890611571565b80156108e55780601f106108ba576101008083540402835291602001916108e5565b820191906000526020600020905b8154815290600101906020018083116108c857829003601f168201915b50505050508984815181106108fc576108fc611766565b6020026020010181905250806003015488848151811061091e5761091e611766565b60200260200101818152505050508080610937906115ea565b91505061073f565b505050505b939792965093509350565b6001805490600061095f836115ea565b909155505060018054600090815260208190526040902080546001600160a01b031916331781559081016109938482611652565b50600281016109a28382611652565b5042600382015560048101805460ff191690556000600582018190556006820181905560088201556001546040513391907f5475621b07408f75d49c828caa5aeacb3a5e98d3497e75730dc184677504401c90610a029086908890611712565b60405180910390a3505050565b600060608060008060008060008089118015610a2d57506001548911155b610a495760405162461bcd60e51b8152600401610362906115ab565b60008981526020819052604090208054600382015460048301546005840154600685015460088601546001870180546001600160a01b039097169690956002890195909460ff90911693909290918790610aa290611571565b80601f0160208091040260200160405190810160405280929190818152602001828054610ace90611571565b8015610b1b5780601f10610af057610100808354040283529160200191610b1b565b820191906000526020600020905b815481529060010190602001808311610afe57829003601f168201915b50505050509650858054610b2e90611571565b80601f0160208091040260200160405190810160405280929190818152602001828054610b5a90611571565b8015610ba75780601f10610b7c57610100808354040283529160200191610ba7565b820191906000526020600020905b815481529060010190602001808311610b8a57829003601f168201915b505050505095509850985098509850985098509850985050919395975091939597565b60008083118015610bdd57506001548311155b610bf95760405162461bcd60e51b8152600401610362906115ab565b506000828152602081815260408083206001600160a01b038516845260070190915290205460ff165b92915050565b600060608060008086118015610c4057506001548611155b610c5c5760405162461bcd60e51b8152600401610362906115ab565b600085118015610c7d57506000868152602081905260409020600801548511155b610cbe5760405162461bcd60e51b8152602060048201526012602482015271125b9d985b1a590818dbdb5b595b9d08125160721b6044820152606401610362565b60008681526002602081815260408084208985529091529091208054600382015460018301805493946001600160a01b03909316939092850191908390610d0490611571565b80601f0160208091040260200160405190810160405280929190818152602001828054610d3090611571565b8015610d7d5780601f10610d5257610100808354040283529160200191610d7d565b820191906000526020600020905b815481529060010190602001808311610d6057829003601f168201915b50505050509250818054610d9090611571565b80601f0160208091040260200160405190810160405280929190818152602001828054610dbc90611571565b8015610e095780601f10610dde57610100808354040283529160200191610e09565b820191906000526020600020905b815481529060010190602001808311610dec57829003601f168201915b5050505050915094509450945094505092959194509250565b600082118015610e3457506001548211155b610e505760405162461bcd60e51b8152600401610362906115ab565b60008281526020819052604090208054336001600160a01b0390911603610eb95760405162461bcd60e51b815260206004820152601c60248201527f43616e6e6f7420766f7465206f6e20796f7572206f776e20706f7374000000006044820152606401610362565b33600090815260078201602052604090205460ff1615610f0b5760405162461bcd60e51b815260206004820152600d60248201526c105b1c9958591e481d9bdd1959609a1b6044820152606401610362565b600481015460ff16610f545760048101805460ff19166001179055604051339084907fedc96ef82a3fd8ea664dd4fe50f94c77be3c3d6130792c3ed8b0199e3c28ec6290600090a35b3360009081526007820160205260409020805460ff191660011790558115610f9257600581018054906000610f88836115ea565b9190505550610faa565b600681018054906000610fa4836115ea565b91905055505b6040518215158152339084907fe71fcdac32df1877c1700e7bda2a03157e20993363a28fc35ac495cefc76e4d490602001610a02565b6002602090815260009283526040808420909152908252902080546001820180546001600160a01b03909216929161101790611571565b80601f016020809104026020016040519081016040528092919081815260200182805461104390611571565b80156110905780601f1061106557610100808354040283529160200191611090565b820191906000526020600020905b81548152906001019060200180831161107357829003601f168201915b5050505050908060020180546110a590611571565b80601f01602080910402602001604051908101604052809291908181526020018280546110d190611571565b801561111e5780601f106110f35761010080835404028352916020019161111e565b820191906000526020600020905b81548152906001019060200180831161110157829003601f168201915b5050505050908060030154905084565b60006020828403121561114057600080fd5b5035919050565b6000815180845260005b8181101561116d57602081850181015186830182015201611151565b506000602082860101526020601f19601f83011685010191505092915050565b6001600160a01b0389168152610100602082018190526000906111b28382018b611147565b905082810360408401526111c6818a611147565b60608401989098525050931515608085015260a084019290925260c083015260e0909101529392505050565b634e487b7160e01b600052604160045260246000fd5b600082601f83011261121957600080fd5b813567ffffffffffffffff80821115611234576112346111f2565b604051601f8301601f19908116603f0116810190828211818310171561125c5761125c6111f2565b8160405283815286602085880101111561127557600080fd5b836020870160208301376000602085830101528094505050505092915050565b6000806000606084860312156112aa57600080fd5b83359250602084013567ffffffffffffffff808211156112c957600080fd5b6112d587838801611208565b935060408601359150808211156112eb57600080fd5b506112f886828701611208565b9150509250925092565b60008060006060848603121561131757600080fd5b505081359360208301359350604090920135919050565b600082825180855260208086019550808260051b84010181860160005b8481101561137957601f19868403018952611367838351611147565b9884019892509083019060010161134b565b5090979650505050505050565b60a0808252865190820181905260009060209060c0840190828a01845b828110156113c85781516001600160a01b0316845292840192908401906001016113a3565b505050838103828501526113dc818961132e565b905083810360408501526113f0818861132e565b8481036060860152865180825283880192509083019060005b8181101561142557835183529284019291840191600101611409565b50508093505050508260808301529695505050505050565b6000806040838503121561145057600080fd5b823567ffffffffffffffff8082111561146857600080fd5b61147486838701611208565b9350602085013591508082111561148a57600080fd5b5061149785828601611208565b9150509250929050565b600080604083850312156114b457600080fd5b8235915060208301356001600160a01b03811681146114d257600080fd5b809150509250929050565b600080604083850312156114f057600080fd5b50508035926020909101359150565b6001600160a01b038516815260806020820181905260009061152390830186611147565b82810360408401526115358186611147565b91505082606083015295945050505050565b6000806040838503121561155a57600080fd5b82359150602083013580151581146114d257600080fd5b600181811c9082168061158557607f821691505b6020821081036115a557634e487b7160e01b600052602260045260246000fd5b50919050565b6020808252600f908201526e125b9d985b1a59081c1bdcdd081251608a1b604082015260600190565b634e487b7160e01b600052601160045260246000fd5b6000600182016115fc576115fc6115d4565b5060010190565b601f82111561164d57600081815260208120601f850160051c8101602086101561162a5750805b601f850160051c820191505b8181101561164957828155600101611636565b5050505b505050565b815167ffffffffffffffff81111561166c5761166c6111f2565b6116808161167a8454611571565b84611603565b602080601f8311600181146116b5576000841561169d5750858301515b600019600386901b1c1916600185901b178555611649565b600085815260208120601f198616915b828110156116e4578886015182559484019460019091019084016116c5565b50858210156117025787850151600019600388901b60f8161c191681555b5050505050600190811b01905550565b6040815260006117256040830185611147565b82810360208401526117378185611147565b95945050505050565b81810381811115610c2257610c226115d4565b80820180821115610c2257610c226115d4565b634e487b7160e01b600052603260045260246000fdfea26469706673582212206ecbb5f42ba428b77cfed686a1dd7447ce27c176e8f6fb44a58806c639a9d23164736f6c63430008130033e71fcdac32df1877c1700e7bda2a03157e20993363a28fc35ac495cefc76e4d45468697320706572736f6e207769746820696420233435206973206e6f742073746166662e2054686973206775792074727969696e6720746f2070726574656e7420626f74682070726f666573736f7220616e642073747566662e2049277665207365656e207468656d2061726f756e642063616d70757320617320612073747564656e742e5475621b07408f75d49c828caa5aeacb3a5e98d3497e75730dc184677504401c54686520657363616c61746f72206f757473696465204359542069732062726f6b656e20616761696e2120506c656173652066697820697420757267656e746c792103a56e2377acf256c15a50f0b97834fa29a151d0b8a6d05c450576e40634fadc50726f706f73616c3a20556e69766572736974792073686f756c64207072696f726974697a65205354454d2072657365617263682066756e64696e67207369676e69666963616e746c79206f7665722048756d616e697469657320746f206d61696e7461696e206f757220636f6d7065746974697665206564676520616e6420616c69676e207769746820667574757265206a6f62206d61726b65742064656d616e64732e2054686973206973206120707261676d6174696320617070726f61636820666f72206c6f6e672d7465726d20696e737469747574696f6e616c20737563636573732e20234675747572655354454d5768656e2077696c6c204c4731206f70656e206e6577206d65616c206f7074696f6e733f49206b6e6f77207468697320706572736f6e2066726f6d206d7920636c6173732e20546865792772652070726574656e64696e6720746f20626520737461666620616761696e215468697320697320646566696e6974656c792066616b65206e6577732e20446f6e27742062656c696576652069742e5468616e6b20796f7520746f2074686520737461666620666f722074686520717569636b20726573706f6e736521205468697320686173206265656e20616e206f6e676f696e672069737375652e4e6f207761792120492063616e2066696e616c6c7920626520667265652066726f6d207468652070726f6a656374214672616d696e6720746869732061732061202750726f666573736f7227207669657720697320612062697420646973696e67656e756f75732e204d616e7920666163756c74792062656c6965766520696e20612062616c616e63656420617070726f6163682e20546865206973737565206973206d6f7265206e75616e636564207468616e2070726573656e74656420686572652e0000000000000000000000004511277f98ba4282705da1c250110e24aa2f88a2492061677265652c20646566696e6974656c79206e6f742073746166662e20566f74696e672066616b65206f6e2074686973206f6e652e486f772063616e20796f752070726574656e6420746f20626520612070726f666573736f7220616e64207468656e20636f6d6d656e7420617320612073747564656e743f204f75722070726f6a656374206973207374696c6c206f6e676f696e672e2057652073686f756c64206368616c6c656e676520746869732075736572277320637265646962696c697479215468697320697320612073616d706c6520636f6d6d656e74206f6e20746865207465737420706f7374417320612073747564656e742c204920736565207468652070726163746963616c2062656e6566697473206f6620666f637573696e67206f6e205354454d20666f72206a6f622070726f7370656374732c206275742077652073686f756c646e277420636f6d706c6574656c7920646566756e642068756d616e69746965732e205468657920746561636820637269746963616c207468696e6b696e672e5468616e6b20796f7520666f72207265706f7274696e6720746869732069737375652e205765276c6c2073656e642061206d61696e74656e616e6365207465616d20726967687420617761792e74686520434f4d50343531312070726f6a6563742077696c6c2062652063616e63656c656421",
  "linkReferences": {},
  "deployedLinkReferences": {}
}