{
	"contracts/forum.sol": {
		"HKUSTForum": {
			"abi": [
				{
					"inputs": [],
					"stateMutability": "nonpayable",
					"type": "constructor"
				},
				{
					"anonymous": false,
					"inputs": [
						{
							"indexed": true,
							"internalType": "uint256",
							"name": "postId",
							"type": "uint256"
						},
						{
							"indexed": true,
							"internalType": "uint256",
							"name": "commentId",
							"type": "uint256"
						},
						{
							"indexed": true,
							"internalType": "address",
							"name": "author",
							"type": "address"
						},
						{
							"indexed": false,
							"internalType": "string",
							"name": "content",
							"type": "string"
						},
						{
							"indexed": false,
							"internalType": "string",
							"name": "tag",
							"type": "string"
						}
					],
					"name": "CommentAdded",
					"type": "event"
				},
				{
					"anonymous": false,
					"inputs": [
						{
							"indexed": true,
							"internalType": "uint256",
							"name": "postId",
							"type": "uint256"
						},
						{
							"indexed": true,
							"internalType": "address",
							"name": "author",
							"type": "address"
						},
						{
							"indexed": false,
							"internalType": "string",
							"name": "tag",
							"type": "string"
						},
						{
							"indexed": false,
							"internalType": "string",
							"name": "content",
							"type": "string"
						}
					],
					"name": "PostCreated",
					"type": "event"
				},
				{
					"anonymous": false,
					"inputs": [
						{
							"indexed": true,
							"internalType": "uint256",
							"name": "postId",
							"type": "uint256"
						},
						{
							"indexed": true,
							"internalType": "address",
							"name": "challenger",
							"type": "address"
						}
					],
					"name": "TagChallenged",
					"type": "event"
				},
				{
					"anonymous": false,
					"inputs": [
						{
							"indexed": true,
							"internalType": "uint256",
							"name": "postId",
							"type": "uint256"
						},
						{
							"indexed": true,
							"internalType": "address",
							"name": "voter",
							"type": "address"
						},
						{
							"indexed": false,
							"internalType": "bool",
							"name": "isRealVote",
							"type": "bool"
						}
					],
					"name": "VoteCast",
					"type": "event"
				},
				{
					"inputs": [
						{
							"internalType": "uint256",
							"name": "_postId",
							"type": "uint256"
						},
						{
							"internalType": "string",
							"name": "_content",
							"type": "string"
						},
						{
							"internalType": "string",
							"name": "_tag",
							"type": "string"
						}
					],
					"name": "addComment",
					"outputs": [],
					"stateMutability": "nonpayable",
					"type": "function"
				},
				{
					"inputs": [
						{
							"internalType": "uint256",
							"name": "_postId",
							"type": "uint256"
						},
						{
							"internalType": "bool",
							"name": "_isRealVote",
							"type": "bool"
						}
					],
					"name": "challengeAndVote",
					"outputs": [],
					"stateMutability": "nonpayable",
					"type": "function"
				},
				{
					"inputs": [
						{
							"internalType": "uint256",
							"name": "",
							"type": "uint256"
						},
						{
							"internalType": "uint256",
							"name": "",
							"type": "uint256"
						}
					],
					"name": "comments",
					"outputs": [
						{
							"internalType": "address",
							"name": "author",
							"type": "address"
						},
						{
							"internalType": "string",
							"name": "content",
							"type": "string"
						},
						{
							"internalType": "string",
							"name": "tag",
							"type": "string"
						},
						{
							"internalType": "uint256",
							"name": "timestamp",
							"type": "uint256"
						}
					],
					"stateMutability": "view",
					"type": "function"
				},
				{
					"inputs": [
						{
							"internalType": "string",
							"name": "_content",
							"type": "string"
						},
						{
							"internalType": "string",
							"name": "_tag",
							"type": "string"
						}
					],
					"name": "createPost",
					"outputs": [],
					"stateMutability": "nonpayable",
					"type": "function"
				},
				{
					"inputs": [
						{
							"internalType": "uint256",
							"name": "_postId",
							"type": "uint256"
						},
						{
							"internalType": "uint256",
							"name": "_commentId",
							"type": "uint256"
						}
					],
					"name": "getComment",
					"outputs": [
						{
							"internalType": "address",
							"name": "author",
							"type": "address"
						},
						{
							"internalType": "string",
							"name": "content",
							"type": "string"
						},
						{
							"internalType": "string",
							"name": "tag",
							"type": "string"
						},
						{
							"internalType": "uint256",
							"name": "timestamp",
							"type": "uint256"
						}
					],
					"stateMutability": "view",
					"type": "function"
				},
				{
					"inputs": [
						{
							"internalType": "uint256",
							"name": "_postId",
							"type": "uint256"
						}
					],
					"name": "getCommentCount",
					"outputs": [
						{
							"internalType": "uint256",
							"name": "",
							"type": "uint256"
						}
					],
					"stateMutability": "view",
					"type": "function"
				},
				{
					"inputs": [
						{
							"internalType": "uint256",
							"name": "_postId",
							"type": "uint256"
						},
						{
							"internalType": "uint256",
							"name": "_startId",
							"type": "uint256"
						},
						{
							"internalType": "uint256",
							"name": "_batchSize",
							"type": "uint256"
						}
					],
					"name": "getCommentsBatch",
					"outputs": [
						{
							"internalType": "address[]",
							"name": "authors",
							"type": "address[]"
						},
						{
							"internalType": "string[]",
							"name": "contents",
							"type": "string[]"
						},
						{
							"internalType": "string[]",
							"name": "tags",
							"type": "string[]"
						},
						{
							"internalType": "uint256[]",
							"name": "timestamps",
							"type": "uint256[]"
						},
						{
							"internalType": "uint256",
							"name": "totalCount",
							"type": "uint256"
						}
					],
					"stateMutability": "view",
					"type": "function"
				},
				{
					"inputs": [
						{
							"internalType": "uint256",
							"name": "_postId",
							"type": "uint256"
						}
					],
					"name": "getPost",
					"outputs": [
						{
							"internalType": "address",
							"name": "author",
							"type": "address"
						},
						{
							"internalType": "string",
							"name": "content",
							"type": "string"
						},
						{
							"internalType": "string",
							"name": "tag",
							"type": "string"
						},
						{
							"internalType": "uint256",
							"name": "timestamp",
							"type": "uint256"
						},
						{
							"internalType": "bool",
							"name": "isTagChallenged",
							"type": "bool"
						},
						{
							"internalType": "uint256",
							"name": "realVotes",
							"type": "uint256"
						},
						{
							"internalType": "uint256",
							"name": "fakerVotes",
							"type": "uint256"
						},
						{
							"internalType": "uint256",
							"name": "commentCount",
							"type": "uint256"
						}
					],
					"stateMutability": "view",
					"type": "function"
				},
				{
					"inputs": [
						{
							"internalType": "uint256",
							"name": "_postId",
							"type": "uint256"
						},
						{
							"internalType": "address",
							"name": "_voter",
							"type": "address"
						}
					],
					"name": "hasVoted",
					"outputs": [
						{
							"internalType": "bool",
							"name": "",
							"type": "bool"
						}
					],
					"stateMutability": "view",
					"type": "function"
				},
				{
					"inputs": [],
					"name": "postCount",
					"outputs": [
						{
							"internalType": "uint256",
							"name": "",
							"type": "uint256"
						}
					],
					"stateMutability": "view",
					"type": "function"
				},
				{
					"inputs": [
						{
							"internalType": "uint256",
							"name": "",
							"type": "uint256"
						}
					],
					"name": "posts",
					"outputs": [
						{
							"internalType": "address",
							"name": "author",
							"type": "address"
						},
						{
							"internalType": "string",
							"name": "content",
							"type": "string"
						},
						{
							"internalType": "string",
							"name": "tag",
							"type": "string"
						},
						{
							"internalType": "uint256",
							"name": "timestamp",
							"type": "uint256"
						},
						{
							"internalType": "bool",
							"name": "isTagChallenged",
							"type": "bool"
						},
						{
							"internalType": "uint256",
							"name": "realVotes",
							"type": "uint256"
						},
						{
							"internalType": "uint256",
							"name": "fakerVotes",
							"type": "uint256"
						},
						{
							"internalType": "uint256",
							"name": "commentCount",
							"type": "uint256"
						}
					],
					"stateMutability": "view",
					"type": "function"
				}
			],
			"devdoc": {
				"kind": "dev",
				"methods": {},
				"version": 1
			},
			"evm": {
				"assembly": "    /* \"contracts/forum.sol\":58:16282  contract HKUSTForum {... */\n  mstore(0x40, 0x80)\n    /* \"contracts/forum.sol\":1578:8746  constructor() {... */\n  callvalue\n  dup1\n  iszero\n  tag_1\n  jumpi\n  0x00\n  dup1\n  revert\ntag_1:\n  pop\n    /* \"contracts/forum.sol\":1718:1719  1 */\n  0x01\n    /* \"contracts/forum.sol\":1706:1715  postCount */\n  dup1\n    /* \"contracts/forum.sol\":1706:1719  postCount = 1 */\n  dup2\n  swap1\n  sstore\n  pop\n    /* \"contracts/forum.sol\":1845:1865  Post storage newPost */\n  0x00\n    /* \"contracts/forum.sol\":1868:1873  posts */\n  dup1\n    /* \"contracts/forum.sol\":1868:1884  posts[postCount] */\n  0x00\n    /* \"contracts/forum.sol\":1874:1883  postCount */\n  sload(0x01)\n    /* \"contracts/forum.sol\":1868:1884  posts[postCount] */\n  dup2\n  mstore\n  0x20\n  add\n  swap1\n  dup2\n  mstore\n  0x20\n  add\n  0x00\n  keccak256\n    /* \"contracts/forum.sol\":1845:1884  Post storage newPost = posts[postCount] */\n  swap1\n  pop\n    /* \"contracts/forum.sol\":1911:1953  0x4511277f98BA4282705Da1c250110E24Aa2f88a2 */\n  0x4511277f98ba4282705da1c250110e24aa2f88a2\n    /* \"contracts/forum.sol\":1894:1901  newPost */\n  dup2\n    /* \"contracts/forum.sol\":1894:1908  newPost.author */\n  0x00\n  add\n  0x00\n    /* \"contracts/forum.sol\":1894:1953  newPost.author = 0x4511277f98BA4282705Da1c250110E24Aa2f88a2 */\n  0x0100\n  exp\n  dup2\n  sload\n  dup2\n  0xffffffffffffffffffffffffffffffffffffffff\n  mul\n  not\n  and\n  swap1\n  dup4\n  0xffffffffffffffffffffffffffffffffffffffff\n  and\n  mul\n  or\n  swap1\n  sstore\n  pop\n    /* \"contracts/forum.sol\":1963:1987  newPost.content = \"test\" */\n  mload(0x40)\n  dup1\n  0x40\n  add\n  0x40\n  mstore\n  dup1\n  0x04\n  dup2\n  mstore\n  0x20\n  add\n  0x7465737400000000000000000000000000000000000000000000000000000000\n  dup2\n  mstore\n  pop\n    /* \"contracts/forum.sol\":1963:1970  newPost */\n  dup2\n    /* \"contracts/forum.sol\":1963:1978  newPost.content */\n  0x01\n  add\n    /* \"contracts/forum.sol\":1963:1987  newPost.content = \"test\" */\n  swap1\n  dup2\n  tag_4\n  swap2\n  swap1\n  tag_5\n  jump\t// in\ntag_4:\n  pop\n    /* \"contracts/forum.sol\":1997:2020  newPost.tag = \"student\" */\n  mload(0x40)\n  dup1\n  0x40\n  add\n  0x40\n  mstore\n  dup1\n  0x07\n  dup2\n  mstore\n  0x20\n  add\n  0x73747564656e7400000000000000000000000000000000000000000000000000\n  dup2\n  mstore\n  pop\n    /* \"contracts/forum.sol\":1997:2004  newPost */\n  dup2\n    /* \"contracts/forum.sol\":1997:2008  newPost.tag */\n  0x02\n  add\n    /* \"contracts/forum.sol\":1997:2020  newPost.tag = \"student\" */\n  swap1\n  dup2\n  tag_6\n  swap2\n  swap1\n  tag_5\n  jump\t// in\ntag_6:\n  pop\n    /* \"contracts/forum.sol\":2050:2060  1746874632 */\n  0x681f3108\n    /* \"contracts/forum.sol\":2030:2037  newPost */\n  dup2\n    /* \"contracts/forum.sol\":2030:2047  newPost.timestamp */\n  0x03\n  add\n    /* \"contracts/forum.sol\":2030:2060  newPost.timestamp = 1746874632 */\n  dup2\n  swap1\n  sstore\n  pop\n    /* \"contracts/forum.sol\":2129:2134  false */\n  0x00\n    /* \"contracts/forum.sol\":2103:2110  newPost */\n  dup2\n    /* \"contracts/forum.sol\":2103:2126  newPost.isTagChallenged */\n  0x04\n  add\n  0x00\n    /* \"contracts/forum.sol\":2103:2134  newPost.isTagChallenged = false */\n  0x0100\n  exp\n  dup2\n  sload\n  dup2\n  0xff\n  mul\n  not\n  and\n  swap1\n  dup4\n  iszero\n  iszero\n  mul\n  or\n  swap1\n  sstore\n  pop\n    /* \"contracts/forum.sol\":2164:2165  0 */\n  0x00\n    /* \"contracts/forum.sol\":2144:2151  newPost */\n  dup2\n    /* \"contracts/forum.sol\":2144:2161  newPost.realVotes */\n  0x05\n  add\n    /* \"contracts/forum.sol\":2144:2165  newPost.realVotes = 0 */\n  dup2\n  swap1\n  sstore\n  pop\n    /* \"contracts/forum.sol\":2196:2197  0 */\n  0x00\n    /* \"contracts/forum.sol\":2175:2182  newPost */\n  dup2\n    /* \"contracts/forum.sol\":2175:2193  newPost.fakerVotes */\n  0x06\n  add\n    /* \"contracts/forum.sol\":2175:2197  newPost.fakerVotes = 0 */\n  dup2\n  swap1\n  sstore\n  pop\n    /* \"contracts/forum.sol\":2230:2231  1 */\n  0x01\n    /* \"contracts/forum.sol\":2207:2214  newPost */\n  dup2\n    /* \"contracts/forum.sol\":2207:2227  newPost.commentCount */\n  0x08\n  add\n    /* \"contracts/forum.sol\":2207:2231  newPost.commentCount = 1 */\n  dup2\n  swap1\n  sstore\n  pop\n    /* \"contracts/forum.sol\":2340:2366  Comment storage newComment */\n  0x00\n    /* \"contracts/forum.sol\":2369:2377  comments */\n  0x02\n    /* \"contracts/forum.sol\":2369:2388  comments[postCount] */\n  0x00\n    /* \"contracts/forum.sol\":2378:2387  postCount */\n  sload(0x01)\n    /* \"contracts/forum.sol\":2369:2388  comments[postCount] */\n  dup2\n  mstore\n  0x20\n  add\n  swap1\n  dup2\n  mstore\n  0x20\n  add\n  0x00\n  keccak256\n    /* \"contracts/forum.sol\":2369:2391  comments[postCount][1] */\n  0x00\n    /* \"contracts/forum.sol\":2389:2390  1 */\n  0x01\n    /* \"contracts/forum.sol\":2369:2391  comments[postCount][1] */\n  dup2\n  mstore\n  0x20\n  add\n  swap1\n  dup2\n  mstore\n  0x20\n  add\n  0x00\n  keccak256\n    /* \"contracts/forum.sol\":2340:2391  Comment storage newComment = comments[postCount][1] */\n  swap1\n  pop\n    /* \"contracts/forum.sol\":2421:2463  0x4511277f98BA4282705Da1c250110E24Aa2f88a2 */\n  0x4511277f98ba4282705da1c250110e24aa2f88a2\n    /* \"contracts/forum.sol\":2401:2411  newComment */\n  dup2\n    /* \"contracts/forum.sol\":2401:2418  newComment.author */\n  0x00\n  add\n  0x00\n    /* \"contracts/forum.sol\":2401:2463  newComment.author = 0x4511277f98BA4282705Da1c250110E24Aa2f88a2 */\n  0x0100\n  exp\n  dup2\n  sload\n  dup2\n  0xffffffffffffffffffffffffffffffffffffffff\n  mul\n  not\n  and\n  swap1\n  dup4\n  0xffffffffffffffffffffffffffffffffffffffff\n  and\n  mul\n  or\n  swap1\n  sstore\n  pop\n    /* \"contracts/forum.sol\":2473:2537  newComment.content = \"This is a sample comment on the test post\" */\n  mload(0x40)\n  dup1\n  0x60\n  add\n  0x40\n  mstore\n  dup1\n  0x29\n  dup2\n  mstore\n  0x20\n  add\n  data_c82959ddba0abf90a078c025a95d0f077dc3ee31c7b7b94a9d43d450fadb60f5\n  0x29\n  swap2\n  codecopy\n    /* \"contracts/forum.sol\":2473:2483  newComment */\n  dup2\n    /* \"contracts/forum.sol\":2473:2491  newComment.content */\n  0x01\n  add\n    /* \"contracts/forum.sol\":2473:2537  newComment.content = \"This is a sample comment on the test post\" */\n  swap1\n  dup2\n  tag_7\n  swap2\n  swap1\n  tag_5\n  jump\t// in\ntag_7:\n  pop\n    /* \"contracts/forum.sol\":2547:2573  newComment.tag = \"student\" */\n  mload(0x40)\n  dup1\n  0x40\n  add\n  0x40\n  mstore\n  dup1\n  0x07\n  dup2\n  mstore\n  0x20\n  add\n  0x73747564656e7400000000000000000000000000000000000000000000000000\n  dup2\n  mstore\n  pop\n    /* \"contracts/forum.sol\":2547:2557  newComment */\n  dup2\n    /* \"contracts/forum.sol\":2547:2561  newComment.tag */\n  0x02\n  add\n    /* \"contracts/forum.sol\":2547:2573  newComment.tag = \"student\" */\n  swap1\n  dup2\n  tag_8\n  swap2\n  swap1\n  tag_5\n  jump\t// in\ntag_8:\n  pop\n    /* \"contracts/forum.sol\":2606:2616  1746874700 */\n  0x681f314c\n    /* \"contracts/forum.sol\":2583:2593  newComment */\n  dup2\n    /* \"contracts/forum.sol\":2583:2603  newComment.timestamp */\n  0x03\n  add\n    /* \"contracts/forum.sol\":2583:2616  newComment.timestamp = 1746874700 */\n  dup2\n  swap1\n  sstore\n  pop\n    /* \"contracts/forum.sol\":2765:2772  newPost */\n  dup2\n    /* \"contracts/forum.sol\":2765:2779  newPost.author */\n  0x00\n  add\n  0x00\n  swap1\n  sload\n  swap1\n  0x0100\n  exp\n  swap1\n  div\n  0xffffffffffffffffffffffffffffffffffffffff\n  and\n    /* \"contracts/forum.sol\":2742:2810  PostCreated(postCount, newPost.author, newPost.tag, newPost.content) */\n  0xffffffffffffffffffffffffffffffffffffffff\n  and\n    /* \"contracts/forum.sol\":2754:2763  postCount */\n  sload(0x01)\n    /* \"contracts/forum.sol\":2742:2810  PostCreated(postCount, newPost.author, newPost.tag, newPost.content) */\n  0x5475621b07408f75d49c828caa5aeacb3a5e98d3497e75730dc184677504401c\n    /* \"contracts/forum.sol\":2781:2788  newPost */\n  dup5\n    /* \"contracts/forum.sol\":2781:2792  newPost.tag */\n  0x02\n  add\n    /* \"contracts/forum.sol\":2794:2801  newPost */\n  dup6\n    /* \"contracts/forum.sol\":2794:2809  newPost.content */\n  0x01\n  add\n    /* \"contracts/forum.sol\":2742:2810  PostCreated(postCount, newPost.author, newPost.tag, newPost.content) */\n  mload(0x40)\n  tag_9\n  swap3\n  swap2\n  swap1\n  tag_10\n  jump\t// in\ntag_9:\n  mload(0x40)\n  dup1\n  swap2\n  sub\n  swap1\n  log3\n    /* \"contracts/forum.sol\":2852:2862  newComment */\n  dup1\n    /* \"contracts/forum.sol\":2852:2869  newComment.author */\n  0x00\n  add\n  0x00\n  swap1\n  sload\n  swap1\n  0x0100\n  exp\n  swap1\n  div\n  0xffffffffffffffffffffffffffffffffffffffff\n  and\n    /* \"contracts/forum.sol\":2825:2906  CommentAdded(postCount, 1, newComment.author, newComment.content, newComment.tag) */\n  0xffffffffffffffffffffffffffffffffffffffff\n  and\n    /* \"contracts/forum.sol\":2849:2850  1 */\n  0x01\n    /* \"contracts/forum.sol\":2838:2847  postCount */\n  dup1\n  sload\n    /* \"contracts/forum.sol\":2825:2906  CommentAdded(postCount, 1, newComment.author, newComment.content, newComment.tag) */\n  0x03a56e2377acf256c15a50f0b97834fa29a151d0b8a6d05c450576e40634fadc\n    /* \"contracts/forum.sol\":2871:2881  newComment */\n  dup5\n    /* \"contracts/forum.sol\":2871:2889  newComment.content */\n  0x01\n  add\n    /* \"contracts/forum.sol\":2891:2901  newComment */\n  dup6\n    /* \"contracts/forum.sol\":2891:2905  newComment.tag */\n  0x02\n  add\n    /* \"contracts/forum.sol\":2825:2906  CommentAdded(postCount, 1, newComment.author, newComment.content, newComment.tag) */\n  mload(0x40)\n  tag_11\n  swap3\n  swap2\n  swap1\n  tag_10\n  jump\t// in\ntag_11:\n  mload(0x40)\n  dup1\n  swap2\n  sub\n  swap1\n  log4\n    /* \"contracts/forum.sol\":3036:3045  postCount */\n  0x01\n  0x00\n    /* \"contracts/forum.sol\":3036:3047  postCount++ */\n  dup2\n  sload\n  dup1\n  swap3\n  swap2\n  swap1\n  tag_12\n  swap1\n  tag_13\n  jump\t// in\ntag_12:\n  swap2\n  swap1\n  pop\n  sstore\n  pop\n    /* \"contracts/forum.sol\":3057:3075  Post storage post2 */\n  0x00\n    /* \"contracts/forum.sol\":3078:3083  posts */\n  dup1\n    /* \"contracts/forum.sol\":3078:3094  posts[postCount] */\n  0x00\n    /* \"contracts/forum.sol\":3084:3093  postCount */\n  sload(0x01)\n    /* \"contracts/forum.sol\":3078:3094  posts[postCount] */\n  dup2\n  mstore\n  0x20\n  add\n  swap1\n  dup2\n  mstore\n  0x20\n  add\n  0x00\n  keccak256\n    /* \"contracts/forum.sol\":3057:3094  Post storage post2 = posts[postCount] */\n  swap1\n  pop\n    /* \"contracts/forum.sol\":3119:3161  0x4511277f98BA4282705Da1c250110E24Aa2f88a2 */\n  0x4511277f98ba4282705da1c250110e24aa2f88a2\n    /* \"contracts/forum.sol\":3104:3109  post2 */\n  dup2\n    /* \"contracts/forum.sol\":3104:3116  post2.author */\n  0x00\n  add\n  0x00\n    /* \"contracts/forum.sol\":3104:3161  post2.author = 0x4511277f98BA4282705Da1c250110E24Aa2f88a2 */\n  0x0100\n  exp\n  dup2\n  sload\n  dup2\n  0xffffffffffffffffffffffffffffffffffffffff\n  mul\n  not\n  and\n  swap1\n  dup4\n  0xffffffffffffffffffffffffffffffffffffffff\n  and\n  mul\n  or\n  swap1\n  sstore\n  pop\n    /* \"contracts/forum.sol\":3171:3227  post2.content = \"the COMP4511 project will be canceled!\" */\n  mload(0x40)\n  dup1\n  0x60\n  add\n  0x40\n  mstore\n  dup1\n  0x26\n  dup2\n  mstore\n  0x20\n  add\n  data_fb7fa661df71668dd14585a57ca5bec8eeb6303f7f7bf6f9db70ac6e49e4a587\n  0x26\n  swap2\n  codecopy\n    /* \"contracts/forum.sol\":3171:3176  post2 */\n  dup2\n    /* \"contracts/forum.sol\":3171:3184  post2.content */\n  0x01\n  add\n    /* \"contracts/forum.sol\":3171:3227  post2.content = \"the COMP4511 project will be canceled!\" */\n  swap1\n  dup2\n  tag_14\n  swap2\n  swap1\n  tag_5\n  jump\t// in\ntag_14:\n  pop\n    /* \"contracts/forum.sol\":3237:3260  post2.tag = \"professor\" */\n  mload(0x40)\n  dup1\n  0x40\n  add\n  0x40\n  mstore\n  dup1\n  0x09\n  dup2\n  mstore\n  0x20\n  add\n  0x70726f666573736f720000000000000000000000000000000000000000000000\n  dup2\n  mstore\n  pop\n    /* \"contracts/forum.sol\":3237:3242  post2 */\n  dup2\n    /* \"contracts/forum.sol\":3237:3246  post2.tag */\n  0x02\n  add\n    /* \"contracts/forum.sol\":3237:3260  post2.tag = \"professor\" */\n  swap1\n  dup2\n  tag_15\n  swap2\n  swap1\n  tag_5\n  jump\t// in\ntag_15:\n  pop\n    /* \"contracts/forum.sol\":3288:3298  1746874800 */\n  0x681f31b0\n    /* \"contracts/forum.sol\":3270:3275  post2 */\n  dup2\n    /* \"contracts/forum.sol\":3270:3285  post2.timestamp */\n  0x03\n  add\n    /* \"contracts/forum.sol\":3270:3298  post2.timestamp = 1746874800 */\n  dup2\n  swap1\n  sstore\n  pop\n    /* \"contracts/forum.sol\":3358:3362  true */\n  0x01\n    /* \"contracts/forum.sol\":3334:3339  post2 */\n  dup2\n    /* \"contracts/forum.sol\":3334:3355  post2.isTagChallenged */\n  0x04\n  add\n  0x00\n    /* \"contracts/forum.sol\":3334:3362  post2.isTagChallenged = true */\n  0x0100\n  exp\n  dup2\n  sload\n  dup2\n  0xff\n  mul\n  not\n  and\n  swap1\n  dup4\n  iszero\n  iszero\n  mul\n  or\n  swap1\n  sstore\n  pop\n    /* \"contracts/forum.sol\":3390:3391  0 */\n  0x00\n    /* \"contracts/forum.sol\":3372:3377  post2 */\n  dup2\n    /* \"contracts/forum.sol\":3372:3387  post2.realVotes */\n  0x05\n  add\n    /* \"contracts/forum.sol\":3372:3391  post2.realVotes = 0 */\n  dup2\n  swap1\n  sstore\n  pop\n    /* \"contracts/forum.sol\":3420:3421  1 */\n  0x01\n    /* \"contracts/forum.sol\":3401:3406  post2 */\n  dup2\n    /* \"contracts/forum.sol\":3401:3417  post2.fakerVotes */\n  0x06\n  add\n    /* \"contracts/forum.sol\":3401:3421  post2.fakerVotes = 1 */\n  dup2\n  swap1\n  sstore\n  pop\n    /* \"contracts/forum.sol\":3452:3453  3 */\n  0x03\n    /* \"contracts/forum.sol\":3431:3436  post2 */\n  dup2\n    /* \"contracts/forum.sol\":3431:3449  post2.commentCount */\n  0x08\n  add\n    /* \"contracts/forum.sol\":3431:3453  post2.commentCount = 3 */\n  dup2\n  swap1\n  sstore\n  pop\n    /* \"contracts/forum.sol\":3524:3548  Comment storage comment2 */\n  0x00\n    /* \"contracts/forum.sol\":3551:3559  comments */\n  0x02\n    /* \"contracts/forum.sol\":3551:3570  comments[postCount] */\n  0x00\n    /* \"contracts/forum.sol\":3560:3569  postCount */\n  sload(0x01)\n    /* \"contracts/forum.sol\":3551:3570  comments[postCount] */\n  dup2\n  mstore\n  0x20\n  add\n  swap1\n  dup2\n  mstore\n  0x20\n  add\n  0x00\n  keccak256\n    /* \"contracts/forum.sol\":3551:3573  comments[postCount][1] */\n  0x00\n    /* \"contracts/forum.sol\":3571:3572  1 */\n  0x01\n    /* \"contracts/forum.sol\":3551:3573  comments[postCount][1] */\n  dup2\n  mstore\n  0x20\n  add\n  swap1\n  dup2\n  mstore\n  0x20\n  add\n  0x00\n  keccak256\n    /* \"contracts/forum.sol\":3524:3573  Comment storage comment2 = comments[postCount][1] */\n  swap1\n  pop\n    /* \"contracts/forum.sol\":3601:3643  0x4511277f98BA4282705Da1c250110E24Aa2f88a2 */\n  0x4511277f98ba4282705da1c250110e24aa2f88a2\n    /* \"contracts/forum.sol\":3583:3591  comment2 */\n  dup2\n    /* \"contracts/forum.sol\":3583:3598  comment2.author */\n  0x00\n  add\n  0x00\n    /* \"contracts/forum.sol\":3583:3643  comment2.author = 0x4511277f98BA4282705Da1c250110E24Aa2f88a2 */\n  0x0100\n  exp\n  dup2\n  sload\n  dup2\n  0xffffffffffffffffffffffffffffffffffffffff\n  mul\n  not\n  and\n  swap1\n  dup4\n  0xffffffffffffffffffffffffffffffffffffffff\n  and\n  mul\n  or\n  swap1\n  sstore\n  pop\n    /* \"contracts/forum.sol\":3653:3721  comment2.content = \"No way! I can finally be free from the project!\" */\n  mload(0x40)\n  dup1\n  0x60\n  add\n  0x40\n  mstore\n  dup1\n  0x2f\n  dup2\n  mstore\n  0x20\n  add\n  data_be61c13ac23e6b5eaad2bf0272172247570a0cc74c677836fd04ebbbd826c629\n  0x2f\n  swap2\n  codecopy\n    /* \"contracts/forum.sol\":3653:3661  comment2 */\n  dup2\n    /* \"contracts/forum.sol\":3653:3669  comment2.content */\n  0x01\n  add\n    /* \"contracts/forum.sol\":3653:3721  comment2.content = \"No way! I can finally be free from the project!\" */\n  swap1\n  dup2\n  tag_16\n  swap2\n  swap1\n  tag_5\n  jump\t// in\ntag_16:\n  pop\n    /* \"contracts/forum.sol\":3731:3755  comment2.tag = \"student\" */\n  mload(0x40)\n  dup1\n  0x40\n  add\n  0x40\n  mstore\n  dup1\n  0x07\n  dup2\n  mstore\n  0x20\n  add\n  0x73747564656e7400000000000000000000000000000000000000000000000000\n  dup2\n  mstore\n  pop\n    /* \"contracts/forum.sol\":3731:3739  comment2 */\n  dup2\n    /* \"contracts/forum.sol\":3731:3743  comment2.tag */\n  0x02\n  add\n    /* \"contracts/forum.sol\":3731:3755  comment2.tag = \"student\" */\n  swap1\n  dup2\n  tag_17\n  swap2\n  swap1\n  tag_5\n  jump\t// in\ntag_17:\n  pop\n    /* \"contracts/forum.sol\":3786:3796  1746875000 */\n  0x681f3278\n    /* \"contracts/forum.sol\":3765:3773  comment2 */\n  dup2\n    /* \"contracts/forum.sol\":3765:3783  comment2.timestamp */\n  0x03\n  add\n    /* \"contracts/forum.sol\":3765:3796  comment2.timestamp = 1746875000 */\n  dup2\n  swap1\n  sstore\n  pop\n    /* \"contracts/forum.sol\":3872:3898  Comment storage comment2_2 */\n  0x00\n    /* \"contracts/forum.sol\":3901:3909  comments */\n  0x02\n    /* \"contracts/forum.sol\":3901:3920  comments[postCount] */\n  0x00\n    /* \"contracts/forum.sol\":3910:3919  postCount */\n  sload(0x01)\n    /* \"contracts/forum.sol\":3901:3920  comments[postCount] */\n  dup2\n  mstore\n  0x20\n  add\n  swap1\n  dup2\n  mstore\n  0x20\n  add\n  0x00\n  keccak256\n    /* \"contracts/forum.sol\":3901:3923  comments[postCount][2] */\n  0x00\n    /* \"contracts/forum.sol\":3921:3922  2 */\n  0x02\n    /* \"contracts/forum.sol\":3901:3923  comments[postCount][2] */\n  dup2\n  mstore\n  0x20\n  add\n  swap1\n  dup2\n  mstore\n  0x20\n  add\n  0x00\n  keccak256\n    /* \"contracts/forum.sol\":3872:3923  Comment storage comment2_2 = comments[postCount][2] */\n  swap1\n  pop\n    /* \"contracts/forum.sol\":3953:3995  0x3fC91A3afd70395Cd496C647d5a6CC9D4B2b7FAD */\n  0x3fc91a3afd70395cd496c647d5a6cc9d4b2b7fad\n    /* \"contracts/forum.sol\":3933:3943  comment2_2 */\n  dup2\n    /* \"contracts/forum.sol\":3933:3950  comment2_2.author */\n  0x00\n  add\n  0x00\n    /* \"contracts/forum.sol\":3933:3995  comment2_2.author = 0x3fC91A3afd70395Cd496C647d5a6CC9D4B2b7FAD */\n  0x0100\n  exp\n  dup2\n  sload\n  dup2\n  0xffffffffffffffffffffffffffffffffffffffff\n  mul\n  not\n  and\n  swap1\n  dup4\n  0xffffffffffffffffffffffffffffffffffffffff\n  and\n  mul\n  or\n  swap1\n  sstore\n  pop\n    /* \"contracts/forum.sol\":4005:4075  comment2_2.content = \"This is definitely fake news. Don't believe it.\" */\n  mload(0x40)\n  dup1\n  0x60\n  add\n  0x40\n  mstore\n  dup1\n  0x2f\n  dup2\n  mstore\n  0x20\n  add\n  data_8cc125cce4df0a85733c0639b1a638faa4013f9bff2d8c5a759dd2dc0f8b9264\n  0x2f\n  swap2\n  codecopy\n    /* \"contracts/forum.sol\":4005:4015  comment2_2 */\n  dup2\n    /* \"contracts/forum.sol\":4005:4023  comment2_2.content */\n  0x01\n  add\n    /* \"contracts/forum.sol\":4005:4075  comment2_2.content = \"This is definitely fake news. Don't believe it.\" */\n  swap1\n  dup2\n  tag_18\n  swap2\n  swap1\n  tag_5\n  jump\t// in\ntag_18:\n  pop\n    /* \"contracts/forum.sol\":4085:4111  comment2_2.tag = \"student\" */\n  mload(0x40)\n  dup1\n  0x40\n  add\n  0x40\n  mstore\n  dup1\n  0x07\n  dup2\n  mstore\n  0x20\n  add\n  0x73747564656e7400000000000000000000000000000000000000000000000000\n  dup2\n  mstore\n  pop\n    /* \"contracts/forum.sol\":4085:4095  comment2_2 */\n  dup2\n    /* \"contracts/forum.sol\":4085:4099  comment2_2.tag */\n  0x02\n  add\n    /* \"contracts/forum.sol\":4085:4111  comment2_2.tag = \"student\" */\n  swap1\n  dup2\n  tag_19\n  swap2\n  swap1\n  tag_5\n  jump\t// in\ntag_19:\n  pop\n    /* \"contracts/forum.sol\":4144:4154  1746875200 */\n  0x681f3340\n    /* \"contracts/forum.sol\":4121:4131  comment2_2 */\n  dup2\n    /* \"contracts/forum.sol\":4121:4141  comment2_2.timestamp */\n  0x03\n  add\n    /* \"contracts/forum.sol\":4121:4154  comment2_2.timestamp = 1746875200 */\n  dup2\n  swap1\n  sstore\n  pop\n    /* \"contracts/forum.sol\":4251:4277  Comment storage comment2_3 */\n  0x00\n    /* \"contracts/forum.sol\":4280:4288  comments */\n  0x02\n    /* \"contracts/forum.sol\":4280:4299  comments[postCount] */\n  0x00\n    /* \"contracts/forum.sol\":4289:4298  postCount */\n  sload(0x01)\n    /* \"contracts/forum.sol\":4280:4299  comments[postCount] */\n  dup2\n  mstore\n  0x20\n  add\n  swap1\n  dup2\n  mstore\n  0x20\n  add\n  0x00\n  keccak256\n    /* \"contracts/forum.sol\":4280:4302  comments[postCount][3] */\n  0x00\n    /* \"contracts/forum.sol\":4300:4301  3 */\n  0x03\n    /* \"contracts/forum.sol\":4280:4302  comments[postCount][3] */\n  dup2\n  mstore\n  0x20\n  add\n  swap1\n  dup2\n  mstore\n  0x20\n  add\n  0x00\n  keccak256\n    /* \"contracts/forum.sol\":4251:4302  Comment storage comment2_3 = comments[postCount][3] */\n  swap1\n  pop\n    /* \"contracts/forum.sol\":4332:4374  0xa983d7E14AC1aAf050bb64Fdab1024ae9c93c956 */\n  0xa983d7e14ac1aaf050bb64fdab1024ae9c93c956\n    /* \"contracts/forum.sol\":4312:4322  comment2_3 */\n  dup2\n    /* \"contracts/forum.sol\":4312:4329  comment2_3.author */\n  0x00\n  add\n  0x00\n    /* \"contracts/forum.sol\":4312:4374  comment2_3.author = 0xa983d7E14AC1aAf050bb64Fdab1024ae9c93c956 */\n  0x0100\n  exp\n  dup2\n  sload\n  dup2\n  0xffffffffffffffffffffffffffffffffffffffff\n  mul\n  not\n  and\n  swap1\n  dup4\n  0xffffffffffffffffffffffffffffffffffffffff\n  and\n  mul\n  or\n  swap1\n  sstore\n  pop\n    /* \"contracts/forum.sol\":4384:4550  comment2_3.content = \"How can you pretend to be a professor and then comment as a student? Our project is still ongoing. We should challenge this user's credibility!\" */\n  mload(0x40)\n  dup1\n  0xc0\n  add\n  0x40\n  mstore\n  dup1\n  0x8f\n  dup2\n  mstore\n  0x20\n  add\n  data_c7f26a841e6c3160dc03ee8c2016accfd5282ffdd118e40a3c709b46bc2a6c30\n  0x8f\n  swap2\n  codecopy\n    /* \"contracts/forum.sol\":4384:4394  comment2_3 */\n  dup2\n    /* \"contracts/forum.sol\":4384:4402  comment2_3.content */\n  0x01\n  add\n    /* \"contracts/forum.sol\":4384:4550  comment2_3.content = \"How can you pretend to be a professor and then comment as a student? Our project is still ongoing. We should challenge this user's credibility!\" */\n  swap1\n  dup2\n  tag_20\n  swap2\n  swap1\n  tag_5\n  jump\t// in\ntag_20:\n  pop\n    /* \"contracts/forum.sol\":4560:4586  comment2_3.tag = \"student\" */\n  mload(0x40)\n  dup1\n  0x40\n  add\n  0x40\n  mstore\n  dup1\n  0x07\n  dup2\n  mstore\n  0x20\n  add\n  0x73747564656e7400000000000000000000000000000000000000000000000000\n  dup2\n  mstore\n  pop\n    /* \"contracts/forum.sol\":4560:4570  comment2_3 */\n  dup2\n    /* \"contracts/forum.sol\":4560:4574  comment2_3.tag */\n  0x02\n  add\n    /* \"contracts/forum.sol\":4560:4586  comment2_3.tag = \"student\" */\n  swap1\n  dup2\n  tag_21\n  swap2\n  swap1\n  tag_5\n  jump\t// in\ntag_21:\n  pop\n    /* \"contracts/forum.sol\":4619:4629  1746882492 */\n  0x681f4fbc\n    /* \"contracts/forum.sol\":4596:4606  comment2_3 */\n  dup2\n    /* \"contracts/forum.sol\":4596:4616  comment2_3.timestamp */\n  0x03\n  add\n    /* \"contracts/forum.sol\":4596:4629  comment2_3.timestamp = 1746882492 */\n  dup2\n  swap1\n  sstore\n  pop\n    /* \"contracts/forum.sol\":4676:4681  post2 */\n  dup4\n    /* \"contracts/forum.sol\":4676:4688  post2.author */\n  0x00\n  add\n  0x00\n  swap1\n  sload\n  swap1\n  0x0100\n  exp\n  swap1\n  div\n  0xffffffffffffffffffffffffffffffffffffffff\n  and\n    /* \"contracts/forum.sol\":4653:4715  PostCreated(postCount, post2.author, post2.tag, post2.content) */\n  0xffffffffffffffffffffffffffffffffffffffff\n  and\n    /* \"contracts/forum.sol\":4665:4674  postCount */\n  sload(0x01)\n    /* \"contracts/forum.sol\":4653:4715  PostCreated(postCount, post2.author, post2.tag, post2.content) */\n  0x5475621b07408f75d49c828caa5aeacb3a5e98d3497e75730dc184677504401c\n    /* \"contracts/forum.sol\":4690:4695  post2 */\n  dup7\n    /* \"contracts/forum.sol\":4690:4699  post2.tag */\n  0x02\n  add\n    /* \"contracts/forum.sol\":4701:4706  post2 */\n  dup8\n    /* \"contracts/forum.sol\":4701:4714  post2.content */\n  0x01\n  add\n    /* \"contracts/forum.sol\":4653:4715  PostCreated(postCount, post2.author, post2.tag, post2.content) */\n  mload(0x40)\n  tag_22\n  swap3\n  swap2\n  swap1\n  tag_10\n  jump\t// in\ntag_22:\n  mload(0x40)\n  dup1\n  swap2\n  sub\n  swap1\n  log3\n    /* \"contracts/forum.sol\":4757:4765  comment2 */\n  dup3\n    /* \"contracts/forum.sol\":4757:4772  comment2.author */\n  0x00\n  add\n  0x00\n  swap1\n  sload\n  swap1\n  0x0100\n  exp\n  swap1\n  div\n  0xffffffffffffffffffffffffffffffffffffffff\n  and\n    /* \"contracts/forum.sol\":4730:4805  CommentAdded(postCount, 1, comment2.author, comment2.content, comment2.tag) */\n  0xffffffffffffffffffffffffffffffffffffffff\n  and\n    /* \"contracts/forum.sol\":4754:4755  1 */\n  0x01\n    /* \"contracts/forum.sol\":4743:4752  postCount */\n  dup1\n  sload\n    /* \"contracts/forum.sol\":4730:4805  CommentAdded(postCount, 1, comment2.author, comment2.content, comment2.tag) */\n  0x03a56e2377acf256c15a50f0b97834fa29a151d0b8a6d05c450576e40634fadc\n    /* \"contracts/forum.sol\":4774:4782  comment2 */\n  dup7\n    /* \"contracts/forum.sol\":4774:4790  comment2.content */\n  0x01\n  add\n    /* \"contracts/forum.sol\":4792:4800  comment2 */\n  dup8\n    /* \"contracts/forum.sol\":4792:4804  comment2.tag */\n  0x02\n  add\n    /* \"contracts/forum.sol\":4730:4805  CommentAdded(postCount, 1, comment2.author, comment2.content, comment2.tag) */\n  mload(0x40)\n  tag_23\n  swap3\n  swap2\n  swap1\n  tag_10\n  jump\t// in\ntag_23:\n  mload(0x40)\n  dup1\n  swap2\n  sub\n  swap1\n  log4\n    /* \"contracts/forum.sol\":4847:4857  comment2_2 */\n  dup2\n    /* \"contracts/forum.sol\":4847:4864  comment2_2.author */\n  0x00\n  add\n  0x00\n  swap1\n  sload\n  swap1\n  0x0100\n  exp\n  swap1\n  div\n  0xffffffffffffffffffffffffffffffffffffffff\n  and\n    /* \"contracts/forum.sol\":4820:4901  CommentAdded(postCount, 2, comment2_2.author, comment2_2.content, comment2_2.tag) */\n  0xffffffffffffffffffffffffffffffffffffffff\n  and\n    /* \"contracts/forum.sol\":4844:4845  2 */\n  0x02\n    /* \"contracts/forum.sol\":4833:4842  postCount */\n  sload(0x01)\n    /* \"contracts/forum.sol\":4820:4901  CommentAdded(postCount, 2, comment2_2.author, comment2_2.content, comment2_2.tag) */\n  0x03a56e2377acf256c15a50f0b97834fa29a151d0b8a6d05c450576e40634fadc\n    /* \"contracts/forum.sol\":4866:4876  comment2_2 */\n  dup6\n    /* \"contracts/forum.sol\":4866:4884  comment2_2.content */\n  0x01\n  add\n    /* \"contracts/forum.sol\":4886:4896  comment2_2 */\n  dup7\n    /* \"contracts/forum.sol\":4886:4900  comment2_2.tag */\n  0x02\n  add\n    /* \"contracts/forum.sol\":4820:4901  CommentAdded(postCount, 2, comment2_2.author, comment2_2.content, comment2_2.tag) */\n  mload(0x40)\n  tag_24\n  swap3\n  swap2\n  swap1\n  tag_10\n  jump\t// in\ntag_24:\n  mload(0x40)\n  dup1\n  swap2\n  sub\n  swap1\n  log4\n    /* \"contracts/forum.sol\":4943:4953  comment2_3 */\n  dup1\n    /* \"contracts/forum.sol\":4943:4960  comment2_3.author */\n  0x00\n  add\n  0x00\n  swap1\n  sload\n  swap1\n  0x0100\n  exp\n  swap1\n  div\n  0xffffffffffffffffffffffffffffffffffffffff\n  and\n    /* \"contracts/forum.sol\":4916:4997  CommentAdded(postCount, 3, comment2_3.author, comment2_3.content, comment2_3.tag) */\n  0xffffffffffffffffffffffffffffffffffffffff\n  and\n    /* \"contracts/forum.sol\":4940:4941  3 */\n  0x03\n    /* \"contracts/forum.sol\":4929:4938  postCount */\n  sload(0x01)\n    /* \"contracts/forum.sol\":4916:4997  CommentAdded(postCount, 3, comment2_3.author, comment2_3.content, comment2_3.tag) */\n  0x03a56e2377acf256c15a50f0b97834fa29a151d0b8a6d05c450576e40634fadc\n    /* \"contracts/forum.sol\":4962:4972  comment2_3 */\n  dup5\n    /* \"contracts/forum.sol\":4962:4980  comment2_3.content */\n  0x01\n  add\n    /* \"contracts/forum.sol\":4982:4992  comment2_3 */\n  dup6\n    /* \"contracts/forum.sol\":4982:4996  comment2_3.tag */\n  0x02\n  add\n    /* \"contracts/forum.sol\":4916:4997  CommentAdded(postCount, 3, comment2_3.author, comment2_3.content, comment2_3.tag) */\n  mload(0x40)\n  tag_25\n  swap3\n  swap2\n  swap1\n  tag_10\n  jump\t// in\ntag_25:\n  mload(0x40)\n  dup1\n  swap2\n  sub\n  swap1\n  log4\n    /* \"contracts/forum.sol\":5096:5105  postCount */\n  0x01\n  0x00\n    /* \"contracts/forum.sol\":5096:5107  postCount++ */\n  dup2\n  sload\n  dup1\n  swap3\n  swap2\n  swap1\n  tag_26\n  swap1\n  tag_13\n  jump\t// in\ntag_26:\n  swap2\n  swap1\n  pop\n  sstore\n  pop\n    /* \"contracts/forum.sol\":5117:5135  Post storage post3 */\n  0x00\n    /* \"contracts/forum.sol\":5138:5143  posts */\n  dup1\n    /* \"contracts/forum.sol\":5138:5154  posts[postCount] */\n  0x00\n    /* \"contracts/forum.sol\":5144:5153  postCount */\n  sload(0x01)\n    /* \"contracts/forum.sol\":5138:5154  posts[postCount] */\n  dup2\n  mstore\n  0x20\n  add\n  swap1\n  dup2\n  mstore\n  0x20\n  add\n  0x00\n  keccak256\n    /* \"contracts/forum.sol\":5117:5154  Post storage post3 = posts[postCount] */\n  swap1\n  pop\n    /* \"contracts/forum.sol\":5179:5221  0x4511277f98BA4282705Da1c250110E24Aa2f88a2 */\n  0x4511277f98ba4282705da1c250110e24aa2f88a2\n    /* \"contracts/forum.sol\":5164:5169  post3 */\n  dup2\n    /* \"contracts/forum.sol\":5164:5176  post3.author */\n  0x00\n  add\n  0x00\n    /* \"contracts/forum.sol\":5164:5221  post3.author = 0x4511277f98BA4282705Da1c250110E24Aa2f88a2 */\n  0x0100\n  exp\n  dup2\n  sload\n  dup2\n  0xffffffffffffffffffffffffffffffffffffffff\n  mul\n  not\n  and\n  swap1\n  dup4\n  0xffffffffffffffffffffffffffffffffffffffff\n  and\n  mul\n  or\n  swap1\n  sstore\n  pop\n    /* \"contracts/forum.sol\":5232:5316  post3.content = \"The escalator outside CYT is broken again! Please fix it urgently!\" */\n  mload(0x40)\n  dup1\n  0x80\n  add\n  0x40\n  mstore\n  dup1\n  0x42\n  dup2\n  mstore\n  0x20\n  add\n  data_662f9e819c0ec1a67b4a86892f28f9af57a2c566121d6e8707b10c6df7847a0e\n  0x42\n  swap2\n  codecopy\n    /* \"contracts/forum.sol\":5232:5237  post3 */\n  dup2\n    /* \"contracts/forum.sol\":5232:5245  post3.content */\n  0x01\n  add\n    /* \"contracts/forum.sol\":5232:5316  post3.content = \"The escalator outside CYT is broken again! Please fix it urgently!\" */\n  swap1\n  dup2\n  tag_27\n  swap2\n  swap1\n  tag_5\n  jump\t// in\ntag_27:\n  pop\n    /* \"contracts/forum.sol\":5326:5347  post3.tag = \"student\" */\n  mload(0x40)\n  dup1\n  0x40\n  add\n  0x40\n  mstore\n  dup1\n  0x07\n  dup2\n  mstore\n  0x20\n  add\n  0x73747564656e7400000000000000000000000000000000000000000000000000\n  dup2\n  mstore\n  pop\n    /* \"contracts/forum.sol\":5326:5331  post3 */\n  dup2\n    /* \"contracts/forum.sol\":5326:5335  post3.tag */\n  0x02\n  add\n    /* \"contracts/forum.sol\":5326:5347  post3.tag = \"student\" */\n  swap1\n  dup2\n  tag_28\n  swap2\n  swap1\n  tag_5\n  jump\t// in\ntag_28:\n  pop\n    /* \"contracts/forum.sol\":5429:5439  1747098876 */\n  0x68229cfc\n    /* \"contracts/forum.sol\":5411:5416  post3 */\n  dup2\n    /* \"contracts/forum.sol\":5411:5426  post3.timestamp */\n  0x03\n  add\n    /* \"contracts/forum.sol\":5411:5439  post3.timestamp = 1747098876 */\n  dup2\n  swap1\n  sstore\n  pop\n    /* \"contracts/forum.sol\":5474:5479  false */\n  0x00\n    /* \"contracts/forum.sol\":5450:5455  post3 */\n  dup2\n    /* \"contracts/forum.sol\":5450:5471  post3.isTagChallenged */\n  0x04\n  add\n  0x00\n    /* \"contracts/forum.sol\":5450:5479  post3.isTagChallenged = false */\n  0x0100\n  exp\n  dup2\n  sload\n  dup2\n  0xff\n  mul\n  not\n  and\n  swap1\n  dup4\n  iszero\n  iszero\n  mul\n  or\n  swap1\n  sstore\n  pop\n    /* \"contracts/forum.sol\":5507:5508  0 */\n  0x00\n    /* \"contracts/forum.sol\":5489:5494  post3 */\n  dup2\n    /* \"contracts/forum.sol\":5489:5504  post3.realVotes */\n  0x05\n  add\n    /* \"contracts/forum.sol\":5489:5508  post3.realVotes = 0 */\n  dup2\n  swap1\n  sstore\n  pop\n    /* \"contracts/forum.sol\":5537:5538  0 */\n  0x00\n    /* \"contracts/forum.sol\":5518:5523  post3 */\n  dup2\n    /* \"contracts/forum.sol\":5518:5534  post3.fakerVotes */\n  0x06\n  add\n    /* \"contracts/forum.sol\":5518:5538  post3.fakerVotes = 0 */\n  dup2\n  swap1\n  sstore\n  pop\n    /* \"contracts/forum.sol\":5569:5570  2 */\n  0x02\n    /* \"contracts/forum.sol\":5548:5553  post3 */\n  dup2\n    /* \"contracts/forum.sol\":5548:5566  post3.commentCount */\n  0x08\n  add\n    /* \"contracts/forum.sol\":5548:5570  post3.commentCount = 2 */\n  dup2\n  swap1\n  sstore\n  pop\n    /* \"contracts/forum.sol\":5640:5664  Comment storage comment3 */\n  0x00\n    /* \"contracts/forum.sol\":5667:5675  comments */\n  0x02\n    /* \"contracts/forum.sol\":5667:5686  comments[postCount] */\n  0x00\n    /* \"contracts/forum.sol\":5676:5685  postCount */\n  sload(0x01)\n    /* \"contracts/forum.sol\":5667:5686  comments[postCount] */\n  dup2\n  mstore\n  0x20\n  add\n  swap1\n  dup2\n  mstore\n  0x20\n  add\n  0x00\n  keccak256\n    /* \"contracts/forum.sol\":5667:5689  comments[postCount][1] */\n  0x00\n    /* \"contracts/forum.sol\":5687:5688  1 */\n  0x01\n    /* \"contracts/forum.sol\":5667:5689  comments[postCount][1] */\n  dup2\n  mstore\n  0x20\n  add\n  swap1\n  dup2\n  mstore\n  0x20\n  add\n  0x00\n  keccak256\n    /* \"contracts/forum.sol\":5640:5689  Comment storage comment3 = comments[postCount][1] */\n  swap1\n  pop\n    /* \"contracts/forum.sol\":5717:5759  0x3fC91A3afd70395Cd496C647d5a6CC9D4B2b7FAD */\n  0x3fc91a3afd70395cd496c647d5a6cc9d4b2b7fad\n    /* \"contracts/forum.sol\":5699:5707  comment3 */\n  dup2\n    /* \"contracts/forum.sol\":5699:5714  comment3.author */\n  0x00\n  add\n  0x00\n    /* \"contracts/forum.sol\":5699:5759  comment3.author = 0x3fC91A3afd70395Cd496C647d5a6CC9D4B2b7FAD */\n  0x0100\n  exp\n  dup2\n  sload\n  dup2\n  0xffffffffffffffffffffffffffffffffffffffff\n  mul\n  not\n  and\n  swap1\n  dup4\n  0xffffffffffffffffffffffffffffffffffffffff\n  and\n  mul\n  or\n  swap1\n  sstore\n  pop\n    /* \"contracts/forum.sol\":5805:5903  comment3.content = \"Thank you for reporting this issue. We'll send a maintenance team right away.\" */\n  mload(0x40)\n  dup1\n  0x80\n  add\n  0x40\n  mstore\n  dup1\n  0x4d\n  dup2\n  mstore\n  0x20\n  add\n  data_f91a2c705d04979d9b7b4f9891b6f77a768e3aed826646fb07790d0edb5497ef\n  0x4d\n  swap2\n  codecopy\n    /* \"contracts/forum.sol\":5805:5813  comment3 */\n  dup2\n    /* \"contracts/forum.sol\":5805:5821  comment3.content */\n  0x01\n  add\n    /* \"contracts/forum.sol\":5805:5903  comment3.content = \"Thank you for reporting this issue. We'll send a maintenance team right away.\" */\n  swap1\n  dup2\n  tag_29\n  swap2\n  swap1\n  tag_5\n  jump\t// in\ntag_29:\n  pop\n    /* \"contracts/forum.sol\":5913:5935  comment3.tag = \"staff\" */\n  mload(0x40)\n  dup1\n  0x40\n  add\n  0x40\n  mstore\n  dup1\n  0x05\n  dup2\n  mstore\n  0x20\n  add\n  0x7374616666000000000000000000000000000000000000000000000000000000\n  dup2\n  mstore\n  pop\n    /* \"contracts/forum.sol\":5913:5921  comment3 */\n  dup2\n    /* \"contracts/forum.sol\":5913:5925  comment3.tag */\n  0x02\n  add\n    /* \"contracts/forum.sol\":5913:5935  comment3.tag = \"staff\" */\n  swap1\n  dup2\n  tag_30\n  swap2\n  swap1\n  tag_5\n  jump\t// in\ntag_30:\n  pop\n    /* \"contracts/forum.sol\":6018:6028  1747099000 */\n  0x68229d78\n    /* \"contracts/forum.sol\":5997:6005  comment3 */\n  dup2\n    /* \"contracts/forum.sol\":5997:6015  comment3.timestamp */\n  0x03\n  add\n    /* \"contracts/forum.sol\":5997:6028  comment3.timestamp = 1747099000 */\n  dup2\n  swap1\n  sstore\n  pop\n    /* \"contracts/forum.sol\":6128:6154  Comment storage comment3_2 */\n  0x00\n    /* \"contracts/forum.sol\":6157:6165  comments */\n  0x02\n    /* \"contracts/forum.sol\":6157:6176  comments[postCount] */\n  0x00\n    /* \"contracts/forum.sol\":6166:6175  postCount */\n  sload(0x01)\n    /* \"contracts/forum.sol\":6157:6176  comments[postCount] */\n  dup2\n  mstore\n  0x20\n  add\n  swap1\n  dup2\n  mstore\n  0x20\n  add\n  0x00\n  keccak256\n    /* \"contracts/forum.sol\":6157:6179  comments[postCount][2] */\n  0x00\n    /* \"contracts/forum.sol\":6177:6178  2 */\n  0x02\n    /* \"contracts/forum.sol\":6157:6179  comments[postCount][2] */\n  dup2\n  mstore\n  0x20\n  add\n  swap1\n  dup2\n  mstore\n  0x20\n  add\n  0x00\n  keccak256\n    /* \"contracts/forum.sol\":6128:6179  Comment storage comment3_2 = comments[postCount][2] */\n  swap1\n  pop\n    /* \"contracts/forum.sol\":6209:6251  0xa983d7E14AC1aAf050bb64Fdab1024ae9c93c956 */\n  0xa983d7e14ac1aaf050bb64fdab1024ae9c93c956\n    /* \"contracts/forum.sol\":6189:6199  comment3_2 */\n  dup2\n    /* \"contracts/forum.sol\":6189:6206  comment3_2.author */\n  0x00\n  add\n  0x00\n    /* \"contracts/forum.sol\":6189:6251  comment3_2.author = 0xa983d7E14AC1aAf050bb64Fdab1024ae9c93c956 */\n  0x0100\n  exp\n  dup2\n  sload\n  dup2\n  0xffffffffffffffffffffffffffffffffffffffff\n  mul\n  not\n  and\n  swap1\n  dup4\n  0xffffffffffffffffffffffffffffffffffffffff\n  and\n  mul\n  or\n  swap1\n  sstore\n  pop\n    /* \"contracts/forum.sol\":6261:6362  comment3_2.content = \"Thank you to the staff for the quick response! This has been an ongoing issue.\" */\n  mload(0x40)\n  dup1\n  0x80\n  add\n  0x40\n  mstore\n  dup1\n  0x4e\n  dup2\n  mstore\n  0x20\n  add\n  data_91dcfb7d7a085b9f8b5d17c4e0a5ce16333bb6d86ea07f0a4b8f440ad6622dfd\n  0x4e\n  swap2\n  codecopy\n    /* \"contracts/forum.sol\":6261:6271  comment3_2 */\n  dup2\n    /* \"contracts/forum.sol\":6261:6279  comment3_2.content */\n  0x01\n  add\n    /* \"contracts/forum.sol\":6261:6362  comment3_2.content = \"Thank you to the staff for the quick response! This has been an ongoing issue.\" */\n  swap1\n  dup2\n  tag_31\n  swap2\n  swap1\n  tag_5\n  jump\t// in\ntag_31:\n  pop\n    /* \"contracts/forum.sol\":6372:6400  comment3_2.tag = \"professor\" */\n  mload(0x40)\n  dup1\n  0x40\n  add\n  0x40\n  mstore\n  dup1\n  0x09\n  dup2\n  mstore\n  0x20\n  add\n  0x70726f666573736f720000000000000000000000000000000000000000000000\n  dup2\n  mstore\n  pop\n    /* \"contracts/forum.sol\":6372:6382  comment3_2 */\n  dup2\n    /* \"contracts/forum.sol\":6372:6386  comment3_2.tag */\n  0x02\n  add\n    /* \"contracts/forum.sol\":6372:6400  comment3_2.tag = \"professor\" */\n  swap1\n  dup2\n  tag_32\n  swap2\n  swap1\n  tag_5\n  jump\t// in\ntag_32:\n  pop\n    /* \"contracts/forum.sol\":6433:6443  1746882408 */\n  0x681f4f68\n    /* \"contracts/forum.sol\":6410:6420  comment3_2 */\n  dup2\n    /* \"contracts/forum.sol\":6410:6430  comment3_2.timestamp */\n  0x03\n  add\n    /* \"contracts/forum.sol\":6410:6443  comment3_2.timestamp = 1746882408 */\n  dup2\n  swap1\n  sstore\n  pop\n    /* \"contracts/forum.sol\":6482:6487  post3 */\n  dup3\n    /* \"contracts/forum.sol\":6482:6494  post3.author */\n  0x00\n  add\n  0x00\n  swap1\n  sload\n  swap1\n  0x0100\n  exp\n  swap1\n  div\n  0xffffffffffffffffffffffffffffffffffffffff\n  and\n    /* \"contracts/forum.sol\":6459:6521  PostCreated(postCount, post3.author, post3.tag, post3.content) */\n  0xffffffffffffffffffffffffffffffffffffffff\n  and\n    /* \"contracts/forum.sol\":6471:6480  postCount */\n  sload(0x01)\n    /* \"contracts/forum.sol\":6459:6521  PostCreated(postCount, post3.author, post3.tag, post3.content) */\n  0x5475621b07408f75d49c828caa5aeacb3a5e98d3497e75730dc184677504401c\n    /* \"contracts/forum.sol\":6496:6501  post3 */\n  dup6\n    /* \"contracts/forum.sol\":6496:6505  post3.tag */\n  0x02\n  add\n    /* \"contracts/forum.sol\":6507:6512  post3 */\n  dup7\n    /* \"contracts/forum.sol\":6507:6520  post3.content */\n  0x01\n  add\n    /* \"contracts/forum.sol\":6459:6521  PostCreated(postCount, post3.author, post3.tag, post3.content) */\n  mload(0x40)\n  tag_33\n  swap3\n  swap2\n  swap1\n  tag_10\n  jump\t// in\ntag_33:\n  mload(0x40)\n  dup1\n  swap2\n  sub\n  swap1\n  log3\n    /* \"contracts/forum.sol\":6563:6571  comment3 */\n  dup2\n    /* \"contracts/forum.sol\":6563:6578  comment3.author */\n  0x00\n  add\n  0x00\n  swap1\n  sload\n  swap1\n  0x0100\n  exp\n  swap1\n  div\n  0xffffffffffffffffffffffffffffffffffffffff\n  and\n    /* \"contracts/forum.sol\":6536:6611  CommentAdded(postCount, 1, comment3.author, comment3.content, comment3.tag) */\n  0xffffffffffffffffffffffffffffffffffffffff\n  and\n    /* \"contracts/forum.sol\":6560:6561  1 */\n  0x01\n    /* \"contracts/forum.sol\":6549:6558  postCount */\n  dup1\n  sload\n    /* \"contracts/forum.sol\":6536:6611  CommentAdded(postCount, 1, comment3.author, comment3.content, comment3.tag) */\n  0x03a56e2377acf256c15a50f0b97834fa29a151d0b8a6d05c450576e40634fadc\n    /* \"contracts/forum.sol\":6580:6588  comment3 */\n  dup6\n    /* \"contracts/forum.sol\":6580:6596  comment3.content */\n  0x01\n  add\n    /* \"contracts/forum.sol\":6598:6606  comment3 */\n  dup7\n    /* \"contracts/forum.sol\":6598:6610  comment3.tag */\n  0x02\n  add\n    /* \"contracts/forum.sol\":6536:6611  CommentAdded(postCount, 1, comment3.author, comment3.content, comment3.tag) */\n  mload(0x40)\n  tag_34\n  swap3\n  swap2\n  swap1\n  tag_10\n  jump\t// in\ntag_34:\n  mload(0x40)\n  dup1\n  swap2\n  sub\n  swap1\n  log4\n    /* \"contracts/forum.sol\":6653:6663  comment3_2 */\n  dup1\n    /* \"contracts/forum.sol\":6653:6670  comment3_2.author */\n  0x00\n  add\n  0x00\n  swap1\n  sload\n  swap1\n  0x0100\n  exp\n  swap1\n  div\n  0xffffffffffffffffffffffffffffffffffffffff\n  and\n    /* \"contracts/forum.sol\":6626:6707  CommentAdded(postCount, 2, comment3_2.author, comment3_2.content, comment3_2.tag) */\n  0xffffffffffffffffffffffffffffffffffffffff\n  and\n    /* \"contracts/forum.sol\":6650:6651  2 */\n  0x02\n    /* \"contracts/forum.sol\":6639:6648  postCount */\n  sload(0x01)\n    /* \"contracts/forum.sol\":6626:6707  CommentAdded(postCount, 2, comment3_2.author, comment3_2.content, comment3_2.tag) */\n  0x03a56e2377acf256c15a50f0b97834fa29a151d0b8a6d05c450576e40634fadc\n    /* \"contracts/forum.sol\":6672:6682  comment3_2 */\n  dup5\n    /* \"contracts/forum.sol\":6672:6690  comment3_2.content */\n  0x01\n  add\n    /* \"contracts/forum.sol\":6692:6702  comment3_2 */\n  dup6\n    /* \"contracts/forum.sol\":6692:6706  comment3_2.tag */\n  0x02\n  add\n    /* \"contracts/forum.sol\":6626:6707  CommentAdded(postCount, 2, comment3_2.author, comment3_2.content, comment3_2.tag) */\n  mload(0x40)\n  tag_35\n  swap3\n  swap2\n  swap1\n  tag_10\n  jump\t// in\ntag_35:\n  mload(0x40)\n  dup1\n  swap2\n  sub\n  swap1\n  log4\n    /* \"contracts/forum.sol\":6805:6814  postCount */\n  0x01\n  0x00\n    /* \"contracts/forum.sol\":6805:6816  postCount++ */\n  dup2\n  sload\n  dup1\n  swap3\n  swap2\n  swap1\n  tag_36\n  swap1\n  tag_13\n  jump\t// in\ntag_36:\n  swap2\n  swap1\n  pop\n  sstore\n  pop\n    /* \"contracts/forum.sol\":6826:6844  Post storage post4 */\n  0x00\n    /* \"contracts/forum.sol\":6847:6852  posts */\n  dup1\n    /* \"contracts/forum.sol\":6847:6863  posts[postCount] */\n  0x00\n    /* \"contracts/forum.sol\":6853:6862  postCount */\n  sload(0x01)\n    /* \"contracts/forum.sol\":6847:6863  posts[postCount] */\n  dup2\n  mstore\n  0x20\n  add\n  swap1\n  dup2\n  mstore\n  0x20\n  add\n  0x00\n  keccak256\n    /* \"contracts/forum.sol\":6826:6863  Post storage post4 = posts[postCount] */\n  swap1\n  pop\n    /* \"contracts/forum.sol\":6888:6930  0x78731D3Ca6b7E34aC0F824c42a7cC18A495cabaB */\n  0x78731d3ca6b7e34ac0f824c42a7cc18a495cabab\n    /* \"contracts/forum.sol\":6873:6878  post4 */\n  dup2\n    /* \"contracts/forum.sol\":6873:6885  post4.author */\n  0x00\n  add\n  0x00\n    /* \"contracts/forum.sol\":6873:6930  post4.author = 0x78731D3Ca6b7E34aC0F824c42a7cC18A495cabaB */\n  0x0100\n  exp\n  dup2\n  sload\n  dup2\n  0xffffffffffffffffffffffffffffffffffffffff\n  mul\n  not\n  and\n  swap1\n  dup4\n  0xffffffffffffffffffffffffffffffffffffffff\n  and\n  mul\n  or\n  swap1\n  sstore\n  pop\n    /* \"contracts/forum.sol\":6941:6995  post4.content = \"When will LG1 open new meal options?\" */\n  mload(0x40)\n  dup1\n  0x60\n  add\n  0x40\n  mstore\n  dup1\n  0x24\n  dup2\n  mstore\n  0x20\n  add\n  data_7a88afac954be152cbdd746c103c09b6bbbaac92bf6b79edf0e92bb32febcb00\n  0x24\n  swap2\n  codecopy\n    /* \"contracts/forum.sol\":6941:6946  post4 */\n  dup2\n    /* \"contracts/forum.sol\":6941:6954  post4.content */\n  0x01\n  add\n    /* \"contracts/forum.sol\":6941:6995  post4.content = \"When will LG1 open new meal options?\" */\n  swap1\n  dup2\n  tag_37\n  swap2\n  swap1\n  tag_5\n  jump\t// in\ntag_37:\n  pop\n    /* \"contracts/forum.sol\":7005:7024  post4.tag = \"staff\" */\n  mload(0x40)\n  dup1\n  0x40\n  add\n  0x40\n  mstore\n  dup1\n  0x05\n  dup2\n  mstore\n  0x20\n  add\n  0x7374616666000000000000000000000000000000000000000000000000000000\n  dup2\n  mstore\n  pop\n    /* \"contracts/forum.sol\":7005:7010  post4 */\n  dup2\n    /* \"contracts/forum.sol\":7005:7014  post4.tag */\n  0x02\n  add\n    /* \"contracts/forum.sol\":7005:7024  post4.tag = \"staff\" */\n  swap1\n  dup2\n  tag_38\n  swap2\n  swap1\n  tag_5\n  jump\t// in\ntag_38:\n  pop\n    /* \"contracts/forum.sol\":7107:7117  1746886600 */\n  0x681f5fc8\n    /* \"contracts/forum.sol\":7089:7094  post4 */\n  dup2\n    /* \"contracts/forum.sol\":7089:7104  post4.timestamp */\n  0x03\n  add\n    /* \"contracts/forum.sol\":7089:7117  post4.timestamp = 1746886600 */\n  dup2\n  swap1\n  sstore\n  pop\n    /* \"contracts/forum.sol\":7152:7156  true */\n  0x01\n    /* \"contracts/forum.sol\":7128:7133  post4 */\n  dup2\n    /* \"contracts/forum.sol\":7128:7149  post4.isTagChallenged */\n  0x04\n  add\n  0x00\n    /* \"contracts/forum.sol\":7128:7156  post4.isTagChallenged = true */\n  0x0100\n  exp\n  dup2\n  sload\n  dup2\n  0xff\n  mul\n  not\n  and\n  swap1\n  dup4\n  iszero\n  iszero\n  mul\n  or\n  swap1\n  sstore\n  pop\n    /* \"contracts/forum.sol\":7184:7185  0 */\n  0x00\n    /* \"contracts/forum.sol\":7166:7171  post4 */\n  dup2\n    /* \"contracts/forum.sol\":7166:7181  post4.realVotes */\n  0x05\n  add\n    /* \"contracts/forum.sol\":7166:7185  post4.realVotes = 0 */\n  dup2\n  swap1\n  sstore\n  pop\n    /* \"contracts/forum.sol\":7214:7215  3 */\n  0x03\n    /* \"contracts/forum.sol\":7195:7200  post4 */\n  dup2\n    /* \"contracts/forum.sol\":7195:7211  post4.fakerVotes */\n  0x06\n  add\n    /* \"contracts/forum.sol\":7195:7215  post4.fakerVotes = 3 */\n  dup2\n  swap1\n  sstore\n  pop\n    /* \"contracts/forum.sol\":7246:7247  3 */\n  0x03\n    /* \"contracts/forum.sol\":7225:7230  post4 */\n  dup2\n    /* \"contracts/forum.sol\":7225:7243  post4.commentCount */\n  0x08\n  add\n    /* \"contracts/forum.sol\":7225:7247  post4.commentCount = 3 */\n  dup2\n  swap1\n  sstore\n  pop\n    /* \"contracts/forum.sol\":7319:7343  Comment storage comment4 */\n  0x00\n    /* \"contracts/forum.sol\":7346:7354  comments */\n  0x02\n    /* \"contracts/forum.sol\":7346:7365  comments[postCount] */\n  0x00\n    /* \"contracts/forum.sol\":7355:7364  postCount */\n  sload(0x01)\n    /* \"contracts/forum.sol\":7346:7365  comments[postCount] */\n  dup2\n  mstore\n  0x20\n  add\n  swap1\n  dup2\n  mstore\n  0x20\n  add\n  0x00\n  keccak256\n    /* \"contracts/forum.sol\":7346:7368  comments[postCount][1] */\n  0x00\n    /* \"contracts/forum.sol\":7366:7367  1 */\n  0x01\n    /* \"contracts/forum.sol\":7346:7368  comments[postCount][1] */\n  dup2\n  mstore\n  0x20\n  add\n  swap1\n  dup2\n  mstore\n  0x20\n  add\n  0x00\n  keccak256\n    /* \"contracts/forum.sol\":7319:7368  Comment storage comment4 = comments[postCount][1] */\n  swap1\n  pop\n    /* \"contracts/forum.sol\":7396:7438  0x5B38Da6a701c568545dCfcB03FcB875f56beddC4 */\n  0x5b38da6a701c568545dcfcb03fcb875f56beddc4\n    /* \"contracts/forum.sol\":7378:7386  comment4 */\n  dup2\n    /* \"contracts/forum.sol\":7378:7393  comment4.author */\n  0x00\n  add\n  0x00\n    /* \"contracts/forum.sol\":7378:7438  comment4.author = 0x5B38Da6a701c568545dCfcB03FcB875f56beddC4 */\n  0x0100\n  exp\n  dup2\n  sload\n  dup2\n  0xffffffffffffffffffffffffffffffffffffffff\n  mul\n  not\n  and\n  swap1\n  dup4\n  0xffffffffffffffffffffffffffffffffffffffff\n  and\n  mul\n  or\n  swap1\n  sstore\n  pop\n    /* \"contracts/forum.sol\":7448:7537  comment4.content = \"This person is not staff. I've seen them around campus as a student.\" */\n  mload(0x40)\n  dup1\n  0x80\n  add\n  0x40\n  mstore\n  dup1\n  0x44\n  dup2\n  mstore\n  0x20\n  add\n  data_02e58dd3eebd38f210a1fb6f7cc104b23d2847f62f5af3f457e47c29f1d50835\n  0x44\n  swap2\n  codecopy\n    /* \"contracts/forum.sol\":7448:7456  comment4 */\n  dup2\n    /* \"contracts/forum.sol\":7448:7464  comment4.content */\n  0x01\n  add\n    /* \"contracts/forum.sol\":7448:7537  comment4.content = \"This person is not staff. I've seen them around campus as a student.\" */\n  swap1\n  dup2\n  tag_39\n  swap2\n  swap1\n  tag_5\n  jump\t// in\ntag_39:\n  pop\n    /* \"contracts/forum.sol\":7547:7571  comment4.tag = \"student\" */\n  mload(0x40)\n  dup1\n  0x40\n  add\n  0x40\n  mstore\n  dup1\n  0x07\n  dup2\n  mstore\n  0x20\n  add\n  0x73747564656e7400000000000000000000000000000000000000000000000000\n  dup2\n  mstore\n  pop\n    /* \"contracts/forum.sol\":7547:7555  comment4 */\n  dup2\n    /* \"contracts/forum.sol\":7547:7559  comment4.tag */\n  0x02\n  add\n    /* \"contracts/forum.sol\":7547:7571  comment4.tag = \"student\" */\n  swap1\n  dup2\n  tag_40\n  swap2\n  swap1\n  tag_5\n  jump\t// in\ntag_40:\n  pop\n    /* \"contracts/forum.sol\":7602:7612  1746887700 */\n  0x681f6414\n    /* \"contracts/forum.sol\":7581:7589  comment4 */\n  dup2\n    /* \"contracts/forum.sol\":7581:7599  comment4.timestamp */\n  0x03\n  add\n    /* \"contracts/forum.sol\":7581:7612  comment4.timestamp = 1746887700 */\n  dup2\n  swap1\n  sstore\n  pop\n    /* \"contracts/forum.sol\":7716:7742  Comment storage comment4_2 */\n  0x00\n    /* \"contracts/forum.sol\":7745:7753  comments */\n  0x02\n    /* \"contracts/forum.sol\":7745:7764  comments[postCount] */\n  0x00\n    /* \"contracts/forum.sol\":7754:7763  postCount */\n  sload(0x01)\n    /* \"contracts/forum.sol\":7745:7764  comments[postCount] */\n  dup2\n  mstore\n  0x20\n  add\n  swap1\n  dup2\n  mstore\n  0x20\n  add\n  0x00\n  keccak256\n    /* \"contracts/forum.sol\":7745:7767  comments[postCount][2] */\n  0x00\n    /* \"contracts/forum.sol\":7765:7766  2 */\n  0x02\n    /* \"contracts/forum.sol\":7745:7767  comments[postCount][2] */\n  dup2\n  mstore\n  0x20\n  add\n  swap1\n  dup2\n  mstore\n  0x20\n  add\n  0x00\n  keccak256\n    /* \"contracts/forum.sol\":7716:7767  Comment storage comment4_2 = comments[postCount][2] */\n  swap1\n  pop\n    /* \"contracts/forum.sol\":7797:7839  0x617F2E2fD72FD9D5503197092aC168c91465E7f2 */\n  0x617f2e2fd72fd9d5503197092ac168c91465e7f2\n    /* \"contracts/forum.sol\":7777:7787  comment4_2 */\n  dup2\n    /* \"contracts/forum.sol\":7777:7794  comment4_2.author */\n  0x00\n  add\n  0x00\n    /* \"contracts/forum.sol\":7777:7839  comment4_2.author = 0x617F2E2fD72FD9D5503197092aC168c91465E7f2 */\n  0x0100\n  exp\n  dup2\n  sload\n  dup2\n  0xffffffffffffffffffffffffffffffffffffffff\n  mul\n  not\n  and\n  swap1\n  dup4\n  0xffffffffffffffffffffffffffffffffffffffff\n  and\n  mul\n  or\n  swap1\n  sstore\n  pop\n    /* \"contracts/forum.sol\":7849:7927  comment4_2.content = \"I agree, definitely not staff. Voting fake on this one.\" */\n  mload(0x40)\n  dup1\n  0x60\n  add\n  0x40\n  mstore\n  dup1\n  0x37\n  dup2\n  mstore\n  0x20\n  add\n  data_c626309a2b2d0d2f31e3c3b6d36266f67d4204939e266901cbf28ee624e6e2d0\n  0x37\n  swap2\n  codecopy\n    /* \"contracts/forum.sol\":7849:7859  comment4_2 */\n  dup2\n    /* \"contracts/forum.sol\":7849:7867  comment4_2.content */\n  0x01\n  add\n    /* \"contracts/forum.sol\":7849:7927  comment4_2.content = \"I agree, definitely not staff. Voting fake on this one.\" */\n  swap1\n  dup2\n  tag_41\n  swap2\n  swap1\n  tag_5\n  jump\t// in\ntag_41:\n  pop\n    /* \"contracts/forum.sol\":7937:7963  comment4_2.tag = \"student\" */\n  mload(0x40)\n  dup1\n  0x40\n  add\n  0x40\n  mstore\n  dup1\n  0x07\n  dup2\n  mstore\n  0x20\n  add\n  0x73747564656e7400000000000000000000000000000000000000000000000000\n  dup2\n  mstore\n  pop\n    /* \"contracts/forum.sol\":7937:7947  comment4_2 */\n  dup2\n    /* \"contracts/forum.sol\":7937:7951  comment4_2.tag */\n  0x02\n  add\n    /* \"contracts/forum.sol\":7937:7963  comment4_2.tag = \"student\" */\n  swap1\n  dup2\n  tag_42\n  swap2\n  swap1\n  tag_5\n  jump\t// in\ntag_42:\n  pop\n    /* \"contracts/forum.sol\":7996:8006  1746888800 */\n  0x681f6860\n    /* \"contracts/forum.sol\":7973:7983  comment4_2 */\n  dup2\n    /* \"contracts/forum.sol\":7973:7993  comment4_2.timestamp */\n  0x03\n  add\n    /* \"contracts/forum.sol\":7973:8006  comment4_2.timestamp = 1746888800 */\n  dup2\n  swap1\n  sstore\n  pop\n    /* \"contracts/forum.sol\":8079:8105  Comment storage comment4_3 */\n  0x00\n    /* \"contracts/forum.sol\":8108:8116  comments */\n  0x02\n    /* \"contracts/forum.sol\":8108:8127  comments[postCount] */\n  0x00\n    /* \"contracts/forum.sol\":8117:8126  postCount */\n  sload(0x01)\n    /* \"contracts/forum.sol\":8108:8127  comments[postCount] */\n  dup2\n  mstore\n  0x20\n  add\n  swap1\n  dup2\n  mstore\n  0x20\n  add\n  0x00\n  keccak256\n    /* \"contracts/forum.sol\":8108:8130  comments[postCount][3] */\n  0x00\n    /* \"contracts/forum.sol\":8128:8129  3 */\n  0x03\n    /* \"contracts/forum.sol\":8108:8130  comments[postCount][3] */\n  dup2\n  mstore\n  0x20\n  add\n  swap1\n  dup2\n  mstore\n  0x20\n  add\n  0x00\n  keccak256\n    /* \"contracts/forum.sol\":8079:8130  Comment storage comment4_3 = comments[postCount][3] */\n  swap1\n  pop\n    /* \"contracts/forum.sol\":8160:8202  0xa983d7E14AC1aAf050bb64Fdab1024ae9c93c956 */\n  0xa983d7e14ac1aaf050bb64fdab1024ae9c93c956\n    /* \"contracts/forum.sol\":8140:8150  comment4_3 */\n  dup2\n    /* \"contracts/forum.sol\":8140:8157  comment4_3.author */\n  0x00\n  add\n  0x00\n    /* \"contracts/forum.sol\":8140:8202  comment4_3.author = 0xa983d7E14AC1aAf050bb64Fdab1024ae9c93c956 */\n  0x0100\n  exp\n  dup2\n  sload\n  dup2\n  0xffffffffffffffffffffffffffffffffffffffff\n  mul\n  not\n  and\n  swap1\n  dup4\n  0xffffffffffffffffffffffffffffffffffffffff\n  and\n  mul\n  or\n  swap1\n  sstore\n  pop\n    /* \"contracts/forum.sol\":8212:8300  comment4_3.content = \"I know this person from my class. They're pretending to be staff!\" */\n  mload(0x40)\n  dup1\n  0x80\n  add\n  0x40\n  mstore\n  dup1\n  0x41\n  dup2\n  mstore\n  0x20\n  add\n  data_1e68f8929c94ca6cc6a530fa9f31e64e97e186c1debb34dac1ba9999420b12a2\n  0x41\n  swap2\n  codecopy\n    /* \"contracts/forum.sol\":8212:8222  comment4_3 */\n  dup2\n    /* \"contracts/forum.sol\":8212:8230  comment4_3.content */\n  0x01\n  add\n    /* \"contracts/forum.sol\":8212:8300  comment4_3.content = \"I know this person from my class. They're pretending to be staff!\" */\n  swap1\n  dup2\n  tag_43\n  swap2\n  swap1\n  tag_5\n  jump\t// in\ntag_43:\n  pop\n    /* \"contracts/forum.sol\":8310:8336  comment4_3.tag = \"student\" */\n  mload(0x40)\n  dup1\n  0x40\n  add\n  0x40\n  mstore\n  dup1\n  0x07\n  dup2\n  mstore\n  0x20\n  add\n  0x73747564656e7400000000000000000000000000000000000000000000000000\n  dup2\n  mstore\n  pop\n    /* \"contracts/forum.sol\":8310:8320  comment4_3 */\n  dup2\n    /* \"contracts/forum.sol\":8310:8324  comment4_3.tag */\n  0x02\n  add\n    /* \"contracts/forum.sol\":8310:8336  comment4_3.tag = \"student\" */\n  swap1\n  dup2\n  tag_44\n  swap2\n  swap1\n  tag_5\n  jump\t// in\ntag_44:\n  pop\n    /* \"contracts/forum.sol\":8369:8379  1746889900 */\n  0x681f6cac\n    /* \"contracts/forum.sol\":8346:8356  comment4_3 */\n  dup2\n    /* \"contracts/forum.sol\":8346:8366  comment4_3.timestamp */\n  0x03\n  add\n    /* \"contracts/forum.sol\":8346:8379  comment4_3.timestamp = 1746889900 */\n  dup2\n  swap1\n  sstore\n  pop\n    /* \"contracts/forum.sol\":8418:8423  post4 */\n  dup4\n    /* \"contracts/forum.sol\":8418:8430  post4.author */\n  0x00\n  add\n  0x00\n  swap1\n  sload\n  swap1\n  0x0100\n  exp\n  swap1\n  div\n  0xffffffffffffffffffffffffffffffffffffffff\n  and\n    /* \"contracts/forum.sol\":8395:8457  PostCreated(postCount, post4.author, post4.tag, post4.content) */\n  0xffffffffffffffffffffffffffffffffffffffff\n  and\n    /* \"contracts/forum.sol\":8407:8416  postCount */\n  sload(0x01)\n    /* \"contracts/forum.sol\":8395:8457  PostCreated(postCount, post4.author, post4.tag, post4.content) */\n  0x5475621b07408f75d49c828caa5aeacb3a5e98d3497e75730dc184677504401c\n    /* \"contracts/forum.sol\":8432:8437  post4 */\n  dup7\n    /* \"contracts/forum.sol\":8432:8441  post4.tag */\n  0x02\n  add\n    /* \"contracts/forum.sol\":8443:8448  post4 */\n  dup8\n    /* \"contracts/forum.sol\":8443:8456  post4.content */\n  0x01\n  add\n    /* \"contracts/forum.sol\":8395:8457  PostCreated(postCount, post4.author, post4.tag, post4.content) */\n  mload(0x40)\n  tag_45\n  swap3\n  swap2\n  swap1\n  tag_10\n  jump\t// in\ntag_45:\n  mload(0x40)\n  dup1\n  swap2\n  sub\n  swap1\n  log3\n    /* \"contracts/forum.sol\":8499:8507  comment4 */\n  dup3\n    /* \"contracts/forum.sol\":8499:8514  comment4.author */\n  0x00\n  add\n  0x00\n  swap1\n  sload\n  swap1\n  0x0100\n  exp\n  swap1\n  div\n  0xffffffffffffffffffffffffffffffffffffffff\n  and\n    /* \"contracts/forum.sol\":8472:8547  CommentAdded(postCount, 1, comment4.author, comment4.content, comment4.tag) */\n  0xffffffffffffffffffffffffffffffffffffffff\n  and\n    /* \"contracts/forum.sol\":8496:8497  1 */\n  0x01\n    /* \"contracts/forum.sol\":8485:8494  postCount */\n  dup1\n  sload\n    /* \"contracts/forum.sol\":8472:8547  CommentAdded(postCount, 1, comment4.author, comment4.content, comment4.tag) */\n  0x03a56e2377acf256c15a50f0b97834fa29a151d0b8a6d05c450576e40634fadc\n    /* \"contracts/forum.sol\":8516:8524  comment4 */\n  dup7\n    /* \"contracts/forum.sol\":8516:8532  comment4.content */\n  0x01\n  add\n    /* \"contracts/forum.sol\":8534:8542  comment4 */\n  dup8\n    /* \"contracts/forum.sol\":8534:8546  comment4.tag */\n  0x02\n  add\n    /* \"contracts/forum.sol\":8472:8547  CommentAdded(postCount, 1, comment4.author, comment4.content, comment4.tag) */\n  mload(0x40)\n  tag_46\n  swap3\n  swap2\n  swap1\n  tag_10\n  jump\t// in\ntag_46:\n  mload(0x40)\n  dup1\n  swap2\n  sub\n  swap1\n  log4\n    /* \"contracts/forum.sol\":8589:8599  comment4_2 */\n  dup2\n    /* \"contracts/forum.sol\":8589:8606  comment4_2.author */\n  0x00\n  add\n  0x00\n  swap1\n  sload\n  swap1\n  0x0100\n  exp\n  swap1\n  div\n  0xffffffffffffffffffffffffffffffffffffffff\n  and\n    /* \"contracts/forum.sol\":8562:8643  CommentAdded(postCount, 2, comment4_2.author, comment4_2.content, comment4_2.tag) */\n  0xffffffffffffffffffffffffffffffffffffffff\n  and\n    /* \"contracts/forum.sol\":8586:8587  2 */\n  0x02\n    /* \"contracts/forum.sol\":8575:8584  postCount */\n  sload(0x01)\n    /* \"contracts/forum.sol\":8562:8643  CommentAdded(postCount, 2, comment4_2.author, comment4_2.content, comment4_2.tag) */\n  0x03a56e2377acf256c15a50f0b97834fa29a151d0b8a6d05c450576e40634fadc\n    /* \"contracts/forum.sol\":8608:8618  comment4_2 */\n  dup6\n    /* \"contracts/forum.sol\":8608:8626  comment4_2.content */\n  0x01\n  add\n    /* \"contracts/forum.sol\":8628:8638  comment4_2 */\n  dup7\n    /* \"contracts/forum.sol\":8628:8642  comment4_2.tag */\n  0x02\n  add\n    /* \"contracts/forum.sol\":8562:8643  CommentAdded(postCount, 2, comment4_2.author, comment4_2.content, comment4_2.tag) */\n  mload(0x40)\n  tag_47\n  swap3\n  swap2\n  swap1\n  tag_10\n  jump\t// in\ntag_47:\n  mload(0x40)\n  dup1\n  swap2\n  sub\n  swap1\n  log4\n    /* \"contracts/forum.sol\":8685:8695  comment4_3 */\n  dup1\n    /* \"contracts/forum.sol\":8685:8702  comment4_3.author */\n  0x00\n  add\n  0x00\n  swap1\n  sload\n  swap1\n  0x0100\n  exp\n  swap1\n  div\n  0xffffffffffffffffffffffffffffffffffffffff\n  and\n    /* \"contracts/forum.sol\":8658:8739  CommentAdded(postCount, 3, comment4_3.author, comment4_3.content, comment4_3.tag) */\n  0xffffffffffffffffffffffffffffffffffffffff\n  and\n    /* \"contracts/forum.sol\":8682:8683  3 */\n  0x03\n    /* \"contracts/forum.sol\":8671:8680  postCount */\n  sload(0x01)\n    /* \"contracts/forum.sol\":8658:8739  CommentAdded(postCount, 3, comment4_3.author, comment4_3.content, comment4_3.tag) */\n  0x03a56e2377acf256c15a50f0b97834fa29a151d0b8a6d05c450576e40634fadc\n    /* \"contracts/forum.sol\":8704:8714  comment4_3 */\n  dup5\n    /* \"contracts/forum.sol\":8704:8722  comment4_3.content */\n  0x01\n  add\n    /* \"contracts/forum.sol\":8724:8734  comment4_3 */\n  dup6\n    /* \"contracts/forum.sol\":8724:8738  comment4_3.tag */\n  0x02\n  add\n    /* \"contracts/forum.sol\":8658:8739  CommentAdded(postCount, 3, comment4_3.author, comment4_3.content, comment4_3.tag) */\n  mload(0x40)\n  tag_48\n  swap3\n  swap2\n  swap1\n  tag_10\n  jump\t// in\ntag_48:\n  mload(0x40)\n  dup1\n  swap2\n  sub\n  swap1\n  log4\n    /* \"contracts/forum.sol\":1592:8746  {... */\n  pop\n  pop\n  pop\n  pop\n  pop\n  pop\n  pop\n  pop\n  pop\n  pop\n  pop\n  pop\n  pop\n    /* \"contracts/forum.sol\":58:16282  contract HKUSTForum {... */\n  jump(tag_49)\n    /* \"#utility.yul\":7:106   */\ntag_50:\n    /* \"#utility.yul\":59:65   */\n  0x00\n    /* \"#utility.yul\":93:98   */\n  dup2\n    /* \"#utility.yul\":87:99   */\n  mload\n    /* \"#utility.yul\":77:99   */\n  swap1\n  pop\n    /* \"#utility.yul\":7:106   */\n  swap2\n  swap1\n  pop\n  jump\t// out\n    /* \"#utility.yul\":112:292   */\ntag_51:\n    /* \"#utility.yul\":160:237   */\n  0x4e487b7100000000000000000000000000000000000000000000000000000000\n    /* \"#utility.yul\":157:158   */\n  0x00\n    /* \"#utility.yul\":150:238   */\n  mstore\n    /* \"#utility.yul\":257:261   */\n  0x41\n    /* \"#utility.yul\":254:255   */\n  0x04\n    /* \"#utility.yul\":247:262   */\n  mstore\n    /* \"#utility.yul\":281:285   */\n  0x24\n    /* \"#utility.yul\":278:279   */\n  0x00\n    /* \"#utility.yul\":271:286   */\n  revert\n    /* \"#utility.yul\":298:478   */\ntag_52:\n    /* \"#utility.yul\":346:423   */\n  0x4e487b7100000000000000000000000000000000000000000000000000000000\n    /* \"#utility.yul\":343:344   */\n  0x00\n    /* \"#utility.yul\":336:424   */\n  mstore\n    /* \"#utility.yul\":443:447   */\n  0x22\n    /* \"#utility.yul\":440:441   */\n  0x04\n    /* \"#utility.yul\":433:448   */\n  mstore\n    /* \"#utility.yul\":467:471   */\n  0x24\n    /* \"#utility.yul\":464:465   */\n  0x00\n    /* \"#utility.yul\":457:472   */\n  revert\n    /* \"#utility.yul\":484:804   */\ntag_53:\n    /* \"#utility.yul\":528:534   */\n  0x00\n    /* \"#utility.yul\":565:566   */\n  0x02\n    /* \"#utility.yul\":559:563   */\n  dup3\n    /* \"#utility.yul\":555:567   */\n  div\n    /* \"#utility.yul\":545:567   */\n  swap1\n  pop\n    /* \"#utility.yul\":612:613   */\n  0x01\n    /* \"#utility.yul\":606:610   */\n  dup3\n    /* \"#utility.yul\":602:614   */\n  and\n    /* \"#utility.yul\":633:651   */\n  dup1\n    /* \"#utility.yul\":623:704   */\n  tag_78\n  jumpi\n    /* \"#utility.yul\":689:693   */\n  0x7f\n    /* \"#utility.yul\":681:687   */\n  dup3\n    /* \"#utility.yul\":677:694   */\n  and\n    /* \"#utility.yul\":667:694   */\n  swap2\n  pop\n    /* \"#utility.yul\":623:704   */\ntag_78:\n    /* \"#utility.yul\":751:753   */\n  0x20\n    /* \"#utility.yul\":743:749   */\n  dup3\n    /* \"#utility.yul\":740:754   */\n  lt\n    /* \"#utility.yul\":720:738   */\n  dup2\n    /* \"#utility.yul\":717:755   */\n  sub\n    /* \"#utility.yul\":714:798   */\n  tag_79\n  jumpi\n    /* \"#utility.yul\":770:788   */\n  tag_80\n  tag_52\n  jump\t// in\ntag_80:\n    /* \"#utility.yul\":714:798   */\ntag_79:\n    /* \"#utility.yul\":535:804   */\n  pop\n    /* \"#utility.yul\":484:804   */\n  swap2\n  swap1\n  pop\n  jump\t// out\n    /* \"#utility.yul\":810:951   */\ntag_54:\n    /* \"#utility.yul\":859:863   */\n  0x00\n    /* \"#utility.yul\":882:885   */\n  dup2\n    /* \"#utility.yul\":874:885   */\n  swap1\n  pop\n    /* \"#utility.yul\":905:908   */\n  dup2\n    /* \"#utility.yul\":902:903   */\n  0x00\n    /* \"#utility.yul\":895:909   */\n  mstore\n    /* \"#utility.yul\":939:943   */\n  0x20\n    /* \"#utility.yul\":936:937   */\n  0x00\n    /* \"#utility.yul\":926:944   */\n  keccak256\n    /* \"#utility.yul\":918:944   */\n  swap1\n  pop\n    /* \"#utility.yul\":810:951   */\n  swap2\n  swap1\n  pop\n  jump\t// out\n    /* \"#utility.yul\":957:1050   */\ntag_55:\n    /* \"#utility.yul\":994:1000   */\n  0x00\n    /* \"#utility.yul\":1041:1043   */\n  0x20\n    /* \"#utility.yul\":1036:1038   */\n  0x1f\n    /* \"#utility.yul\":1029:1034   */\n  dup4\n    /* \"#utility.yul\":1025:1039   */\n  add\n    /* \"#utility.yul\":1021:1044   */\n  div\n    /* \"#utility.yul\":1011:1044   */\n  swap1\n  pop\n    /* \"#utility.yul\":957:1050   */\n  swap2\n  swap1\n  pop\n  jump\t// out\n    /* \"#utility.yul\":1056:1163   */\ntag_56:\n    /* \"#utility.yul\":1100:1108   */\n  0x00\n    /* \"#utility.yul\":1150:1155   */\n  dup3\n    /* \"#utility.yul\":1144:1148   */\n  dup3\n    /* \"#utility.yul\":1140:1156   */\n  shl\n    /* \"#utility.yul\":1119:1156   */\n  swap1\n  pop\n    /* \"#utility.yul\":1056:1163   */\n  swap3\n  swap2\n  pop\n  pop\n  jump\t// out\n    /* \"#utility.yul\":1169:1562   */\ntag_57:\n    /* \"#utility.yul\":1238:1244   */\n  0x00\n    /* \"#utility.yul\":1288:1289   */\n  0x08\n    /* \"#utility.yul\":1276:1286   */\n  dup4\n    /* \"#utility.yul\":1272:1290   */\n  mul\n    /* \"#utility.yul\":1311:1408   */\n  tag_85\n    /* \"#utility.yul\":1341:1407   */\n  0xffffffffffffffffffffffffffffffffffffffffffffffffffffffffffffffff\n    /* \"#utility.yul\":1330:1339   */\n  dup3\n    /* \"#utility.yul\":1311:1408   */\n  tag_56\n  jump\t// in\ntag_85:\n    /* \"#utility.yul\":1429:1468   */\n  tag_86\n    /* \"#utility.yul\":1459:1467   */\n  dup7\n    /* \"#utility.yul\":1448:1457   */\n  dup4\n    /* \"#utility.yul\":1429:1468   */\n  tag_56\n  jump\t// in\ntag_86:\n    /* \"#utility.yul\":1417:1468   */\n  swap6\n  pop\n    /* \"#utility.yul\":1501:1505   */\n  dup1\n    /* \"#utility.yul\":1497:1506   */\n  not\n    /* \"#utility.yul\":1490:1495   */\n  dup5\n    /* \"#utility.yul\":1486:1507   */\n  and\n    /* \"#utility.yul\":1477:1507   */\n  swap4\n  pop\n    /* \"#utility.yul\":1550:1554   */\n  dup1\n    /* \"#utility.yul\":1540:1548   */\n  dup7\n    /* \"#utility.yul\":1536:1555   */\n  and\n    /* \"#utility.yul\":1529:1534   */\n  dup5\n    /* \"#utility.yul\":1526:1556   */\n  or\n    /* \"#utility.yul\":1516:1556   */\n  swap3\n  pop\n    /* \"#utility.yul\":1245:1562   */\n  pop\n  pop\n    /* \"#utility.yul\":1169:1562   */\n  swap4\n  swap3\n  pop\n  pop\n  pop\n  jump\t// out\n    /* \"#utility.yul\":1568:1645   */\ntag_58:\n    /* \"#utility.yul\":1605:1612   */\n  0x00\n    /* \"#utility.yul\":1634:1639   */\n  dup2\n    /* \"#utility.yul\":1623:1639   */\n  swap1\n  pop\n    /* \"#utility.yul\":1568:1645   */\n  swap2\n  swap1\n  pop\n  jump\t// out\n    /* \"#utility.yul\":1651:1711   */\ntag_59:\n    /* \"#utility.yul\":1679:1682   */\n  0x00\n    /* \"#utility.yul\":1700:1705   */\n  dup2\n    /* \"#utility.yul\":1693:1705   */\n  swap1\n  pop\n    /* \"#utility.yul\":1651:1711   */\n  swap2\n  swap1\n  pop\n  jump\t// out\n    /* \"#utility.yul\":1717:1859   */\ntag_60:\n    /* \"#utility.yul\":1767:1776   */\n  0x00\n    /* \"#utility.yul\":1800:1853   */\n  tag_90\n    /* \"#utility.yul\":1818:1852   */\n  tag_91\n    /* \"#utility.yul\":1827:1851   */\n  tag_92\n    /* \"#utility.yul\":1845:1850   */\n  dup5\n    /* \"#utility.yul\":1827:1851   */\n  tag_58\n  jump\t// in\ntag_92:\n    /* \"#utility.yul\":1818:1852   */\n  tag_59\n  jump\t// in\ntag_91:\n    /* \"#utility.yul\":1800:1853   */\n  tag_58\n  jump\t// in\ntag_90:\n    /* \"#utility.yul\":1787:1853   */\n  swap1\n  pop\n    /* \"#utility.yul\":1717:1859   */\n  swap2\n  swap1\n  pop\n  jump\t// out\n    /* \"#utility.yul\":1865:1940   */\ntag_61:\n    /* \"#utility.yul\":1908:1911   */\n  0x00\n    /* \"#utility.yul\":1929:1934   */\n  dup2\n    /* \"#utility.yul\":1922:1934   */\n  swap1\n  pop\n    /* \"#utility.yul\":1865:1940   */\n  swap2\n  swap1\n  pop\n  jump\t// out\n    /* \"#utility.yul\":1946:2215   */\ntag_62:\n    /* \"#utility.yul\":2056:2095   */\n  tag_95\n    /* \"#utility.yul\":2087:2094   */\n  dup4\n    /* \"#utility.yul\":2056:2095   */\n  tag_60\n  jump\t// in\ntag_95:\n    /* \"#utility.yul\":2117:2208   */\n  tag_96\n    /* \"#utility.yul\":2166:2207   */\n  tag_97\n    /* \"#utility.yul\":2190:2206   */\n  dup3\n    /* \"#utility.yul\":2166:2207   */\n  tag_61\n  jump\t// in\ntag_97:\n    /* \"#utility.yul\":2158:2164   */\n  dup5\n    /* \"#utility.yul\":2151:2155   */\n  dup5\n    /* \"#utility.yul\":2145:2156   */\n  sload\n    /* \"#utility.yul\":2117:2208   */\n  tag_57\n  jump\t// in\ntag_96:\n    /* \"#utility.yul\":2111:2115   */\n  dup3\n    /* \"#utility.yul\":2104:2209   */\n  sstore\n    /* \"#utility.yul\":2022:2215   */\n  pop\n    /* \"#utility.yul\":1946:2215   */\n  pop\n  pop\n  pop\n  jump\t// out\n    /* \"#utility.yul\":2221:2294   */\ntag_63:\n    /* \"#utility.yul\":2266:2269   */\n  0x00\n    /* \"#utility.yul\":2221:2294   */\n  swap1\n  jump\t// out\n    /* \"#utility.yul\":2300:2489   */\ntag_64:\n    /* \"#utility.yul\":2377:2409   */\n  tag_100\n  tag_63\n  jump\t// in\ntag_100:\n    /* \"#utility.yul\":2418:2483   */\n  tag_101\n    /* \"#utility.yul\":2476:2482   */\n  dup2\n    /* \"#utility.yul\":2468:2474   */\n  dup5\n    /* \"#utility.yul\":2462:2466   */\n  dup5\n    /* \"#utility.yul\":2418:2483   */\n  tag_62\n  jump\t// in\ntag_101:\n    /* \"#utility.yul\":2353:2489   */\n  pop\n    /* \"#utility.yul\":2300:2489   */\n  pop\n  pop\n  jump\t// out\n    /* \"#utility.yul\":2495:2681   */\ntag_65:\n    /* \"#utility.yul\":2555:2675   */\ntag_103:\n    /* \"#utility.yul\":2572:2575   */\n  dup2\n    /* \"#utility.yul\":2565:2570   */\n  dup2\n    /* \"#utility.yul\":2562:2576   */\n  lt\n    /* \"#utility.yul\":2555:2675   */\n  iszero\n  tag_105\n  jumpi\n    /* \"#utility.yul\":2626:2665   */\n  tag_106\n    /* \"#utility.yul\":2663:2664   */\n  0x00\n    /* \"#utility.yul\":2656:2661   */\n  dup3\n    /* \"#utility.yul\":2626:2665   */\n  tag_64\n  jump\t// in\ntag_106:\n    /* \"#utility.yul\":2599:2600   */\n  0x01\n    /* \"#utility.yul\":2592:2597   */\n  dup2\n    /* \"#utility.yul\":2588:2601   */\n  add\n    /* \"#utility.yul\":2579:2601   */\n  swap1\n  pop\n    /* \"#utility.yul\":2555:2675   */\n  jump(tag_103)\ntag_105:\n    /* \"#utility.yul\":2495:2681   */\n  pop\n  pop\n  jump\t// out\n    /* \"#utility.yul\":2687:3230   */\ntag_66:\n    /* \"#utility.yul\":2788:2790   */\n  0x1f\n    /* \"#utility.yul\":2783:2786   */\n  dup3\n    /* \"#utility.yul\":2780:2791   */\n  gt\n    /* \"#utility.yul\":2777:3223   */\n  iszero\n  tag_108\n  jumpi\n    /* \"#utility.yul\":2822:2860   */\n  tag_109\n    /* \"#utility.yul\":2854:2859   */\n  dup2\n    /* \"#utility.yul\":2822:2860   */\n  tag_54\n  jump\t// in\ntag_109:\n    /* \"#utility.yul\":2906:2935   */\n  tag_110\n    /* \"#utility.yul\":2924:2934   */\n  dup5\n    /* \"#utility.yul\":2906:2935   */\n  tag_55\n  jump\t// in\ntag_110:\n    /* \"#utility.yul\":2896:2904   */\n  dup2\n    /* \"#utility.yul\":2892:2936   */\n  add\n    /* \"#utility.yul\":3089:3091   */\n  0x20\n    /* \"#utility.yul\":3077:3087   */\n  dup6\n    /* \"#utility.yul\":3074:3092   */\n  lt\n    /* \"#utility.yul\":3071:3120   */\n  iszero\n  tag_111\n  jumpi\n    /* \"#utility.yul\":3110:3118   */\n  dup2\n    /* \"#utility.yul\":3095:3118   */\n  swap1\n  pop\n    /* \"#utility.yul\":3071:3120   */\ntag_111:\n    /* \"#utility.yul\":3133:3213   */\n  tag_112\n    /* \"#utility.yul\":3189:3211   */\n  tag_113\n    /* \"#utility.yul\":3207:3210   */\n  dup6\n    /* \"#utility.yul\":3189:3211   */\n  tag_55\n  jump\t// in\ntag_113:\n    /* \"#utility.yul\":3179:3187   */\n  dup4\n    /* \"#utility.yul\":3175:3212   */\n  add\n    /* \"#utility.yul\":3162:3173   */\n  dup3\n    /* \"#utility.yul\":3133:3213   */\n  tag_65\n  jump\t// in\ntag_112:\n    /* \"#utility.yul\":2792:3223   */\n  pop\n  pop\n    /* \"#utility.yul\":2777:3223   */\ntag_108:\n    /* \"#utility.yul\":2687:3230   */\n  pop\n  pop\n  pop\n  jump\t// out\n    /* \"#utility.yul\":3236:3353   */\ntag_67:\n    /* \"#utility.yul\":3290:3298   */\n  0x00\n    /* \"#utility.yul\":3340:3345   */\n  dup3\n    /* \"#utility.yul\":3334:3338   */\n  dup3\n    /* \"#utility.yul\":3330:3346   */\n  shr\n    /* \"#utility.yul\":3309:3346   */\n  swap1\n  pop\n    /* \"#utility.yul\":3236:3353   */\n  swap3\n  swap2\n  pop\n  pop\n  jump\t// out\n    /* \"#utility.yul\":3359:3528   */\ntag_68:\n    /* \"#utility.yul\":3403:3409   */\n  0x00\n    /* \"#utility.yul\":3436:3487   */\n  tag_116\n    /* \"#utility.yul\":3484:3485   */\n  0x00\n    /* \"#utility.yul\":3480:3486   */\n  not\n    /* \"#utility.yul\":3472:3477   */\n  dup5\n    /* \"#utility.yul\":3469:3470   */\n  0x08\n    /* \"#utility.yul\":3465:3478   */\n  mul\n    /* \"#utility.yul\":3436:3487   */\n  tag_67\n  jump\t// in\ntag_116:\n    /* \"#utility.yul\":3432:3488   */\n  not\n    /* \"#utility.yul\":3517:3521   */\n  dup1\n    /* \"#utility.yul\":3511:3515   */\n  dup4\n    /* \"#utility.yul\":3507:3522   */\n  and\n    /* \"#utility.yul\":3497:3522   */\n  swap2\n  pop\n    /* \"#utility.yul\":3410:3528   */\n  pop\n    /* \"#utility.yul\":3359:3528   */\n  swap3\n  swap2\n  pop\n  pop\n  jump\t// out\n    /* \"#utility.yul\":3533:3828   */\ntag_69:\n    /* \"#utility.yul\":3609:3613   */\n  0x00\n    /* \"#utility.yul\":3755:3784   */\n  tag_118\n    /* \"#utility.yul\":3780:3783   */\n  dup4\n    /* \"#utility.yul\":3774:3778   */\n  dup4\n    /* \"#utility.yul\":3755:3784   */\n  tag_68\n  jump\t// in\ntag_118:\n    /* \"#utility.yul\":3747:3784   */\n  swap2\n  pop\n    /* \"#utility.yul\":3817:3820   */\n  dup3\n    /* \"#utility.yul\":3814:3815   */\n  0x02\n    /* \"#utility.yul\":3810:3821   */\n  mul\n    /* \"#utility.yul\":3804:3808   */\n  dup3\n    /* \"#utility.yul\":3801:3822   */\n  or\n    /* \"#utility.yul\":3793:3822   */\n  swap1\n  pop\n    /* \"#utility.yul\":3533:3828   */\n  swap3\n  swap2\n  pop\n  pop\n  jump\t// out\n    /* \"#utility.yul\":3833:5228   */\ntag_5:\n    /* \"#utility.yul\":3950:3987   */\n  tag_120\n    /* \"#utility.yul\":3983:3986   */\n  dup3\n    /* \"#utility.yul\":3950:3987   */\n  tag_50\n  jump\t// in\ntag_120:\n    /* \"#utility.yul\":4052:4070   */\n  0xffffffffffffffff\n    /* \"#utility.yul\":4044:4050   */\n  dup2\n    /* \"#utility.yul\":4041:4071   */\n  gt\n    /* \"#utility.yul\":4038:4094   */\n  iszero\n  tag_121\n  jumpi\n    /* \"#utility.yul\":4074:4092   */\n  tag_122\n  tag_51\n  jump\t// in\ntag_122:\n    /* \"#utility.yul\":4038:4094   */\ntag_121:\n    /* \"#utility.yul\":4118:4156   */\n  tag_123\n    /* \"#utility.yul\":4150:4154   */\n  dup3\n    /* \"#utility.yul\":4144:4155   */\n  sload\n    /* \"#utility.yul\":4118:4156   */\n  tag_53\n  jump\t// in\ntag_123:\n    /* \"#utility.yul\":4203:4270   */\n  tag_124\n    /* \"#utility.yul\":4263:4269   */\n  dup3\n    /* \"#utility.yul\":4255:4261   */\n  dup3\n    /* \"#utility.yul\":4249:4253   */\n  dup6\n    /* \"#utility.yul\":4203:4270   */\n  tag_66\n  jump\t// in\ntag_124:\n    /* \"#utility.yul\":4297:4298   */\n  0x00\n    /* \"#utility.yul\":4321:4325   */\n  0x20\n    /* \"#utility.yul\":4308:4325   */\n  swap1\n  pop\n    /* \"#utility.yul\":4353:4355   */\n  0x1f\n    /* \"#utility.yul\":4345:4351   */\n  dup4\n    /* \"#utility.yul\":4342:4356   */\n  gt\n    /* \"#utility.yul\":4370:4371   */\n  0x01\n    /* \"#utility.yul\":4365:4983   */\n  dup2\n  eq\n  tag_126\n  jumpi\n    /* \"#utility.yul\":5027:5028   */\n  0x00\n    /* \"#utility.yul\":5044:5050   */\n  dup5\n    /* \"#utility.yul\":5041:5118   */\n  iszero\n  tag_127\n  jumpi\n    /* \"#utility.yul\":5093:5102   */\n  dup3\n    /* \"#utility.yul\":5088:5091   */\n  dup8\n    /* \"#utility.yul\":5084:5103   */\n  add\n    /* \"#utility.yul\":5078:5104   */\n  mload\n    /* \"#utility.yul\":5069:5104   */\n  swap1\n  pop\n    /* \"#utility.yul\":5041:5118   */\ntag_127:\n    /* \"#utility.yul\":5144:5211   */\n  tag_128\n    /* \"#utility.yul\":5204:5210   */\n  dup6\n    /* \"#utility.yul\":5197:5202   */\n  dup3\n    /* \"#utility.yul\":5144:5211   */\n  tag_69\n  jump\t// in\ntag_128:\n    /* \"#utility.yul\":5138:5142   */\n  dup7\n    /* \"#utility.yul\":5131:5212   */\n  sstore\n    /* \"#utility.yul\":5000:5222   */\n  pop\n    /* \"#utility.yul\":4335:5222   */\n  jump(tag_125)\n    /* \"#utility.yul\":4365:4983   */\ntag_126:\n    /* \"#utility.yul\":4417:4421   */\n  0x1f\n    /* \"#utility.yul\":4413:4422   */\n  not\n    /* \"#utility.yul\":4405:4411   */\n  dup5\n    /* \"#utility.yul\":4401:4423   */\n  and\n    /* \"#utility.yul\":4451:4488   */\n  tag_129\n    /* \"#utility.yul\":4483:4487   */\n  dup7\n    /* \"#utility.yul\":4451:4488   */\n  tag_54\n  jump\t// in\ntag_129:\n    /* \"#utility.yul\":4510:4511   */\n  0x00\n    /* \"#utility.yul\":4524:4732   */\ntag_130:\n    /* \"#utility.yul\":4538:4545   */\n  dup3\n    /* \"#utility.yul\":4535:4536   */\n  dup2\n    /* \"#utility.yul\":4532:4546   */\n  lt\n    /* \"#utility.yul\":4524:4732   */\n  iszero\n  tag_132\n  jumpi\n    /* \"#utility.yul\":4617:4626   */\n  dup5\n    /* \"#utility.yul\":4612:4615   */\n  dup10\n    /* \"#utility.yul\":4608:4627   */\n  add\n    /* \"#utility.yul\":4602:4628   */\n  mload\n    /* \"#utility.yul\":4594:4600   */\n  dup3\n    /* \"#utility.yul\":4587:4629   */\n  sstore\n    /* \"#utility.yul\":4668:4669   */\n  0x01\n    /* \"#utility.yul\":4660:4666   */\n  dup3\n    /* \"#utility.yul\":4656:4670   */\n  add\n    /* \"#utility.yul\":4646:4670   */\n  swap2\n  pop\n    /* \"#utility.yul\":4715:4717   */\n  0x20\n    /* \"#utility.yul\":4704:4713   */\n  dup6\n    /* \"#utility.yul\":4700:4718   */\n  add\n    /* \"#utility.yul\":4687:4718   */\n  swap5\n  pop\n    /* \"#utility.yul\":4561:4565   */\n  0x20\n    /* \"#utility.yul\":4558:4559   */\n  dup2\n    /* \"#utility.yul\":4554:4566   */\n  add\n    /* \"#utility.yul\":4549:4566   */\n  swap1\n  pop\n    /* \"#utility.yul\":4524:4732   */\n  jump(tag_130)\ntag_132:\n    /* \"#utility.yul\":4760:4766   */\n  dup7\n    /* \"#utility.yul\":4751:4758   */\n  dup4\n    /* \"#utility.yul\":4748:4767   */\n  lt\n    /* \"#utility.yul\":4745:4924   */\n  iszero\n  tag_133\n  jumpi\n    /* \"#utility.yul\":4818:4827   */\n  dup5\n    /* \"#utility.yul\":4813:4816   */\n  dup10\n    /* \"#utility.yul\":4809:4828   */\n  add\n    /* \"#utility.yul\":4803:4829   */\n  mload\n    /* \"#utility.yul\":4861:4909   */\n  tag_134\n    /* \"#utility.yul\":4903:4907   */\n  0x1f\n    /* \"#utility.yul\":4895:4901   */\n  dup10\n    /* \"#utility.yul\":4891:4908   */\n  and\n    /* \"#utility.yul\":4880:4889   */\n  dup3\n    /* \"#utility.yul\":4861:4909   */\n  tag_68\n  jump\t// in\ntag_134:\n    /* \"#utility.yul\":4853:4859   */\n  dup4\n    /* \"#utility.yul\":4846:4910   */\n  sstore\n    /* \"#utility.yul\":4768:4924   */\n  pop\n    /* \"#utility.yul\":4745:4924   */\ntag_133:\n    /* \"#utility.yul\":4970:4971   */\n  0x01\n    /* \"#utility.yul\":4966:4967   */\n  0x02\n    /* \"#utility.yul\":4958:4964   */\n  dup9\n    /* \"#utility.yul\":4954:4968   */\n  mul\n    /* \"#utility.yul\":4950:4972   */\n  add\n    /* \"#utility.yul\":4944:4948   */\n  dup9\n    /* \"#utility.yul\":4937:4973   */\n  sstore\n    /* \"#utility.yul\":4372:4983   */\n  pop\n  pop\n  pop\n    /* \"#utility.yul\":4335:5222   */\ntag_125:\n  pop\n    /* \"#utility.yul\":3925:5228   */\n  pop\n  pop\n  pop\n    /* \"#utility.yul\":3833:5228   */\n  pop\n  pop\n  jump\t// out\n    /* \"#utility.yul\":5234:5403   */\ntag_70:\n    /* \"#utility.yul\":5318:5329   */\n  0x00\n    /* \"#utility.yul\":5352:5358   */\n  dup3\n    /* \"#utility.yul\":5347:5350   */\n  dup3\n    /* \"#utility.yul\":5340:5359   */\n  mstore\n    /* \"#utility.yul\":5392:5396   */\n  0x20\n    /* \"#utility.yul\":5387:5390   */\n  dup3\n    /* \"#utility.yul\":5383:5397   */\n  add\n    /* \"#utility.yul\":5368:5397   */\n  swap1\n  pop\n    /* \"#utility.yul\":5234:5403   */\n  swap3\n  swap2\n  pop\n  pop\n  jump\t// out\n    /* \"#utility.yul\":5433:6264   */\ntag_71:\n    /* \"#utility.yul\":5518:5521   */\n  0x00\n    /* \"#utility.yul\":5555:5560   */\n  dup2\n    /* \"#utility.yul\":5549:5561   */\n  sload\n    /* \"#utility.yul\":5584:5620   */\n  tag_137\n    /* \"#utility.yul\":5610:5619   */\n  dup2\n    /* \"#utility.yul\":5584:5620   */\n  tag_53\n  jump\t// in\ntag_137:\n    /* \"#utility.yul\":5636:5707   */\n  tag_138\n    /* \"#utility.yul\":5700:5706   */\n  dup2\n    /* \"#utility.yul\":5695:5698   */\n  dup7\n    /* \"#utility.yul\":5636:5707   */\n  tag_70\n  jump\t// in\ntag_138:\n    /* \"#utility.yul\":5629:5707   */\n  swap5\n  pop\n    /* \"#utility.yul\":5738:5739   */\n  0x01\n    /* \"#utility.yul\":5727:5736   */\n  dup3\n    /* \"#utility.yul\":5723:5740   */\n  and\n    /* \"#utility.yul\":5754:5755   */\n  0x00\n    /* \"#utility.yul\":5749:5913   */\n  dup2\n  eq\n  tag_140\n  jumpi\n    /* \"#utility.yul\":5927:5928   */\n  0x01\n    /* \"#utility.yul\":5922:6258   */\n  dup2\n  eq\n  tag_141\n  jumpi\n    /* \"#utility.yul\":5716:6258   */\n  jump(tag_139)\n    /* \"#utility.yul\":5749:5913   */\ntag_140:\n    /* \"#utility.yul\":5833:5837   */\n  0xff\n    /* \"#utility.yul\":5829:5838   */\n  not\n    /* \"#utility.yul\":5818:5827   */\n  dup4\n    /* \"#utility.yul\":5814:5839   */\n  and\n    /* \"#utility.yul\":5809:5812   */\n  dup7\n    /* \"#utility.yul\":5802:5840   */\n  mstore\n    /* \"#utility.yul\":5893:5899   */\n  dup2\n    /* \"#utility.yul\":5886:5900   */\n  iszero\n    /* \"#utility.yul\":5879:5901   */\n  iszero\n    /* \"#utility.yul\":5873:5877   */\n  0x20\n    /* \"#utility.yul\":5869:5902   */\n  mul\n    /* \"#utility.yul\":5864:5867   */\n  dup7\n    /* \"#utility.yul\":5860:5903   */\n  add\n    /* \"#utility.yul\":5853:5903   */\n  swap4\n  pop\n    /* \"#utility.yul\":5749:5913   */\n  jump(tag_139)\n    /* \"#utility.yul\":5922:6258   */\ntag_141:\n    /* \"#utility.yul\":5989:6027   */\n  tag_142\n    /* \"#utility.yul\":6021:6026   */\n  dup6\n    /* \"#utility.yul\":5989:6027   */\n  tag_54\n  jump\t// in\ntag_142:\n    /* \"#utility.yul\":6049:6050   */\n  0x00\n    /* \"#utility.yul\":6063:6217   */\ntag_143:\n    /* \"#utility.yul\":6077:6083   */\n  dup4\n    /* \"#utility.yul\":6074:6075   */\n  dup2\n    /* \"#utility.yul\":6071:6084   */\n  lt\n    /* \"#utility.yul\":6063:6217   */\n  iszero\n  tag_145\n  jumpi\n    /* \"#utility.yul\":6151:6158   */\n  dup2\n    /* \"#utility.yul\":6145:6159   */\n  sload\n    /* \"#utility.yul\":6141:6142   */\n  dup2\n    /* \"#utility.yul\":6136:6139   */\n  dup10\n    /* \"#utility.yul\":6132:6143   */\n  add\n    /* \"#utility.yul\":6125:6160   */\n  mstore\n    /* \"#utility.yul\":6201:6202   */\n  0x01\n    /* \"#utility.yul\":6192:6199   */\n  dup3\n    /* \"#utility.yul\":6188:6203   */\n  add\n    /* \"#utility.yul\":6177:6203   */\n  swap2\n  pop\n    /* \"#utility.yul\":6099:6103   */\n  0x20\n    /* \"#utility.yul\":6096:6097   */\n  dup2\n    /* \"#utility.yul\":6092:6104   */\n  add\n    /* \"#utility.yul\":6087:6104   */\n  swap1\n  pop\n    /* \"#utility.yul\":6063:6217   */\n  jump(tag_143)\ntag_145:\n    /* \"#utility.yul\":6246:6247   */\n  dup1\n    /* \"#utility.yul\":6241:6244   */\n  dup9\n    /* \"#utility.yul\":6237:6248   */\n  add\n    /* \"#utility.yul\":6230:6248   */\n  swap6\n  pop\n    /* \"#utility.yul\":5929:6258   */\n  pop\n  pop\n    /* \"#utility.yul\":5716:6258   */\ntag_139:\n  pop\n    /* \"#utility.yul\":5522:6264   */\n  pop\n  pop\n    /* \"#utility.yul\":5433:6264   */\n  swap3\n  swap2\n  pop\n  pop\n  jump\t// out\n    /* \"#utility.yul\":6270:6772   */\ntag_10:\n    /* \"#utility.yul\":6425:6429   */\n  0x00\n    /* \"#utility.yul\":6463:6465   */\n  0x40\n    /* \"#utility.yul\":6452:6461   */\n  dup3\n    /* \"#utility.yul\":6448:6466   */\n  add\n    /* \"#utility.yul\":6440:6466   */\n  swap1\n  pop\n    /* \"#utility.yul\":6512:6521   */\n  dup2\n    /* \"#utility.yul\":6506:6510   */\n  dup2\n    /* \"#utility.yul\":6502:6522   */\n  sub\n    /* \"#utility.yul\":6498:6499   */\n  0x00\n    /* \"#utility.yul\":6487:6496   */\n  dup4\n    /* \"#utility.yul\":6483:6500   */\n  add\n    /* \"#utility.yul\":6476:6523   */\n  mstore\n    /* \"#utility.yul\":6540:6615   */\n  tag_147\n    /* \"#utility.yul\":6610:6614   */\n  dup2\n    /* \"#utility.yul\":6601:6607   */\n  dup6\n    /* \"#utility.yul\":6540:6615   */\n  tag_71\n  jump\t// in\ntag_147:\n    /* \"#utility.yul\":6532:6615   */\n  swap1\n  pop\n    /* \"#utility.yul\":6662:6671   */\n  dup2\n    /* \"#utility.yul\":6656:6660   */\n  dup2\n    /* \"#utility.yul\":6652:6672   */\n  sub\n    /* \"#utility.yul\":6647:6649   */\n  0x20\n    /* \"#utility.yul\":6636:6645   */\n  dup4\n    /* \"#utility.yul\":6632:6650   */\n  add\n    /* \"#utility.yul\":6625:6673   */\n  mstore\n    /* \"#utility.yul\":6690:6765   */\n  tag_148\n    /* \"#utility.yul\":6760:6764   */\n  dup2\n    /* \"#utility.yul\":6751:6757   */\n  dup5\n    /* \"#utility.yul\":6690:6765   */\n  tag_71\n  jump\t// in\ntag_148:\n    /* \"#utility.yul\":6682:6765   */\n  swap1\n  pop\n    /* \"#utility.yul\":6270:6772   */\n  swap4\n  swap3\n  pop\n  pop\n  pop\n  jump\t// out\n    /* \"#utility.yul\":6778:6958   */\ntag_72:\n    /* \"#utility.yul\":6826:6903   */\n  0x4e487b7100000000000000000000000000000000000000000000000000000000\n    /* \"#utility.yul\":6823:6824   */\n  0x00\n    /* \"#utility.yul\":6816:6904   */\n  mstore\n    /* \"#utility.yul\":6923:6927   */\n  0x11\n    /* \"#utility.yul\":6920:6921   */\n  0x04\n    /* \"#utility.yul\":6913:6928   */\n  mstore\n    /* \"#utility.yul\":6947:6951   */\n  0x24\n    /* \"#utility.yul\":6944:6945   */\n  0x00\n    /* \"#utility.yul\":6937:6952   */\n  revert\n    /* \"#utility.yul\":6964:7197   */\ntag_13:\n    /* \"#utility.yul\":7003:7006   */\n  0x00\n    /* \"#utility.yul\":7026:7050   */\n  tag_151\n    /* \"#utility.yul\":7044:7049   */\n  dup3\n    /* \"#utility.yul\":7026:7050   */\n  tag_58\n  jump\t// in\ntag_151:\n    /* \"#utility.yul\":7017:7050   */\n  swap2\n  pop\n    /* \"#utility.yul\":7072:7138   */\n  0xffffffffffffffffffffffffffffffffffffffffffffffffffffffffffffffff\n    /* \"#utility.yul\":7065:7070   */\n  dup3\n    /* \"#utility.yul\":7062:7139   */\n  sub\n    /* \"#utility.yul\":7059:7162   */\n  tag_152\n  jumpi\n    /* \"#utility.yul\":7142:7160   */\n  tag_153\n  tag_72\n  jump\t// in\ntag_153:\n    /* \"#utility.yul\":7059:7162   */\ntag_152:\n    /* \"#utility.yul\":7189:7190   */\n  0x01\n    /* \"#utility.yul\":7182:7187   */\n  dup3\n    /* \"#utility.yul\":7178:7191   */\n  add\n    /* \"#utility.yul\":7171:7191   */\n  swap1\n  pop\n    /* \"#utility.yul\":6964:7197   */\n  swap2\n  swap1\n  pop\n  jump\t// out\n    /* \"contracts/forum.sol\":58:16282  contract HKUSTForum {... */\ntag_49:\n  dataSize(sub_0)\n  dup1\n  dataOffset(sub_0)\n  0x00\n  codecopy\n  0x00\n  return\nstop\ndata_02e58dd3eebd38f210a1fb6f7cc104b23d2847f62f5af3f457e47c29f1d50835 5468697320706572736f6e206973206e6f742073746166662e2049277665207365656e207468656d2061726f756e642063616d70757320617320612073747564656e742e\ndata_1e68f8929c94ca6cc6a530fa9f31e64e97e186c1debb34dac1ba9999420b12a2 49206b6e6f77207468697320706572736f6e2066726f6d206d7920636c6173732e20546865792772652070726574656e64696e6720746f20626520737461666621\ndata_662f9e819c0ec1a67b4a86892f28f9af57a2c566121d6e8707b10c6df7847a0e 54686520657363616c61746f72206f757473696465204359542069732062726f6b656e20616761696e2120506c656173652066697820697420757267656e746c7921\ndata_7a88afac954be152cbdd746c103c09b6bbbaac92bf6b79edf0e92bb32febcb00 5768656e2077696c6c204c4731206f70656e206e6577206d65616c206f7074696f6e733f\ndata_8cc125cce4df0a85733c0639b1a638faa4013f9bff2d8c5a759dd2dc0f8b9264 5468697320697320646566696e6974656c792066616b65206e6577732e20446f6e27742062656c696576652069742e\ndata_91dcfb7d7a085b9f8b5d17c4e0a5ce16333bb6d86ea07f0a4b8f440ad6622dfd 5468616e6b20796f7520746f2074686520737461666620666f722074686520717569636b20726573706f6e736521205468697320686173206265656e20616e206f6e676f696e672069737375652e\ndata_be61c13ac23e6b5eaad2bf0272172247570a0cc74c677836fd04ebbbd826c629 4e6f207761792120492063616e2066696e616c6c7920626520667265652066726f6d207468652070726f6a65637421\ndata_c626309a2b2d0d2f31e3c3b6d36266f67d4204939e266901cbf28ee624e6e2d0 492061677265652c20646566696e6974656c79206e6f742073746166662e20566f74696e672066616b65206f6e2074686973206f6e652e\ndata_c7f26a841e6c3160dc03ee8c2016accfd5282ffdd118e40a3c709b46bc2a6c30 486f772063616e20796f752070726574656e6420746f20626520612070726f666573736f7220616e64207468656e20636f6d6d656e7420617320612073747564656e743f204f75722070726f6a656374206973207374696c6c206f6e676f696e672e2057652073686f756c64206368616c6c656e676520746869732075736572277320637265646962696c69747921\ndata_c82959ddba0abf90a078c025a95d0f077dc3ee31c7b7b94a9d43d450fadb60f5 5468697320697320612073616d706c6520636f6d6d656e74206f6e20746865207465737420706f7374\ndata_f91a2c705d04979d9b7b4f9891b6f77a768e3aed826646fb07790d0edb5497ef 5468616e6b20796f7520666f72207265706f7274696e6720746869732069737375652e205765276c6c2073656e642061206d61696e74656e616e6365207465616d20726967687420617761792e\ndata_fb7fa661df71668dd14585a57ca5bec8eeb6303f7f7bf6f9db70ac6e49e4a587 74686520434f4d50343531312070726f6a6563742077696c6c2062652063616e63656c656421\n\nsub_0: assembly {\n        /* \"contracts/forum.sol\":58:16282  contract HKUSTForum {... */\n      mstore(0x40, 0x80)\n      callvalue\n      dup1\n      iszero\n      tag_1\n      jumpi\n      0x00\n      dup1\n      revert\n    tag_1:\n      pop\n      jumpi(tag_2, lt(calldatasize, 0x04))\n      shr(0xe0, calldataload(0x00))\n      dup1\n      0x392338f5\n      gt\n      tag_14\n      jumpi\n      dup1\n      0x392338f5\n      eq\n      tag_8\n      jumpi\n      dup1\n      0x40731c24\n      eq\n      tag_9\n      jumpi\n      dup1\n      0x43859632\n      eq\n      tag_10\n      jumpi\n      dup1\n      0x48892753\n      eq\n      tag_11\n      jumpi\n      dup1\n      0xd04f8bad\n      eq\n      tag_12\n      jumpi\n      dup1\n      0xfc6c776f\n      eq\n      tag_13\n      jumpi\n      jump(tag_2)\n    tag_14:\n      dup1\n      0x0b1e7f83\n      eq\n      tag_3\n      jumpi\n      dup1\n      0x0d4bfb4f\n      eq\n      tag_4\n      jumpi\n      dup1\n      0x1521e616\n      eq\n      tag_5\n      jumpi\n      dup1\n      0x17906c2e\n      eq\n      tag_6\n      jumpi\n      dup1\n      0x25cfb1c5\n      eq\n      tag_7\n      jumpi\n    tag_2:\n      0x00\n      dup1\n      revert\n        /* \"contracts/forum.sol\":835:872  mapping(uint256 => Post) public posts */\n    tag_3:\n      tag_15\n      0x04\n      dup1\n      calldatasize\n      sub\n      dup2\n      add\n      swap1\n      tag_16\n      swap2\n      swap1\n      tag_17\n      jump\t// in\n    tag_16:\n      tag_18\n      jump\t// in\n    tag_15:\n      mload(0x40)\n      tag_19\n      swap9\n      swap8\n      swap7\n      swap6\n      swap5\n      swap4\n      swap3\n      swap2\n      swap1\n      tag_20\n      jump\t// in\n    tag_19:\n      mload(0x40)\n      dup1\n      swap2\n      sub\n      swap1\n      return\n        /* \"contracts/forum.sol\":13775:13973  function getCommentCount(uint256 _postId) external view returns (uint256) {... */\n    tag_4:\n      tag_21\n      0x04\n      dup1\n      calldatasize\n      sub\n      dup2\n      add\n      swap1\n      tag_22\n      swap2\n      swap1\n      tag_17\n      jump\t// in\n    tag_22:\n      tag_23\n      jump\t// in\n    tag_21:\n      mload(0x40)\n      tag_24\n      swap2\n      swap1\n      tag_25\n      jump\t// in\n    tag_24:\n      mload(0x40)\n      dup1\n      swap2\n      sub\n      swap1\n      return\n        /* \"contracts/forum.sol\":10628:11286  function addComment(uint256 _postId, string memory _content, string memory _tag) external {... */\n    tag_5:\n      tag_26\n      0x04\n      dup1\n      calldatasize\n      sub\n      dup2\n      add\n      swap1\n      tag_27\n      swap2\n      swap1\n      tag_28\n      jump\t// in\n    tag_27:\n      tag_29\n      jump\t// in\n    tag_26:\n      stop\n        /* \"contracts/forum.sol\":878:902  uint256 public postCount */\n    tag_6:\n      tag_30\n      tag_31\n      jump\t// in\n    tag_30:\n      mload(0x40)\n      tag_32\n      swap2\n      swap1\n      tag_25\n      jump\t// in\n    tag_32:\n      mload(0x40)\n      dup1\n      swap2\n      sub\n      swap1\n      return\n        /* \"contracts/forum.sol\":11959:13765  function getCommentsBatch(uint256 _postId, uint256 _startId, uint256 _batchSize) external view returns (... */\n    tag_7:\n      tag_33\n      0x04\n      dup1\n      calldatasize\n      sub\n      dup2\n      add\n      swap1\n      tag_34\n      swap2\n      swap1\n      tag_35\n      jump\t// in\n    tag_34:\n      tag_36\n      jump\t// in\n    tag_33:\n      mload(0x40)\n      tag_37\n      swap6\n      swap5\n      swap4\n      swap3\n      swap2\n      swap1\n      tag_38\n      jump\t// in\n    tag_37:\n      mload(0x40)\n      dup1\n      swap2\n      sub\n      swap1\n      return\n        /* \"contracts/forum.sol\":10020:10618  function createPost(string memory _content, string memory _tag) external {... */\n    tag_8:\n      tag_39\n      0x04\n      dup1\n      calldatasize\n      sub\n      dup2\n      add\n      swap1\n      tag_40\n      swap2\n      swap1\n      tag_41\n      jump\t// in\n    tag_40:\n      tag_42\n      jump\t// in\n    tag_39:\n      stop\n        /* \"contracts/forum.sol\":15392:16062  function getPost(uint256 _postId) external view returns (... */\n    tag_9:\n      tag_43\n      0x04\n      dup1\n      calldatasize\n      sub\n      dup2\n      add\n      swap1\n      tag_44\n      swap2\n      swap1\n      tag_17\n      jump\t// in\n    tag_44:\n      tag_45\n      jump\t// in\n    tag_43:\n      mload(0x40)\n      tag_46\n      swap9\n      swap8\n      swap7\n      swap6\n      swap5\n      swap4\n      swap3\n      swap2\n      swap1\n      tag_20\n      jump\t// in\n    tag_46:\n      mload(0x40)\n      dup1\n      swap2\n      sub\n      swap1\n      return\n        /* \"contracts/forum.sol\":16072:16280  function hasVoted(uint256 _postId, address _voter) external view returns (bool) {... */\n    tag_10:\n      tag_47\n      0x04\n      dup1\n      calldatasize\n      sub\n      dup2\n      add\n      swap1\n      tag_48\n      swap2\n      swap1\n      tag_49\n      jump\t// in\n    tag_48:\n      tag_50\n      jump\t// in\n    tag_47:\n      mload(0x40)\n      tag_51\n      swap2\n      swap1\n      tag_52\n      jump\t// in\n    tag_51:\n      mload(0x40)\n      dup1\n      swap2\n      sub\n      swap1\n      return\n        /* \"contracts/forum.sol\":11360:11949  function getComment(uint256 _postId, uint256 _commentId) external view returns (... */\n    tag_11:\n      tag_53\n      0x04\n      dup1\n      calldatasize\n      sub\n      dup2\n      add\n      swap1\n      tag_54\n      swap2\n      swap1\n      tag_55\n      jump\t// in\n    tag_54:\n      tag_56\n      jump\t// in\n    tag_53:\n      mload(0x40)\n      tag_57\n      swap5\n      swap4\n      swap3\n      swap2\n      swap1\n      tag_58\n      jump\t// in\n    tag_57:\n      mload(0x40)\n      dup1\n      swap2\n      sub\n      swap1\n      return\n        /* \"contracts/forum.sol\":14101:15232  function challengeAndVote(uint256 _postId, bool _isRealVote) external {... */\n    tag_12:\n      tag_59\n      0x04\n      dup1\n      calldatasize\n      sub\n      dup2\n      add\n      swap1\n      tag_60\n      swap2\n      swap1\n      tag_61\n      jump\t// in\n    tag_60:\n      tag_62\n      jump\t// in\n    tag_59:\n      stop\n        /* \"contracts/forum.sol\":956:1019  mapping(uint256 => mapping(uint256 => Comment)) public comments */\n    tag_13:\n      tag_63\n      0x04\n      dup1\n      calldatasize\n      sub\n      dup2\n      add\n      swap1\n      tag_64\n      swap2\n      swap1\n      tag_55\n      jump\t// in\n    tag_64:\n      tag_65\n      jump\t// in\n    tag_63:\n      mload(0x40)\n      tag_66\n      swap5\n      swap4\n      swap3\n      swap2\n      swap1\n      tag_58\n      jump\t// in\n    tag_66:\n      mload(0x40)\n      dup1\n      swap2\n      sub\n      swap1\n      return\n        /* \"contracts/forum.sol\":835:872  mapping(uint256 => Post) public posts */\n    tag_18:\n      mstore(0x20, 0x00)\n      dup1\n      0x00\n      mstore\n      keccak256(0x00, 0x40)\n      0x00\n      swap2\n      pop\n      swap1\n      pop\n      dup1\n      0x00\n      add\n      0x00\n      swap1\n      sload\n      swap1\n      0x0100\n      exp\n      swap1\n      div\n      0xffffffffffffffffffffffffffffffffffffffff\n      and\n      swap1\n      dup1\n      0x01\n      add\n      dup1\n      sload\n      tag_67\n      swap1\n      tag_68\n      jump\t// in\n    tag_67:\n      dup1\n      0x1f\n      add\n      0x20\n      dup1\n      swap2\n      div\n      mul\n      0x20\n      add\n      mload(0x40)\n      swap1\n      dup2\n      add\n      0x40\n      mstore\n      dup1\n      swap3\n      swap2\n      swap1\n      dup2\n      dup2\n      mstore\n      0x20\n      add\n      dup3\n      dup1\n      sload\n      tag_69\n      swap1\n      tag_68\n      jump\t// in\n    tag_69:\n      dup1\n      iszero\n      tag_70\n      jumpi\n      dup1\n      0x1f\n      lt\n      tag_71\n      jumpi\n      0x0100\n      dup1\n      dup4\n      sload\n      div\n      mul\n      dup4\n      mstore\n      swap2\n      0x20\n      add\n      swap2\n      jump(tag_70)\n    tag_71:\n      dup3\n      add\n      swap2\n      swap1\n      0x00\n      mstore\n      keccak256(0x00, 0x20)\n      swap1\n    tag_72:\n      dup2\n      sload\n      dup2\n      mstore\n      swap1\n      0x01\n      add\n      swap1\n      0x20\n      add\n      dup1\n      dup4\n      gt\n      tag_72\n      jumpi\n      dup3\n      swap1\n      sub\n      0x1f\n      and\n      dup3\n      add\n      swap2\n    tag_70:\n      pop\n      pop\n      pop\n      pop\n      pop\n      swap1\n      dup1\n      0x02\n      add\n      dup1\n      sload\n      tag_73\n      swap1\n      tag_68\n      jump\t// in\n    tag_73:\n      dup1\n      0x1f\n      add\n      0x20\n      dup1\n      swap2\n      div\n      mul\n      0x20\n      add\n      mload(0x40)\n      swap1\n      dup2\n      add\n      0x40\n      mstore\n      dup1\n      swap3\n      swap2\n      swap1\n      dup2\n      dup2\n      mstore\n      0x20\n      add\n      dup3\n      dup1\n      sload\n      tag_74\n      swap1\n      tag_68\n      jump\t// in\n    tag_74:\n      dup1\n      iszero\n      tag_75\n      jumpi\n      dup1\n      0x1f\n      lt\n      tag_76\n      jumpi\n      0x0100\n      dup1\n      dup4\n      sload\n      div\n      mul\n      dup4\n      mstore\n      swap2\n      0x20\n      add\n      swap2\n      jump(tag_75)\n    tag_76:\n      dup3\n      add\n      swap2\n      swap1\n      0x00\n      mstore\n      keccak256(0x00, 0x20)\n      swap1\n    tag_77:\n      dup2\n      sload\n      dup2\n      mstore\n      swap1\n      0x01\n      add\n      swap1\n      0x20\n      add\n      dup1\n      dup4\n      gt\n      tag_77\n      jumpi\n      dup3\n      swap1\n      sub\n      0x1f\n      and\n      dup3\n      add\n      swap2\n    tag_75:\n      pop\n      pop\n      pop\n      pop\n      pop\n      swap1\n      dup1\n      0x03\n      add\n      sload\n      swap1\n      dup1\n      0x04\n      add\n      0x00\n      swap1\n      sload\n      swap1\n      0x0100\n      exp\n      swap1\n      div\n      0xff\n      and\n      swap1\n      dup1\n      0x05\n      add\n      sload\n      swap1\n      dup1\n      0x06\n      add\n      sload\n      swap1\n      dup1\n      0x08\n      add\n      sload\n      swap1\n      pop\n      dup9\n      jump\t// out\n        /* \"contracts/forum.sol\":13775:13973  function getCommentCount(uint256 _postId) external view returns (uint256) {... */\n    tag_23:\n        /* \"contracts/forum.sol\":13840:13847  uint256 */\n      0x00\n        /* \"contracts/forum.sol\":13877:13878  0 */\n      dup1\n        /* \"contracts/forum.sol\":13867:13874  _postId */\n      dup3\n        /* \"contracts/forum.sol\":13867:13878  _postId > 0 */\n      gt\n        /* \"contracts/forum.sol\":13867:13902  _postId > 0 && _postId <= postCount */\n      dup1\n      iszero\n      tag_79\n      jumpi\n      pop\n        /* \"contracts/forum.sol\":13893:13902  postCount */\n      sload(0x01)\n        /* \"contracts/forum.sol\":13882:13889  _postId */\n      dup3\n        /* \"contracts/forum.sol\":13882:13902  _postId <= postCount */\n      gt\n      iszero\n        /* \"contracts/forum.sol\":13867:13902  _postId > 0 && _postId <= postCount */\n    tag_79:\n        /* \"contracts/forum.sol\":13859:13922  require(_postId > 0 && _postId <= postCount, \"Invalid post ID\") */\n      tag_80\n      jumpi\n      mload(0x40)\n      0x08c379a000000000000000000000000000000000000000000000000000000000\n      dup2\n      mstore\n      0x04\n      add\n      tag_81\n      swap1\n      tag_82\n      jump\t// in\n    tag_81:\n      mload(0x40)\n      dup1\n      swap2\n      sub\n      swap1\n      revert\n    tag_80:\n        /* \"contracts/forum.sol\":13939:13944  posts */\n      0x00\n        /* \"contracts/forum.sol\":13939:13953  posts[_postId] */\n      dup1\n        /* \"contracts/forum.sol\":13945:13952  _postId */\n      dup4\n        /* \"contracts/forum.sol\":13939:13953  posts[_postId] */\n      dup2\n      mstore\n      0x20\n      add\n      swap1\n      dup2\n      mstore\n      0x20\n      add\n      0x00\n      keccak256\n        /* \"contracts/forum.sol\":13939:13966  posts[_postId].commentCount */\n      0x08\n      add\n      sload\n        /* \"contracts/forum.sol\":13932:13966  return posts[_postId].commentCount */\n      swap1\n      pop\n        /* \"contracts/forum.sol\":13775:13973  function getCommentCount(uint256 _postId) external view returns (uint256) {... */\n      swap2\n      swap1\n      pop\n      jump\t// out\n        /* \"contracts/forum.sol\":10628:11286  function addComment(uint256 _postId, string memory _content, string memory _tag) external {... */\n    tag_29:\n        /* \"contracts/forum.sol\":10746:10747  0 */\n      0x00\n        /* \"contracts/forum.sol\":10736:10743  _postId */\n      dup4\n        /* \"contracts/forum.sol\":10736:10747  _postId > 0 */\n      gt\n        /* \"contracts/forum.sol\":10736:10771  _postId > 0 && _postId <= postCount */\n      dup1\n      iszero\n      tag_84\n      jumpi\n      pop\n        /* \"contracts/forum.sol\":10762:10771  postCount */\n      sload(0x01)\n        /* \"contracts/forum.sol\":10751:10758  _postId */\n      dup4\n        /* \"contracts/forum.sol\":10751:10771  _postId <= postCount */\n      gt\n      iszero\n        /* \"contracts/forum.sol\":10736:10771  _postId > 0 && _postId <= postCount */\n    tag_84:\n        /* \"contracts/forum.sol\":10728:10791  require(_postId > 0 && _postId <= postCount, \"Invalid post ID\") */\n      tag_85\n      jumpi\n      mload(0x40)\n      0x08c379a000000000000000000000000000000000000000000000000000000000\n      dup2\n      mstore\n      0x04\n      add\n      tag_86\n      swap1\n      tag_82\n      jump\t// in\n    tag_86:\n      mload(0x40)\n      dup1\n      swap2\n      sub\n      swap1\n      revert\n    tag_85:\n        /* \"contracts/forum.sol\":10834:10835  0 */\n      0x00\n        /* \"contracts/forum.sol\":10815:10823  _content */\n      dup3\n        /* \"contracts/forum.sol\":10809:10831  bytes(_content).length */\n      mload\n        /* \"contracts/forum.sol\":10809:10835  bytes(_content).length > 0 */\n      gt\n        /* \"contracts/forum.sol\":10801:10863  require(bytes(_content).length > 0, \"Comment cannot be empty\") */\n      tag_87\n      jumpi\n      mload(0x40)\n      0x08c379a000000000000000000000000000000000000000000000000000000000\n      dup2\n      mstore\n      0x04\n      add\n      tag_88\n      swap1\n      tag_89\n      jump\t// in\n    tag_88:\n      mload(0x40)\n      dup1\n      swap2\n      sub\n      swap1\n      revert\n    tag_87:\n        /* \"contracts/forum.sol\":10882:10899  Post storage post */\n      0x00\n        /* \"contracts/forum.sol\":10902:10907  posts */\n      dup1\n        /* \"contracts/forum.sol\":10902:10916  posts[_postId] */\n      0x00\n        /* \"contracts/forum.sol\":10908:10915  _postId */\n      dup6\n        /* \"contracts/forum.sol\":10902:10916  posts[_postId] */\n      dup2\n      mstore\n      0x20\n      add\n      swap1\n      dup2\n      mstore\n      0x20\n      add\n      0x00\n      keccak256\n        /* \"contracts/forum.sol\":10882:10916  Post storage post = posts[_postId] */\n      swap1\n      pop\n        /* \"contracts/forum.sol\":10926:10930  post */\n      dup1\n        /* \"contracts/forum.sol\":10926:10943  post.commentCount */\n      0x08\n      add\n      0x00\n        /* \"contracts/forum.sol\":10926:10945  post.commentCount++ */\n      dup2\n      sload\n      dup1\n      swap3\n      swap2\n      swap1\n      tag_90\n      swap1\n      tag_91\n      jump\t// in\n    tag_90:\n      swap2\n      swap1\n      pop\n      sstore\n      pop\n        /* \"contracts/forum.sol\":10964:10990  Comment storage newComment */\n      0x00\n        /* \"contracts/forum.sol\":10993:11001  comments */\n      0x02\n        /* \"contracts/forum.sol\":10993:11010  comments[_postId] */\n      0x00\n        /* \"contracts/forum.sol\":11002:11009  _postId */\n      dup7\n        /* \"contracts/forum.sol\":10993:11010  comments[_postId] */\n      dup2\n      mstore\n      0x20\n      add\n      swap1\n      dup2\n      mstore\n      0x20\n      add\n      0x00\n      keccak256\n        /* \"contracts/forum.sol\":10993:11029  comments[_postId][post.commentCount] */\n      0x00\n        /* \"contracts/forum.sol\":11011:11015  post */\n      dup4\n        /* \"contracts/forum.sol\":11011:11028  post.commentCount */\n      0x08\n      add\n      sload\n        /* \"contracts/forum.sol\":10993:11029  comments[_postId][post.commentCount] */\n      dup2\n      mstore\n      0x20\n      add\n      swap1\n      dup2\n      mstore\n      0x20\n      add\n      0x00\n      keccak256\n        /* \"contracts/forum.sol\":10964:11029  Comment storage newComment = comments[_postId][post.commentCount] */\n      swap1\n      pop\n        /* \"contracts/forum.sol\":11059:11069  msg.sender */\n      caller\n        /* \"contracts/forum.sol\":11039:11049  newComment */\n      dup2\n        /* \"contracts/forum.sol\":11039:11056  newComment.author */\n      0x00\n      add\n      0x00\n        /* \"contracts/forum.sol\":11039:11069  newComment.author = msg.sender */\n      0x0100\n      exp\n      dup2\n      sload\n      dup2\n      0xffffffffffffffffffffffffffffffffffffffff\n      mul\n      not\n      and\n      swap1\n      dup4\n      0xffffffffffffffffffffffffffffffffffffffff\n      and\n      mul\n      or\n      swap1\n      sstore\n      pop\n        /* \"contracts/forum.sol\":11100:11108  _content */\n      dup4\n        /* \"contracts/forum.sol\":11079:11089  newComment */\n      dup2\n        /* \"contracts/forum.sol\":11079:11097  newComment.content */\n      0x01\n      add\n        /* \"contracts/forum.sol\":11079:11108  newComment.content = _content */\n      swap1\n      dup2\n      tag_92\n      swap2\n      swap1\n      tag_93\n      jump\t// in\n    tag_92:\n      pop\n        /* \"contracts/forum.sol\":11135:11139  _tag */\n      dup3\n        /* \"contracts/forum.sol\":11118:11128  newComment */\n      dup2\n        /* \"contracts/forum.sol\":11118:11132  newComment.tag */\n      0x02\n      add\n        /* \"contracts/forum.sol\":11118:11139  newComment.tag = _tag */\n      swap1\n      dup2\n      tag_94\n      swap2\n      swap1\n      tag_93\n      jump\t// in\n    tag_94:\n      pop\n        /* \"contracts/forum.sol\":11172:11187  block.timestamp */\n      timestamp\n        /* \"contracts/forum.sol\":11149:11159  newComment */\n      dup2\n        /* \"contracts/forum.sol\":11149:11169  newComment.timestamp */\n      0x03\n      add\n        /* \"contracts/forum.sol\":11149:11187  newComment.timestamp = block.timestamp */\n      dup2\n      swap1\n      sstore\n      pop\n        /* \"contracts/forum.sol\":11252:11262  msg.sender */\n      caller\n        /* \"contracts/forum.sol\":11211:11279  CommentAdded(_postId, post.commentCount, msg.sender, _content, _tag) */\n      0xffffffffffffffffffffffffffffffffffffffff\n      and\n        /* \"contracts/forum.sol\":11233:11237  post */\n      dup3\n        /* \"contracts/forum.sol\":11233:11250  post.commentCount */\n      0x08\n      add\n      sload\n        /* \"contracts/forum.sol\":11224:11231  _postId */\n      dup7\n        /* \"contracts/forum.sol\":11211:11279  CommentAdded(_postId, post.commentCount, msg.sender, _content, _tag) */\n      0x03a56e2377acf256c15a50f0b97834fa29a151d0b8a6d05c450576e40634fadc\n        /* \"contracts/forum.sol\":11264:11272  _content */\n      dup8\n        /* \"contracts/forum.sol\":11274:11278  _tag */\n      dup8\n        /* \"contracts/forum.sol\":11211:11279  CommentAdded(_postId, post.commentCount, msg.sender, _content, _tag) */\n      mload(0x40)\n      tag_95\n      swap3\n      swap2\n      swap1\n      tag_96\n      jump\t// in\n    tag_95:\n      mload(0x40)\n      dup1\n      swap2\n      sub\n      swap1\n      log4\n        /* \"contracts/forum.sol\":10718:11286  {... */\n      pop\n      pop\n        /* \"contracts/forum.sol\":10628:11286  function addComment(uint256 _postId, string memory _content, string memory _tag) external {... */\n      pop\n      pop\n      pop\n      jump\t// out\n        /* \"contracts/forum.sol\":878:902  uint256 public postCount */\n    tag_31:\n      sload(0x01)\n      dup2\n      jump\t// out\n        /* \"contracts/forum.sol\":11959:13765  function getCommentsBatch(uint256 _postId, uint256 _startId, uint256 _batchSize) external view returns (... */\n    tag_36:\n        /* \"contracts/forum.sol\":12072:12096  address[] memory authors */\n      0x60\n        /* \"contracts/forum.sol\":12106:12130  string[] memory contents */\n      dup1\n        /* \"contracts/forum.sol\":12140:12160  string[] memory tags */\n      0x60\n        /* \"contracts/forum.sol\":12170:12197  uint256[] memory timestamps */\n      dup1\n        /* \"contracts/forum.sol\":12207:12225  uint256 totalCount */\n      0x00\n        /* \"contracts/forum.sol\":12260:12261  0 */\n      dup1\n        /* \"contracts/forum.sol\":12250:12257  _postId */\n      dup9\n        /* \"contracts/forum.sol\":12250:12261  _postId > 0 */\n      gt\n        /* \"contracts/forum.sol\":12250:12285  _postId > 0 && _postId <= postCount */\n      dup1\n      iszero\n      tag_98\n      jumpi\n      pop\n        /* \"contracts/forum.sol\":12276:12285  postCount */\n      sload(0x01)\n        /* \"contracts/forum.sol\":12265:12272  _postId */\n      dup9\n        /* \"contracts/forum.sol\":12265:12285  _postId <= postCount */\n      gt\n      iszero\n        /* \"contracts/forum.sol\":12250:12285  _postId > 0 && _postId <= postCount */\n    tag_98:\n        /* \"contracts/forum.sol\":12242:12305  require(_postId > 0 && _postId <= postCount, \"Invalid post ID\") */\n      tag_99\n      jumpi\n      mload(0x40)\n      0x08c379a000000000000000000000000000000000000000000000000000000000\n      dup2\n      mstore\n      0x04\n      add\n      tag_100\n      swap1\n      tag_82\n      jump\t// in\n    tag_100:\n      mload(0x40)\n      dup1\n      swap2\n      sub\n      swap1\n      revert\n    tag_99:\n        /* \"contracts/forum.sol\":12334:12335  0 */\n      0x00\n        /* \"contracts/forum.sol\":12323:12331  _startId */\n      dup8\n        /* \"contracts/forum.sol\":12323:12335  _startId > 0 */\n      gt\n        /* \"contracts/forum.sol\":12315:12371  require(_startId > 0, \"Start ID must be greater than 0\") */\n      tag_101\n      jumpi\n      mload(0x40)\n      0x08c379a000000000000000000000000000000000000000000000000000000000\n      dup2\n      mstore\n      0x04\n      add\n      tag_102\n      swap1\n      tag_103\n      jump\t// in\n    tag_102:\n      mload(0x40)\n      dup1\n      swap2\n      sub\n      swap1\n      revert\n    tag_101:\n        /* \"contracts/forum.sol\":12390:12410  uint256 commentCount */\n      0x00\n        /* \"contracts/forum.sol\":12413:12418  posts */\n      dup1\n        /* \"contracts/forum.sol\":12413:12427  posts[_postId] */\n      0x00\n        /* \"contracts/forum.sol\":12419:12426  _postId */\n      dup11\n        /* \"contracts/forum.sol\":12413:12427  posts[_postId] */\n      dup2\n      mstore\n      0x20\n      add\n      swap1\n      dup2\n      mstore\n      0x20\n      add\n      0x00\n      keccak256\n        /* \"contracts/forum.sol\":12413:12440  posts[_postId].commentCount */\n      0x08\n      add\n      sload\n        /* \"contracts/forum.sol\":12390:12440  uint256 commentCount = posts[_postId].commentCount */\n      swap1\n      pop\n        /* \"contracts/forum.sol\":12463:12475  commentCount */\n      dup1\n        /* \"contracts/forum.sol\":12450:12475  totalCount = commentCount */\n      swap2\n      pop\n        /* \"contracts/forum.sol\":12583:12595  commentCount */\n      dup1\n        /* \"contracts/forum.sol\":12572:12580  _startId */\n      dup9\n        /* \"contracts/forum.sol\":12572:12595  _startId > commentCount */\n      gt\n        /* \"contracts/forum.sol\":12568:12711  if (_startId > commentCount) {... */\n      iszero\n      tag_104\n      jumpi\n        /* \"contracts/forum.sol\":12633:12634  0 */\n      0x00\n        /* \"contracts/forum.sol\":12619:12635  new address[](0) */\n      0xffffffffffffffff\n      dup2\n      gt\n      iszero\n      tag_105\n      jumpi\n      tag_106\n      tag_107\n      jump\t// in\n    tag_106:\n    tag_105:\n      mload(0x40)\n      swap1\n      dup1\n      dup3\n      mstore\n      dup1\n      0x20\n      mul\n      0x20\n      add\n      dup3\n      add\n      0x40\n      mstore\n      dup1\n      iszero\n      tag_108\n      jumpi\n      dup2\n      0x20\n      add\n      0x20\n      dup3\n      mul\n      dup1\n      calldatasize\n      dup4\n      calldatacopy\n      dup1\n      dup3\n      add\n      swap2\n      pop\n      pop\n      swap1\n      pop\n    tag_108:\n      pop\n        /* \"contracts/forum.sol\":12650:12651  0 */\n      0x00\n        /* \"contracts/forum.sol\":12637:12652  new string[](0) */\n      0xffffffffffffffff\n      dup2\n      gt\n      iszero\n      tag_109\n      jumpi\n      tag_110\n      tag_107\n      jump\t// in\n    tag_110:\n    tag_109:\n      mload(0x40)\n      swap1\n      dup1\n      dup3\n      mstore\n      dup1\n      0x20\n      mul\n      0x20\n      add\n      dup3\n      add\n      0x40\n      mstore\n      dup1\n      iszero\n      tag_111\n      jumpi\n      dup2\n      0x20\n      add\n    tag_112:\n      0x60\n      dup2\n      mstore\n      0x20\n      add\n      swap1\n      0x01\n      swap1\n      sub\n      swap1\n      dup2\n      tag_112\n      jumpi\n      swap1\n      pop\n    tag_111:\n      pop\n        /* \"contracts/forum.sol\":12667:12668  0 */\n      0x00\n        /* \"contracts/forum.sol\":12654:12669  new string[](0) */\n      0xffffffffffffffff\n      dup2\n      gt\n      iszero\n      tag_113\n      jumpi\n      tag_114\n      tag_107\n      jump\t// in\n    tag_114:\n    tag_113:\n      mload(0x40)\n      swap1\n      dup1\n      dup3\n      mstore\n      dup1\n      0x20\n      mul\n      0x20\n      add\n      dup3\n      add\n      0x40\n      mstore\n      dup1\n      iszero\n      tag_115\n      jumpi\n      dup2\n      0x20\n      add\n    tag_116:\n      0x60\n      dup2\n      mstore\n      0x20\n      add\n      swap1\n      0x01\n      swap1\n      sub\n      swap1\n      dup2\n      tag_116\n      jumpi\n      swap1\n      pop\n    tag_115:\n      pop\n        /* \"contracts/forum.sol\":12685:12686  0 */\n      0x00\n        /* \"contracts/forum.sol\":12671:12687  new uint256[](0) */\n      0xffffffffffffffff\n      dup2\n      gt\n      iszero\n      tag_117\n      jumpi\n      tag_118\n      tag_107\n      jump\t// in\n    tag_118:\n    tag_117:\n      mload(0x40)\n      swap1\n      dup1\n      dup3\n      mstore\n      dup1\n      0x20\n      mul\n      0x20\n      add\n      dup3\n      add\n      0x40\n      mstore\n      dup1\n      iszero\n      tag_119\n      jumpi\n      dup2\n      0x20\n      add\n      0x20\n      dup3\n      mul\n      dup1\n      calldatasize\n      dup4\n      calldatacopy\n      dup1\n      dup3\n      add\n      swap2\n      pop\n      pop\n      swap1\n      pop\n    tag_119:\n      pop\n        /* \"contracts/forum.sol\":12611:12700  return (new address[](0), new string[](0), new string[](0), new uint256[](0), totalCount) */\n      swap6\n      pop\n      swap6\n      pop\n      swap6\n      pop\n      swap6\n      pop\n      pop\n      jump(tag_97)\n        /* \"contracts/forum.sol\":12568:12711  if (_startId > commentCount) {... */\n    tag_104:\n        /* \"contracts/forum.sol\":12776:12793  uint256 batchSize */\n      0x00\n        /* \"contracts/forum.sol\":12796:12806  _batchSize */\n      dup8\n        /* \"contracts/forum.sol\":12776:12806  uint256 batchSize = _batchSize */\n      swap1\n      pop\n        /* \"contracts/forum.sol\":185:187  20 */\n      0x14\n        /* \"contracts/forum.sol\":12820:12829  batchSize */\n      dup2\n        /* \"contracts/forum.sol\":12820:12846  batchSize > MAX_BATCH_SIZE */\n      gt\n        /* \"contracts/forum.sol\":12816:12899  if (batchSize > MAX_BATCH_SIZE) {... */\n      iszero\n      tag_120\n      jumpi\n        /* \"contracts/forum.sol\":185:187  20 */\n      0x14\n        /* \"contracts/forum.sol\":12862:12888  batchSize = MAX_BATCH_SIZE */\n      swap1\n      pop\n        /* \"contracts/forum.sol\":12816:12899  if (batchSize > MAX_BATCH_SIZE) {... */\n    tag_120:\n        /* \"contracts/forum.sol\":12984:13009  uint256 remainingComments */\n      0x00\n        /* \"contracts/forum.sol\":13038:13039  1 */\n      0x01\n        /* \"contracts/forum.sol\":13027:13035  _startId */\n      dup11\n        /* \"contracts/forum.sol\":13012:13024  commentCount */\n      dup5\n        /* \"contracts/forum.sol\":13012:13035  commentCount - _startId */\n      tag_121\n      swap2\n      swap1\n      tag_122\n      jump\t// in\n    tag_121:\n        /* \"contracts/forum.sol\":13012:13039  commentCount - _startId + 1 */\n      tag_123\n      swap2\n      swap1\n      tag_124\n      jump\t// in\n    tag_123:\n        /* \"contracts/forum.sol\":12984:13039  uint256 remainingComments = commentCount - _startId + 1 */\n      swap1\n      pop\n        /* \"contracts/forum.sol\":13065:13082  remainingComments */\n      dup1\n        /* \"contracts/forum.sol\":13053:13062  batchSize */\n      dup3\n        /* \"contracts/forum.sol\":13053:13082  batchSize > remainingComments */\n      gt\n        /* \"contracts/forum.sol\":13049:13138  if (batchSize > remainingComments) {... */\n      iszero\n      tag_125\n      jumpi\n        /* \"contracts/forum.sol\":13110:13127  remainingComments */\n      dup1\n        /* \"contracts/forum.sol\":13098:13127  batchSize = remainingComments */\n      swap2\n      pop\n        /* \"contracts/forum.sol\":13049:13138  if (batchSize > remainingComments) {... */\n    tag_125:\n        /* \"contracts/forum.sol\":13180:13189  batchSize */\n      dup2\n        /* \"contracts/forum.sol\":13166:13190  new address[](batchSize) */\n      0xffffffffffffffff\n      dup2\n      gt\n      iszero\n      tag_126\n      jumpi\n      tag_127\n      tag_107\n      jump\t// in\n    tag_127:\n    tag_126:\n      mload(0x40)\n      swap1\n      dup1\n      dup3\n      mstore\n      dup1\n      0x20\n      mul\n      0x20\n      add\n      dup3\n      add\n      0x40\n      mstore\n      dup1\n      iszero\n      tag_128\n      jumpi\n      dup2\n      0x20\n      add\n      0x20\n      dup3\n      mul\n      dup1\n      calldatasize\n      dup4\n      calldatacopy\n      dup1\n      dup3\n      add\n      swap2\n      pop\n      pop\n      swap1\n      pop\n    tag_128:\n      pop\n        /* \"contracts/forum.sol\":13156:13190  authors = new address[](batchSize) */\n      swap8\n      pop\n        /* \"contracts/forum.sol\":13224:13233  batchSize */\n      dup2\n        /* \"contracts/forum.sol\":13211:13234  new string[](batchSize) */\n      0xffffffffffffffff\n      dup2\n      gt\n      iszero\n      tag_129\n      jumpi\n      tag_130\n      tag_107\n      jump\t// in\n    tag_130:\n    tag_129:\n      mload(0x40)\n      swap1\n      dup1\n      dup3\n      mstore\n      dup1\n      0x20\n      mul\n      0x20\n      add\n      dup3\n      add\n      0x40\n      mstore\n      dup1\n      iszero\n      tag_131\n      jumpi\n      dup2\n      0x20\n      add\n    tag_132:\n      0x60\n      dup2\n      mstore\n      0x20\n      add\n      swap1\n      0x01\n      swap1\n      sub\n      swap1\n      dup2\n      tag_132\n      jumpi\n      swap1\n      pop\n    tag_131:\n      pop\n        /* \"contracts/forum.sol\":13200:13234  contents = new string[](batchSize) */\n      swap7\n      pop\n        /* \"contracts/forum.sol\":13264:13273  batchSize */\n      dup2\n        /* \"contracts/forum.sol\":13251:13274  new string[](batchSize) */\n      0xffffffffffffffff\n      dup2\n      gt\n      iszero\n      tag_133\n      jumpi\n      tag_134\n      tag_107\n      jump\t// in\n    tag_134:\n    tag_133:\n      mload(0x40)\n      swap1\n      dup1\n      dup3\n      mstore\n      dup1\n      0x20\n      mul\n      0x20\n      add\n      dup3\n      add\n      0x40\n      mstore\n      dup1\n      iszero\n      tag_135\n      jumpi\n      dup2\n      0x20\n      add\n    tag_136:\n      0x60\n      dup2\n      mstore\n      0x20\n      add\n      swap1\n      0x01\n      swap1\n      sub\n      swap1\n      dup2\n      tag_136\n      jumpi\n      swap1\n      pop\n    tag_135:\n      pop\n        /* \"contracts/forum.sol\":13244:13274  tags = new string[](batchSize) */\n      swap6\n      pop\n        /* \"contracts/forum.sol\":13311:13320  batchSize */\n      dup2\n        /* \"contracts/forum.sol\":13297:13321  new uint256[](batchSize) */\n      0xffffffffffffffff\n      dup2\n      gt\n      iszero\n      tag_137\n      jumpi\n      tag_138\n      tag_107\n      jump\t// in\n    tag_138:\n    tag_137:\n      mload(0x40)\n      swap1\n      dup1\n      dup3\n      mstore\n      dup1\n      0x20\n      mul\n      0x20\n      add\n      dup3\n      add\n      0x40\n      mstore\n      dup1\n      iszero\n      tag_139\n      jumpi\n      dup2\n      0x20\n      add\n      0x20\n      dup3\n      mul\n      dup1\n      calldatasize\n      dup4\n      calldatacopy\n      dup1\n      dup3\n      add\n      swap2\n      pop\n      pop\n      swap1\n      pop\n    tag_139:\n      pop\n        /* \"contracts/forum.sol\":13284:13321  timestamps = new uint256[](batchSize) */\n      swap5\n      pop\n        /* \"contracts/forum.sol\":13345:13354  uint256 i */\n      0x00\n        /* \"contracts/forum.sol\":13340:13684  for (uint256 i = 0; i < batchSize; i++) {... */\n    tag_140:\n        /* \"contracts/forum.sol\":13364:13373  batchSize */\n      dup3\n        /* \"contracts/forum.sol\":13360:13361  i */\n      dup2\n        /* \"contracts/forum.sol\":13360:13373  i < batchSize */\n      lt\n        /* \"contracts/forum.sol\":13340:13684  for (uint256 i = 0; i < batchSize; i++) {... */\n      iszero\n      tag_141\n      jumpi\n        /* \"contracts/forum.sol\":13394:13411  uint256 commentId */\n      0x00\n        /* \"contracts/forum.sol\":13425:13426  i */\n      dup2\n        /* \"contracts/forum.sol\":13414:13422  _startId */\n      dup13\n        /* \"contracts/forum.sol\":13414:13426  _startId + i */\n      tag_143\n      swap2\n      swap1\n      tag_124\n      jump\t// in\n    tag_143:\n        /* \"contracts/forum.sol\":13394:13426  uint256 commentId = _startId + i */\n      swap1\n      pop\n        /* \"contracts/forum.sol\":13440:13463  Comment storage comment */\n      0x00\n        /* \"contracts/forum.sol\":13466:13474  comments */\n      0x02\n        /* \"contracts/forum.sol\":13466:13483  comments[_postId] */\n      0x00\n        /* \"contracts/forum.sol\":13475:13482  _postId */\n      dup16\n        /* \"contracts/forum.sol\":13466:13483  comments[_postId] */\n      dup2\n      mstore\n      0x20\n      add\n      swap1\n      dup2\n      mstore\n      0x20\n      add\n      0x00\n      keccak256\n        /* \"contracts/forum.sol\":13466:13494  comments[_postId][commentId] */\n      0x00\n        /* \"contracts/forum.sol\":13484:13493  commentId */\n      dup4\n        /* \"contracts/forum.sol\":13466:13494  comments[_postId][commentId] */\n      dup2\n      mstore\n      0x20\n      add\n      swap1\n      dup2\n      mstore\n      0x20\n      add\n      0x00\n      keccak256\n        /* \"contracts/forum.sol\":13440:13494  Comment storage comment = comments[_postId][commentId] */\n      swap1\n      pop\n        /* \"contracts/forum.sol\":13534:13541  comment */\n      dup1\n        /* \"contracts/forum.sol\":13534:13548  comment.author */\n      0x00\n      add\n      0x00\n      swap1\n      sload\n      swap1\n      0x0100\n      exp\n      swap1\n      div\n      0xffffffffffffffffffffffffffffffffffffffff\n      and\n        /* \"contracts/forum.sol\":13521:13528  authors */\n      dup12\n        /* \"contracts/forum.sol\":13529:13530  i */\n      dup5\n        /* \"contracts/forum.sol\":13521:13531  authors[i] */\n      dup2\n      mload\n      dup2\n      lt\n      tag_144\n      jumpi\n      tag_145\n      tag_146\n      jump\t// in\n    tag_145:\n    tag_144:\n      0x20\n      mul\n      0x20\n      add\n      add\n        /* \"contracts/forum.sol\":13521:13548  authors[i] = comment.author */\n      swap1\n      0xffffffffffffffffffffffffffffffffffffffff\n      and\n      swap1\n      dup2\n      0xffffffffffffffffffffffffffffffffffffffff\n      and\n      dup2\n      mstore\n      pop\n      pop\n        /* \"contracts/forum.sol\":13576:13583  comment */\n      dup1\n        /* \"contracts/forum.sol\":13576:13591  comment.content */\n      0x01\n      add\n        /* \"contracts/forum.sol\":13562:13591  contents[i] = comment.content */\n      dup1\n      sload\n      tag_147\n      swap1\n      tag_68\n      jump\t// in\n    tag_147:\n      dup1\n      0x1f\n      add\n      0x20\n      dup1\n      swap2\n      div\n      mul\n      0x20\n      add\n      mload(0x40)\n      swap1\n      dup2\n      add\n      0x40\n      mstore\n      dup1\n      swap3\n      swap2\n      swap1\n      dup2\n      dup2\n      mstore\n      0x20\n      add\n      dup3\n      dup1\n      sload\n      tag_148\n      swap1\n      tag_68\n      jump\t// in\n    tag_148:\n      dup1\n      iszero\n      tag_149\n      jumpi\n      dup1\n      0x1f\n      lt\n      tag_150\n      jumpi\n      0x0100\n      dup1\n      dup4\n      sload\n      div\n      mul\n      dup4\n      mstore\n      swap2\n      0x20\n      add\n      swap2\n      jump(tag_149)\n    tag_150:\n      dup3\n      add\n      swap2\n      swap1\n      0x00\n      mstore\n      keccak256(0x00, 0x20)\n      swap1\n    tag_151:\n      dup2\n      sload\n      dup2\n      mstore\n      swap1\n      0x01\n      add\n      swap1\n      0x20\n      add\n      dup1\n      dup4\n      gt\n      tag_151\n      jumpi\n      dup3\n      swap1\n      sub\n      0x1f\n      and\n      dup3\n      add\n      swap2\n    tag_149:\n      pop\n      pop\n      pop\n      pop\n      pop\n        /* \"contracts/forum.sol\":13562:13570  contents */\n      dup11\n        /* \"contracts/forum.sol\":13571:13572  i */\n      dup5\n        /* \"contracts/forum.sol\":13562:13573  contents[i] */\n      dup2\n      mload\n      dup2\n      lt\n      tag_152\n      jumpi\n      tag_153\n      tag_146\n      jump\t// in\n    tag_153:\n    tag_152:\n      0x20\n      mul\n      0x20\n      add\n      add\n        /* \"contracts/forum.sol\":13562:13591  contents[i] = comment.content */\n      dup2\n      swap1\n      mstore\n      pop\n        /* \"contracts/forum.sol\":13615:13622  comment */\n      dup1\n        /* \"contracts/forum.sol\":13615:13626  comment.tag */\n      0x02\n      add\n        /* \"contracts/forum.sol\":13605:13626  tags[i] = comment.tag */\n      dup1\n      sload\n      tag_154\n      swap1\n      tag_68\n      jump\t// in\n    tag_154:\n      dup1\n      0x1f\n      add\n      0x20\n      dup1\n      swap2\n      div\n      mul\n      0x20\n      add\n      mload(0x40)\n      swap1\n      dup2\n      add\n      0x40\n      mstore\n      dup1\n      swap3\n      swap2\n      swap1\n      dup2\n      dup2\n      mstore\n      0x20\n      add\n      dup3\n      dup1\n      sload\n      tag_155\n      swap1\n      tag_68\n      jump\t// in\n    tag_155:\n      dup1\n      iszero\n      tag_156\n      jumpi\n      dup1\n      0x1f\n      lt\n      tag_157\n      jumpi\n      0x0100\n      dup1\n      dup4\n      sload\n      div\n      mul\n      dup4\n      mstore\n      swap2\n      0x20\n      add\n      swap2\n      jump(tag_156)\n    tag_157:\n      dup3\n      add\n      swap2\n      swap1\n      0x00\n      mstore\n      keccak256(0x00, 0x20)\n      swap1\n    tag_158:\n      dup2\n      sload\n      dup2\n      mstore\n      swap1\n      0x01\n      add\n      swap1\n      0x20\n      add\n      dup1\n      dup4\n      gt\n      tag_158\n      jumpi\n      dup3\n      swap1\n      sub\n      0x1f\n      and\n      dup3\n      add\n      swap2\n    tag_156:\n      pop\n      pop\n      pop\n      pop\n      pop\n        /* \"contracts/forum.sol\":13605:13609  tags */\n      dup10\n        /* \"contracts/forum.sol\":13610:13611  i */\n      dup5\n        /* \"contracts/forum.sol\":13605:13612  tags[i] */\n      dup2\n      mload\n      dup2\n      lt\n      tag_159\n      jumpi\n      tag_160\n      tag_146\n      jump\t// in\n    tag_160:\n    tag_159:\n      0x20\n      mul\n      0x20\n      add\n      add\n        /* \"contracts/forum.sol\":13605:13626  tags[i] = comment.tag */\n      dup2\n      swap1\n      mstore\n      pop\n        /* \"contracts/forum.sol\":13656:13663  comment */\n      dup1\n        /* \"contracts/forum.sol\":13656:13673  comment.timestamp */\n      0x03\n      add\n      sload\n        /* \"contracts/forum.sol\":13640:13650  timestamps */\n      dup9\n        /* \"contracts/forum.sol\":13651:13652  i */\n      dup5\n        /* \"contracts/forum.sol\":13640:13653  timestamps[i] */\n      dup2\n      mload\n      dup2\n      lt\n      tag_161\n      jumpi\n      tag_162\n      tag_146\n      jump\t// in\n    tag_162:\n    tag_161:\n      0x20\n      mul\n      0x20\n      add\n      add\n        /* \"contracts/forum.sol\":13640:13673  timestamps[i] = comment.timestamp */\n      dup2\n      dup2\n      mstore\n      pop\n      pop\n        /* \"contracts/forum.sol\":13380:13684  {... */\n      pop\n      pop\n        /* \"contracts/forum.sol\":13375:13378  i++ */\n      dup1\n      dup1\n      tag_163\n      swap1\n      tag_91\n      jump\t// in\n    tag_163:\n      swap2\n      pop\n      pop\n        /* \"contracts/forum.sol\":13340:13684  for (uint256 i = 0; i < batchSize; i++) {... */\n      jump(tag_140)\n    tag_141:\n      pop\n        /* \"contracts/forum.sol\":13702:13758  return (authors, contents, tags, timestamps, totalCount) */\n      pop\n      pop\n      pop\n        /* \"contracts/forum.sol\":11959:13765  function getCommentsBatch(uint256 _postId, uint256 _startId, uint256 _batchSize) external view returns (... */\n    tag_97:\n      swap4\n      swap8\n      swap3\n      swap7\n      pop\n      swap4\n      pop\n      swap4\n      pop\n      jump\t// out\n        /* \"contracts/forum.sol\":10020:10618  function createPost(string memory _content, string memory _tag) external {... */\n    tag_42:\n        /* \"contracts/forum.sol\":10135:10144  postCount */\n      0x01\n      0x00\n        /* \"contracts/forum.sol\":10135:10146  postCount++ */\n      dup2\n      sload\n      dup1\n      swap3\n      swap2\n      swap1\n      tag_165\n      swap1\n      tag_91\n      jump\t// in\n    tag_165:\n      swap2\n      swap1\n      pop\n      sstore\n      pop\n        /* \"contracts/forum.sol\":10192:10212  Post storage newPost */\n      0x00\n        /* \"contracts/forum.sol\":10215:10220  posts */\n      dup1\n        /* \"contracts/forum.sol\":10215:10231  posts[postCount] */\n      0x00\n        /* \"contracts/forum.sol\":10221:10230  postCount */\n      sload(0x01)\n        /* \"contracts/forum.sol\":10215:10231  posts[postCount] */\n      dup2\n      mstore\n      0x20\n      add\n      swap1\n      dup2\n      mstore\n      0x20\n      add\n      0x00\n      keccak256\n        /* \"contracts/forum.sol\":10192:10231  Post storage newPost = posts[postCount] */\n      swap1\n      pop\n        /* \"contracts/forum.sol\":10258:10268  msg.sender */\n      caller\n        /* \"contracts/forum.sol\":10241:10248  newPost */\n      dup2\n        /* \"contracts/forum.sol\":10241:10255  newPost.author */\n      0x00\n      add\n      0x00\n        /* \"contracts/forum.sol\":10241:10268  newPost.author = msg.sender */\n      0x0100\n      exp\n      dup2\n      sload\n      dup2\n      0xffffffffffffffffffffffffffffffffffffffff\n      mul\n      not\n      and\n      swap1\n      dup4\n      0xffffffffffffffffffffffffffffffffffffffff\n      and\n      mul\n      or\n      swap1\n      sstore\n      pop\n        /* \"contracts/forum.sol\":10296:10304  _content */\n      dup3\n        /* \"contracts/forum.sol\":10278:10285  newPost */\n      dup2\n        /* \"contracts/forum.sol\":10278:10293  newPost.content */\n      0x01\n      add\n        /* \"contracts/forum.sol\":10278:10304  newPost.content = _content */\n      swap1\n      dup2\n      tag_166\n      swap2\n      swap1\n      tag_93\n      jump\t// in\n    tag_166:\n      pop\n        /* \"contracts/forum.sol\":10328:10332  _tag */\n      dup2\n        /* \"contracts/forum.sol\":10314:10321  newPost */\n      dup2\n        /* \"contracts/forum.sol\":10314:10325  newPost.tag */\n      0x02\n      add\n        /* \"contracts/forum.sol\":10314:10332  newPost.tag = _tag */\n      swap1\n      dup2\n      tag_167\n      swap2\n      swap1\n      tag_93\n      jump\t// in\n    tag_167:\n      pop\n        /* \"contracts/forum.sol\":10362:10377  block.timestamp */\n      timestamp\n        /* \"contracts/forum.sol\":10342:10349  newPost */\n      dup2\n        /* \"contracts/forum.sol\":10342:10359  newPost.timestamp */\n      0x03\n      add\n        /* \"contracts/forum.sol\":10342:10377  newPost.timestamp = block.timestamp */\n      dup2\n      swap1\n      sstore\n      pop\n        /* \"contracts/forum.sol\":10413:10418  false */\n      0x00\n        /* \"contracts/forum.sol\":10387:10394  newPost */\n      dup2\n        /* \"contracts/forum.sol\":10387:10410  newPost.isTagChallenged */\n      0x04\n      add\n      0x00\n        /* \"contracts/forum.sol\":10387:10418  newPost.isTagChallenged = false */\n      0x0100\n      exp\n      dup2\n      sload\n      dup2\n      0xff\n      mul\n      not\n      and\n      swap1\n      dup4\n      iszero\n      iszero\n      mul\n      or\n      swap1\n      sstore\n      pop\n        /* \"contracts/forum.sol\":10448:10449  0 */\n      0x00\n        /* \"contracts/forum.sol\":10428:10435  newPost */\n      dup2\n        /* \"contracts/forum.sol\":10428:10445  newPost.realVotes */\n      0x05\n      add\n        /* \"contracts/forum.sol\":10428:10449  newPost.realVotes = 0 */\n      dup2\n      swap1\n      sstore\n      pop\n        /* \"contracts/forum.sol\":10480:10481  0 */\n      0x00\n        /* \"contracts/forum.sol\":10459:10466  newPost */\n      dup2\n        /* \"contracts/forum.sol\":10459:10477  newPost.fakerVotes */\n      0x06\n      add\n        /* \"contracts/forum.sol\":10459:10481  newPost.fakerVotes = 0 */\n      dup2\n      swap1\n      sstore\n      pop\n        /* \"contracts/forum.sol\":10514:10515  0 */\n      0x00\n        /* \"contracts/forum.sol\":10491:10498  newPost */\n      dup2\n        /* \"contracts/forum.sol\":10491:10511  newPost.commentCount */\n      0x08\n      add\n        /* \"contracts/forum.sol\":10491:10515  newPost.commentCount = 0 */\n      dup2\n      swap1\n      sstore\n      pop\n        /* \"contracts/forum.sol\":10584:10594  msg.sender */\n      caller\n        /* \"contracts/forum.sol\":10561:10611  PostCreated(postCount, msg.sender, _tag, _content) */\n      0xffffffffffffffffffffffffffffffffffffffff\n      and\n        /* \"contracts/forum.sol\":10573:10582  postCount */\n      sload(0x01)\n        /* \"contracts/forum.sol\":10561:10611  PostCreated(postCount, msg.sender, _tag, _content) */\n      0x5475621b07408f75d49c828caa5aeacb3a5e98d3497e75730dc184677504401c\n        /* \"contracts/forum.sol\":10596:10600  _tag */\n      dup5\n        /* \"contracts/forum.sol\":10602:10610  _content */\n      dup7\n        /* \"contracts/forum.sol\":10561:10611  PostCreated(postCount, msg.sender, _tag, _content) */\n      mload(0x40)\n      tag_168\n      swap3\n      swap2\n      swap1\n      tag_96\n      jump\t// in\n    tag_168:\n      mload(0x40)\n      dup1\n      swap2\n      sub\n      swap1\n      log3\n        /* \"contracts/forum.sol\":10093:10618  {... */\n      pop\n        /* \"contracts/forum.sol\":10020:10618  function createPost(string memory _content, string memory _tag) external {... */\n      pop\n      pop\n      jump\t// out\n        /* \"contracts/forum.sol\":15392:16062  function getPost(uint256 _postId) external view returns (... */\n    tag_45:\n        /* \"contracts/forum.sol\":15458:15472  address author */\n      0x00\n        /* \"contracts/forum.sol\":15482:15503  string memory content */\n      0x60\n        /* \"contracts/forum.sol\":15513:15530  string memory tag */\n      dup1\n        /* \"contracts/forum.sol\":15540:15557  uint256 timestamp */\n      0x00\n        /* \"contracts/forum.sol\":15567:15587  bool isTagChallenged */\n      dup1\n        /* \"contracts/forum.sol\":15597:15614  uint256 realVotes */\n      0x00\n        /* \"contracts/forum.sol\":15624:15642  uint256 fakerVotes */\n      dup1\n        /* \"contracts/forum.sol\":15652:15672  uint256 commentCount */\n      0x00\n        /* \"contracts/forum.sol\":15707:15708  0 */\n      dup1\n        /* \"contracts/forum.sol\":15697:15704  _postId */\n      dup10\n        /* \"contracts/forum.sol\":15697:15708  _postId > 0 */\n      gt\n        /* \"contracts/forum.sol\":15697:15732  _postId > 0 && _postId <= postCount */\n      dup1\n      iszero\n      tag_170\n      jumpi\n      pop\n        /* \"contracts/forum.sol\":15723:15732  postCount */\n      sload(0x01)\n        /* \"contracts/forum.sol\":15712:15719  _postId */\n      dup10\n        /* \"contracts/forum.sol\":15712:15732  _postId <= postCount */\n      gt\n      iszero\n        /* \"contracts/forum.sol\":15697:15732  _postId > 0 && _postId <= postCount */\n    tag_170:\n        /* \"contracts/forum.sol\":15689:15752  require(_postId > 0 && _postId <= postCount, \"Invalid post ID\") */\n      tag_171\n      jumpi\n      mload(0x40)\n      0x08c379a000000000000000000000000000000000000000000000000000000000\n      dup2\n      mstore\n      0x04\n      add\n      tag_172\n      swap1\n      tag_82\n      jump\t// in\n    tag_172:\n      mload(0x40)\n      dup1\n      swap2\n      sub\n      swap1\n      revert\n    tag_171:\n        /* \"contracts/forum.sol\":15762:15779  Post storage post */\n      0x00\n        /* \"contracts/forum.sol\":15782:15787  posts */\n      dup1\n        /* \"contracts/forum.sol\":15782:15796  posts[_postId] */\n      0x00\n        /* \"contracts/forum.sol\":15788:15795  _postId */\n      dup12\n        /* \"contracts/forum.sol\":15782:15796  posts[_postId] */\n      dup2\n      mstore\n      0x20\n      add\n      swap1\n      dup2\n      mstore\n      0x20\n      add\n      0x00\n      keccak256\n        /* \"contracts/forum.sol\":15762:15796  Post storage post = posts[_postId] */\n      swap1\n      pop\n        /* \"contracts/forum.sol\":15836:15840  post */\n      dup1\n        /* \"contracts/forum.sol\":15836:15847  post.author */\n      0x00\n      add\n      0x00\n      swap1\n      sload\n      swap1\n      0x0100\n      exp\n      swap1\n      div\n      0xffffffffffffffffffffffffffffffffffffffff\n      and\n        /* \"contracts/forum.sol\":15861:15865  post */\n      dup2\n        /* \"contracts/forum.sol\":15861:15873  post.content */\n      0x01\n      add\n        /* \"contracts/forum.sol\":15887:15891  post */\n      dup3\n        /* \"contracts/forum.sol\":15887:15895  post.tag */\n      0x02\n      add\n        /* \"contracts/forum.sol\":15909:15913  post */\n      dup4\n        /* \"contracts/forum.sol\":15909:15923  post.timestamp */\n      0x03\n      add\n      sload\n        /* \"contracts/forum.sol\":15937:15941  post */\n      dup5\n        /* \"contracts/forum.sol\":15937:15957  post.isTagChallenged */\n      0x04\n      add\n      0x00\n      swap1\n      sload\n      swap1\n      0x0100\n      exp\n      swap1\n      div\n      0xff\n      and\n        /* \"contracts/forum.sol\":15971:15975  post */\n      dup6\n        /* \"contracts/forum.sol\":15971:15985  post.realVotes */\n      0x05\n      add\n      sload\n        /* \"contracts/forum.sol\":15999:16003  post */\n      dup7\n        /* \"contracts/forum.sol\":15999:16014  post.fakerVotes */\n      0x06\n      add\n      sload\n        /* \"contracts/forum.sol\":16028:16032  post */\n      dup8\n        /* \"contracts/forum.sol\":16028:16045  post.commentCount */\n      0x08\n      add\n      sload\n        /* \"contracts/forum.sol\":15815:16055  return (... */\n      dup7\n      dup1\n      sload\n      tag_173\n      swap1\n      tag_68\n      jump\t// in\n    tag_173:\n      dup1\n      0x1f\n      add\n      0x20\n      dup1\n      swap2\n      div\n      mul\n      0x20\n      add\n      mload(0x40)\n      swap1\n      dup2\n      add\n      0x40\n      mstore\n      dup1\n      swap3\n      swap2\n      swap1\n      dup2\n      dup2\n      mstore\n      0x20\n      add\n      dup3\n      dup1\n      sload\n      tag_174\n      swap1\n      tag_68\n      jump\t// in\n    tag_174:\n      dup1\n      iszero\n      tag_175\n      jumpi\n      dup1\n      0x1f\n      lt\n      tag_176\n      jumpi\n      0x0100\n      dup1\n      dup4\n      sload\n      div\n      mul\n      dup4\n      mstore\n      swap2\n      0x20\n      add\n      swap2\n      jump(tag_175)\n    tag_176:\n      dup3\n      add\n      swap2\n      swap1\n      0x00\n      mstore\n      keccak256(0x00, 0x20)\n      swap1\n    tag_177:\n      dup2\n      sload\n      dup2\n      mstore\n      swap1\n      0x01\n      add\n      swap1\n      0x20\n      add\n      dup1\n      dup4\n      gt\n      tag_177\n      jumpi\n      dup3\n      swap1\n      sub\n      0x1f\n      and\n      dup3\n      add\n      swap2\n    tag_175:\n      pop\n      pop\n      pop\n      pop\n      pop\n      swap7\n      pop\n      dup6\n      dup1\n      sload\n      tag_178\n      swap1\n      tag_68\n      jump\t// in\n    tag_178:\n      dup1\n      0x1f\n      add\n      0x20\n      dup1\n      swap2\n      div\n      mul\n      0x20\n      add\n      mload(0x40)\n      swap1\n      dup2\n      add\n      0x40\n      mstore\n      dup1\n      swap3\n      swap2\n      swap1\n      dup2\n      dup2\n      mstore\n      0x20\n      add\n      dup3\n      dup1\n      sload\n      tag_179\n      swap1\n      tag_68\n      jump\t// in\n    tag_179:\n      dup1\n      iszero\n      tag_180\n      jumpi\n      dup1\n      0x1f\n      lt\n      tag_181\n      jumpi\n      0x0100\n      dup1\n      dup4\n      sload\n      div\n      mul\n      dup4\n      mstore\n      swap2\n      0x20\n      add\n      swap2\n      jump(tag_180)\n    tag_181:\n      dup3\n      add\n      swap2\n      swap1\n      0x00\n      mstore\n      keccak256(0x00, 0x20)\n      swap1\n    tag_182:\n      dup2\n      sload\n      dup2\n      mstore\n      swap1\n      0x01\n      add\n      swap1\n      0x20\n      add\n      dup1\n      dup4\n      gt\n      tag_182\n      jumpi\n      dup3\n      swap1\n      sub\n      0x1f\n      and\n      dup3\n      add\n      swap2\n    tag_180:\n      pop\n      pop\n      pop\n      pop\n      pop\n      swap6\n      pop\n      swap9\n      pop\n      swap9\n      pop\n      swap9\n      pop\n      swap9\n      pop\n      swap9\n      pop\n      swap9\n      pop\n      swap9\n      pop\n      swap9\n      pop\n      pop\n        /* \"contracts/forum.sol\":15392:16062  function getPost(uint256 _postId) external view returns (... */\n      swap2\n      swap4\n      swap6\n      swap8\n      pop\n      swap2\n      swap4\n      swap6\n      swap8\n      jump\t// out\n        /* \"contracts/forum.sol\":16072:16280  function hasVoted(uint256 _postId, address _voter) external view returns (bool) {... */\n    tag_50:\n        /* \"contracts/forum.sol\":16146:16150  bool */\n      0x00\n        /* \"contracts/forum.sol\":16180:16181  0 */\n      dup1\n        /* \"contracts/forum.sol\":16170:16177  _postId */\n      dup4\n        /* \"contracts/forum.sol\":16170:16181  _postId > 0 */\n      gt\n        /* \"contracts/forum.sol\":16170:16205  _postId > 0 && _postId <= postCount */\n      dup1\n      iszero\n      tag_184\n      jumpi\n      pop\n        /* \"contracts/forum.sol\":16196:16205  postCount */\n      sload(0x01)\n        /* \"contracts/forum.sol\":16185:16192  _postId */\n      dup4\n        /* \"contracts/forum.sol\":16185:16205  _postId <= postCount */\n      gt\n      iszero\n        /* \"contracts/forum.sol\":16170:16205  _postId > 0 && _postId <= postCount */\n    tag_184:\n        /* \"contracts/forum.sol\":16162:16225  require(_postId > 0 && _postId <= postCount, \"Invalid post ID\") */\n      tag_185\n      jumpi\n      mload(0x40)\n      0x08c379a000000000000000000000000000000000000000000000000000000000\n      dup2\n      mstore\n      0x04\n      add\n      tag_186\n      swap1\n      tag_82\n      jump\t// in\n    tag_186:\n      mload(0x40)\n      dup1\n      swap2\n      sub\n      swap1\n      revert\n    tag_185:\n        /* \"contracts/forum.sol\":16242:16247  posts */\n      0x00\n        /* \"contracts/forum.sol\":16242:16256  posts[_postId] */\n      dup1\n        /* \"contracts/forum.sol\":16248:16255  _postId */\n      dup5\n        /* \"contracts/forum.sol\":16242:16256  posts[_postId] */\n      dup2\n      mstore\n      0x20\n      add\n      swap1\n      dup2\n      mstore\n      0x20\n      add\n      0x00\n      keccak256\n        /* \"contracts/forum.sol\":16242:16265  posts[_postId].hasVoted */\n      0x07\n      add\n        /* \"contracts/forum.sol\":16242:16273  posts[_postId].hasVoted[_voter] */\n      0x00\n        /* \"contracts/forum.sol\":16266:16272  _voter */\n      dup4\n        /* \"contracts/forum.sol\":16242:16273  posts[_postId].hasVoted[_voter] */\n      0xffffffffffffffffffffffffffffffffffffffff\n      and\n      0xffffffffffffffffffffffffffffffffffffffff\n      and\n      dup2\n      mstore\n      0x20\n      add\n      swap1\n      dup2\n      mstore\n      0x20\n      add\n      0x00\n      keccak256\n      0x00\n      swap1\n      sload\n      swap1\n      0x0100\n      exp\n      swap1\n      div\n      0xff\n      and\n        /* \"contracts/forum.sol\":16235:16273  return posts[_postId].hasVoted[_voter] */\n      swap1\n      pop\n        /* \"contracts/forum.sol\":16072:16280  function hasVoted(uint256 _postId, address _voter) external view returns (bool) {... */\n      swap3\n      swap2\n      pop\n      pop\n      jump\t// out\n        /* \"contracts/forum.sol\":11360:11949  function getComment(uint256 _postId, uint256 _commentId) external view returns (... */\n    tag_56:\n        /* \"contracts/forum.sol\":11449:11463  address author */\n      0x00\n        /* \"contracts/forum.sol\":11473:11494  string memory content */\n      0x60\n        /* \"contracts/forum.sol\":11504:11521  string memory tag */\n      dup1\n        /* \"contracts/forum.sol\":11531:11548  uint256 timestamp */\n      0x00\n        /* \"contracts/forum.sol\":11583:11584  0 */\n      dup1\n        /* \"contracts/forum.sol\":11573:11580  _postId */\n      dup7\n        /* \"contracts/forum.sol\":11573:11584  _postId > 0 */\n      gt\n        /* \"contracts/forum.sol\":11573:11608  _postId > 0 && _postId <= postCount */\n      dup1\n      iszero\n      tag_188\n      jumpi\n      pop\n        /* \"contracts/forum.sol\":11599:11608  postCount */\n      sload(0x01)\n        /* \"contracts/forum.sol\":11588:11595  _postId */\n      dup7\n        /* \"contracts/forum.sol\":11588:11608  _postId <= postCount */\n      gt\n      iszero\n        /* \"contracts/forum.sol\":11573:11608  _postId > 0 && _postId <= postCount */\n    tag_188:\n        /* \"contracts/forum.sol\":11565:11628  require(_postId > 0 && _postId <= postCount, \"Invalid post ID\") */\n      tag_189\n      jumpi\n      mload(0x40)\n      0x08c379a000000000000000000000000000000000000000000000000000000000\n      dup2\n      mstore\n      0x04\n      add\n      tag_190\n      swap1\n      tag_82\n      jump\t// in\n    tag_190:\n      mload(0x40)\n      dup1\n      swap2\n      sub\n      swap1\n      revert\n    tag_189:\n        /* \"contracts/forum.sol\":11659:11660  0 */\n      0x00\n        /* \"contracts/forum.sol\":11646:11656  _commentId */\n      dup6\n        /* \"contracts/forum.sol\":11646:11660  _commentId > 0 */\n      gt\n        /* \"contracts/forum.sol\":11646:11705  _commentId > 0 && _commentId <= posts[_postId].commentCount */\n      dup1\n      iszero\n      tag_191\n      jumpi\n      pop\n        /* \"contracts/forum.sol\":11678:11683  posts */\n      0x00\n        /* \"contracts/forum.sol\":11678:11692  posts[_postId] */\n      dup1\n        /* \"contracts/forum.sol\":11684:11691  _postId */\n      dup8\n        /* \"contracts/forum.sol\":11678:11692  posts[_postId] */\n      dup2\n      mstore\n      0x20\n      add\n      swap1\n      dup2\n      mstore\n      0x20\n      add\n      0x00\n      keccak256\n        /* \"contracts/forum.sol\":11678:11705  posts[_postId].commentCount */\n      0x08\n      add\n      sload\n        /* \"contracts/forum.sol\":11664:11674  _commentId */\n      dup6\n        /* \"contracts/forum.sol\":11664:11705  _commentId <= posts[_postId].commentCount */\n      gt\n      iszero\n        /* \"contracts/forum.sol\":11646:11705  _commentId > 0 && _commentId <= posts[_postId].commentCount */\n    tag_191:\n        /* \"contracts/forum.sol\":11638:11728  require(_commentId > 0 && _commentId <= posts[_postId].commentCount, \"Invalid comment ID\") */\n      tag_192\n      jumpi\n      mload(0x40)\n      0x08c379a000000000000000000000000000000000000000000000000000000000\n      dup2\n      mstore\n      0x04\n      add\n      tag_193\n      swap1\n      tag_194\n      jump\t// in\n    tag_193:\n      mload(0x40)\n      dup1\n      swap2\n      sub\n      swap1\n      revert\n    tag_192:\n        /* \"contracts/forum.sol\":11747:11770  Comment storage comment */\n      0x00\n        /* \"contracts/forum.sol\":11773:11781  comments */\n      0x02\n        /* \"contracts/forum.sol\":11773:11790  comments[_postId] */\n      0x00\n        /* \"contracts/forum.sol\":11782:11789  _postId */\n      dup9\n        /* \"contracts/forum.sol\":11773:11790  comments[_postId] */\n      dup2\n      mstore\n      0x20\n      add\n      swap1\n      dup2\n      mstore\n      0x20\n      add\n      0x00\n      keccak256\n        /* \"contracts/forum.sol\":11773:11802  comments[_postId][_commentId] */\n      0x00\n        /* \"contracts/forum.sol\":11791:11801  _commentId */\n      dup8\n        /* \"contracts/forum.sol\":11773:11802  comments[_postId][_commentId] */\n      dup2\n      mstore\n      0x20\n      add\n      swap1\n      dup2\n      mstore\n      0x20\n      add\n      0x00\n      keccak256\n        /* \"contracts/forum.sol\":11747:11802  Comment storage comment = comments[_postId][_commentId] */\n      swap1\n      pop\n        /* \"contracts/forum.sol\":11833:11840  comment */\n      dup1\n        /* \"contracts/forum.sol\":11833:11847  comment.author */\n      0x00\n      add\n      0x00\n      swap1\n      sload\n      swap1\n      0x0100\n      exp\n      swap1\n      div\n      0xffffffffffffffffffffffffffffffffffffffff\n      and\n        /* \"contracts/forum.sol\":11861:11868  comment */\n      dup2\n        /* \"contracts/forum.sol\":11861:11876  comment.content */\n      0x01\n      add\n        /* \"contracts/forum.sol\":11890:11897  comment */\n      dup3\n        /* \"contracts/forum.sol\":11890:11901  comment.tag */\n      0x02\n      add\n        /* \"contracts/forum.sol\":11915:11922  comment */\n      dup4\n        /* \"contracts/forum.sol\":11915:11932  comment.timestamp */\n      0x03\n      add\n      sload\n        /* \"contracts/forum.sol\":11812:11942  return (... */\n      dup3\n      dup1\n      sload\n      tag_195\n      swap1\n      tag_68\n      jump\t// in\n    tag_195:\n      dup1\n      0x1f\n      add\n      0x20\n      dup1\n      swap2\n      div\n      mul\n      0x20\n      add\n      mload(0x40)\n      swap1\n      dup2\n      add\n      0x40\n      mstore\n      dup1\n      swap3\n      swap2\n      swap1\n      dup2\n      dup2\n      mstore\n      0x20\n      add\n      dup3\n      dup1\n      sload\n      tag_196\n      swap1\n      tag_68\n      jump\t// in\n    tag_196:\n      dup1\n      iszero\n      tag_197\n      jumpi\n      dup1\n      0x1f\n      lt\n      tag_198\n      jumpi\n      0x0100\n      dup1\n      dup4\n      sload\n      div\n      mul\n      dup4\n      mstore\n      swap2\n      0x20\n      add\n      swap2\n      jump(tag_197)\n    tag_198:\n      dup3\n      add\n      swap2\n      swap1\n      0x00\n      mstore\n      keccak256(0x00, 0x20)\n      swap1\n    tag_199:\n      dup2\n      sload\n      dup2\n      mstore\n      swap1\n      0x01\n      add\n      swap1\n      0x20\n      add\n      dup1\n      dup4\n      gt\n      tag_199\n      jumpi\n      dup3\n      swap1\n      sub\n      0x1f\n      and\n      dup3\n      add\n      swap2\n    tag_197:\n      pop\n      pop\n      pop\n      pop\n      pop\n      swap3\n      pop\n      dup2\n      dup1\n      sload\n      tag_200\n      swap1\n      tag_68\n      jump\t// in\n    tag_200:\n      dup1\n      0x1f\n      add\n      0x20\n      dup1\n      swap2\n      div\n      mul\n      0x20\n      add\n      mload(0x40)\n      swap1\n      dup2\n      add\n      0x40\n      mstore\n      dup1\n      swap3\n      swap2\n      swap1\n      dup2\n      dup2\n      mstore\n      0x20\n      add\n      dup3\n      dup1\n      sload\n      tag_201\n      swap1\n      tag_68\n      jump\t// in\n    tag_201:\n      dup1\n      iszero\n      tag_202\n      jumpi\n      dup1\n      0x1f\n      lt\n      tag_203\n      jumpi\n      0x0100\n      dup1\n      dup4\n      sload\n      div\n      mul\n      dup4\n      mstore\n      swap2\n      0x20\n      add\n      swap2\n      jump(tag_202)\n    tag_203:\n      dup3\n      add\n      swap2\n      swap1\n      0x00\n      mstore\n      keccak256(0x00, 0x20)\n      swap1\n    tag_204:\n      dup2\n      sload\n      dup2\n      mstore\n      swap1\n      0x01\n      add\n      swap1\n      0x20\n      add\n      dup1\n      dup4\n      gt\n      tag_204\n      jumpi\n      dup3\n      swap1\n      sub\n      0x1f\n      and\n      dup3\n      add\n      swap2\n    tag_202:\n      pop\n      pop\n      pop\n      pop\n      pop\n      swap2\n      pop\n      swap5\n      pop\n      swap5\n      pop\n      swap5\n      pop\n      swap5\n      pop\n      pop\n        /* \"contracts/forum.sol\":11360:11949  function getComment(uint256 _postId, uint256 _commentId) external view returns (... */\n      swap3\n      swap6\n      swap2\n      swap5\n      pop\n      swap3\n      pop\n      jump\t// out\n        /* \"contracts/forum.sol\":14101:15232  function challengeAndVote(uint256 _postId, bool _isRealVote) external {... */\n    tag_62:\n        /* \"contracts/forum.sol\":14199:14200  0 */\n      0x00\n        /* \"contracts/forum.sol\":14189:14196  _postId */\n      dup3\n        /* \"contracts/forum.sol\":14189:14200  _postId > 0 */\n      gt\n        /* \"contracts/forum.sol\":14189:14224  _postId > 0 && _postId <= postCount */\n      dup1\n      iszero\n      tag_206\n      jumpi\n      pop\n        /* \"contracts/forum.sol\":14215:14224  postCount */\n      sload(0x01)\n        /* \"contracts/forum.sol\":14204:14211  _postId */\n      dup3\n        /* \"contracts/forum.sol\":14204:14224  _postId <= postCount */\n      gt\n      iszero\n        /* \"contracts/forum.sol\":14189:14224  _postId > 0 && _postId <= postCount */\n    tag_206:\n        /* \"contracts/forum.sol\":14181:14244  require(_postId > 0 && _postId <= postCount, \"Invalid post ID\") */\n      tag_207\n      jumpi\n      mload(0x40)\n      0x08c379a000000000000000000000000000000000000000000000000000000000\n      dup2\n      mstore\n      0x04\n      add\n      tag_208\n      swap1\n      tag_82\n      jump\t// in\n    tag_208:\n      mload(0x40)\n      dup1\n      swap2\n      sub\n      swap1\n      revert\n    tag_207:\n        /* \"contracts/forum.sol\":14254:14271  Post storage post */\n      0x00\n        /* \"contracts/forum.sol\":14274:14279  posts */\n      dup1\n        /* \"contracts/forum.sol\":14274:14288  posts[_postId] */\n      0x00\n        /* \"contracts/forum.sol\":14280:14287  _postId */\n      dup5\n        /* \"contracts/forum.sol\":14274:14288  posts[_postId] */\n      dup2\n      mstore\n      0x20\n      add\n      swap1\n      dup2\n      mstore\n      0x20\n      add\n      0x00\n      keccak256\n        /* \"contracts/forum.sol\":14254:14288  Post storage post = posts[_postId] */\n      swap1\n      pop\n        /* \"contracts/forum.sol\":14362:14366  post */\n      dup1\n        /* \"contracts/forum.sol\":14362:14382  post.isTagChallenged */\n      0x04\n      add\n      0x00\n      swap1\n      sload\n      swap1\n      0x0100\n      exp\n      swap1\n      div\n      0xff\n      and\n        /* \"contracts/forum.sol\":14357:14623  if (!post.isTagChallenged) {... */\n      tag_209\n      jumpi\n        /* \"contracts/forum.sol\":14460:14470  msg.sender */\n      caller\n        /* \"contracts/forum.sol\":14445:14470  post.author != msg.sender */\n      0xffffffffffffffffffffffffffffffffffffffff\n      and\n        /* \"contracts/forum.sol\":14445:14449  post */\n      dup2\n        /* \"contracts/forum.sol\":14445:14456  post.author */\n      0x00\n      add\n      0x00\n      swap1\n      sload\n      swap1\n      0x0100\n      exp\n      swap1\n      div\n      0xffffffffffffffffffffffffffffffffffffffff\n      and\n        /* \"contracts/forum.sol\":14445:14470  post.author != msg.sender */\n      0xffffffffffffffffffffffffffffffffffffffff\n      and\n      sub\n        /* \"contracts/forum.sol\":14437:14505  require(post.author != msg.sender, \"Cannot challenge your own post\") */\n      tag_210\n      jumpi\n      mload(0x40)\n      0x08c379a000000000000000000000000000000000000000000000000000000000\n      dup2\n      mstore\n      0x04\n      add\n      tag_211\n      swap1\n      tag_212\n      jump\t// in\n    tag_211:\n      mload(0x40)\n      dup1\n      swap2\n      sub\n      swap1\n      revert\n    tag_210:\n        /* \"contracts/forum.sol\":14555:14559  true */\n      0x01\n        /* \"contracts/forum.sol\":14532:14536  post */\n      dup2\n        /* \"contracts/forum.sol\":14532:14552  post.isTagChallenged */\n      0x04\n      add\n      0x00\n        /* \"contracts/forum.sol\":14532:14559  post.isTagChallenged = true */\n      0x0100\n      exp\n      dup2\n      sload\n      dup2\n      0xff\n      mul\n      not\n      and\n      swap1\n      dup4\n      iszero\n      iszero\n      mul\n      or\n      swap1\n      sstore\n      pop\n        /* \"contracts/forum.sol\":14601:14611  msg.sender */\n      caller\n        /* \"contracts/forum.sol\":14578:14612  TagChallenged(_postId, msg.sender) */\n      0xffffffffffffffffffffffffffffffffffffffff\n      and\n        /* \"contracts/forum.sol\":14592:14599  _postId */\n      dup4\n        /* \"contracts/forum.sol\":14578:14612  TagChallenged(_postId, msg.sender) */\n      0xedc96ef82a3fd8ea664dd4fe50f94c77be3c3d6130792c3ed8b0199e3c28ec62\n      mload(0x40)\n      mload(0x40)\n      dup1\n      swap2\n      sub\n      swap1\n      log3\n        /* \"contracts/forum.sol\":14357:14623  if (!post.isTagChallenged) {... */\n    tag_209:\n        /* \"contracts/forum.sol\":14687:14691  post */\n      dup1\n        /* \"contracts/forum.sol\":14687:14700  post.hasVoted */\n      0x07\n      add\n        /* \"contracts/forum.sol\":14687:14712  post.hasVoted[msg.sender] */\n      0x00\n        /* \"contracts/forum.sol\":14701:14711  msg.sender */\n      caller\n        /* \"contracts/forum.sol\":14687:14712  post.hasVoted[msg.sender] */\n      0xffffffffffffffffffffffffffffffffffffffff\n      and\n      0xffffffffffffffffffffffffffffffffffffffff\n      and\n      dup2\n      mstore\n      0x20\n      add\n      swap1\n      dup2\n      mstore\n      0x20\n      add\n      0x00\n      keccak256\n      0x00\n      swap1\n      sload\n      swap1\n      0x0100\n      exp\n      swap1\n      div\n      0xff\n      and\n        /* \"contracts/forum.sol\":14686:14712  !post.hasVoted[msg.sender] */\n      iszero\n        /* \"contracts/forum.sol\":14678:14730  require(!post.hasVoted[msg.sender], \"Already voted\") */\n      tag_213\n      jumpi\n      mload(0x40)\n      0x08c379a000000000000000000000000000000000000000000000000000000000\n      dup2\n      mstore\n      0x04\n      add\n      tag_214\n      swap1\n      tag_215\n      jump\t// in\n    tag_214:\n      mload(0x40)\n      dup1\n      swap2\n      sub\n      swap1\n      revert\n    tag_213:\n        /* \"contracts/forum.sol\":14763:14773  msg.sender */\n      caller\n        /* \"contracts/forum.sol\":14748:14773  post.author != msg.sender */\n      0xffffffffffffffffffffffffffffffffffffffff\n      and\n        /* \"contracts/forum.sol\":14748:14752  post */\n      dup2\n        /* \"contracts/forum.sol\":14748:14759  post.author */\n      0x00\n      add\n      0x00\n      swap1\n      sload\n      swap1\n      0x0100\n      exp\n      swap1\n      div\n      0xffffffffffffffffffffffffffffffffffffffff\n      and\n        /* \"contracts/forum.sol\":14748:14773  post.author != msg.sender */\n      0xffffffffffffffffffffffffffffffffffffffff\n      and\n      sub\n        /* \"contracts/forum.sol\":14740:14806  require(post.author != msg.sender, \"Cannot vote on your own post\") */\n      tag_216\n      jumpi\n      mload(0x40)\n      0x08c379a000000000000000000000000000000000000000000000000000000000\n      dup2\n      mstore\n      0x04\n      add\n      tag_217\n      swap1\n      tag_218\n      jump\t// in\n    tag_217:\n      mload(0x40)\n      dup1\n      swap2\n      sub\n      swap1\n      revert\n    tag_216:\n        /* \"contracts/forum.sol\":14853:14857  true */\n      0x01\n        /* \"contracts/forum.sol\":14825:14829  post */\n      dup2\n        /* \"contracts/forum.sol\":14825:14838  post.hasVoted */\n      0x07\n      add\n        /* \"contracts/forum.sol\":14825:14850  post.hasVoted[msg.sender] */\n      0x00\n        /* \"contracts/forum.sol\":14839:14849  msg.sender */\n      caller\n        /* \"contracts/forum.sol\":14825:14850  post.hasVoted[msg.sender] */\n      0xffffffffffffffffffffffffffffffffffffffff\n      and\n      0xffffffffffffffffffffffffffffffffffffffff\n      and\n      dup2\n      mstore\n      0x20\n      add\n      swap1\n      dup2\n      mstore\n      0x20\n      add\n      0x00\n      keccak256\n      0x00\n        /* \"contracts/forum.sol\":14825:14857  post.hasVoted[msg.sender] = true */\n      0x0100\n      exp\n      dup2\n      sload\n      dup2\n      0xff\n      mul\n      not\n      and\n      swap1\n      dup4\n      iszero\n      iszero\n      mul\n      or\n      swap1\n      sstore\n      pop\n        /* \"contracts/forum.sol\":14880:14891  _isRealVote */\n      dup2\n        /* \"contracts/forum.sol\":14876:15160  if (_isRealVote) {... */\n      iszero\n      tag_219\n      jumpi\n        /* \"contracts/forum.sol\":14907:14911  post */\n      dup1\n        /* \"contracts/forum.sol\":14907:14921  post.realVotes */\n      0x05\n      add\n      0x00\n        /* \"contracts/forum.sol\":14907:14923  post.realVotes++ */\n      dup2\n      sload\n      dup1\n      swap3\n      swap2\n      swap1\n      tag_220\n      swap1\n      tag_91\n      jump\t// in\n    tag_220:\n      swap2\n      swap1\n      pop\n      sstore\n      pop\n        /* \"contracts/forum.sol\":14876:15160  if (_isRealVote) {... */\n      jump(tag_221)\n    tag_219:\n        /* \"contracts/forum.sol\":14954:14958  post */\n      dup1\n        /* \"contracts/forum.sol\":14954:14969  post.fakerVotes */\n      0x06\n      add\n      0x00\n        /* \"contracts/forum.sol\":14954:14971  post.fakerVotes++ */\n      dup2\n      sload\n      dup1\n      swap3\n      swap2\n      swap1\n      tag_222\n      swap1\n      tag_91\n      jump\t// in\n    tag_222:\n      swap2\n      swap1\n      pop\n      sstore\n      pop\n        /* \"contracts/forum.sol\":14876:15160  if (_isRealVote) {... */\n    tag_221:\n        /* \"contracts/forum.sol\":15201:15211  msg.sender */\n      caller\n        /* \"contracts/forum.sol\":15183:15225  VoteCast(_postId, msg.sender, _isRealVote) */\n      0xffffffffffffffffffffffffffffffffffffffff\n      and\n        /* \"contracts/forum.sol\":15192:15199  _postId */\n      dup4\n        /* \"contracts/forum.sol\":15183:15225  VoteCast(_postId, msg.sender, _isRealVote) */\n      0xe71fcdac32df1877c1700e7bda2a03157e20993363a28fc35ac495cefc76e4d4\n        /* \"contracts/forum.sol\":15213:15224  _isRealVote */\n      dup5\n        /* \"contracts/forum.sol\":15183:15225  VoteCast(_postId, msg.sender, _isRealVote) */\n      mload(0x40)\n      tag_223\n      swap2\n      swap1\n      tag_52\n      jump\t// in\n    tag_223:\n      mload(0x40)\n      dup1\n      swap2\n      sub\n      swap1\n      log3\n        /* \"contracts/forum.sol\":14171:15232  {... */\n      pop\n        /* \"contracts/forum.sol\":14101:15232  function challengeAndVote(uint256 _postId, bool _isRealVote) external {... */\n      pop\n      pop\n      jump\t// out\n        /* \"contracts/forum.sol\":956:1019  mapping(uint256 => mapping(uint256 => Comment)) public comments */\n    tag_65:\n      mstore(0x20, 0x02)\n      dup2\n      0x00\n      mstore\n      mstore(0x20, keccak256(0x00, 0x40))\n      dup1\n      0x00\n      mstore\n      keccak256(0x00, 0x40)\n      0x00\n      swap2\n      pop\n      swap2\n      pop\n      pop\n      dup1\n      0x00\n      add\n      0x00\n      swap1\n      sload\n      swap1\n      0x0100\n      exp\n      swap1\n      div\n      0xffffffffffffffffffffffffffffffffffffffff\n      and\n      swap1\n      dup1\n      0x01\n      add\n      dup1\n      sload\n      tag_224\n      swap1\n      tag_68\n      jump\t// in\n    tag_224:\n      dup1\n      0x1f\n      add\n      0x20\n      dup1\n      swap2\n      div\n      mul\n      0x20\n      add\n      mload(0x40)\n      swap1\n      dup2\n      add\n      0x40\n      mstore\n      dup1\n      swap3\n      swap2\n      swap1\n      dup2\n      dup2\n      mstore\n      0x20\n      add\n      dup3\n      dup1\n      sload\n      tag_225\n      swap1\n      tag_68\n      jump\t// in\n    tag_225:\n      dup1\n      iszero\n      tag_226\n      jumpi\n      dup1\n      0x1f\n      lt\n      tag_227\n      jumpi\n      0x0100\n      dup1\n      dup4\n      sload\n      div\n      mul\n      dup4\n      mstore\n      swap2\n      0x20\n      add\n      swap2\n      jump(tag_226)\n    tag_227:\n      dup3\n      add\n      swap2\n      swap1\n      0x00\n      mstore\n      keccak256(0x00, 0x20)\n      swap1\n    tag_228:\n      dup2\n      sload\n      dup2\n      mstore\n      swap1\n      0x01\n      add\n      swap1\n      0x20\n      add\n      dup1\n      dup4\n      gt\n      tag_228\n      jumpi\n      dup3\n      swap1\n      sub\n      0x1f\n      and\n      dup3\n      add\n      swap2\n    tag_226:\n      pop\n      pop\n      pop\n      pop\n      pop\n      swap1\n      dup1\n      0x02\n      add\n      dup1\n      sload\n      tag_229\n      swap1\n      tag_68\n      jump\t// in\n    tag_229:\n      dup1\n      0x1f\n      add\n      0x20\n      dup1\n      swap2\n      div\n      mul\n      0x20\n      add\n      mload(0x40)\n      swap1\n      dup2\n      add\n      0x40\n      mstore\n      dup1\n      swap3\n      swap2\n      swap1\n      dup2\n      dup2\n      mstore\n      0x20\n      add\n      dup3\n      dup1\n      sload\n      tag_230\n      swap1\n      tag_68\n      jump\t// in\n    tag_230:\n      dup1\n      iszero\n      tag_231\n      jumpi\n      dup1\n      0x1f\n      lt\n      tag_232\n      jumpi\n      0x0100\n      dup1\n      dup4\n      sload\n      div\n      mul\n      dup4\n      mstore\n      swap2\n      0x20\n      add\n      swap2\n      jump(tag_231)\n    tag_232:\n      dup3\n      add\n      swap2\n      swap1\n      0x00\n      mstore\n      keccak256(0x00, 0x20)\n      swap1\n    tag_233:\n      dup2\n      sload\n      dup2\n      mstore\n      swap1\n      0x01\n      add\n      swap1\n      0x20\n      add\n      dup1\n      dup4\n      gt\n      tag_233\n      jumpi\n      dup3\n      swap1\n      sub\n      0x1f\n      and\n      dup3\n      add\n      swap2\n    tag_231:\n      pop\n      pop\n      pop\n      pop\n      pop\n      swap1\n      dup1\n      0x03\n      add\n      sload\n      swap1\n      pop\n      dup5\n      jump\t// out\n        /* \"#utility.yul\":7:82   */\n    tag_234:\n        /* \"#utility.yul\":40:46   */\n      0x00\n        /* \"#utility.yul\":73:75   */\n      0x40\n        /* \"#utility.yul\":67:76   */\n      mload\n        /* \"#utility.yul\":57:76   */\n      swap1\n      pop\n        /* \"#utility.yul\":7:82   */\n      swap1\n      jump\t// out\n        /* \"#utility.yul\":88:205   */\n    tag_235:\n        /* \"#utility.yul\":197:198   */\n      0x00\n        /* \"#utility.yul\":194:195   */\n      dup1\n        /* \"#utility.yul\":187:199   */\n      revert\n        /* \"#utility.yul\":211:328   */\n    tag_236:\n        /* \"#utility.yul\":320:321   */\n      0x00\n        /* \"#utility.yul\":317:318   */\n      dup1\n        /* \"#utility.yul\":310:322   */\n      revert\n        /* \"#utility.yul\":334:411   */\n    tag_237:\n        /* \"#utility.yul\":371:378   */\n      0x00\n        /* \"#utility.yul\":400:405   */\n      dup2\n        /* \"#utility.yul\":389:405   */\n      swap1\n      pop\n        /* \"#utility.yul\":334:411   */\n      swap2\n      swap1\n      pop\n      jump\t// out\n        /* \"#utility.yul\":417:539   */\n    tag_238:\n        /* \"#utility.yul\":490:514   */\n      tag_322\n        /* \"#utility.yul\":508:513   */\n      dup2\n        /* \"#utility.yul\":490:514   */\n      tag_237\n      jump\t// in\n    tag_322:\n        /* \"#utility.yul\":483:488   */\n      dup2\n        /* \"#utility.yul\":480:515   */\n      eq\n        /* \"#utility.yul\":470:533   */\n      tag_323\n      jumpi\n        /* \"#utility.yul\":529:530   */\n      0x00\n        /* \"#utility.yul\":526:527   */\n      dup1\n        /* \"#utility.yul\":519:531   */\n      revert\n        /* \"#utility.yul\":470:533   */\n    tag_323:\n        /* \"#utility.yul\":417:539   */\n      pop\n      jump\t// out\n        /* \"#utility.yul\":545:684   */\n    tag_239:\n        /* \"#utility.yul\":591:596   */\n      0x00\n        /* \"#utility.yul\":629:635   */\n      dup2\n        /* \"#utility.yul\":616:636   */\n      calldataload\n        /* \"#utility.yul\":607:636   */\n      swap1\n      pop\n        /* \"#utility.yul\":645:678   */\n      tag_325\n        /* \"#utility.yul\":672:677   */\n      dup2\n        /* \"#utility.yul\":645:678   */\n      tag_238\n      jump\t// in\n    tag_325:\n        /* \"#utility.yul\":545:684   */\n      swap3\n      swap2\n      pop\n      pop\n      jump\t// out\n        /* \"#utility.yul\":690:1019   */\n    tag_17:\n        /* \"#utility.yul\":749:755   */\n      0x00\n        /* \"#utility.yul\":798:800   */\n      0x20\n        /* \"#utility.yul\":786:795   */\n      dup3\n        /* \"#utility.yul\":777:784   */\n      dup5\n        /* \"#utility.yul\":773:796   */\n      sub\n        /* \"#utility.yul\":769:801   */\n      slt\n        /* \"#utility.yul\":766:885   */\n      iszero\n      tag_327\n      jumpi\n        /* \"#utility.yul\":804:883   */\n      tag_328\n      tag_235\n      jump\t// in\n    tag_328:\n        /* \"#utility.yul\":766:885   */\n    tag_327:\n        /* \"#utility.yul\":924:925   */\n      0x00\n        /* \"#utility.yul\":949:1002   */\n      tag_329\n        /* \"#utility.yul\":994:1001   */\n      dup5\n        /* \"#utility.yul\":985:991   */\n      dup3\n        /* \"#utility.yul\":974:983   */\n      dup6\n        /* \"#utility.yul\":970:992   */\n      add\n        /* \"#utility.yul\":949:1002   */\n      tag_239\n      jump\t// in\n    tag_329:\n        /* \"#utility.yul\":939:1002   */\n      swap2\n      pop\n        /* \"#utility.yul\":895:1012   */\n      pop\n        /* \"#utility.yul\":690:1019   */\n      swap3\n      swap2\n      pop\n      pop\n      jump\t// out\n        /* \"#utility.yul\":1025:1151   */\n    tag_240:\n        /* \"#utility.yul\":1062:1069   */\n      0x00\n        /* \"#utility.yul\":1102:1144   */\n      0xffffffffffffffffffffffffffffffffffffffff\n        /* \"#utility.yul\":1095:1100   */\n      dup3\n        /* \"#utility.yul\":1091:1145   */\n      and\n        /* \"#utility.yul\":1080:1145   */\n      swap1\n      pop\n        /* \"#utility.yul\":1025:1151   */\n      swap2\n      swap1\n      pop\n      jump\t// out\n        /* \"#utility.yul\":1157:1253   */\n    tag_241:\n        /* \"#utility.yul\":1194:1201   */\n      0x00\n        /* \"#utility.yul\":1223:1247   */\n      tag_332\n        /* \"#utility.yul\":1241:1246   */\n      dup3\n        /* \"#utility.yul\":1223:1247   */\n      tag_240\n      jump\t// in\n    tag_332:\n        /* \"#utility.yul\":1212:1247   */\n      swap1\n      pop\n        /* \"#utility.yul\":1157:1253   */\n      swap2\n      swap1\n      pop\n      jump\t// out\n        /* \"#utility.yul\":1259:1377   */\n    tag_242:\n        /* \"#utility.yul\":1346:1370   */\n      tag_334\n        /* \"#utility.yul\":1364:1369   */\n      dup2\n        /* \"#utility.yul\":1346:1370   */\n      tag_241\n      jump\t// in\n    tag_334:\n        /* \"#utility.yul\":1341:1344   */\n      dup3\n        /* \"#utility.yul\":1334:1371   */\n      mstore\n        /* \"#utility.yul\":1259:1377   */\n      pop\n      pop\n      jump\t// out\n        /* \"#utility.yul\":1383:1482   */\n    tag_243:\n        /* \"#utility.yul\":1435:1441   */\n      0x00\n        /* \"#utility.yul\":1469:1474   */\n      dup2\n        /* \"#utility.yul\":1463:1475   */\n      mload\n        /* \"#utility.yul\":1453:1475   */\n      swap1\n      pop\n        /* \"#utility.yul\":1383:1482   */\n      swap2\n      swap1\n      pop\n      jump\t// out\n        /* \"#utility.yul\":1488:1657   */\n    tag_244:\n        /* \"#utility.yul\":1572:1583   */\n      0x00\n        /* \"#utility.yul\":1606:1612   */\n      dup3\n        /* \"#utility.yul\":1601:1604   */\n      dup3\n        /* \"#utility.yul\":1594:1613   */\n      mstore\n        /* \"#utility.yul\":1646:1650   */\n      0x20\n        /* \"#utility.yul\":1641:1644   */\n      dup3\n        /* \"#utility.yul\":1637:1651   */\n      add\n        /* \"#utility.yul\":1622:1651   */\n      swap1\n      pop\n        /* \"#utility.yul\":1488:1657   */\n      swap3\n      swap2\n      pop\n      pop\n      jump\t// out\n        /* \"#utility.yul\":1663:1909   */\n    tag_245:\n        /* \"#utility.yul\":1744:1745   */\n      0x00\n        /* \"#utility.yul\":1754:1867   */\n    tag_338:\n        /* \"#utility.yul\":1768:1774   */\n      dup4\n        /* \"#utility.yul\":1765:1766   */\n      dup2\n        /* \"#utility.yul\":1762:1775   */\n      lt\n        /* \"#utility.yul\":1754:1867   */\n      iszero\n      tag_340\n      jumpi\n        /* \"#utility.yul\":1853:1854   */\n      dup1\n        /* \"#utility.yul\":1848:1851   */\n      dup3\n        /* \"#utility.yul\":1844:1855   */\n      add\n        /* \"#utility.yul\":1838:1856   */\n      mload\n        /* \"#utility.yul\":1834:1835   */\n      dup2\n        /* \"#utility.yul\":1829:1832   */\n      dup5\n        /* \"#utility.yul\":1825:1836   */\n      add\n        /* \"#utility.yul\":1818:1857   */\n      mstore\n        /* \"#utility.yul\":1790:1792   */\n      0x20\n        /* \"#utility.yul\":1787:1788   */\n      dup2\n        /* \"#utility.yul\":1783:1793   */\n      add\n        /* \"#utility.yul\":1778:1793   */\n      swap1\n      pop\n        /* \"#utility.yul\":1754:1867   */\n      jump(tag_338)\n    tag_340:\n        /* \"#utility.yul\":1901:1902   */\n      0x00\n        /* \"#utility.yul\":1892:1898   */\n      dup5\n        /* \"#utility.yul\":1887:1890   */\n      dup5\n        /* \"#utility.yul\":1883:1899   */\n      add\n        /* \"#utility.yul\":1876:1903   */\n      mstore\n        /* \"#utility.yul\":1725:1909   */\n      pop\n        /* \"#utility.yul\":1663:1909   */\n      pop\n      pop\n      pop\n      jump\t// out\n        /* \"#utility.yul\":1915:2017   */\n    tag_246:\n        /* \"#utility.yul\":1956:1962   */\n      0x00\n        /* \"#utility.yul\":2007:2009   */\n      0x1f\n        /* \"#utility.yul\":2003:2010   */\n      not\n        /* \"#utility.yul\":1998:2000   */\n      0x1f\n        /* \"#utility.yul\":1991:1996   */\n      dup4\n        /* \"#utility.yul\":1987:2001   */\n      add\n        /* \"#utility.yul\":1983:2011   */\n      and\n        /* \"#utility.yul\":1973:2011   */\n      swap1\n      pop\n        /* \"#utility.yul\":1915:2017   */\n      swap2\n      swap1\n      pop\n      jump\t// out\n        /* \"#utility.yul\":2023:2400   */\n    tag_247:\n        /* \"#utility.yul\":2111:2114   */\n      0x00\n        /* \"#utility.yul\":2139:2178   */\n      tag_343\n        /* \"#utility.yul\":2172:2177   */\n      dup3\n        /* \"#utility.yul\":2139:2178   */\n      tag_243\n      jump\t// in\n    tag_343:\n        /* \"#utility.yul\":2194:2265   */\n      tag_344\n        /* \"#utility.yul\":2258:2264   */\n      dup2\n        /* \"#utility.yul\":2253:2256   */\n      dup6\n        /* \"#utility.yul\":2194:2265   */\n      tag_244\n      jump\t// in\n    tag_344:\n        /* \"#utility.yul\":2187:2265   */\n      swap4\n      pop\n        /* \"#utility.yul\":2274:2339   */\n      tag_345\n        /* \"#utility.yul\":2332:2338   */\n      dup2\n        /* \"#utility.yul\":2327:2330   */\n      dup6\n        /* \"#utility.yul\":2320:2324   */\n      0x20\n        /* \"#utility.yul\":2313:2318   */\n      dup7\n        /* \"#utility.yul\":2309:2325   */\n      add\n        /* \"#utility.yul\":2274:2339   */\n      tag_245\n      jump\t// in\n    tag_345:\n        /* \"#utility.yul\":2364:2393   */\n      tag_346\n        /* \"#utility.yul\":2386:2392   */\n      dup2\n        /* \"#utility.yul\":2364:2393   */\n      tag_246\n      jump\t// in\n    tag_346:\n        /* \"#utility.yul\":2359:2362   */\n      dup5\n        /* \"#utility.yul\":2355:2394   */\n      add\n        /* \"#utility.yul\":2348:2394   */\n      swap2\n      pop\n        /* \"#utility.yul\":2115:2400   */\n      pop\n        /* \"#utility.yul\":2023:2400   */\n      swap3\n      swap2\n      pop\n      pop\n      jump\t// out\n        /* \"#utility.yul\":2406:2524   */\n    tag_248:\n        /* \"#utility.yul\":2493:2517   */\n      tag_348\n        /* \"#utility.yul\":2511:2516   */\n      dup2\n        /* \"#utility.yul\":2493:2517   */\n      tag_237\n      jump\t// in\n    tag_348:\n        /* \"#utility.yul\":2488:2491   */\n      dup3\n        /* \"#utility.yul\":2481:2518   */\n      mstore\n        /* \"#utility.yul\":2406:2524   */\n      pop\n      pop\n      jump\t// out\n        /* \"#utility.yul\":2530:2620   */\n    tag_249:\n        /* \"#utility.yul\":2564:2571   */\n      0x00\n        /* \"#utility.yul\":2607:2612   */\n      dup2\n        /* \"#utility.yul\":2600:2613   */\n      iszero\n        /* \"#utility.yul\":2593:2614   */\n      iszero\n        /* \"#utility.yul\":2582:2614   */\n      swap1\n      pop\n        /* \"#utility.yul\":2530:2620   */\n      swap2\n      swap1\n      pop\n      jump\t// out\n        /* \"#utility.yul\":2626:2735   */\n    tag_250:\n        /* \"#utility.yul\":2707:2728   */\n      tag_351\n        /* \"#utility.yul\":2722:2727   */\n      dup2\n        /* \"#utility.yul\":2707:2728   */\n      tag_249\n      jump\t// in\n    tag_351:\n        /* \"#utility.yul\":2702:2705   */\n      dup3\n        /* \"#utility.yul\":2695:2729   */\n      mstore\n        /* \"#utility.yul\":2626:2735   */\n      pop\n      pop\n      jump\t// out\n        /* \"#utility.yul\":2741:3908   */\n    tag_20:\n        /* \"#utility.yul\":3064:3068   */\n      0x00\n        /* \"#utility.yul\":3102:3105   */\n      0x0100\n        /* \"#utility.yul\":3091:3100   */\n      dup3\n        /* \"#utility.yul\":3087:3106   */\n      add\n        /* \"#utility.yul\":3079:3106   */\n      swap1\n      pop\n        /* \"#utility.yul\":3116:3187   */\n      tag_353\n        /* \"#utility.yul\":3184:3185   */\n      0x00\n        /* \"#utility.yul\":3173:3182   */\n      dup4\n        /* \"#utility.yul\":3169:3186   */\n      add\n        /* \"#utility.yul\":3160:3166   */\n      dup12\n        /* \"#utility.yul\":3116:3187   */\n      tag_242\n      jump\t// in\n    tag_353:\n        /* \"#utility.yul\":3234:3243   */\n      dup2\n        /* \"#utility.yul\":3228:3232   */\n      dup2\n        /* \"#utility.yul\":3224:3244   */\n      sub\n        /* \"#utility.yul\":3219:3221   */\n      0x20\n        /* \"#utility.yul\":3208:3217   */\n      dup4\n        /* \"#utility.yul\":3204:3222   */\n      add\n        /* \"#utility.yul\":3197:3245   */\n      mstore\n        /* \"#utility.yul\":3262:3340   */\n      tag_354\n        /* \"#utility.yul\":3335:3339   */\n      dup2\n        /* \"#utility.yul\":3326:3332   */\n      dup11\n        /* \"#utility.yul\":3262:3340   */\n      tag_247\n      jump\t// in\n    tag_354:\n        /* \"#utility.yul\":3254:3340   */\n      swap1\n      pop\n        /* \"#utility.yul\":3387:3396   */\n      dup2\n        /* \"#utility.yul\":3381:3385   */\n      dup2\n        /* \"#utility.yul\":3377:3397   */\n      sub\n        /* \"#utility.yul\":3372:3374   */\n      0x40\n        /* \"#utility.yul\":3361:3370   */\n      dup4\n        /* \"#utility.yul\":3357:3375   */\n      add\n        /* \"#utility.yul\":3350:3398   */\n      mstore\n        /* \"#utility.yul\":3415:3493   */\n      tag_355\n        /* \"#utility.yul\":3488:3492   */\n      dup2\n        /* \"#utility.yul\":3479:3485   */\n      dup10\n        /* \"#utility.yul\":3415:3493   */\n      tag_247\n      jump\t// in\n    tag_355:\n        /* \"#utility.yul\":3407:3493   */\n      swap1\n      pop\n        /* \"#utility.yul\":3503:3575   */\n      tag_356\n        /* \"#utility.yul\":3571:3573   */\n      0x60\n        /* \"#utility.yul\":3560:3569   */\n      dup4\n        /* \"#utility.yul\":3556:3574   */\n      add\n        /* \"#utility.yul\":3547:3553   */\n      dup9\n        /* \"#utility.yul\":3503:3575   */\n      tag_248\n      jump\t// in\n    tag_356:\n        /* \"#utility.yul\":3585:3652   */\n      tag_357\n        /* \"#utility.yul\":3647:3650   */\n      0x80\n        /* \"#utility.yul\":3636:3645   */\n      dup4\n        /* \"#utility.yul\":3632:3651   */\n      add\n        /* \"#utility.yul\":3623:3629   */\n      dup8\n        /* \"#utility.yul\":3585:3652   */\n      tag_250\n      jump\t// in\n    tag_357:\n        /* \"#utility.yul\":3662:3735   */\n      tag_358\n        /* \"#utility.yul\":3730:3733   */\n      0xa0\n        /* \"#utility.yul\":3719:3728   */\n      dup4\n        /* \"#utility.yul\":3715:3734   */\n      add\n        /* \"#utility.yul\":3706:3712   */\n      dup7\n        /* \"#utility.yul\":3662:3735   */\n      tag_248\n      jump\t// in\n    tag_358:\n        /* \"#utility.yul\":3745:3818   */\n      tag_359\n        /* \"#utility.yul\":3813:3816   */\n      0xc0\n        /* \"#utility.yul\":3802:3811   */\n      dup4\n        /* \"#utility.yul\":3798:3817   */\n      add\n        /* \"#utility.yul\":3789:3795   */\n      dup6\n        /* \"#utility.yul\":3745:3818   */\n      tag_248\n      jump\t// in\n    tag_359:\n        /* \"#utility.yul\":3828:3901   */\n      tag_360\n        /* \"#utility.yul\":3896:3899   */\n      0xe0\n        /* \"#utility.yul\":3885:3894   */\n      dup4\n        /* \"#utility.yul\":3881:3900   */\n      add\n        /* \"#utility.yul\":3872:3878   */\n      dup5\n        /* \"#utility.yul\":3828:3901   */\n      tag_248\n      jump\t// in\n    tag_360:\n        /* \"#utility.yul\":2741:3908   */\n      swap10\n      swap9\n      pop\n      pop\n      pop\n      pop\n      pop\n      pop\n      pop\n      pop\n      pop\n      jump\t// out\n        /* \"#utility.yul\":3914:4136   */\n    tag_25:\n        /* \"#utility.yul\":4007:4011   */\n      0x00\n        /* \"#utility.yul\":4045:4047   */\n      0x20\n        /* \"#utility.yul\":4034:4043   */\n      dup3\n        /* \"#utility.yul\":4030:4048   */\n      add\n        /* \"#utility.yul\":4022:4048   */\n      swap1\n      pop\n        /* \"#utility.yul\":4058:4129   */\n      tag_362\n        /* \"#utility.yul\":4126:4127   */\n      0x00\n        /* \"#utility.yul\":4115:4124   */\n      dup4\n        /* \"#utility.yul\":4111:4128   */\n      add\n        /* \"#utility.yul\":4102:4108   */\n      dup5\n        /* \"#utility.yul\":4058:4129   */\n      tag_248\n      jump\t// in\n    tag_362:\n        /* \"#utility.yul\":3914:4136   */\n      swap3\n      swap2\n      pop\n      pop\n      jump\t// out\n        /* \"#utility.yul\":4142:4259   */\n    tag_251:\n        /* \"#utility.yul\":4251:4252   */\n      0x00\n        /* \"#utility.yul\":4248:4249   */\n      dup1\n        /* \"#utility.yul\":4241:4253   */\n      revert\n        /* \"#utility.yul\":4265:4382   */\n    tag_252:\n        /* \"#utility.yul\":4374:4375   */\n      0x00\n        /* \"#utility.yul\":4371:4372   */\n      dup1\n        /* \"#utility.yul\":4364:4376   */\n      revert\n        /* \"#utility.yul\":4388:4568   */\n    tag_107:\n        /* \"#utility.yul\":4436:4513   */\n      0x4e487b7100000000000000000000000000000000000000000000000000000000\n        /* \"#utility.yul\":4433:4434   */\n      0x00\n        /* \"#utility.yul\":4426:4514   */\n      mstore\n        /* \"#utility.yul\":4533:4537   */\n      0x41\n        /* \"#utility.yul\":4530:4531   */\n      0x04\n        /* \"#utility.yul\":4523:4538   */\n      mstore\n        /* \"#utility.yul\":4557:4561   */\n      0x24\n        /* \"#utility.yul\":4554:4555   */\n      0x00\n        /* \"#utility.yul\":4547:4562   */\n      revert\n        /* \"#utility.yul\":4574:4855   */\n    tag_253:\n        /* \"#utility.yul\":4657:4684   */\n      tag_367\n        /* \"#utility.yul\":4679:4683   */\n      dup3\n        /* \"#utility.yul\":4657:4684   */\n      tag_246\n      jump\t// in\n    tag_367:\n        /* \"#utility.yul\":4649:4655   */\n      dup2\n        /* \"#utility.yul\":4645:4685   */\n      add\n        /* \"#utility.yul\":4787:4793   */\n      dup2\n        /* \"#utility.yul\":4775:4785   */\n      dup2\n        /* \"#utility.yul\":4772:4794   */\n      lt\n        /* \"#utility.yul\":4751:4769   */\n      0xffffffffffffffff\n        /* \"#utility.yul\":4739:4749   */\n      dup3\n        /* \"#utility.yul\":4736:4770   */\n      gt\n        /* \"#utility.yul\":4733:4795   */\n      or\n        /* \"#utility.yul\":4730:4818   */\n      iszero\n      tag_368\n      jumpi\n        /* \"#utility.yul\":4798:4816   */\n      tag_369\n      tag_107\n      jump\t// in\n    tag_369:\n        /* \"#utility.yul\":4730:4818   */\n    tag_368:\n        /* \"#utility.yul\":4838:4848   */\n      dup1\n        /* \"#utility.yul\":4834:4836   */\n      0x40\n        /* \"#utility.yul\":4827:4849   */\n      mstore\n        /* \"#utility.yul\":4617:4855   */\n      pop\n        /* \"#utility.yul\":4574:4855   */\n      pop\n      pop\n      jump\t// out\n        /* \"#utility.yul\":4861:4990   */\n    tag_254:\n        /* \"#utility.yul\":4895:4901   */\n      0x00\n        /* \"#utility.yul\":4922:4942   */\n      tag_371\n      tag_234\n      jump\t// in\n    tag_371:\n        /* \"#utility.yul\":4912:4942   */\n      swap1\n      pop\n        /* \"#utility.yul\":4951:4984   */\n      tag_372\n        /* \"#utility.yul\":4979:4983   */\n      dup3\n        /* \"#utility.yul\":4971:4977   */\n      dup3\n        /* \"#utility.yul\":4951:4984   */\n      tag_253\n      jump\t// in\n    tag_372:\n        /* \"#utility.yul\":4861:4990   */\n      swap2\n      swap1\n      pop\n      jump\t// out\n        /* \"#utility.yul\":4996:5304   */\n    tag_255:\n        /* \"#utility.yul\":5058:5062   */\n      0x00\n        /* \"#utility.yul\":5148:5166   */\n      0xffffffffffffffff\n        /* \"#utility.yul\":5140:5146   */\n      dup3\n        /* \"#utility.yul\":5137:5167   */\n      gt\n        /* \"#utility.yul\":5134:5190   */\n      iszero\n      tag_374\n      jumpi\n        /* \"#utility.yul\":5170:5188   */\n      tag_375\n      tag_107\n      jump\t// in\n    tag_375:\n        /* \"#utility.yul\":5134:5190   */\n    tag_374:\n        /* \"#utility.yul\":5208:5237   */\n      tag_376\n        /* \"#utility.yul\":5230:5236   */\n      dup3\n        /* \"#utility.yul\":5208:5237   */\n      tag_246\n      jump\t// in\n    tag_376:\n        /* \"#utility.yul\":5200:5237   */\n      swap1\n      pop\n        /* \"#utility.yul\":5292:5296   */\n      0x20\n        /* \"#utility.yul\":5286:5290   */\n      dup2\n        /* \"#utility.yul\":5282:5297   */\n      add\n        /* \"#utility.yul\":5274:5297   */\n      swap1\n      pop\n        /* \"#utility.yul\":4996:5304   */\n      swap2\n      swap1\n      pop\n      jump\t// out\n        /* \"#utility.yul\":5310:5456   */\n    tag_256:\n        /* \"#utility.yul\":5407:5413   */\n      dup3\n        /* \"#utility.yul\":5402:5405   */\n      dup2\n        /* \"#utility.yul\":5397:5400   */\n      dup4\n        /* \"#utility.yul\":5384:5414   */\n      calldatacopy\n        /* \"#utility.yul\":5448:5449   */\n      0x00\n        /* \"#utility.yul\":5439:5445   */\n      dup4\n        /* \"#utility.yul\":5434:5437   */\n      dup4\n        /* \"#utility.yul\":5430:5446   */\n      add\n        /* \"#utility.yul\":5423:5450   */\n      mstore\n        /* \"#utility.yul\":5310:5456   */\n      pop\n      pop\n      pop\n      jump\t// out\n        /* \"#utility.yul\":5462:5887   */\n    tag_257:\n        /* \"#utility.yul\":5540:5545   */\n      0x00\n        /* \"#utility.yul\":5565:5631   */\n      tag_379\n        /* \"#utility.yul\":5581:5630   */\n      tag_380\n        /* \"#utility.yul\":5623:5629   */\n      dup5\n        /* \"#utility.yul\":5581:5630   */\n      tag_255\n      jump\t// in\n    tag_380:\n        /* \"#utility.yul\":5565:5631   */\n      tag_254\n      jump\t// in\n    tag_379:\n        /* \"#utility.yul\":5556:5631   */\n      swap1\n      pop\n        /* \"#utility.yul\":5654:5660   */\n      dup3\n        /* \"#utility.yul\":5647:5652   */\n      dup2\n        /* \"#utility.yul\":5640:5661   */\n      mstore\n        /* \"#utility.yul\":5692:5696   */\n      0x20\n        /* \"#utility.yul\":5685:5690   */\n      dup2\n        /* \"#utility.yul\":5681:5697   */\n      add\n        /* \"#utility.yul\":5730:5733   */\n      dup5\n        /* \"#utility.yul\":5721:5727   */\n      dup5\n        /* \"#utility.yul\":5716:5719   */\n      dup5\n        /* \"#utility.yul\":5712:5728   */\n      add\n        /* \"#utility.yul\":5709:5734   */\n      gt\n        /* \"#utility.yul\":5706:5818   */\n      iszero\n      tag_381\n      jumpi\n        /* \"#utility.yul\":5737:5816   */\n      tag_382\n      tag_252\n      jump\t// in\n    tag_382:\n        /* \"#utility.yul\":5706:5818   */\n    tag_381:\n        /* \"#utility.yul\":5827:5881   */\n      tag_383\n        /* \"#utility.yul\":5874:5880   */\n      dup5\n        /* \"#utility.yul\":5869:5872   */\n      dup3\n        /* \"#utility.yul\":5864:5867   */\n      dup6\n        /* \"#utility.yul\":5827:5881   */\n      tag_256\n      jump\t// in\n    tag_383:\n        /* \"#utility.yul\":5546:5887   */\n      pop\n        /* \"#utility.yul\":5462:5887   */\n      swap4\n      swap3\n      pop\n      pop\n      pop\n      jump\t// out\n        /* \"#utility.yul\":5907:6247   */\n    tag_258:\n        /* \"#utility.yul\":5963:5968   */\n      0x00\n        /* \"#utility.yul\":6012:6015   */\n      dup3\n        /* \"#utility.yul\":6005:6009   */\n      0x1f\n        /* \"#utility.yul\":5997:6003   */\n      dup4\n        /* \"#utility.yul\":5993:6010   */\n      add\n        /* \"#utility.yul\":5989:6016   */\n      slt\n        /* \"#utility.yul\":5979:6101   */\n      tag_385\n      jumpi\n        /* \"#utility.yul\":6020:6099   */\n      tag_386\n      tag_251\n      jump\t// in\n    tag_386:\n        /* \"#utility.yul\":5979:6101   */\n    tag_385:\n        /* \"#utility.yul\":6137:6143   */\n      dup2\n        /* \"#utility.yul\":6124:6144   */\n      calldataload\n        /* \"#utility.yul\":6162:6241   */\n      tag_387\n        /* \"#utility.yul\":6237:6240   */\n      dup5\n        /* \"#utility.yul\":6229:6235   */\n      dup3\n        /* \"#utility.yul\":6222:6226   */\n      0x20\n        /* \"#utility.yul\":6214:6220   */\n      dup7\n        /* \"#utility.yul\":6210:6227   */\n      add\n        /* \"#utility.yul\":6162:6241   */\n      tag_257\n      jump\t// in\n    tag_387:\n        /* \"#utility.yul\":6153:6241   */\n      swap2\n      pop\n        /* \"#utility.yul\":5969:6247   */\n      pop\n        /* \"#utility.yul\":5907:6247   */\n      swap3\n      swap2\n      pop\n      pop\n      jump\t// out\n        /* \"#utility.yul\":6253:7232   */\n    tag_28:\n        /* \"#utility.yul\":6350:6356   */\n      0x00\n        /* \"#utility.yul\":6358:6364   */\n      dup1\n        /* \"#utility.yul\":6366:6372   */\n      0x00\n        /* \"#utility.yul\":6415:6417   */\n      0x60\n        /* \"#utility.yul\":6403:6412   */\n      dup5\n        /* \"#utility.yul\":6394:6401   */\n      dup7\n        /* \"#utility.yul\":6390:6413   */\n      sub\n        /* \"#utility.yul\":6386:6418   */\n      slt\n        /* \"#utility.yul\":6383:6502   */\n      iszero\n      tag_389\n      jumpi\n        /* \"#utility.yul\":6421:6500   */\n      tag_390\n      tag_235\n      jump\t// in\n    tag_390:\n        /* \"#utility.yul\":6383:6502   */\n    tag_389:\n        /* \"#utility.yul\":6541:6542   */\n      0x00\n        /* \"#utility.yul\":6566:6619   */\n      tag_391\n        /* \"#utility.yul\":6611:6618   */\n      dup7\n        /* \"#utility.yul\":6602:6608   */\n      dup3\n        /* \"#utility.yul\":6591:6600   */\n      dup8\n        /* \"#utility.yul\":6587:6609   */\n      add\n        /* \"#utility.yul\":6566:6619   */\n      tag_239\n      jump\t// in\n    tag_391:\n        /* \"#utility.yul\":6556:6619   */\n      swap4\n      pop\n        /* \"#utility.yul\":6512:6629   */\n      pop\n        /* \"#utility.yul\":6696:6698   */\n      0x20\n        /* \"#utility.yul\":6685:6694   */\n      dup5\n        /* \"#utility.yul\":6681:6699   */\n      add\n        /* \"#utility.yul\":6668:6700   */\n      calldataload\n        /* \"#utility.yul\":6727:6745   */\n      0xffffffffffffffff\n        /* \"#utility.yul\":6719:6725   */\n      dup2\n        /* \"#utility.yul\":6716:6746   */\n      gt\n        /* \"#utility.yul\":6713:6830   */\n      iszero\n      tag_392\n      jumpi\n        /* \"#utility.yul\":6749:6828   */\n      tag_393\n      tag_236\n      jump\t// in\n    tag_393:\n        /* \"#utility.yul\":6713:6830   */\n    tag_392:\n        /* \"#utility.yul\":6854:6917   */\n      tag_394\n        /* \"#utility.yul\":6909:6916   */\n      dup7\n        /* \"#utility.yul\":6900:6906   */\n      dup3\n        /* \"#utility.yul\":6889:6898   */\n      dup8\n        /* \"#utility.yul\":6885:6907   */\n      add\n        /* \"#utility.yul\":6854:6917   */\n      tag_258\n      jump\t// in\n    tag_394:\n        /* \"#utility.yul\":6844:6917   */\n      swap3\n      pop\n        /* \"#utility.yul\":6639:6927   */\n      pop\n        /* \"#utility.yul\":6994:6996   */\n      0x40\n        /* \"#utility.yul\":6983:6992   */\n      dup5\n        /* \"#utility.yul\":6979:6997   */\n      add\n        /* \"#utility.yul\":6966:6998   */\n      calldataload\n        /* \"#utility.yul\":7025:7043   */\n      0xffffffffffffffff\n        /* \"#utility.yul\":7017:7023   */\n      dup2\n        /* \"#utility.yul\":7014:7044   */\n      gt\n        /* \"#utility.yul\":7011:7128   */\n      iszero\n      tag_395\n      jumpi\n        /* \"#utility.yul\":7047:7126   */\n      tag_396\n      tag_236\n      jump\t// in\n    tag_396:\n        /* \"#utility.yul\":7011:7128   */\n    tag_395:\n        /* \"#utility.yul\":7152:7215   */\n      tag_397\n        /* \"#utility.yul\":7207:7214   */\n      dup7\n        /* \"#utility.yul\":7198:7204   */\n      dup3\n        /* \"#utility.yul\":7187:7196   */\n      dup8\n        /* \"#utility.yul\":7183:7205   */\n      add\n        /* \"#utility.yul\":7152:7215   */\n      tag_258\n      jump\t// in\n    tag_397:\n        /* \"#utility.yul\":7142:7215   */\n      swap2\n      pop\n        /* \"#utility.yul\":6937:7225   */\n      pop\n        /* \"#utility.yul\":6253:7232   */\n      swap3\n      pop\n      swap3\n      pop\n      swap3\n      jump\t// out\n        /* \"#utility.yul\":7238:7857   */\n    tag_35:\n        /* \"#utility.yul\":7315:7321   */\n      0x00\n        /* \"#utility.yul\":7323:7329   */\n      dup1\n        /* \"#utility.yul\":7331:7337   */\n      0x00\n        /* \"#utility.yul\":7380:7382   */\n      0x60\n        /* \"#utility.yul\":7368:7377   */\n      dup5\n        /* \"#utility.yul\":7359:7366   */\n      dup7\n        /* \"#utility.yul\":7355:7378   */\n      sub\n        /* \"#utility.yul\":7351:7383   */\n      slt\n        /* \"#utility.yul\":7348:7467   */\n      iszero\n      tag_399\n      jumpi\n        /* \"#utility.yul\":7386:7465   */\n      tag_400\n      tag_235\n      jump\t// in\n    tag_400:\n        /* \"#utility.yul\":7348:7467   */\n    tag_399:\n        /* \"#utility.yul\":7506:7507   */\n      0x00\n        /* \"#utility.yul\":7531:7584   */\n      tag_401\n        /* \"#utility.yul\":7576:7583   */\n      dup7\n        /* \"#utility.yul\":7567:7573   */\n      dup3\n        /* \"#utility.yul\":7556:7565   */\n      dup8\n        /* \"#utility.yul\":7552:7574   */\n      add\n        /* \"#utility.yul\":7531:7584   */\n      tag_239\n      jump\t// in\n    tag_401:\n        /* \"#utility.yul\":7521:7584   */\n      swap4\n      pop\n        /* \"#utility.yul\":7477:7594   */\n      pop\n        /* \"#utility.yul\":7633:7635   */\n      0x20\n        /* \"#utility.yul\":7659:7712   */\n      tag_402\n        /* \"#utility.yul\":7704:7711   */\n      dup7\n        /* \"#utility.yul\":7695:7701   */\n      dup3\n        /* \"#utility.yul\":7684:7693   */\n      dup8\n        /* \"#utility.yul\":7680:7702   */\n      add\n        /* \"#utility.yul\":7659:7712   */\n      tag_239\n      jump\t// in\n    tag_402:\n        /* \"#utility.yul\":7649:7712   */\n      swap3\n      pop\n        /* \"#utility.yul\":7604:7722   */\n      pop\n        /* \"#utility.yul\":7761:7763   */\n      0x40\n        /* \"#utility.yul\":7787:7840   */\n      tag_403\n        /* \"#utility.yul\":7832:7839   */\n      dup7\n        /* \"#utility.yul\":7823:7829   */\n      dup3\n        /* \"#utility.yul\":7812:7821   */\n      dup8\n        /* \"#utility.yul\":7808:7830   */\n      add\n        /* \"#utility.yul\":7787:7840   */\n      tag_239\n      jump\t// in\n    tag_403:\n        /* \"#utility.yul\":7777:7840   */\n      swap2\n      pop\n        /* \"#utility.yul\":7732:7850   */\n      pop\n        /* \"#utility.yul\":7238:7857   */\n      swap3\n      pop\n      swap3\n      pop\n      swap3\n      jump\t// out\n        /* \"#utility.yul\":7863:7977   */\n    tag_259:\n        /* \"#utility.yul\":7930:7936   */\n      0x00\n        /* \"#utility.yul\":7964:7969   */\n      dup2\n        /* \"#utility.yul\":7958:7970   */\n      mload\n        /* \"#utility.yul\":7948:7970   */\n      swap1\n      pop\n        /* \"#utility.yul\":7863:7977   */\n      swap2\n      swap1\n      pop\n      jump\t// out\n        /* \"#utility.yul\":7983:8167   */\n    tag_260:\n        /* \"#utility.yul\":8082:8093   */\n      0x00\n        /* \"#utility.yul\":8116:8122   */\n      dup3\n        /* \"#utility.yul\":8111:8114   */\n      dup3\n        /* \"#utility.yul\":8104:8123   */\n      mstore\n        /* \"#utility.yul\":8156:8160   */\n      0x20\n        /* \"#utility.yul\":8151:8154   */\n      dup3\n        /* \"#utility.yul\":8147:8161   */\n      add\n        /* \"#utility.yul\":8132:8161   */\n      swap1\n      pop\n        /* \"#utility.yul\":7983:8167   */\n      swap3\n      swap2\n      pop\n      pop\n      jump\t// out\n        /* \"#utility.yul\":8173:8305   */\n    tag_261:\n        /* \"#utility.yul\":8240:8244   */\n      0x00\n        /* \"#utility.yul\":8263:8266   */\n      dup2\n        /* \"#utility.yul\":8255:8266   */\n      swap1\n      pop\n        /* \"#utility.yul\":8293:8297   */\n      0x20\n        /* \"#utility.yul\":8288:8291   */\n      dup3\n        /* \"#utility.yul\":8284:8298   */\n      add\n        /* \"#utility.yul\":8276:8298   */\n      swap1\n      pop\n        /* \"#utility.yul\":8173:8305   */\n      swap2\n      swap1\n      pop\n      jump\t// out\n        /* \"#utility.yul\":8311:8419   */\n    tag_262:\n        /* \"#utility.yul\":8388:8412   */\n      tag_408\n        /* \"#utility.yul\":8406:8411   */\n      dup2\n        /* \"#utility.yul\":8388:8412   */\n      tag_241\n      jump\t// in\n    tag_408:\n        /* \"#utility.yul\":8383:8386   */\n      dup3\n        /* \"#utility.yul\":8376:8413   */\n      mstore\n        /* \"#utility.yul\":8311:8419   */\n      pop\n      pop\n      jump\t// out\n        /* \"#utility.yul\":8425:8604   */\n    tag_263:\n        /* \"#utility.yul\":8494:8504   */\n      0x00\n        /* \"#utility.yul\":8515:8561   */\n      tag_410\n        /* \"#utility.yul\":8557:8560   */\n      dup4\n        /* \"#utility.yul\":8549:8555   */\n      dup4\n        /* \"#utility.yul\":8515:8561   */\n      tag_262\n      jump\t// in\n    tag_410:\n        /* \"#utility.yul\":8593:8597   */\n      0x20\n        /* \"#utility.yul\":8588:8591   */\n      dup4\n        /* \"#utility.yul\":8584:8598   */\n      add\n        /* \"#utility.yul\":8570:8598   */\n      swap1\n      pop\n        /* \"#utility.yul\":8425:8604   */\n      swap3\n      swap2\n      pop\n      pop\n      jump\t// out\n        /* \"#utility.yul\":8610:8723   */\n    tag_264:\n        /* \"#utility.yul\":8680:8684   */\n      0x00\n        /* \"#utility.yul\":8712:8716   */\n      0x20\n        /* \"#utility.yul\":8707:8710   */\n      dup3\n        /* \"#utility.yul\":8703:8717   */\n      add\n        /* \"#utility.yul\":8695:8717   */\n      swap1\n      pop\n        /* \"#utility.yul\":8610:8723   */\n      swap2\n      swap1\n      pop\n      jump\t// out\n        /* \"#utility.yul\":8759:9491   */\n    tag_265:\n        /* \"#utility.yul\":8878:8881   */\n      0x00\n        /* \"#utility.yul\":8907:8961   */\n      tag_413\n        /* \"#utility.yul\":8955:8960   */\n      dup3\n        /* \"#utility.yul\":8907:8961   */\n      tag_259\n      jump\t// in\n    tag_413:\n        /* \"#utility.yul\":8977:9063   */\n      tag_414\n        /* \"#utility.yul\":9056:9062   */\n      dup2\n        /* \"#utility.yul\":9051:9054   */\n      dup6\n        /* \"#utility.yul\":8977:9063   */\n      tag_260\n      jump\t// in\n    tag_414:\n        /* \"#utility.yul\":8970:9063   */\n      swap4\n      pop\n        /* \"#utility.yul\":9087:9143   */\n      tag_415\n        /* \"#utility.yul\":9137:9142   */\n      dup4\n        /* \"#utility.yul\":9087:9143   */\n      tag_261\n      jump\t// in\n    tag_415:\n        /* \"#utility.yul\":9166:9173   */\n      dup1\n        /* \"#utility.yul\":9197:9198   */\n      0x00\n        /* \"#utility.yul\":9182:9466   */\n    tag_416:\n        /* \"#utility.yul\":9207:9213   */\n      dup4\n        /* \"#utility.yul\":9204:9205   */\n      dup2\n        /* \"#utility.yul\":9201:9214   */\n      lt\n        /* \"#utility.yul\":9182:9466   */\n      iszero\n      tag_418\n      jumpi\n        /* \"#utility.yul\":9283:9289   */\n      dup2\n        /* \"#utility.yul\":9277:9290   */\n      mload\n        /* \"#utility.yul\":9310:9373   */\n      tag_419\n        /* \"#utility.yul\":9369:9372   */\n      dup9\n        /* \"#utility.yul\":9354:9367   */\n      dup3\n        /* \"#utility.yul\":9310:9373   */\n      tag_263\n      jump\t// in\n    tag_419:\n        /* \"#utility.yul\":9303:9373   */\n      swap8\n      pop\n        /* \"#utility.yul\":9396:9456   */\n      tag_420\n        /* \"#utility.yul\":9449:9455   */\n      dup4\n        /* \"#utility.yul\":9396:9456   */\n      tag_264\n      jump\t// in\n    tag_420:\n        /* \"#utility.yul\":9386:9456   */\n      swap3\n      pop\n        /* \"#utility.yul\":9242:9466   */\n      pop\n        /* \"#utility.yul\":9229:9230   */\n      0x01\n        /* \"#utility.yul\":9226:9227   */\n      dup2\n        /* \"#utility.yul\":9222:9231   */\n      add\n        /* \"#utility.yul\":9217:9231   */\n      swap1\n      pop\n        /* \"#utility.yul\":9182:9466   */\n      jump(tag_416)\n    tag_418:\n        /* \"#utility.yul\":9186:9200   */\n      pop\n        /* \"#utility.yul\":9482:9485   */\n      dup6\n        /* \"#utility.yul\":9475:9485   */\n      swap4\n      pop\n        /* \"#utility.yul\":8883:9491   */\n      pop\n      pop\n      pop\n        /* \"#utility.yul\":8759:9491   */\n      swap3\n      swap2\n      pop\n      pop\n      jump\t// out\n        /* \"#utility.yul\":9497:9621   */\n    tag_266:\n        /* \"#utility.yul\":9574:9580   */\n      0x00\n        /* \"#utility.yul\":9608:9613   */\n      dup2\n        /* \"#utility.yul\":9602:9614   */\n      mload\n        /* \"#utility.yul\":9592:9614   */\n      swap1\n      pop\n        /* \"#utility.yul\":9497:9621   */\n      swap2\n      swap1\n      pop\n      jump\t// out\n        /* \"#utility.yul\":9627:9821   */\n    tag_267:\n        /* \"#utility.yul\":9736:9747   */\n      0x00\n        /* \"#utility.yul\":9770:9776   */\n      dup3\n        /* \"#utility.yul\":9765:9768   */\n      dup3\n        /* \"#utility.yul\":9758:9777   */\n      mstore\n        /* \"#utility.yul\":9810:9814   */\n      0x20\n        /* \"#utility.yul\":9805:9808   */\n      dup3\n        /* \"#utility.yul\":9801:9815   */\n      add\n        /* \"#utility.yul\":9786:9815   */\n      swap1\n      pop\n        /* \"#utility.yul\":9627:9821   */\n      swap3\n      swap2\n      pop\n      pop\n      jump\t// out\n        /* \"#utility.yul\":9827:9969   */\n    tag_268:\n        /* \"#utility.yul\":9904:9908   */\n      0x00\n        /* \"#utility.yul\":9927:9930   */\n      dup2\n        /* \"#utility.yul\":9919:9930   */\n      swap1\n      pop\n        /* \"#utility.yul\":9957:9961   */\n      0x20\n        /* \"#utility.yul\":9952:9955   */\n      dup3\n        /* \"#utility.yul\":9948:9962   */\n      add\n        /* \"#utility.yul\":9940:9962   */\n      swap1\n      pop\n        /* \"#utility.yul\":9827:9969   */\n      swap2\n      swap1\n      pop\n      jump\t// out\n        /* \"#utility.yul\":9975:10134   */\n    tag_269:\n        /* \"#utility.yul\":10049:10060   */\n      0x00\n        /* \"#utility.yul\":10083:10089   */\n      dup3\n        /* \"#utility.yul\":10078:10081   */\n      dup3\n        /* \"#utility.yul\":10071:10090   */\n      mstore\n        /* \"#utility.yul\":10123:10127   */\n      0x20\n        /* \"#utility.yul\":10118:10121   */\n      dup3\n        /* \"#utility.yul\":10114:10128   */\n      add\n        /* \"#utility.yul\":10099:10128   */\n      swap1\n      pop\n        /* \"#utility.yul\":9975:10134   */\n      swap3\n      swap2\n      pop\n      pop\n      jump\t// out\n        /* \"#utility.yul\":10140:10497   */\n    tag_270:\n        /* \"#utility.yul\":10218:10221   */\n      0x00\n        /* \"#utility.yul\":10246:10285   */\n      tag_426\n        /* \"#utility.yul\":10279:10284   */\n      dup3\n        /* \"#utility.yul\":10246:10285   */\n      tag_243\n      jump\t// in\n    tag_426:\n        /* \"#utility.yul\":10301:10362   */\n      tag_427\n        /* \"#utility.yul\":10355:10361   */\n      dup2\n        /* \"#utility.yul\":10350:10353   */\n      dup6\n        /* \"#utility.yul\":10301:10362   */\n      tag_269\n      jump\t// in\n    tag_427:\n        /* \"#utility.yul\":10294:10362   */\n      swap4\n      pop\n        /* \"#utility.yul\":10371:10436   */\n      tag_428\n        /* \"#utility.yul\":10429:10435   */\n      dup2\n        /* \"#utility.yul\":10424:10427   */\n      dup6\n        /* \"#utility.yul\":10417:10421   */\n      0x20\n        /* \"#utility.yul\":10410:10415   */\n      dup7\n        /* \"#utility.yul\":10406:10422   */\n      add\n        /* \"#utility.yul\":10371:10436   */\n      tag_245\n      jump\t// in\n    tag_428:\n        /* \"#utility.yul\":10461:10490   */\n      tag_429\n        /* \"#utility.yul\":10483:10489   */\n      dup2\n        /* \"#utility.yul\":10461:10490   */\n      tag_246\n      jump\t// in\n    tag_429:\n        /* \"#utility.yul\":10456:10459   */\n      dup5\n        /* \"#utility.yul\":10452:10491   */\n      add\n        /* \"#utility.yul\":10445:10491   */\n      swap2\n      pop\n        /* \"#utility.yul\":10222:10497   */\n      pop\n        /* \"#utility.yul\":10140:10497   */\n      swap3\n      swap2\n      pop\n      pop\n      jump\t// out\n        /* \"#utility.yul\":10503:10699   */\n    tag_271:\n        /* \"#utility.yul\":10592:10602   */\n      0x00\n        /* \"#utility.yul\":10627:10693   */\n      tag_431\n        /* \"#utility.yul\":10689:10692   */\n      dup4\n        /* \"#utility.yul\":10681:10687   */\n      dup4\n        /* \"#utility.yul\":10627:10693   */\n      tag_270\n      jump\t// in\n    tag_431:\n        /* \"#utility.yul\":10613:10693   */\n      swap1\n      pop\n        /* \"#utility.yul\":10503:10699   */\n      swap3\n      swap2\n      pop\n      pop\n      jump\t// out\n        /* \"#utility.yul\":10705:10828   */\n    tag_272:\n        /* \"#utility.yul\":10785:10789   */\n      0x00\n        /* \"#utility.yul\":10817:10821   */\n      0x20\n        /* \"#utility.yul\":10812:10815   */\n      dup3\n        /* \"#utility.yul\":10808:10822   */\n      add\n        /* \"#utility.yul\":10800:10822   */\n      swap1\n      pop\n        /* \"#utility.yul\":10705:10828   */\n      swap2\n      swap1\n      pop\n      jump\t// out\n        /* \"#utility.yul\":10862:11853   */\n    tag_273:\n        /* \"#utility.yul\":11001:11004   */\n      0x00\n        /* \"#utility.yul\":11030:11094   */\n      tag_434\n        /* \"#utility.yul\":11088:11093   */\n      dup3\n        /* \"#utility.yul\":11030:11094   */\n      tag_266\n      jump\t// in\n    tag_434:\n        /* \"#utility.yul\":11110:11206   */\n      tag_435\n        /* \"#utility.yul\":11199:11205   */\n      dup2\n        /* \"#utility.yul\":11194:11197   */\n      dup6\n        /* \"#utility.yul\":11110:11206   */\n      tag_267\n      jump\t// in\n    tag_435:\n        /* \"#utility.yul\":11103:11206   */\n      swap4\n      pop\n        /* \"#utility.yul\":11232:11235   */\n      dup4\n        /* \"#utility.yul\":11277:11281   */\n      0x20\n        /* \"#utility.yul\":11269:11275   */\n      dup3\n        /* \"#utility.yul\":11265:11282   */\n      mul\n        /* \"#utility.yul\":11260:11263   */\n      dup6\n        /* \"#utility.yul\":11256:11283   */\n      add\n        /* \"#utility.yul\":11307:11373   */\n      tag_436\n        /* \"#utility.yul\":11367:11372   */\n      dup6\n        /* \"#utility.yul\":11307:11373   */\n      tag_268\n      jump\t// in\n    tag_436:\n        /* \"#utility.yul\":11396:11403   */\n      dup1\n        /* \"#utility.yul\":11427:11428   */\n      0x00\n        /* \"#utility.yul\":11412:11808   */\n    tag_437:\n        /* \"#utility.yul\":11437:11443   */\n      dup6\n        /* \"#utility.yul\":11434:11435   */\n      dup2\n        /* \"#utility.yul\":11431:11444   */\n      lt\n        /* \"#utility.yul\":11412:11808   */\n      iszero\n      tag_439\n      jumpi\n        /* \"#utility.yul\":11508:11517   */\n      dup5\n        /* \"#utility.yul\":11502:11506   */\n      dup5\n        /* \"#utility.yul\":11498:11518   */\n      sub\n        /* \"#utility.yul\":11493:11496   */\n      dup10\n        /* \"#utility.yul\":11486:11519   */\n      mstore\n        /* \"#utility.yul\":11559:11565   */\n      dup2\n        /* \"#utility.yul\":11553:11566   */\n      mload\n        /* \"#utility.yul\":11587:11671   */\n      tag_440\n        /* \"#utility.yul\":11666:11670   */\n      dup6\n        /* \"#utility.yul\":11651:11664   */\n      dup3\n        /* \"#utility.yul\":11587:11671   */\n      tag_271\n      jump\t// in\n    tag_440:\n        /* \"#utility.yul\":11579:11671   */\n      swap5\n      pop\n        /* \"#utility.yul\":11694:11764   */\n      tag_441\n        /* \"#utility.yul\":11757:11763   */\n      dup4\n        /* \"#utility.yul\":11694:11764   */\n      tag_272\n      jump\t// in\n    tag_441:\n        /* \"#utility.yul\":11684:11764   */\n      swap3\n      pop\n        /* \"#utility.yul\":11793:11797   */\n      0x20\n        /* \"#utility.yul\":11788:11791   */\n      dup11\n        /* \"#utility.yul\":11784:11798   */\n      add\n        /* \"#utility.yul\":11777:11798   */\n      swap10\n      pop\n        /* \"#utility.yul\":11472:11808   */\n      pop\n        /* \"#utility.yul\":11459:11460   */\n      0x01\n        /* \"#utility.yul\":11456:11457   */\n      dup2\n        /* \"#utility.yul\":11452:11461   */\n      add\n        /* \"#utility.yul\":11447:11461   */\n      swap1\n      pop\n        /* \"#utility.yul\":11412:11808   */\n      jump(tag_437)\n    tag_439:\n        /* \"#utility.yul\":11416:11430   */\n      pop\n        /* \"#utility.yul\":11824:11828   */\n      dup3\n        /* \"#utility.yul\":11817:11828   */\n      swap8\n      pop\n        /* \"#utility.yul\":11844:11847   */\n      dup8\n        /* \"#utility.yul\":11837:11847   */\n      swap6\n      pop\n        /* \"#utility.yul\":11006:11853   */\n      pop\n      pop\n      pop\n      pop\n      pop\n        /* \"#utility.yul\":10862:11853   */\n      swap3\n      swap2\n      pop\n      pop\n      jump\t// out\n        /* \"#utility.yul\":11859:11973   */\n    tag_274:\n        /* \"#utility.yul\":11926:11932   */\n      0x00\n        /* \"#utility.yul\":11960:11965   */\n      dup2\n        /* \"#utility.yul\":11954:11966   */\n      mload\n        /* \"#utility.yul\":11944:11966   */\n      swap1\n      pop\n        /* \"#utility.yul\":11859:11973   */\n      swap2\n      swap1\n      pop\n      jump\t// out\n        /* \"#utility.yul\":11979:12163   */\n    tag_275:\n        /* \"#utility.yul\":12078:12089   */\n      0x00\n        /* \"#utility.yul\":12112:12118   */\n      dup3\n        /* \"#utility.yul\":12107:12110   */\n      dup3\n        /* \"#utility.yul\":12100:12119   */\n      mstore\n        /* \"#utility.yul\":12152:12156   */\n      0x20\n        /* \"#utility.yul\":12147:12150   */\n      dup3\n        /* \"#utility.yul\":12143:12157   */\n      add\n        /* \"#utility.yul\":12128:12157   */\n      swap1\n      pop\n        /* \"#utility.yul\":11979:12163   */\n      swap3\n      swap2\n      pop\n      pop\n      jump\t// out\n        /* \"#utility.yul\":12169:12301   */\n    tag_276:\n        /* \"#utility.yul\":12236:12240   */\n      0x00\n        /* \"#utility.yul\":12259:12262   */\n      dup2\n        /* \"#utility.yul\":12251:12262   */\n      swap1\n      pop\n        /* \"#utility.yul\":12289:12293   */\n      0x20\n        /* \"#utility.yul\":12284:12287   */\n      dup3\n        /* \"#utility.yul\":12280:12294   */\n      add\n        /* \"#utility.yul\":12272:12294   */\n      swap1\n      pop\n        /* \"#utility.yul\":12169:12301   */\n      swap2\n      swap1\n      pop\n      jump\t// out\n        /* \"#utility.yul\":12307:12415   */\n    tag_277:\n        /* \"#utility.yul\":12384:12408   */\n      tag_446\n        /* \"#utility.yul\":12402:12407   */\n      dup2\n        /* \"#utility.yul\":12384:12408   */\n      tag_237\n      jump\t// in\n    tag_446:\n        /* \"#utility.yul\":12379:12382   */\n      dup3\n        /* \"#utility.yul\":12372:12409   */\n      mstore\n        /* \"#utility.yul\":12307:12415   */\n      pop\n      pop\n      jump\t// out\n        /* \"#utility.yul\":12421:12600   */\n    tag_278:\n        /* \"#utility.yul\":12490:12500   */\n      0x00\n        /* \"#utility.yul\":12511:12557   */\n      tag_448\n        /* \"#utility.yul\":12553:12556   */\n      dup4\n        /* \"#utility.yul\":12545:12551   */\n      dup4\n        /* \"#utility.yul\":12511:12557   */\n      tag_277\n      jump\t// in\n    tag_448:\n        /* \"#utility.yul\":12589:12593   */\n      0x20\n        /* \"#utility.yul\":12584:12587   */\n      dup4\n        /* \"#utility.yul\":12580:12594   */\n      add\n        /* \"#utility.yul\":12566:12594   */\n      swap1\n      pop\n        /* \"#utility.yul\":12421:12600   */\n      swap3\n      swap2\n      pop\n      pop\n      jump\t// out\n        /* \"#utility.yul\":12606:12719   */\n    tag_279:\n        /* \"#utility.yul\":12676:12680   */\n      0x00\n        /* \"#utility.yul\":12708:12712   */\n      0x20\n        /* \"#utility.yul\":12703:12706   */\n      dup3\n        /* \"#utility.yul\":12699:12713   */\n      add\n        /* \"#utility.yul\":12691:12713   */\n      swap1\n      pop\n        /* \"#utility.yul\":12606:12719   */\n      swap2\n      swap1\n      pop\n      jump\t// out\n        /* \"#utility.yul\":12755:13487   */\n    tag_280:\n        /* \"#utility.yul\":12874:12877   */\n      0x00\n        /* \"#utility.yul\":12903:12957   */\n      tag_451\n        /* \"#utility.yul\":12951:12956   */\n      dup3\n        /* \"#utility.yul\":12903:12957   */\n      tag_274\n      jump\t// in\n    tag_451:\n        /* \"#utility.yul\":12973:13059   */\n      tag_452\n        /* \"#utility.yul\":13052:13058   */\n      dup2\n        /* \"#utility.yul\":13047:13050   */\n      dup6\n        /* \"#utility.yul\":12973:13059   */\n      tag_275\n      jump\t// in\n    tag_452:\n        /* \"#utility.yul\":12966:13059   */\n      swap4\n      pop\n        /* \"#utility.yul\":13083:13139   */\n      tag_453\n        /* \"#utility.yul\":13133:13138   */\n      dup4\n        /* \"#utility.yul\":13083:13139   */\n      tag_276\n      jump\t// in\n    tag_453:\n        /* \"#utility.yul\":13162:13169   */\n      dup1\n        /* \"#utility.yul\":13193:13194   */\n      0x00\n        /* \"#utility.yul\":13178:13462   */\n    tag_454:\n        /* \"#utility.yul\":13203:13209   */\n      dup4\n        /* \"#utility.yul\":13200:13201   */\n      dup2\n        /* \"#utility.yul\":13197:13210   */\n      lt\n        /* \"#utility.yul\":13178:13462   */\n      iszero\n      tag_456\n      jumpi\n        /* \"#utility.yul\":13279:13285   */\n      dup2\n        /* \"#utility.yul\":13273:13286   */\n      mload\n        /* \"#utility.yul\":13306:13369   */\n      tag_457\n        /* \"#utility.yul\":13365:13368   */\n      dup9\n        /* \"#utility.yul\":13350:13363   */\n      dup3\n        /* \"#utility.yul\":13306:13369   */\n      tag_278\n      jump\t// in\n    tag_457:\n        /* \"#utility.yul\":13299:13369   */\n      swap8\n      pop\n        /* \"#utility.yul\":13392:13452   */\n      tag_458\n        /* \"#utility.yul\":13445:13451   */\n      dup4\n        /* \"#utility.yul\":13392:13452   */\n      tag_279\n      jump\t// in\n    tag_458:\n        /* \"#utility.yul\":13382:13452   */\n      swap3\n      pop\n        /* \"#utility.yul\":13238:13462   */\n      pop\n        /* \"#utility.yul\":13225:13226   */\n      0x01\n        /* \"#utility.yul\":13222:13223   */\n      dup2\n        /* \"#utility.yul\":13218:13227   */\n      add\n        /* \"#utility.yul\":13213:13227   */\n      swap1\n      pop\n        /* \"#utility.yul\":13178:13462   */\n      jump(tag_454)\n    tag_456:\n        /* \"#utility.yul\":13182:13196   */\n      pop\n        /* \"#utility.yul\":13478:13481   */\n      dup6\n        /* \"#utility.yul\":13471:13481   */\n      swap4\n      pop\n        /* \"#utility.yul\":12879:13487   */\n      pop\n      pop\n      pop\n        /* \"#utility.yul\":12755:13487   */\n      swap3\n      swap2\n      pop\n      pop\n      jump\t// out\n        /* \"#utility.yul\":13493:14841   */\n    tag_38:\n        /* \"#utility.yul\":13938:13942   */\n      0x00\n        /* \"#utility.yul\":13976:13979   */\n      0xa0\n        /* \"#utility.yul\":13965:13974   */\n      dup3\n        /* \"#utility.yul\":13961:13980   */\n      add\n        /* \"#utility.yul\":13953:13980   */\n      swap1\n      pop\n        /* \"#utility.yul\":14026:14035   */\n      dup2\n        /* \"#utility.yul\":14020:14024   */\n      dup2\n        /* \"#utility.yul\":14016:14036   */\n      sub\n        /* \"#utility.yul\":14012:14013   */\n      0x00\n        /* \"#utility.yul\":14001:14010   */\n      dup4\n        /* \"#utility.yul\":13997:14014   */\n      add\n        /* \"#utility.yul\":13990:14037   */\n      mstore\n        /* \"#utility.yul\":14054:14162   */\n      tag_460\n        /* \"#utility.yul\":14157:14161   */\n      dup2\n        /* \"#utility.yul\":14148:14154   */\n      dup9\n        /* \"#utility.yul\":14054:14162   */\n      tag_265\n      jump\t// in\n    tag_460:\n        /* \"#utility.yul\":14046:14162   */\n      swap1\n      pop\n        /* \"#utility.yul\":14209:14218   */\n      dup2\n        /* \"#utility.yul\":14203:14207   */\n      dup2\n        /* \"#utility.yul\":14199:14219   */\n      sub\n        /* \"#utility.yul\":14194:14196   */\n      0x20\n        /* \"#utility.yul\":14183:14192   */\n      dup4\n        /* \"#utility.yul\":14179:14197   */\n      add\n        /* \"#utility.yul\":14172:14220   */\n      mstore\n        /* \"#utility.yul\":14237:14365   */\n      tag_461\n        /* \"#utility.yul\":14360:14364   */\n      dup2\n        /* \"#utility.yul\":14351:14357   */\n      dup8\n        /* \"#utility.yul\":14237:14365   */\n      tag_273\n      jump\t// in\n    tag_461:\n        /* \"#utility.yul\":14229:14365   */\n      swap1\n      pop\n        /* \"#utility.yul\":14412:14421   */\n      dup2\n        /* \"#utility.yul\":14406:14410   */\n      dup2\n        /* \"#utility.yul\":14402:14422   */\n      sub\n        /* \"#utility.yul\":14397:14399   */\n      0x40\n        /* \"#utility.yul\":14386:14395   */\n      dup4\n        /* \"#utility.yul\":14382:14400   */\n      add\n        /* \"#utility.yul\":14375:14423   */\n      mstore\n        /* \"#utility.yul\":14440:14568   */\n      tag_462\n        /* \"#utility.yul\":14563:14567   */\n      dup2\n        /* \"#utility.yul\":14554:14560   */\n      dup7\n        /* \"#utility.yul\":14440:14568   */\n      tag_273\n      jump\t// in\n    tag_462:\n        /* \"#utility.yul\":14432:14568   */\n      swap1\n      pop\n        /* \"#utility.yul\":14615:14624   */\n      dup2\n        /* \"#utility.yul\":14609:14613   */\n      dup2\n        /* \"#utility.yul\":14605:14625   */\n      sub\n        /* \"#utility.yul\":14600:14602   */\n      0x60\n        /* \"#utility.yul\":14589:14598   */\n      dup4\n        /* \"#utility.yul\":14585:14603   */\n      add\n        /* \"#utility.yul\":14578:14626   */\n      mstore\n        /* \"#utility.yul\":14643:14751   */\n      tag_463\n        /* \"#utility.yul\":14746:14750   */\n      dup2\n        /* \"#utility.yul\":14737:14743   */\n      dup6\n        /* \"#utility.yul\":14643:14751   */\n      tag_280\n      jump\t// in\n    tag_463:\n        /* \"#utility.yul\":14635:14751   */\n      swap1\n      pop\n        /* \"#utility.yul\":14761:14834   */\n      tag_464\n        /* \"#utility.yul\":14829:14832   */\n      0x80\n        /* \"#utility.yul\":14818:14827   */\n      dup4\n        /* \"#utility.yul\":14814:14833   */\n      add\n        /* \"#utility.yul\":14805:14811   */\n      dup5\n        /* \"#utility.yul\":14761:14834   */\n      tag_248\n      jump\t// in\n    tag_464:\n        /* \"#utility.yul\":13493:14841   */\n      swap7\n      swap6\n      pop\n      pop\n      pop\n      pop\n      pop\n      pop\n      jump\t// out\n        /* \"#utility.yul\":14847:15681   */\n    tag_41:\n        /* \"#utility.yul\":14935:14941   */\n      0x00\n        /* \"#utility.yul\":14943:14949   */\n      dup1\n        /* \"#utility.yul\":14992:14994   */\n      0x40\n        /* \"#utility.yul\":14980:14989   */\n      dup4\n        /* \"#utility.yul\":14971:14978   */\n      dup6\n        /* \"#utility.yul\":14967:14990   */\n      sub\n        /* \"#utility.yul\":14963:14995   */\n      slt\n        /* \"#utility.yul\":14960:15079   */\n      iszero\n      tag_466\n      jumpi\n        /* \"#utility.yul\":14998:15077   */\n      tag_467\n      tag_235\n      jump\t// in\n    tag_467:\n        /* \"#utility.yul\":14960:15079   */\n    tag_466:\n        /* \"#utility.yul\":15146:15147   */\n      0x00\n        /* \"#utility.yul\":15135:15144   */\n      dup4\n        /* \"#utility.yul\":15131:15148   */\n      add\n        /* \"#utility.yul\":15118:15149   */\n      calldataload\n        /* \"#utility.yul\":15176:15194   */\n      0xffffffffffffffff\n        /* \"#utility.yul\":15168:15174   */\n      dup2\n        /* \"#utility.yul\":15165:15195   */\n      gt\n        /* \"#utility.yul\":15162:15279   */\n      iszero\n      tag_468\n      jumpi\n        /* \"#utility.yul\":15198:15277   */\n      tag_469\n      tag_236\n      jump\t// in\n    tag_469:\n        /* \"#utility.yul\":15162:15279   */\n    tag_468:\n        /* \"#utility.yul\":15303:15366   */\n      tag_470\n        /* \"#utility.yul\":15358:15365   */\n      dup6\n        /* \"#utility.yul\":15349:15355   */\n      dup3\n        /* \"#utility.yul\":15338:15347   */\n      dup7\n        /* \"#utility.yul\":15334:15356   */\n      add\n        /* \"#utility.yul\":15303:15366   */\n      tag_258\n      jump\t// in\n    tag_470:\n        /* \"#utility.yul\":15293:15366   */\n      swap3\n      pop\n        /* \"#utility.yul\":15089:15376   */\n      pop\n        /* \"#utility.yul\":15443:15445   */\n      0x20\n        /* \"#utility.yul\":15432:15441   */\n      dup4\n        /* \"#utility.yul\":15428:15446   */\n      add\n        /* \"#utility.yul\":15415:15447   */\n      calldataload\n        /* \"#utility.yul\":15474:15492   */\n      0xffffffffffffffff\n        /* \"#utility.yul\":15466:15472   */\n      dup2\n        /* \"#utility.yul\":15463:15493   */\n      gt\n        /* \"#utility.yul\":15460:15577   */\n      iszero\n      tag_471\n      jumpi\n        /* \"#utility.yul\":15496:15575   */\n      tag_472\n      tag_236\n      jump\t// in\n    tag_472:\n        /* \"#utility.yul\":15460:15577   */\n    tag_471:\n        /* \"#utility.yul\":15601:15664   */\n      tag_473\n        /* \"#utility.yul\":15656:15663   */\n      dup6\n        /* \"#utility.yul\":15647:15653   */\n      dup3\n        /* \"#utility.yul\":15636:15645   */\n      dup7\n        /* \"#utility.yul\":15632:15654   */\n      add\n        /* \"#utility.yul\":15601:15664   */\n      tag_258\n      jump\t// in\n    tag_473:\n        /* \"#utility.yul\":15591:15664   */\n      swap2\n      pop\n        /* \"#utility.yul\":15386:15674   */\n      pop\n        /* \"#utility.yul\":14847:15681   */\n      swap3\n      pop\n      swap3\n      swap1\n      pop\n      jump\t// out\n        /* \"#utility.yul\":15687:15809   */\n    tag_281:\n        /* \"#utility.yul\":15760:15784   */\n      tag_475\n        /* \"#utility.yul\":15778:15783   */\n      dup2\n        /* \"#utility.yul\":15760:15784   */\n      tag_241\n      jump\t// in\n    tag_475:\n        /* \"#utility.yul\":15753:15758   */\n      dup2\n        /* \"#utility.yul\":15750:15785   */\n      eq\n        /* \"#utility.yul\":15740:15803   */\n      tag_476\n      jumpi\n        /* \"#utility.yul\":15799:15800   */\n      0x00\n        /* \"#utility.yul\":15796:15797   */\n      dup1\n        /* \"#utility.yul\":15789:15801   */\n      revert\n        /* \"#utility.yul\":15740:15803   */\n    tag_476:\n        /* \"#utility.yul\":15687:15809   */\n      pop\n      jump\t// out\n        /* \"#utility.yul\":15815:15954   */\n    tag_282:\n        /* \"#utility.yul\":15861:15866   */\n      0x00\n        /* \"#utility.yul\":15899:15905   */\n      dup2\n        /* \"#utility.yul\":15886:15906   */\n      calldataload\n        /* \"#utility.yul\":15877:15906   */\n      swap1\n      pop\n        /* \"#utility.yul\":15915:15948   */\n      tag_478\n        /* \"#utility.yul\":15942:15947   */\n      dup2\n        /* \"#utility.yul\":15915:15948   */\n      tag_281\n      jump\t// in\n    tag_478:\n        /* \"#utility.yul\":15815:15954   */\n      swap3\n      swap2\n      pop\n      pop\n      jump\t// out\n        /* \"#utility.yul\":15960:16434   */\n    tag_49:\n        /* \"#utility.yul\":16028:16034   */\n      0x00\n        /* \"#utility.yul\":16036:16042   */\n      dup1\n        /* \"#utility.yul\":16085:16087   */\n      0x40\n        /* \"#utility.yul\":16073:16082   */\n      dup4\n        /* \"#utility.yul\":16064:16071   */\n      dup6\n        /* \"#utility.yul\":16060:16083   */\n      sub\n        /* \"#utility.yul\":16056:16088   */\n      slt\n        /* \"#utility.yul\":16053:16172   */\n      iszero\n      tag_480\n      jumpi\n        /* \"#utility.yul\":16091:16170   */\n      tag_481\n      tag_235\n      jump\t// in\n    tag_481:\n        /* \"#utility.yul\":16053:16172   */\n    tag_480:\n        /* \"#utility.yul\":16211:16212   */\n      0x00\n        /* \"#utility.yul\":16236:16289   */\n      tag_482\n        /* \"#utility.yul\":16281:16288   */\n      dup6\n        /* \"#utility.yul\":16272:16278   */\n      dup3\n        /* \"#utility.yul\":16261:16270   */\n      dup7\n        /* \"#utility.yul\":16257:16279   */\n      add\n        /* \"#utility.yul\":16236:16289   */\n      tag_239\n      jump\t// in\n    tag_482:\n        /* \"#utility.yul\":16226:16289   */\n      swap3\n      pop\n        /* \"#utility.yul\":16182:16299   */\n      pop\n        /* \"#utility.yul\":16338:16340   */\n      0x20\n        /* \"#utility.yul\":16364:16417   */\n      tag_483\n        /* \"#utility.yul\":16409:16416   */\n      dup6\n        /* \"#utility.yul\":16400:16406   */\n      dup3\n        /* \"#utility.yul\":16389:16398   */\n      dup7\n        /* \"#utility.yul\":16385:16407   */\n      add\n        /* \"#utility.yul\":16364:16417   */\n      tag_282\n      jump\t// in\n    tag_483:\n        /* \"#utility.yul\":16354:16417   */\n      swap2\n      pop\n        /* \"#utility.yul\":16309:16427   */\n      pop\n        /* \"#utility.yul\":15960:16434   */\n      swap3\n      pop\n      swap3\n      swap1\n      pop\n      jump\t// out\n        /* \"#utility.yul\":16440:16650   */\n    tag_52:\n        /* \"#utility.yul\":16527:16531   */\n      0x00\n        /* \"#utility.yul\":16565:16567   */\n      0x20\n        /* \"#utility.yul\":16554:16563   */\n      dup3\n        /* \"#utility.yul\":16550:16568   */\n      add\n        /* \"#utility.yul\":16542:16568   */\n      swap1\n      pop\n        /* \"#utility.yul\":16578:16643   */\n      tag_485\n        /* \"#utility.yul\":16640:16641   */\n      0x00\n        /* \"#utility.yul\":16629:16638   */\n      dup4\n        /* \"#utility.yul\":16625:16642   */\n      add\n        /* \"#utility.yul\":16616:16622   */\n      dup5\n        /* \"#utility.yul\":16578:16643   */\n      tag_250\n      jump\t// in\n    tag_485:\n        /* \"#utility.yul\":16440:16650   */\n      swap3\n      swap2\n      pop\n      pop\n      jump\t// out\n        /* \"#utility.yul\":16656:17130   */\n    tag_55:\n        /* \"#utility.yul\":16724:16730   */\n      0x00\n        /* \"#utility.yul\":16732:16738   */\n      dup1\n        /* \"#utility.yul\":16781:16783   */\n      0x40\n        /* \"#utility.yul\":16769:16778   */\n      dup4\n        /* \"#utility.yul\":16760:16767   */\n      dup6\n        /* \"#utility.yul\":16756:16779   */\n      sub\n        /* \"#utility.yul\":16752:16784   */\n      slt\n        /* \"#utility.yul\":16749:16868   */\n      iszero\n      tag_487\n      jumpi\n        /* \"#utility.yul\":16787:16866   */\n      tag_488\n      tag_235\n      jump\t// in\n    tag_488:\n        /* \"#utility.yul\":16749:16868   */\n    tag_487:\n        /* \"#utility.yul\":16907:16908   */\n      0x00\n        /* \"#utility.yul\":16932:16985   */\n      tag_489\n        /* \"#utility.yul\":16977:16984   */\n      dup6\n        /* \"#utility.yul\":16968:16974   */\n      dup3\n        /* \"#utility.yul\":16957:16966   */\n      dup7\n        /* \"#utility.yul\":16953:16975   */\n      add\n        /* \"#utility.yul\":16932:16985   */\n      tag_239\n      jump\t// in\n    tag_489:\n        /* \"#utility.yul\":16922:16985   */\n      swap3\n      pop\n        /* \"#utility.yul\":16878:16995   */\n      pop\n        /* \"#utility.yul\":17034:17036   */\n      0x20\n        /* \"#utility.yul\":17060:17113   */\n      tag_490\n        /* \"#utility.yul\":17105:17112   */\n      dup6\n        /* \"#utility.yul\":17096:17102   */\n      dup3\n        /* \"#utility.yul\":17085:17094   */\n      dup7\n        /* \"#utility.yul\":17081:17103   */\n      add\n        /* \"#utility.yul\":17060:17113   */\n      tag_239\n      jump\t// in\n    tag_490:\n        /* \"#utility.yul\":17050:17113   */\n      swap2\n      pop\n        /* \"#utility.yul\":17005:17123   */\n      pop\n        /* \"#utility.yul\":16656:17130   */\n      swap3\n      pop\n      swap3\n      swap1\n      pop\n      jump\t// out\n        /* \"#utility.yul\":17136:17871   */\n    tag_58:\n        /* \"#utility.yul\":17353:17357   */\n      0x00\n        /* \"#utility.yul\":17391:17394   */\n      0x80\n        /* \"#utility.yul\":17380:17389   */\n      dup3\n        /* \"#utility.yul\":17376:17395   */\n      add\n        /* \"#utility.yul\":17368:17395   */\n      swap1\n      pop\n        /* \"#utility.yul\":17405:17476   */\n      tag_492\n        /* \"#utility.yul\":17473:17474   */\n      0x00\n        /* \"#utility.yul\":17462:17471   */\n      dup4\n        /* \"#utility.yul\":17458:17475   */\n      add\n        /* \"#utility.yul\":17449:17455   */\n      dup8\n        /* \"#utility.yul\":17405:17476   */\n      tag_242\n      jump\t// in\n    tag_492:\n        /* \"#utility.yul\":17523:17532   */\n      dup2\n        /* \"#utility.yul\":17517:17521   */\n      dup2\n        /* \"#utility.yul\":17513:17533   */\n      sub\n        /* \"#utility.yul\":17508:17510   */\n      0x20\n        /* \"#utility.yul\":17497:17506   */\n      dup4\n        /* \"#utility.yul\":17493:17511   */\n      add\n        /* \"#utility.yul\":17486:17534   */\n      mstore\n        /* \"#utility.yul\":17551:17629   */\n      tag_493\n        /* \"#utility.yul\":17624:17628   */\n      dup2\n        /* \"#utility.yul\":17615:17621   */\n      dup7\n        /* \"#utility.yul\":17551:17629   */\n      tag_247\n      jump\t// in\n    tag_493:\n        /* \"#utility.yul\":17543:17629   */\n      swap1\n      pop\n        /* \"#utility.yul\":17676:17685   */\n      dup2\n        /* \"#utility.yul\":17670:17674   */\n      dup2\n        /* \"#utility.yul\":17666:17686   */\n      sub\n        /* \"#utility.yul\":17661:17663   */\n      0x40\n        /* \"#utility.yul\":17650:17659   */\n      dup4\n        /* \"#utility.yul\":17646:17664   */\n      add\n        /* \"#utility.yul\":17639:17687   */\n      mstore\n        /* \"#utility.yul\":17704:17782   */\n      tag_494\n        /* \"#utility.yul\":17777:17781   */\n      dup2\n        /* \"#utility.yul\":17768:17774   */\n      dup6\n        /* \"#utility.yul\":17704:17782   */\n      tag_247\n      jump\t// in\n    tag_494:\n        /* \"#utility.yul\":17696:17782   */\n      swap1\n      pop\n        /* \"#utility.yul\":17792:17864   */\n      tag_495\n        /* \"#utility.yul\":17860:17862   */\n      0x60\n        /* \"#utility.yul\":17849:17858   */\n      dup4\n        /* \"#utility.yul\":17845:17863   */\n      add\n        /* \"#utility.yul\":17836:17842   */\n      dup5\n        /* \"#utility.yul\":17792:17864   */\n      tag_248\n      jump\t// in\n    tag_495:\n        /* \"#utility.yul\":17136:17871   */\n      swap6\n      swap5\n      pop\n      pop\n      pop\n      pop\n      pop\n      jump\t// out\n        /* \"#utility.yul\":17877:17993   */\n    tag_283:\n        /* \"#utility.yul\":17947:17968   */\n      tag_497\n        /* \"#utility.yul\":17962:17967   */\n      dup2\n        /* \"#utility.yul\":17947:17968   */\n      tag_249\n      jump\t// in\n    tag_497:\n        /* \"#utility.yul\":17940:17945   */\n      dup2\n        /* \"#utility.yul\":17937:17969   */\n      eq\n        /* \"#utility.yul\":17927:17987   */\n      tag_498\n      jumpi\n        /* \"#utility.yul\":17983:17984   */\n      0x00\n        /* \"#utility.yul\":17980:17981   */\n      dup1\n        /* \"#utility.yul\":17973:17985   */\n      revert\n        /* \"#utility.yul\":17927:17987   */\n    tag_498:\n        /* \"#utility.yul\":17877:17993   */\n      pop\n      jump\t// out\n        /* \"#utility.yul\":17999:18132   */\n    tag_284:\n        /* \"#utility.yul\":18042:18047   */\n      0x00\n        /* \"#utility.yul\":18080:18086   */\n      dup2\n        /* \"#utility.yul\":18067:18087   */\n      calldataload\n        /* \"#utility.yul\":18058:18087   */\n      swap1\n      pop\n        /* \"#utility.yul\":18096:18126   */\n      tag_500\n        /* \"#utility.yul\":18120:18125   */\n      dup2\n        /* \"#utility.yul\":18096:18126   */\n      tag_283\n      jump\t// in\n    tag_500:\n        /* \"#utility.yul\":17999:18132   */\n      swap3\n      swap2\n      pop\n      pop\n      jump\t// out\n        /* \"#utility.yul\":18138:18606   */\n    tag_61:\n        /* \"#utility.yul\":18203:18209   */\n      0x00\n        /* \"#utility.yul\":18211:18217   */\n      dup1\n        /* \"#utility.yul\":18260:18262   */\n      0x40\n        /* \"#utility.yul\":18248:18257   */\n      dup4\n        /* \"#utility.yul\":18239:18246   */\n      dup6\n        /* \"#utility.yul\":18235:18258   */\n      sub\n        /* \"#utility.yul\":18231:18263   */\n      slt\n        /* \"#utility.yul\":18228:18347   */\n      iszero\n      tag_502\n      jumpi\n        /* \"#utility.yul\":18266:18345   */\n      tag_503\n      tag_235\n      jump\t// in\n    tag_503:\n        /* \"#utility.yul\":18228:18347   */\n    tag_502:\n        /* \"#utility.yul\":18386:18387   */\n      0x00\n        /* \"#utility.yul\":18411:18464   */\n      tag_504\n        /* \"#utility.yul\":18456:18463   */\n      dup6\n        /* \"#utility.yul\":18447:18453   */\n      dup3\n        /* \"#utility.yul\":18436:18445   */\n      dup7\n        /* \"#utility.yul\":18432:18454   */\n      add\n        /* \"#utility.yul\":18411:18464   */\n      tag_239\n      jump\t// in\n    tag_504:\n        /* \"#utility.yul\":18401:18464   */\n      swap3\n      pop\n        /* \"#utility.yul\":18357:18474   */\n      pop\n        /* \"#utility.yul\":18513:18515   */\n      0x20\n        /* \"#utility.yul\":18539:18589   */\n      tag_505\n        /* \"#utility.yul\":18581:18588   */\n      dup6\n        /* \"#utility.yul\":18572:18578   */\n      dup3\n        /* \"#utility.yul\":18561:18570   */\n      dup7\n        /* \"#utility.yul\":18557:18579   */\n      add\n        /* \"#utility.yul\":18539:18589   */\n      tag_284\n      jump\t// in\n    tag_505:\n        /* \"#utility.yul\":18529:18589   */\n      swap2\n      pop\n        /* \"#utility.yul\":18484:18599   */\n      pop\n        /* \"#utility.yul\":18138:18606   */\n      swap3\n      pop\n      swap3\n      swap1\n      pop\n      jump\t// out\n        /* \"#utility.yul\":18612:18792   */\n    tag_285:\n        /* \"#utility.yul\":18660:18737   */\n      0x4e487b7100000000000000000000000000000000000000000000000000000000\n        /* \"#utility.yul\":18657:18658   */\n      0x00\n        /* \"#utility.yul\":18650:18738   */\n      mstore\n        /* \"#utility.yul\":18757:18761   */\n      0x22\n        /* \"#utility.yul\":18754:18755   */\n      0x04\n        /* \"#utility.yul\":18747:18762   */\n      mstore\n        /* \"#utility.yul\":18781:18785   */\n      0x24\n        /* \"#utility.yul\":18778:18779   */\n      0x00\n        /* \"#utility.yul\":18771:18786   */\n      revert\n        /* \"#utility.yul\":18798:19118   */\n    tag_68:\n        /* \"#utility.yul\":18842:18848   */\n      0x00\n        /* \"#utility.yul\":18879:18880   */\n      0x02\n        /* \"#utility.yul\":18873:18877   */\n      dup3\n        /* \"#utility.yul\":18869:18881   */\n      div\n        /* \"#utility.yul\":18859:18881   */\n      swap1\n      pop\n        /* \"#utility.yul\":18926:18927   */\n      0x01\n        /* \"#utility.yul\":18920:18924   */\n      dup3\n        /* \"#utility.yul\":18916:18928   */\n      and\n        /* \"#utility.yul\":18947:18965   */\n      dup1\n        /* \"#utility.yul\":18937:19018   */\n      tag_508\n      jumpi\n        /* \"#utility.yul\":19003:19007   */\n      0x7f\n        /* \"#utility.yul\":18995:19001   */\n      dup3\n        /* \"#utility.yul\":18991:19008   */\n      and\n        /* \"#utility.yul\":18981:19008   */\n      swap2\n      pop\n        /* \"#utility.yul\":18937:19018   */\n    tag_508:\n        /* \"#utility.yul\":19065:19067   */\n      0x20\n        /* \"#utility.yul\":19057:19063   */\n      dup3\n        /* \"#utility.yul\":19054:19068   */\n      lt\n        /* \"#utility.yul\":19034:19052   */\n      dup2\n        /* \"#utility.yul\":19031:19069   */\n      sub\n        /* \"#utility.yul\":19028:19112   */\n      tag_509\n      jumpi\n        /* \"#utility.yul\":19084:19102   */\n      tag_510\n      tag_285\n      jump\t// in\n    tag_510:\n        /* \"#utility.yul\":19028:19112   */\n    tag_509:\n        /* \"#utility.yul\":18849:19118   */\n      pop\n        /* \"#utility.yul\":18798:19118   */\n      swap2\n      swap1\n      pop\n      jump\t// out\n        /* \"#utility.yul\":19124:19289   */\n    tag_286:\n        /* \"#utility.yul\":19264:19281   */\n      0x496e76616c696420706f73742049440000000000000000000000000000000000\n        /* \"#utility.yul\":19260:19261   */\n      0x00\n        /* \"#utility.yul\":19252:19258   */\n      dup3\n        /* \"#utility.yul\":19248:19262   */\n      add\n        /* \"#utility.yul\":19241:19282   */\n      mstore\n        /* \"#utility.yul\":19124:19289   */\n      pop\n      jump\t// out\n        /* \"#utility.yul\":19295:19661   */\n    tag_287:\n        /* \"#utility.yul\":19437:19440   */\n      0x00\n        /* \"#utility.yul\":19458:19525   */\n      tag_513\n        /* \"#utility.yul\":19522:19524   */\n      0x0f\n        /* \"#utility.yul\":19517:19520   */\n      dup4\n        /* \"#utility.yul\":19458:19525   */\n      tag_244\n      jump\t// in\n    tag_513:\n        /* \"#utility.yul\":19451:19525   */\n      swap2\n      pop\n        /* \"#utility.yul\":19534:19627   */\n      tag_514\n        /* \"#utility.yul\":19623:19626   */\n      dup3\n        /* \"#utility.yul\":19534:19627   */\n      tag_286\n      jump\t// in\n    tag_514:\n        /* \"#utility.yul\":19652:19654   */\n      0x20\n        /* \"#utility.yul\":19647:19650   */\n      dup3\n        /* \"#utility.yul\":19643:19655   */\n      add\n        /* \"#utility.yul\":19636:19655   */\n      swap1\n      pop\n        /* \"#utility.yul\":19295:19661   */\n      swap2\n      swap1\n      pop\n      jump\t// out\n        /* \"#utility.yul\":19667:20086   */\n    tag_82:\n        /* \"#utility.yul\":19833:19837   */\n      0x00\n        /* \"#utility.yul\":19871:19873   */\n      0x20\n        /* \"#utility.yul\":19860:19869   */\n      dup3\n        /* \"#utility.yul\":19856:19874   */\n      add\n        /* \"#utility.yul\":19848:19874   */\n      swap1\n      pop\n        /* \"#utility.yul\":19920:19929   */\n      dup2\n        /* \"#utility.yul\":19914:19918   */\n      dup2\n        /* \"#utility.yul\":19910:19930   */\n      sub\n        /* \"#utility.yul\":19906:19907   */\n      0x00\n        /* \"#utility.yul\":19895:19904   */\n      dup4\n        /* \"#utility.yul\":19891:19908   */\n      add\n        /* \"#utility.yul\":19884:19931   */\n      mstore\n        /* \"#utility.yul\":19948:20079   */\n      tag_516\n        /* \"#utility.yul\":20074:20078   */\n      dup2\n        /* \"#utility.yul\":19948:20079   */\n      tag_287\n      jump\t// in\n    tag_516:\n        /* \"#utility.yul\":19940:20079   */\n      swap1\n      pop\n        /* \"#utility.yul\":19667:20086   */\n      swap2\n      swap1\n      pop\n      jump\t// out\n        /* \"#utility.yul\":20092:20265   */\n    tag_288:\n        /* \"#utility.yul\":20232:20257   */\n      0x436f6d6d656e742063616e6e6f7420626520656d707479000000000000000000\n        /* \"#utility.yul\":20228:20229   */\n      0x00\n        /* \"#utility.yul\":20220:20226   */\n      dup3\n        /* \"#utility.yul\":20216:20230   */\n      add\n        /* \"#utility.yul\":20209:20258   */\n      mstore\n        /* \"#utility.yul\":20092:20265   */\n      pop\n      jump\t// out\n        /* \"#utility.yul\":20271:20637   */\n    tag_289:\n        /* \"#utility.yul\":20413:20416   */\n      0x00\n        /* \"#utility.yul\":20434:20501   */\n      tag_519\n        /* \"#utility.yul\":20498:20500   */\n      0x17\n        /* \"#utility.yul\":20493:20496   */\n      dup4\n        /* \"#utility.yul\":20434:20501   */\n      tag_244\n      jump\t// in\n    tag_519:\n        /* \"#utility.yul\":20427:20501   */\n      swap2\n      pop\n        /* \"#utility.yul\":20510:20603   */\n      tag_520\n        /* \"#utility.yul\":20599:20602   */\n      dup3\n        /* \"#utility.yul\":20510:20603   */\n      tag_288\n      jump\t// in\n    tag_520:\n        /* \"#utility.yul\":20628:20630   */\n      0x20\n        /* \"#utility.yul\":20623:20626   */\n      dup3\n        /* \"#utility.yul\":20619:20631   */\n      add\n        /* \"#utility.yul\":20612:20631   */\n      swap1\n      pop\n        /* \"#utility.yul\":20271:20637   */\n      swap2\n      swap1\n      pop\n      jump\t// out\n        /* \"#utility.yul\":20643:21062   */\n    tag_89:\n        /* \"#utility.yul\":20809:20813   */\n      0x00\n        /* \"#utility.yul\":20847:20849   */\n      0x20\n        /* \"#utility.yul\":20836:20845   */\n      dup3\n        /* \"#utility.yul\":20832:20850   */\n      add\n        /* \"#utility.yul\":20824:20850   */\n      swap1\n      pop\n        /* \"#utility.yul\":20896:20905   */\n      dup2\n        /* \"#utility.yul\":20890:20894   */\n      dup2\n        /* \"#utility.yul\":20886:20906   */\n      sub\n        /* \"#utility.yul\":20882:20883   */\n      0x00\n        /* \"#utility.yul\":20871:20880   */\n      dup4\n        /* \"#utility.yul\":20867:20884   */\n      add\n        /* \"#utility.yul\":20860:20907   */\n      mstore\n        /* \"#utility.yul\":20924:21055   */\n      tag_522\n        /* \"#utility.yul\":21050:21054   */\n      dup2\n        /* \"#utility.yul\":20924:21055   */\n      tag_289\n      jump\t// in\n    tag_522:\n        /* \"#utility.yul\":20916:21055   */\n      swap1\n      pop\n        /* \"#utility.yul\":20643:21062   */\n      swap2\n      swap1\n      pop\n      jump\t// out\n        /* \"#utility.yul\":21068:21248   */\n    tag_290:\n        /* \"#utility.yul\":21116:21193   */\n      0x4e487b7100000000000000000000000000000000000000000000000000000000\n        /* \"#utility.yul\":21113:21114   */\n      0x00\n        /* \"#utility.yul\":21106:21194   */\n      mstore\n        /* \"#utility.yul\":21213:21217   */\n      0x11\n        /* \"#utility.yul\":21210:21211   */\n      0x04\n        /* \"#utility.yul\":21203:21218   */\n      mstore\n        /* \"#utility.yul\":21237:21241   */\n      0x24\n        /* \"#utility.yul\":21234:21235   */\n      0x00\n        /* \"#utility.yul\":21227:21242   */\n      revert\n        /* \"#utility.yul\":21254:21487   */\n    tag_91:\n        /* \"#utility.yul\":21293:21296   */\n      0x00\n        /* \"#utility.yul\":21316:21340   */\n      tag_525\n        /* \"#utility.yul\":21334:21339   */\n      dup3\n        /* \"#utility.yul\":21316:21340   */\n      tag_237\n      jump\t// in\n    tag_525:\n        /* \"#utility.yul\":21307:21340   */\n      swap2\n      pop\n        /* \"#utility.yul\":21362:21428   */\n      0xffffffffffffffffffffffffffffffffffffffffffffffffffffffffffffffff\n        /* \"#utility.yul\":21355:21360   */\n      dup3\n        /* \"#utility.yul\":21352:21429   */\n      sub\n        /* \"#utility.yul\":21349:21452   */\n      tag_526\n      jumpi\n        /* \"#utility.yul\":21432:21450   */\n      tag_527\n      tag_290\n      jump\t// in\n    tag_527:\n        /* \"#utility.yul\":21349:21452   */\n    tag_526:\n        /* \"#utility.yul\":21479:21480   */\n      0x01\n        /* \"#utility.yul\":21472:21477   */\n      dup3\n        /* \"#utility.yul\":21468:21481   */\n      add\n        /* \"#utility.yul\":21461:21481   */\n      swap1\n      pop\n        /* \"#utility.yul\":21254:21487   */\n      swap2\n      swap1\n      pop\n      jump\t// out\n        /* \"#utility.yul\":21493:21634   */\n    tag_291:\n        /* \"#utility.yul\":21542:21546   */\n      0x00\n        /* \"#utility.yul\":21565:21568   */\n      dup2\n        /* \"#utility.yul\":21557:21568   */\n      swap1\n      pop\n        /* \"#utility.yul\":21588:21591   */\n      dup2\n        /* \"#utility.yul\":21585:21586   */\n      0x00\n        /* \"#utility.yul\":21578:21592   */\n      mstore\n        /* \"#utility.yul\":21622:21626   */\n      0x20\n        /* \"#utility.yul\":21619:21620   */\n      0x00\n        /* \"#utility.yul\":21609:21627   */\n      keccak256\n        /* \"#utility.yul\":21601:21627   */\n      swap1\n      pop\n        /* \"#utility.yul\":21493:21634   */\n      swap2\n      swap1\n      pop\n      jump\t// out\n        /* \"#utility.yul\":21640:21733   */\n    tag_292:\n        /* \"#utility.yul\":21677:21683   */\n      0x00\n        /* \"#utility.yul\":21724:21726   */\n      0x20\n        /* \"#utility.yul\":21719:21721   */\n      0x1f\n        /* \"#utility.yul\":21712:21717   */\n      dup4\n        /* \"#utility.yul\":21708:21722   */\n      add\n        /* \"#utility.yul\":21704:21727   */\n      div\n        /* \"#utility.yul\":21694:21727   */\n      swap1\n      pop\n        /* \"#utility.yul\":21640:21733   */\n      swap2\n      swap1\n      pop\n      jump\t// out\n        /* \"#utility.yul\":21739:21846   */\n    tag_293:\n        /* \"#utility.yul\":21783:21791   */\n      0x00\n        /* \"#utility.yul\":21833:21838   */\n      dup3\n        /* \"#utility.yul\":21827:21831   */\n      dup3\n        /* \"#utility.yul\":21823:21839   */\n      shl\n        /* \"#utility.yul\":21802:21839   */\n      swap1\n      pop\n        /* \"#utility.yul\":21739:21846   */\n      swap3\n      swap2\n      pop\n      pop\n      jump\t// out\n        /* \"#utility.yul\":21852:22245   */\n    tag_294:\n        /* \"#utility.yul\":21921:21927   */\n      0x00\n        /* \"#utility.yul\":21971:21972   */\n      0x08\n        /* \"#utility.yul\":21959:21969   */\n      dup4\n        /* \"#utility.yul\":21955:21973   */\n      mul\n        /* \"#utility.yul\":21994:22091   */\n      tag_532\n        /* \"#utility.yul\":22024:22090   */\n      0xffffffffffffffffffffffffffffffffffffffffffffffffffffffffffffffff\n        /* \"#utility.yul\":22013:22022   */\n      dup3\n        /* \"#utility.yul\":21994:22091   */\n      tag_293\n      jump\t// in\n    tag_532:\n        /* \"#utility.yul\":22112:22151   */\n      tag_533\n        /* \"#utility.yul\":22142:22150   */\n      dup7\n        /* \"#utility.yul\":22131:22140   */\n      dup4\n        /* \"#utility.yul\":22112:22151   */\n      tag_293\n      jump\t// in\n    tag_533:\n        /* \"#utility.yul\":22100:22151   */\n      swap6\n      pop\n        /* \"#utility.yul\":22184:22188   */\n      dup1\n        /* \"#utility.yul\":22180:22189   */\n      not\n        /* \"#utility.yul\":22173:22178   */\n      dup5\n        /* \"#utility.yul\":22169:22190   */\n      and\n        /* \"#utility.yul\":22160:22190   */\n      swap4\n      pop\n        /* \"#utility.yul\":22233:22237   */\n      dup1\n        /* \"#utility.yul\":22223:22231   */\n      dup7\n        /* \"#utility.yul\":22219:22238   */\n      and\n        /* \"#utility.yul\":22212:22217   */\n      dup5\n        /* \"#utility.yul\":22209:22239   */\n      or\n        /* \"#utility.yul\":22199:22239   */\n      swap3\n      pop\n        /* \"#utility.yul\":21928:22245   */\n      pop\n      pop\n        /* \"#utility.yul\":21852:22245   */\n      swap4\n      swap3\n      pop\n      pop\n      pop\n      jump\t// out\n        /* \"#utility.yul\":22251:22311   */\n    tag_295:\n        /* \"#utility.yul\":22279:22282   */\n      0x00\n        /* \"#utility.yul\":22300:22305   */\n      dup2\n        /* \"#utility.yul\":22293:22305   */\n      swap1\n      pop\n        /* \"#utility.yul\":22251:22311   */\n      swap2\n      swap1\n      pop\n      jump\t// out\n        /* \"#utility.yul\":22317:22459   */\n    tag_296:\n        /* \"#utility.yul\":22367:22376   */\n      0x00\n        /* \"#utility.yul\":22400:22453   */\n      tag_536\n        /* \"#utility.yul\":22418:22452   */\n      tag_537\n        /* \"#utility.yul\":22427:22451   */\n      tag_538\n        /* \"#utility.yul\":22445:22450   */\n      dup5\n        /* \"#utility.yul\":22427:22451   */\n      tag_237\n      jump\t// in\n    tag_538:\n        /* \"#utility.yul\":22418:22452   */\n      tag_295\n      jump\t// in\n    tag_537:\n        /* \"#utility.yul\":22400:22453   */\n      tag_237\n      jump\t// in\n    tag_536:\n        /* \"#utility.yul\":22387:22453   */\n      swap1\n      pop\n        /* \"#utility.yul\":22317:22459   */\n      swap2\n      swap1\n      pop\n      jump\t// out\n        /* \"#utility.yul\":22465:22540   */\n    tag_297:\n        /* \"#utility.yul\":22508:22511   */\n      0x00\n        /* \"#utility.yul\":22529:22534   */\n      dup2\n        /* \"#utility.yul\":22522:22534   */\n      swap1\n      pop\n        /* \"#utility.yul\":22465:22540   */\n      swap2\n      swap1\n      pop\n      jump\t// out\n        /* \"#utility.yul\":22546:22815   */\n    tag_298:\n        /* \"#utility.yul\":22656:22695   */\n      tag_541\n        /* \"#utility.yul\":22687:22694   */\n      dup4\n        /* \"#utility.yul\":22656:22695   */\n      tag_296\n      jump\t// in\n    tag_541:\n        /* \"#utility.yul\":22717:22808   */\n      tag_542\n        /* \"#utility.yul\":22766:22807   */\n      tag_543\n        /* \"#utility.yul\":22790:22806   */\n      dup3\n        /* \"#utility.yul\":22766:22807   */\n      tag_297\n      jump\t// in\n    tag_543:\n        /* \"#utility.yul\":22758:22764   */\n      dup5\n        /* \"#utility.yul\":22751:22755   */\n      dup5\n        /* \"#utility.yul\":22745:22756   */\n      sload\n        /* \"#utility.yul\":22717:22808   */\n      tag_294\n      jump\t// in\n    tag_542:\n        /* \"#utility.yul\":22711:22715   */\n      dup3\n        /* \"#utility.yul\":22704:22809   */\n      sstore\n        /* \"#utility.yul\":22622:22815   */\n      pop\n        /* \"#utility.yul\":22546:22815   */\n      pop\n      pop\n      pop\n      jump\t// out\n        /* \"#utility.yul\":22821:22894   */\n    tag_299:\n        /* \"#utility.yul\":22866:22869   */\n      0x00\n        /* \"#utility.yul\":22821:22894   */\n      swap1\n      jump\t// out\n        /* \"#utility.yul\":22900:23089   */\n    tag_300:\n        /* \"#utility.yul\":22977:23009   */\n      tag_546\n      tag_299\n      jump\t// in\n    tag_546:\n        /* \"#utility.yul\":23018:23083   */\n      tag_547\n        /* \"#utility.yul\":23076:23082   */\n      dup2\n        /* \"#utility.yul\":23068:23074   */\n      dup5\n        /* \"#utility.yul\":23062:23066   */\n      dup5\n        /* \"#utility.yul\":23018:23083   */\n      tag_298\n      jump\t// in\n    tag_547:\n        /* \"#utility.yul\":22953:23089   */\n      pop\n        /* \"#utility.yul\":22900:23089   */\n      pop\n      pop\n      jump\t// out\n        /* \"#utility.yul\":23095:23281   */\n    tag_301:\n        /* \"#utility.yul\":23155:23275   */\n    tag_549:\n        /* \"#utility.yul\":23172:23175   */\n      dup2\n        /* \"#utility.yul\":23165:23170   */\n      dup2\n        /* \"#utility.yul\":23162:23176   */\n      lt\n        /* \"#utility.yul\":23155:23275   */\n      iszero\n      tag_551\n      jumpi\n        /* \"#utility.yul\":23226:23265   */\n      tag_552\n        /* \"#utility.yul\":23263:23264   */\n      0x00\n        /* \"#utility.yul\":23256:23261   */\n      dup3\n        /* \"#utility.yul\":23226:23265   */\n      tag_300\n      jump\t// in\n    tag_552:\n        /* \"#utility.yul\":23199:23200   */\n      0x01\n        /* \"#utility.yul\":23192:23197   */\n      dup2\n        /* \"#utility.yul\":23188:23201   */\n      add\n        /* \"#utility.yul\":23179:23201   */\n      swap1\n      pop\n        /* \"#utility.yul\":23155:23275   */\n      jump(tag_549)\n    tag_551:\n        /* \"#utility.yul\":23095:23281   */\n      pop\n      pop\n      jump\t// out\n        /* \"#utility.yul\":23287:23830   */\n    tag_302:\n        /* \"#utility.yul\":23388:23390   */\n      0x1f\n        /* \"#utility.yul\":23383:23386   */\n      dup3\n        /* \"#utility.yul\":23380:23391   */\n      gt\n        /* \"#utility.yul\":23377:23823   */\n      iszero\n      tag_554\n      jumpi\n        /* \"#utility.yul\":23422:23460   */\n      tag_555\n        /* \"#utility.yul\":23454:23459   */\n      dup2\n        /* \"#utility.yul\":23422:23460   */\n      tag_291\n      jump\t// in\n    tag_555:\n        /* \"#utility.yul\":23506:23535   */\n      tag_556\n        /* \"#utility.yul\":23524:23534   */\n      dup5\n        /* \"#utility.yul\":23506:23535   */\n      tag_292\n      jump\t// in\n    tag_556:\n        /* \"#utility.yul\":23496:23504   */\n      dup2\n        /* \"#utility.yul\":23492:23536   */\n      add\n        /* \"#utility.yul\":23689:23691   */\n      0x20\n        /* \"#utility.yul\":23677:23687   */\n      dup6\n        /* \"#utility.yul\":23674:23692   */\n      lt\n        /* \"#utility.yul\":23671:23720   */\n      iszero\n      tag_557\n      jumpi\n        /* \"#utility.yul\":23710:23718   */\n      dup2\n        /* \"#utility.yul\":23695:23718   */\n      swap1\n      pop\n        /* \"#utility.yul\":23671:23720   */\n    tag_557:\n        /* \"#utility.yul\":23733:23813   */\n      tag_558\n        /* \"#utility.yul\":23789:23811   */\n      tag_559\n        /* \"#utility.yul\":23807:23810   */\n      dup6\n        /* \"#utility.yul\":23789:23811   */\n      tag_292\n      jump\t// in\n    tag_559:\n        /* \"#utility.yul\":23779:23787   */\n      dup4\n        /* \"#utility.yul\":23775:23812   */\n      add\n        /* \"#utility.yul\":23762:23773   */\n      dup3\n        /* \"#utility.yul\":23733:23813   */\n      tag_301\n      jump\t// in\n    tag_558:\n        /* \"#utility.yul\":23392:23823   */\n      pop\n      pop\n        /* \"#utility.yul\":23377:23823   */\n    tag_554:\n        /* \"#utility.yul\":23287:23830   */\n      pop\n      pop\n      pop\n      jump\t// out\n        /* \"#utility.yul\":23836:23953   */\n    tag_303:\n        /* \"#utility.yul\":23890:23898   */\n      0x00\n        /* \"#utility.yul\":23940:23945   */\n      dup3\n        /* \"#utility.yul\":23934:23938   */\n      dup3\n        /* \"#utility.yul\":23930:23946   */\n      shr\n        /* \"#utility.yul\":23909:23946   */\n      swap1\n      pop\n        /* \"#utility.yul\":23836:23953   */\n      swap3\n      swap2\n      pop\n      pop\n      jump\t// out\n        /* \"#utility.yul\":23959:24128   */\n    tag_304:\n        /* \"#utility.yul\":24003:24009   */\n      0x00\n        /* \"#utility.yul\":24036:24087   */\n      tag_562\n        /* \"#utility.yul\":24084:24085   */\n      0x00\n        /* \"#utility.yul\":24080:24086   */\n      not\n        /* \"#utility.yul\":24072:24077   */\n      dup5\n        /* \"#utility.yul\":24069:24070   */\n      0x08\n        /* \"#utility.yul\":24065:24078   */\n      mul\n        /* \"#utility.yul\":24036:24087   */\n      tag_303\n      jump\t// in\n    tag_562:\n        /* \"#utility.yul\":24032:24088   */\n      not\n        /* \"#utility.yul\":24117:24121   */\n      dup1\n        /* \"#utility.yul\":24111:24115   */\n      dup4\n        /* \"#utility.yul\":24107:24122   */\n      and\n        /* \"#utility.yul\":24097:24122   */\n      swap2\n      pop\n        /* \"#utility.yul\":24010:24128   */\n      pop\n        /* \"#utility.yul\":23959:24128   */\n      swap3\n      swap2\n      pop\n      pop\n      jump\t// out\n        /* \"#utility.yul\":24133:24428   */\n    tag_305:\n        /* \"#utility.yul\":24209:24213   */\n      0x00\n        /* \"#utility.yul\":24355:24384   */\n      tag_564\n        /* \"#utility.yul\":24380:24383   */\n      dup4\n        /* \"#utility.yul\":24374:24378   */\n      dup4\n        /* \"#utility.yul\":24355:24384   */\n      tag_304\n      jump\t// in\n    tag_564:\n        /* \"#utility.yul\":24347:24384   */\n      swap2\n      pop\n        /* \"#utility.yul\":24417:24420   */\n      dup3\n        /* \"#utility.yul\":24414:24415   */\n      0x02\n        /* \"#utility.yul\":24410:24421   */\n      mul\n        /* \"#utility.yul\":24404:24408   */\n      dup3\n        /* \"#utility.yul\":24401:24422   */\n      or\n        /* \"#utility.yul\":24393:24422   */\n      swap1\n      pop\n        /* \"#utility.yul\":24133:24428   */\n      swap3\n      swap2\n      pop\n      pop\n      jump\t// out\n        /* \"#utility.yul\":24433:25828   */\n    tag_93:\n        /* \"#utility.yul\":24550:24587   */\n      tag_566\n        /* \"#utility.yul\":24583:24586   */\n      dup3\n        /* \"#utility.yul\":24550:24587   */\n      tag_243\n      jump\t// in\n    tag_566:\n        /* \"#utility.yul\":24652:24670   */\n      0xffffffffffffffff\n        /* \"#utility.yul\":24644:24650   */\n      dup2\n        /* \"#utility.yul\":24641:24671   */\n      gt\n        /* \"#utility.yul\":24638:24694   */\n      iszero\n      tag_567\n      jumpi\n        /* \"#utility.yul\":24674:24692   */\n      tag_568\n      tag_107\n      jump\t// in\n    tag_568:\n        /* \"#utility.yul\":24638:24694   */\n    tag_567:\n        /* \"#utility.yul\":24718:24756   */\n      tag_569\n        /* \"#utility.yul\":24750:24754   */\n      dup3\n        /* \"#utility.yul\":24744:24755   */\n      sload\n        /* \"#utility.yul\":24718:24756   */\n      tag_68\n      jump\t// in\n    tag_569:\n        /* \"#utility.yul\":24803:24870   */\n      tag_570\n        /* \"#utility.yul\":24863:24869   */\n      dup3\n        /* \"#utility.yul\":24855:24861   */\n      dup3\n        /* \"#utility.yul\":24849:24853   */\n      dup6\n        /* \"#utility.yul\":24803:24870   */\n      tag_302\n      jump\t// in\n    tag_570:\n        /* \"#utility.yul\":24897:24898   */\n      0x00\n        /* \"#utility.yul\":24921:24925   */\n      0x20\n        /* \"#utility.yul\":24908:24925   */\n      swap1\n      pop\n        /* \"#utility.yul\":24953:24955   */\n      0x1f\n        /* \"#utility.yul\":24945:24951   */\n      dup4\n        /* \"#utility.yul\":24942:24956   */\n      gt\n        /* \"#utility.yul\":24970:24971   */\n      0x01\n        /* \"#utility.yul\":24965:25583   */\n      dup2\n      eq\n      tag_572\n      jumpi\n        /* \"#utility.yul\":25627:25628   */\n      0x00\n        /* \"#utility.yul\":25644:25650   */\n      dup5\n        /* \"#utility.yul\":25641:25718   */\n      iszero\n      tag_573\n      jumpi\n        /* \"#utility.yul\":25693:25702   */\n      dup3\n        /* \"#utility.yul\":25688:25691   */\n      dup8\n        /* \"#utility.yul\":25684:25703   */\n      add\n        /* \"#utility.yul\":25678:25704   */\n      mload\n        /* \"#utility.yul\":25669:25704   */\n      swap1\n      pop\n        /* \"#utility.yul\":25641:25718   */\n    tag_573:\n        /* \"#utility.yul\":25744:25811   */\n      tag_574\n        /* \"#utility.yul\":25804:25810   */\n      dup6\n        /* \"#utility.yul\":25797:25802   */\n      dup3\n        /* \"#utility.yul\":25744:25811   */\n      tag_305\n      jump\t// in\n    tag_574:\n        /* \"#utility.yul\":25738:25742   */\n      dup7\n        /* \"#utility.yul\":25731:25812   */\n      sstore\n        /* \"#utility.yul\":25600:25822   */\n      pop\n        /* \"#utility.yul\":24935:25822   */\n      jump(tag_571)\n        /* \"#utility.yul\":24965:25583   */\n    tag_572:\n        /* \"#utility.yul\":25017:25021   */\n      0x1f\n        /* \"#utility.yul\":25013:25022   */\n      not\n        /* \"#utility.yul\":25005:25011   */\n      dup5\n        /* \"#utility.yul\":25001:25023   */\n      and\n        /* \"#utility.yul\":25051:25088   */\n      tag_575\n        /* \"#utility.yul\":25083:25087   */\n      dup7\n        /* \"#utility.yul\":25051:25088   */\n      tag_291\n      jump\t// in\n    tag_575:\n        /* \"#utility.yul\":25110:25111   */\n      0x00\n        /* \"#utility.yul\":25124:25332   */\n    tag_576:\n        /* \"#utility.yul\":25138:25145   */\n      dup3\n        /* \"#utility.yul\":25135:25136   */\n      dup2\n        /* \"#utility.yul\":25132:25146   */\n      lt\n        /* \"#utility.yul\":25124:25332   */\n      iszero\n      tag_578\n      jumpi\n        /* \"#utility.yul\":25217:25226   */\n      dup5\n        /* \"#utility.yul\":25212:25215   */\n      dup10\n        /* \"#utility.yul\":25208:25227   */\n      add\n        /* \"#utility.yul\":25202:25228   */\n      mload\n        /* \"#utility.yul\":25194:25200   */\n      dup3\n        /* \"#utility.yul\":25187:25229   */\n      sstore\n        /* \"#utility.yul\":25268:25269   */\n      0x01\n        /* \"#utility.yul\":25260:25266   */\n      dup3\n        /* \"#utility.yul\":25256:25270   */\n      add\n        /* \"#utility.yul\":25246:25270   */\n      swap2\n      pop\n        /* \"#utility.yul\":25315:25317   */\n      0x20\n        /* \"#utility.yul\":25304:25313   */\n      dup6\n        /* \"#utility.yul\":25300:25318   */\n      add\n        /* \"#utility.yul\":25287:25318   */\n      swap5\n      pop\n        /* \"#utility.yul\":25161:25165   */\n      0x20\n        /* \"#utility.yul\":25158:25159   */\n      dup2\n        /* \"#utility.yul\":25154:25166   */\n      add\n        /* \"#utility.yul\":25149:25166   */\n      swap1\n      pop\n        /* \"#utility.yul\":25124:25332   */\n      jump(tag_576)\n    tag_578:\n        /* \"#utility.yul\":25360:25366   */\n      dup7\n        /* \"#utility.yul\":25351:25358   */\n      dup4\n        /* \"#utility.yul\":25348:25367   */\n      lt\n        /* \"#utility.yul\":25345:25524   */\n      iszero\n      tag_579\n      jumpi\n        /* \"#utility.yul\":25418:25427   */\n      dup5\n        /* \"#utility.yul\":25413:25416   */\n      dup10\n        /* \"#utility.yul\":25409:25428   */\n      add\n        /* \"#utility.yul\":25403:25429   */\n      mload\n        /* \"#utility.yul\":25461:25509   */\n      tag_580\n        /* \"#utility.yul\":25503:25507   */\n      0x1f\n        /* \"#utility.yul\":25495:25501   */\n      dup10\n        /* \"#utility.yul\":25491:25508   */\n      and\n        /* \"#utility.yul\":25480:25489   */\n      dup3\n        /* \"#utility.yul\":25461:25509   */\n      tag_304\n      jump\t// in\n    tag_580:\n        /* \"#utility.yul\":25453:25459   */\n      dup4\n        /* \"#utility.yul\":25446:25510   */\n      sstore\n        /* \"#utility.yul\":25368:25524   */\n      pop\n        /* \"#utility.yul\":25345:25524   */\n    tag_579:\n        /* \"#utility.yul\":25570:25571   */\n      0x01\n        /* \"#utility.yul\":25566:25567   */\n      0x02\n        /* \"#utility.yul\":25558:25564   */\n      dup9\n        /* \"#utility.yul\":25554:25568   */\n      mul\n        /* \"#utility.yul\":25550:25572   */\n      add\n        /* \"#utility.yul\":25544:25548   */\n      dup9\n        /* \"#utility.yul\":25537:25573   */\n      sstore\n        /* \"#utility.yul\":24972:25583   */\n      pop\n      pop\n      pop\n        /* \"#utility.yul\":24935:25822   */\n    tag_571:\n      pop\n        /* \"#utility.yul\":24525:25828   */\n      pop\n      pop\n      pop\n        /* \"#utility.yul\":24433:25828   */\n      pop\n      pop\n      jump\t// out\n        /* \"#utility.yul\":25834:26348   */\n    tag_96:\n        /* \"#utility.yul\":25995:25999   */\n      0x00\n        /* \"#utility.yul\":26033:26035   */\n      0x40\n        /* \"#utility.yul\":26022:26031   */\n      dup3\n        /* \"#utility.yul\":26018:26036   */\n      add\n        /* \"#utility.yul\":26010:26036   */\n      swap1\n      pop\n        /* \"#utility.yul\":26082:26091   */\n      dup2\n        /* \"#utility.yul\":26076:26080   */\n      dup2\n        /* \"#utility.yul\":26072:26092   */\n      sub\n        /* \"#utility.yul\":26068:26069   */\n      0x00\n        /* \"#utility.yul\":26057:26066   */\n      dup4\n        /* \"#utility.yul\":26053:26070   */\n      add\n        /* \"#utility.yul\":26046:26093   */\n      mstore\n        /* \"#utility.yul\":26110:26188   */\n      tag_582\n        /* \"#utility.yul\":26183:26187   */\n      dup2\n        /* \"#utility.yul\":26174:26180   */\n      dup6\n        /* \"#utility.yul\":26110:26188   */\n      tag_247\n      jump\t// in\n    tag_582:\n        /* \"#utility.yul\":26102:26188   */\n      swap1\n      pop\n        /* \"#utility.yul\":26235:26244   */\n      dup2\n        /* \"#utility.yul\":26229:26233   */\n      dup2\n        /* \"#utility.yul\":26225:26245   */\n      sub\n        /* \"#utility.yul\":26220:26222   */\n      0x20\n        /* \"#utility.yul\":26209:26218   */\n      dup4\n        /* \"#utility.yul\":26205:26223   */\n      add\n        /* \"#utility.yul\":26198:26246   */\n      mstore\n        /* \"#utility.yul\":26263:26341   */\n      tag_583\n        /* \"#utility.yul\":26336:26340   */\n      dup2\n        /* \"#utility.yul\":26327:26333   */\n      dup5\n        /* \"#utility.yul\":26263:26341   */\n      tag_247\n      jump\t// in\n    tag_583:\n        /* \"#utility.yul\":26255:26341   */\n      swap1\n      pop\n        /* \"#utility.yul\":25834:26348   */\n      swap4\n      swap3\n      pop\n      pop\n      pop\n      jump\t// out\n        /* \"#utility.yul\":26354:26535   */\n    tag_306:\n        /* \"#utility.yul\":26494:26527   */\n      0x5374617274204944206d7573742062652067726561746572207468616e203000\n        /* \"#utility.yul\":26490:26491   */\n      0x00\n        /* \"#utility.yul\":26482:26488   */\n      dup3\n        /* \"#utility.yul\":26478:26492   */\n      add\n        /* \"#utility.yul\":26471:26528   */\n      mstore\n        /* \"#utility.yul\":26354:26535   */\n      pop\n      jump\t// out\n        /* \"#utility.yul\":26541:26907   */\n    tag_307:\n        /* \"#utility.yul\":26683:26686   */\n      0x00\n        /* \"#utility.yul\":26704:26771   */\n      tag_586\n        /* \"#utility.yul\":26768:26770   */\n      0x1f\n        /* \"#utility.yul\":26763:26766   */\n      dup4\n        /* \"#utility.yul\":26704:26771   */\n      tag_244\n      jump\t// in\n    tag_586:\n        /* \"#utility.yul\":26697:26771   */\n      swap2\n      pop\n        /* \"#utility.yul\":26780:26873   */\n      tag_587\n        /* \"#utility.yul\":26869:26872   */\n      dup3\n        /* \"#utility.yul\":26780:26873   */\n      tag_306\n      jump\t// in\n    tag_587:\n        /* \"#utility.yul\":26898:26900   */\n      0x20\n        /* \"#utility.yul\":26893:26896   */\n      dup3\n        /* \"#utility.yul\":26889:26901   */\n      add\n        /* \"#utility.yul\":26882:26901   */\n      swap1\n      pop\n        /* \"#utility.yul\":26541:26907   */\n      swap2\n      swap1\n      pop\n      jump\t// out\n        /* \"#utility.yul\":26913:27332   */\n    tag_103:\n        /* \"#utility.yul\":27079:27083   */\n      0x00\n        /* \"#utility.yul\":27117:27119   */\n      0x20\n        /* \"#utility.yul\":27106:27115   */\n      dup3\n        /* \"#utility.yul\":27102:27120   */\n      add\n        /* \"#utility.yul\":27094:27120   */\n      swap1\n      pop\n        /* \"#utility.yul\":27166:27175   */\n      dup2\n        /* \"#utility.yul\":27160:27164   */\n      dup2\n        /* \"#utility.yul\":27156:27176   */\n      sub\n        /* \"#utility.yul\":27152:27153   */\n      0x00\n        /* \"#utility.yul\":27141:27150   */\n      dup4\n        /* \"#utility.yul\":27137:27154   */\n      add\n        /* \"#utility.yul\":27130:27177   */\n      mstore\n        /* \"#utility.yul\":27194:27325   */\n      tag_589\n        /* \"#utility.yul\":27320:27324   */\n      dup2\n        /* \"#utility.yul\":27194:27325   */\n      tag_307\n      jump\t// in\n    tag_589:\n        /* \"#utility.yul\":27186:27325   */\n      swap1\n      pop\n        /* \"#utility.yul\":26913:27332   */\n      swap2\n      swap1\n      pop\n      jump\t// out\n        /* \"#utility.yul\":27338:27532   */\n    tag_122:\n        /* \"#utility.yul\":27378:27382   */\n      0x00\n        /* \"#utility.yul\":27398:27418   */\n      tag_591\n        /* \"#utility.yul\":27416:27417   */\n      dup3\n        /* \"#utility.yul\":27398:27418   */\n      tag_237\n      jump\t// in\n    tag_591:\n        /* \"#utility.yul\":27393:27418   */\n      swap2\n      pop\n        /* \"#utility.yul\":27432:27452   */\n      tag_592\n        /* \"#utility.yul\":27450:27451   */\n      dup4\n        /* \"#utility.yul\":27432:27452   */\n      tag_237\n      jump\t// in\n    tag_592:\n        /* \"#utility.yul\":27427:27452   */\n      swap3\n      pop\n        /* \"#utility.yul\":27476:27477   */\n      dup3\n        /* \"#utility.yul\":27473:27474   */\n      dup3\n        /* \"#utility.yul\":27469:27478   */\n      sub\n        /* \"#utility.yul\":27461:27478   */\n      swap1\n      pop\n        /* \"#utility.yul\":27500:27501   */\n      dup2\n        /* \"#utility.yul\":27494:27498   */\n      dup2\n        /* \"#utility.yul\":27491:27502   */\n      gt\n        /* \"#utility.yul\":27488:27525   */\n      iszero\n      tag_593\n      jumpi\n        /* \"#utility.yul\":27505:27523   */\n      tag_594\n      tag_290\n      jump\t// in\n    tag_594:\n        /* \"#utility.yul\":27488:27525   */\n    tag_593:\n        /* \"#utility.yul\":27338:27532   */\n      swap3\n      swap2\n      pop\n      pop\n      jump\t// out\n        /* \"#utility.yul\":27538:27729   */\n    tag_124:\n        /* \"#utility.yul\":27578:27581   */\n      0x00\n        /* \"#utility.yul\":27597:27617   */\n      tag_596\n        /* \"#utility.yul\":27615:27616   */\n      dup3\n        /* \"#utility.yul\":27597:27617   */\n      tag_237\n      jump\t// in\n    tag_596:\n        /* \"#utility.yul\":27592:27617   */\n      swap2\n      pop\n        /* \"#utility.yul\":27631:27651   */\n      tag_597\n        /* \"#utility.yul\":27649:27650   */\n      dup4\n        /* \"#utility.yul\":27631:27651   */\n      tag_237\n      jump\t// in\n    tag_597:\n        /* \"#utility.yul\":27626:27651   */\n      swap3\n      pop\n        /* \"#utility.yul\":27674:27675   */\n      dup3\n        /* \"#utility.yul\":27671:27672   */\n      dup3\n        /* \"#utility.yul\":27667:27676   */\n      add\n        /* \"#utility.yul\":27660:27676   */\n      swap1\n      pop\n        /* \"#utility.yul\":27695:27698   */\n      dup1\n        /* \"#utility.yul\":27692:27693   */\n      dup3\n        /* \"#utility.yul\":27689:27699   */\n      gt\n        /* \"#utility.yul\":27686:27722   */\n      iszero\n      tag_598\n      jumpi\n        /* \"#utility.yul\":27702:27720   */\n      tag_599\n      tag_290\n      jump\t// in\n    tag_599:\n        /* \"#utility.yul\":27686:27722   */\n    tag_598:\n        /* \"#utility.yul\":27538:27729   */\n      swap3\n      swap2\n      pop\n      pop\n      jump\t// out\n        /* \"#utility.yul\":27735:27915   */\n    tag_146:\n        /* \"#utility.yul\":27783:27860   */\n      0x4e487b7100000000000000000000000000000000000000000000000000000000\n        /* \"#utility.yul\":27780:27781   */\n      0x00\n        /* \"#utility.yul\":27773:27861   */\n      mstore\n        /* \"#utility.yul\":27880:27884   */\n      0x32\n        /* \"#utility.yul\":27877:27878   */\n      0x04\n        /* \"#utility.yul\":27870:27885   */\n      mstore\n        /* \"#utility.yul\":27904:27908   */\n      0x24\n        /* \"#utility.yul\":27901:27902   */\n      0x00\n        /* \"#utility.yul\":27894:27909   */\n      revert\n        /* \"#utility.yul\":27921:28089   */\n    tag_308:\n        /* \"#utility.yul\":28061:28081   */\n      0x496e76616c696420636f6d6d656e742049440000000000000000000000000000\n        /* \"#utility.yul\":28057:28058   */\n      0x00\n        /* \"#utility.yul\":28049:28055   */\n      dup3\n        /* \"#utility.yul\":28045:28059   */\n      add\n        /* \"#utility.yul\":28038:28082   */\n      mstore\n        /* \"#utility.yul\":27921:28089   */\n      pop\n      jump\t// out\n        /* \"#utility.yul\":28095:28461   */\n    tag_309:\n        /* \"#utility.yul\":28237:28240   */\n      0x00\n        /* \"#utility.yul\":28258:28325   */\n      tag_603\n        /* \"#utility.yul\":28322:28324   */\n      0x12\n        /* \"#utility.yul\":28317:28320   */\n      dup4\n        /* \"#utility.yul\":28258:28325   */\n      tag_244\n      jump\t// in\n    tag_603:\n        /* \"#utility.yul\":28251:28325   */\n      swap2\n      pop\n        /* \"#utility.yul\":28334:28427   */\n      tag_604\n        /* \"#utility.yul\":28423:28426   */\n      dup3\n        /* \"#utility.yul\":28334:28427   */\n      tag_308\n      jump\t// in\n    tag_604:\n        /* \"#utility.yul\":28452:28454   */\n      0x20\n        /* \"#utility.yul\":28447:28450   */\n      dup3\n        /* \"#utility.yul\":28443:28455   */\n      add\n        /* \"#utility.yul\":28436:28455   */\n      swap1\n      pop\n        /* \"#utility.yul\":28095:28461   */\n      swap2\n      swap1\n      pop\n      jump\t// out\n        /* \"#utility.yul\":28467:28886   */\n    tag_194:\n        /* \"#utility.yul\":28633:28637   */\n      0x00\n        /* \"#utility.yul\":28671:28673   */\n      0x20\n        /* \"#utility.yul\":28660:28669   */\n      dup3\n        /* \"#utility.yul\":28656:28674   */\n      add\n        /* \"#utility.yul\":28648:28674   */\n      swap1\n      pop\n        /* \"#utility.yul\":28720:28729   */\n      dup2\n        /* \"#utility.yul\":28714:28718   */\n      dup2\n        /* \"#utility.yul\":28710:28730   */\n      sub\n        /* \"#utility.yul\":28706:28707   */\n      0x00\n        /* \"#utility.yul\":28695:28704   */\n      dup4\n        /* \"#utility.yul\":28691:28708   */\n      add\n        /* \"#utility.yul\":28684:28731   */\n      mstore\n        /* \"#utility.yul\":28748:28879   */\n      tag_606\n        /* \"#utility.yul\":28874:28878   */\n      dup2\n        /* \"#utility.yul\":28748:28879   */\n      tag_309\n      jump\t// in\n    tag_606:\n        /* \"#utility.yul\":28740:28879   */\n      swap1\n      pop\n        /* \"#utility.yul\":28467:28886   */\n      swap2\n      swap1\n      pop\n      jump\t// out\n        /* \"#utility.yul\":28892:29072   */\n    tag_310:\n        /* \"#utility.yul\":29032:29064   */\n      0x43616e6e6f74206368616c6c656e676520796f7572206f776e20706f73740000\n        /* \"#utility.yul\":29028:29029   */\n      0x00\n        /* \"#utility.yul\":29020:29026   */\n      dup3\n        /* \"#utility.yul\":29016:29030   */\n      add\n        /* \"#utility.yul\":29009:29065   */\n      mstore\n        /* \"#utility.yul\":28892:29072   */\n      pop\n      jump\t// out\n        /* \"#utility.yul\":29078:29444   */\n    tag_311:\n        /* \"#utility.yul\":29220:29223   */\n      0x00\n        /* \"#utility.yul\":29241:29308   */\n      tag_609\n        /* \"#utility.yul\":29305:29307   */\n      0x1e\n        /* \"#utility.yul\":29300:29303   */\n      dup4\n        /* \"#utility.yul\":29241:29308   */\n      tag_244\n      jump\t// in\n    tag_609:\n        /* \"#utility.yul\":29234:29308   */\n      swap2\n      pop\n        /* \"#utility.yul\":29317:29410   */\n      tag_610\n        /* \"#utility.yul\":29406:29409   */\n      dup3\n        /* \"#utility.yul\":29317:29410   */\n      tag_310\n      jump\t// in\n    tag_610:\n        /* \"#utility.yul\":29435:29437   */\n      0x20\n        /* \"#utility.yul\":29430:29433   */\n      dup3\n        /* \"#utility.yul\":29426:29438   */\n      add\n        /* \"#utility.yul\":29419:29438   */\n      swap1\n      pop\n        /* \"#utility.yul\":29078:29444   */\n      swap2\n      swap1\n      pop\n      jump\t// out\n        /* \"#utility.yul\":29450:29869   */\n    tag_212:\n        /* \"#utility.yul\":29616:29620   */\n      0x00\n        /* \"#utility.yul\":29654:29656   */\n      0x20\n        /* \"#utility.yul\":29643:29652   */\n      dup3\n        /* \"#utility.yul\":29639:29657   */\n      add\n        /* \"#utility.yul\":29631:29657   */\n      swap1\n      pop\n        /* \"#utility.yul\":29703:29712   */\n      dup2\n        /* \"#utility.yul\":29697:29701   */\n      dup2\n        /* \"#utility.yul\":29693:29713   */\n      sub\n        /* \"#utility.yul\":29689:29690   */\n      0x00\n        /* \"#utility.yul\":29678:29687   */\n      dup4\n        /* \"#utility.yul\":29674:29691   */\n      add\n        /* \"#utility.yul\":29667:29714   */\n      mstore\n        /* \"#utility.yul\":29731:29862   */\n      tag_612\n        /* \"#utility.yul\":29857:29861   */\n      dup2\n        /* \"#utility.yul\":29731:29862   */\n      tag_311\n      jump\t// in\n    tag_612:\n        /* \"#utility.yul\":29723:29862   */\n      swap1\n      pop\n        /* \"#utility.yul\":29450:29869   */\n      swap2\n      swap1\n      pop\n      jump\t// out\n        /* \"#utility.yul\":29875:30038   */\n    tag_312:\n        /* \"#utility.yul\":30015:30030   */\n      0x416c726561647920766f74656400000000000000000000000000000000000000\n        /* \"#utility.yul\":30011:30012   */\n      0x00\n        /* \"#utility.yul\":30003:30009   */\n      dup3\n        /* \"#utility.yul\":29999:30013   */\n      add\n        /* \"#utility.yul\":29992:30031   */\n      mstore\n        /* \"#utility.yul\":29875:30038   */\n      pop\n      jump\t// out\n        /* \"#utility.yul\":30044:30410   */\n    tag_313:\n        /* \"#utility.yul\":30186:30189   */\n      0x00\n        /* \"#utility.yul\":30207:30274   */\n      tag_615\n        /* \"#utility.yul\":30271:30273   */\n      0x0d\n        /* \"#utility.yul\":30266:30269   */\n      dup4\n        /* \"#utility.yul\":30207:30274   */\n      tag_244\n      jump\t// in\n    tag_615:\n        /* \"#utility.yul\":30200:30274   */\n      swap2\n      pop\n        /* \"#utility.yul\":30283:30376   */\n      tag_616\n        /* \"#utility.yul\":30372:30375   */\n      dup3\n        /* \"#utility.yul\":30283:30376   */\n      tag_312\n      jump\t// in\n    tag_616:\n        /* \"#utility.yul\":30401:30403   */\n      0x20\n        /* \"#utility.yul\":30396:30399   */\n      dup3\n        /* \"#utility.yul\":30392:30404   */\n      add\n        /* \"#utility.yul\":30385:30404   */\n      swap1\n      pop\n        /* \"#utility.yul\":30044:30410   */\n      swap2\n      swap1\n      pop\n      jump\t// out\n        /* \"#utility.yul\":30416:30835   */\n    tag_215:\n        /* \"#utility.yul\":30582:30586   */\n      0x00\n        /* \"#utility.yul\":30620:30622   */\n      0x20\n        /* \"#utility.yul\":30609:30618   */\n      dup3\n        /* \"#utility.yul\":30605:30623   */\n      add\n        /* \"#utility.yul\":30597:30623   */\n      swap1\n      pop\n        /* \"#utility.yul\":30669:30678   */\n      dup2\n        /* \"#utility.yul\":30663:30667   */\n      dup2\n        /* \"#utility.yul\":30659:30679   */\n      sub\n        /* \"#utility.yul\":30655:30656   */\n      0x00\n        /* \"#utility.yul\":30644:30653   */\n      dup4\n        /* \"#utility.yul\":30640:30657   */\n      add\n        /* \"#utility.yul\":30633:30680   */\n      mstore\n        /* \"#utility.yul\":30697:30828   */\n      tag_618\n        /* \"#utility.yul\":30823:30827   */\n      dup2\n        /* \"#utility.yul\":30697:30828   */\n      tag_313\n      jump\t// in\n    tag_618:\n        /* \"#utility.yul\":30689:30828   */\n      swap1\n      pop\n        /* \"#utility.yul\":30416:30835   */\n      swap2\n      swap1\n      pop\n      jump\t// out\n        /* \"#utility.yul\":30841:31019   */\n    tag_314:\n        /* \"#utility.yul\":30981:31011   */\n      0x43616e6e6f7420766f7465206f6e20796f7572206f776e20706f737400000000\n        /* \"#utility.yul\":30977:30978   */\n      0x00\n        /* \"#utility.yul\":30969:30975   */\n      dup3\n        /* \"#utility.yul\":30965:30979   */\n      add\n        /* \"#utility.yul\":30958:31012   */\n      mstore\n        /* \"#utility.yul\":30841:31019   */\n      pop\n      jump\t// out\n        /* \"#utility.yul\":31025:31391   */\n    tag_315:\n        /* \"#utility.yul\":31167:31170   */\n      0x00\n        /* \"#utility.yul\":31188:31255   */\n      tag_621\n        /* \"#utility.yul\":31252:31254   */\n      0x1c\n        /* \"#utility.yul\":31247:31250   */\n      dup4\n        /* \"#utility.yul\":31188:31255   */\n      tag_244\n      jump\t// in\n    tag_621:\n        /* \"#utility.yul\":31181:31255   */\n      swap2\n      pop\n        /* \"#utility.yul\":31264:31357   */\n      tag_622\n        /* \"#utility.yul\":31353:31356   */\n      dup3\n        /* \"#utility.yul\":31264:31357   */\n      tag_314\n      jump\t// in\n    tag_622:\n        /* \"#utility.yul\":31382:31384   */\n      0x20\n        /* \"#utility.yul\":31377:31380   */\n      dup3\n        /* \"#utility.yul\":31373:31385   */\n      add\n        /* \"#utility.yul\":31366:31385   */\n      swap1\n      pop\n        /* \"#utility.yul\":31025:31391   */\n      swap2\n      swap1\n      pop\n      jump\t// out\n        /* \"#utility.yul\":31397:31816   */\n    tag_218:\n        /* \"#utility.yul\":31563:31567   */\n      0x00\n        /* \"#utility.yul\":31601:31603   */\n      0x20\n        /* \"#utility.yul\":31590:31599   */\n      dup3\n        /* \"#utility.yul\":31586:31604   */\n      add\n        /* \"#utility.yul\":31578:31604   */\n      swap1\n      pop\n        /* \"#utility.yul\":31650:31659   */\n      dup2\n        /* \"#utility.yul\":31644:31648   */\n      dup2\n        /* \"#utility.yul\":31640:31660   */\n      sub\n        /* \"#utility.yul\":31636:31637   */\n      0x00\n        /* \"#utility.yul\":31625:31634   */\n      dup4\n        /* \"#utility.yul\":31621:31638   */\n      add\n        /* \"#utility.yul\":31614:31661   */\n      mstore\n        /* \"#utility.yul\":31678:31809   */\n      tag_624\n        /* \"#utility.yul\":31804:31808   */\n      dup2\n        /* \"#utility.yul\":31678:31809   */\n      tag_315\n      jump\t// in\n    tag_624:\n        /* \"#utility.yul\":31670:31809   */\n      swap1\n      pop\n        /* \"#utility.yul\":31397:31816   */\n      swap2\n      swap1\n      pop\n      jump\t// out\n\n    auxdata: 0xa2646970667358221220549a3ba17e69444bcd4b1e854990fcab366d0a070ae9eb31c128da80921b502964736f6c63430008140033\n}\n",
				"bytecode": {
					"linkReferences": {},
					"object": "608060405234801562000010575f80fd5b50600180819055505f805f60015481526020019081526020015f209050734511277f98ba4282705da1c250110e24aa2f88a2815f015f6101000a81548173ffffffffffffffffffffffffffffffffffffffff021916908373ffffffffffffffffffffffffffffffffffffffff1602179055506040518060400160405280600481526020017f7465737400000000000000000000000000000000000000000000000000000000815250816001019081620000ca9190620016df565b506040518060400160405280600781526020017f73747564656e7400000000000000000000000000000000000000000000000000815250816002019081620001139190620016df565b5063681f310881600301819055505f816004015f6101000a81548160ff0219169083151502179055505f81600501819055505f8160060181905550600181600801819055505f60025f60015481526020019081526020015f205f600181526020019081526020015f209050734511277f98ba4282705da1c250110e24aa2f88a2815f015f6101000a81548173ffffffffffffffffffffffffffffffffffffffff021916908373ffffffffffffffffffffffffffffffffffffffff160217905550604051806060016040528060298152602001620041fa60299139816001019081620001ff9190620016df565b506040518060400160405280600781526020017f73747564656e7400000000000000000000000000000000000000000000000000815250816002019081620002489190620016df565b5063681f314c8160030181905550815f015f9054906101000a900473ffffffffffffffffffffffffffffffffffffffff1673ffffffffffffffffffffffffffffffffffffffff166001547f5475621b07408f75d49c828caa5aeacb3a5e98d3497e75730dc184677504401c8460020185600101604051620002cb92919062001860565b60405180910390a3805f015f9054906101000a900473ffffffffffffffffffffffffffffffffffffffff1673ffffffffffffffffffffffffffffffffffffffff16600180547f03a56e2377acf256c15a50f0b97834fa29a151d0b8a6d05c450576e40634fadc84600101856002016040516200034992919062001860565b60405180910390a460015f8154809291906200036590620018c6565b91905055505f805f60015481526020019081526020015f209050734511277f98ba4282705da1c250110e24aa2f88a2815f015f6101000a81548173ffffffffffffffffffffffffffffffffffffffff021916908373ffffffffffffffffffffffffffffffffffffffff1602179055506040518060600160405280602681526020016200427060269139816001019081620004009190620016df565b506040518060400160405280600981526020017f70726f666573736f720000000000000000000000000000000000000000000000815250816002019081620004499190620016df565b5063681f31b081600301819055506001816004015f6101000a81548160ff0219169083151502179055505f816005018190555060018160060181905550600381600801819055505f60025f60015481526020019081526020015f205f600181526020019081526020015f209050734511277f98ba4282705da1c250110e24aa2f88a2815f015f6101000a81548173ffffffffffffffffffffffffffffffffffffffff021916908373ffffffffffffffffffffffffffffffffffffffff1602179055506040518060600160405280602f815260200162004105602f9139816001019081620005379190620016df565b506040518060400160405280600781526020017f73747564656e7400000000000000000000000000000000000000000000000000815250816002019081620005809190620016df565b5063681f327881600301819055505f60025f60015481526020019081526020015f205f600281526020019081526020015f209050733fc91a3afd70395cd496c647d5a6cc9d4b2b7fad815f015f6101000a81548173ffffffffffffffffffffffffffffffffffffffff021916908373ffffffffffffffffffffffffffffffffffffffff1602179055506040518060600160405280602f815260200162004088602f9139816001019081620006359190620016df565b506040518060400160405280600781526020017f73747564656e74000000000000000000000000000000000000000000000000008152508160020190816200067e9190620016df565b5063681f334081600301819055505f60025f60015481526020019081526020015f205f600381526020019081526020015f20905073a983d7e14ac1aaf050bb64fdab1024ae9c93c956815f015f6101000a81548173ffffffffffffffffffffffffffffffffffffffff021916908373ffffffffffffffffffffffffffffffffffffffff1602179055506040518060c00160405280608f81526020016200416b608f9139816001019081620007339190620016df565b506040518060400160405280600781526020017f73747564656e74000000000000000000000000000000000000000000000000008152508160020190816200077c9190620016df565b5063681f4fbc8160030181905550835f015f9054906101000a900473ffffffffffffffffffffffffffffffffffffffff1673ffffffffffffffffffffffffffffffffffffffff166001547f5475621b07408f75d49c828caa5aeacb3a5e98d3497e75730dc184677504401c8660020187600101604051620007ff92919062001860565b60405180910390a3825f015f9054906101000a900473ffffffffffffffffffffffffffffffffffffffff1673ffffffffffffffffffffffffffffffffffffffff16600180547f03a56e2377acf256c15a50f0b97834fa29a151d0b8a6d05c450576e40634fadc86600101876002016040516200087d92919062001860565b60405180910390a4815f015f9054906101000a900473ffffffffffffffffffffffffffffffffffffffff1673ffffffffffffffffffffffffffffffffffffffff1660026001547f03a56e2377acf256c15a50f0b97834fa29a151d0b8a6d05c450576e40634fadc8560010186600201604051620008fc92919062001860565b60405180910390a4805f015f9054906101000a900473ffffffffffffffffffffffffffffffffffffffff1673ffffffffffffffffffffffffffffffffffffffff1660036001547f03a56e2377acf256c15a50f0b97834fa29a151d0b8a6d05c450576e40634fadc84600101856002016040516200097b92919062001860565b60405180910390a460015f8154809291906200099790620018c6565b91905055505f805f60015481526020019081526020015f209050734511277f98ba4282705da1c250110e24aa2f88a2815f015f6101000a81548173ffffffffffffffffffffffffffffffffffffffff021916908373ffffffffffffffffffffffffffffffffffffffff160217905550604051806080016040528060428152602001620040226042913981600101908162000a329190620016df565b506040518060400160405280600781526020017f73747564656e740000000000000000000000000000000000000000000000000081525081600201908162000a7b9190620016df565b506368229cfc81600301819055505f816004015f6101000a81548160ff0219169083151502179055505f81600501819055505f8160060181905550600281600801819055505f60025f60015481526020019081526020015f205f600181526020019081526020015f209050733fc91a3afd70395cd496c647d5a6cc9d4b2b7fad815f015f6101000a81548173ffffffffffffffffffffffffffffffffffffffff021916908373ffffffffffffffffffffffffffffffffffffffff1602179055506040518060800160405280604d815260200162004223604d913981600101908162000b679190620016df565b506040518060400160405280600581526020017f737461666600000000000000000000000000000000000000000000000000000081525081600201908162000bb09190620016df565b506368229d7881600301819055505f60025f60015481526020019081526020015f205f600281526020019081526020015f20905073a983d7e14ac1aaf050bb64fdab1024ae9c93c956815f015f6101000a81548173ffffffffffffffffffffffffffffffffffffffff021916908373ffffffffffffffffffffffffffffffffffffffff1602179055506040518060800160405280604e8152602001620040b7604e913981600101908162000c659190620016df565b506040518060400160405280600981526020017f70726f666573736f72000000000000000000000000000000000000000000000081525081600201908162000cae9190620016df565b5063681f4f688160030181905550825f015f9054906101000a900473ffffffffffffffffffffffffffffffffffffffff1673ffffffffffffffffffffffffffffffffffffffff166001547f5475621b07408f75d49c828caa5aeacb3a5e98d3497e75730dc184677504401c856002018660010160405162000d3192919062001860565b60405180910390a3815f015f9054906101000a900473ffffffffffffffffffffffffffffffffffffffff1673ffffffffffffffffffffffffffffffffffffffff16600180547f03a56e2377acf256c15a50f0b97834fa29a151d0b8a6d05c450576e40634fadc856001018660020160405162000daf92919062001860565b60405180910390a4805f015f9054906101000a900473ffffffffffffffffffffffffffffffffffffffff1673ffffffffffffffffffffffffffffffffffffffff1660026001547f03a56e2377acf256c15a50f0b97834fa29a151d0b8a6d05c450576e40634fadc846001018560020160405162000e2e92919062001860565b60405180910390a460015f81548092919062000e4a90620018c6565b91905055505f805f60015481526020019081526020015f2090507378731d3ca6b7e34ac0f824c42a7cc18a495cabab815f015f6101000a81548173ffffffffffffffffffffffffffffffffffffffff021916908373ffffffffffffffffffffffffffffffffffffffff160217905550604051806060016040528060248152602001620040646024913981600101908162000ee59190620016df565b506040518060400160405280600581526020017f737461666600000000000000000000000000000000000000000000000000000081525081600201908162000f2e9190620016df565b5063681f5fc881600301819055506001816004015f6101000a81548160ff0219169083151502179055505f816005018190555060038160060181905550600381600801819055505f60025f60015481526020019081526020015f205f600181526020019081526020015f209050735b38da6a701c568545dcfcb03fcb875f56beddc4815f015f6101000a81548173ffffffffffffffffffffffffffffffffffffffff021916908373ffffffffffffffffffffffffffffffffffffffff16021790555060405180608001604052806044815260200162003f9d604491398160010190816200101c9190620016df565b506040518060400160405280600781526020017f73747564656e7400000000000000000000000000000000000000000000000000815250816002019081620010659190620016df565b5063681f641481600301819055505f60025f60015481526020019081526020015f205f600281526020019081526020015f20905073617f2e2fd72fd9d5503197092ac168c91465e7f2815f015f6101000a81548173ffffffffffffffffffffffffffffffffffffffff021916908373ffffffffffffffffffffffffffffffffffffffff16021790555060405180606001604052806037815260200162004134603791398160010190816200111a9190620016df565b506040518060400160405280600781526020017f73747564656e7400000000000000000000000000000000000000000000000000815250816002019081620011639190620016df565b5063681f686081600301819055505f60025f60015481526020019081526020015f205f600381526020019081526020015f20905073a983d7e14ac1aaf050bb64fdab1024ae9c93c956815f015f6101000a81548173ffffffffffffffffffffffffffffffffffffffff021916908373ffffffffffffffffffffffffffffffffffffffff16021790555060405180608001604052806041815260200162003fe160419139816001019081620012189190620016df565b506040518060400160405280600781526020017f73747564656e7400000000000000000000000000000000000000000000000000815250816002019081620012619190620016df565b5063681f6cac8160030181905550835f015f9054906101000a900473ffffffffffffffffffffffffffffffffffffffff1673ffffffffffffffffffffffffffffffffffffffff166001547f5475621b07408f75d49c828caa5aeacb3a5e98d3497e75730dc184677504401c8660020187600101604051620012e492919062001860565b60405180910390a3825f015f9054906101000a900473ffffffffffffffffffffffffffffffffffffffff1673ffffffffffffffffffffffffffffffffffffffff16600180547f03a56e2377acf256c15a50f0b97834fa29a151d0b8a6d05c450576e40634fadc86600101876002016040516200136292919062001860565b60405180910390a4815f015f9054906101000a900473ffffffffffffffffffffffffffffffffffffffff1673ffffffffffffffffffffffffffffffffffffffff1660026001547f03a56e2377acf256c15a50f0b97834fa29a151d0b8a6d05c450576e40634fadc8560010186600201604051620013e192919062001860565b60405180910390a4805f015f9054906101000a900473ffffffffffffffffffffffffffffffffffffffff1673ffffffffffffffffffffffffffffffffffffffff1660036001547f03a56e2377acf256c15a50f0b97834fa29a151d0b8a6d05c450576e40634fadc84600101856002016040516200146092919062001860565b60405180910390a45050505050505050505050505062001912565b5f81519050919050565b7f4e487b71000000000000000000000000000000000000000000000000000000005f52604160045260245ffd5b7f4e487b71000000000000000000000000000000000000000000000000000000005f52602260045260245ffd5b5f6002820490506001821680620014f757607f821691505b6020821081036200150d576200150c620014b2565b5b50919050565b5f819050815f5260205f209050919050565b5f6020601f8301049050919050565b5f82821b905092915050565b5f60088302620015717fffffffffffffffffffffffffffffffffffffffffffffffffffffffffffffffff8262001534565b6200157d868362001534565b95508019841693508086168417925050509392505050565b5f819050919050565b5f819050919050565b5f620015c7620015c1620015bb8462001595565b6200159e565b62001595565b9050919050565b5f819050919050565b620015e283620015a7565b620015fa620015f182620015ce565b84845462001540565b825550505050565b5f90565b6200161062001602565b6200161d818484620015d7565b505050565b5b818110156200164457620016385f8262001606565b60018101905062001623565b5050565b601f82111562001693576200165d8162001513565b620016688462001525565b8101602085101562001678578190505b62001690620016878562001525565b83018262001622565b50505b505050565b5f82821c905092915050565b5f620016b55f198460080262001698565b1980831691505092915050565b5f620016cf8383620016a4565b9150826002028217905092915050565b620016ea826200147b565b67ffffffffffffffff81111562001706576200170562001485565b5b620017128254620014df565b6200171f82828562001648565b5f60209050601f83116001811462001755575f841562001740578287015190505b6200174c8582620016c2565b865550620017bb565b601f198416620017658662001513565b5f5b828110156200178e5784890151825560018201915060208501945060208101905062001767565b86831015620017ae5784890151620017aa601f891682620016a4565b8355505b6001600288020188555050505b505050505050565b5f82825260208201905092915050565b5f8154620017e181620014df565b620017ed8186620017c3565b9450600182165f81146200180a5760018114620018215762001857565b60ff19831686528115156020028601935062001857565b6200182c8562001513565b5f5b838110156200184f578154818901526001820191506020810190506200182e565b808801955050505b50505092915050565b5f6040820190508181035f8301526200187a8185620017d3565b90508181036020830152620018908184620017d3565b90509392505050565b7f4e487b71000000000000000000000000000000000000000000000000000000005f52601160045260245ffd5b5f620018d28262001595565b91507fffffffffffffffffffffffffffffffffffffffffffffffffffffffffffffffff820362001907576200190662001899565b5b600182019050919050565b61267d80620019205f395ff3fe608060405234801561000f575f80fd5b50600436106100a7575f3560e01c8063392338f51161006f578063392338f51461018057806340731c241461019c57806343859632146101d35780634889275314610203578063d04f8bad14610236578063fc6c776f14610252576100a7565b80630b1e7f83146100ab5780630d4bfb4f146100e25780631521e6161461011257806317906c2e1461012e57806325cfb1c51461014c575b5f80fd5b6100c560048036038101906100c091906116da565b610285565b6040516100d99897969594939291906117f7565b60405180910390f35b6100fc60048036038101906100f791906116da565b6103ff565b6040516101099190611881565b60405180910390f35b61012c600480360381019061012791906119c6565b61046b565b005b61013661061c565b6040516101439190611881565b60405180910390f35b61016660048036038101906101619190611a4e565b610622565b604051610177959493929190611d0f565b60405180910390f35b61019a60048036038101906101959190611d7c565b610bcf565b005b6101b660048036038101906101b191906116da565b610cf7565b6040516101ca9897969594939291906117f7565b60405180910390f35b6101ed60048036038101906101e89190611e1c565b610ee3565b6040516101fa9190611e5a565b60405180910390f35b61021d60048036038101906102189190611e73565b610f97565b60405161022d9493929190611eb1565b60405180910390f35b610250600480360381019061024b9190611f2c565b6111c6565b005b61026c60048036038101906102679190611e73565b611534565b60405161027c9493929190611eb1565b60405180910390f35b5f602052805f5260405f205f91509050805f015f9054906101000a900473ffffffffffffffffffffffffffffffffffffffff16908060010180546102c890611f97565b80601f01602080910402602001604051908101604052809291908181526020018280546102f490611f97565b801561033f5780601f106103165761010080835404028352916020019161033f565b820191905f5260205f20905b81548152906001019060200180831161032257829003601f168201915b50505050509080600201805461035490611f97565b80601f016020809104026020016040519081016040528092919081815260200182805461038090611f97565b80156103cb5780601f106103a2576101008083540402835291602001916103cb565b820191905f5260205f20905b8154815290600101906020018083116103ae57829003601f168201915b505050505090806003015490806004015f9054906101000a900460ff16908060050154908060060154908060080154905088565b5f808211801561041157506001548211155b610450576040517f08c379a000000000000000000000000000000000000000000000000000000000815260040161044790612011565b60405180910390fd5b5f808381526020019081526020015f20600801549050919050565b5f8311801561047c57506001548311155b6104bb576040517f08c379a00000000000000000000000000000000000000000000000000000000081526004016104b290612011565b60405180910390fd5b5f8251116104fe576040517f08c379a00000000000000000000000000000000000000000000000000000000081526004016104f590612079565b60405180910390fd5b5f805f8581526020019081526020015f209050806008015f815480929190610525906120c4565b91905055505f60025f8681526020019081526020015f205f836008015481526020019081526020015f20905033815f015f6101000a81548173ffffffffffffffffffffffffffffffffffffffff021916908373ffffffffffffffffffffffffffffffffffffffff160217905550838160010190816105a391906122a8565b50828160020190816105b591906122a8565b504281600301819055503373ffffffffffffffffffffffffffffffffffffffff168260080154867f03a56e2377acf256c15a50f0b97834fa29a151d0b8a6d05c450576e40634fadc878760405161060d929190612377565b60405180910390a45050505050565b60015481565b6060806060805f808811801561063a57506001548811155b610679576040517f08c379a000000000000000000000000000000000000000000000000000000000815260040161067090612011565b60405180910390fd5b5f87116106bb576040517f08c379a00000000000000000000000000000000000000000000000000000000081526004016106b2906123f6565b60405180910390fd5b5f805f8a81526020019081526020015f2060080154905080915080881115610819575f67ffffffffffffffff8111156106f7576106f66118a2565b5b6040519080825280602002602001820160405280156107255781602001602082028036833780820191505090505b505f67ffffffffffffffff8111156107405761073f6118a2565b5b60405190808252806020026020018201604052801561077357816020015b606081526020019060019003908161075e5790505b505f67ffffffffffffffff81111561078e5761078d6118a2565b5b6040519080825280602002602001820160405280156107c157816020015b60608152602001906001900390816107ac5790505b505f67ffffffffffffffff8111156107dc576107db6118a2565b5b60405190808252806020026020018201604052801561080a5781602001602082028036833780820191505090505b50955095509550955050610bc4565b5f879050601481111561082b57601490505b5f60018a8461083a9190612414565b6108449190612447565b905080821115610852578091505b8167ffffffffffffffff81111561086c5761086b6118a2565b5b60405190808252806020026020018201604052801561089a5781602001602082028036833780820191505090505b5097508167ffffffffffffffff8111156108b7576108b66118a2565b5b6040519080825280602002602001820160405280156108ea57816020015b60608152602001906001900390816108d55790505b5096508167ffffffffffffffff811115610907576109066118a2565b5b60405190808252806020026020018201604052801561093a57816020015b60608152602001906001900390816109255790505b5095508167ffffffffffffffff811115610957576109566118a2565b5b6040519080825280602002602001820160405280156109855781602001602082028036833780820191505090505b5094505f5b82811015610bbf575f818c61099f9190612447565b90505f60025f8f81526020019081526020015f205f8381526020019081526020015f209050805f015f9054906101000a900473ffffffffffffffffffffffffffffffffffffffff168b84815181106109fa576109f961247a565b5b602002602001019073ffffffffffffffffffffffffffffffffffffffff16908173ffffffffffffffffffffffffffffffffffffffff1681525050806001018054610a4390611f97565b80601f0160208091040260200160405190810160405280929190818152602001828054610a6f90611f97565b8015610aba5780601f10610a9157610100808354040283529160200191610aba565b820191905f5260205f20905b815481529060010190602001808311610a9d57829003601f168201915b50505050508a8481518110610ad257610ad161247a565b5b6020026020010181905250806002018054610aec90611f97565b80601f0160208091040260200160405190810160405280929190818152602001828054610b1890611f97565b8015610b635780601f10610b3a57610100808354040283529160200191610b63565b820191905f5260205f20905b815481529060010190602001808311610b4657829003601f168201915b5050505050898481518110610b7b57610b7a61247a565b5b60200260200101819052508060030154888481518110610b9e57610b9d61247a565b5b60200260200101818152505050508080610bb7906120c4565b91505061098a565b505050505b939792965093509350565b60015f815480929190610be1906120c4565b91905055505f805f60015481526020019081526020015f20905033815f015f6101000a81548173ffffffffffffffffffffffffffffffffffffffff021916908373ffffffffffffffffffffffffffffffffffffffff16021790555082816001019081610c4d91906122a8565b5081816002019081610c5f91906122a8565b504281600301819055505f816004015f6101000a81548160ff0219169083151502179055505f81600501819055505f81600601819055505f81600801819055503373ffffffffffffffffffffffffffffffffffffffff166001547f5475621b07408f75d49c828caa5aeacb3a5e98d3497e75730dc184677504401c8486604051610cea929190612377565b60405180910390a3505050565b5f6060805f805f805f8089118015610d1157506001548911155b610d50576040517f08c379a0000000000000000000000000000000000000000000000000000000008152600401610d4790612011565b60405180910390fd5b5f805f8b81526020019081526020015f209050805f015f9054906101000a900473ffffffffffffffffffffffffffffffffffffffff1681600101826002018360030154846004015f9054906101000a900460ff16856005015486600601548760080154868054610dbf90611f97565b80601f0160208091040260200160405190810160405280929190818152602001828054610deb90611f97565b8015610e365780601f10610e0d57610100808354040283529160200191610e36565b820191905f5260205f20905b815481529060010190602001808311610e1957829003601f168201915b50505050509650858054610e4990611f97565b80601f0160208091040260200160405190810160405280929190818152602001828054610e7590611f97565b8015610ec05780601f10610e9757610100808354040283529160200191610ec0565b820191905f5260205f20905b815481529060010190602001808311610ea357829003601f168201915b505050505095509850985098509850985098509850985050919395975091939597565b5f8083118015610ef557506001548311155b610f34576040517f08c379a0000000000000000000000000000000000000000000000000000000008152600401610f2b90612011565b60405180910390fd5b5f808481526020019081526020015f206007015f8373ffffffffffffffffffffffffffffffffffffffff1673ffffffffffffffffffffffffffffffffffffffff1681526020019081526020015f205f9054906101000a900460ff16905092915050565b5f6060805f8086118015610fad57506001548611155b610fec576040517f08c379a0000000000000000000000000000000000000000000000000000000008152600401610fe390612011565b60405180910390fd5b5f8511801561100e57505f808781526020019081526020015f20600801548511155b61104d576040517f08c379a0000000000000000000000000000000000000000000000000000000008152600401611044906124f1565b60405180910390fd5b5f60025f8881526020019081526020015f205f8781526020019081526020015f209050805f015f9054906101000a900473ffffffffffffffffffffffffffffffffffffffff16816001018260020183600301548280546110ac90611f97565b80601f01602080910402602001604051908101604052809291908181526020018280546110d890611f97565b80156111235780601f106110fa57610100808354040283529160200191611123565b820191905f5260205f20905b81548152906001019060200180831161110657829003601f168201915b5050505050925081805461113690611f97565b80601f016020809104026020016040519081016040528092919081815260200182805461116290611f97565b80156111ad5780601f10611184576101008083540402835291602001916111ad565b820191905f5260205f20905b81548152906001019060200180831161119057829003601f168201915b5050505050915094509450945094505092959194509250565b5f821180156111d757506001548211155b611216576040517f08c379a000000000000000000000000000000000000000000000000000000000815260040161120d90612011565b60405180910390fd5b5f805f8481526020019081526020015f209050806004015f9054906101000a900460ff1661132f573373ffffffffffffffffffffffffffffffffffffffff16815f015f9054906101000a900473ffffffffffffffffffffffffffffffffffffffff1673ffffffffffffffffffffffffffffffffffffffff16036112ce576040517f08c379a00000000000000000000000000000000000000000000000000000000081526004016112c590612559565b60405180910390fd5b6001816004015f6101000a81548160ff0219169083151502179055503373ffffffffffffffffffffffffffffffffffffffff16837fedc96ef82a3fd8ea664dd4fe50f94c77be3c3d6130792c3ed8b0199e3c28ec6260405160405180910390a35b806007015f3373ffffffffffffffffffffffffffffffffffffffff1673ffffffffffffffffffffffffffffffffffffffff1681526020019081526020015f205f9054906101000a900460ff16156113bb576040517f08c379a00000000000000000000000000000000000000000000000000000000081526004016113b2906125c1565b60405180910390fd5b3373ffffffffffffffffffffffffffffffffffffffff16815f015f9054906101000a900473ffffffffffffffffffffffffffffffffffffffff1673ffffffffffffffffffffffffffffffffffffffff160361144b576040517f08c379a000000000000000000000000000000000000000000000000000000000815260040161144290612629565b60405180910390fd5b6001816007015f3373ffffffffffffffffffffffffffffffffffffffff1673ffffffffffffffffffffffffffffffffffffffff1681526020019081526020015f205f6101000a81548160ff02191690831515021790555081156114c657806005015f8154809291906114bc906120c4565b91905055506114e0565b806006015f8154809291906114da906120c4565b91905055505b3373ffffffffffffffffffffffffffffffffffffffff16837fe71fcdac32df1877c1700e7bda2a03157e20993363a28fc35ac495cefc76e4d4846040516115279190611e5a565b60405180910390a3505050565b6002602052815f5260405f20602052805f5260405f205f9150915050805f015f9054906101000a900473ffffffffffffffffffffffffffffffffffffffff169080600101805461158390611f97565b80601f01602080910402602001604051908101604052809291908181526020018280546115af90611f97565b80156115fa5780601f106115d1576101008083540402835291602001916115fa565b820191905f5260205f20905b8154815290600101906020018083116115dd57829003601f168201915b50505050509080600201805461160f90611f97565b80601f016020809104026020016040519081016040528092919081815260200182805461163b90611f97565b80156116865780601f1061165d57610100808354040283529160200191611686565b820191905f5260205f20905b81548152906001019060200180831161166957829003601f168201915b5050505050908060030154905084565b5f604051905090565b5f80fd5b5f80fd5b5f819050919050565b6116b9816116a7565b81146116c3575f80fd5b50565b5f813590506116d4816116b0565b92915050565b5f602082840312156116ef576116ee61169f565b5b5f6116fc848285016116c6565b91505092915050565b5f73ffffffffffffffffffffffffffffffffffffffff82169050919050565b5f61172e82611705565b9050919050565b61173e81611724565b82525050565b5f81519050919050565b5f82825260208201905092915050565b5f5b8381101561177b578082015181840152602081019050611760565b5f8484015250505050565b5f601f19601f8301169050919050565b5f6117a082611744565b6117aa818561174e565b93506117ba81856020860161175e565b6117c381611786565b840191505092915050565b6117d7816116a7565b82525050565b5f8115159050919050565b6117f1816117dd565b82525050565b5f6101008201905061180b5f83018b611735565b818103602083015261181d818a611796565b905081810360408301526118318189611796565b905061184060608301886117ce565b61184d60808301876117e8565b61185a60a08301866117ce565b61186760c08301856117ce565b61187460e08301846117ce565b9998505050505050505050565b5f6020820190506118945f8301846117ce565b92915050565b5f80fd5b5f80fd5b7f4e487b71000000000000000000000000000000000000000000000000000000005f52604160045260245ffd5b6118d882611786565b810181811067ffffffffffffffff821117156118f7576118f66118a2565b5b80604052505050565b5f611909611696565b905061191582826118cf565b919050565b5f67ffffffffffffffff821115611934576119336118a2565b5b61193d82611786565b9050602081019050919050565b828183375f83830152505050565b5f61196a6119658461191a565b611900565b9050828152602081018484840111156119865761198561189e565b5b61199184828561194a565b509392505050565b5f82601f8301126119ad576119ac61189a565b5b81356119bd848260208601611958565b91505092915050565b5f805f606084860312156119dd576119dc61169f565b5b5f6119ea868287016116c6565b935050602084013567ffffffffffffffff811115611a0b57611a0a6116a3565b5b611a1786828701611999565b925050604084013567ffffffffffffffff811115611a3857611a376116a3565b5b611a4486828701611999565b9150509250925092565b5f805f60608486031215611a6557611a6461169f565b5b5f611a72868287016116c6565b9350506020611a83868287016116c6565b9250506040611a94868287016116c6565b9150509250925092565b5f81519050919050565b5f82825260208201905092915050565b5f819050602082019050919050565b611ad081611724565b82525050565b5f611ae18383611ac7565b60208301905092915050565b5f602082019050919050565b5f611b0382611a9e565b611b0d8185611aa8565b9350611b1883611ab8565b805f5b83811015611b48578151611b2f8882611ad6565b9750611b3a83611aed565b925050600181019050611b1b565b5085935050505092915050565b5f81519050919050565b5f82825260208201905092915050565b5f819050602082019050919050565b5f82825260208201905092915050565b5f611b9882611744565b611ba28185611b7e565b9350611bb281856020860161175e565b611bbb81611786565b840191505092915050565b5f611bd18383611b8e565b905092915050565b5f602082019050919050565b5f611bef82611b55565b611bf98185611b5f565b935083602082028501611c0b85611b6f565b805f5b85811015611c465784840389528151611c278582611bc6565b9450611c3283611bd9565b925060208a01995050600181019050611c0e565b50829750879550505050505092915050565b5f81519050919050565b5f82825260208201905092915050565b5f819050602082019050919050565b611c8a816116a7565b82525050565b5f611c9b8383611c81565b60208301905092915050565b5f602082019050919050565b5f611cbd82611c58565b611cc78185611c62565b9350611cd283611c72565b805f5b83811015611d02578151611ce98882611c90565b9750611cf483611ca7565b925050600181019050611cd5565b5085935050505092915050565b5f60a0820190508181035f830152611d278188611af9565b90508181036020830152611d3b8187611be5565b90508181036040830152611d4f8186611be5565b90508181036060830152611d638185611cb3565b9050611d7260808301846117ce565b9695505050505050565b5f8060408385031215611d9257611d9161169f565b5b5f83013567ffffffffffffffff811115611daf57611dae6116a3565b5b611dbb85828601611999565b925050602083013567ffffffffffffffff811115611ddc57611ddb6116a3565b5b611de885828601611999565b9150509250929050565b611dfb81611724565b8114611e05575f80fd5b50565b5f81359050611e1681611df2565b92915050565b5f8060408385031215611e3257611e3161169f565b5b5f611e3f858286016116c6565b9250506020611e5085828601611e08565b9150509250929050565b5f602082019050611e6d5f8301846117e8565b92915050565b5f8060408385031215611e8957611e8861169f565b5b5f611e96858286016116c6565b9250506020611ea7858286016116c6565b9150509250929050565b5f608082019050611ec45f830187611735565b8181036020830152611ed68186611796565b90508181036040830152611eea8185611796565b9050611ef960608301846117ce565b95945050505050565b611f0b816117dd565b8114611f15575f80fd5b50565b5f81359050611f2681611f02565b92915050565b5f8060408385031215611f4257611f4161169f565b5b5f611f4f858286016116c6565b9250506020611f6085828601611f18565b9150509250929050565b7f4e487b71000000000000000000000000000000000000000000000000000000005f52602260045260245ffd5b5f6002820490506001821680611fae57607f821691505b602082108103611fc157611fc0611f6a565b5b50919050565b7f496e76616c696420706f737420494400000000000000000000000000000000005f82015250565b5f611ffb600f8361174e565b915061200682611fc7565b602082019050919050565b5f6020820190508181035f83015261202881611fef565b9050919050565b7f436f6d6d656e742063616e6e6f7420626520656d7074790000000000000000005f82015250565b5f61206360178361174e565b915061206e8261202f565b602082019050919050565b5f6020820190508181035f83015261209081612057565b9050919050565b7f4e487b71000000000000000000000000000000000000000000000000000000005f52601160045260245ffd5b5f6120ce826116a7565b91507fffffffffffffffffffffffffffffffffffffffffffffffffffffffffffffffff8203612100576120ff612097565b5b600182019050919050565b5f819050815f5260205f209050919050565b5f6020601f8301049050919050565b5f82821b905092915050565b5f600883026121677fffffffffffffffffffffffffffffffffffffffffffffffffffffffffffffffff8261212c565b612171868361212c565b95508019841693508086168417925050509392505050565b5f819050919050565b5f6121ac6121a76121a2846116a7565b612189565b6116a7565b9050919050565b5f819050919050565b6121c583612192565b6121d96121d1826121b3565b848454612138565b825550505050565b5f90565b6121ed6121e1565b6121f88184846121bc565b505050565b5b8181101561221b576122105f826121e5565b6001810190506121fe565b5050565b601f821115612260576122318161210b565b61223a8461211d565b81016020851015612249578190505b61225d6122558561211d565b8301826121fd565b50505b505050565b5f82821c905092915050565b5f6122805f1984600802612265565b1980831691505092915050565b5f6122988383612271565b9150826002028217905092915050565b6122b182611744565b67ffffffffffffffff8111156122ca576122c96118a2565b5b6122d48254611f97565b6122df82828561221f565b5f60209050601f831160018114612310575f84156122fe578287015190505b612308858261228d565b86555061236f565b601f19841661231e8661210b565b5f5b8281101561234557848901518255600182019150602085019450602081019050612320565b86831015612362578489015161235e601f891682612271565b8355505b6001600288020188555050505b505050505050565b5f6040820190508181035f83015261238f8185611796565b905081810360208301526123a38184611796565b90509392505050565b7f5374617274204944206d7573742062652067726561746572207468616e2030005f82015250565b5f6123e0601f8361174e565b91506123eb826123ac565b602082019050919050565b5f6020820190508181035f83015261240d816123d4565b9050919050565b5f61241e826116a7565b9150612429836116a7565b925082820390508181111561244157612440612097565b5b92915050565b5f612451826116a7565b915061245c836116a7565b925082820190508082111561247457612473612097565b5b92915050565b7f4e487b71000000000000000000000000000000000000000000000000000000005f52603260045260245ffd5b7f496e76616c696420636f6d6d656e7420494400000000000000000000000000005f82015250565b5f6124db60128361174e565b91506124e6826124a7565b602082019050919050565b5f6020820190508181035f830152612508816124cf565b9050919050565b7f43616e6e6f74206368616c6c656e676520796f7572206f776e20706f737400005f82015250565b5f612543601e8361174e565b915061254e8261250f565b602082019050919050565b5f6020820190508181035f83015261257081612537565b9050919050565b7f416c726561647920766f746564000000000000000000000000000000000000005f82015250565b5f6125ab600d8361174e565b91506125b682612577565b602082019050919050565b5f6020820190508181035f8301526125d88161259f565b9050919050565b7f43616e6e6f7420766f7465206f6e20796f7572206f776e20706f7374000000005f82015250565b5f612613601c8361174e565b915061261e826125df565b602082019050919050565b5f6020820190508181035f83015261264081612607565b905091905056fea2646970667358221220549a3ba17e69444bcd4b1e854990fcab366d0a070ae9eb31c128da80921b502964736f6c634300081400335468697320706572736f6e206973206e6f742073746166662e2049277665207365656e207468656d2061726f756e642063616d70757320617320612073747564656e742e49206b6e6f77207468697320706572736f6e2066726f6d206d7920636c6173732e20546865792772652070726574656e64696e6720746f2062652073746166662154686520657363616c61746f72206f757473696465204359542069732062726f6b656e20616761696e2120506c656173652066697820697420757267656e746c79215768656e2077696c6c204c4731206f70656e206e6577206d65616c206f7074696f6e733f5468697320697320646566696e6974656c792066616b65206e6577732e20446f6e27742062656c696576652069742e5468616e6b20796f7520746f2074686520737461666620666f722074686520717569636b20726573706f6e736521205468697320686173206265656e20616e206f6e676f696e672069737375652e4e6f207761792120492063616e2066696e616c6c7920626520667265652066726f6d207468652070726f6a65637421492061677265652c20646566696e6974656c79206e6f742073746166662e20566f74696e672066616b65206f6e2074686973206f6e652e486f772063616e20796f752070726574656e6420746f20626520612070726f666573736f7220616e64207468656e20636f6d6d656e7420617320612073747564656e743f204f75722070726f6a656374206973207374696c6c206f6e676f696e672e2057652073686f756c64206368616c6c656e676520746869732075736572277320637265646962696c697479215468697320697320612073616d706c6520636f6d6d656e74206f6e20746865207465737420706f73745468616e6b20796f7520666f72207265706f7274696e6720746869732069737375652e205765276c6c2073656e642061206d61696e74656e616e6365207465616d20726967687420617761792e74686520434f4d50343531312070726f6a6563742077696c6c2062652063616e63656c656421",
					"opcodes": "PUSH1 0x80 PUSH1 0x40 MSTORE CALLVALUE DUP1 ISZERO PUSH3 0x10 JUMPI PUSH0 DUP1 REVERT JUMPDEST POP PUSH1 0x1 DUP1 DUP2 SWAP1 SSTORE POP PUSH0 DUP1 PUSH0 PUSH1 0x1 SLOAD DUP2 MSTORE PUSH1 0x20 ADD SWAP1 DUP2 MSTORE PUSH1 0x20 ADD PUSH0 KECCAK256 SWAP1 POP PUSH20 0x4511277F98BA4282705DA1C250110E24AA2F88A2 DUP2 PUSH0 ADD PUSH0 PUSH2 0x100 EXP DUP2 SLOAD DUP2 PUSH20 0xFFFFFFFFFFFFFFFFFFFFFFFFFFFFFFFFFFFFFFFF MUL NOT AND SWAP1 DUP4 PUSH20 0xFFFFFFFFFFFFFFFFFFFFFFFFFFFFFFFFFFFFFFFF AND MUL OR SWAP1 SSTORE POP PUSH1 0x40 MLOAD DUP1 PUSH1 0x40 ADD PUSH1 0x40 MSTORE DUP1 PUSH1 0x4 DUP2 MSTORE PUSH1 0x20 ADD PUSH32 0x7465737400000000000000000000000000000000000000000000000000000000 DUP2 MSTORE POP DUP2 PUSH1 0x1 ADD SWAP1 DUP2 PUSH3 0xCA SWAP2 SWAP1 PUSH3 0x16DF JUMP JUMPDEST POP PUSH1 0x40 MLOAD DUP1 PUSH1 0x40 ADD PUSH1 0x40 MSTORE DUP1 PUSH1 0x7 DUP2 MSTORE PUSH1 0x20 ADD PUSH32 0x73747564656E7400000000000000000000000000000000000000000000000000 DUP2 MSTORE POP DUP2 PUSH1 0x2 ADD SWAP1 DUP2 PUSH3 0x113 SWAP2 SWAP1 PUSH3 0x16DF JUMP JUMPDEST POP PUSH4 0x681F3108 DUP2 PUSH1 0x3 ADD DUP2 SWAP1 SSTORE POP PUSH0 DUP2 PUSH1 0x4 ADD PUSH0 PUSH2 0x100 EXP DUP2 SLOAD DUP2 PUSH1 0xFF MUL NOT AND SWAP1 DUP4 ISZERO ISZERO MUL OR SWAP1 SSTORE POP PUSH0 DUP2 PUSH1 0x5 ADD DUP2 SWAP1 SSTORE POP PUSH0 DUP2 PUSH1 0x6 ADD DUP2 SWAP1 SSTORE POP PUSH1 0x1 DUP2 PUSH1 0x8 ADD DUP2 SWAP1 SSTORE POP PUSH0 PUSH1 0x2 PUSH0 PUSH1 0x1 SLOAD DUP2 MSTORE PUSH1 0x20 ADD SWAP1 DUP2 MSTORE PUSH1 0x20 ADD PUSH0 KECCAK256 PUSH0 PUSH1 0x1 DUP2 MSTORE PUSH1 0x20 ADD SWAP1 DUP2 MSTORE PUSH1 0x20 ADD PUSH0 KECCAK256 SWAP1 POP PUSH20 0x4511277F98BA4282705DA1C250110E24AA2F88A2 DUP2 PUSH0 ADD PUSH0 PUSH2 0x100 EXP DUP2 SLOAD DUP2 PUSH20 0xFFFFFFFFFFFFFFFFFFFFFFFFFFFFFFFFFFFFFFFF MUL NOT AND SWAP1 DUP4 PUSH20 0xFFFFFFFFFFFFFFFFFFFFFFFFFFFFFFFFFFFFFFFF AND MUL OR SWAP1 SSTORE POP PUSH1 0x40 MLOAD DUP1 PUSH1 0x60 ADD PUSH1 0x40 MSTORE DUP1 PUSH1 0x29 DUP2 MSTORE PUSH1 0x20 ADD PUSH3 0x41FA PUSH1 0x29 SWAP2 CODECOPY DUP2 PUSH1 0x1 ADD SWAP1 DUP2 PUSH3 0x1FF SWAP2 SWAP1 PUSH3 0x16DF JUMP JUMPDEST POP PUSH1 0x40 MLOAD DUP1 PUSH1 0x40 ADD PUSH1 0x40 MSTORE DUP1 PUSH1 0x7 DUP2 MSTORE PUSH1 0x20 ADD PUSH32 0x73747564656E7400000000000000000000000000000000000000000000000000 DUP2 MSTORE POP DUP2 PUSH1 0x2 ADD SWAP1 DUP2 PUSH3 0x248 SWAP2 SWAP1 PUSH3 0x16DF JUMP JUMPDEST POP PUSH4 0x681F314C DUP2 PUSH1 0x3 ADD DUP2 SWAP1 SSTORE POP DUP2 PUSH0 ADD PUSH0 SWAP1 SLOAD SWAP1 PUSH2 0x100 EXP SWAP1 DIV PUSH20 0xFFFFFFFFFFFFFFFFFFFFFFFFFFFFFFFFFFFFFFFF AND PUSH20 0xFFFFFFFFFFFFFFFFFFFFFFFFFFFFFFFFFFFFFFFF AND PUSH1 0x1 SLOAD PUSH32 0x5475621B07408F75D49C828CAA5AEACB3A5E98D3497E75730DC184677504401C DUP5 PUSH1 0x2 ADD DUP6 PUSH1 0x1 ADD PUSH1 0x40 MLOAD PUSH3 0x2CB SWAP3 SWAP2 SWAP1 PUSH3 0x1860 JUMP JUMPDEST PUSH1 0x40 MLOAD DUP1 SWAP2 SUB SWAP1 LOG3 DUP1 PUSH0 ADD PUSH0 SWAP1 SLOAD SWAP1 PUSH2 0x100 EXP SWAP1 DIV PUSH20 0xFFFFFFFFFFFFFFFFFFFFFFFFFFFFFFFFFFFFFFFF AND PUSH20 0xFFFFFFFFFFFFFFFFFFFFFFFFFFFFFFFFFFFFFFFF AND PUSH1 0x1 DUP1 SLOAD PUSH32 0x3A56E2377ACF256C15A50F0B97834FA29A151D0B8A6D05C450576E40634FADC DUP5 PUSH1 0x1 ADD DUP6 PUSH1 0x2 ADD PUSH1 0x40 MLOAD PUSH3 0x349 SWAP3 SWAP2 SWAP1 PUSH3 0x1860 JUMP JUMPDEST PUSH1 0x40 MLOAD DUP1 SWAP2 SUB SWAP1 LOG4 PUSH1 0x1 PUSH0 DUP2 SLOAD DUP1 SWAP3 SWAP2 SWAP1 PUSH3 0x365 SWAP1 PUSH3 0x18C6 JUMP JUMPDEST SWAP2 SWAP1 POP SSTORE POP PUSH0 DUP1 PUSH0 PUSH1 0x1 SLOAD DUP2 MSTORE PUSH1 0x20 ADD SWAP1 DUP2 MSTORE PUSH1 0x20 ADD PUSH0 KECCAK256 SWAP1 POP PUSH20 0x4511277F98BA4282705DA1C250110E24AA2F88A2 DUP2 PUSH0 ADD PUSH0 PUSH2 0x100 EXP DUP2 SLOAD DUP2 PUSH20 0xFFFFFFFFFFFFFFFFFFFFFFFFFFFFFFFFFFFFFFFF MUL NOT AND SWAP1 DUP4 PUSH20 0xFFFFFFFFFFFFFFFFFFFFFFFFFFFFFFFFFFFFFFFF AND MUL OR SWAP1 SSTORE POP PUSH1 0x40 MLOAD DUP1 PUSH1 0x60 ADD PUSH1 0x40 MSTORE DUP1 PUSH1 0x26 DUP2 MSTORE PUSH1 0x20 ADD PUSH3 0x4270 PUSH1 0x26 SWAP2 CODECOPY DUP2 PUSH1 0x1 ADD SWAP1 DUP2 PUSH3 0x400 SWAP2 SWAP1 PUSH3 0x16DF JUMP JUMPDEST POP PUSH1 0x40 MLOAD DUP1 PUSH1 0x40 ADD PUSH1 0x40 MSTORE DUP1 PUSH1 0x9 DUP2 MSTORE PUSH1 0x20 ADD PUSH32 0x70726F666573736F720000000000000000000000000000000000000000000000 DUP2 MSTORE POP DUP2 PUSH1 0x2 ADD SWAP1 DUP2 PUSH3 0x449 SWAP2 SWAP1 PUSH3 0x16DF JUMP JUMPDEST POP PUSH4 0x681F31B0 DUP2 PUSH1 0x3 ADD DUP2 SWAP1 SSTORE POP PUSH1 0x1 DUP2 PUSH1 0x4 ADD PUSH0 PUSH2 0x100 EXP DUP2 SLOAD DUP2 PUSH1 0xFF MUL NOT AND SWAP1 DUP4 ISZERO ISZERO MUL OR SWAP1 SSTORE POP PUSH0 DUP2 PUSH1 0x5 ADD DUP2 SWAP1 SSTORE POP PUSH1 0x1 DUP2 PUSH1 0x6 ADD DUP2 SWAP1 SSTORE POP PUSH1 0x3 DUP2 PUSH1 0x8 ADD DUP2 SWAP1 SSTORE POP PUSH0 PUSH1 0x2 PUSH0 PUSH1 0x1 SLOAD DUP2 MSTORE PUSH1 0x20 ADD SWAP1 DUP2 MSTORE PUSH1 0x20 ADD PUSH0 KECCAK256 PUSH0 PUSH1 0x1 DUP2 MSTORE PUSH1 0x20 ADD SWAP1 DUP2 MSTORE PUSH1 0x20 ADD PUSH0 KECCAK256 SWAP1 POP PUSH20 0x4511277F98BA4282705DA1C250110E24AA2F88A2 DUP2 PUSH0 ADD PUSH0 PUSH2 0x100 EXP DUP2 SLOAD DUP2 PUSH20 0xFFFFFFFFFFFFFFFFFFFFFFFFFFFFFFFFFFFFFFFF MUL NOT AND SWAP1 DUP4 PUSH20 0xFFFFFFFFFFFFFFFFFFFFFFFFFFFFFFFFFFFFFFFF AND MUL OR SWAP1 SSTORE POP PUSH1 0x40 MLOAD DUP1 PUSH1 0x60 ADD PUSH1 0x40 MSTORE DUP1 PUSH1 0x2F DUP2 MSTORE PUSH1 0x20 ADD PUSH3 0x4105 PUSH1 0x2F SWAP2 CODECOPY DUP2 PUSH1 0x1 ADD SWAP1 DUP2 PUSH3 0x537 SWAP2 SWAP1 PUSH3 0x16DF JUMP JUMPDEST POP PUSH1 0x40 MLOAD DUP1 PUSH1 0x40 ADD PUSH1 0x40 MSTORE DUP1 PUSH1 0x7 DUP2 MSTORE PUSH1 0x20 ADD PUSH32 0x73747564656E7400000000000000000000000000000000000000000000000000 DUP2 MSTORE POP DUP2 PUSH1 0x2 ADD SWAP1 DUP2 PUSH3 0x580 SWAP2 SWAP1 PUSH3 0x16DF JUMP JUMPDEST POP PUSH4 0x681F3278 DUP2 PUSH1 0x3 ADD DUP2 SWAP1 SSTORE POP PUSH0 PUSH1 0x2 PUSH0 PUSH1 0x1 SLOAD DUP2 MSTORE PUSH1 0x20 ADD SWAP1 DUP2 MSTORE PUSH1 0x20 ADD PUSH0 KECCAK256 PUSH0 PUSH1 0x2 DUP2 MSTORE PUSH1 0x20 ADD SWAP1 DUP2 MSTORE PUSH1 0x20 ADD PUSH0 KECCAK256 SWAP1 POP PUSH20 0x3FC91A3AFD70395CD496C647D5A6CC9D4B2B7FAD DUP2 PUSH0 ADD PUSH0 PUSH2 0x100 EXP DUP2 SLOAD DUP2 PUSH20 0xFFFFFFFFFFFFFFFFFFFFFFFFFFFFFFFFFFFFFFFF MUL NOT AND SWAP1 DUP4 PUSH20 0xFFFFFFFFFFFFFFFFFFFFFFFFFFFFFFFFFFFFFFFF AND MUL OR SWAP1 SSTORE POP PUSH1 0x40 MLOAD DUP1 PUSH1 0x60 ADD PUSH1 0x40 MSTORE DUP1 PUSH1 0x2F DUP2 MSTORE PUSH1 0x20 ADD PUSH3 0x4088 PUSH1 0x2F SWAP2 CODECOPY DUP2 PUSH1 0x1 ADD SWAP1 DUP2 PUSH3 0x635 SWAP2 SWAP1 PUSH3 0x16DF JUMP JUMPDEST POP PUSH1 0x40 MLOAD DUP1 PUSH1 0x40 ADD PUSH1 0x40 MSTORE DUP1 PUSH1 0x7 DUP2 MSTORE PUSH1 0x20 ADD PUSH32 0x73747564656E7400000000000000000000000000000000000000000000000000 DUP2 MSTORE POP DUP2 PUSH1 0x2 ADD SWAP1 DUP2 PUSH3 0x67E SWAP2 SWAP1 PUSH3 0x16DF JUMP JUMPDEST POP PUSH4 0x681F3340 DUP2 PUSH1 0x3 ADD DUP2 SWAP1 SSTORE POP PUSH0 PUSH1 0x2 PUSH0 PUSH1 0x1 SLOAD DUP2 MSTORE PUSH1 0x20 ADD SWAP1 DUP2 MSTORE PUSH1 0x20 ADD PUSH0 KECCAK256 PUSH0 PUSH1 0x3 DUP2 MSTORE PUSH1 0x20 ADD SWAP1 DUP2 MSTORE PUSH1 0x20 ADD PUSH0 KECCAK256 SWAP1 POP PUSH20 0xA983D7E14AC1AAF050BB64FDAB1024AE9C93C956 DUP2 PUSH0 ADD PUSH0 PUSH2 0x100 EXP DUP2 SLOAD DUP2 PUSH20 0xFFFFFFFFFFFFFFFFFFFFFFFFFFFFFFFFFFFFFFFF MUL NOT AND SWAP1 DUP4 PUSH20 0xFFFFFFFFFFFFFFFFFFFFFFFFFFFFFFFFFFFFFFFF AND MUL OR SWAP1 SSTORE POP PUSH1 0x40 MLOAD DUP1 PUSH1 0xC0 ADD PUSH1 0x40 MSTORE DUP1 PUSH1 0x8F DUP2 MSTORE PUSH1 0x20 ADD PUSH3 0x416B PUSH1 0x8F SWAP2 CODECOPY DUP2 PUSH1 0x1 ADD SWAP1 DUP2 PUSH3 0x733 SWAP2 SWAP1 PUSH3 0x16DF JUMP JUMPDEST POP PUSH1 0x40 MLOAD DUP1 PUSH1 0x40 ADD PUSH1 0x40 MSTORE DUP1 PUSH1 0x7 DUP2 MSTORE PUSH1 0x20 ADD PUSH32 0x73747564656E7400000000000000000000000000000000000000000000000000 DUP2 MSTORE POP DUP2 PUSH1 0x2 ADD SWAP1 DUP2 PUSH3 0x77C SWAP2 SWAP1 PUSH3 0x16DF JUMP JUMPDEST POP PUSH4 0x681F4FBC DUP2 PUSH1 0x3 ADD DUP2 SWAP1 SSTORE POP DUP4 PUSH0 ADD PUSH0 SWAP1 SLOAD SWAP1 PUSH2 0x100 EXP SWAP1 DIV PUSH20 0xFFFFFFFFFFFFFFFFFFFFFFFFFFFFFFFFFFFFFFFF AND PUSH20 0xFFFFFFFFFFFFFFFFFFFFFFFFFFFFFFFFFFFFFFFF AND PUSH1 0x1 SLOAD PUSH32 0x5475621B07408F75D49C828CAA5AEACB3A5E98D3497E75730DC184677504401C DUP7 PUSH1 0x2 ADD DUP8 PUSH1 0x1 ADD PUSH1 0x40 MLOAD PUSH3 0x7FF SWAP3 SWAP2 SWAP1 PUSH3 0x1860 JUMP JUMPDEST PUSH1 0x40 MLOAD DUP1 SWAP2 SUB SWAP1 LOG3 DUP3 PUSH0 ADD PUSH0 SWAP1 SLOAD SWAP1 PUSH2 0x100 EXP SWAP1 DIV PUSH20 0xFFFFFFFFFFFFFFFFFFFFFFFFFFFFFFFFFFFFFFFF AND PUSH20 0xFFFFFFFFFFFFFFFFFFFFFFFFFFFFFFFFFFFFFFFF AND PUSH1 0x1 DUP1 SLOAD PUSH32 0x3A56E2377ACF256C15A50F0B97834FA29A151D0B8A6D05C450576E40634FADC DUP7 PUSH1 0x1 ADD DUP8 PUSH1 0x2 ADD PUSH1 0x40 MLOAD PUSH3 0x87D SWAP3 SWAP2 SWAP1 PUSH3 0x1860 JUMP JUMPDEST PUSH1 0x40 MLOAD DUP1 SWAP2 SUB SWAP1 LOG4 DUP2 PUSH0 ADD PUSH0 SWAP1 SLOAD SWAP1 PUSH2 0x100 EXP SWAP1 DIV PUSH20 0xFFFFFFFFFFFFFFFFFFFFFFFFFFFFFFFFFFFFFFFF AND PUSH20 0xFFFFFFFFFFFFFFFFFFFFFFFFFFFFFFFFFFFFFFFF AND PUSH1 0x2 PUSH1 0x1 SLOAD PUSH32 0x3A56E2377ACF256C15A50F0B97834FA29A151D0B8A6D05C450576E40634FADC DUP6 PUSH1 0x1 ADD DUP7 PUSH1 0x2 ADD PUSH1 0x40 MLOAD PUSH3 0x8FC SWAP3 SWAP2 SWAP1 PUSH3 0x1860 JUMP JUMPDEST PUSH1 0x40 MLOAD DUP1 SWAP2 SUB SWAP1 LOG4 DUP1 PUSH0 ADD PUSH0 SWAP1 SLOAD SWAP1 PUSH2 0x100 EXP SWAP1 DIV PUSH20 0xFFFFFFFFFFFFFFFFFFFFFFFFFFFFFFFFFFFFFFFF AND PUSH20 0xFFFFFFFFFFFFFFFFFFFFFFFFFFFFFFFFFFFFFFFF AND PUSH1 0x3 PUSH1 0x1 SLOAD PUSH32 0x3A56E2377ACF256C15A50F0B97834FA29A151D0B8A6D05C450576E40634FADC DUP5 PUSH1 0x1 ADD DUP6 PUSH1 0x2 ADD PUSH1 0x40 MLOAD PUSH3 0x97B SWAP3 SWAP2 SWAP1 PUSH3 0x1860 JUMP JUMPDEST PUSH1 0x40 MLOAD DUP1 SWAP2 SUB SWAP1 LOG4 PUSH1 0x1 PUSH0 DUP2 SLOAD DUP1 SWAP3 SWAP2 SWAP1 PUSH3 0x997 SWAP1 PUSH3 0x18C6 JUMP JUMPDEST SWAP2 SWAP1 POP SSTORE POP PUSH0 DUP1 PUSH0 PUSH1 0x1 SLOAD DUP2 MSTORE PUSH1 0x20 ADD SWAP1 DUP2 MSTORE PUSH1 0x20 ADD PUSH0 KECCAK256 SWAP1 POP PUSH20 0x4511277F98BA4282705DA1C250110E24AA2F88A2 DUP2 PUSH0 ADD PUSH0 PUSH2 0x100 EXP DUP2 SLOAD DUP2 PUSH20 0xFFFFFFFFFFFFFFFFFFFFFFFFFFFFFFFFFFFFFFFF MUL NOT AND SWAP1 DUP4 PUSH20 0xFFFFFFFFFFFFFFFFFFFFFFFFFFFFFFFFFFFFFFFF AND MUL OR SWAP1 SSTORE POP PUSH1 0x40 MLOAD DUP1 PUSH1 0x80 ADD PUSH1 0x40 MSTORE DUP1 PUSH1 0x42 DUP2 MSTORE PUSH1 0x20 ADD PUSH3 0x4022 PUSH1 0x42 SWAP2 CODECOPY DUP2 PUSH1 0x1 ADD SWAP1 DUP2 PUSH3 0xA32 SWAP2 SWAP1 PUSH3 0x16DF JUMP JUMPDEST POP PUSH1 0x40 MLOAD DUP1 PUSH1 0x40 ADD PUSH1 0x40 MSTORE DUP1 PUSH1 0x7 DUP2 MSTORE PUSH1 0x20 ADD PUSH32 0x73747564656E7400000000000000000000000000000000000000000000000000 DUP2 MSTORE POP DUP2 PUSH1 0x2 ADD SWAP1 DUP2 PUSH3 0xA7B SWAP2 SWAP1 PUSH3 0x16DF JUMP JUMPDEST POP PUSH4 0x68229CFC DUP2 PUSH1 0x3 ADD DUP2 SWAP1 SSTORE POP PUSH0 DUP2 PUSH1 0x4 ADD PUSH0 PUSH2 0x100 EXP DUP2 SLOAD DUP2 PUSH1 0xFF MUL NOT AND SWAP1 DUP4 ISZERO ISZERO MUL OR SWAP1 SSTORE POP PUSH0 DUP2 PUSH1 0x5 ADD DUP2 SWAP1 SSTORE POP PUSH0 DUP2 PUSH1 0x6 ADD DUP2 SWAP1 SSTORE POP PUSH1 0x2 DUP2 PUSH1 0x8 ADD DUP2 SWAP1 SSTORE POP PUSH0 PUSH1 0x2 PUSH0 PUSH1 0x1 SLOAD DUP2 MSTORE PUSH1 0x20 ADD SWAP1 DUP2 MSTORE PUSH1 0x20 ADD PUSH0 KECCAK256 PUSH0 PUSH1 0x1 DUP2 MSTORE PUSH1 0x20 ADD SWAP1 DUP2 MSTORE PUSH1 0x20 ADD PUSH0 KECCAK256 SWAP1 POP PUSH20 0x3FC91A3AFD70395CD496C647D5A6CC9D4B2B7FAD DUP2 PUSH0 ADD PUSH0 PUSH2 0x100 EXP DUP2 SLOAD DUP2 PUSH20 0xFFFFFFFFFFFFFFFFFFFFFFFFFFFFFFFFFFFFFFFF MUL NOT AND SWAP1 DUP4 PUSH20 0xFFFFFFFFFFFFFFFFFFFFFFFFFFFFFFFFFFFFFFFF AND MUL OR SWAP1 SSTORE POP PUSH1 0x40 MLOAD DUP1 PUSH1 0x80 ADD PUSH1 0x40 MSTORE DUP1 PUSH1 0x4D DUP2 MSTORE PUSH1 0x20 ADD PUSH3 0x4223 PUSH1 0x4D SWAP2 CODECOPY DUP2 PUSH1 0x1 ADD SWAP1 DUP2 PUSH3 0xB67 SWAP2 SWAP1 PUSH3 0x16DF JUMP JUMPDEST POP PUSH1 0x40 MLOAD DUP1 PUSH1 0x40 ADD PUSH1 0x40 MSTORE DUP1 PUSH1 0x5 DUP2 MSTORE PUSH1 0x20 ADD PUSH32 0x7374616666000000000000000000000000000000000000000000000000000000 DUP2 MSTORE POP DUP2 PUSH1 0x2 ADD SWAP1 DUP2 PUSH3 0xBB0 SWAP2 SWAP1 PUSH3 0x16DF JUMP JUMPDEST POP PUSH4 0x68229D78 DUP2 PUSH1 0x3 ADD DUP2 SWAP1 SSTORE POP PUSH0 PUSH1 0x2 PUSH0 PUSH1 0x1 SLOAD DUP2 MSTORE PUSH1 0x20 ADD SWAP1 DUP2 MSTORE PUSH1 0x20 ADD PUSH0 KECCAK256 PUSH0 PUSH1 0x2 DUP2 MSTORE PUSH1 0x20 ADD SWAP1 DUP2 MSTORE PUSH1 0x20 ADD PUSH0 KECCAK256 SWAP1 POP PUSH20 0xA983D7E14AC1AAF050BB64FDAB1024AE9C93C956 DUP2 PUSH0 ADD PUSH0 PUSH2 0x100 EXP DUP2 SLOAD DUP2 PUSH20 0xFFFFFFFFFFFFFFFFFFFFFFFFFFFFFFFFFFFFFFFF MUL NOT AND SWAP1 DUP4 PUSH20 0xFFFFFFFFFFFFFFFFFFFFFFFFFFFFFFFFFFFFFFFF AND MUL OR SWAP1 SSTORE POP PUSH1 0x40 MLOAD DUP1 PUSH1 0x80 ADD PUSH1 0x40 MSTORE DUP1 PUSH1 0x4E DUP2 MSTORE PUSH1 0x20 ADD PUSH3 0x40B7 PUSH1 0x4E SWAP2 CODECOPY DUP2 PUSH1 0x1 ADD SWAP1 DUP2 PUSH3 0xC65 SWAP2 SWAP1 PUSH3 0x16DF JUMP JUMPDEST POP PUSH1 0x40 MLOAD DUP1 PUSH1 0x40 ADD PUSH1 0x40 MSTORE DUP1 PUSH1 0x9 DUP2 MSTORE PUSH1 0x20 ADD PUSH32 0x70726F666573736F720000000000000000000000000000000000000000000000 DUP2 MSTORE POP DUP2 PUSH1 0x2 ADD SWAP1 DUP2 PUSH3 0xCAE SWAP2 SWAP1 PUSH3 0x16DF JUMP JUMPDEST POP PUSH4 0x681F4F68 DUP2 PUSH1 0x3 ADD DUP2 SWAP1 SSTORE POP DUP3 PUSH0 ADD PUSH0 SWAP1 SLOAD SWAP1 PUSH2 0x100 EXP SWAP1 DIV PUSH20 0xFFFFFFFFFFFFFFFFFFFFFFFFFFFFFFFFFFFFFFFF AND PUSH20 0xFFFFFFFFFFFFFFFFFFFFFFFFFFFFFFFFFFFFFFFF AND PUSH1 0x1 SLOAD PUSH32 0x5475621B07408F75D49C828CAA5AEACB3A5E98D3497E75730DC184677504401C DUP6 PUSH1 0x2 ADD DUP7 PUSH1 0x1 ADD PUSH1 0x40 MLOAD PUSH3 0xD31 SWAP3 SWAP2 SWAP1 PUSH3 0x1860 JUMP JUMPDEST PUSH1 0x40 MLOAD DUP1 SWAP2 SUB SWAP1 LOG3 DUP2 PUSH0 ADD PUSH0 SWAP1 SLOAD SWAP1 PUSH2 0x100 EXP SWAP1 DIV PUSH20 0xFFFFFFFFFFFFFFFFFFFFFFFFFFFFFFFFFFFFFFFF AND PUSH20 0xFFFFFFFFFFFFFFFFFFFFFFFFFFFFFFFFFFFFFFFF AND PUSH1 0x1 DUP1 SLOAD PUSH32 0x3A56E2377ACF256C15A50F0B97834FA29A151D0B8A6D05C450576E40634FADC DUP6 PUSH1 0x1 ADD DUP7 PUSH1 0x2 ADD PUSH1 0x40 MLOAD PUSH3 0xDAF SWAP3 SWAP2 SWAP1 PUSH3 0x1860 JUMP JUMPDEST PUSH1 0x40 MLOAD DUP1 SWAP2 SUB SWAP1 LOG4 DUP1 PUSH0 ADD PUSH0 SWAP1 SLOAD SWAP1 PUSH2 0x100 EXP SWAP1 DIV PUSH20 0xFFFFFFFFFFFFFFFFFFFFFFFFFFFFFFFFFFFFFFFF AND PUSH20 0xFFFFFFFFFFFFFFFFFFFFFFFFFFFFFFFFFFFFFFFF AND PUSH1 0x2 PUSH1 0x1 SLOAD PUSH32 0x3A56E2377ACF256C15A50F0B97834FA29A151D0B8A6D05C450576E40634FADC DUP5 PUSH1 0x1 ADD DUP6 PUSH1 0x2 ADD PUSH1 0x40 MLOAD PUSH3 0xE2E SWAP3 SWAP2 SWAP1 PUSH3 0x1860 JUMP JUMPDEST PUSH1 0x40 MLOAD DUP1 SWAP2 SUB SWAP1 LOG4 PUSH1 0x1 PUSH0 DUP2 SLOAD DUP1 SWAP3 SWAP2 SWAP1 PUSH3 0xE4A SWAP1 PUSH3 0x18C6 JUMP JUMPDEST SWAP2 SWAP1 POP SSTORE POP PUSH0 DUP1 PUSH0 PUSH1 0x1 SLOAD DUP2 MSTORE PUSH1 0x20 ADD SWAP1 DUP2 MSTORE PUSH1 0x20 ADD PUSH0 KECCAK256 SWAP1 POP PUSH20 0x78731D3CA6B7E34AC0F824C42A7CC18A495CABAB DUP2 PUSH0 ADD PUSH0 PUSH2 0x100 EXP DUP2 SLOAD DUP2 PUSH20 0xFFFFFFFFFFFFFFFFFFFFFFFFFFFFFFFFFFFFFFFF MUL NOT AND SWAP1 DUP4 PUSH20 0xFFFFFFFFFFFFFFFFFFFFFFFFFFFFFFFFFFFFFFFF AND MUL OR SWAP1 SSTORE POP PUSH1 0x40 MLOAD DUP1 PUSH1 0x60 ADD PUSH1 0x40 MSTORE DUP1 PUSH1 0x24 DUP2 MSTORE PUSH1 0x20 ADD PUSH3 0x4064 PUSH1 0x24 SWAP2 CODECOPY DUP2 PUSH1 0x1 ADD SWAP1 DUP2 PUSH3 0xEE5 SWAP2 SWAP1 PUSH3 0x16DF JUMP JUMPDEST POP PUSH1 0x40 MLOAD DUP1 PUSH1 0x40 ADD PUSH1 0x40 MSTORE DUP1 PUSH1 0x5 DUP2 MSTORE PUSH1 0x20 ADD PUSH32 0x7374616666000000000000000000000000000000000000000000000000000000 DUP2 MSTORE POP DUP2 PUSH1 0x2 ADD SWAP1 DUP2 PUSH3 0xF2E SWAP2 SWAP1 PUSH3 0x16DF JUMP JUMPDEST POP PUSH4 0x681F5FC8 DUP2 PUSH1 0x3 ADD DUP2 SWAP1 SSTORE POP PUSH1 0x1 DUP2 PUSH1 0x4 ADD PUSH0 PUSH2 0x100 EXP DUP2 SLOAD DUP2 PUSH1 0xFF MUL NOT AND SWAP1 DUP4 ISZERO ISZERO MUL OR SWAP1 SSTORE POP PUSH0 DUP2 PUSH1 0x5 ADD DUP2 SWAP1 SSTORE POP PUSH1 0x3 DUP2 PUSH1 0x6 ADD DUP2 SWAP1 SSTORE POP PUSH1 0x3 DUP2 PUSH1 0x8 ADD DUP2 SWAP1 SSTORE POP PUSH0 PUSH1 0x2 PUSH0 PUSH1 0x1 SLOAD DUP2 MSTORE PUSH1 0x20 ADD SWAP1 DUP2 MSTORE PUSH1 0x20 ADD PUSH0 KECCAK256 PUSH0 PUSH1 0x1 DUP2 MSTORE PUSH1 0x20 ADD SWAP1 DUP2 MSTORE PUSH1 0x20 ADD PUSH0 KECCAK256 SWAP1 POP PUSH20 0x5B38DA6A701C568545DCFCB03FCB875F56BEDDC4 DUP2 PUSH0 ADD PUSH0 PUSH2 0x100 EXP DUP2 SLOAD DUP2 PUSH20 0xFFFFFFFFFFFFFFFFFFFFFFFFFFFFFFFFFFFFFFFF MUL NOT AND SWAP1 DUP4 PUSH20 0xFFFFFFFFFFFFFFFFFFFFFFFFFFFFFFFFFFFFFFFF AND MUL OR SWAP1 SSTORE POP PUSH1 0x40 MLOAD DUP1 PUSH1 0x80 ADD PUSH1 0x40 MSTORE DUP1 PUSH1 0x44 DUP2 MSTORE PUSH1 0x20 ADD PUSH3 0x3F9D PUSH1 0x44 SWAP2 CODECOPY DUP2 PUSH1 0x1 ADD SWAP1 DUP2 PUSH3 0x101C SWAP2 SWAP1 PUSH3 0x16DF JUMP JUMPDEST POP PUSH1 0x40 MLOAD DUP1 PUSH1 0x40 ADD PUSH1 0x40 MSTORE DUP1 PUSH1 0x7 DUP2 MSTORE PUSH1 0x20 ADD PUSH32 0x73747564656E7400000000000000000000000000000000000000000000000000 DUP2 MSTORE POP DUP2 PUSH1 0x2 ADD SWAP1 DUP2 PUSH3 0x1065 SWAP2 SWAP1 PUSH3 0x16DF JUMP JUMPDEST POP PUSH4 0x681F6414 DUP2 PUSH1 0x3 ADD DUP2 SWAP1 SSTORE POP PUSH0 PUSH1 0x2 PUSH0 PUSH1 0x1 SLOAD DUP2 MSTORE PUSH1 0x20 ADD SWAP1 DUP2 MSTORE PUSH1 0x20 ADD PUSH0 KECCAK256 PUSH0 PUSH1 0x2 DUP2 MSTORE PUSH1 0x20 ADD SWAP1 DUP2 MSTORE PUSH1 0x20 ADD PUSH0 KECCAK256 SWAP1 POP PUSH20 0x617F2E2FD72FD9D5503197092AC168C91465E7F2 DUP2 PUSH0 ADD PUSH0 PUSH2 0x100 EXP DUP2 SLOAD DUP2 PUSH20 0xFFFFFFFFFFFFFFFFFFFFFFFFFFFFFFFFFFFFFFFF MUL NOT AND SWAP1 DUP4 PUSH20 0xFFFFFFFFFFFFFFFFFFFFFFFFFFFFFFFFFFFFFFFF AND MUL OR SWAP1 SSTORE POP PUSH1 0x40 MLOAD DUP1 PUSH1 0x60 ADD PUSH1 0x40 MSTORE DUP1 PUSH1 0x37 DUP2 MSTORE PUSH1 0x20 ADD PUSH3 0x4134 PUSH1 0x37 SWAP2 CODECOPY DUP2 PUSH1 0x1 ADD SWAP1 DUP2 PUSH3 0x111A SWAP2 SWAP1 PUSH3 0x16DF JUMP JUMPDEST POP PUSH1 0x40 MLOAD DUP1 PUSH1 0x40 ADD PUSH1 0x40 MSTORE DUP1 PUSH1 0x7 DUP2 MSTORE PUSH1 0x20 ADD PUSH32 0x73747564656E7400000000000000000000000000000000000000000000000000 DUP2 MSTORE POP DUP2 PUSH1 0x2 ADD SWAP1 DUP2 PUSH3 0x1163 SWAP2 SWAP1 PUSH3 0x16DF JUMP JUMPDEST POP PUSH4 0x681F6860 DUP2 PUSH1 0x3 ADD DUP2 SWAP1 SSTORE POP PUSH0 PUSH1 0x2 PUSH0 PUSH1 0x1 SLOAD DUP2 MSTORE PUSH1 0x20 ADD SWAP1 DUP2 MSTORE PUSH1 0x20 ADD PUSH0 KECCAK256 PUSH0 PUSH1 0x3 DUP2 MSTORE PUSH1 0x20 ADD SWAP1 DUP2 MSTORE PUSH1 0x20 ADD PUSH0 KECCAK256 SWAP1 POP PUSH20 0xA983D7E14AC1AAF050BB64FDAB1024AE9C93C956 DUP2 PUSH0 ADD PUSH0 PUSH2 0x100 EXP DUP2 SLOAD DUP2 PUSH20 0xFFFFFFFFFFFFFFFFFFFFFFFFFFFFFFFFFFFFFFFF MUL NOT AND SWAP1 DUP4 PUSH20 0xFFFFFFFFFFFFFFFFFFFFFFFFFFFFFFFFFFFFFFFF AND MUL OR SWAP1 SSTORE POP PUSH1 0x40 MLOAD DUP1 PUSH1 0x80 ADD PUSH1 0x40 MSTORE DUP1 PUSH1 0x41 DUP2 MSTORE PUSH1 0x20 ADD PUSH3 0x3FE1 PUSH1 0x41 SWAP2 CODECOPY DUP2 PUSH1 0x1 ADD SWAP1 DUP2 PUSH3 0x1218 SWAP2 SWAP1 PUSH3 0x16DF JUMP JUMPDEST POP PUSH1 0x40 MLOAD DUP1 PUSH1 0x40 ADD PUSH1 0x40 MSTORE DUP1 PUSH1 0x7 DUP2 MSTORE PUSH1 0x20 ADD PUSH32 0x73747564656E7400000000000000000000000000000000000000000000000000 DUP2 MSTORE POP DUP2 PUSH1 0x2 ADD SWAP1 DUP2 PUSH3 0x1261 SWAP2 SWAP1 PUSH3 0x16DF JUMP JUMPDEST POP PUSH4 0x681F6CAC DUP2 PUSH1 0x3 ADD DUP2 SWAP1 SSTORE POP DUP4 PUSH0 ADD PUSH0 SWAP1 SLOAD SWAP1 PUSH2 0x100 EXP SWAP1 DIV PUSH20 0xFFFFFFFFFFFFFFFFFFFFFFFFFFFFFFFFFFFFFFFF AND PUSH20 0xFFFFFFFFFFFFFFFFFFFFFFFFFFFFFFFFFFFFFFFF AND PUSH1 0x1 SLOAD PUSH32 0x5475621B07408F75D49C828CAA5AEACB3A5E98D3497E75730DC184677504401C DUP7 PUSH1 0x2 ADD DUP8 PUSH1 0x1 ADD PUSH1 0x40 MLOAD PUSH3 0x12E4 SWAP3 SWAP2 SWAP1 PUSH3 0x1860 JUMP JUMPDEST PUSH1 0x40 MLOAD DUP1 SWAP2 SUB SWAP1 LOG3 DUP3 PUSH0 ADD PUSH0 SWAP1 SLOAD SWAP1 PUSH2 0x100 EXP SWAP1 DIV PUSH20 0xFFFFFFFFFFFFFFFFFFFFFFFFFFFFFFFFFFFFFFFF AND PUSH20 0xFFFFFFFFFFFFFFFFFFFFFFFFFFFFFFFFFFFFFFFF AND PUSH1 0x1 DUP1 SLOAD PUSH32 0x3A56E2377ACF256C15A50F0B97834FA29A151D0B8A6D05C450576E40634FADC DUP7 PUSH1 0x1 ADD DUP8 PUSH1 0x2 ADD PUSH1 0x40 MLOAD PUSH3 0x1362 SWAP3 SWAP2 SWAP1 PUSH3 0x1860 JUMP JUMPDEST PUSH1 0x40 MLOAD DUP1 SWAP2 SUB SWAP1 LOG4 DUP2 PUSH0 ADD PUSH0 SWAP1 SLOAD SWAP1 PUSH2 0x100 EXP SWAP1 DIV PUSH20 0xFFFFFFFFFFFFFFFFFFFFFFFFFFFFFFFFFFFFFFFF AND PUSH20 0xFFFFFFFFFFFFFFFFFFFFFFFFFFFFFFFFFFFFFFFF AND PUSH1 0x2 PUSH1 0x1 SLOAD PUSH32 0x3A56E2377ACF256C15A50F0B97834FA29A151D0B8A6D05C450576E40634FADC DUP6 PUSH1 0x1 ADD DUP7 PUSH1 0x2 ADD PUSH1 0x40 MLOAD PUSH3 0x13E1 SWAP3 SWAP2 SWAP1 PUSH3 0x1860 JUMP JUMPDEST PUSH1 0x40 MLOAD DUP1 SWAP2 SUB SWAP1 LOG4 DUP1 PUSH0 ADD PUSH0 SWAP1 SLOAD SWAP1 PUSH2 0x100 EXP SWAP1 DIV PUSH20 0xFFFFFFFFFFFFFFFFFFFFFFFFFFFFFFFFFFFFFFFF AND PUSH20 0xFFFFFFFFFFFFFFFFFFFFFFFFFFFFFFFFFFFFFFFF AND PUSH1 0x3 PUSH1 0x1 SLOAD PUSH32 0x3A56E2377ACF256C15A50F0B97834FA29A151D0B8A6D05C450576E40634FADC DUP5 PUSH1 0x1 ADD DUP6 PUSH1 0x2 ADD PUSH1 0x40 MLOAD PUSH3 0x1460 SWAP3 SWAP2 SWAP1 PUSH3 0x1860 JUMP JUMPDEST PUSH1 0x40 MLOAD DUP1 SWAP2 SUB SWAP1 LOG4 POP POP POP POP POP POP POP POP POP POP POP POP POP PUSH3 0x1912 JUMP JUMPDEST PUSH0 DUP2 MLOAD SWAP1 POP SWAP2 SWAP1 POP JUMP JUMPDEST PUSH32 0x4E487B7100000000000000000000000000000000000000000000000000000000 PUSH0 MSTORE PUSH1 0x41 PUSH1 0x4 MSTORE PUSH1 0x24 PUSH0 REVERT JUMPDEST PUSH32 0x4E487B7100000000000000000000000000000000000000000000000000000000 PUSH0 MSTORE PUSH1 0x22 PUSH1 0x4 MSTORE PUSH1 0x24 PUSH0 REVERT JUMPDEST PUSH0 PUSH1 0x2 DUP3 DIV SWAP1 POP PUSH1 0x1 DUP3 AND DUP1 PUSH3 0x14F7 JUMPI PUSH1 0x7F DUP3 AND SWAP2 POP JUMPDEST PUSH1 0x20 DUP3 LT DUP2 SUB PUSH3 0x150D JUMPI PUSH3 0x150C PUSH3 0x14B2 JUMP JUMPDEST JUMPDEST POP SWAP2 SWAP1 POP JUMP JUMPDEST PUSH0 DUP2 SWAP1 POP DUP2 PUSH0 MSTORE PUSH1 0x20 PUSH0 KECCAK256 SWAP1 POP SWAP2 SWAP1 POP JUMP JUMPDEST PUSH0 PUSH1 0x20 PUSH1 0x1F DUP4 ADD DIV SWAP1 POP SWAP2 SWAP1 POP JUMP JUMPDEST PUSH0 DUP3 DUP3 SHL SWAP1 POP SWAP3 SWAP2 POP POP JUMP JUMPDEST PUSH0 PUSH1 0x8 DUP4 MUL PUSH3 0x1571 PUSH32 0xFFFFFFFFFFFFFFFFFFFFFFFFFFFFFFFFFFFFFFFFFFFFFFFFFFFFFFFFFFFFFFFF DUP3 PUSH3 0x1534 JUMP JUMPDEST PUSH3 0x157D DUP7 DUP4 PUSH3 0x1534 JUMP JUMPDEST SWAP6 POP DUP1 NOT DUP5 AND SWAP4 POP DUP1 DUP7 AND DUP5 OR SWAP3 POP POP POP SWAP4 SWAP3 POP POP POP JUMP JUMPDEST PUSH0 DUP2 SWAP1 POP SWAP2 SWAP1 POP JUMP JUMPDEST PUSH0 DUP2 SWAP1 POP SWAP2 SWAP1 POP JUMP JUMPDEST PUSH0 PUSH3 0x15C7 PUSH3 0x15C1 PUSH3 0x15BB DUP5 PUSH3 0x1595 JUMP JUMPDEST PUSH3 0x159E JUMP JUMPDEST PUSH3 0x1595 JUMP JUMPDEST SWAP1 POP SWAP2 SWAP1 POP JUMP JUMPDEST PUSH0 DUP2 SWAP1 POP SWAP2 SWAP1 POP JUMP JUMPDEST PUSH3 0x15E2 DUP4 PUSH3 0x15A7 JUMP JUMPDEST PUSH3 0x15FA PUSH3 0x15F1 DUP3 PUSH3 0x15CE JUMP JUMPDEST DUP5 DUP5 SLOAD PUSH3 0x1540 JUMP JUMPDEST DUP3 SSTORE POP POP POP POP JUMP JUMPDEST PUSH0 SWAP1 JUMP JUMPDEST PUSH3 0x1610 PUSH3 0x1602 JUMP JUMPDEST PUSH3 0x161D DUP2 DUP5 DUP5 PUSH3 0x15D7 JUMP JUMPDEST POP POP POP JUMP JUMPDEST JUMPDEST DUP2 DUP2 LT ISZERO PUSH3 0x1644 JUMPI PUSH3 0x1638 PUSH0 DUP3 PUSH3 0x1606 JUMP JUMPDEST PUSH1 0x1 DUP2 ADD SWAP1 POP PUSH3 0x1623 JUMP JUMPDEST POP POP JUMP JUMPDEST PUSH1 0x1F DUP3 GT ISZERO PUSH3 0x1693 JUMPI PUSH3 0x165D DUP2 PUSH3 0x1513 JUMP JUMPDEST PUSH3 0x1668 DUP5 PUSH3 0x1525 JUMP JUMPDEST DUP2 ADD PUSH1 0x20 DUP6 LT ISZERO PUSH3 0x1678 JUMPI DUP2 SWAP1 POP JUMPDEST PUSH3 0x1690 PUSH3 0x1687 DUP6 PUSH3 0x1525 JUMP JUMPDEST DUP4 ADD DUP3 PUSH3 0x1622 JUMP JUMPDEST POP POP JUMPDEST POP POP POP JUMP JUMPDEST PUSH0 DUP3 DUP3 SHR SWAP1 POP SWAP3 SWAP2 POP POP JUMP JUMPDEST PUSH0 PUSH3 0x16B5 PUSH0 NOT DUP5 PUSH1 0x8 MUL PUSH3 0x1698 JUMP JUMPDEST NOT DUP1 DUP4 AND SWAP2 POP POP SWAP3 SWAP2 POP POP JUMP JUMPDEST PUSH0 PUSH3 0x16CF DUP4 DUP4 PUSH3 0x16A4 JUMP JUMPDEST SWAP2 POP DUP3 PUSH1 0x2 MUL DUP3 OR SWAP1 POP SWAP3 SWAP2 POP POP JUMP JUMPDEST PUSH3 0x16EA DUP3 PUSH3 0x147B JUMP JUMPDEST PUSH8 0xFFFFFFFFFFFFFFFF DUP2 GT ISZERO PUSH3 0x1706 JUMPI PUSH3 0x1705 PUSH3 0x1485 JUMP JUMPDEST JUMPDEST PUSH3 0x1712 DUP3 SLOAD PUSH3 0x14DF JUMP JUMPDEST PUSH3 0x171F DUP3 DUP3 DUP6 PUSH3 0x1648 JUMP JUMPDEST PUSH0 PUSH1 0x20 SWAP1 POP PUSH1 0x1F DUP4 GT PUSH1 0x1 DUP2 EQ PUSH3 0x1755 JUMPI PUSH0 DUP5 ISZERO PUSH3 0x1740 JUMPI DUP3 DUP8 ADD MLOAD SWAP1 POP JUMPDEST PUSH3 0x174C DUP6 DUP3 PUSH3 0x16C2 JUMP JUMPDEST DUP7 SSTORE POP PUSH3 0x17BB JUMP JUMPDEST PUSH1 0x1F NOT DUP5 AND PUSH3 0x1765 DUP7 PUSH3 0x1513 JUMP JUMPDEST PUSH0 JUMPDEST DUP3 DUP2 LT ISZERO PUSH3 0x178E JUMPI DUP5 DUP10 ADD MLOAD DUP3 SSTORE PUSH1 0x1 DUP3 ADD SWAP2 POP PUSH1 0x20 DUP6 ADD SWAP5 POP PUSH1 0x20 DUP2 ADD SWAP1 POP PUSH3 0x1767 JUMP JUMPDEST DUP7 DUP4 LT ISZERO PUSH3 0x17AE JUMPI DUP5 DUP10 ADD MLOAD PUSH3 0x17AA PUSH1 0x1F DUP10 AND DUP3 PUSH3 0x16A4 JUMP JUMPDEST DUP4 SSTORE POP JUMPDEST PUSH1 0x1 PUSH1 0x2 DUP9 MUL ADD DUP9 SSTORE POP POP POP JUMPDEST POP POP POP POP POP POP JUMP JUMPDEST PUSH0 DUP3 DUP3 MSTORE PUSH1 0x20 DUP3 ADD SWAP1 POP SWAP3 SWAP2 POP POP JUMP JUMPDEST PUSH0 DUP2 SLOAD PUSH3 0x17E1 DUP2 PUSH3 0x14DF JUMP JUMPDEST PUSH3 0x17ED DUP2 DUP7 PUSH3 0x17C3 JUMP JUMPDEST SWAP5 POP PUSH1 0x1 DUP3 AND PUSH0 DUP2 EQ PUSH3 0x180A JUMPI PUSH1 0x1 DUP2 EQ PUSH3 0x1821 JUMPI PUSH3 0x1857 JUMP JUMPDEST PUSH1 0xFF NOT DUP4 AND DUP7 MSTORE DUP2 ISZERO ISZERO PUSH1 0x20 MUL DUP7 ADD SWAP4 POP PUSH3 0x1857 JUMP JUMPDEST PUSH3 0x182C DUP6 PUSH3 0x1513 JUMP JUMPDEST PUSH0 JUMPDEST DUP4 DUP2 LT ISZERO PUSH3 0x184F JUMPI DUP2 SLOAD DUP2 DUP10 ADD MSTORE PUSH1 0x1 DUP3 ADD SWAP2 POP PUSH1 0x20 DUP2 ADD SWAP1 POP PUSH3 0x182E JUMP JUMPDEST DUP1 DUP9 ADD SWAP6 POP POP POP JUMPDEST POP POP POP SWAP3 SWAP2 POP POP JUMP JUMPDEST PUSH0 PUSH1 0x40 DUP3 ADD SWAP1 POP DUP2 DUP2 SUB PUSH0 DUP4 ADD MSTORE PUSH3 0x187A DUP2 DUP6 PUSH3 0x17D3 JUMP JUMPDEST SWAP1 POP DUP2 DUP2 SUB PUSH1 0x20 DUP4 ADD MSTORE PUSH3 0x1890 DUP2 DUP5 PUSH3 0x17D3 JUMP JUMPDEST SWAP1 POP SWAP4 SWAP3 POP POP POP JUMP JUMPDEST PUSH32 0x4E487B7100000000000000000000000000000000000000000000000000000000 PUSH0 MSTORE PUSH1 0x11 PUSH1 0x4 MSTORE PUSH1 0x24 PUSH0 REVERT JUMPDEST PUSH0 PUSH3 0x18D2 DUP3 PUSH3 0x1595 JUMP JUMPDEST SWAP2 POP PUSH32 0xFFFFFFFFFFFFFFFFFFFFFFFFFFFFFFFFFFFFFFFFFFFFFFFFFFFFFFFFFFFFFFFF DUP3 SUB PUSH3 0x1907 JUMPI PUSH3 0x1906 PUSH3 0x1899 JUMP JUMPDEST JUMPDEST PUSH1 0x1 DUP3 ADD SWAP1 POP SWAP2 SWAP1 POP JUMP JUMPDEST PUSH2 0x267D DUP1 PUSH3 0x1920 PUSH0 CODECOPY PUSH0 RETURN INVALID PUSH1 0x80 PUSH1 0x40 MSTORE CALLVALUE DUP1 ISZERO PUSH2 0xF JUMPI PUSH0 DUP1 REVERT JUMPDEST POP PUSH1 0x4 CALLDATASIZE LT PUSH2 0xA7 JUMPI PUSH0 CALLDATALOAD PUSH1 0xE0 SHR DUP1 PUSH4 0x392338F5 GT PUSH2 0x6F JUMPI DUP1 PUSH4 0x392338F5 EQ PUSH2 0x180 JUMPI DUP1 PUSH4 0x40731C24 EQ PUSH2 0x19C JUMPI DUP1 PUSH4 0x43859632 EQ PUSH2 0x1D3 JUMPI DUP1 PUSH4 0x48892753 EQ PUSH2 0x203 JUMPI DUP1 PUSH4 0xD04F8BAD EQ PUSH2 0x236 JUMPI DUP1 PUSH4 0xFC6C776F EQ PUSH2 0x252 JUMPI PUSH2 0xA7 JUMP JUMPDEST DUP1 PUSH4 0xB1E7F83 EQ PUSH2 0xAB JUMPI DUP1 PUSH4 0xD4BFB4F EQ PUSH2 0xE2 JUMPI DUP1 PUSH4 0x1521E616 EQ PUSH2 0x112 JUMPI DUP1 PUSH4 0x17906C2E EQ PUSH2 0x12E JUMPI DUP1 PUSH4 0x25CFB1C5 EQ PUSH2 0x14C JUMPI JUMPDEST PUSH0 DUP1 REVERT JUMPDEST PUSH2 0xC5 PUSH1 0x4 DUP1 CALLDATASIZE SUB DUP2 ADD SWAP1 PUSH2 0xC0 SWAP2 SWAP1 PUSH2 0x16DA JUMP JUMPDEST PUSH2 0x285 JUMP JUMPDEST PUSH1 0x40 MLOAD PUSH2 0xD9 SWAP9 SWAP8 SWAP7 SWAP6 SWAP5 SWAP4 SWAP3 SWAP2 SWAP1 PUSH2 0x17F7 JUMP JUMPDEST PUSH1 0x40 MLOAD DUP1 SWAP2 SUB SWAP1 RETURN JUMPDEST PUSH2 0xFC PUSH1 0x4 DUP1 CALLDATASIZE SUB DUP2 ADD SWAP1 PUSH2 0xF7 SWAP2 SWAP1 PUSH2 0x16DA JUMP JUMPDEST PUSH2 0x3FF JUMP JUMPDEST PUSH1 0x40 MLOAD PUSH2 0x109 SWAP2 SWAP1 PUSH2 0x1881 JUMP JUMPDEST PUSH1 0x40 MLOAD DUP1 SWAP2 SUB SWAP1 RETURN JUMPDEST PUSH2 0x12C PUSH1 0x4 DUP1 CALLDATASIZE SUB DUP2 ADD SWAP1 PUSH2 0x127 SWAP2 SWAP1 PUSH2 0x19C6 JUMP JUMPDEST PUSH2 0x46B JUMP JUMPDEST STOP JUMPDEST PUSH2 0x136 PUSH2 0x61C JUMP JUMPDEST PUSH1 0x40 MLOAD PUSH2 0x143 SWAP2 SWAP1 PUSH2 0x1881 JUMP JUMPDEST PUSH1 0x40 MLOAD DUP1 SWAP2 SUB SWAP1 RETURN JUMPDEST PUSH2 0x166 PUSH1 0x4 DUP1 CALLDATASIZE SUB DUP2 ADD SWAP1 PUSH2 0x161 SWAP2 SWAP1 PUSH2 0x1A4E JUMP JUMPDEST PUSH2 0x622 JUMP JUMPDEST PUSH1 0x40 MLOAD PUSH2 0x177 SWAP6 SWAP5 SWAP4 SWAP3 SWAP2 SWAP1 PUSH2 0x1D0F JUMP JUMPDEST PUSH1 0x40 MLOAD DUP1 SWAP2 SUB SWAP1 RETURN JUMPDEST PUSH2 0x19A PUSH1 0x4 DUP1 CALLDATASIZE SUB DUP2 ADD SWAP1 PUSH2 0x195 SWAP2 SWAP1 PUSH2 0x1D7C JUMP JUMPDEST PUSH2 0xBCF JUMP JUMPDEST STOP JUMPDEST PUSH2 0x1B6 PUSH1 0x4 DUP1 CALLDATASIZE SUB DUP2 ADD SWAP1 PUSH2 0x1B1 SWAP2 SWAP1 PUSH2 0x16DA JUMP JUMPDEST PUSH2 0xCF7 JUMP JUMPDEST PUSH1 0x40 MLOAD PUSH2 0x1CA SWAP9 SWAP8 SWAP7 SWAP6 SWAP5 SWAP4 SWAP3 SWAP2 SWAP1 PUSH2 0x17F7 JUMP JUMPDEST PUSH1 0x40 MLOAD DUP1 SWAP2 SUB SWAP1 RETURN JUMPDEST PUSH2 0x1ED PUSH1 0x4 DUP1 CALLDATASIZE SUB DUP2 ADD SWAP1 PUSH2 0x1E8 SWAP2 SWAP1 PUSH2 0x1E1C JUMP JUMPDEST PUSH2 0xEE3 JUMP JUMPDEST PUSH1 0x40 MLOAD PUSH2 0x1FA SWAP2 SWAP1 PUSH2 0x1E5A JUMP JUMPDEST PUSH1 0x40 MLOAD DUP1 SWAP2 SUB SWAP1 RETURN JUMPDEST PUSH2 0x21D PUSH1 0x4 DUP1 CALLDATASIZE SUB DUP2 ADD SWAP1 PUSH2 0x218 SWAP2 SWAP1 PUSH2 0x1E73 JUMP JUMPDEST PUSH2 0xF97 JUMP JUMPDEST PUSH1 0x40 MLOAD PUSH2 0x22D SWAP5 SWAP4 SWAP3 SWAP2 SWAP1 PUSH2 0x1EB1 JUMP JUMPDEST PUSH1 0x40 MLOAD DUP1 SWAP2 SUB SWAP1 RETURN JUMPDEST PUSH2 0x250 PUSH1 0x4 DUP1 CALLDATASIZE SUB DUP2 ADD SWAP1 PUSH2 0x24B SWAP2 SWAP1 PUSH2 0x1F2C JUMP JUMPDEST PUSH2 0x11C6 JUMP JUMPDEST STOP JUMPDEST PUSH2 0x26C PUSH1 0x4 DUP1 CALLDATASIZE SUB DUP2 ADD SWAP1 PUSH2 0x267 SWAP2 SWAP1 PUSH2 0x1E73 JUMP JUMPDEST PUSH2 0x1534 JUMP JUMPDEST PUSH1 0x40 MLOAD PUSH2 0x27C SWAP5 SWAP4 SWAP3 SWAP2 SWAP1 PUSH2 0x1EB1 JUMP JUMPDEST PUSH1 0x40 MLOAD DUP1 SWAP2 SUB SWAP1 RETURN JUMPDEST PUSH0 PUSH1 0x20 MSTORE DUP1 PUSH0 MSTORE PUSH1 0x40 PUSH0 KECCAK256 PUSH0 SWAP2 POP SWAP1 POP DUP1 PUSH0 ADD PUSH0 SWAP1 SLOAD SWAP1 PUSH2 0x100 EXP SWAP1 DIV PUSH20 0xFFFFFFFFFFFFFFFFFFFFFFFFFFFFFFFFFFFFFFFF AND SWAP1 DUP1 PUSH1 0x1 ADD DUP1 SLOAD PUSH2 0x2C8 SWAP1 PUSH2 0x1F97 JUMP JUMPDEST DUP1 PUSH1 0x1F ADD PUSH1 0x20 DUP1 SWAP2 DIV MUL PUSH1 0x20 ADD PUSH1 0x40 MLOAD SWAP1 DUP2 ADD PUSH1 0x40 MSTORE DUP1 SWAP3 SWAP2 SWAP1 DUP2 DUP2 MSTORE PUSH1 0x20 ADD DUP3 DUP1 SLOAD PUSH2 0x2F4 SWAP1 PUSH2 0x1F97 JUMP JUMPDEST DUP1 ISZERO PUSH2 0x33F JUMPI DUP1 PUSH1 0x1F LT PUSH2 0x316 JUMPI PUSH2 0x100 DUP1 DUP4 SLOAD DIV MUL DUP4 MSTORE SWAP2 PUSH1 0x20 ADD SWAP2 PUSH2 0x33F JUMP JUMPDEST DUP3 ADD SWAP2 SWAP1 PUSH0 MSTORE PUSH1 0x20 PUSH0 KECCAK256 SWAP1 JUMPDEST DUP2 SLOAD DUP2 MSTORE SWAP1 PUSH1 0x1 ADD SWAP1 PUSH1 0x20 ADD DUP1 DUP4 GT PUSH2 0x322 JUMPI DUP3 SWAP1 SUB PUSH1 0x1F AND DUP3 ADD SWAP2 JUMPDEST POP POP POP POP POP SWAP1 DUP1 PUSH1 0x2 ADD DUP1 SLOAD PUSH2 0x354 SWAP1 PUSH2 0x1F97 JUMP JUMPDEST DUP1 PUSH1 0x1F ADD PUSH1 0x20 DUP1 SWAP2 DIV MUL PUSH1 0x20 ADD PUSH1 0x40 MLOAD SWAP1 DUP2 ADD PUSH1 0x40 MSTORE DUP1 SWAP3 SWAP2 SWAP1 DUP2 DUP2 MSTORE PUSH1 0x20 ADD DUP3 DUP1 SLOAD PUSH2 0x380 SWAP1 PUSH2 0x1F97 JUMP JUMPDEST DUP1 ISZERO PUSH2 0x3CB JUMPI DUP1 PUSH1 0x1F LT PUSH2 0x3A2 JUMPI PUSH2 0x100 DUP1 DUP4 SLOAD DIV MUL DUP4 MSTORE SWAP2 PUSH1 0x20 ADD SWAP2 PUSH2 0x3CB JUMP JUMPDEST DUP3 ADD SWAP2 SWAP1 PUSH0 MSTORE PUSH1 0x20 PUSH0 KECCAK256 SWAP1 JUMPDEST DUP2 SLOAD DUP2 MSTORE SWAP1 PUSH1 0x1 ADD SWAP1 PUSH1 0x20 ADD DUP1 DUP4 GT PUSH2 0x3AE JUMPI DUP3 SWAP1 SUB PUSH1 0x1F AND DUP3 ADD SWAP2 JUMPDEST POP POP POP POP POP SWAP1 DUP1 PUSH1 0x3 ADD SLOAD SWAP1 DUP1 PUSH1 0x4 ADD PUSH0 SWAP1 SLOAD SWAP1 PUSH2 0x100 EXP SWAP1 DIV PUSH1 0xFF AND SWAP1 DUP1 PUSH1 0x5 ADD SLOAD SWAP1 DUP1 PUSH1 0x6 ADD SLOAD SWAP1 DUP1 PUSH1 0x8 ADD SLOAD SWAP1 POP DUP9 JUMP JUMPDEST PUSH0 DUP1 DUP3 GT DUP1 ISZERO PUSH2 0x411 JUMPI POP PUSH1 0x1 SLOAD DUP3 GT ISZERO JUMPDEST PUSH2 0x450 JUMPI PUSH1 0x40 MLOAD PUSH32 0x8C379A000000000000000000000000000000000000000000000000000000000 DUP2 MSTORE PUSH1 0x4 ADD PUSH2 0x447 SWAP1 PUSH2 0x2011 JUMP JUMPDEST PUSH1 0x40 MLOAD DUP1 SWAP2 SUB SWAP1 REVERT JUMPDEST PUSH0 DUP1 DUP4 DUP2 MSTORE PUSH1 0x20 ADD SWAP1 DUP2 MSTORE PUSH1 0x20 ADD PUSH0 KECCAK256 PUSH1 0x8 ADD SLOAD SWAP1 POP SWAP2 SWAP1 POP JUMP JUMPDEST PUSH0 DUP4 GT DUP1 ISZERO PUSH2 0x47C JUMPI POP PUSH1 0x1 SLOAD DUP4 GT ISZERO JUMPDEST PUSH2 0x4BB JUMPI PUSH1 0x40 MLOAD PUSH32 0x8C379A000000000000000000000000000000000000000000000000000000000 DUP2 MSTORE PUSH1 0x4 ADD PUSH2 0x4B2 SWAP1 PUSH2 0x2011 JUMP JUMPDEST PUSH1 0x40 MLOAD DUP1 SWAP2 SUB SWAP1 REVERT JUMPDEST PUSH0 DUP3 MLOAD GT PUSH2 0x4FE JUMPI PUSH1 0x40 MLOAD PUSH32 0x8C379A000000000000000000000000000000000000000000000000000000000 DUP2 MSTORE PUSH1 0x4 ADD PUSH2 0x4F5 SWAP1 PUSH2 0x2079 JUMP JUMPDEST PUSH1 0x40 MLOAD DUP1 SWAP2 SUB SWAP1 REVERT JUMPDEST PUSH0 DUP1 PUSH0 DUP6 DUP2 MSTORE PUSH1 0x20 ADD SWAP1 DUP2 MSTORE PUSH1 0x20 ADD PUSH0 KECCAK256 SWAP1 POP DUP1 PUSH1 0x8 ADD PUSH0 DUP2 SLOAD DUP1 SWAP3 SWAP2 SWAP1 PUSH2 0x525 SWAP1 PUSH2 0x20C4 JUMP JUMPDEST SWAP2 SWAP1 POP SSTORE POP PUSH0 PUSH1 0x2 PUSH0 DUP7 DUP2 MSTORE PUSH1 0x20 ADD SWAP1 DUP2 MSTORE PUSH1 0x20 ADD PUSH0 KECCAK256 PUSH0 DUP4 PUSH1 0x8 ADD SLOAD DUP2 MSTORE PUSH1 0x20 ADD SWAP1 DUP2 MSTORE PUSH1 0x20 ADD PUSH0 KECCAK256 SWAP1 POP CALLER DUP2 PUSH0 ADD PUSH0 PUSH2 0x100 EXP DUP2 SLOAD DUP2 PUSH20 0xFFFFFFFFFFFFFFFFFFFFFFFFFFFFFFFFFFFFFFFF MUL NOT AND SWAP1 DUP4 PUSH20 0xFFFFFFFFFFFFFFFFFFFFFFFFFFFFFFFFFFFFFFFF AND MUL OR SWAP1 SSTORE POP DUP4 DUP2 PUSH1 0x1 ADD SWAP1 DUP2 PUSH2 0x5A3 SWAP2 SWAP1 PUSH2 0x22A8 JUMP JUMPDEST POP DUP3 DUP2 PUSH1 0x2 ADD SWAP1 DUP2 PUSH2 0x5B5 SWAP2 SWAP1 PUSH2 0x22A8 JUMP JUMPDEST POP TIMESTAMP DUP2 PUSH1 0x3 ADD DUP2 SWAP1 SSTORE POP CALLER PUSH20 0xFFFFFFFFFFFFFFFFFFFFFFFFFFFFFFFFFFFFFFFF AND DUP3 PUSH1 0x8 ADD SLOAD DUP7 PUSH32 0x3A56E2377ACF256C15A50F0B97834FA29A151D0B8A6D05C450576E40634FADC DUP8 DUP8 PUSH1 0x40 MLOAD PUSH2 0x60D SWAP3 SWAP2 SWAP1 PUSH2 0x2377 JUMP JUMPDEST PUSH1 0x40 MLOAD DUP1 SWAP2 SUB SWAP1 LOG4 POP POP POP POP POP JUMP JUMPDEST PUSH1 0x1 SLOAD DUP2 JUMP JUMPDEST PUSH1 0x60 DUP1 PUSH1 0x60 DUP1 PUSH0 DUP1 DUP9 GT DUP1 ISZERO PUSH2 0x63A JUMPI POP PUSH1 0x1 SLOAD DUP9 GT ISZERO JUMPDEST PUSH2 0x679 JUMPI PUSH1 0x40 MLOAD PUSH32 0x8C379A000000000000000000000000000000000000000000000000000000000 DUP2 MSTORE PUSH1 0x4 ADD PUSH2 0x670 SWAP1 PUSH2 0x2011 JUMP JUMPDEST PUSH1 0x40 MLOAD DUP1 SWAP2 SUB SWAP1 REVERT JUMPDEST PUSH0 DUP8 GT PUSH2 0x6BB JUMPI PUSH1 0x40 MLOAD PUSH32 0x8C379A000000000000000000000000000000000000000000000000000000000 DUP2 MSTORE PUSH1 0x4 ADD PUSH2 0x6B2 SWAP1 PUSH2 0x23F6 JUMP JUMPDEST PUSH1 0x40 MLOAD DUP1 SWAP2 SUB SWAP1 REVERT JUMPDEST PUSH0 DUP1 PUSH0 DUP11 DUP2 MSTORE PUSH1 0x20 ADD SWAP1 DUP2 MSTORE PUSH1 0x20 ADD PUSH0 KECCAK256 PUSH1 0x8 ADD SLOAD SWAP1 POP DUP1 SWAP2 POP DUP1 DUP9 GT ISZERO PUSH2 0x819 JUMPI PUSH0 PUSH8 0xFFFFFFFFFFFFFFFF DUP2 GT ISZERO PUSH2 0x6F7 JUMPI PUSH2 0x6F6 PUSH2 0x18A2 JUMP JUMPDEST JUMPDEST PUSH1 0x40 MLOAD SWAP1 DUP1 DUP3 MSTORE DUP1 PUSH1 0x20 MUL PUSH1 0x20 ADD DUP3 ADD PUSH1 0x40 MSTORE DUP1 ISZERO PUSH2 0x725 JUMPI DUP2 PUSH1 0x20 ADD PUSH1 0x20 DUP3 MUL DUP1 CALLDATASIZE DUP4 CALLDATACOPY DUP1 DUP3 ADD SWAP2 POP POP SWAP1 POP JUMPDEST POP PUSH0 PUSH8 0xFFFFFFFFFFFFFFFF DUP2 GT ISZERO PUSH2 0x740 JUMPI PUSH2 0x73F PUSH2 0x18A2 JUMP JUMPDEST JUMPDEST PUSH1 0x40 MLOAD SWAP1 DUP1 DUP3 MSTORE DUP1 PUSH1 0x20 MUL PUSH1 0x20 ADD DUP3 ADD PUSH1 0x40 MSTORE DUP1 ISZERO PUSH2 0x773 JUMPI DUP2 PUSH1 0x20 ADD JUMPDEST PUSH1 0x60 DUP2 MSTORE PUSH1 0x20 ADD SWAP1 PUSH1 0x1 SWAP1 SUB SWAP1 DUP2 PUSH2 0x75E JUMPI SWAP1 POP JUMPDEST POP PUSH0 PUSH8 0xFFFFFFFFFFFFFFFF DUP2 GT ISZERO PUSH2 0x78E JUMPI PUSH2 0x78D PUSH2 0x18A2 JUMP JUMPDEST JUMPDEST PUSH1 0x40 MLOAD SWAP1 DUP1 DUP3 MSTORE DUP1 PUSH1 0x20 MUL PUSH1 0x20 ADD DUP3 ADD PUSH1 0x40 MSTORE DUP1 ISZERO PUSH2 0x7C1 JUMPI DUP2 PUSH1 0x20 ADD JUMPDEST PUSH1 0x60 DUP2 MSTORE PUSH1 0x20 ADD SWAP1 PUSH1 0x1 SWAP1 SUB SWAP1 DUP2 PUSH2 0x7AC JUMPI SWAP1 POP JUMPDEST POP PUSH0 PUSH8 0xFFFFFFFFFFFFFFFF DUP2 GT ISZERO PUSH2 0x7DC JUMPI PUSH2 0x7DB PUSH2 0x18A2 JUMP JUMPDEST JUMPDEST PUSH1 0x40 MLOAD SWAP1 DUP1 DUP3 MSTORE DUP1 PUSH1 0x20 MUL PUSH1 0x20 ADD DUP3 ADD PUSH1 0x40 MSTORE DUP1 ISZERO PUSH2 0x80A JUMPI DUP2 PUSH1 0x20 ADD PUSH1 0x20 DUP3 MUL DUP1 CALLDATASIZE DUP4 CALLDATACOPY DUP1 DUP3 ADD SWAP2 POP POP SWAP1 POP JUMPDEST POP SWAP6 POP SWAP6 POP SWAP6 POP SWAP6 POP POP PUSH2 0xBC4 JUMP JUMPDEST PUSH0 DUP8 SWAP1 POP PUSH1 0x14 DUP2 GT ISZERO PUSH2 0x82B JUMPI PUSH1 0x14 SWAP1 POP JUMPDEST PUSH0 PUSH1 0x1 DUP11 DUP5 PUSH2 0x83A SWAP2 SWAP1 PUSH2 0x2414 JUMP JUMPDEST PUSH2 0x844 SWAP2 SWAP1 PUSH2 0x2447 JUMP JUMPDEST SWAP1 POP DUP1 DUP3 GT ISZERO PUSH2 0x852 JUMPI DUP1 SWAP2 POP JUMPDEST DUP2 PUSH8 0xFFFFFFFFFFFFFFFF DUP2 GT ISZERO PUSH2 0x86C JUMPI PUSH2 0x86B PUSH2 0x18A2 JUMP JUMPDEST JUMPDEST PUSH1 0x40 MLOAD SWAP1 DUP1 DUP3 MSTORE DUP1 PUSH1 0x20 MUL PUSH1 0x20 ADD DUP3 ADD PUSH1 0x40 MSTORE DUP1 ISZERO PUSH2 0x89A JUMPI DUP2 PUSH1 0x20 ADD PUSH1 0x20 DUP3 MUL DUP1 CALLDATASIZE DUP4 CALLDATACOPY DUP1 DUP3 ADD SWAP2 POP POP SWAP1 POP JUMPDEST POP SWAP8 POP DUP2 PUSH8 0xFFFFFFFFFFFFFFFF DUP2 GT ISZERO PUSH2 0x8B7 JUMPI PUSH2 0x8B6 PUSH2 0x18A2 JUMP JUMPDEST JUMPDEST PUSH1 0x40 MLOAD SWAP1 DUP1 DUP3 MSTORE DUP1 PUSH1 0x20 MUL PUSH1 0x20 ADD DUP3 ADD PUSH1 0x40 MSTORE DUP1 ISZERO PUSH2 0x8EA JUMPI DUP2 PUSH1 0x20 ADD JUMPDEST PUSH1 0x60 DUP2 MSTORE PUSH1 0x20 ADD SWAP1 PUSH1 0x1 SWAP1 SUB SWAP1 DUP2 PUSH2 0x8D5 JUMPI SWAP1 POP JUMPDEST POP SWAP7 POP DUP2 PUSH8 0xFFFFFFFFFFFFFFFF DUP2 GT ISZERO PUSH2 0x907 JUMPI PUSH2 0x906 PUSH2 0x18A2 JUMP JUMPDEST JUMPDEST PUSH1 0x40 MLOAD SWAP1 DUP1 DUP3 MSTORE DUP1 PUSH1 0x20 MUL PUSH1 0x20 ADD DUP3 ADD PUSH1 0x40 MSTORE DUP1 ISZERO PUSH2 0x93A JUMPI DUP2 PUSH1 0x20 ADD JUMPDEST PUSH1 0x60 DUP2 MSTORE PUSH1 0x20 ADD SWAP1 PUSH1 0x1 SWAP1 SUB SWAP1 DUP2 PUSH2 0x925 JUMPI SWAP1 POP JUMPDEST POP SWAP6 POP DUP2 PUSH8 0xFFFFFFFFFFFFFFFF DUP2 GT ISZERO PUSH2 0x957 JUMPI PUSH2 0x956 PUSH2 0x18A2 JUMP JUMPDEST JUMPDEST PUSH1 0x40 MLOAD SWAP1 DUP1 DUP3 MSTORE DUP1 PUSH1 0x20 MUL PUSH1 0x20 ADD DUP3 ADD PUSH1 0x40 MSTORE DUP1 ISZERO PUSH2 0x985 JUMPI DUP2 PUSH1 0x20 ADD PUSH1 0x20 DUP3 MUL DUP1 CALLDATASIZE DUP4 CALLDATACOPY DUP1 DUP3 ADD SWAP2 POP POP SWAP1 POP JUMPDEST POP SWAP5 POP PUSH0 JUMPDEST DUP3 DUP2 LT ISZERO PUSH2 0xBBF JUMPI PUSH0 DUP2 DUP13 PUSH2 0x99F SWAP2 SWAP1 PUSH2 0x2447 JUMP JUMPDEST SWAP1 POP PUSH0 PUSH1 0x2 PUSH0 DUP16 DUP2 MSTORE PUSH1 0x20 ADD SWAP1 DUP2 MSTORE PUSH1 0x20 ADD PUSH0 KECCAK256 PUSH0 DUP4 DUP2 MSTORE PUSH1 0x20 ADD SWAP1 DUP2 MSTORE PUSH1 0x20 ADD PUSH0 KECCAK256 SWAP1 POP DUP1 PUSH0 ADD PUSH0 SWAP1 SLOAD SWAP1 PUSH2 0x100 EXP SWAP1 DIV PUSH20 0xFFFFFFFFFFFFFFFFFFFFFFFFFFFFFFFFFFFFFFFF AND DUP12 DUP5 DUP2 MLOAD DUP2 LT PUSH2 0x9FA JUMPI PUSH2 0x9F9 PUSH2 0x247A JUMP JUMPDEST JUMPDEST PUSH1 0x20 MUL PUSH1 0x20 ADD ADD SWAP1 PUSH20 0xFFFFFFFFFFFFFFFFFFFFFFFFFFFFFFFFFFFFFFFF AND SWAP1 DUP2 PUSH20 0xFFFFFFFFFFFFFFFFFFFFFFFFFFFFFFFFFFFFFFFF AND DUP2 MSTORE POP POP DUP1 PUSH1 0x1 ADD DUP1 SLOAD PUSH2 0xA43 SWAP1 PUSH2 0x1F97 JUMP JUMPDEST DUP1 PUSH1 0x1F ADD PUSH1 0x20 DUP1 SWAP2 DIV MUL PUSH1 0x20 ADD PUSH1 0x40 MLOAD SWAP1 DUP2 ADD PUSH1 0x40 MSTORE DUP1 SWAP3 SWAP2 SWAP1 DUP2 DUP2 MSTORE PUSH1 0x20 ADD DUP3 DUP1 SLOAD PUSH2 0xA6F SWAP1 PUSH2 0x1F97 JUMP JUMPDEST DUP1 ISZERO PUSH2 0xABA JUMPI DUP1 PUSH1 0x1F LT PUSH2 0xA91 JUMPI PUSH2 0x100 DUP1 DUP4 SLOAD DIV MUL DUP4 MSTORE SWAP2 PUSH1 0x20 ADD SWAP2 PUSH2 0xABA JUMP JUMPDEST DUP3 ADD SWAP2 SWAP1 PUSH0 MSTORE PUSH1 0x20 PUSH0 KECCAK256 SWAP1 JUMPDEST DUP2 SLOAD DUP2 MSTORE SWAP1 PUSH1 0x1 ADD SWAP1 PUSH1 0x20 ADD DUP1 DUP4 GT PUSH2 0xA9D JUMPI DUP3 SWAP1 SUB PUSH1 0x1F AND DUP3 ADD SWAP2 JUMPDEST POP POP POP POP POP DUP11 DUP5 DUP2 MLOAD DUP2 LT PUSH2 0xAD2 JUMPI PUSH2 0xAD1 PUSH2 0x247A JUMP JUMPDEST JUMPDEST PUSH1 0x20 MUL PUSH1 0x20 ADD ADD DUP2 SWAP1 MSTORE POP DUP1 PUSH1 0x2 ADD DUP1 SLOAD PUSH2 0xAEC SWAP1 PUSH2 0x1F97 JUMP JUMPDEST DUP1 PUSH1 0x1F ADD PUSH1 0x20 DUP1 SWAP2 DIV MUL PUSH1 0x20 ADD PUSH1 0x40 MLOAD SWAP1 DUP2 ADD PUSH1 0x40 MSTORE DUP1 SWAP3 SWAP2 SWAP1 DUP2 DUP2 MSTORE PUSH1 0x20 ADD DUP3 DUP1 SLOAD PUSH2 0xB18 SWAP1 PUSH2 0x1F97 JUMP JUMPDEST DUP1 ISZERO PUSH2 0xB63 JUMPI DUP1 PUSH1 0x1F LT PUSH2 0xB3A JUMPI PUSH2 0x100 DUP1 DUP4 SLOAD DIV MUL DUP4 MSTORE SWAP2 PUSH1 0x20 ADD SWAP2 PUSH2 0xB63 JUMP JUMPDEST DUP3 ADD SWAP2 SWAP1 PUSH0 MSTORE PUSH1 0x20 PUSH0 KECCAK256 SWAP1 JUMPDEST DUP2 SLOAD DUP2 MSTORE SWAP1 PUSH1 0x1 ADD SWAP1 PUSH1 0x20 ADD DUP1 DUP4 GT PUSH2 0xB46 JUMPI DUP3 SWAP1 SUB PUSH1 0x1F AND DUP3 ADD SWAP2 JUMPDEST POP POP POP POP POP DUP10 DUP5 DUP2 MLOAD DUP2 LT PUSH2 0xB7B JUMPI PUSH2 0xB7A PUSH2 0x247A JUMP JUMPDEST JUMPDEST PUSH1 0x20 MUL PUSH1 0x20 ADD ADD DUP2 SWAP1 MSTORE POP DUP1 PUSH1 0x3 ADD SLOAD DUP9 DUP5 DUP2 MLOAD DUP2 LT PUSH2 0xB9E JUMPI PUSH2 0xB9D PUSH2 0x247A JUMP JUMPDEST JUMPDEST PUSH1 0x20 MUL PUSH1 0x20 ADD ADD DUP2 DUP2 MSTORE POP POP POP POP DUP1 DUP1 PUSH2 0xBB7 SWAP1 PUSH2 0x20C4 JUMP JUMPDEST SWAP2 POP POP PUSH2 0x98A JUMP JUMPDEST POP POP POP POP JUMPDEST SWAP4 SWAP8 SWAP3 SWAP7 POP SWAP4 POP SWAP4 POP JUMP JUMPDEST PUSH1 0x1 PUSH0 DUP2 SLOAD DUP1 SWAP3 SWAP2 SWAP1 PUSH2 0xBE1 SWAP1 PUSH2 0x20C4 JUMP JUMPDEST SWAP2 SWAP1 POP SSTORE POP PUSH0 DUP1 PUSH0 PUSH1 0x1 SLOAD DUP2 MSTORE PUSH1 0x20 ADD SWAP1 DUP2 MSTORE PUSH1 0x20 ADD PUSH0 KECCAK256 SWAP1 POP CALLER DUP2 PUSH0 ADD PUSH0 PUSH2 0x100 EXP DUP2 SLOAD DUP2 PUSH20 0xFFFFFFFFFFFFFFFFFFFFFFFFFFFFFFFFFFFFFFFF MUL NOT AND SWAP1 DUP4 PUSH20 0xFFFFFFFFFFFFFFFFFFFFFFFFFFFFFFFFFFFFFFFF AND MUL OR SWAP1 SSTORE POP DUP3 DUP2 PUSH1 0x1 ADD SWAP1 DUP2 PUSH2 0xC4D SWAP2 SWAP1 PUSH2 0x22A8 JUMP JUMPDEST POP DUP2 DUP2 PUSH1 0x2 ADD SWAP1 DUP2 PUSH2 0xC5F SWAP2 SWAP1 PUSH2 0x22A8 JUMP JUMPDEST POP TIMESTAMP DUP2 PUSH1 0x3 ADD DUP2 SWAP1 SSTORE POP PUSH0 DUP2 PUSH1 0x4 ADD PUSH0 PUSH2 0x100 EXP DUP2 SLOAD DUP2 PUSH1 0xFF MUL NOT AND SWAP1 DUP4 ISZERO ISZERO MUL OR SWAP1 SSTORE POP PUSH0 DUP2 PUSH1 0x5 ADD DUP2 SWAP1 SSTORE POP PUSH0 DUP2 PUSH1 0x6 ADD DUP2 SWAP1 SSTORE POP PUSH0 DUP2 PUSH1 0x8 ADD DUP2 SWAP1 SSTORE POP CALLER PUSH20 0xFFFFFFFFFFFFFFFFFFFFFFFFFFFFFFFFFFFFFFFF AND PUSH1 0x1 SLOAD PUSH32 0x5475621B07408F75D49C828CAA5AEACB3A5E98D3497E75730DC184677504401C DUP5 DUP7 PUSH1 0x40 MLOAD PUSH2 0xCEA SWAP3 SWAP2 SWAP1 PUSH2 0x2377 JUMP JUMPDEST PUSH1 0x40 MLOAD DUP1 SWAP2 SUB SWAP1 LOG3 POP POP POP JUMP JUMPDEST PUSH0 PUSH1 0x60 DUP1 PUSH0 DUP1 PUSH0 DUP1 PUSH0 DUP1 DUP10 GT DUP1 ISZERO PUSH2 0xD11 JUMPI POP PUSH1 0x1 SLOAD DUP10 GT ISZERO JUMPDEST PUSH2 0xD50 JUMPI PUSH1 0x40 MLOAD PUSH32 0x8C379A000000000000000000000000000000000000000000000000000000000 DUP2 MSTORE PUSH1 0x4 ADD PUSH2 0xD47 SWAP1 PUSH2 0x2011 JUMP JUMPDEST PUSH1 0x40 MLOAD DUP1 SWAP2 SUB SWAP1 REVERT JUMPDEST PUSH0 DUP1 PUSH0 DUP12 DUP2 MSTORE PUSH1 0x20 ADD SWAP1 DUP2 MSTORE PUSH1 0x20 ADD PUSH0 KECCAK256 SWAP1 POP DUP1 PUSH0 ADD PUSH0 SWAP1 SLOAD SWAP1 PUSH2 0x100 EXP SWAP1 DIV PUSH20 0xFFFFFFFFFFFFFFFFFFFFFFFFFFFFFFFFFFFFFFFF AND DUP2 PUSH1 0x1 ADD DUP3 PUSH1 0x2 ADD DUP4 PUSH1 0x3 ADD SLOAD DUP5 PUSH1 0x4 ADD PUSH0 SWAP1 SLOAD SWAP1 PUSH2 0x100 EXP SWAP1 DIV PUSH1 0xFF AND DUP6 PUSH1 0x5 ADD SLOAD DUP7 PUSH1 0x6 ADD SLOAD DUP8 PUSH1 0x8 ADD SLOAD DUP7 DUP1 SLOAD PUSH2 0xDBF SWAP1 PUSH2 0x1F97 JUMP JUMPDEST DUP1 PUSH1 0x1F ADD PUSH1 0x20 DUP1 SWAP2 DIV MUL PUSH1 0x20 ADD PUSH1 0x40 MLOAD SWAP1 DUP2 ADD PUSH1 0x40 MSTORE DUP1 SWAP3 SWAP2 SWAP1 DUP2 DUP2 MSTORE PUSH1 0x20 ADD DUP3 DUP1 SLOAD PUSH2 0xDEB SWAP1 PUSH2 0x1F97 JUMP JUMPDEST DUP1 ISZERO PUSH2 0xE36 JUMPI DUP1 PUSH1 0x1F LT PUSH2 0xE0D JUMPI PUSH2 0x100 DUP1 DUP4 SLOAD DIV MUL DUP4 MSTORE SWAP2 PUSH1 0x20 ADD SWAP2 PUSH2 0xE36 JUMP JUMPDEST DUP3 ADD SWAP2 SWAP1 PUSH0 MSTORE PUSH1 0x20 PUSH0 KECCAK256 SWAP1 JUMPDEST DUP2 SLOAD DUP2 MSTORE SWAP1 PUSH1 0x1 ADD SWAP1 PUSH1 0x20 ADD DUP1 DUP4 GT PUSH2 0xE19 JUMPI DUP3 SWAP1 SUB PUSH1 0x1F AND DUP3 ADD SWAP2 JUMPDEST POP POP POP POP POP SWAP7 POP DUP6 DUP1 SLOAD PUSH2 0xE49 SWAP1 PUSH2 0x1F97 JUMP JUMPDEST DUP1 PUSH1 0x1F ADD PUSH1 0x20 DUP1 SWAP2 DIV MUL PUSH1 0x20 ADD PUSH1 0x40 MLOAD SWAP1 DUP2 ADD PUSH1 0x40 MSTORE DUP1 SWAP3 SWAP2 SWAP1 DUP2 DUP2 MSTORE PUSH1 0x20 ADD DUP3 DUP1 SLOAD PUSH2 0xE75 SWAP1 PUSH2 0x1F97 JUMP JUMPDEST DUP1 ISZERO PUSH2 0xEC0 JUMPI DUP1 PUSH1 0x1F LT PUSH2 0xE97 JUMPI PUSH2 0x100 DUP1 DUP4 SLOAD DIV MUL DUP4 MSTORE SWAP2 PUSH1 0x20 ADD SWAP2 PUSH2 0xEC0 JUMP JUMPDEST DUP3 ADD SWAP2 SWAP1 PUSH0 MSTORE PUSH1 0x20 PUSH0 KECCAK256 SWAP1 JUMPDEST DUP2 SLOAD DUP2 MSTORE SWAP1 PUSH1 0x1 ADD SWAP1 PUSH1 0x20 ADD DUP1 DUP4 GT PUSH2 0xEA3 JUMPI DUP3 SWAP1 SUB PUSH1 0x1F AND DUP3 ADD SWAP2 JUMPDEST POP POP POP POP POP SWAP6 POP SWAP9 POP SWAP9 POP SWAP9 POP SWAP9 POP SWAP9 POP SWAP9 POP SWAP9 POP SWAP9 POP POP SWAP2 SWAP4 SWAP6 SWAP8 POP SWAP2 SWAP4 SWAP6 SWAP8 JUMP JUMPDEST PUSH0 DUP1 DUP4 GT DUP1 ISZERO PUSH2 0xEF5 JUMPI POP PUSH1 0x1 SLOAD DUP4 GT ISZERO JUMPDEST PUSH2 0xF34 JUMPI PUSH1 0x40 MLOAD PUSH32 0x8C379A000000000000000000000000000000000000000000000000000000000 DUP2 MSTORE PUSH1 0x4 ADD PUSH2 0xF2B SWAP1 PUSH2 0x2011 JUMP JUMPDEST PUSH1 0x40 MLOAD DUP1 SWAP2 SUB SWAP1 REVERT JUMPDEST PUSH0 DUP1 DUP5 DUP2 MSTORE PUSH1 0x20 ADD SWAP1 DUP2 MSTORE PUSH1 0x20 ADD PUSH0 KECCAK256 PUSH1 0x7 ADD PUSH0 DUP4 PUSH20 0xFFFFFFFFFFFFFFFFFFFFFFFFFFFFFFFFFFFFFFFF AND PUSH20 0xFFFFFFFFFFFFFFFFFFFFFFFFFFFFFFFFFFFFFFFF AND DUP2 MSTORE PUSH1 0x20 ADD SWAP1 DUP2 MSTORE PUSH1 0x20 ADD PUSH0 KECCAK256 PUSH0 SWAP1 SLOAD SWAP1 PUSH2 0x100 EXP SWAP1 DIV PUSH1 0xFF AND SWAP1 POP SWAP3 SWAP2 POP POP JUMP JUMPDEST PUSH0 PUSH1 0x60 DUP1 PUSH0 DUP1 DUP7 GT DUP1 ISZERO PUSH2 0xFAD JUMPI POP PUSH1 0x1 SLOAD DUP7 GT ISZERO JUMPDEST PUSH2 0xFEC JUMPI PUSH1 0x40 MLOAD PUSH32 0x8C379A000000000000000000000000000000000000000000000000000000000 DUP2 MSTORE PUSH1 0x4 ADD PUSH2 0xFE3 SWAP1 PUSH2 0x2011 JUMP JUMPDEST PUSH1 0x40 MLOAD DUP1 SWAP2 SUB SWAP1 REVERT JUMPDEST PUSH0 DUP6 GT DUP1 ISZERO PUSH2 0x100E JUMPI POP PUSH0 DUP1 DUP8 DUP2 MSTORE PUSH1 0x20 ADD SWAP1 DUP2 MSTORE PUSH1 0x20 ADD PUSH0 KECCAK256 PUSH1 0x8 ADD SLOAD DUP6 GT ISZERO JUMPDEST PUSH2 0x104D JUMPI PUSH1 0x40 MLOAD PUSH32 0x8C379A000000000000000000000000000000000000000000000000000000000 DUP2 MSTORE PUSH1 0x4 ADD PUSH2 0x1044 SWAP1 PUSH2 0x24F1 JUMP JUMPDEST PUSH1 0x40 MLOAD DUP1 SWAP2 SUB SWAP1 REVERT JUMPDEST PUSH0 PUSH1 0x2 PUSH0 DUP9 DUP2 MSTORE PUSH1 0x20 ADD SWAP1 DUP2 MSTORE PUSH1 0x20 ADD PUSH0 KECCAK256 PUSH0 DUP8 DUP2 MSTORE PUSH1 0x20 ADD SWAP1 DUP2 MSTORE PUSH1 0x20 ADD PUSH0 KECCAK256 SWAP1 POP DUP1 PUSH0 ADD PUSH0 SWAP1 SLOAD SWAP1 PUSH2 0x100 EXP SWAP1 DIV PUSH20 0xFFFFFFFFFFFFFFFFFFFFFFFFFFFFFFFFFFFFFFFF AND DUP2 PUSH1 0x1 ADD DUP3 PUSH1 0x2 ADD DUP4 PUSH1 0x3 ADD SLOAD DUP3 DUP1 SLOAD PUSH2 0x10AC SWAP1 PUSH2 0x1F97 JUMP JUMPDEST DUP1 PUSH1 0x1F ADD PUSH1 0x20 DUP1 SWAP2 DIV MUL PUSH1 0x20 ADD PUSH1 0x40 MLOAD SWAP1 DUP2 ADD PUSH1 0x40 MSTORE DUP1 SWAP3 SWAP2 SWAP1 DUP2 DUP2 MSTORE PUSH1 0x20 ADD DUP3 DUP1 SLOAD PUSH2 0x10D8 SWAP1 PUSH2 0x1F97 JUMP JUMPDEST DUP1 ISZERO PUSH2 0x1123 JUMPI DUP1 PUSH1 0x1F LT PUSH2 0x10FA JUMPI PUSH2 0x100 DUP1 DUP4 SLOAD DIV MUL DUP4 MSTORE SWAP2 PUSH1 0x20 ADD SWAP2 PUSH2 0x1123 JUMP JUMPDEST DUP3 ADD SWAP2 SWAP1 PUSH0 MSTORE PUSH1 0x20 PUSH0 KECCAK256 SWAP1 JUMPDEST DUP2 SLOAD DUP2 MSTORE SWAP1 PUSH1 0x1 ADD SWAP1 PUSH1 0x20 ADD DUP1 DUP4 GT PUSH2 0x1106 JUMPI DUP3 SWAP1 SUB PUSH1 0x1F AND DUP3 ADD SWAP2 JUMPDEST POP POP POP POP POP SWAP3 POP DUP2 DUP1 SLOAD PUSH2 0x1136 SWAP1 PUSH2 0x1F97 JUMP JUMPDEST DUP1 PUSH1 0x1F ADD PUSH1 0x20 DUP1 SWAP2 DIV MUL PUSH1 0x20 ADD PUSH1 0x40 MLOAD SWAP1 DUP2 ADD PUSH1 0x40 MSTORE DUP1 SWAP3 SWAP2 SWAP1 DUP2 DUP2 MSTORE PUSH1 0x20 ADD DUP3 DUP1 SLOAD PUSH2 0x1162 SWAP1 PUSH2 0x1F97 JUMP JUMPDEST DUP1 ISZERO PUSH2 0x11AD JUMPI DUP1 PUSH1 0x1F LT PUSH2 0x1184 JUMPI PUSH2 0x100 DUP1 DUP4 SLOAD DIV MUL DUP4 MSTORE SWAP2 PUSH1 0x20 ADD SWAP2 PUSH2 0x11AD JUMP JUMPDEST DUP3 ADD SWAP2 SWAP1 PUSH0 MSTORE PUSH1 0x20 PUSH0 KECCAK256 SWAP1 JUMPDEST DUP2 SLOAD DUP2 MSTORE SWAP1 PUSH1 0x1 ADD SWAP1 PUSH1 0x20 ADD DUP1 DUP4 GT PUSH2 0x1190 JUMPI DUP3 SWAP1 SUB PUSH1 0x1F AND DUP3 ADD SWAP2 JUMPDEST POP POP POP POP POP SWAP2 POP SWAP5 POP SWAP5 POP SWAP5 POP SWAP5 POP POP SWAP3 SWAP6 SWAP2 SWAP5 POP SWAP3 POP JUMP JUMPDEST PUSH0 DUP3 GT DUP1 ISZERO PUSH2 0x11D7 JUMPI POP PUSH1 0x1 SLOAD DUP3 GT ISZERO JUMPDEST PUSH2 0x1216 JUMPI PUSH1 0x40 MLOAD PUSH32 0x8C379A000000000000000000000000000000000000000000000000000000000 DUP2 MSTORE PUSH1 0x4 ADD PUSH2 0x120D SWAP1 PUSH2 0x2011 JUMP JUMPDEST PUSH1 0x40 MLOAD DUP1 SWAP2 SUB SWAP1 REVERT JUMPDEST PUSH0 DUP1 PUSH0 DUP5 DUP2 MSTORE PUSH1 0x20 ADD SWAP1 DUP2 MSTORE PUSH1 0x20 ADD PUSH0 KECCAK256 SWAP1 POP DUP1 PUSH1 0x4 ADD PUSH0 SWAP1 SLOAD SWAP1 PUSH2 0x100 EXP SWAP1 DIV PUSH1 0xFF AND PUSH2 0x132F JUMPI CALLER PUSH20 0xFFFFFFFFFFFFFFFFFFFFFFFFFFFFFFFFFFFFFFFF AND DUP2 PUSH0 ADD PUSH0 SWAP1 SLOAD SWAP1 PUSH2 0x100 EXP SWAP1 DIV PUSH20 0xFFFFFFFFFFFFFFFFFFFFFFFFFFFFFFFFFFFFFFFF AND PUSH20 0xFFFFFFFFFFFFFFFFFFFFFFFFFFFFFFFFFFFFFFFF AND SUB PUSH2 0x12CE JUMPI PUSH1 0x40 MLOAD PUSH32 0x8C379A000000000000000000000000000000000000000000000000000000000 DUP2 MSTORE PUSH1 0x4 ADD PUSH2 0x12C5 SWAP1 PUSH2 0x2559 JUMP JUMPDEST PUSH1 0x40 MLOAD DUP1 SWAP2 SUB SWAP1 REVERT JUMPDEST PUSH1 0x1 DUP2 PUSH1 0x4 ADD PUSH0 PUSH2 0x100 EXP DUP2 SLOAD DUP2 PUSH1 0xFF MUL NOT AND SWAP1 DUP4 ISZERO ISZERO MUL OR SWAP1 SSTORE POP CALLER PUSH20 0xFFFFFFFFFFFFFFFFFFFFFFFFFFFFFFFFFFFFFFFF AND DUP4 PUSH32 0xEDC96EF82A3FD8EA664DD4FE50F94C77BE3C3D6130792C3ED8B0199E3C28EC62 PUSH1 0x40 MLOAD PUSH1 0x40 MLOAD DUP1 SWAP2 SUB SWAP1 LOG3 JUMPDEST DUP1 PUSH1 0x7 ADD PUSH0 CALLER PUSH20 0xFFFFFFFFFFFFFFFFFFFFFFFFFFFFFFFFFFFFFFFF AND PUSH20 0xFFFFFFFFFFFFFFFFFFFFFFFFFFFFFFFFFFFFFFFF AND DUP2 MSTORE PUSH1 0x20 ADD SWAP1 DUP2 MSTORE PUSH1 0x20 ADD PUSH0 KECCAK256 PUSH0 SWAP1 SLOAD SWAP1 PUSH2 0x100 EXP SWAP1 DIV PUSH1 0xFF AND ISZERO PUSH2 0x13BB JUMPI PUSH1 0x40 MLOAD PUSH32 0x8C379A000000000000000000000000000000000000000000000000000000000 DUP2 MSTORE PUSH1 0x4 ADD PUSH2 0x13B2 SWAP1 PUSH2 0x25C1 JUMP JUMPDEST PUSH1 0x40 MLOAD DUP1 SWAP2 SUB SWAP1 REVERT JUMPDEST CALLER PUSH20 0xFFFFFFFFFFFFFFFFFFFFFFFFFFFFFFFFFFFFFFFF AND DUP2 PUSH0 ADD PUSH0 SWAP1 SLOAD SWAP1 PUSH2 0x100 EXP SWAP1 DIV PUSH20 0xFFFFFFFFFFFFFFFFFFFFFFFFFFFFFFFFFFFFFFFF AND PUSH20 0xFFFFFFFFFFFFFFFFFFFFFFFFFFFFFFFFFFFFFFFF AND SUB PUSH2 0x144B JUMPI PUSH1 0x40 MLOAD PUSH32 0x8C379A000000000000000000000000000000000000000000000000000000000 DUP2 MSTORE PUSH1 0x4 ADD PUSH2 0x1442 SWAP1 PUSH2 0x2629 JUMP JUMPDEST PUSH1 0x40 MLOAD DUP1 SWAP2 SUB SWAP1 REVERT JUMPDEST PUSH1 0x1 DUP2 PUSH1 0x7 ADD PUSH0 CALLER PUSH20 0xFFFFFFFFFFFFFFFFFFFFFFFFFFFFFFFFFFFFFFFF AND PUSH20 0xFFFFFFFFFFFFFFFFFFFFFFFFFFFFFFFFFFFFFFFF AND DUP2 MSTORE PUSH1 0x20 ADD SWAP1 DUP2 MSTORE PUSH1 0x20 ADD PUSH0 KECCAK256 PUSH0 PUSH2 0x100 EXP DUP2 SLOAD DUP2 PUSH1 0xFF MUL NOT AND SWAP1 DUP4 ISZERO ISZERO MUL OR SWAP1 SSTORE POP DUP2 ISZERO PUSH2 0x14C6 JUMPI DUP1 PUSH1 0x5 ADD PUSH0 DUP2 SLOAD DUP1 SWAP3 SWAP2 SWAP1 PUSH2 0x14BC SWAP1 PUSH2 0x20C4 JUMP JUMPDEST SWAP2 SWAP1 POP SSTORE POP PUSH2 0x14E0 JUMP JUMPDEST DUP1 PUSH1 0x6 ADD PUSH0 DUP2 SLOAD DUP1 SWAP3 SWAP2 SWAP1 PUSH2 0x14DA SWAP1 PUSH2 0x20C4 JUMP JUMPDEST SWAP2 SWAP1 POP SSTORE POP JUMPDEST CALLER PUSH20 0xFFFFFFFFFFFFFFFFFFFFFFFFFFFFFFFFFFFFFFFF AND DUP4 PUSH32 0xE71FCDAC32DF1877C1700E7BDA2A03157E20993363A28FC35AC495CEFC76E4D4 DUP5 PUSH1 0x40 MLOAD PUSH2 0x1527 SWAP2 SWAP1 PUSH2 0x1E5A JUMP JUMPDEST PUSH1 0x40 MLOAD DUP1 SWAP2 SUB SWAP1 LOG3 POP POP POP JUMP JUMPDEST PUSH1 0x2 PUSH1 0x20 MSTORE DUP2 PUSH0 MSTORE PUSH1 0x40 PUSH0 KECCAK256 PUSH1 0x20 MSTORE DUP1 PUSH0 MSTORE PUSH1 0x40 PUSH0 KECCAK256 PUSH0 SWAP2 POP SWAP2 POP POP DUP1 PUSH0 ADD PUSH0 SWAP1 SLOAD SWAP1 PUSH2 0x100 EXP SWAP1 DIV PUSH20 0xFFFFFFFFFFFFFFFFFFFFFFFFFFFFFFFFFFFFFFFF AND SWAP1 DUP1 PUSH1 0x1 ADD DUP1 SLOAD PUSH2 0x1583 SWAP1 PUSH2 0x1F97 JUMP JUMPDEST DUP1 PUSH1 0x1F ADD PUSH1 0x20 DUP1 SWAP2 DIV MUL PUSH1 0x20 ADD PUSH1 0x40 MLOAD SWAP1 DUP2 ADD PUSH1 0x40 MSTORE DUP1 SWAP3 SWAP2 SWAP1 DUP2 DUP2 MSTORE PUSH1 0x20 ADD DUP3 DUP1 SLOAD PUSH2 0x15AF SWAP1 PUSH2 0x1F97 JUMP JUMPDEST DUP1 ISZERO PUSH2 0x15FA JUMPI DUP1 PUSH1 0x1F LT PUSH2 0x15D1 JUMPI PUSH2 0x100 DUP1 DUP4 SLOAD DIV MUL DUP4 MSTORE SWAP2 PUSH1 0x20 ADD SWAP2 PUSH2 0x15FA JUMP JUMPDEST DUP3 ADD SWAP2 SWAP1 PUSH0 MSTORE PUSH1 0x20 PUSH0 KECCAK256 SWAP1 JUMPDEST DUP2 SLOAD DUP2 MSTORE SWAP1 PUSH1 0x1 ADD SWAP1 PUSH1 0x20 ADD DUP1 DUP4 GT PUSH2 0x15DD JUMPI DUP3 SWAP1 SUB PUSH1 0x1F AND DUP3 ADD SWAP2 JUMPDEST POP POP POP POP POP SWAP1 DUP1 PUSH1 0x2 ADD DUP1 SLOAD PUSH2 0x160F SWAP1 PUSH2 0x1F97 JUMP JUMPDEST DUP1 PUSH1 0x1F ADD PUSH1 0x20 DUP1 SWAP2 DIV MUL PUSH1 0x20 ADD PUSH1 0x40 MLOAD SWAP1 DUP2 ADD PUSH1 0x40 MSTORE DUP1 SWAP3 SWAP2 SWAP1 DUP2 DUP2 MSTORE PUSH1 0x20 ADD DUP3 DUP1 SLOAD PUSH2 0x163B SWAP1 PUSH2 0x1F97 JUMP JUMPDEST DUP1 ISZERO PUSH2 0x1686 JUMPI DUP1 PUSH1 0x1F LT PUSH2 0x165D JUMPI PUSH2 0x100 DUP1 DUP4 SLOAD DIV MUL DUP4 MSTORE SWAP2 PUSH1 0x20 ADD SWAP2 PUSH2 0x1686 JUMP JUMPDEST DUP3 ADD SWAP2 SWAP1 PUSH0 MSTORE PUSH1 0x20 PUSH0 KECCAK256 SWAP1 JUMPDEST DUP2 SLOAD DUP2 MSTORE SWAP1 PUSH1 0x1 ADD SWAP1 PUSH1 0x20 ADD DUP1 DUP4 GT PUSH2 0x1669 JUMPI DUP3 SWAP1 SUB PUSH1 0x1F AND DUP3 ADD SWAP2 JUMPDEST POP POP POP POP POP SWAP1 DUP1 PUSH1 0x3 ADD SLOAD SWAP1 POP DUP5 JUMP JUMPDEST PUSH0 PUSH1 0x40 MLOAD SWAP1 POP SWAP1 JUMP JUMPDEST PUSH0 DUP1 REVERT JUMPDEST PUSH0 DUP1 REVERT JUMPDEST PUSH0 DUP2 SWAP1 POP SWAP2 SWAP1 POP JUMP JUMPDEST PUSH2 0x16B9 DUP2 PUSH2 0x16A7 JUMP JUMPDEST DUP2 EQ PUSH2 0x16C3 JUMPI PUSH0 DUP1 REVERT JUMPDEST POP JUMP JUMPDEST PUSH0 DUP2 CALLDATALOAD SWAP1 POP PUSH2 0x16D4 DUP2 PUSH2 0x16B0 JUMP JUMPDEST SWAP3 SWAP2 POP POP JUMP JUMPDEST PUSH0 PUSH1 0x20 DUP3 DUP5 SUB SLT ISZERO PUSH2 0x16EF JUMPI PUSH2 0x16EE PUSH2 0x169F JUMP JUMPDEST JUMPDEST PUSH0 PUSH2 0x16FC DUP5 DUP3 DUP6 ADD PUSH2 0x16C6 JUMP JUMPDEST SWAP2 POP POP SWAP3 SWAP2 POP POP JUMP JUMPDEST PUSH0 PUSH20 0xFFFFFFFFFFFFFFFFFFFFFFFFFFFFFFFFFFFFFFFF DUP3 AND SWAP1 POP SWAP2 SWAP1 POP JUMP JUMPDEST PUSH0 PUSH2 0x172E DUP3 PUSH2 0x1705 JUMP JUMPDEST SWAP1 POP SWAP2 SWAP1 POP JUMP JUMPDEST PUSH2 0x173E DUP2 PUSH2 0x1724 JUMP JUMPDEST DUP3 MSTORE POP POP JUMP JUMPDEST PUSH0 DUP2 MLOAD SWAP1 POP SWAP2 SWAP1 POP JUMP JUMPDEST PUSH0 DUP3 DUP3 MSTORE PUSH1 0x20 DUP3 ADD SWAP1 POP SWAP3 SWAP2 POP POP JUMP JUMPDEST PUSH0 JUMPDEST DUP4 DUP2 LT ISZERO PUSH2 0x177B JUMPI DUP1 DUP3 ADD MLOAD DUP2 DUP5 ADD MSTORE PUSH1 0x20 DUP2 ADD SWAP1 POP PUSH2 0x1760 JUMP JUMPDEST PUSH0 DUP5 DUP5 ADD MSTORE POP POP POP POP JUMP JUMPDEST PUSH0 PUSH1 0x1F NOT PUSH1 0x1F DUP4 ADD AND SWAP1 POP SWAP2 SWAP1 POP JUMP JUMPDEST PUSH0 PUSH2 0x17A0 DUP3 PUSH2 0x1744 JUMP JUMPDEST PUSH2 0x17AA DUP2 DUP6 PUSH2 0x174E JUMP JUMPDEST SWAP4 POP PUSH2 0x17BA DUP2 DUP6 PUSH1 0x20 DUP7 ADD PUSH2 0x175E JUMP JUMPDEST PUSH2 0x17C3 DUP2 PUSH2 0x1786 JUMP JUMPDEST DUP5 ADD SWAP2 POP POP SWAP3 SWAP2 POP POP JUMP JUMPDEST PUSH2 0x17D7 DUP2 PUSH2 0x16A7 JUMP JUMPDEST DUP3 MSTORE POP POP JUMP JUMPDEST PUSH0 DUP2 ISZERO ISZERO SWAP1 POP SWAP2 SWAP1 POP JUMP JUMPDEST PUSH2 0x17F1 DUP2 PUSH2 0x17DD JUMP JUMPDEST DUP3 MSTORE POP POP JUMP JUMPDEST PUSH0 PUSH2 0x100 DUP3 ADD SWAP1 POP PUSH2 0x180B PUSH0 DUP4 ADD DUP12 PUSH2 0x1735 JUMP JUMPDEST DUP2 DUP2 SUB PUSH1 0x20 DUP4 ADD MSTORE PUSH2 0x181D DUP2 DUP11 PUSH2 0x1796 JUMP JUMPDEST SWAP1 POP DUP2 DUP2 SUB PUSH1 0x40 DUP4 ADD MSTORE PUSH2 0x1831 DUP2 DUP10 PUSH2 0x1796 JUMP JUMPDEST SWAP1 POP PUSH2 0x1840 PUSH1 0x60 DUP4 ADD DUP9 PUSH2 0x17CE JUMP JUMPDEST PUSH2 0x184D PUSH1 0x80 DUP4 ADD DUP8 PUSH2 0x17E8 JUMP JUMPDEST PUSH2 0x185A PUSH1 0xA0 DUP4 ADD DUP7 PUSH2 0x17CE JUMP JUMPDEST PUSH2 0x1867 PUSH1 0xC0 DUP4 ADD DUP6 PUSH2 0x17CE JUMP JUMPDEST PUSH2 0x1874 PUSH1 0xE0 DUP4 ADD DUP5 PUSH2 0x17CE JUMP JUMPDEST SWAP10 SWAP9 POP POP POP POP POP POP POP POP POP JUMP JUMPDEST PUSH0 PUSH1 0x20 DUP3 ADD SWAP1 POP PUSH2 0x1894 PUSH0 DUP4 ADD DUP5 PUSH2 0x17CE JUMP JUMPDEST SWAP3 SWAP2 POP POP JUMP JUMPDEST PUSH0 DUP1 REVERT JUMPDEST PUSH0 DUP1 REVERT JUMPDEST PUSH32 0x4E487B7100000000000000000000000000000000000000000000000000000000 PUSH0 MSTORE PUSH1 0x41 PUSH1 0x4 MSTORE PUSH1 0x24 PUSH0 REVERT JUMPDEST PUSH2 0x18D8 DUP3 PUSH2 0x1786 JUMP JUMPDEST DUP2 ADD DUP2 DUP2 LT PUSH8 0xFFFFFFFFFFFFFFFF DUP3 GT OR ISZERO PUSH2 0x18F7 JUMPI PUSH2 0x18F6 PUSH2 0x18A2 JUMP JUMPDEST JUMPDEST DUP1 PUSH1 0x40 MSTORE POP POP POP JUMP JUMPDEST PUSH0 PUSH2 0x1909 PUSH2 0x1696 JUMP JUMPDEST SWAP1 POP PUSH2 0x1915 DUP3 DUP3 PUSH2 0x18CF JUMP JUMPDEST SWAP2 SWAP1 POP JUMP JUMPDEST PUSH0 PUSH8 0xFFFFFFFFFFFFFFFF DUP3 GT ISZERO PUSH2 0x1934 JUMPI PUSH2 0x1933 PUSH2 0x18A2 JUMP JUMPDEST JUMPDEST PUSH2 0x193D DUP3 PUSH2 0x1786 JUMP JUMPDEST SWAP1 POP PUSH1 0x20 DUP2 ADD SWAP1 POP SWAP2 SWAP1 POP JUMP JUMPDEST DUP3 DUP2 DUP4 CALLDATACOPY PUSH0 DUP4 DUP4 ADD MSTORE POP POP POP JUMP JUMPDEST PUSH0 PUSH2 0x196A PUSH2 0x1965 DUP5 PUSH2 0x191A JUMP JUMPDEST PUSH2 0x1900 JUMP JUMPDEST SWAP1 POP DUP3 DUP2 MSTORE PUSH1 0x20 DUP2 ADD DUP5 DUP5 DUP5 ADD GT ISZERO PUSH2 0x1986 JUMPI PUSH2 0x1985 PUSH2 0x189E JUMP JUMPDEST JUMPDEST PUSH2 0x1991 DUP5 DUP3 DUP6 PUSH2 0x194A JUMP JUMPDEST POP SWAP4 SWAP3 POP POP POP JUMP JUMPDEST PUSH0 DUP3 PUSH1 0x1F DUP4 ADD SLT PUSH2 0x19AD JUMPI PUSH2 0x19AC PUSH2 0x189A JUMP JUMPDEST JUMPDEST DUP2 CALLDATALOAD PUSH2 0x19BD DUP5 DUP3 PUSH1 0x20 DUP7 ADD PUSH2 0x1958 JUMP JUMPDEST SWAP2 POP POP SWAP3 SWAP2 POP POP JUMP JUMPDEST PUSH0 DUP1 PUSH0 PUSH1 0x60 DUP5 DUP7 SUB SLT ISZERO PUSH2 0x19DD JUMPI PUSH2 0x19DC PUSH2 0x169F JUMP JUMPDEST JUMPDEST PUSH0 PUSH2 0x19EA DUP7 DUP3 DUP8 ADD PUSH2 0x16C6 JUMP JUMPDEST SWAP4 POP POP PUSH1 0x20 DUP5 ADD CALLDATALOAD PUSH8 0xFFFFFFFFFFFFFFFF DUP2 GT ISZERO PUSH2 0x1A0B JUMPI PUSH2 0x1A0A PUSH2 0x16A3 JUMP JUMPDEST JUMPDEST PUSH2 0x1A17 DUP7 DUP3 DUP8 ADD PUSH2 0x1999 JUMP JUMPDEST SWAP3 POP POP PUSH1 0x40 DUP5 ADD CALLDATALOAD PUSH8 0xFFFFFFFFFFFFFFFF DUP2 GT ISZERO PUSH2 0x1A38 JUMPI PUSH2 0x1A37 PUSH2 0x16A3 JUMP JUMPDEST JUMPDEST PUSH2 0x1A44 DUP7 DUP3 DUP8 ADD PUSH2 0x1999 JUMP JUMPDEST SWAP2 POP POP SWAP3 POP SWAP3 POP SWAP3 JUMP JUMPDEST PUSH0 DUP1 PUSH0 PUSH1 0x60 DUP5 DUP7 SUB SLT ISZERO PUSH2 0x1A65 JUMPI PUSH2 0x1A64 PUSH2 0x169F JUMP JUMPDEST JUMPDEST PUSH0 PUSH2 0x1A72 DUP7 DUP3 DUP8 ADD PUSH2 0x16C6 JUMP JUMPDEST SWAP4 POP POP PUSH1 0x20 PUSH2 0x1A83 DUP7 DUP3 DUP8 ADD PUSH2 0x16C6 JUMP JUMPDEST SWAP3 POP POP PUSH1 0x40 PUSH2 0x1A94 DUP7 DUP3 DUP8 ADD PUSH2 0x16C6 JUMP JUMPDEST SWAP2 POP POP SWAP3 POP SWAP3 POP SWAP3 JUMP JUMPDEST PUSH0 DUP2 MLOAD SWAP1 POP SWAP2 SWAP1 POP JUMP JUMPDEST PUSH0 DUP3 DUP3 MSTORE PUSH1 0x20 DUP3 ADD SWAP1 POP SWAP3 SWAP2 POP POP JUMP JUMPDEST PUSH0 DUP2 SWAP1 POP PUSH1 0x20 DUP3 ADD SWAP1 POP SWAP2 SWAP1 POP JUMP JUMPDEST PUSH2 0x1AD0 DUP2 PUSH2 0x1724 JUMP JUMPDEST DUP3 MSTORE POP POP JUMP JUMPDEST PUSH0 PUSH2 0x1AE1 DUP4 DUP4 PUSH2 0x1AC7 JUMP JUMPDEST PUSH1 0x20 DUP4 ADD SWAP1 POP SWAP3 SWAP2 POP POP JUMP JUMPDEST PUSH0 PUSH1 0x20 DUP3 ADD SWAP1 POP SWAP2 SWAP1 POP JUMP JUMPDEST PUSH0 PUSH2 0x1B03 DUP3 PUSH2 0x1A9E JUMP JUMPDEST PUSH2 0x1B0D DUP2 DUP6 PUSH2 0x1AA8 JUMP JUMPDEST SWAP4 POP PUSH2 0x1B18 DUP4 PUSH2 0x1AB8 JUMP JUMPDEST DUP1 PUSH0 JUMPDEST DUP4 DUP2 LT ISZERO PUSH2 0x1B48 JUMPI DUP2 MLOAD PUSH2 0x1B2F DUP9 DUP3 PUSH2 0x1AD6 JUMP JUMPDEST SWAP8 POP PUSH2 0x1B3A DUP4 PUSH2 0x1AED JUMP JUMPDEST SWAP3 POP POP PUSH1 0x1 DUP2 ADD SWAP1 POP PUSH2 0x1B1B JUMP JUMPDEST POP DUP6 SWAP4 POP POP POP POP SWAP3 SWAP2 POP POP JUMP JUMPDEST PUSH0 DUP2 MLOAD SWAP1 POP SWAP2 SWAP1 POP JUMP JUMPDEST PUSH0 DUP3 DUP3 MSTORE PUSH1 0x20 DUP3 ADD SWAP1 POP SWAP3 SWAP2 POP POP JUMP JUMPDEST PUSH0 DUP2 SWAP1 POP PUSH1 0x20 DUP3 ADD SWAP1 POP SWAP2 SWAP1 POP JUMP JUMPDEST PUSH0 DUP3 DUP3 MSTORE PUSH1 0x20 DUP3 ADD SWAP1 POP SWAP3 SWAP2 POP POP JUMP JUMPDEST PUSH0 PUSH2 0x1B98 DUP3 PUSH2 0x1744 JUMP JUMPDEST PUSH2 0x1BA2 DUP2 DUP6 PUSH2 0x1B7E JUMP JUMPDEST SWAP4 POP PUSH2 0x1BB2 DUP2 DUP6 PUSH1 0x20 DUP7 ADD PUSH2 0x175E JUMP JUMPDEST PUSH2 0x1BBB DUP2 PUSH2 0x1786 JUMP JUMPDEST DUP5 ADD SWAP2 POP POP SWAP3 SWAP2 POP POP JUMP JUMPDEST PUSH0 PUSH2 0x1BD1 DUP4 DUP4 PUSH2 0x1B8E JUMP JUMPDEST SWAP1 POP SWAP3 SWAP2 POP POP JUMP JUMPDEST PUSH0 PUSH1 0x20 DUP3 ADD SWAP1 POP SWAP2 SWAP1 POP JUMP JUMPDEST PUSH0 PUSH2 0x1BEF DUP3 PUSH2 0x1B55 JUMP JUMPDEST PUSH2 0x1BF9 DUP2 DUP6 PUSH2 0x1B5F JUMP JUMPDEST SWAP4 POP DUP4 PUSH1 0x20 DUP3 MUL DUP6 ADD PUSH2 0x1C0B DUP6 PUSH2 0x1B6F JUMP JUMPDEST DUP1 PUSH0 JUMPDEST DUP6 DUP2 LT ISZERO PUSH2 0x1C46 JUMPI DUP5 DUP5 SUB DUP10 MSTORE DUP2 MLOAD PUSH2 0x1C27 DUP6 DUP3 PUSH2 0x1BC6 JUMP JUMPDEST SWAP5 POP PUSH2 0x1C32 DUP4 PUSH2 0x1BD9 JUMP JUMPDEST SWAP3 POP PUSH1 0x20 DUP11 ADD SWAP10 POP POP PUSH1 0x1 DUP2 ADD SWAP1 POP PUSH2 0x1C0E JUMP JUMPDEST POP DUP3 SWAP8 POP DUP8 SWAP6 POP POP POP POP POP POP SWAP3 SWAP2 POP POP JUMP JUMPDEST PUSH0 DUP2 MLOAD SWAP1 POP SWAP2 SWAP1 POP JUMP JUMPDEST PUSH0 DUP3 DUP3 MSTORE PUSH1 0x20 DUP3 ADD SWAP1 POP SWAP3 SWAP2 POP POP JUMP JUMPDEST PUSH0 DUP2 SWAP1 POP PUSH1 0x20 DUP3 ADD SWAP1 POP SWAP2 SWAP1 POP JUMP JUMPDEST PUSH2 0x1C8A DUP2 PUSH2 0x16A7 JUMP JUMPDEST DUP3 MSTORE POP POP JUMP JUMPDEST PUSH0 PUSH2 0x1C9B DUP4 DUP4 PUSH2 0x1C81 JUMP JUMPDEST PUSH1 0x20 DUP4 ADD SWAP1 POP SWAP3 SWAP2 POP POP JUMP JUMPDEST PUSH0 PUSH1 0x20 DUP3 ADD SWAP1 POP SWAP2 SWAP1 POP JUMP JUMPDEST PUSH0 PUSH2 0x1CBD DUP3 PUSH2 0x1C58 JUMP JUMPDEST PUSH2 0x1CC7 DUP2 DUP6 PUSH2 0x1C62 JUMP JUMPDEST SWAP4 POP PUSH2 0x1CD2 DUP4 PUSH2 0x1C72 JUMP JUMPDEST DUP1 PUSH0 JUMPDEST DUP4 DUP2 LT ISZERO PUSH2 0x1D02 JUMPI DUP2 MLOAD PUSH2 0x1CE9 DUP9 DUP3 PUSH2 0x1C90 JUMP JUMPDEST SWAP8 POP PUSH2 0x1CF4 DUP4 PUSH2 0x1CA7 JUMP JUMPDEST SWAP3 POP POP PUSH1 0x1 DUP2 ADD SWAP1 POP PUSH2 0x1CD5 JUMP JUMPDEST POP DUP6 SWAP4 POP POP POP POP SWAP3 SWAP2 POP POP JUMP JUMPDEST PUSH0 PUSH1 0xA0 DUP3 ADD SWAP1 POP DUP2 DUP2 SUB PUSH0 DUP4 ADD MSTORE PUSH2 0x1D27 DUP2 DUP9 PUSH2 0x1AF9 JUMP JUMPDEST SWAP1 POP DUP2 DUP2 SUB PUSH1 0x20 DUP4 ADD MSTORE PUSH2 0x1D3B DUP2 DUP8 PUSH2 0x1BE5 JUMP JUMPDEST SWAP1 POP DUP2 DUP2 SUB PUSH1 0x40 DUP4 ADD MSTORE PUSH2 0x1D4F DUP2 DUP7 PUSH2 0x1BE5 JUMP JUMPDEST SWAP1 POP DUP2 DUP2 SUB PUSH1 0x60 DUP4 ADD MSTORE PUSH2 0x1D63 DUP2 DUP6 PUSH2 0x1CB3 JUMP JUMPDEST SWAP1 POP PUSH2 0x1D72 PUSH1 0x80 DUP4 ADD DUP5 PUSH2 0x17CE JUMP JUMPDEST SWAP7 SWAP6 POP POP POP POP POP POP JUMP JUMPDEST PUSH0 DUP1 PUSH1 0x40 DUP4 DUP6 SUB SLT ISZERO PUSH2 0x1D92 JUMPI PUSH2 0x1D91 PUSH2 0x169F JUMP JUMPDEST JUMPDEST PUSH0 DUP4 ADD CALLDATALOAD PUSH8 0xFFFFFFFFFFFFFFFF DUP2 GT ISZERO PUSH2 0x1DAF JUMPI PUSH2 0x1DAE PUSH2 0x16A3 JUMP JUMPDEST JUMPDEST PUSH2 0x1DBB DUP6 DUP3 DUP7 ADD PUSH2 0x1999 JUMP JUMPDEST SWAP3 POP POP PUSH1 0x20 DUP4 ADD CALLDATALOAD PUSH8 0xFFFFFFFFFFFFFFFF DUP2 GT ISZERO PUSH2 0x1DDC JUMPI PUSH2 0x1DDB PUSH2 0x16A3 JUMP JUMPDEST JUMPDEST PUSH2 0x1DE8 DUP6 DUP3 DUP7 ADD PUSH2 0x1999 JUMP JUMPDEST SWAP2 POP POP SWAP3 POP SWAP3 SWAP1 POP JUMP JUMPDEST PUSH2 0x1DFB DUP2 PUSH2 0x1724 JUMP JUMPDEST DUP2 EQ PUSH2 0x1E05 JUMPI PUSH0 DUP1 REVERT JUMPDEST POP JUMP JUMPDEST PUSH0 DUP2 CALLDATALOAD SWAP1 POP PUSH2 0x1E16 DUP2 PUSH2 0x1DF2 JUMP JUMPDEST SWAP3 SWAP2 POP POP JUMP JUMPDEST PUSH0 DUP1 PUSH1 0x40 DUP4 DUP6 SUB SLT ISZERO PUSH2 0x1E32 JUMPI PUSH2 0x1E31 PUSH2 0x169F JUMP JUMPDEST JUMPDEST PUSH0 PUSH2 0x1E3F DUP6 DUP3 DUP7 ADD PUSH2 0x16C6 JUMP JUMPDEST SWAP3 POP POP PUSH1 0x20 PUSH2 0x1E50 DUP6 DUP3 DUP7 ADD PUSH2 0x1E08 JUMP JUMPDEST SWAP2 POP POP SWAP3 POP SWAP3 SWAP1 POP JUMP JUMPDEST PUSH0 PUSH1 0x20 DUP3 ADD SWAP1 POP PUSH2 0x1E6D PUSH0 DUP4 ADD DUP5 PUSH2 0x17E8 JUMP JUMPDEST SWAP3 SWAP2 POP POP JUMP JUMPDEST PUSH0 DUP1 PUSH1 0x40 DUP4 DUP6 SUB SLT ISZERO PUSH2 0x1E89 JUMPI PUSH2 0x1E88 PUSH2 0x169F JUMP JUMPDEST JUMPDEST PUSH0 PUSH2 0x1E96 DUP6 DUP3 DUP7 ADD PUSH2 0x16C6 JUMP JUMPDEST SWAP3 POP POP PUSH1 0x20 PUSH2 0x1EA7 DUP6 DUP3 DUP7 ADD PUSH2 0x16C6 JUMP JUMPDEST SWAP2 POP POP SWAP3 POP SWAP3 SWAP1 POP JUMP JUMPDEST PUSH0 PUSH1 0x80 DUP3 ADD SWAP1 POP PUSH2 0x1EC4 PUSH0 DUP4 ADD DUP8 PUSH2 0x1735 JUMP JUMPDEST DUP2 DUP2 SUB PUSH1 0x20 DUP4 ADD MSTORE PUSH2 0x1ED6 DUP2 DUP7 PUSH2 0x1796 JUMP JUMPDEST SWAP1 POP DUP2 DUP2 SUB PUSH1 0x40 DUP4 ADD MSTORE PUSH2 0x1EEA DUP2 DUP6 PUSH2 0x1796 JUMP JUMPDEST SWAP1 POP PUSH2 0x1EF9 PUSH1 0x60 DUP4 ADD DUP5 PUSH2 0x17CE JUMP JUMPDEST SWAP6 SWAP5 POP POP POP POP POP JUMP JUMPDEST PUSH2 0x1F0B DUP2 PUSH2 0x17DD JUMP JUMPDEST DUP2 EQ PUSH2 0x1F15 JUMPI PUSH0 DUP1 REVERT JUMPDEST POP JUMP JUMPDEST PUSH0 DUP2 CALLDATALOAD SWAP1 POP PUSH2 0x1F26 DUP2 PUSH2 0x1F02 JUMP JUMPDEST SWAP3 SWAP2 POP POP JUMP JUMPDEST PUSH0 DUP1 PUSH1 0x40 DUP4 DUP6 SUB SLT ISZERO PUSH2 0x1F42 JUMPI PUSH2 0x1F41 PUSH2 0x169F JUMP JUMPDEST JUMPDEST PUSH0 PUSH2 0x1F4F DUP6 DUP3 DUP7 ADD PUSH2 0x16C6 JUMP JUMPDEST SWAP3 POP POP PUSH1 0x20 PUSH2 0x1F60 DUP6 DUP3 DUP7 ADD PUSH2 0x1F18 JUMP JUMPDEST SWAP2 POP POP SWAP3 POP SWAP3 SWAP1 POP JUMP JUMPDEST PUSH32 0x4E487B7100000000000000000000000000000000000000000000000000000000 PUSH0 MSTORE PUSH1 0x22 PUSH1 0x4 MSTORE PUSH1 0x24 PUSH0 REVERT JUMPDEST PUSH0 PUSH1 0x2 DUP3 DIV SWAP1 POP PUSH1 0x1 DUP3 AND DUP1 PUSH2 0x1FAE JUMPI PUSH1 0x7F DUP3 AND SWAP2 POP JUMPDEST PUSH1 0x20 DUP3 LT DUP2 SUB PUSH2 0x1FC1 JUMPI PUSH2 0x1FC0 PUSH2 0x1F6A JUMP JUMPDEST JUMPDEST POP SWAP2 SWAP1 POP JUMP JUMPDEST PUSH32 0x496E76616C696420706F73742049440000000000000000000000000000000000 PUSH0 DUP3 ADD MSTORE POP JUMP JUMPDEST PUSH0 PUSH2 0x1FFB PUSH1 0xF DUP4 PUSH2 0x174E JUMP JUMPDEST SWAP2 POP PUSH2 0x2006 DUP3 PUSH2 0x1FC7 JUMP JUMPDEST PUSH1 0x20 DUP3 ADD SWAP1 POP SWAP2 SWAP1 POP JUMP JUMPDEST PUSH0 PUSH1 0x20 DUP3 ADD SWAP1 POP DUP2 DUP2 SUB PUSH0 DUP4 ADD MSTORE PUSH2 0x2028 DUP2 PUSH2 0x1FEF JUMP JUMPDEST SWAP1 POP SWAP2 SWAP1 POP JUMP JUMPDEST PUSH32 0x436F6D6D656E742063616E6E6F7420626520656D707479000000000000000000 PUSH0 DUP3 ADD MSTORE POP JUMP JUMPDEST PUSH0 PUSH2 0x2063 PUSH1 0x17 DUP4 PUSH2 0x174E JUMP JUMPDEST SWAP2 POP PUSH2 0x206E DUP3 PUSH2 0x202F JUMP JUMPDEST PUSH1 0x20 DUP3 ADD SWAP1 POP SWAP2 SWAP1 POP JUMP JUMPDEST PUSH0 PUSH1 0x20 DUP3 ADD SWAP1 POP DUP2 DUP2 SUB PUSH0 DUP4 ADD MSTORE PUSH2 0x2090 DUP2 PUSH2 0x2057 JUMP JUMPDEST SWAP1 POP SWAP2 SWAP1 POP JUMP JUMPDEST PUSH32 0x4E487B7100000000000000000000000000000000000000000000000000000000 PUSH0 MSTORE PUSH1 0x11 PUSH1 0x4 MSTORE PUSH1 0x24 PUSH0 REVERT JUMPDEST PUSH0 PUSH2 0x20CE DUP3 PUSH2 0x16A7 JUMP JUMPDEST SWAP2 POP PUSH32 0xFFFFFFFFFFFFFFFFFFFFFFFFFFFFFFFFFFFFFFFFFFFFFFFFFFFFFFFFFFFFFFFF DUP3 SUB PUSH2 0x2100 JUMPI PUSH2 0x20FF PUSH2 0x2097 JUMP JUMPDEST JUMPDEST PUSH1 0x1 DUP3 ADD SWAP1 POP SWAP2 SWAP1 POP JUMP JUMPDEST PUSH0 DUP2 SWAP1 POP DUP2 PUSH0 MSTORE PUSH1 0x20 PUSH0 KECCAK256 SWAP1 POP SWAP2 SWAP1 POP JUMP JUMPDEST PUSH0 PUSH1 0x20 PUSH1 0x1F DUP4 ADD DIV SWAP1 POP SWAP2 SWAP1 POP JUMP JUMPDEST PUSH0 DUP3 DUP3 SHL SWAP1 POP SWAP3 SWAP2 POP POP JUMP JUMPDEST PUSH0 PUSH1 0x8 DUP4 MUL PUSH2 0x2167 PUSH32 0xFFFFFFFFFFFFFFFFFFFFFFFFFFFFFFFFFFFFFFFFFFFFFFFFFFFFFFFFFFFFFFFF DUP3 PUSH2 0x212C JUMP JUMPDEST PUSH2 0x2171 DUP7 DUP4 PUSH2 0x212C JUMP JUMPDEST SWAP6 POP DUP1 NOT DUP5 AND SWAP4 POP DUP1 DUP7 AND DUP5 OR SWAP3 POP POP POP SWAP4 SWAP3 POP POP POP JUMP JUMPDEST PUSH0 DUP2 SWAP1 POP SWAP2 SWAP1 POP JUMP JUMPDEST PUSH0 PUSH2 0x21AC PUSH2 0x21A7 PUSH2 0x21A2 DUP5 PUSH2 0x16A7 JUMP JUMPDEST PUSH2 0x2189 JUMP JUMPDEST PUSH2 0x16A7 JUMP JUMPDEST SWAP1 POP SWAP2 SWAP1 POP JUMP JUMPDEST PUSH0 DUP2 SWAP1 POP SWAP2 SWAP1 POP JUMP JUMPDEST PUSH2 0x21C5 DUP4 PUSH2 0x2192 JUMP JUMPDEST PUSH2 0x21D9 PUSH2 0x21D1 DUP3 PUSH2 0x21B3 JUMP JUMPDEST DUP5 DUP5 SLOAD PUSH2 0x2138 JUMP JUMPDEST DUP3 SSTORE POP POP POP POP JUMP JUMPDEST PUSH0 SWAP1 JUMP JUMPDEST PUSH2 0x21ED PUSH2 0x21E1 JUMP JUMPDEST PUSH2 0x21F8 DUP2 DUP5 DUP5 PUSH2 0x21BC JUMP JUMPDEST POP POP POP JUMP JUMPDEST JUMPDEST DUP2 DUP2 LT ISZERO PUSH2 0x221B JUMPI PUSH2 0x2210 PUSH0 DUP3 PUSH2 0x21E5 JUMP JUMPDEST PUSH1 0x1 DUP2 ADD SWAP1 POP PUSH2 0x21FE JUMP JUMPDEST POP POP JUMP JUMPDEST PUSH1 0x1F DUP3 GT ISZERO PUSH2 0x2260 JUMPI PUSH2 0x2231 DUP2 PUSH2 0x210B JUMP JUMPDEST PUSH2 0x223A DUP5 PUSH2 0x211D JUMP JUMPDEST DUP2 ADD PUSH1 0x20 DUP6 LT ISZERO PUSH2 0x2249 JUMPI DUP2 SWAP1 POP JUMPDEST PUSH2 0x225D PUSH2 0x2255 DUP6 PUSH2 0x211D JUMP JUMPDEST DUP4 ADD DUP3 PUSH2 0x21FD JUMP JUMPDEST POP POP JUMPDEST POP POP POP JUMP JUMPDEST PUSH0 DUP3 DUP3 SHR SWAP1 POP SWAP3 SWAP2 POP POP JUMP JUMPDEST PUSH0 PUSH2 0x2280 PUSH0 NOT DUP5 PUSH1 0x8 MUL PUSH2 0x2265 JUMP JUMPDEST NOT DUP1 DUP4 AND SWAP2 POP POP SWAP3 SWAP2 POP POP JUMP JUMPDEST PUSH0 PUSH2 0x2298 DUP4 DUP4 PUSH2 0x2271 JUMP JUMPDEST SWAP2 POP DUP3 PUSH1 0x2 MUL DUP3 OR SWAP1 POP SWAP3 SWAP2 POP POP JUMP JUMPDEST PUSH2 0x22B1 DUP3 PUSH2 0x1744 JUMP JUMPDEST PUSH8 0xFFFFFFFFFFFFFFFF DUP2 GT ISZERO PUSH2 0x22CA JUMPI PUSH2 0x22C9 PUSH2 0x18A2 JUMP JUMPDEST JUMPDEST PUSH2 0x22D4 DUP3 SLOAD PUSH2 0x1F97 JUMP JUMPDEST PUSH2 0x22DF DUP3 DUP3 DUP6 PUSH2 0x221F JUMP JUMPDEST PUSH0 PUSH1 0x20 SWAP1 POP PUSH1 0x1F DUP4 GT PUSH1 0x1 DUP2 EQ PUSH2 0x2310 JUMPI PUSH0 DUP5 ISZERO PUSH2 0x22FE JUMPI DUP3 DUP8 ADD MLOAD SWAP1 POP JUMPDEST PUSH2 0x2308 DUP6 DUP3 PUSH2 0x228D JUMP JUMPDEST DUP7 SSTORE POP PUSH2 0x236F JUMP JUMPDEST PUSH1 0x1F NOT DUP5 AND PUSH2 0x231E DUP7 PUSH2 0x210B JUMP JUMPDEST PUSH0 JUMPDEST DUP3 DUP2 LT ISZERO PUSH2 0x2345 JUMPI DUP5 DUP10 ADD MLOAD DUP3 SSTORE PUSH1 0x1 DUP3 ADD SWAP2 POP PUSH1 0x20 DUP6 ADD SWAP5 POP PUSH1 0x20 DUP2 ADD SWAP1 POP PUSH2 0x2320 JUMP JUMPDEST DUP7 DUP4 LT ISZERO PUSH2 0x2362 JUMPI DUP5 DUP10 ADD MLOAD PUSH2 0x235E PUSH1 0x1F DUP10 AND DUP3 PUSH2 0x2271 JUMP JUMPDEST DUP4 SSTORE POP JUMPDEST PUSH1 0x1 PUSH1 0x2 DUP9 MUL ADD DUP9 SSTORE POP POP POP JUMPDEST POP POP POP POP POP POP JUMP JUMPDEST PUSH0 PUSH1 0x40 DUP3 ADD SWAP1 POP DUP2 DUP2 SUB PUSH0 DUP4 ADD MSTORE PUSH2 0x238F DUP2 DUP6 PUSH2 0x1796 JUMP JUMPDEST SWAP1 POP DUP2 DUP2 SUB PUSH1 0x20 DUP4 ADD MSTORE PUSH2 0x23A3 DUP2 DUP5 PUSH2 0x1796 JUMP JUMPDEST SWAP1 POP SWAP4 SWAP3 POP POP POP JUMP JUMPDEST PUSH32 0x5374617274204944206D7573742062652067726561746572207468616E203000 PUSH0 DUP3 ADD MSTORE POP JUMP JUMPDEST PUSH0 PUSH2 0x23E0 PUSH1 0x1F DUP4 PUSH2 0x174E JUMP JUMPDEST SWAP2 POP PUSH2 0x23EB DUP3 PUSH2 0x23AC JUMP JUMPDEST PUSH1 0x20 DUP3 ADD SWAP1 POP SWAP2 SWAP1 POP JUMP JUMPDEST PUSH0 PUSH1 0x20 DUP3 ADD SWAP1 POP DUP2 DUP2 SUB PUSH0 DUP4 ADD MSTORE PUSH2 0x240D DUP2 PUSH2 0x23D4 JUMP JUMPDEST SWAP1 POP SWAP2 SWAP1 POP JUMP JUMPDEST PUSH0 PUSH2 0x241E DUP3 PUSH2 0x16A7 JUMP JUMPDEST SWAP2 POP PUSH2 0x2429 DUP4 PUSH2 0x16A7 JUMP JUMPDEST SWAP3 POP DUP3 DUP3 SUB SWAP1 POP DUP2 DUP2 GT ISZERO PUSH2 0x2441 JUMPI PUSH2 0x2440 PUSH2 0x2097 JUMP JUMPDEST JUMPDEST SWAP3 SWAP2 POP POP JUMP JUMPDEST PUSH0 PUSH2 0x2451 DUP3 PUSH2 0x16A7 JUMP JUMPDEST SWAP2 POP PUSH2 0x245C DUP4 PUSH2 0x16A7 JUMP JUMPDEST SWAP3 POP DUP3 DUP3 ADD SWAP1 POP DUP1 DUP3 GT ISZERO PUSH2 0x2474 JUMPI PUSH2 0x2473 PUSH2 0x2097 JUMP JUMPDEST JUMPDEST SWAP3 SWAP2 POP POP JUMP JUMPDEST PUSH32 0x4E487B7100000000000000000000000000000000000000000000000000000000 PUSH0 MSTORE PUSH1 0x32 PUSH1 0x4 MSTORE PUSH1 0x24 PUSH0 REVERT JUMPDEST PUSH32 0x496E76616C696420636F6D6D656E742049440000000000000000000000000000 PUSH0 DUP3 ADD MSTORE POP JUMP JUMPDEST PUSH0 PUSH2 0x24DB PUSH1 0x12 DUP4 PUSH2 0x174E JUMP JUMPDEST SWAP2 POP PUSH2 0x24E6 DUP3 PUSH2 0x24A7 JUMP JUMPDEST PUSH1 0x20 DUP3 ADD SWAP1 POP SWAP2 SWAP1 POP JUMP JUMPDEST PUSH0 PUSH1 0x20 DUP3 ADD SWAP1 POP DUP2 DUP2 SUB PUSH0 DUP4 ADD MSTORE PUSH2 0x2508 DUP2 PUSH2 0x24CF JUMP JUMPDEST SWAP1 POP SWAP2 SWAP1 POP JUMP JUMPDEST PUSH32 0x43616E6E6F74206368616C6C656E676520796F7572206F776E20706F73740000 PUSH0 DUP3 ADD MSTORE POP JUMP JUMPDEST PUSH0 PUSH2 0x2543 PUSH1 0x1E DUP4 PUSH2 0x174E JUMP JUMPDEST SWAP2 POP PUSH2 0x254E DUP3 PUSH2 0x250F JUMP JUMPDEST PUSH1 0x20 DUP3 ADD SWAP1 POP SWAP2 SWAP1 POP JUMP JUMPDEST PUSH0 PUSH1 0x20 DUP3 ADD SWAP1 POP DUP2 DUP2 SUB PUSH0 DUP4 ADD MSTORE PUSH2 0x2570 DUP2 PUSH2 0x2537 JUMP JUMPDEST SWAP1 POP SWAP2 SWAP1 POP JUMP JUMPDEST PUSH32 0x416C726561647920766F74656400000000000000000000000000000000000000 PUSH0 DUP3 ADD MSTORE POP JUMP JUMPDEST PUSH0 PUSH2 0x25AB PUSH1 0xD DUP4 PUSH2 0x174E JUMP JUMPDEST SWAP2 POP PUSH2 0x25B6 DUP3 PUSH2 0x2577 JUMP JUMPDEST PUSH1 0x20 DUP3 ADD SWAP1 POP SWAP2 SWAP1 POP JUMP JUMPDEST PUSH0 PUSH1 0x20 DUP3 ADD SWAP1 POP DUP2 DUP2 SUB PUSH0 DUP4 ADD MSTORE PUSH2 0x25D8 DUP2 PUSH2 0x259F JUMP JUMPDEST SWAP1 POP SWAP2 SWAP1 POP JUMP JUMPDEST PUSH32 0x43616E6E6F7420766F7465206F6E20796F7572206F776E20706F737400000000 PUSH0 DUP3 ADD MSTORE POP JUMP JUMPDEST PUSH0 PUSH2 0x2613 PUSH1 0x1C DUP4 PUSH2 0x174E JUMP JUMPDEST SWAP2 POP PUSH2 0x261E DUP3 PUSH2 0x25DF JUMP JUMPDEST PUSH1 0x20 DUP3 ADD SWAP1 POP SWAP2 SWAP1 POP JUMP JUMPDEST PUSH0 PUSH1 0x20 DUP3 ADD SWAP1 POP DUP2 DUP2 SUB PUSH0 DUP4 ADD MSTORE PUSH2 0x2640 DUP2 PUSH2 0x2607 JUMP JUMPDEST SWAP1 POP SWAP2 SWAP1 POP JUMP INVALID LOG2 PUSH5 0x6970667358 0x22 SLT KECCAK256 SLOAD SWAP11 EXTCODESIZE LOG1 PUSH31 0x69444BCD4B1E854990FCAB366D0A070AE9EB31C128DA80921B502964736F6C PUSH4 0x43000814 STOP CALLER SLOAD PUSH9 0x697320706572736F6E KECCAK256 PUSH10 0x73206E6F742073746166 PUSH7 0x2E204927766520 PUSH20 0x65656E207468656D2061726F756E642063616D70 PUSH22 0x7320617320612073747564656E742E49206B6E6F7720 PUSH21 0x68697320706572736F6E2066726F6D206D7920636C PUSH2 0x7373 0x2E KECCAK256 SLOAD PUSH9 0x657927726520707265 PUSH21 0x656E64696E6720746F206265207374616666215468 PUSH6 0x20657363616C PUSH2 0x746F PUSH19 0x206F757473696465204359542069732062726F PUSH12 0x656E20616761696E2120506C PUSH6 0x617365206669 PUSH25 0x20697420757267656E746C79215768656E2077696C6C204C47 BALANCE KECCAK256 PUSH16 0x70656E206E6577206D65616C206F7074 PUSH10 0x6F6E733F546869732069 PUSH20 0x20646566696E6974656C792066616B65206E6577 PUSH20 0x2E20446F6E27742062656C696576652069742E54 PUSH9 0x616E6B20796F752074 PUSH16 0x2074686520737461666620666F722074 PUSH9 0x6520717569636B2072 PUSH6 0x73706F6E7365 0x21 KECCAK256 SLOAD PUSH9 0x697320686173206265 PUSH6 0x6E20616E206F PUSH15 0x676F696E672069737375652E4E6F20 PUSH24 0x61792120492063616E2066696E616C6C7920626520667265 PUSH6 0x2066726F6D20 PUSH21 0x68652070726F6A65637421492061677265652C2064 PUSH6 0x66696E697465 PUSH13 0x79206E6F742073746166662E20 JUMP PUSH16 0x74696E672066616B65206F6E20746869 PUSH20 0x206F6E652E486F772063616E20796F7520707265 PUSH21 0x656E6420746F20626520612070726F666573736F72 KECCAK256 PUSH2 0x6E64 KECCAK256 PUSH21 0x68656E20636F6D6D656E7420617320612073747564 PUSH6 0x6E743F204F75 PUSH19 0x2070726F6A656374206973207374696C6C206F PUSH15 0x676F696E672E2057652073686F756C PUSH5 0x206368616C PUSH13 0x656E6765207468697320757365 PUSH19 0x277320637265646962696C6974792154686973 KECCAK256 PUSH10 0x7320612073616D706C65 KECCAK256 PUSH4 0x6F6D6D65 PUSH15 0x74206F6E2074686520746573742070 PUSH16 0x73745468616E6B20796F7520666F7220 PUSH19 0x65706F7274696E672074686973206973737565 0x2E KECCAK256 JUMPI PUSH6 0x276C6C207365 PUSH15 0x642061206D61696E74656E616E6365 KECCAK256 PUSH21 0x65616D20726967687420617761792E74686520434F 0x4D POP CALLVALUE CALLDATALOAD BALANCE BALANCE KECCAK256 PUSH17 0x726F6A6563742077696C6C206265206361 PUSH15 0x63656C656421000000000000000000 "
				},
				"gasEstimates": {
					"creation": {
						"codeDepositCost": "1970600",
						"executionCost": "infinite",
						"totalCost": "infinite"
					},
					"external": {
						"addComment(uint256,string,string)": "infinite",
						"challengeAndVote(uint256,bool)": "infinite",
						"comments(uint256,uint256)": "infinite",
						"createPost(string,string)": "infinite",
						"getComment(uint256,uint256)": "infinite",
						"getCommentCount(uint256)": "infinite",
						"getCommentsBatch(uint256,uint256,uint256)": "infinite",
						"getPost(uint256)": "infinite",
						"hasVoted(uint256,address)": "5324",
						"postCount()": "2492",
						"posts(uint256)": "infinite"
					},
					"internal": {
						"_createInitialPost(string memory,string memory,string memory)": "infinite"
					}
				},
				"methodIdentifiers": {
					"addComment(uint256,string,string)": "1521e616",
					"challengeAndVote(uint256,bool)": "d04f8bad",
					"comments(uint256,uint256)": "fc6c776f",
					"createPost(string,string)": "392338f5",
					"getComment(uint256,uint256)": "48892753",
					"getCommentCount(uint256)": "0d4bfb4f",
					"getCommentsBatch(uint256,uint256,uint256)": "25cfb1c5",
					"getPost(uint256)": "40731c24",
					"hasVoted(uint256,address)": "43859632",
					"postCount()": "17906c2e",
					"posts(uint256)": "0b1e7f83"
				}
			},
			"storageLayout": {
				"storage": [
					{
						"astId": 39,
						"contract": "contracts/forum.sol:HKUSTForum",
						"label": "posts",
						"offset": 0,
						"slot": "0",
						"type": "t_mapping(t_uint256,t_struct(Post)25_storage)"
					},
					{
						"astId": 41,
						"contract": "contracts/forum.sol:HKUSTForum",
						"label": "postCount",
						"offset": 0,
						"slot": "1",
						"type": "t_uint256"
					},
					{
						"astId": 48,
						"contract": "contracts/forum.sol:HKUSTForum",
						"label": "comments",
						"offset": 0,
						"slot": "2",
						"type": "t_mapping(t_uint256,t_mapping(t_uint256,t_struct(Comment)34_storage))"
					}
				],
				"types": {
					"t_address": {
						"encoding": "inplace",
						"label": "address",
						"numberOfBytes": "20"
					},
					"t_bool": {
						"encoding": "inplace",
						"label": "bool",
						"numberOfBytes": "1"
					},
					"t_mapping(t_address,t_bool)": {
						"encoding": "mapping",
						"key": "t_address",
						"label": "mapping(address => bool)",
						"numberOfBytes": "32",
						"value": "t_bool"
					},
					"t_mapping(t_uint256,t_mapping(t_uint256,t_struct(Comment)34_storage))": {
						"encoding": "mapping",
						"key": "t_uint256",
						"label": "mapping(uint256 => mapping(uint256 => struct HKUSTForum.Comment))",
						"numberOfBytes": "32",
						"value": "t_mapping(t_uint256,t_struct(Comment)34_storage)"
					},
					"t_mapping(t_uint256,t_struct(Comment)34_storage)": {
						"encoding": "mapping",
						"key": "t_uint256",
						"label": "mapping(uint256 => struct HKUSTForum.Comment)",
						"numberOfBytes": "32",
						"value": "t_struct(Comment)34_storage"
					},
					"t_mapping(t_uint256,t_struct(Post)25_storage)": {
						"encoding": "mapping",
						"key": "t_uint256",
						"label": "mapping(uint256 => struct HKUSTForum.Post)",
						"numberOfBytes": "32",
						"value": "t_struct(Post)25_storage"
					},
					"t_string_storage": {
						"encoding": "bytes",
						"label": "string",
						"numberOfBytes": "32"
					},
					"t_struct(Comment)34_storage": {
						"encoding": "inplace",
						"label": "struct HKUSTForum.Comment",
						"members": [
							{
								"astId": 27,
								"contract": "contracts/forum.sol:HKUSTForum",
								"label": "author",
								"offset": 0,
								"slot": "0",
								"type": "t_address"
							},
							{
								"astId": 29,
								"contract": "contracts/forum.sol:HKUSTForum",
								"label": "content",
								"offset": 0,
								"slot": "1",
								"type": "t_string_storage"
							},
							{
								"astId": 31,
								"contract": "contracts/forum.sol:HKUSTForum",
								"label": "tag",
								"offset": 0,
								"slot": "2",
								"type": "t_string_storage"
							},
							{
								"astId": 33,
								"contract": "contracts/forum.sol:HKUSTForum",
								"label": "timestamp",
								"offset": 0,
								"slot": "3",
								"type": "t_uint256"
							}
						],
						"numberOfBytes": "128"
					},
					"t_struct(Post)25_storage": {
						"encoding": "inplace",
						"label": "struct HKUSTForum.Post",
						"members": [
							{
								"astId": 6,
								"contract": "contracts/forum.sol:HKUSTForum",
								"label": "author",
								"offset": 0,
								"slot": "0",
								"type": "t_address"
							},
							{
								"astId": 8,
								"contract": "contracts/forum.sol:HKUSTForum",
								"label": "content",
								"offset": 0,
								"slot": "1",
								"type": "t_string_storage"
							},
							{
								"astId": 10,
								"contract": "contracts/forum.sol:HKUSTForum",
								"label": "tag",
								"offset": 0,
								"slot": "2",
								"type": "t_string_storage"
							},
							{
								"astId": 12,
								"contract": "contracts/forum.sol:HKUSTForum",
								"label": "timestamp",
								"offset": 0,
								"slot": "3",
								"type": "t_uint256"
							},
							{
								"astId": 14,
								"contract": "contracts/forum.sol:HKUSTForum",
								"label": "isTagChallenged",
								"offset": 0,
								"slot": "4",
								"type": "t_bool"
							},
							{
								"astId": 16,
								"contract": "contracts/forum.sol:HKUSTForum",
								"label": "realVotes",
								"offset": 0,
								"slot": "5",
								"type": "t_uint256"
							},
							{
								"astId": 18,
								"contract": "contracts/forum.sol:HKUSTForum",
								"label": "fakerVotes",
								"offset": 0,
								"slot": "6",
								"type": "t_uint256"
							},
							{
								"astId": 22,
								"contract": "contracts/forum.sol:HKUSTForum",
								"label": "hasVoted",
								"offset": 0,
								"slot": "7",
								"type": "t_mapping(t_address,t_bool)"
							},
							{
								"astId": 24,
								"contract": "contracts/forum.sol:HKUSTForum",
								"label": "commentCount",
								"offset": 0,
								"slot": "8",
								"type": "t_uint256"
							}
						],
						"numberOfBytes": "288"
					},
					"t_uint256": {
						"encoding": "inplace",
						"label": "uint256",
						"numberOfBytes": "32"
					}
				}
			},
			"userdoc": {
				"kind": "user",
				"methods": {},
				"version": 1
			}
		}
	}
}