{
	"contracts/forum.sol": {
		"HKUSTForum": {
			"abi": [
				{
					"inputs": [],
					"stateMutability": "nonpayable",
					"type": "constructor"
				},
				{
					"anonymous": false,
					"inputs": [
						{
							"indexed": true,
							"internalType": "uint256",
							"name": "postId",
							"type": "uint256"
						},
						{
							"indexed": true,
							"internalType": "uint256",
							"name": "commentId",
							"type": "uint256"
						},
						{
							"indexed": true,
							"internalType": "address",
							"name": "author",
							"type": "address"
						},
						{
							"indexed": false,
							"internalType": "string",
							"name": "content",
							"type": "string"
						},
						{
							"indexed": false,
							"internalType": "string",
							"name": "tag",
							"type": "string"
						}
					],
					"name": "CommentAdded",
					"type": "event"
				},
				{
					"anonymous": false,
					"inputs": [
						{
							"indexed": true,
							"internalType": "uint256",
							"name": "postId",
							"type": "uint256"
						},
						{
							"indexed": true,
							"internalType": "address",
							"name": "author",
							"type": "address"
						},
						{
							"indexed": false,
							"internalType": "string",
							"name": "tag",
							"type": "string"
						},
						{
							"indexed": false,
							"internalType": "string",
							"name": "content",
							"type": "string"
						}
					],
					"name": "PostCreated",
					"type": "event"
				},
				{
					"anonymous": false,
					"inputs": [
						{
							"indexed": true,
							"internalType": "uint256",
							"name": "postId",
							"type": "uint256"
						},
						{
							"indexed": true,
							"internalType": "address",
							"name": "challenger",
							"type": "address"
						}
					],
					"name": "TagChallenged",
					"type": "event"
				},
				{
					"anonymous": false,
					"inputs": [
						{
							"indexed": true,
							"internalType": "uint256",
							"name": "postId",
							"type": "uint256"
						},
						{
							"indexed": true,
							"internalType": "address",
							"name": "voter",
							"type": "address"
						},
						{
							"indexed": false,
							"internalType": "bool",
							"name": "isRealVote",
							"type": "bool"
						}
					],
					"name": "VoteCast",
					"type": "event"
				},
				{
					"inputs": [
						{
							"internalType": "uint256",
							"name": "_postId",
							"type": "uint256"
						},
						{
							"internalType": "string",
							"name": "_content",
							"type": "string"
						},
						{
							"internalType": "string",
							"name": "_tag",
							"type": "string"
						}
					],
					"name": "addComment",
					"outputs": [],
					"stateMutability": "nonpayable",
					"type": "function"
				},
				{
					"inputs": [
						{
							"internalType": "uint256",
							"name": "",
							"type": "uint256"
						},
						{
							"internalType": "uint256",
							"name": "",
							"type": "uint256"
						}
					],
					"name": "comments",
					"outputs": [
						{
							"internalType": "address",
							"name": "author",
							"type": "address"
						},
						{
							"internalType": "string",
							"name": "content",
							"type": "string"
						},
						{
							"internalType": "string",
							"name": "tag",
							"type": "string"
						},
						{
							"internalType": "uint256",
							"name": "timestamp",
							"type": "uint256"
						}
					],
					"stateMutability": "view",
					"type": "function"
				},
				{
					"inputs": [
						{
							"internalType": "string",
							"name": "_content",
							"type": "string"
						},
						{
							"internalType": "string",
							"name": "_tag",
							"type": "string"
						}
					],
					"name": "createPost",
					"outputs": [],
					"stateMutability": "nonpayable",
					"type": "function"
				},
				{
					"inputs": [
						{
							"internalType": "uint256",
							"name": "_postId",
							"type": "uint256"
						},
						{
							"internalType": "uint256",
							"name": "_commentId",
							"type": "uint256"
						}
					],
					"name": "getComment",
					"outputs": [
						{
							"internalType": "address",
							"name": "author",
							"type": "address"
						},
						{
							"internalType": "string",
							"name": "content",
							"type": "string"
						},
						{
							"internalType": "string",
							"name": "tag",
							"type": "string"
						},
						{
							"internalType": "uint256",
							"name": "timestamp",
							"type": "uint256"
						}
					],
					"stateMutability": "view",
					"type": "function"
				},
				{
					"inputs": [
						{
							"internalType": "uint256",
							"name": "_postId",
							"type": "uint256"
						}
					],
					"name": "getCommentCount",
					"outputs": [
						{
							"internalType": "uint256",
							"name": "",
							"type": "uint256"
						}
					],
					"stateMutability": "view",
					"type": "function"
				},
				{
					"inputs": [
						{
							"internalType": "uint256",
							"name": "_postId",
							"type": "uint256"
						},
						{
							"internalType": "uint256",
							"name": "_startId",
							"type": "uint256"
						},
						{
							"internalType": "uint256",
							"name": "_batchSize",
							"type": "uint256"
						}
					],
					"name": "getCommentsBatch",
					"outputs": [
						{
							"internalType": "address[]",
							"name": "authors",
							"type": "address[]"
						},
						{
							"internalType": "string[]",
							"name": "contents",
							"type": "string[]"
						},
						{
							"internalType": "string[]",
							"name": "tags",
							"type": "string[]"
						},
						{
							"internalType": "uint256[]",
							"name": "timestamps",
							"type": "uint256[]"
						},
						{
							"internalType": "uint256",
							"name": "totalCount",
							"type": "uint256"
						}
					],
					"stateMutability": "view",
					"type": "function"
				},
				{
					"inputs": [
						{
							"internalType": "uint256",
							"name": "_postId",
							"type": "uint256"
						}
					],
					"name": "getPost",
					"outputs": [
						{
							"internalType": "address",
							"name": "author",
							"type": "address"
						},
						{
							"internalType": "string",
							"name": "content",
							"type": "string"
						},
						{
							"internalType": "string",
							"name": "tag",
							"type": "string"
						},
						{
							"internalType": "uint256",
							"name": "timestamp",
							"type": "uint256"
						},
						{
							"internalType": "bool",
							"name": "isTagChallenged",
							"type": "bool"
						},
						{
							"internalType": "uint256",
							"name": "realVotes",
							"type": "uint256"
						},
						{
							"internalType": "uint256",
							"name": "fakerVotes",
							"type": "uint256"
						},
						{
							"internalType": "uint256",
							"name": "commentCount",
							"type": "uint256"
						}
					],
					"stateMutability": "view",
					"type": "function"
				},
				{
					"inputs": [
						{
							"internalType": "uint256",
							"name": "_postId",
							"type": "uint256"
						},
						{
							"internalType": "address",
							"name": "_voter",
							"type": "address"
						}
					],
					"name": "hasVoted",
					"outputs": [
						{
							"internalType": "bool",
							"name": "",
							"type": "bool"
						}
					],
					"stateMutability": "view",
					"type": "function"
				},
				{
					"inputs": [],
					"name": "postCount",
					"outputs": [
						{
							"internalType": "uint256",
							"name": "",
							"type": "uint256"
						}
					],
					"stateMutability": "view",
					"type": "function"
				},
				{
					"inputs": [
						{
							"internalType": "uint256",
							"name": "",
							"type": "uint256"
						}
					],
					"name": "posts",
					"outputs": [
						{
							"internalType": "address",
							"name": "author",
							"type": "address"
						},
						{
							"internalType": "string",
							"name": "content",
							"type": "string"
						},
						{
							"internalType": "string",
							"name": "tag",
							"type": "string"
						},
						{
							"internalType": "uint256",
							"name": "timestamp",
							"type": "uint256"
						},
						{
							"internalType": "bool",
							"name": "isTagChallenged",
							"type": "bool"
						},
						{
							"internalType": "uint256",
							"name": "realVotes",
							"type": "uint256"
						},
						{
							"internalType": "uint256",
							"name": "fakerVotes",
							"type": "uint256"
						},
						{
							"internalType": "uint256",
							"name": "commentCount",
							"type": "uint256"
						}
					],
					"stateMutability": "view",
					"type": "function"
				},
				{
					"inputs": [
						{
							"internalType": "uint256",
							"name": "_postId",
							"type": "uint256"
						},
						{
							"internalType": "bool",
							"name": "_isRealVote",
							"type": "bool"
						}
					],
					"name": "voteOnTag",
					"outputs": [],
					"stateMutability": "nonpayable",
					"type": "function"
				}
			],
			"devdoc": {
				"kind": "dev",
				"methods": {},
				"version": 1
			},
			"evm": {
				"assembly": "    /* \"contracts/forum.sol\":58:19690  contract HKUSTForum {... */\n  mstore(0x40, 0x80)\n    /* \"contracts/forum.sol\":1570:12455  constructor() {... */\n  callvalue\n  dup1\n  iszero\n  tag_1\n  jumpi\n  0x00\n  dup1\n  revert\ntag_1:\n  pop\n    /* \"contracts/forum.sol\":1710:1711  1 */\n  0x01\n    /* \"contracts/forum.sol\":1698:1707  postCount */\n  dup1\n    /* \"contracts/forum.sol\":1698:1711  postCount = 1 */\n  dup2\n  swap1\n  sstore\n  pop\n    /* \"contracts/forum.sol\":1837:1857  Post storage newPost */\n  0x00\n    /* \"contracts/forum.sol\":1860:1865  posts */\n  dup1\n    /* \"contracts/forum.sol\":1860:1876  posts[postCount] */\n  0x00\n    /* \"contracts/forum.sol\":1866:1875  postCount */\n  sload(0x01)\n    /* \"contracts/forum.sol\":1860:1876  posts[postCount] */\n  dup2\n  mstore\n  0x20\n  add\n  swap1\n  dup2\n  mstore\n  0x20\n  add\n  0x00\n  keccak256\n    /* \"contracts/forum.sol\":1837:1876  Post storage newPost = posts[postCount] */\n  swap1\n  pop\n    /* \"contracts/forum.sol\":1903:1945  0x4511277f98BA4282705Da1c250110E24Aa2f88a2 */\n  0x4511277f98ba4282705da1c250110e24aa2f88a2\n    /* \"contracts/forum.sol\":1886:1893  newPost */\n  dup2\n    /* \"contracts/forum.sol\":1886:1900  newPost.author */\n  0x00\n  add\n  0x00\n    /* \"contracts/forum.sol\":1886:1945  newPost.author = 0x4511277f98BA4282705Da1c250110E24Aa2f88a2 */\n  0x0100\n  exp\n  dup2\n  sload\n  dup2\n  0xffffffffffffffffffffffffffffffffffffffff\n  mul\n  not\n  and\n  swap1\n  dup4\n  0xffffffffffffffffffffffffffffffffffffffff\n  and\n  mul\n  or\n  swap1\n  sstore\n  pop\n    /* \"contracts/forum.sol\":1955:1979  newPost.content = \"test\" */\n  mload(0x40)\n  dup1\n  0x40\n  add\n  0x40\n  mstore\n  dup1\n  0x04\n  dup2\n  mstore\n  0x20\n  add\n  0x7465737400000000000000000000000000000000000000000000000000000000\n  dup2\n  mstore\n  pop\n    /* \"contracts/forum.sol\":1955:1962  newPost */\n  dup2\n    /* \"contracts/forum.sol\":1955:1970  newPost.content */\n  0x01\n  add\n    /* \"contracts/forum.sol\":1955:1979  newPost.content = \"test\" */\n  swap1\n  dup2\n  tag_4\n  swap2\n  swap1\n  tag_5\n  jump\t// in\ntag_4:\n  pop\n    /* \"contracts/forum.sol\":1989:2012  newPost.tag = \"student\" */\n  mload(0x40)\n  dup1\n  0x40\n  add\n  0x40\n  mstore\n  dup1\n  0x07\n  dup2\n  mstore\n  0x20\n  add\n  0x73747564656e7400000000000000000000000000000000000000000000000000\n  dup2\n  mstore\n  pop\n    /* \"contracts/forum.sol\":1989:1996  newPost */\n  dup2\n    /* \"contracts/forum.sol\":1989:2000  newPost.tag */\n  0x02\n  add\n    /* \"contracts/forum.sol\":1989:2012  newPost.tag = \"student\" */\n  swap1\n  dup2\n  tag_6\n  swap2\n  swap1\n  tag_5\n  jump\t// in\ntag_6:\n  pop\n    /* \"contracts/forum.sol\":2042:2052  1746874632 */\n  0x681f3108\n    /* \"contracts/forum.sol\":2022:2029  newPost */\n  dup2\n    /* \"contracts/forum.sol\":2022:2039  newPost.timestamp */\n  0x03\n  add\n    /* \"contracts/forum.sol\":2022:2052  newPost.timestamp = 1746874632 */\n  dup2\n  swap1\n  sstore\n  pop\n    /* \"contracts/forum.sol\":2121:2126  false */\n  0x00\n    /* \"contracts/forum.sol\":2095:2102  newPost */\n  dup2\n    /* \"contracts/forum.sol\":2095:2118  newPost.isTagChallenged */\n  0x04\n  add\n  0x00\n    /* \"contracts/forum.sol\":2095:2126  newPost.isTagChallenged = false */\n  0x0100\n  exp\n  dup2\n  sload\n  dup2\n  0xff\n  mul\n  not\n  and\n  swap1\n  dup4\n  iszero\n  iszero\n  mul\n  or\n  swap1\n  sstore\n  pop\n    /* \"contracts/forum.sol\":2156:2157  0 */\n  0x00\n    /* \"contracts/forum.sol\":2136:2143  newPost */\n  dup2\n    /* \"contracts/forum.sol\":2136:2153  newPost.realVotes */\n  0x05\n  add\n    /* \"contracts/forum.sol\":2136:2157  newPost.realVotes = 0 */\n  dup2\n  swap1\n  sstore\n  pop\n    /* \"contracts/forum.sol\":2188:2189  0 */\n  0x00\n    /* \"contracts/forum.sol\":2167:2174  newPost */\n  dup2\n    /* \"contracts/forum.sol\":2167:2185  newPost.fakerVotes */\n  0x06\n  add\n    /* \"contracts/forum.sol\":2167:2189  newPost.fakerVotes = 0 */\n  dup2\n  swap1\n  sstore\n  pop\n    /* \"contracts/forum.sol\":2222:2223  1 */\n  0x01\n    /* \"contracts/forum.sol\":2199:2206  newPost */\n  dup2\n    /* \"contracts/forum.sol\":2199:2219  newPost.commentCount */\n  0x08\n  add\n    /* \"contracts/forum.sol\":2199:2223  newPost.commentCount = 1 */\n  dup2\n  swap1\n  sstore\n  pop\n    /* \"contracts/forum.sol\":2332:2358  Comment storage newComment */\n  0x00\n    /* \"contracts/forum.sol\":2361:2369  comments */\n  0x02\n    /* \"contracts/forum.sol\":2361:2380  comments[postCount] */\n  0x00\n    /* \"contracts/forum.sol\":2370:2379  postCount */\n  sload(0x01)\n    /* \"contracts/forum.sol\":2361:2380  comments[postCount] */\n  dup2\n  mstore\n  0x20\n  add\n  swap1\n  dup2\n  mstore\n  0x20\n  add\n  0x00\n  keccak256\n    /* \"contracts/forum.sol\":2361:2383  comments[postCount][1] */\n  0x00\n    /* \"contracts/forum.sol\":2381:2382  1 */\n  0x01\n    /* \"contracts/forum.sol\":2361:2383  comments[postCount][1] */\n  dup2\n  mstore\n  0x20\n  add\n  swap1\n  dup2\n  mstore\n  0x20\n  add\n  0x00\n  keccak256\n    /* \"contracts/forum.sol\":2332:2383  Comment storage newComment = comments[postCount][1] */\n  swap1\n  pop\n    /* \"contracts/forum.sol\":2413:2455  0x4511277f98BA4282705Da1c250110E24Aa2f88a2 */\n  0x4511277f98ba4282705da1c250110e24aa2f88a2\n    /* \"contracts/forum.sol\":2393:2403  newComment */\n  dup2\n    /* \"contracts/forum.sol\":2393:2410  newComment.author */\n  0x00\n  add\n  0x00\n    /* \"contracts/forum.sol\":2393:2455  newComment.author = 0x4511277f98BA4282705Da1c250110E24Aa2f88a2 */\n  0x0100\n  exp\n  dup2\n  sload\n  dup2\n  0xffffffffffffffffffffffffffffffffffffffff\n  mul\n  not\n  and\n  swap1\n  dup4\n  0xffffffffffffffffffffffffffffffffffffffff\n  and\n  mul\n  or\n  swap1\n  sstore\n  pop\n    /* \"contracts/forum.sol\":2465:2529  newComment.content = \"This is a sample comment on the test post\" */\n  mload(0x40)\n  dup1\n  0x60\n  add\n  0x40\n  mstore\n  dup1\n  0x29\n  dup2\n  mstore\n  0x20\n  add\n  data_c82959ddba0abf90a078c025a95d0f077dc3ee31c7b7b94a9d43d450fadb60f5\n  0x29\n  swap2\n  codecopy\n    /* \"contracts/forum.sol\":2465:2475  newComment */\n  dup2\n    /* \"contracts/forum.sol\":2465:2483  newComment.content */\n  0x01\n  add\n    /* \"contracts/forum.sol\":2465:2529  newComment.content = \"This is a sample comment on the test post\" */\n  swap1\n  dup2\n  tag_7\n  swap2\n  swap1\n  tag_5\n  jump\t// in\ntag_7:\n  pop\n    /* \"contracts/forum.sol\":2539:2565  newComment.tag = \"student\" */\n  mload(0x40)\n  dup1\n  0x40\n  add\n  0x40\n  mstore\n  dup1\n  0x07\n  dup2\n  mstore\n  0x20\n  add\n  0x73747564656e7400000000000000000000000000000000000000000000000000\n  dup2\n  mstore\n  pop\n    /* \"contracts/forum.sol\":2539:2549  newComment */\n  dup2\n    /* \"contracts/forum.sol\":2539:2553  newComment.tag */\n  0x02\n  add\n    /* \"contracts/forum.sol\":2539:2565  newComment.tag = \"student\" */\n  swap1\n  dup2\n  tag_8\n  swap2\n  swap1\n  tag_5\n  jump\t// in\ntag_8:\n  pop\n    /* \"contracts/forum.sol\":2598:2608  1746874700 */\n  0x681f314c\n    /* \"contracts/forum.sol\":2575:2585  newComment */\n  dup2\n    /* \"contracts/forum.sol\":2575:2595  newComment.timestamp */\n  0x03\n  add\n    /* \"contracts/forum.sol\":2575:2608  newComment.timestamp = 1746874700 */\n  dup2\n  swap1\n  sstore\n  pop\n    /* \"contracts/forum.sol\":2757:2764  newPost */\n  dup2\n    /* \"contracts/forum.sol\":2757:2771  newPost.author */\n  0x00\n  add\n  0x00\n  swap1\n  sload\n  swap1\n  0x0100\n  exp\n  swap1\n  div\n  0xffffffffffffffffffffffffffffffffffffffff\n  and\n    /* \"contracts/forum.sol\":2734:2802  PostCreated(postCount, newPost.author, newPost.tag, newPost.content) */\n  0xffffffffffffffffffffffffffffffffffffffff\n  and\n    /* \"contracts/forum.sol\":2746:2755  postCount */\n  sload(0x01)\n    /* \"contracts/forum.sol\":2734:2802  PostCreated(postCount, newPost.author, newPost.tag, newPost.content) */\n  0x5475621b07408f75d49c828caa5aeacb3a5e98d3497e75730dc184677504401c\n    /* \"contracts/forum.sol\":2773:2780  newPost */\n  dup5\n    /* \"contracts/forum.sol\":2773:2784  newPost.tag */\n  0x02\n  add\n    /* \"contracts/forum.sol\":2786:2793  newPost */\n  dup6\n    /* \"contracts/forum.sol\":2786:2801  newPost.content */\n  0x01\n  add\n    /* \"contracts/forum.sol\":2734:2802  PostCreated(postCount, newPost.author, newPost.tag, newPost.content) */\n  mload(0x40)\n  tag_9\n  swap3\n  swap2\n  swap1\n  tag_10\n  jump\t// in\ntag_9:\n  mload(0x40)\n  dup1\n  swap2\n  sub\n  swap1\n  log3\n    /* \"contracts/forum.sol\":2844:2854  newComment */\n  dup1\n    /* \"contracts/forum.sol\":2844:2861  newComment.author */\n  0x00\n  add\n  0x00\n  swap1\n  sload\n  swap1\n  0x0100\n  exp\n  swap1\n  div\n  0xffffffffffffffffffffffffffffffffffffffff\n  and\n    /* \"contracts/forum.sol\":2817:2898  CommentAdded(postCount, 1, newComment.author, newComment.content, newComment.tag) */\n  0xffffffffffffffffffffffffffffffffffffffff\n  and\n    /* \"contracts/forum.sol\":2841:2842  1 */\n  0x01\n    /* \"contracts/forum.sol\":2830:2839  postCount */\n  dup1\n  sload\n    /* \"contracts/forum.sol\":2817:2898  CommentAdded(postCount, 1, newComment.author, newComment.content, newComment.tag) */\n  0x03a56e2377acf256c15a50f0b97834fa29a151d0b8a6d05c450576e40634fadc\n    /* \"contracts/forum.sol\":2863:2873  newComment */\n  dup5\n    /* \"contracts/forum.sol\":2863:2881  newComment.content */\n  0x01\n  add\n    /* \"contracts/forum.sol\":2883:2893  newComment */\n  dup6\n    /* \"contracts/forum.sol\":2883:2897  newComment.tag */\n  0x02\n  add\n    /* \"contracts/forum.sol\":2817:2898  CommentAdded(postCount, 1, newComment.author, newComment.content, newComment.tag) */\n  mload(0x40)\n  tag_11\n  swap3\n  swap2\n  swap1\n  tag_10\n  jump\t// in\ntag_11:\n  mload(0x40)\n  dup1\n  swap2\n  sub\n  swap1\n  log4\n    /* \"contracts/forum.sol\":3028:3037  postCount */\n  0x01\n  0x00\n    /* \"contracts/forum.sol\":3028:3039  postCount++ */\n  dup2\n  sload\n  dup1\n  swap3\n  swap2\n  swap1\n  tag_12\n  swap1\n  tag_13\n  jump\t// in\ntag_12:\n  swap2\n  swap1\n  pop\n  sstore\n  pop\n    /* \"contracts/forum.sol\":3049:3067  Post storage post2 */\n  0x00\n    /* \"contracts/forum.sol\":3070:3075  posts */\n  dup1\n    /* \"contracts/forum.sol\":3070:3086  posts[postCount] */\n  0x00\n    /* \"contracts/forum.sol\":3076:3085  postCount */\n  sload(0x01)\n    /* \"contracts/forum.sol\":3070:3086  posts[postCount] */\n  dup2\n  mstore\n  0x20\n  add\n  swap1\n  dup2\n  mstore\n  0x20\n  add\n  0x00\n  keccak256\n    /* \"contracts/forum.sol\":3049:3086  Post storage post2 = posts[postCount] */\n  swap1\n  pop\n    /* \"contracts/forum.sol\":3111:3153  0x4511277f98BA4282705Da1c250110E24Aa2f88a2 */\n  0x4511277f98ba4282705da1c250110e24aa2f88a2\n    /* \"contracts/forum.sol\":3096:3101  post2 */\n  dup2\n    /* \"contracts/forum.sol\":3096:3108  post2.author */\n  0x00\n  add\n  0x00\n    /* \"contracts/forum.sol\":3096:3153  post2.author = 0x4511277f98BA4282705Da1c250110E24Aa2f88a2 */\n  0x0100\n  exp\n  dup2\n  sload\n  dup2\n  0xffffffffffffffffffffffffffffffffffffffff\n  mul\n  not\n  and\n  swap1\n  dup4\n  0xffffffffffffffffffffffffffffffffffffffff\n  and\n  mul\n  or\n  swap1\n  sstore\n  pop\n    /* \"contracts/forum.sol\":3163:3219  post2.content = \"the COMP4511 project will be canceled!\" */\n  mload(0x40)\n  dup1\n  0x60\n  add\n  0x40\n  mstore\n  dup1\n  0x26\n  dup2\n  mstore\n  0x20\n  add\n  data_fb7fa661df71668dd14585a57ca5bec8eeb6303f7f7bf6f9db70ac6e49e4a587\n  0x26\n  swap2\n  codecopy\n    /* \"contracts/forum.sol\":3163:3168  post2 */\n  dup2\n    /* \"contracts/forum.sol\":3163:3176  post2.content */\n  0x01\n  add\n    /* \"contracts/forum.sol\":3163:3219  post2.content = \"the COMP4511 project will be canceled!\" */\n  swap1\n  dup2\n  tag_14\n  swap2\n  swap1\n  tag_5\n  jump\t// in\ntag_14:\n  pop\n    /* \"contracts/forum.sol\":3229:3252  post2.tag = \"professor\" */\n  mload(0x40)\n  dup1\n  0x40\n  add\n  0x40\n  mstore\n  dup1\n  0x09\n  dup2\n  mstore\n  0x20\n  add\n  0x70726f666573736f720000000000000000000000000000000000000000000000\n  dup2\n  mstore\n  pop\n    /* \"contracts/forum.sol\":3229:3234  post2 */\n  dup2\n    /* \"contracts/forum.sol\":3229:3238  post2.tag */\n  0x02\n  add\n    /* \"contracts/forum.sol\":3229:3252  post2.tag = \"professor\" */\n  swap1\n  dup2\n  tag_15\n  swap2\n  swap1\n  tag_5\n  jump\t// in\ntag_15:\n  pop\n    /* \"contracts/forum.sol\":3280:3290  1746874800 */\n  0x681f31b0\n    /* \"contracts/forum.sol\":3262:3267  post2 */\n  dup2\n    /* \"contracts/forum.sol\":3262:3277  post2.timestamp */\n  0x03\n  add\n    /* \"contracts/forum.sol\":3262:3290  post2.timestamp = 1746874800 */\n  dup2\n  swap1\n  sstore\n  pop\n    /* \"contracts/forum.sol\":3350:3354  true */\n  0x01\n    /* \"contracts/forum.sol\":3326:3331  post2 */\n  dup2\n    /* \"contracts/forum.sol\":3326:3347  post2.isTagChallenged */\n  0x04\n  add\n  0x00\n    /* \"contracts/forum.sol\":3326:3354  post2.isTagChallenged = true */\n  0x0100\n  exp\n  dup2\n  sload\n  dup2\n  0xff\n  mul\n  not\n  and\n  swap1\n  dup4\n  iszero\n  iszero\n  mul\n  or\n  swap1\n  sstore\n  pop\n    /* \"contracts/forum.sol\":3382:3383  0 */\n  0x00\n    /* \"contracts/forum.sol\":3364:3369  post2 */\n  dup2\n    /* \"contracts/forum.sol\":3364:3379  post2.realVotes */\n  0x05\n  add\n    /* \"contracts/forum.sol\":3364:3383  post2.realVotes = 0 */\n  dup2\n  swap1\n  sstore\n  pop\n    /* \"contracts/forum.sol\":3412:3413  1 */\n  0x01\n    /* \"contracts/forum.sol\":3393:3398  post2 */\n  dup2\n    /* \"contracts/forum.sol\":3393:3409  post2.fakerVotes */\n  0x06\n  add\n    /* \"contracts/forum.sol\":3393:3413  post2.fakerVotes = 1 */\n  dup2\n  swap1\n  sstore\n  pop\n    /* \"contracts/forum.sol\":3444:3445  3 */\n  0x03\n    /* \"contracts/forum.sol\":3423:3428  post2 */\n  dup2\n    /* \"contracts/forum.sol\":3423:3441  post2.commentCount */\n  0x08\n  add\n    /* \"contracts/forum.sol\":3423:3445  post2.commentCount = 3 */\n  dup2\n  swap1\n  sstore\n  pop\n    /* \"contracts/forum.sol\":3516:3540  Comment storage comment2 */\n  0x00\n    /* \"contracts/forum.sol\":3543:3551  comments */\n  0x02\n    /* \"contracts/forum.sol\":3543:3562  comments[postCount] */\n  0x00\n    /* \"contracts/forum.sol\":3552:3561  postCount */\n  sload(0x01)\n    /* \"contracts/forum.sol\":3543:3562  comments[postCount] */\n  dup2\n  mstore\n  0x20\n  add\n  swap1\n  dup2\n  mstore\n  0x20\n  add\n  0x00\n  keccak256\n    /* \"contracts/forum.sol\":3543:3565  comments[postCount][1] */\n  0x00\n    /* \"contracts/forum.sol\":3563:3564  1 */\n  0x01\n    /* \"contracts/forum.sol\":3543:3565  comments[postCount][1] */\n  dup2\n  mstore\n  0x20\n  add\n  swap1\n  dup2\n  mstore\n  0x20\n  add\n  0x00\n  keccak256\n    /* \"contracts/forum.sol\":3516:3565  Comment storage comment2 = comments[postCount][1] */\n  swap1\n  pop\n    /* \"contracts/forum.sol\":3593:3635  0x4511277f98BA4282705Da1c250110E24Aa2f88a2 */\n  0x4511277f98ba4282705da1c250110e24aa2f88a2\n    /* \"contracts/forum.sol\":3575:3583  comment2 */\n  dup2\n    /* \"contracts/forum.sol\":3575:3590  comment2.author */\n  0x00\n  add\n  0x00\n    /* \"contracts/forum.sol\":3575:3635  comment2.author = 0x4511277f98BA4282705Da1c250110E24Aa2f88a2 */\n  0x0100\n  exp\n  dup2\n  sload\n  dup2\n  0xffffffffffffffffffffffffffffffffffffffff\n  mul\n  not\n  and\n  swap1\n  dup4\n  0xffffffffffffffffffffffffffffffffffffffff\n  and\n  mul\n  or\n  swap1\n  sstore\n  pop\n    /* \"contracts/forum.sol\":3645:3713  comment2.content = \"No way! I can finally be free from the project!\" */\n  mload(0x40)\n  dup1\n  0x60\n  add\n  0x40\n  mstore\n  dup1\n  0x2f\n  dup2\n  mstore\n  0x20\n  add\n  data_be61c13ac23e6b5eaad2bf0272172247570a0cc74c677836fd04ebbbd826c629\n  0x2f\n  swap2\n  codecopy\n    /* \"contracts/forum.sol\":3645:3653  comment2 */\n  dup2\n    /* \"contracts/forum.sol\":3645:3661  comment2.content */\n  0x01\n  add\n    /* \"contracts/forum.sol\":3645:3713  comment2.content = \"No way! I can finally be free from the project!\" */\n  swap1\n  dup2\n  tag_16\n  swap2\n  swap1\n  tag_5\n  jump\t// in\ntag_16:\n  pop\n    /* \"contracts/forum.sol\":3723:3747  comment2.tag = \"student\" */\n  mload(0x40)\n  dup1\n  0x40\n  add\n  0x40\n  mstore\n  dup1\n  0x07\n  dup2\n  mstore\n  0x20\n  add\n  0x73747564656e7400000000000000000000000000000000000000000000000000\n  dup2\n  mstore\n  pop\n    /* \"contracts/forum.sol\":3723:3731  comment2 */\n  dup2\n    /* \"contracts/forum.sol\":3723:3735  comment2.tag */\n  0x02\n  add\n    /* \"contracts/forum.sol\":3723:3747  comment2.tag = \"student\" */\n  swap1\n  dup2\n  tag_17\n  swap2\n  swap1\n  tag_5\n  jump\t// in\ntag_17:\n  pop\n    /* \"contracts/forum.sol\":3778:3788  1746875000 */\n  0x681f3278\n    /* \"contracts/forum.sol\":3757:3765  comment2 */\n  dup2\n    /* \"contracts/forum.sol\":3757:3775  comment2.timestamp */\n  0x03\n  add\n    /* \"contracts/forum.sol\":3757:3788  comment2.timestamp = 1746875000 */\n  dup2\n  swap1\n  sstore\n  pop\n    /* \"contracts/forum.sol\":3864:3890  Comment storage comment2_2 */\n  0x00\n    /* \"contracts/forum.sol\":3893:3901  comments */\n  0x02\n    /* \"contracts/forum.sol\":3893:3912  comments[postCount] */\n  0x00\n    /* \"contracts/forum.sol\":3902:3911  postCount */\n  sload(0x01)\n    /* \"contracts/forum.sol\":3893:3912  comments[postCount] */\n  dup2\n  mstore\n  0x20\n  add\n  swap1\n  dup2\n  mstore\n  0x20\n  add\n  0x00\n  keccak256\n    /* \"contracts/forum.sol\":3893:3915  comments[postCount][2] */\n  0x00\n    /* \"contracts/forum.sol\":3913:3914  2 */\n  0x02\n    /* \"contracts/forum.sol\":3893:3915  comments[postCount][2] */\n  dup2\n  mstore\n  0x20\n  add\n  swap1\n  dup2\n  mstore\n  0x20\n  add\n  0x00\n  keccak256\n    /* \"contracts/forum.sol\":3864:3915  Comment storage comment2_2 = comments[postCount][2] */\n  swap1\n  pop\n    /* \"contracts/forum.sol\":3945:3987  0x3fC91A3afd70395Cd496C647d5a6CC9D4B2b7FAD */\n  0x3fc91a3afd70395cd496c647d5a6cc9d4b2b7fad\n    /* \"contracts/forum.sol\":3925:3935  comment2_2 */\n  dup2\n    /* \"contracts/forum.sol\":3925:3942  comment2_2.author */\n  0x00\n  add\n  0x00\n    /* \"contracts/forum.sol\":3925:3987  comment2_2.author = 0x3fC91A3afd70395Cd496C647d5a6CC9D4B2b7FAD */\n  0x0100\n  exp\n  dup2\n  sload\n  dup2\n  0xffffffffffffffffffffffffffffffffffffffff\n  mul\n  not\n  and\n  swap1\n  dup4\n  0xffffffffffffffffffffffffffffffffffffffff\n  and\n  mul\n  or\n  swap1\n  sstore\n  pop\n    /* \"contracts/forum.sol\":3997:4067  comment2_2.content = \"This is definitely fake news. Don't believe it.\" */\n  mload(0x40)\n  dup1\n  0x60\n  add\n  0x40\n  mstore\n  dup1\n  0x2f\n  dup2\n  mstore\n  0x20\n  add\n  data_8cc125cce4df0a85733c0639b1a638faa4013f9bff2d8c5a759dd2dc0f8b9264\n  0x2f\n  swap2\n  codecopy\n    /* \"contracts/forum.sol\":3997:4007  comment2_2 */\n  dup2\n    /* \"contracts/forum.sol\":3997:4015  comment2_2.content */\n  0x01\n  add\n    /* \"contracts/forum.sol\":3997:4067  comment2_2.content = \"This is definitely fake news. Don't believe it.\" */\n  swap1\n  dup2\n  tag_18\n  swap2\n  swap1\n  tag_5\n  jump\t// in\ntag_18:\n  pop\n    /* \"contracts/forum.sol\":4077:4103  comment2_2.tag = \"student\" */\n  mload(0x40)\n  dup1\n  0x40\n  add\n  0x40\n  mstore\n  dup1\n  0x07\n  dup2\n  mstore\n  0x20\n  add\n  0x73747564656e7400000000000000000000000000000000000000000000000000\n  dup2\n  mstore\n  pop\n    /* \"contracts/forum.sol\":4077:4087  comment2_2 */\n  dup2\n    /* \"contracts/forum.sol\":4077:4091  comment2_2.tag */\n  0x02\n  add\n    /* \"contracts/forum.sol\":4077:4103  comment2_2.tag = \"student\" */\n  swap1\n  dup2\n  tag_19\n  swap2\n  swap1\n  tag_5\n  jump\t// in\ntag_19:\n  pop\n    /* \"contracts/forum.sol\":4136:4146  1746875200 */\n  0x681f3340\n    /* \"contracts/forum.sol\":4113:4123  comment2_2 */\n  dup2\n    /* \"contracts/forum.sol\":4113:4133  comment2_2.timestamp */\n  0x03\n  add\n    /* \"contracts/forum.sol\":4113:4146  comment2_2.timestamp = 1746875200 */\n  dup2\n  swap1\n  sstore\n  pop\n    /* \"contracts/forum.sol\":4243:4269  Comment storage comment2_3 */\n  0x00\n    /* \"contracts/forum.sol\":4272:4280  comments */\n  0x02\n    /* \"contracts/forum.sol\":4272:4291  comments[postCount] */\n  0x00\n    /* \"contracts/forum.sol\":4281:4290  postCount */\n  sload(0x01)\n    /* \"contracts/forum.sol\":4272:4291  comments[postCount] */\n  dup2\n  mstore\n  0x20\n  add\n  swap1\n  dup2\n  mstore\n  0x20\n  add\n  0x00\n  keccak256\n    /* \"contracts/forum.sol\":4272:4294  comments[postCount][3] */\n  0x00\n    /* \"contracts/forum.sol\":4292:4293  3 */\n  0x03\n    /* \"contracts/forum.sol\":4272:4294  comments[postCount][3] */\n  dup2\n  mstore\n  0x20\n  add\n  swap1\n  dup2\n  mstore\n  0x20\n  add\n  0x00\n  keccak256\n    /* \"contracts/forum.sol\":4243:4294  Comment storage comment2_3 = comments[postCount][3] */\n  swap1\n  pop\n    /* \"contracts/forum.sol\":4324:4366  0xa983d7E14AC1aAf050bb64Fdab1024ae9c93c956 */\n  0xa983d7e14ac1aaf050bb64fdab1024ae9c93c956\n    /* \"contracts/forum.sol\":4304:4314  comment2_3 */\n  dup2\n    /* \"contracts/forum.sol\":4304:4321  comment2_3.author */\n  0x00\n  add\n  0x00\n    /* \"contracts/forum.sol\":4304:4366  comment2_3.author = 0xa983d7E14AC1aAf050bb64Fdab1024ae9c93c956 */\n  0x0100\n  exp\n  dup2\n  sload\n  dup2\n  0xffffffffffffffffffffffffffffffffffffffff\n  mul\n  not\n  and\n  swap1\n  dup4\n  0xffffffffffffffffffffffffffffffffffffffff\n  and\n  mul\n  or\n  swap1\n  sstore\n  pop\n    /* \"contracts/forum.sol\":4376:4542  comment2_3.content = \"How can you pretend to be a professor and then comment as a student? Our project is still ongoing. We should challenge this user's credibility!\" */\n  mload(0x40)\n  dup1\n  0xc0\n  add\n  0x40\n  mstore\n  dup1\n  0x8f\n  dup2\n  mstore\n  0x20\n  add\n  data_c7f26a841e6c3160dc03ee8c2016accfd5282ffdd118e40a3c709b46bc2a6c30\n  0x8f\n  swap2\n  codecopy\n    /* \"contracts/forum.sol\":4376:4386  comment2_3 */\n  dup2\n    /* \"contracts/forum.sol\":4376:4394  comment2_3.content */\n  0x01\n  add\n    /* \"contracts/forum.sol\":4376:4542  comment2_3.content = \"How can you pretend to be a professor and then comment as a student? Our project is still ongoing. We should challenge this user's credibility!\" */\n  swap1\n  dup2\n  tag_20\n  swap2\n  swap1\n  tag_5\n  jump\t// in\ntag_20:\n  pop\n    /* \"contracts/forum.sol\":4552:4578  comment2_3.tag = \"student\" */\n  mload(0x40)\n  dup1\n  0x40\n  add\n  0x40\n  mstore\n  dup1\n  0x07\n  dup2\n  mstore\n  0x20\n  add\n  0x73747564656e7400000000000000000000000000000000000000000000000000\n  dup2\n  mstore\n  pop\n    /* \"contracts/forum.sol\":4552:4562  comment2_3 */\n  dup2\n    /* \"contracts/forum.sol\":4552:4566  comment2_3.tag */\n  0x02\n  add\n    /* \"contracts/forum.sol\":4552:4578  comment2_3.tag = \"student\" */\n  swap1\n  dup2\n  tag_21\n  swap2\n  swap1\n  tag_5\n  jump\t// in\ntag_21:\n  pop\n    /* \"contracts/forum.sol\":4611:4621  1746882492 */\n  0x681f4fbc\n    /* \"contracts/forum.sol\":4588:4598  comment2_3 */\n  dup2\n    /* \"contracts/forum.sol\":4588:4608  comment2_3.timestamp */\n  0x03\n  add\n    /* \"contracts/forum.sol\":4588:4621  comment2_3.timestamp = 1746882492 */\n  dup2\n  swap1\n  sstore\n  pop\n    /* \"contracts/forum.sol\":4668:4673  post2 */\n  dup4\n    /* \"contracts/forum.sol\":4668:4680  post2.author */\n  0x00\n  add\n  0x00\n  swap1\n  sload\n  swap1\n  0x0100\n  exp\n  swap1\n  div\n  0xffffffffffffffffffffffffffffffffffffffff\n  and\n    /* \"contracts/forum.sol\":4645:4707  PostCreated(postCount, post2.author, post2.tag, post2.content) */\n  0xffffffffffffffffffffffffffffffffffffffff\n  and\n    /* \"contracts/forum.sol\":4657:4666  postCount */\n  sload(0x01)\n    /* \"contracts/forum.sol\":4645:4707  PostCreated(postCount, post2.author, post2.tag, post2.content) */\n  0x5475621b07408f75d49c828caa5aeacb3a5e98d3497e75730dc184677504401c\n    /* \"contracts/forum.sol\":4682:4687  post2 */\n  dup7\n    /* \"contracts/forum.sol\":4682:4691  post2.tag */\n  0x02\n  add\n    /* \"contracts/forum.sol\":4693:4698  post2 */\n  dup8\n    /* \"contracts/forum.sol\":4693:4706  post2.content */\n  0x01\n  add\n    /* \"contracts/forum.sol\":4645:4707  PostCreated(postCount, post2.author, post2.tag, post2.content) */\n  mload(0x40)\n  tag_22\n  swap3\n  swap2\n  swap1\n  tag_10\n  jump\t// in\ntag_22:\n  mload(0x40)\n  dup1\n  swap2\n  sub\n  swap1\n  log3\n    /* \"contracts/forum.sol\":4749:4757  comment2 */\n  dup3\n    /* \"contracts/forum.sol\":4749:4764  comment2.author */\n  0x00\n  add\n  0x00\n  swap1\n  sload\n  swap1\n  0x0100\n  exp\n  swap1\n  div\n  0xffffffffffffffffffffffffffffffffffffffff\n  and\n    /* \"contracts/forum.sol\":4722:4797  CommentAdded(postCount, 1, comment2.author, comment2.content, comment2.tag) */\n  0xffffffffffffffffffffffffffffffffffffffff\n  and\n    /* \"contracts/forum.sol\":4746:4747  1 */\n  0x01\n    /* \"contracts/forum.sol\":4735:4744  postCount */\n  dup1\n  sload\n    /* \"contracts/forum.sol\":4722:4797  CommentAdded(postCount, 1, comment2.author, comment2.content, comment2.tag) */\n  0x03a56e2377acf256c15a50f0b97834fa29a151d0b8a6d05c450576e40634fadc\n    /* \"contracts/forum.sol\":4766:4774  comment2 */\n  dup7\n    /* \"contracts/forum.sol\":4766:4782  comment2.content */\n  0x01\n  add\n    /* \"contracts/forum.sol\":4784:4792  comment2 */\n  dup8\n    /* \"contracts/forum.sol\":4784:4796  comment2.tag */\n  0x02\n  add\n    /* \"contracts/forum.sol\":4722:4797  CommentAdded(postCount, 1, comment2.author, comment2.content, comment2.tag) */\n  mload(0x40)\n  tag_23\n  swap3\n  swap2\n  swap1\n  tag_10\n  jump\t// in\ntag_23:\n  mload(0x40)\n  dup1\n  swap2\n  sub\n  swap1\n  log4\n    /* \"contracts/forum.sol\":4839:4849  comment2_2 */\n  dup2\n    /* \"contracts/forum.sol\":4839:4856  comment2_2.author */\n  0x00\n  add\n  0x00\n  swap1\n  sload\n  swap1\n  0x0100\n  exp\n  swap1\n  div\n  0xffffffffffffffffffffffffffffffffffffffff\n  and\n    /* \"contracts/forum.sol\":4812:4893  CommentAdded(postCount, 2, comment2_2.author, comment2_2.content, comment2_2.tag) */\n  0xffffffffffffffffffffffffffffffffffffffff\n  and\n    /* \"contracts/forum.sol\":4836:4837  2 */\n  0x02\n    /* \"contracts/forum.sol\":4825:4834  postCount */\n  sload(0x01)\n    /* \"contracts/forum.sol\":4812:4893  CommentAdded(postCount, 2, comment2_2.author, comment2_2.content, comment2_2.tag) */\n  0x03a56e2377acf256c15a50f0b97834fa29a151d0b8a6d05c450576e40634fadc\n    /* \"contracts/forum.sol\":4858:4868  comment2_2 */\n  dup6\n    /* \"contracts/forum.sol\":4858:4876  comment2_2.content */\n  0x01\n  add\n    /* \"contracts/forum.sol\":4878:4888  comment2_2 */\n  dup7\n    /* \"contracts/forum.sol\":4878:4892  comment2_2.tag */\n  0x02\n  add\n    /* \"contracts/forum.sol\":4812:4893  CommentAdded(postCount, 2, comment2_2.author, comment2_2.content, comment2_2.tag) */\n  mload(0x40)\n  tag_24\n  swap3\n  swap2\n  swap1\n  tag_10\n  jump\t// in\ntag_24:\n  mload(0x40)\n  dup1\n  swap2\n  sub\n  swap1\n  log4\n    /* \"contracts/forum.sol\":4935:4945  comment2_3 */\n  dup1\n    /* \"contracts/forum.sol\":4935:4952  comment2_3.author */\n  0x00\n  add\n  0x00\n  swap1\n  sload\n  swap1\n  0x0100\n  exp\n  swap1\n  div\n  0xffffffffffffffffffffffffffffffffffffffff\n  and\n    /* \"contracts/forum.sol\":4908:4989  CommentAdded(postCount, 3, comment2_3.author, comment2_3.content, comment2_3.tag) */\n  0xffffffffffffffffffffffffffffffffffffffff\n  and\n    /* \"contracts/forum.sol\":4932:4933  3 */\n  0x03\n    /* \"contracts/forum.sol\":4921:4930  postCount */\n  sload(0x01)\n    /* \"contracts/forum.sol\":4908:4989  CommentAdded(postCount, 3, comment2_3.author, comment2_3.content, comment2_3.tag) */\n  0x03a56e2377acf256c15a50f0b97834fa29a151d0b8a6d05c450576e40634fadc\n    /* \"contracts/forum.sol\":4954:4964  comment2_3 */\n  dup5\n    /* \"contracts/forum.sol\":4954:4972  comment2_3.content */\n  0x01\n  add\n    /* \"contracts/forum.sol\":4974:4984  comment2_3 */\n  dup6\n    /* \"contracts/forum.sol\":4974:4988  comment2_3.tag */\n  0x02\n  add\n    /* \"contracts/forum.sol\":4908:4989  CommentAdded(postCount, 3, comment2_3.author, comment2_3.content, comment2_3.tag) */\n  mload(0x40)\n  tag_25\n  swap3\n  swap2\n  swap1\n  tag_10\n  jump\t// in\ntag_25:\n  mload(0x40)\n  dup1\n  swap2\n  sub\n  swap1\n  log4\n    /* \"contracts/forum.sol\":5088:5097  postCount */\n  0x01\n  0x00\n    /* \"contracts/forum.sol\":5088:5099  postCount++ */\n  dup2\n  sload\n  dup1\n  swap3\n  swap2\n  swap1\n  tag_26\n  swap1\n  tag_13\n  jump\t// in\ntag_26:\n  swap2\n  swap1\n  pop\n  sstore\n  pop\n    /* \"contracts/forum.sol\":5109:5127  Post storage post3 */\n  0x00\n    /* \"contracts/forum.sol\":5130:5135  posts */\n  dup1\n    /* \"contracts/forum.sol\":5130:5146  posts[postCount] */\n  0x00\n    /* \"contracts/forum.sol\":5136:5145  postCount */\n  sload(0x01)\n    /* \"contracts/forum.sol\":5130:5146  posts[postCount] */\n  dup2\n  mstore\n  0x20\n  add\n  swap1\n  dup2\n  mstore\n  0x20\n  add\n  0x00\n  keccak256\n    /* \"contracts/forum.sol\":5109:5146  Post storage post3 = posts[postCount] */\n  swap1\n  pop\n    /* \"contracts/forum.sol\":5171:5213  0x78731D3Ca6b7E34aC0F824c42a7cC18A495cabaB */\n  0x78731d3ca6b7e34ac0f824c42a7cc18a495cabab\n    /* \"contracts/forum.sol\":5156:5161  post3 */\n  dup2\n    /* \"contracts/forum.sol\":5156:5168  post3.author */\n  0x00\n  add\n  0x00\n    /* \"contracts/forum.sol\":5156:5213  post3.author = 0x78731D3Ca6b7E34aC0F824c42a7cC18A495cabaB */\n  0x0100\n  exp\n  dup2\n  sload\n  dup2\n  0xffffffffffffffffffffffffffffffffffffffff\n  mul\n  not\n  and\n  swap1\n  dup4\n  0xffffffffffffffffffffffffffffffffffffffff\n  and\n  mul\n  or\n  swap1\n  sstore\n  pop\n    /* \"contracts/forum.sol\":5224:5308  post3.content = \"The escalator outside CYT is broken again! Please fix it urgently!\" */\n  mload(0x40)\n  dup1\n  0x80\n  add\n  0x40\n  mstore\n  dup1\n  0x42\n  dup2\n  mstore\n  0x20\n  add\n  data_662f9e819c0ec1a67b4a86892f28f9af57a2c566121d6e8707b10c6df7847a0e\n  0x42\n  swap2\n  codecopy\n    /* \"contracts/forum.sol\":5224:5229  post3 */\n  dup2\n    /* \"contracts/forum.sol\":5224:5237  post3.content */\n  0x01\n  add\n    /* \"contracts/forum.sol\":5224:5308  post3.content = \"The escalator outside CYT is broken again! Please fix it urgently!\" */\n  swap1\n  dup2\n  tag_27\n  swap2\n  swap1\n  tag_5\n  jump\t// in\ntag_27:\n  pop\n    /* \"contracts/forum.sol\":5318:5339  post3.tag = \"student\" */\n  mload(0x40)\n  dup1\n  0x40\n  add\n  0x40\n  mstore\n  dup1\n  0x07\n  dup2\n  mstore\n  0x20\n  add\n  0x73747564656e7400000000000000000000000000000000000000000000000000\n  dup2\n  mstore\n  pop\n    /* \"contracts/forum.sol\":5318:5323  post3 */\n  dup2\n    /* \"contracts/forum.sol\":5318:5327  post3.tag */\n  0x02\n  add\n    /* \"contracts/forum.sol\":5318:5339  post3.tag = \"student\" */\n  swap1\n  dup2\n  tag_28\n  swap2\n  swap1\n  tag_5\n  jump\t// in\ntag_28:\n  pop\n    /* \"contracts/forum.sol\":5421:5431  1747098876 */\n  0x68229cfc\n    /* \"contracts/forum.sol\":5403:5408  post3 */\n  dup2\n    /* \"contracts/forum.sol\":5403:5418  post3.timestamp */\n  0x03\n  add\n    /* \"contracts/forum.sol\":5403:5431  post3.timestamp = 1747098876 */\n  dup2\n  swap1\n  sstore\n  pop\n    /* \"contracts/forum.sol\":5466:5471  false */\n  0x00\n    /* \"contracts/forum.sol\":5442:5447  post3 */\n  dup2\n    /* \"contracts/forum.sol\":5442:5463  post3.isTagChallenged */\n  0x04\n  add\n  0x00\n    /* \"contracts/forum.sol\":5442:5471  post3.isTagChallenged = false */\n  0x0100\n  exp\n  dup2\n  sload\n  dup2\n  0xff\n  mul\n  not\n  and\n  swap1\n  dup4\n  iszero\n  iszero\n  mul\n  or\n  swap1\n  sstore\n  pop\n    /* \"contracts/forum.sol\":5499:5500  1 */\n  0x01\n    /* \"contracts/forum.sol\":5481:5486  post3 */\n  dup2\n    /* \"contracts/forum.sol\":5481:5496  post3.realVotes */\n  0x05\n  add\n    /* \"contracts/forum.sol\":5481:5500  post3.realVotes = 1 */\n  dup2\n  swap1\n  sstore\n  pop\n    /* \"contracts/forum.sol\":5529:5530  0 */\n  0x00\n    /* \"contracts/forum.sol\":5510:5515  post3 */\n  dup2\n    /* \"contracts/forum.sol\":5510:5526  post3.fakerVotes */\n  0x06\n  add\n    /* \"contracts/forum.sol\":5510:5530  post3.fakerVotes = 0 */\n  dup2\n  swap1\n  sstore\n  pop\n    /* \"contracts/forum.sol\":5561:5562  2 */\n  0x02\n    /* \"contracts/forum.sol\":5540:5545  post3 */\n  dup2\n    /* \"contracts/forum.sol\":5540:5558  post3.commentCount */\n  0x08\n  add\n    /* \"contracts/forum.sol\":5540:5562  post3.commentCount = 2 */\n  dup2\n  swap1\n  sstore\n  pop\n    /* \"contracts/forum.sol\":5632:5656  Comment storage comment3 */\n  0x00\n    /* \"contracts/forum.sol\":5659:5667  comments */\n  0x02\n    /* \"contracts/forum.sol\":5659:5678  comments[postCount] */\n  0x00\n    /* \"contracts/forum.sol\":5668:5677  postCount */\n  sload(0x01)\n    /* \"contracts/forum.sol\":5659:5678  comments[postCount] */\n  dup2\n  mstore\n  0x20\n  add\n  swap1\n  dup2\n  mstore\n  0x20\n  add\n  0x00\n  keccak256\n    /* \"contracts/forum.sol\":5659:5681  comments[postCount][1] */\n  0x00\n    /* \"contracts/forum.sol\":5679:5680  1 */\n  0x01\n    /* \"contracts/forum.sol\":5659:5681  comments[postCount][1] */\n  dup2\n  mstore\n  0x20\n  add\n  swap1\n  dup2\n  mstore\n  0x20\n  add\n  0x00\n  keccak256\n    /* \"contracts/forum.sol\":5632:5681  Comment storage comment3 = comments[postCount][1] */\n  swap1\n  pop\n    /* \"contracts/forum.sol\":5709:5751  0x3fC91A3afd70395Cd496C647d5a6CC9D4B2b7FAD */\n  0x3fc91a3afd70395cd496c647d5a6cc9d4b2b7fad\n    /* \"contracts/forum.sol\":5691:5699  comment3 */\n  dup2\n    /* \"contracts/forum.sol\":5691:5706  comment3.author */\n  0x00\n  add\n  0x00\n    /* \"contracts/forum.sol\":5691:5751  comment3.author = 0x3fC91A3afd70395Cd496C647d5a6CC9D4B2b7FAD */\n  0x0100\n  exp\n  dup2\n  sload\n  dup2\n  0xffffffffffffffffffffffffffffffffffffffff\n  mul\n  not\n  and\n  swap1\n  dup4\n  0xffffffffffffffffffffffffffffffffffffffff\n  and\n  mul\n  or\n  swap1\n  sstore\n  pop\n    /* \"contracts/forum.sol\":5797:5895  comment3.content = \"Thank you for reporting this issue. We'll send a maintenance team right away.\" */\n  mload(0x40)\n  dup1\n  0x80\n  add\n  0x40\n  mstore\n  dup1\n  0x4d\n  dup2\n  mstore\n  0x20\n  add\n  data_f91a2c705d04979d9b7b4f9891b6f77a768e3aed826646fb07790d0edb5497ef\n  0x4d\n  swap2\n  codecopy\n    /* \"contracts/forum.sol\":5797:5805  comment3 */\n  dup2\n    /* \"contracts/forum.sol\":5797:5813  comment3.content */\n  0x01\n  add\n    /* \"contracts/forum.sol\":5797:5895  comment3.content = \"Thank you for reporting this issue. We'll send a maintenance team right away.\" */\n  swap1\n  dup2\n  tag_29\n  swap2\n  swap1\n  tag_5\n  jump\t// in\ntag_29:\n  pop\n    /* \"contracts/forum.sol\":5905:5927  comment3.tag = \"staff\" */\n  mload(0x40)\n  dup1\n  0x40\n  add\n  0x40\n  mstore\n  dup1\n  0x05\n  dup2\n  mstore\n  0x20\n  add\n  0x7374616666000000000000000000000000000000000000000000000000000000\n  dup2\n  mstore\n  pop\n    /* \"contracts/forum.sol\":5905:5913  comment3 */\n  dup2\n    /* \"contracts/forum.sol\":5905:5917  comment3.tag */\n  0x02\n  add\n    /* \"contracts/forum.sol\":5905:5927  comment3.tag = \"staff\" */\n  swap1\n  dup2\n  tag_30\n  swap2\n  swap1\n  tag_5\n  jump\t// in\ntag_30:\n  pop\n    /* \"contracts/forum.sol\":6010:6020  1747099000 */\n  0x68229d78\n    /* \"contracts/forum.sol\":5989:5997  comment3 */\n  dup2\n    /* \"contracts/forum.sol\":5989:6007  comment3.timestamp */\n  0x03\n  add\n    /* \"contracts/forum.sol\":5989:6020  comment3.timestamp = 1747099000 */\n  dup2\n  swap1\n  sstore\n  pop\n    /* \"contracts/forum.sol\":6120:6146  Comment storage comment3_2 */\n  0x00\n    /* \"contracts/forum.sol\":6149:6157  comments */\n  0x02\n    /* \"contracts/forum.sol\":6149:6168  comments[postCount] */\n  0x00\n    /* \"contracts/forum.sol\":6158:6167  postCount */\n  sload(0x01)\n    /* \"contracts/forum.sol\":6149:6168  comments[postCount] */\n  dup2\n  mstore\n  0x20\n  add\n  swap1\n  dup2\n  mstore\n  0x20\n  add\n  0x00\n  keccak256\n    /* \"contracts/forum.sol\":6149:6171  comments[postCount][2] */\n  0x00\n    /* \"contracts/forum.sol\":6169:6170  2 */\n  0x02\n    /* \"contracts/forum.sol\":6149:6171  comments[postCount][2] */\n  dup2\n  mstore\n  0x20\n  add\n  swap1\n  dup2\n  mstore\n  0x20\n  add\n  0x00\n  keccak256\n    /* \"contracts/forum.sol\":6120:6171  Comment storage comment3_2 = comments[postCount][2] */\n  swap1\n  pop\n    /* \"contracts/forum.sol\":6201:6243  0xa983d7E14AC1aAf050bb64Fdab1024ae9c93c956 */\n  0xa983d7e14ac1aaf050bb64fdab1024ae9c93c956\n    /* \"contracts/forum.sol\":6181:6191  comment3_2 */\n  dup2\n    /* \"contracts/forum.sol\":6181:6198  comment3_2.author */\n  0x00\n  add\n  0x00\n    /* \"contracts/forum.sol\":6181:6243  comment3_2.author = 0xa983d7E14AC1aAf050bb64Fdab1024ae9c93c956 */\n  0x0100\n  exp\n  dup2\n  sload\n  dup2\n  0xffffffffffffffffffffffffffffffffffffffff\n  mul\n  not\n  and\n  swap1\n  dup4\n  0xffffffffffffffffffffffffffffffffffffffff\n  and\n  mul\n  or\n  swap1\n  sstore\n  pop\n    /* \"contracts/forum.sol\":6253:6354  comment3_2.content = \"Thank you to the staff for the quick response! This has been an ongoing issue.\" */\n  mload(0x40)\n  dup1\n  0x80\n  add\n  0x40\n  mstore\n  dup1\n  0x4e\n  dup2\n  mstore\n  0x20\n  add\n  data_91dcfb7d7a085b9f8b5d17c4e0a5ce16333bb6d86ea07f0a4b8f440ad6622dfd\n  0x4e\n  swap2\n  codecopy\n    /* \"contracts/forum.sol\":6253:6263  comment3_2 */\n  dup2\n    /* \"contracts/forum.sol\":6253:6271  comment3_2.content */\n  0x01\n  add\n    /* \"contracts/forum.sol\":6253:6354  comment3_2.content = \"Thank you to the staff for the quick response! This has been an ongoing issue.\" */\n  swap1\n  dup2\n  tag_31\n  swap2\n  swap1\n  tag_5\n  jump\t// in\ntag_31:\n  pop\n    /* \"contracts/forum.sol\":6364:6392  comment3_2.tag = \"professor\" */\n  mload(0x40)\n  dup1\n  0x40\n  add\n  0x40\n  mstore\n  dup1\n  0x09\n  dup2\n  mstore\n  0x20\n  add\n  0x70726f666573736f720000000000000000000000000000000000000000000000\n  dup2\n  mstore\n  pop\n    /* \"contracts/forum.sol\":6364:6374  comment3_2 */\n  dup2\n    /* \"contracts/forum.sol\":6364:6378  comment3_2.tag */\n  0x02\n  add\n    /* \"contracts/forum.sol\":6364:6392  comment3_2.tag = \"professor\" */\n  swap1\n  dup2\n  tag_32\n  swap2\n  swap1\n  tag_5\n  jump\t// in\ntag_32:\n  pop\n    /* \"contracts/forum.sol\":6425:6435  1746882408 */\n  0x681f4f68\n    /* \"contracts/forum.sol\":6402:6412  comment3_2 */\n  dup2\n    /* \"contracts/forum.sol\":6402:6422  comment3_2.timestamp */\n  0x03\n  add\n    /* \"contracts/forum.sol\":6402:6435  comment3_2.timestamp = 1746882408 */\n  dup2\n  swap1\n  sstore\n  pop\n    /* \"contracts/forum.sol\":6492:6496  true */\n  0x01\n    /* \"contracts/forum.sol\":6445:6450  posts */\n  0x00\n    /* \"contracts/forum.sol\":6445:6461  posts[postCount] */\n  dup1\n    /* \"contracts/forum.sol\":6451:6460  postCount */\n  sload(0x01)\n    /* \"contracts/forum.sol\":6445:6461  posts[postCount] */\n  dup2\n  mstore\n  0x20\n  add\n  swap1\n  dup2\n  mstore\n  0x20\n  add\n  0x00\n  keccak256\n    /* \"contracts/forum.sol\":6445:6470  posts[postCount].hasVoted */\n  0x07\n  add\n    /* \"contracts/forum.sol\":6445:6489  posts[postCount].hasVoted[comment3_2.author] */\n  0x00\n    /* \"contracts/forum.sol\":6471:6481  comment3_2 */\n  dup4\n    /* \"contracts/forum.sol\":6471:6488  comment3_2.author */\n  0x00\n  add\n  0x00\n  swap1\n  sload\n  swap1\n  0x0100\n  exp\n  swap1\n  div\n  0xffffffffffffffffffffffffffffffffffffffff\n  and\n    /* \"contracts/forum.sol\":6445:6489  posts[postCount].hasVoted[comment3_2.author] */\n  0xffffffffffffffffffffffffffffffffffffffff\n  and\n  0xffffffffffffffffffffffffffffffffffffffff\n  and\n  dup2\n  mstore\n  0x20\n  add\n  swap1\n  dup2\n  mstore\n  0x20\n  add\n  0x00\n  keccak256\n  0x00\n    /* \"contracts/forum.sol\":6445:6496  posts[postCount].hasVoted[comment3_2.author] = true */\n  0x0100\n  exp\n  dup2\n  sload\n  dup2\n  0xff\n  mul\n  not\n  and\n  swap1\n  dup4\n  iszero\n  iszero\n  mul\n  or\n  swap1\n  sstore\n  pop\n    /* \"contracts/forum.sol\":6535:6540  post3 */\n  dup3\n    /* \"contracts/forum.sol\":6535:6547  post3.author */\n  0x00\n  add\n  0x00\n  swap1\n  sload\n  swap1\n  0x0100\n  exp\n  swap1\n  div\n  0xffffffffffffffffffffffffffffffffffffffff\n  and\n    /* \"contracts/forum.sol\":6512:6574  PostCreated(postCount, post3.author, post3.tag, post3.content) */\n  0xffffffffffffffffffffffffffffffffffffffff\n  and\n    /* \"contracts/forum.sol\":6524:6533  postCount */\n  sload(0x01)\n    /* \"contracts/forum.sol\":6512:6574  PostCreated(postCount, post3.author, post3.tag, post3.content) */\n  0x5475621b07408f75d49c828caa5aeacb3a5e98d3497e75730dc184677504401c\n    /* \"contracts/forum.sol\":6549:6554  post3 */\n  dup6\n    /* \"contracts/forum.sol\":6549:6558  post3.tag */\n  0x02\n  add\n    /* \"contracts/forum.sol\":6560:6565  post3 */\n  dup7\n    /* \"contracts/forum.sol\":6560:6573  post3.content */\n  0x01\n  add\n    /* \"contracts/forum.sol\":6512:6574  PostCreated(postCount, post3.author, post3.tag, post3.content) */\n  mload(0x40)\n  tag_33\n  swap3\n  swap2\n  swap1\n  tag_10\n  jump\t// in\ntag_33:\n  mload(0x40)\n  dup1\n  swap2\n  sub\n  swap1\n  log3\n    /* \"contracts/forum.sol\":6616:6624  comment3 */\n  dup2\n    /* \"contracts/forum.sol\":6616:6631  comment3.author */\n  0x00\n  add\n  0x00\n  swap1\n  sload\n  swap1\n  0x0100\n  exp\n  swap1\n  div\n  0xffffffffffffffffffffffffffffffffffffffff\n  and\n    /* \"contracts/forum.sol\":6589:6664  CommentAdded(postCount, 1, comment3.author, comment3.content, comment3.tag) */\n  0xffffffffffffffffffffffffffffffffffffffff\n  and\n    /* \"contracts/forum.sol\":6613:6614  1 */\n  0x01\n    /* \"contracts/forum.sol\":6602:6611  postCount */\n  dup1\n  sload\n    /* \"contracts/forum.sol\":6589:6664  CommentAdded(postCount, 1, comment3.author, comment3.content, comment3.tag) */\n  0x03a56e2377acf256c15a50f0b97834fa29a151d0b8a6d05c450576e40634fadc\n    /* \"contracts/forum.sol\":6633:6641  comment3 */\n  dup6\n    /* \"contracts/forum.sol\":6633:6649  comment3.content */\n  0x01\n  add\n    /* \"contracts/forum.sol\":6651:6659  comment3 */\n  dup7\n    /* \"contracts/forum.sol\":6651:6663  comment3.tag */\n  0x02\n  add\n    /* \"contracts/forum.sol\":6589:6664  CommentAdded(postCount, 1, comment3.author, comment3.content, comment3.tag) */\n  mload(0x40)\n  tag_34\n  swap3\n  swap2\n  swap1\n  tag_10\n  jump\t// in\ntag_34:\n  mload(0x40)\n  dup1\n  swap2\n  sub\n  swap1\n  log4\n    /* \"contracts/forum.sol\":6706:6716  comment3_2 */\n  dup1\n    /* \"contracts/forum.sol\":6706:6723  comment3_2.author */\n  0x00\n  add\n  0x00\n  swap1\n  sload\n  swap1\n  0x0100\n  exp\n  swap1\n  div\n  0xffffffffffffffffffffffffffffffffffffffff\n  and\n    /* \"contracts/forum.sol\":6679:6760  CommentAdded(postCount, 2, comment3_2.author, comment3_2.content, comment3_2.tag) */\n  0xffffffffffffffffffffffffffffffffffffffff\n  and\n    /* \"contracts/forum.sol\":6703:6704  2 */\n  0x02\n    /* \"contracts/forum.sol\":6692:6701  postCount */\n  sload(0x01)\n    /* \"contracts/forum.sol\":6679:6760  CommentAdded(postCount, 2, comment3_2.author, comment3_2.content, comment3_2.tag) */\n  0x03a56e2377acf256c15a50f0b97834fa29a151d0b8a6d05c450576e40634fadc\n    /* \"contracts/forum.sol\":6725:6735  comment3_2 */\n  dup5\n    /* \"contracts/forum.sol\":6725:6743  comment3_2.content */\n  0x01\n  add\n    /* \"contracts/forum.sol\":6745:6755  comment3_2 */\n  dup6\n    /* \"contracts/forum.sol\":6745:6759  comment3_2.tag */\n  0x02\n  add\n    /* \"contracts/forum.sol\":6679:6760  CommentAdded(postCount, 2, comment3_2.author, comment3_2.content, comment3_2.tag) */\n  mload(0x40)\n  tag_35\n  swap3\n  swap2\n  swap1\n  tag_10\n  jump\t// in\ntag_35:\n  mload(0x40)\n  dup1\n  swap2\n  sub\n  swap1\n  log4\n    /* \"contracts/forum.sol\":6858:6867  postCount */\n  0x01\n  0x00\n    /* \"contracts/forum.sol\":6858:6869  postCount++ */\n  dup2\n  sload\n  dup1\n  swap3\n  swap2\n  swap1\n  tag_36\n  swap1\n  tag_13\n  jump\t// in\ntag_36:\n  swap2\n  swap1\n  pop\n  sstore\n  pop\n    /* \"contracts/forum.sol\":6879:6897  Post storage post4 */\n  0x00\n    /* \"contracts/forum.sol\":6900:6905  posts */\n  dup1\n    /* \"contracts/forum.sol\":6900:6916  posts[postCount] */\n  0x00\n    /* \"contracts/forum.sol\":6906:6915  postCount */\n  sload(0x01)\n    /* \"contracts/forum.sol\":6900:6916  posts[postCount] */\n  dup2\n  mstore\n  0x20\n  add\n  swap1\n  dup2\n  mstore\n  0x20\n  add\n  0x00\n  keccak256\n    /* \"contracts/forum.sol\":6879:6916  Post storage post4 = posts[postCount] */\n  swap1\n  pop\n    /* \"contracts/forum.sol\":6941:6983  0x4511277f98BA4282705Da1c250110E24Aa2f88a2 */\n  0x4511277f98ba4282705da1c250110e24aa2f88a2\n    /* \"contracts/forum.sol\":6926:6931  post4 */\n  dup2\n    /* \"contracts/forum.sol\":6926:6938  post4.author */\n  0x00\n  add\n  0x00\n    /* \"contracts/forum.sol\":6926:6983  post4.author = 0x4511277f98BA4282705Da1c250110E24Aa2f88a2 */\n  0x0100\n  exp\n  dup2\n  sload\n  dup2\n  0xffffffffffffffffffffffffffffffffffffffff\n  mul\n  not\n  and\n  swap1\n  dup4\n  0xffffffffffffffffffffffffffffffffffffffff\n  and\n  mul\n  or\n  swap1\n  sstore\n  pop\n    /* \"contracts/forum.sol\":6994:7048  post4.content = \"When will LG1 open new meal options?\" */\n  mload(0x40)\n  dup1\n  0x60\n  add\n  0x40\n  mstore\n  dup1\n  0x24\n  dup2\n  mstore\n  0x20\n  add\n  data_7a88afac954be152cbdd746c103c09b6bbbaac92bf6b79edf0e92bb32febcb00\n  0x24\n  swap2\n  codecopy\n    /* \"contracts/forum.sol\":6994:6999  post4 */\n  dup2\n    /* \"contracts/forum.sol\":6994:7007  post4.content */\n  0x01\n  add\n    /* \"contracts/forum.sol\":6994:7048  post4.content = \"When will LG1 open new meal options?\" */\n  swap1\n  dup2\n  tag_37\n  swap2\n  swap1\n  tag_5\n  jump\t// in\ntag_37:\n  pop\n    /* \"contracts/forum.sol\":7058:7077  post4.tag = \"staff\" */\n  mload(0x40)\n  dup1\n  0x40\n  add\n  0x40\n  mstore\n  dup1\n  0x05\n  dup2\n  mstore\n  0x20\n  add\n  0x7374616666000000000000000000000000000000000000000000000000000000\n  dup2\n  mstore\n  pop\n    /* \"contracts/forum.sol\":7058:7063  post4 */\n  dup2\n    /* \"contracts/forum.sol\":7058:7067  post4.tag */\n  0x02\n  add\n    /* \"contracts/forum.sol\":7058:7077  post4.tag = \"staff\" */\n  swap1\n  dup2\n  tag_38\n  swap2\n  swap1\n  tag_5\n  jump\t// in\ntag_38:\n  pop\n    /* \"contracts/forum.sol\":7160:7170  1746886600 */\n  0x681f5fc8\n    /* \"contracts/forum.sol\":7142:7147  post4 */\n  dup2\n    /* \"contracts/forum.sol\":7142:7157  post4.timestamp */\n  0x03\n  add\n    /* \"contracts/forum.sol\":7142:7170  post4.timestamp = 1746886600 */\n  dup2\n  swap1\n  sstore\n  pop\n    /* \"contracts/forum.sol\":7205:7209  true */\n  0x01\n    /* \"contracts/forum.sol\":7181:7186  post4 */\n  dup2\n    /* \"contracts/forum.sol\":7181:7202  post4.isTagChallenged */\n  0x04\n  add\n  0x00\n    /* \"contracts/forum.sol\":7181:7209  post4.isTagChallenged = true */\n  0x0100\n  exp\n  dup2\n  sload\n  dup2\n  0xff\n  mul\n  not\n  and\n  swap1\n  dup4\n  iszero\n  iszero\n  mul\n  or\n  swap1\n  sstore\n  pop\n    /* \"contracts/forum.sol\":7237:7238  0 */\n  0x00\n    /* \"contracts/forum.sol\":7219:7224  post4 */\n  dup2\n    /* \"contracts/forum.sol\":7219:7234  post4.realVotes */\n  0x05\n  add\n    /* \"contracts/forum.sol\":7219:7238  post4.realVotes = 0 */\n  dup2\n  swap1\n  sstore\n  pop\n    /* \"contracts/forum.sol\":7267:7268  3 */\n  0x03\n    /* \"contracts/forum.sol\":7248:7253  post4 */\n  dup2\n    /* \"contracts/forum.sol\":7248:7264  post4.fakerVotes */\n  0x06\n  add\n    /* \"contracts/forum.sol\":7248:7268  post4.fakerVotes = 3 */\n  dup2\n  swap1\n  sstore\n  pop\n    /* \"contracts/forum.sol\":7299:7300  3 */\n  0x03\n    /* \"contracts/forum.sol\":7278:7283  post4 */\n  dup2\n    /* \"contracts/forum.sol\":7278:7296  post4.commentCount */\n  0x08\n  add\n    /* \"contracts/forum.sol\":7278:7300  post4.commentCount = 3 */\n  dup2\n  swap1\n  sstore\n  pop\n    /* \"contracts/forum.sol\":7372:7396  Comment storage comment4 */\n  0x00\n    /* \"contracts/forum.sol\":7399:7407  comments */\n  0x02\n    /* \"contracts/forum.sol\":7399:7418  comments[postCount] */\n  0x00\n    /* \"contracts/forum.sol\":7408:7417  postCount */\n  sload(0x01)\n    /* \"contracts/forum.sol\":7399:7418  comments[postCount] */\n  dup2\n  mstore\n  0x20\n  add\n  swap1\n  dup2\n  mstore\n  0x20\n  add\n  0x00\n  keccak256\n    /* \"contracts/forum.sol\":7399:7421  comments[postCount][1] */\n  0x00\n    /* \"contracts/forum.sol\":7419:7420  1 */\n  0x01\n    /* \"contracts/forum.sol\":7399:7421  comments[postCount][1] */\n  dup2\n  mstore\n  0x20\n  add\n  swap1\n  dup2\n  mstore\n  0x20\n  add\n  0x00\n  keccak256\n    /* \"contracts/forum.sol\":7372:7421  Comment storage comment4 = comments[postCount][1] */\n  swap1\n  pop\n    /* \"contracts/forum.sol\":7449:7491  0x5B38Da6a701c568545dCfcB03FcB875f56beddC4 */\n  0x5b38da6a701c568545dcfcb03fcb875f56beddc4\n    /* \"contracts/forum.sol\":7431:7439  comment4 */\n  dup2\n    /* \"contracts/forum.sol\":7431:7446  comment4.author */\n  0x00\n  add\n  0x00\n    /* \"contracts/forum.sol\":7431:7491  comment4.author = 0x5B38Da6a701c568545dCfcB03FcB875f56beddC4 */\n  0x0100\n  exp\n  dup2\n  sload\n  dup2\n  0xffffffffffffffffffffffffffffffffffffffff\n  mul\n  not\n  and\n  swap1\n  dup4\n  0xffffffffffffffffffffffffffffffffffffffff\n  and\n  mul\n  or\n  swap1\n  sstore\n  pop\n    /* \"contracts/forum.sol\":7501:7656  comment4.content = \"This person with id #45 is not staff. This guy tryiing to pretent both professor and stuff. I've seen them around campus as a student.\" */\n  mload(0x40)\n  dup1\n  0xc0\n  add\n  0x40\n  mstore\n  dup1\n  0x86\n  dup2\n  mstore\n  0x20\n  add\n  data_2d563f8c4a74dd0644937725b586cee1a44ad356b95651a297511e43fe5cf6b0\n  0x86\n  swap2\n  codecopy\n    /* \"contracts/forum.sol\":7501:7509  comment4 */\n  dup2\n    /* \"contracts/forum.sol\":7501:7517  comment4.content */\n  0x01\n  add\n    /* \"contracts/forum.sol\":7501:7656  comment4.content = \"This person with id #45 is not staff. This guy tryiing to pretent both professor and stuff. I've seen them around campus as a student.\" */\n  swap1\n  dup2\n  tag_39\n  swap2\n  swap1\n  tag_5\n  jump\t// in\ntag_39:\n  pop\n    /* \"contracts/forum.sol\":7666:7690  comment4.tag = \"student\" */\n  mload(0x40)\n  dup1\n  0x40\n  add\n  0x40\n  mstore\n  dup1\n  0x07\n  dup2\n  mstore\n  0x20\n  add\n  0x73747564656e7400000000000000000000000000000000000000000000000000\n  dup2\n  mstore\n  pop\n    /* \"contracts/forum.sol\":7666:7674  comment4 */\n  dup2\n    /* \"contracts/forum.sol\":7666:7678  comment4.tag */\n  0x02\n  add\n    /* \"contracts/forum.sol\":7666:7690  comment4.tag = \"student\" */\n  swap1\n  dup2\n  tag_40\n  swap2\n  swap1\n  tag_5\n  jump\t// in\ntag_40:\n  pop\n    /* \"contracts/forum.sol\":7721:7731  1746887700 */\n  0x681f6414\n    /* \"contracts/forum.sol\":7700:7708  comment4 */\n  dup2\n    /* \"contracts/forum.sol\":7700:7718  comment4.timestamp */\n  0x03\n  add\n    /* \"contracts/forum.sol\":7700:7731  comment4.timestamp = 1746887700 */\n  dup2\n  swap1\n  sstore\n  pop\n    /* \"contracts/forum.sol\":7824:7828  true */\n  0x01\n    /* \"contracts/forum.sol\":7779:7784  posts */\n  0x00\n    /* \"contracts/forum.sol\":7779:7795  posts[postCount] */\n  dup1\n    /* \"contracts/forum.sol\":7785:7794  postCount */\n  sload(0x01)\n    /* \"contracts/forum.sol\":7779:7795  posts[postCount] */\n  dup2\n  mstore\n  0x20\n  add\n  swap1\n  dup2\n  mstore\n  0x20\n  add\n  0x00\n  keccak256\n    /* \"contracts/forum.sol\":7779:7804  posts[postCount].hasVoted */\n  0x07\n  add\n    /* \"contracts/forum.sol\":7779:7821  posts[postCount].hasVoted[comment4.author] */\n  0x00\n    /* \"contracts/forum.sol\":7805:7813  comment4 */\n  dup4\n    /* \"contracts/forum.sol\":7805:7820  comment4.author */\n  0x00\n  add\n  0x00\n  swap1\n  sload\n  swap1\n  0x0100\n  exp\n  swap1\n  div\n  0xffffffffffffffffffffffffffffffffffffffff\n  and\n    /* \"contracts/forum.sol\":7779:7821  posts[postCount].hasVoted[comment4.author] */\n  0xffffffffffffffffffffffffffffffffffffffff\n  and\n  0xffffffffffffffffffffffffffffffffffffffff\n  and\n  dup2\n  mstore\n  0x20\n  add\n  swap1\n  dup2\n  mstore\n  0x20\n  add\n  0x00\n  keccak256\n  0x00\n    /* \"contracts/forum.sol\":7779:7828  posts[postCount].hasVoted[comment4.author] = true */\n  0x0100\n  exp\n  dup2\n  sload\n  dup2\n  0xff\n  mul\n  not\n  and\n  swap1\n  dup4\n  iszero\n  iszero\n  mul\n  or\n  swap1\n  sstore\n  pop\n    /* \"contracts/forum.sol\":7894:7920  Comment storage comment4_2 */\n  0x00\n    /* \"contracts/forum.sol\":7923:7931  comments */\n  0x02\n    /* \"contracts/forum.sol\":7923:7942  comments[postCount] */\n  0x00\n    /* \"contracts/forum.sol\":7932:7941  postCount */\n  sload(0x01)\n    /* \"contracts/forum.sol\":7923:7942  comments[postCount] */\n  dup2\n  mstore\n  0x20\n  add\n  swap1\n  dup2\n  mstore\n  0x20\n  add\n  0x00\n  keccak256\n    /* \"contracts/forum.sol\":7923:7945  comments[postCount][2] */\n  0x00\n    /* \"contracts/forum.sol\":7943:7944  2 */\n  0x02\n    /* \"contracts/forum.sol\":7923:7945  comments[postCount][2] */\n  dup2\n  mstore\n  0x20\n  add\n  swap1\n  dup2\n  mstore\n  0x20\n  add\n  0x00\n  keccak256\n    /* \"contracts/forum.sol\":7894:7945  Comment storage comment4_2 = comments[postCount][2] */\n  swap1\n  pop\n    /* \"contracts/forum.sol\":7975:8017  0x617F2E2fD72FD9D5503197092aC168c91465E7f2 */\n  0x617f2e2fd72fd9d5503197092ac168c91465e7f2\n    /* \"contracts/forum.sol\":7955:7965  comment4_2 */\n  dup2\n    /* \"contracts/forum.sol\":7955:7972  comment4_2.author */\n  0x00\n  add\n  0x00\n    /* \"contracts/forum.sol\":7955:8017  comment4_2.author = 0x617F2E2fD72FD9D5503197092aC168c91465E7f2 */\n  0x0100\n  exp\n  dup2\n  sload\n  dup2\n  0xffffffffffffffffffffffffffffffffffffffff\n  mul\n  not\n  and\n  swap1\n  dup4\n  0xffffffffffffffffffffffffffffffffffffffff\n  and\n  mul\n  or\n  swap1\n  sstore\n  pop\n    /* \"contracts/forum.sol\":8027:8105  comment4_2.content = \"I agree, definitely not staff. Voting fake on this one.\" */\n  mload(0x40)\n  dup1\n  0x60\n  add\n  0x40\n  mstore\n  dup1\n  0x37\n  dup2\n  mstore\n  0x20\n  add\n  data_c626309a2b2d0d2f31e3c3b6d36266f67d4204939e266901cbf28ee624e6e2d0\n  0x37\n  swap2\n  codecopy\n    /* \"contracts/forum.sol\":8027:8037  comment4_2 */\n  dup2\n    /* \"contracts/forum.sol\":8027:8045  comment4_2.content */\n  0x01\n  add\n    /* \"contracts/forum.sol\":8027:8105  comment4_2.content = \"I agree, definitely not staff. Voting fake on this one.\" */\n  swap1\n  dup2\n  tag_41\n  swap2\n  swap1\n  tag_5\n  jump\t// in\ntag_41:\n  pop\n    /* \"contracts/forum.sol\":8115:8141  comment4_2.tag = \"student\" */\n  mload(0x40)\n  dup1\n  0x40\n  add\n  0x40\n  mstore\n  dup1\n  0x07\n  dup2\n  mstore\n  0x20\n  add\n  0x73747564656e7400000000000000000000000000000000000000000000000000\n  dup2\n  mstore\n  pop\n    /* \"contracts/forum.sol\":8115:8125  comment4_2 */\n  dup2\n    /* \"contracts/forum.sol\":8115:8129  comment4_2.tag */\n  0x02\n  add\n    /* \"contracts/forum.sol\":8115:8141  comment4_2.tag = \"student\" */\n  swap1\n  dup2\n  tag_42\n  swap2\n  swap1\n  tag_5\n  jump\t// in\ntag_42:\n  pop\n    /* \"contracts/forum.sol\":8174:8184  1746888800 */\n  0x681f6860\n    /* \"contracts/forum.sol\":8151:8161  comment4_2 */\n  dup2\n    /* \"contracts/forum.sol\":8151:8171  comment4_2.timestamp */\n  0x03\n  add\n    /* \"contracts/forum.sol\":8151:8184  comment4_2.timestamp = 1746888800 */\n  dup2\n  swap1\n  sstore\n  pop\n    /* \"contracts/forum.sol\":8241:8245  true */\n  0x01\n    /* \"contracts/forum.sol\":8194:8199  posts */\n  0x00\n    /* \"contracts/forum.sol\":8194:8210  posts[postCount] */\n  dup1\n    /* \"contracts/forum.sol\":8200:8209  postCount */\n  sload(0x01)\n    /* \"contracts/forum.sol\":8194:8210  posts[postCount] */\n  dup2\n  mstore\n  0x20\n  add\n  swap1\n  dup2\n  mstore\n  0x20\n  add\n  0x00\n  keccak256\n    /* \"contracts/forum.sol\":8194:8219  posts[postCount].hasVoted */\n  0x07\n  add\n    /* \"contracts/forum.sol\":8194:8238  posts[postCount].hasVoted[comment4_2.author] */\n  0x00\n    /* \"contracts/forum.sol\":8220:8230  comment4_2 */\n  dup4\n    /* \"contracts/forum.sol\":8220:8237  comment4_2.author */\n  0x00\n  add\n  0x00\n  swap1\n  sload\n  swap1\n  0x0100\n  exp\n  swap1\n  div\n  0xffffffffffffffffffffffffffffffffffffffff\n  and\n    /* \"contracts/forum.sol\":8194:8238  posts[postCount].hasVoted[comment4_2.author] */\n  0xffffffffffffffffffffffffffffffffffffffff\n  and\n  0xffffffffffffffffffffffffffffffffffffffff\n  and\n  dup2\n  mstore\n  0x20\n  add\n  swap1\n  dup2\n  mstore\n  0x20\n  add\n  0x00\n  keccak256\n  0x00\n    /* \"contracts/forum.sol\":8194:8245  posts[postCount].hasVoted[comment4_2.author] = true */\n  0x0100\n  exp\n  dup2\n  sload\n  dup2\n  0xff\n  mul\n  not\n  and\n  swap1\n  dup4\n  iszero\n  iszero\n  mul\n  or\n  swap1\n  sstore\n  pop\n    /* \"contracts/forum.sol\":8318:8344  Comment storage comment4_3 */\n  0x00\n    /* \"contracts/forum.sol\":8347:8355  comments */\n  0x02\n    /* \"contracts/forum.sol\":8347:8366  comments[postCount] */\n  0x00\n    /* \"contracts/forum.sol\":8356:8365  postCount */\n  sload(0x01)\n    /* \"contracts/forum.sol\":8347:8366  comments[postCount] */\n  dup2\n  mstore\n  0x20\n  add\n  swap1\n  dup2\n  mstore\n  0x20\n  add\n  0x00\n  keccak256\n    /* \"contracts/forum.sol\":8347:8369  comments[postCount][3] */\n  0x00\n    /* \"contracts/forum.sol\":8367:8368  3 */\n  0x03\n    /* \"contracts/forum.sol\":8347:8369  comments[postCount][3] */\n  dup2\n  mstore\n  0x20\n  add\n  swap1\n  dup2\n  mstore\n  0x20\n  add\n  0x00\n  keccak256\n    /* \"contracts/forum.sol\":8318:8369  Comment storage comment4_3 = comments[postCount][3] */\n  swap1\n  pop\n    /* \"contracts/forum.sol\":8399:8441  0xa983d7E14AC1aAf050bb64Fdab1024ae9c93c956 */\n  0xa983d7e14ac1aaf050bb64fdab1024ae9c93c956\n    /* \"contracts/forum.sol\":8379:8389  comment4_3 */\n  dup2\n    /* \"contracts/forum.sol\":8379:8396  comment4_3.author */\n  0x00\n  add\n  0x00\n    /* \"contracts/forum.sol\":8379:8441  comment4_3.author = 0xa983d7E14AC1aAf050bb64Fdab1024ae9c93c956 */\n  0x0100\n  exp\n  dup2\n  sload\n  dup2\n  0xffffffffffffffffffffffffffffffffffffffff\n  mul\n  not\n  and\n  swap1\n  dup4\n  0xffffffffffffffffffffffffffffffffffffffff\n  and\n  mul\n  or\n  swap1\n  sstore\n  pop\n    /* \"contracts/forum.sol\":8451:8545  comment4_3.content = \"I know this person from my class. They're pretending to be staff again!\" */\n  mload(0x40)\n  dup1\n  0x80\n  add\n  0x40\n  mstore\n  dup1\n  0x47\n  dup2\n  mstore\n  0x20\n  add\n  data_7ba65dfa51de3fbfe99f35b178c057bcaa8bcdb81add2d747f6af783d9fbb8f1\n  0x47\n  swap2\n  codecopy\n    /* \"contracts/forum.sol\":8451:8461  comment4_3 */\n  dup2\n    /* \"contracts/forum.sol\":8451:8469  comment4_3.content */\n  0x01\n  add\n    /* \"contracts/forum.sol\":8451:8545  comment4_3.content = \"I know this person from my class. They're pretending to be staff again!\" */\n  swap1\n  dup2\n  tag_43\n  swap2\n  swap1\n  tag_5\n  jump\t// in\ntag_43:\n  pop\n    /* \"contracts/forum.sol\":8555:8581  comment4_3.tag = \"student\" */\n  mload(0x40)\n  dup1\n  0x40\n  add\n  0x40\n  mstore\n  dup1\n  0x07\n  dup2\n  mstore\n  0x20\n  add\n  0x73747564656e7400000000000000000000000000000000000000000000000000\n  dup2\n  mstore\n  pop\n    /* \"contracts/forum.sol\":8555:8565  comment4_3 */\n  dup2\n    /* \"contracts/forum.sol\":8555:8569  comment4_3.tag */\n  0x02\n  add\n    /* \"contracts/forum.sol\":8555:8581  comment4_3.tag = \"student\" */\n  swap1\n  dup2\n  tag_44\n  swap2\n  swap1\n  tag_5\n  jump\t// in\ntag_44:\n  pop\n    /* \"contracts/forum.sol\":8614:8624  1746889900 */\n  0x681f6cac\n    /* \"contracts/forum.sol\":8591:8601  comment4_3 */\n  dup2\n    /* \"contracts/forum.sol\":8591:8611  comment4_3.timestamp */\n  0x03\n  add\n    /* \"contracts/forum.sol\":8591:8624  comment4_3.timestamp = 1746889900 */\n  dup2\n  swap1\n  sstore\n  pop\n    /* \"contracts/forum.sol\":8681:8685  true */\n  0x01\n    /* \"contracts/forum.sol\":8634:8639  posts */\n  0x00\n    /* \"contracts/forum.sol\":8634:8650  posts[postCount] */\n  dup1\n    /* \"contracts/forum.sol\":8640:8649  postCount */\n  sload(0x01)\n    /* \"contracts/forum.sol\":8634:8650  posts[postCount] */\n  dup2\n  mstore\n  0x20\n  add\n  swap1\n  dup2\n  mstore\n  0x20\n  add\n  0x00\n  keccak256\n    /* \"contracts/forum.sol\":8634:8659  posts[postCount].hasVoted */\n  0x07\n  add\n    /* \"contracts/forum.sol\":8634:8678  posts[postCount].hasVoted[comment4_3.author] */\n  0x00\n    /* \"contracts/forum.sol\":8660:8670  comment4_3 */\n  dup4\n    /* \"contracts/forum.sol\":8660:8677  comment4_3.author */\n  0x00\n  add\n  0x00\n  swap1\n  sload\n  swap1\n  0x0100\n  exp\n  swap1\n  div\n  0xffffffffffffffffffffffffffffffffffffffff\n  and\n    /* \"contracts/forum.sol\":8634:8678  posts[postCount].hasVoted[comment4_3.author] */\n  0xffffffffffffffffffffffffffffffffffffffff\n  and\n  0xffffffffffffffffffffffffffffffffffffffff\n  and\n  dup2\n  mstore\n  0x20\n  add\n  swap1\n  dup2\n  mstore\n  0x20\n  add\n  0x00\n  keccak256\n  0x00\n    /* \"contracts/forum.sol\":8634:8685  posts[postCount].hasVoted[comment4_3.author] = true */\n  0x0100\n  exp\n  dup2\n  sload\n  dup2\n  0xff\n  mul\n  not\n  and\n  swap1\n  dup4\n  iszero\n  iszero\n  mul\n  or\n  swap1\n  sstore\n  pop\n    /* \"contracts/forum.sol\":8724:8729  post4 */\n  dup4\n    /* \"contracts/forum.sol\":8724:8736  post4.author */\n  0x00\n  add\n  0x00\n  swap1\n  sload\n  swap1\n  0x0100\n  exp\n  swap1\n  div\n  0xffffffffffffffffffffffffffffffffffffffff\n  and\n    /* \"contracts/forum.sol\":8701:8763  PostCreated(postCount, post4.author, post4.tag, post4.content) */\n  0xffffffffffffffffffffffffffffffffffffffff\n  and\n    /* \"contracts/forum.sol\":8713:8722  postCount */\n  sload(0x01)\n    /* \"contracts/forum.sol\":8701:8763  PostCreated(postCount, post4.author, post4.tag, post4.content) */\n  0x5475621b07408f75d49c828caa5aeacb3a5e98d3497e75730dc184677504401c\n    /* \"contracts/forum.sol\":8738:8743  post4 */\n  dup7\n    /* \"contracts/forum.sol\":8738:8747  post4.tag */\n  0x02\n  add\n    /* \"contracts/forum.sol\":8749:8754  post4 */\n  dup8\n    /* \"contracts/forum.sol\":8749:8762  post4.content */\n  0x01\n  add\n    /* \"contracts/forum.sol\":8701:8763  PostCreated(postCount, post4.author, post4.tag, post4.content) */\n  mload(0x40)\n  tag_45\n  swap3\n  swap2\n  swap1\n  tag_10\n  jump\t// in\ntag_45:\n  mload(0x40)\n  dup1\n  swap2\n  sub\n  swap1\n  log3\n    /* \"contracts/forum.sol\":8805:8813  comment4 */\n  dup3\n    /* \"contracts/forum.sol\":8805:8820  comment4.author */\n  0x00\n  add\n  0x00\n  swap1\n  sload\n  swap1\n  0x0100\n  exp\n  swap1\n  div\n  0xffffffffffffffffffffffffffffffffffffffff\n  and\n    /* \"contracts/forum.sol\":8778:8853  CommentAdded(postCount, 1, comment4.author, comment4.content, comment4.tag) */\n  0xffffffffffffffffffffffffffffffffffffffff\n  and\n    /* \"contracts/forum.sol\":8802:8803  1 */\n  0x01\n    /* \"contracts/forum.sol\":8791:8800  postCount */\n  dup1\n  sload\n    /* \"contracts/forum.sol\":8778:8853  CommentAdded(postCount, 1, comment4.author, comment4.content, comment4.tag) */\n  0x03a56e2377acf256c15a50f0b97834fa29a151d0b8a6d05c450576e40634fadc\n    /* \"contracts/forum.sol\":8822:8830  comment4 */\n  dup7\n    /* \"contracts/forum.sol\":8822:8838  comment4.content */\n  0x01\n  add\n    /* \"contracts/forum.sol\":8840:8848  comment4 */\n  dup8\n    /* \"contracts/forum.sol\":8840:8852  comment4.tag */\n  0x02\n  add\n    /* \"contracts/forum.sol\":8778:8853  CommentAdded(postCount, 1, comment4.author, comment4.content, comment4.tag) */\n  mload(0x40)\n  tag_46\n  swap3\n  swap2\n  swap1\n  tag_10\n  jump\t// in\ntag_46:\n  mload(0x40)\n  dup1\n  swap2\n  sub\n  swap1\n  log4\n    /* \"contracts/forum.sol\":8895:8905  comment4_2 */\n  dup2\n    /* \"contracts/forum.sol\":8895:8912  comment4_2.author */\n  0x00\n  add\n  0x00\n  swap1\n  sload\n  swap1\n  0x0100\n  exp\n  swap1\n  div\n  0xffffffffffffffffffffffffffffffffffffffff\n  and\n    /* \"contracts/forum.sol\":8868:8949  CommentAdded(postCount, 2, comment4_2.author, comment4_2.content, comment4_2.tag) */\n  0xffffffffffffffffffffffffffffffffffffffff\n  and\n    /* \"contracts/forum.sol\":8892:8893  2 */\n  0x02\n    /* \"contracts/forum.sol\":8881:8890  postCount */\n  sload(0x01)\n    /* \"contracts/forum.sol\":8868:8949  CommentAdded(postCount, 2, comment4_2.author, comment4_2.content, comment4_2.tag) */\n  0x03a56e2377acf256c15a50f0b97834fa29a151d0b8a6d05c450576e40634fadc\n    /* \"contracts/forum.sol\":8914:8924  comment4_2 */\n  dup6\n    /* \"contracts/forum.sol\":8914:8932  comment4_2.content */\n  0x01\n  add\n    /* \"contracts/forum.sol\":8934:8944  comment4_2 */\n  dup7\n    /* \"contracts/forum.sol\":8934:8948  comment4_2.tag */\n  0x02\n  add\n    /* \"contracts/forum.sol\":8868:8949  CommentAdded(postCount, 2, comment4_2.author, comment4_2.content, comment4_2.tag) */\n  mload(0x40)\n  tag_47\n  swap3\n  swap2\n  swap1\n  tag_10\n  jump\t// in\ntag_47:\n  mload(0x40)\n  dup1\n  swap2\n  sub\n  swap1\n  log4\n    /* \"contracts/forum.sol\":8991:9001  comment4_3 */\n  dup1\n    /* \"contracts/forum.sol\":8991:9008  comment4_3.author */\n  0x00\n  add\n  0x00\n  swap1\n  sload\n  swap1\n  0x0100\n  exp\n  swap1\n  div\n  0xffffffffffffffffffffffffffffffffffffffff\n  and\n    /* \"contracts/forum.sol\":8964:9045  CommentAdded(postCount, 3, comment4_3.author, comment4_3.content, comment4_3.tag) */\n  0xffffffffffffffffffffffffffffffffffffffff\n  and\n    /* \"contracts/forum.sol\":8988:8989  3 */\n  0x03\n    /* \"contracts/forum.sol\":8977:8986  postCount */\n  sload(0x01)\n    /* \"contracts/forum.sol\":8964:9045  CommentAdded(postCount, 3, comment4_3.author, comment4_3.content, comment4_3.tag) */\n  0x03a56e2377acf256c15a50f0b97834fa29a151d0b8a6d05c450576e40634fadc\n    /* \"contracts/forum.sol\":9010:9020  comment4_3 */\n  dup5\n    /* \"contracts/forum.sol\":9010:9028  comment4_3.content */\n  0x01\n  add\n    /* \"contracts/forum.sol\":9030:9040  comment4_3 */\n  dup6\n    /* \"contracts/forum.sol\":9030:9044  comment4_3.tag */\n  0x02\n  add\n    /* \"contracts/forum.sol\":8964:9045  CommentAdded(postCount, 3, comment4_3.author, comment4_3.content, comment4_3.tag) */\n  mload(0x40)\n  tag_48\n  swap3\n  swap2\n  swap1\n  tag_10\n  jump\t// in\ntag_48:\n  mload(0x40)\n  dup1\n  swap2\n  sub\n  swap1\n  log4\n    /* \"contracts/forum.sol\":9153:9162  postCount */\n  0x01\n  0x00\n    /* \"contracts/forum.sol\":9153:9164  postCount++ */\n  dup2\n  sload\n  dup1\n  swap3\n  swap2\n  swap1\n  tag_49\n  swap1\n  tag_13\n  jump\t// in\ntag_49:\n  swap2\n  swap1\n  pop\n  sstore\n  pop\n    /* \"contracts/forum.sol\":9199:9217  Post storage post5 */\n  0x00\n    /* \"contracts/forum.sol\":9220:9225  posts */\n  dup1\n    /* \"contracts/forum.sol\":9220:9236  posts[postCount] */\n  0x00\n    /* \"contracts/forum.sol\":9226:9235  postCount */\n  sload(0x01)\n    /* \"contracts/forum.sol\":9220:9236  posts[postCount] */\n  dup2\n  mstore\n  0x20\n  add\n  swap1\n  dup2\n  mstore\n  0x20\n  add\n  0x00\n  keccak256\n    /* \"contracts/forum.sol\":9199:9236  Post storage post5 = posts[postCount] */\n  swap1\n  pop\n    /* \"contracts/forum.sol\":9261:9303  0x1111111111111111111111111111111111111111 */\n  0x1111111111111111111111111111111111111111\n    /* \"contracts/forum.sol\":9246:9251  post5 */\n  dup2\n    /* \"contracts/forum.sol\":9246:9258  post5.author */\n  0x00\n  add\n  0x00\n    /* \"contracts/forum.sol\":9246:9303  post5.author = 0x1111111111111111111111111111111111111111 */\n  0x0100\n  exp\n  dup2\n  sload\n  dup2\n  0xffffffffffffffffffffffffffffffffffffffff\n  mul\n  not\n  and\n  swap1\n  dup4\n  0xffffffffffffffffffffffffffffffffffffffff\n  and\n  mul\n  or\n  swap1\n  sstore\n  pop\n    /* \"contracts/forum.sol\":9313:9574  post5.content = \"Proposal: University should prioritize STEM research funding significantly over Humanities to maintain our competitive edge and align with future job market demands. This is a pragmatic approach for long-term institutional success. #FutureSTEM\" */\n  mload(0x40)\n  dup1\n  0x0120\n  add\n  0x40\n  mstore\n  dup1\n  0xf3\n  dup2\n  mstore\n  0x20\n  add\n  data_6a32d54aaa3d6cc644c0cfd59ce456d7bbde628c26c171f3732220dbc6f2351f\n  0xf3\n  swap2\n  codecopy\n    /* \"contracts/forum.sol\":9313:9318  post5 */\n  dup2\n    /* \"contracts/forum.sol\":9313:9326  post5.content */\n  0x01\n  add\n    /* \"contracts/forum.sol\":9313:9574  post5.content = \"Proposal: University should prioritize STEM research funding significantly over Humanities to maintain our competitive edge and align with future job market demands. This is a pragmatic approach for long-term institutional success. #FutureSTEM\" */\n  swap1\n  dup2\n  tag_50\n  swap2\n  swap1\n  tag_5\n  jump\t// in\ntag_50:\n  pop\n    /* \"contracts/forum.sol\":9584:9607  post5.tag = \"professor\" */\n  mload(0x40)\n  dup1\n  0x40\n  add\n  0x40\n  mstore\n  dup1\n  0x09\n  dup2\n  mstore\n  0x20\n  add\n  0x70726f666573736f720000000000000000000000000000000000000000000000\n  dup2\n  mstore\n  pop\n    /* \"contracts/forum.sol\":9584:9589  post5 */\n  dup2\n    /* \"contracts/forum.sol\":9584:9593  post5.tag */\n  0x02\n  add\n    /* \"contracts/forum.sol\":9584:9607  post5.tag = \"professor\" */\n  swap1\n  dup2\n  tag_51\n  swap2\n  swap1\n  tag_5\n  jump\t// in\ntag_51:\n  pop\n    /* \"contracts/forum.sol\":9635:9645  1747053600 */\n  0x6821ec20\n    /* \"contracts/forum.sol\":9617:9622  post5 */\n  dup2\n    /* \"contracts/forum.sol\":9617:9632  post5.timestamp */\n  0x03\n  add\n    /* \"contracts/forum.sol\":9617:9645  post5.timestamp = 1747053600 */\n  dup2\n  swap1\n  sstore\n  pop\n    /* \"contracts/forum.sol\":9712:9716  true */\n  0x01\n    /* \"contracts/forum.sol\":9688:9693  post5 */\n  dup2\n    /* \"contracts/forum.sol\":9688:9709  post5.isTagChallenged */\n  0x04\n  add\n  0x00\n    /* \"contracts/forum.sol\":9688:9716  post5.isTagChallenged = true */\n  0x0100\n  exp\n  dup2\n  sload\n  dup2\n  0xff\n  mul\n  not\n  and\n  swap1\n  dup4\n  iszero\n  iszero\n  mul\n  or\n  swap1\n  sstore\n  pop\n    /* \"contracts/forum.sol\":9785:9786  2 */\n  0x02\n    /* \"contracts/forum.sol\":9767:9772  post5 */\n  dup2\n    /* \"contracts/forum.sol\":9767:9782  post5.realVotes */\n  0x05\n  add\n    /* \"contracts/forum.sol\":9767:9786  post5.realVotes = 2 */\n  dup2\n  swap1\n  sstore\n  pop\n    /* \"contracts/forum.sol\":9815:9816  2 */\n  0x02\n    /* \"contracts/forum.sol\":9796:9801  post5 */\n  dup2\n    /* \"contracts/forum.sol\":9796:9812  post5.fakerVotes */\n  0x06\n  add\n    /* \"contracts/forum.sol\":9796:9816  post5.fakerVotes = 2 */\n  dup2\n  swap1\n  sstore\n  pop\n    /* \"contracts/forum.sol\":9847:9848  2 */\n  0x02\n    /* \"contracts/forum.sol\":9826:9831  post5 */\n  dup2\n    /* \"contracts/forum.sol\":9826:9844  post5.commentCount */\n  0x08\n  add\n    /* \"contracts/forum.sol\":9826:9848  post5.commentCount = 2 */\n  dup2\n  swap1\n  sstore\n  pop\n    /* \"contracts/forum.sol\":9968:9972  true */\n  0x01\n    /* \"contracts/forum.sol\":9896:9901  posts */\n  0x00\n    /* \"contracts/forum.sol\":9896:9912  posts[postCount] */\n  dup1\n    /* \"contracts/forum.sol\":9902:9911  postCount */\n  sload(0x01)\n    /* \"contracts/forum.sol\":9896:9912  posts[postCount] */\n  dup2\n  mstore\n  0x20\n  add\n  swap1\n  dup2\n  mstore\n  0x20\n  add\n  0x00\n  keccak256\n    /* \"contracts/forum.sol\":9896:9921  posts[postCount].hasVoted */\n  0x07\n  add\n    /* \"contracts/forum.sol\":9896:9965  posts[postCount].hasVoted[0x2222222222222222222222222222222222222222] */\n  0x00\n    /* \"contracts/forum.sol\":9922:9964  0x2222222222222222222222222222222222222222 */\n  0x2222222222222222222222222222222222222222\n    /* \"contracts/forum.sol\":9896:9965  posts[postCount].hasVoted[0x2222222222222222222222222222222222222222] */\n  0xffffffffffffffffffffffffffffffffffffffff\n  and\n  0xffffffffffffffffffffffffffffffffffffffff\n  and\n  dup2\n  mstore\n  0x20\n  add\n  swap1\n  dup2\n  mstore\n  0x20\n  add\n  0x00\n  keccak256\n  0x00\n    /* \"contracts/forum.sol\":9896:9972  posts[postCount].hasVoted[0x2222222222222222222222222222222222222222] = true */\n  0x0100\n  exp\n  dup2\n  sload\n  dup2\n  0xff\n  mul\n  not\n  and\n  swap1\n  dup4\n  iszero\n  iszero\n  mul\n  or\n  swap1\n  sstore\n  pop\n    /* \"contracts/forum.sol\":10068:10072  true */\n  0x01\n    /* \"contracts/forum.sol\":9996:10001  posts */\n  0x00\n    /* \"contracts/forum.sol\":9996:10012  posts[postCount] */\n  dup1\n    /* \"contracts/forum.sol\":10002:10011  postCount */\n  sload(0x01)\n    /* \"contracts/forum.sol\":9996:10012  posts[postCount] */\n  dup2\n  mstore\n  0x20\n  add\n  swap1\n  dup2\n  mstore\n  0x20\n  add\n  0x00\n  keccak256\n    /* \"contracts/forum.sol\":9996:10021  posts[postCount].hasVoted */\n  0x07\n  add\n    /* \"contracts/forum.sol\":9996:10065  posts[postCount].hasVoted[0x3333333333333333333333333333333333333333] */\n  0x00\n    /* \"contracts/forum.sol\":10022:10064  0x3333333333333333333333333333333333333333 */\n  0x3333333333333333333333333333333333333333\n    /* \"contracts/forum.sol\":9996:10065  posts[postCount].hasVoted[0x3333333333333333333333333333333333333333] */\n  0xffffffffffffffffffffffffffffffffffffffff\n  and\n  0xffffffffffffffffffffffffffffffffffffffff\n  and\n  dup2\n  mstore\n  0x20\n  add\n  swap1\n  dup2\n  mstore\n  0x20\n  add\n  0x00\n  keccak256\n  0x00\n    /* \"contracts/forum.sol\":9996:10072  posts[postCount].hasVoted[0x3333333333333333333333333333333333333333] = true */\n  0x0100\n  exp\n  dup2\n  sload\n  dup2\n  0xff\n  mul\n  not\n  and\n  swap1\n  dup4\n  iszero\n  iszero\n  mul\n  or\n  swap1\n  sstore\n  pop\n    /* \"contracts/forum.sol\":10168:10172  true */\n  0x01\n    /* \"contracts/forum.sol\":10096:10101  posts */\n  0x00\n    /* \"contracts/forum.sol\":10096:10112  posts[postCount] */\n  dup1\n    /* \"contracts/forum.sol\":10102:10111  postCount */\n  sload(0x01)\n    /* \"contracts/forum.sol\":10096:10112  posts[postCount] */\n  dup2\n  mstore\n  0x20\n  add\n  swap1\n  dup2\n  mstore\n  0x20\n  add\n  0x00\n  keccak256\n    /* \"contracts/forum.sol\":10096:10121  posts[postCount].hasVoted */\n  0x07\n  add\n    /* \"contracts/forum.sol\":10096:10165  posts[postCount].hasVoted[0x4444444444444444444444444444444444444444] */\n  0x00\n    /* \"contracts/forum.sol\":10122:10164  0x4444444444444444444444444444444444444444 */\n  0x4444444444444444444444444444444444444444\n    /* \"contracts/forum.sol\":10096:10165  posts[postCount].hasVoted[0x4444444444444444444444444444444444444444] */\n  0xffffffffffffffffffffffffffffffffffffffff\n  and\n  0xffffffffffffffffffffffffffffffffffffffff\n  and\n  dup2\n  mstore\n  0x20\n  add\n  swap1\n  dup2\n  mstore\n  0x20\n  add\n  0x00\n  keccak256\n  0x00\n    /* \"contracts/forum.sol\":10096:10172  posts[postCount].hasVoted[0x4444444444444444444444444444444444444444] = true */\n  0x0100\n  exp\n  dup2\n  sload\n  dup2\n  0xff\n  mul\n  not\n  and\n  swap1\n  dup4\n  iszero\n  iszero\n  mul\n  or\n  swap1\n  sstore\n  pop\n    /* \"contracts/forum.sol\":10268:10272  true */\n  0x01\n    /* \"contracts/forum.sol\":10196:10201  posts */\n  0x00\n    /* \"contracts/forum.sol\":10196:10212  posts[postCount] */\n  dup1\n    /* \"contracts/forum.sol\":10202:10211  postCount */\n  sload(0x01)\n    /* \"contracts/forum.sol\":10196:10212  posts[postCount] */\n  dup2\n  mstore\n  0x20\n  add\n  swap1\n  dup2\n  mstore\n  0x20\n  add\n  0x00\n  keccak256\n    /* \"contracts/forum.sol\":10196:10221  posts[postCount].hasVoted */\n  0x07\n  add\n    /* \"contracts/forum.sol\":10196:10265  posts[postCount].hasVoted[0x5555555555555555555555555555555555555555] */\n  0x00\n    /* \"contracts/forum.sol\":10222:10264  0x5555555555555555555555555555555555555555 */\n  0x5555555555555555555555555555555555555555\n    /* \"contracts/forum.sol\":10196:10265  posts[postCount].hasVoted[0x5555555555555555555555555555555555555555] */\n  0xffffffffffffffffffffffffffffffffffffffff\n  and\n  0xffffffffffffffffffffffffffffffffffffffff\n  and\n  dup2\n  mstore\n  0x20\n  add\n  swap1\n  dup2\n  mstore\n  0x20\n  add\n  0x00\n  keccak256\n  0x00\n    /* \"contracts/forum.sol\":10196:10272  posts[postCount].hasVoted[0x5555555555555555555555555555555555555555] = true */\n  0x0100\n  exp\n  dup2\n  sload\n  dup2\n  0xff\n  mul\n  not\n  and\n  swap1\n  dup4\n  iszero\n  iszero\n  mul\n  or\n  swap1\n  sstore\n  pop\n    /* \"contracts/forum.sol\":10338:10364  Comment storage comment5_1 */\n  0x00\n    /* \"contracts/forum.sol\":10367:10375  comments */\n  0x02\n    /* \"contracts/forum.sol\":10367:10386  comments[postCount] */\n  0x00\n    /* \"contracts/forum.sol\":10376:10385  postCount */\n  sload(0x01)\n    /* \"contracts/forum.sol\":10367:10386  comments[postCount] */\n  dup2\n  mstore\n  0x20\n  add\n  swap1\n  dup2\n  mstore\n  0x20\n  add\n  0x00\n  keccak256\n    /* \"contracts/forum.sol\":10367:10389  comments[postCount][1] */\n  0x00\n    /* \"contracts/forum.sol\":10387:10388  1 */\n  0x01\n    /* \"contracts/forum.sol\":10367:10389  comments[postCount][1] */\n  dup2\n  mstore\n  0x20\n  add\n  swap1\n  dup2\n  mstore\n  0x20\n  add\n  0x00\n  keccak256\n    /* \"contracts/forum.sol\":10338:10389  Comment storage comment5_1 = comments[postCount][1] */\n  swap1\n  pop\n    /* \"contracts/forum.sol\":10419:10461  0x6666666666666666666666666666666666666666 */\n  0x6666666666666666666666666666666666666666\n    /* \"contracts/forum.sol\":10399:10409  comment5_1 */\n  dup2\n    /* \"contracts/forum.sol\":10399:10416  comment5_1.author */\n  0x00\n  add\n  0x00\n    /* \"contracts/forum.sol\":10399:10461  comment5_1.author = 0x6666666666666666666666666666666666666666 */\n  0x0100\n  exp\n  dup2\n  sload\n  dup2\n  0xffffffffffffffffffffffffffffffffffffffff\n  mul\n  not\n  and\n  swap1\n  dup4\n  0xffffffffffffffffffffffffffffffffffffffff\n  and\n  mul\n  or\n  swap1\n  sstore\n  pop\n    /* \"contracts/forum.sol\":10471:10652  comment5_1.content = \"As a student, I see the practical benefits of focusing on STEM for job prospects, but we shouldn't completely defund humanities. They teach critical thinking.\" */\n  mload(0x40)\n  dup1\n  0xc0\n  add\n  0x40\n  mstore\n  dup1\n  0x9e\n  dup2\n  mstore\n  0x20\n  add\n  data_d8f7bcd88a9abae79308735d412cab7c6367db5fa488f155e2477dbd8dad78da\n  0x9e\n  swap2\n  codecopy\n    /* \"contracts/forum.sol\":10471:10481  comment5_1 */\n  dup2\n    /* \"contracts/forum.sol\":10471:10489  comment5_1.content */\n  0x01\n  add\n    /* \"contracts/forum.sol\":10471:10652  comment5_1.content = \"As a student, I see the practical benefits of focusing on STEM for job prospects, but we shouldn't completely defund humanities. They teach critical thinking.\" */\n  swap1\n  dup2\n  tag_52\n  swap2\n  swap1\n  tag_5\n  jump\t// in\ntag_52:\n  pop\n    /* \"contracts/forum.sol\":10662:10688  comment5_1.tag = \"student\" */\n  mload(0x40)\n  dup1\n  0x40\n  add\n  0x40\n  mstore\n  dup1\n  0x07\n  dup2\n  mstore\n  0x20\n  add\n  0x73747564656e7400000000000000000000000000000000000000000000000000\n  dup2\n  mstore\n  pop\n    /* \"contracts/forum.sol\":10662:10672  comment5_1 */\n  dup2\n    /* \"contracts/forum.sol\":10662:10676  comment5_1.tag */\n  0x02\n  add\n    /* \"contracts/forum.sol\":10662:10688  comment5_1.tag = \"student\" */\n  swap1\n  dup2\n  tag_53\n  swap2\n  swap1\n  tag_5\n  jump\t// in\ntag_53:\n  pop\n    /* \"contracts/forum.sol\":10721:10731  1747053700 */\n  0x6821ec84\n    /* \"contracts/forum.sol\":10698:10708  comment5_1 */\n  dup2\n    /* \"contracts/forum.sol\":10698:10718  comment5_1.timestamp */\n  0x03\n  add\n    /* \"contracts/forum.sol\":10698:10731  comment5_1.timestamp = 1747053700 */\n  dup2\n  swap1\n  sstore\n  pop\n    /* \"contracts/forum.sol\":10784:10810  Comment storage comment5_2 */\n  0x00\n    /* \"contracts/forum.sol\":10813:10821  comments */\n  0x02\n    /* \"contracts/forum.sol\":10813:10832  comments[postCount] */\n  0x00\n    /* \"contracts/forum.sol\":10822:10831  postCount */\n  sload(0x01)\n    /* \"contracts/forum.sol\":10813:10832  comments[postCount] */\n  dup2\n  mstore\n  0x20\n  add\n  swap1\n  dup2\n  mstore\n  0x20\n  add\n  0x00\n  keccak256\n    /* \"contracts/forum.sol\":10813:10835  comments[postCount][2] */\n  0x00\n    /* \"contracts/forum.sol\":10833:10834  2 */\n  0x02\n    /* \"contracts/forum.sol\":10813:10835  comments[postCount][2] */\n  dup2\n  mstore\n  0x20\n  add\n  swap1\n  dup2\n  mstore\n  0x20\n  add\n  0x00\n  keccak256\n    /* \"contracts/forum.sol\":10784:10835  Comment storage comment5_2 = comments[postCount][2] */\n  swap1\n  pop\n    /* \"contracts/forum.sol\":10865:10907  0x7777777777777777777777777777777777777777 */\n  0x7777777777777777777777777777777777777777\n    /* \"contracts/forum.sol\":10845:10855  comment5_2 */\n  dup2\n    /* \"contracts/forum.sol\":10845:10862  comment5_2.author */\n  0x00\n  add\n  0x00\n    /* \"contracts/forum.sol\":10845:10907  comment5_2.author = 0x7777777777777777777777777777777777777777 */\n  0x0100\n  exp\n  dup2\n  sload\n  dup2\n  0xffffffffffffffffffffffffffffffffffffffff\n  mul\n  not\n  and\n  swap1\n  dup4\n  0xffffffffffffffffffffffffffffffffffffffff\n  and\n  mul\n  or\n  swap1\n  sstore\n  pop\n    /* \"contracts/forum.sol\":10917:11089  comment5_2.content = \"Framing this as a 'Professor' view is a bit disingenuous. Many faculty believe in a balanced approach. The issue is more nuanced than presented here.\" */\n  mload(0x40)\n  dup1\n  0xc0\n  add\n  0x40\n  mstore\n  dup1\n  0x95\n  dup2\n  mstore\n  0x20\n  add\n  data_bfd32dfeebfad00248507133dfb22b1b4392c7826fed06fb78fa1b3e0ab08520\n  0x95\n  swap2\n  codecopy\n    /* \"contracts/forum.sol\":10917:10927  comment5_2 */\n  dup2\n    /* \"contracts/forum.sol\":10917:10935  comment5_2.content */\n  0x01\n  add\n    /* \"contracts/forum.sol\":10917:11089  comment5_2.content = \"Framing this as a 'Professor' view is a bit disingenuous. Many faculty believe in a balanced approach. The issue is more nuanced than presented here.\" */\n  swap1\n  dup2\n  tag_54\n  swap2\n  swap1\n  tag_5\n  jump\t// in\ntag_54:\n  pop\n    /* \"contracts/forum.sol\":11099:11127  comment5_2.tag = \"professor\" */\n  mload(0x40)\n  dup1\n  0x40\n  add\n  0x40\n  mstore\n  dup1\n  0x09\n  dup2\n  mstore\n  0x20\n  add\n  0x70726f666573736f720000000000000000000000000000000000000000000000\n  dup2\n  mstore\n  pop\n    /* \"contracts/forum.sol\":11099:11109  comment5_2 */\n  dup2\n    /* \"contracts/forum.sol\":11099:11113  comment5_2.tag */\n  0x02\n  add\n    /* \"contracts/forum.sol\":11099:11127  comment5_2.tag = \"professor\" */\n  swap1\n  dup2\n  tag_55\n  swap2\n  swap1\n  tag_5\n  jump\t// in\ntag_55:\n  pop\n    /* \"contracts/forum.sol\":11160:11170  1747053800 */\n  0x6821ece8\n    /* \"contracts/forum.sol\":11137:11147  comment5_2 */\n  dup2\n    /* \"contracts/forum.sol\":11137:11157  comment5_2.timestamp */\n  0x03\n  add\n    /* \"contracts/forum.sol\":11137:11170  comment5_2.timestamp = 1747053800 */\n  dup2\n  swap1\n  sstore\n  pop\n    /* \"contracts/forum.sol\":11209:11214  post5 */\n  dup3\n    /* \"contracts/forum.sol\":11209:11221  post5.author */\n  0x00\n  add\n  0x00\n  swap1\n  sload\n  swap1\n  0x0100\n  exp\n  swap1\n  div\n  0xffffffffffffffffffffffffffffffffffffffff\n  and\n    /* \"contracts/forum.sol\":11186:11248  PostCreated(postCount, post5.author, post5.tag, post5.content) */\n  0xffffffffffffffffffffffffffffffffffffffff\n  and\n    /* \"contracts/forum.sol\":11198:11207  postCount */\n  sload(0x01)\n    /* \"contracts/forum.sol\":11186:11248  PostCreated(postCount, post5.author, post5.tag, post5.content) */\n  0x5475621b07408f75d49c828caa5aeacb3a5e98d3497e75730dc184677504401c\n    /* \"contracts/forum.sol\":11223:11228  post5 */\n  dup6\n    /* \"contracts/forum.sol\":11223:11232  post5.tag */\n  0x02\n  add\n    /* \"contracts/forum.sol\":11234:11239  post5 */\n  dup7\n    /* \"contracts/forum.sol\":11234:11247  post5.content */\n  0x01\n  add\n    /* \"contracts/forum.sol\":11186:11248  PostCreated(postCount, post5.author, post5.tag, post5.content) */\n  mload(0x40)\n  tag_56\n  swap3\n  swap2\n  swap1\n  tag_10\n  jump\t// in\ntag_56:\n  mload(0x40)\n  dup1\n  swap2\n  sub\n  swap1\n  log3\n    /* \"contracts/forum.sol\":11840:11882  0x2222222222222222222222222222222222222222 */\n  0x2222222222222222222222222222222222222222\n    /* \"contracts/forum.sol\":11815:11883  TagChallenged(postCount, 0x2222222222222222222222222222222222222222) */\n  0xffffffffffffffffffffffffffffffffffffffff\n  and\n    /* \"contracts/forum.sol\":11829:11838  postCount */\n  sload(0x01)\n    /* \"contracts/forum.sol\":11815:11883  TagChallenged(postCount, 0x2222222222222222222222222222222222222222) */\n  0xedc96ef82a3fd8ea664dd4fe50f94c77be3c3d6130792c3ed8b0199e3c28ec62\n  mload(0x40)\n  mload(0x40)\n  dup1\n  swap2\n  sub\n  swap1\n  log3\n    /* \"contracts/forum.sol\":11918:11960  0x2222222222222222222222222222222222222222 */\n  0x2222222222222222222222222222222222222222\n    /* \"contracts/forum.sol\":11898:11967  VoteCast(postCount, 0x2222222222222222222222222222222222222222, true) */\n  0xffffffffffffffffffffffffffffffffffffffff\n  and\n    /* \"contracts/forum.sol\":11907:11916  postCount */\n  sload(0x01)\n    /* \"contracts/forum.sol\":11898:11967  VoteCast(postCount, 0x2222222222222222222222222222222222222222, true) */\n  0xe71fcdac32df1877c1700e7bda2a03157e20993363a28fc35ac495cefc76e4d4\n    /* \"contracts/forum.sol\":11962:11966  true */\n  0x01\n    /* \"contracts/forum.sol\":11898:11967  VoteCast(postCount, 0x2222222222222222222222222222222222222222, true) */\n  mload(0x40)\n  tag_57\n  swap2\n  swap1\n  tag_58\n  jump\t// in\ntag_57:\n  mload(0x40)\n  dup1\n  swap2\n  sub\n  swap1\n  log3\n    /* \"contracts/forum.sol\":12011:12053  0x3333333333333333333333333333333333333333 */\n  0x3333333333333333333333333333333333333333\n    /* \"contracts/forum.sol\":11991:12061  VoteCast(postCount, 0x3333333333333333333333333333333333333333, false) */\n  0xffffffffffffffffffffffffffffffffffffffff\n  and\n    /* \"contracts/forum.sol\":12000:12009  postCount */\n  sload(0x01)\n    /* \"contracts/forum.sol\":11991:12061  VoteCast(postCount, 0x3333333333333333333333333333333333333333, false) */\n  0xe71fcdac32df1877c1700e7bda2a03157e20993363a28fc35ac495cefc76e4d4\n    /* \"contracts/forum.sol\":12055:12060  false */\n  0x00\n    /* \"contracts/forum.sol\":11991:12061  VoteCast(postCount, 0x3333333333333333333333333333333333333333, false) */\n  mload(0x40)\n  tag_59\n  swap2\n  swap1\n  tag_58\n  jump\t// in\ntag_59:\n  mload(0x40)\n  dup1\n  swap2\n  sub\n  swap1\n  log3\n    /* \"contracts/forum.sol\":12104:12146  0x4444444444444444444444444444444444444444 */\n  0x4444444444444444444444444444444444444444\n    /* \"contracts/forum.sol\":12084:12153  VoteCast(postCount, 0x4444444444444444444444444444444444444444, true) */\n  0xffffffffffffffffffffffffffffffffffffffff\n  and\n    /* \"contracts/forum.sol\":12093:12102  postCount */\n  sload(0x01)\n    /* \"contracts/forum.sol\":12084:12153  VoteCast(postCount, 0x4444444444444444444444444444444444444444, true) */\n  0xe71fcdac32df1877c1700e7bda2a03157e20993363a28fc35ac495cefc76e4d4\n    /* \"contracts/forum.sol\":12148:12152  true */\n  0x01\n    /* \"contracts/forum.sol\":12084:12153  VoteCast(postCount, 0x4444444444444444444444444444444444444444, true) */\n  mload(0x40)\n  tag_60\n  swap2\n  swap1\n  tag_58\n  jump\t// in\ntag_60:\n  mload(0x40)\n  dup1\n  swap2\n  sub\n  swap1\n  log3\n    /* \"contracts/forum.sol\":12197:12239  0x5555555555555555555555555555555555555555 */\n  0x5555555555555555555555555555555555555555\n    /* \"contracts/forum.sol\":12177:12247  VoteCast(postCount, 0x5555555555555555555555555555555555555555, false) */\n  0xffffffffffffffffffffffffffffffffffffffff\n  and\n    /* \"contracts/forum.sol\":12186:12195  postCount */\n  sload(0x01)\n    /* \"contracts/forum.sol\":12177:12247  VoteCast(postCount, 0x5555555555555555555555555555555555555555, false) */\n  0xe71fcdac32df1877c1700e7bda2a03157e20993363a28fc35ac495cefc76e4d4\n    /* \"contracts/forum.sol\":12241:12246  false */\n  0x00\n    /* \"contracts/forum.sol\":12177:12247  VoteCast(postCount, 0x5555555555555555555555555555555555555555, false) */\n  mload(0x40)\n  tag_61\n  swap2\n  swap1\n  tag_58\n  jump\t// in\ntag_61:\n  mload(0x40)\n  dup1\n  swap2\n  sub\n  swap1\n  log3\n    /* \"contracts/forum.sol\":12298:12308  comment5_1 */\n  dup2\n    /* \"contracts/forum.sol\":12298:12315  comment5_1.author */\n  0x00\n  add\n  0x00\n  swap1\n  sload\n  swap1\n  0x0100\n  exp\n  swap1\n  div\n  0xffffffffffffffffffffffffffffffffffffffff\n  and\n    /* \"contracts/forum.sol\":12271:12352  CommentAdded(postCount, 1, comment5_1.author, comment5_1.content, comment5_1.tag) */\n  0xffffffffffffffffffffffffffffffffffffffff\n  and\n    /* \"contracts/forum.sol\":12295:12296  1 */\n  0x01\n    /* \"contracts/forum.sol\":12284:12293  postCount */\n  dup1\n  sload\n    /* \"contracts/forum.sol\":12271:12352  CommentAdded(postCount, 1, comment5_1.author, comment5_1.content, comment5_1.tag) */\n  0x03a56e2377acf256c15a50f0b97834fa29a151d0b8a6d05c450576e40634fadc\n    /* \"contracts/forum.sol\":12317:12327  comment5_1 */\n  dup6\n    /* \"contracts/forum.sol\":12317:12335  comment5_1.content */\n  0x01\n  add\n    /* \"contracts/forum.sol\":12337:12347  comment5_1 */\n  dup7\n    /* \"contracts/forum.sol\":12337:12351  comment5_1.tag */\n  0x02\n  add\n    /* \"contracts/forum.sol\":12271:12352  CommentAdded(postCount, 1, comment5_1.author, comment5_1.content, comment5_1.tag) */\n  mload(0x40)\n  tag_62\n  swap3\n  swap2\n  swap1\n  tag_10\n  jump\t// in\ntag_62:\n  mload(0x40)\n  dup1\n  swap2\n  sub\n  swap1\n  log4\n    /* \"contracts/forum.sol\":12394:12404  comment5_2 */\n  dup1\n    /* \"contracts/forum.sol\":12394:12411  comment5_2.author */\n  0x00\n  add\n  0x00\n  swap1\n  sload\n  swap1\n  0x0100\n  exp\n  swap1\n  div\n  0xffffffffffffffffffffffffffffffffffffffff\n  and\n    /* \"contracts/forum.sol\":12367:12448  CommentAdded(postCount, 2, comment5_2.author, comment5_2.content, comment5_2.tag) */\n  0xffffffffffffffffffffffffffffffffffffffff\n  and\n    /* \"contracts/forum.sol\":12391:12392  2 */\n  0x02\n    /* \"contracts/forum.sol\":12380:12389  postCount */\n  sload(0x01)\n    /* \"contracts/forum.sol\":12367:12448  CommentAdded(postCount, 2, comment5_2.author, comment5_2.content, comment5_2.tag) */\n  0x03a56e2377acf256c15a50f0b97834fa29a151d0b8a6d05c450576e40634fadc\n    /* \"contracts/forum.sol\":12413:12423  comment5_2 */\n  dup5\n    /* \"contracts/forum.sol\":12413:12431  comment5_2.content */\n  0x01\n  add\n    /* \"contracts/forum.sol\":12433:12443  comment5_2 */\n  dup6\n    /* \"contracts/forum.sol\":12433:12447  comment5_2.tag */\n  0x02\n  add\n    /* \"contracts/forum.sol\":12367:12448  CommentAdded(postCount, 2, comment5_2.author, comment5_2.content, comment5_2.tag) */\n  mload(0x40)\n  tag_63\n  swap3\n  swap2\n  swap1\n  tag_10\n  jump\t// in\ntag_63:\n  mload(0x40)\n  dup1\n  swap2\n  sub\n  swap1\n  log4\n    /* \"contracts/forum.sol\":1584:12455  {... */\n  pop\n  pop\n  pop\n  pop\n  pop\n  pop\n  pop\n  pop\n  pop\n  pop\n  pop\n  pop\n  pop\n  pop\n  pop\n  pop\n    /* \"contracts/forum.sol\":58:19690  contract HKUSTForum {... */\n  jump(tag_64)\n    /* \"#utility.yul\":7:106   */\ntag_65:\n    /* \"#utility.yul\":59:65   */\n  0x00\n    /* \"#utility.yul\":93:98   */\n  dup2\n    /* \"#utility.yul\":87:99   */\n  mload\n    /* \"#utility.yul\":77:99   */\n  swap1\n  pop\n    /* \"#utility.yul\":7:106   */\n  swap2\n  swap1\n  pop\n  jump\t// out\n    /* \"#utility.yul\":112:292   */\ntag_66:\n    /* \"#utility.yul\":160:237   */\n  0x4e487b7100000000000000000000000000000000000000000000000000000000\n    /* \"#utility.yul\":157:158   */\n  0x00\n    /* \"#utility.yul\":150:238   */\n  mstore\n    /* \"#utility.yul\":257:261   */\n  0x41\n    /* \"#utility.yul\":254:255   */\n  0x04\n    /* \"#utility.yul\":247:262   */\n  mstore\n    /* \"#utility.yul\":281:285   */\n  0x24\n    /* \"#utility.yul\":278:279   */\n  0x00\n    /* \"#utility.yul\":271:286   */\n  revert\n    /* \"#utility.yul\":298:478   */\ntag_67:\n    /* \"#utility.yul\":346:423   */\n  0x4e487b7100000000000000000000000000000000000000000000000000000000\n    /* \"#utility.yul\":343:344   */\n  0x00\n    /* \"#utility.yul\":336:424   */\n  mstore\n    /* \"#utility.yul\":443:447   */\n  0x22\n    /* \"#utility.yul\":440:441   */\n  0x04\n    /* \"#utility.yul\":433:448   */\n  mstore\n    /* \"#utility.yul\":467:471   */\n  0x24\n    /* \"#utility.yul\":464:465   */\n  0x00\n    /* \"#utility.yul\":457:472   */\n  revert\n    /* \"#utility.yul\":484:804   */\ntag_68:\n    /* \"#utility.yul\":528:534   */\n  0x00\n    /* \"#utility.yul\":565:566   */\n  0x02\n    /* \"#utility.yul\":559:563   */\n  dup3\n    /* \"#utility.yul\":555:567   */\n  div\n    /* \"#utility.yul\":545:567   */\n  swap1\n  pop\n    /* \"#utility.yul\":612:613   */\n  0x01\n    /* \"#utility.yul\":606:610   */\n  dup3\n    /* \"#utility.yul\":602:614   */\n  and\n    /* \"#utility.yul\":633:651   */\n  dup1\n    /* \"#utility.yul\":623:704   */\n  tag_95\n  jumpi\n    /* \"#utility.yul\":689:693   */\n  0x7f\n    /* \"#utility.yul\":681:687   */\n  dup3\n    /* \"#utility.yul\":677:694   */\n  and\n    /* \"#utility.yul\":667:694   */\n  swap2\n  pop\n    /* \"#utility.yul\":623:704   */\ntag_95:\n    /* \"#utility.yul\":751:753   */\n  0x20\n    /* \"#utility.yul\":743:749   */\n  dup3\n    /* \"#utility.yul\":740:754   */\n  lt\n    /* \"#utility.yul\":720:738   */\n  dup2\n    /* \"#utility.yul\":717:755   */\n  sub\n    /* \"#utility.yul\":714:798   */\n  tag_96\n  jumpi\n    /* \"#utility.yul\":770:788   */\n  tag_97\n  tag_67\n  jump\t// in\ntag_97:\n    /* \"#utility.yul\":714:798   */\ntag_96:\n    /* \"#utility.yul\":535:804   */\n  pop\n    /* \"#utility.yul\":484:804   */\n  swap2\n  swap1\n  pop\n  jump\t// out\n    /* \"#utility.yul\":810:951   */\ntag_69:\n    /* \"#utility.yul\":859:863   */\n  0x00\n    /* \"#utility.yul\":882:885   */\n  dup2\n    /* \"#utility.yul\":874:885   */\n  swap1\n  pop\n    /* \"#utility.yul\":905:908   */\n  dup2\n    /* \"#utility.yul\":902:903   */\n  0x00\n    /* \"#utility.yul\":895:909   */\n  mstore\n    /* \"#utility.yul\":939:943   */\n  0x20\n    /* \"#utility.yul\":936:937   */\n  0x00\n    /* \"#utility.yul\":926:944   */\n  keccak256\n    /* \"#utility.yul\":918:944   */\n  swap1\n  pop\n    /* \"#utility.yul\":810:951   */\n  swap2\n  swap1\n  pop\n  jump\t// out\n    /* \"#utility.yul\":957:1050   */\ntag_70:\n    /* \"#utility.yul\":994:1000   */\n  0x00\n    /* \"#utility.yul\":1041:1043   */\n  0x20\n    /* \"#utility.yul\":1036:1038   */\n  0x1f\n    /* \"#utility.yul\":1029:1034   */\n  dup4\n    /* \"#utility.yul\":1025:1039   */\n  add\n    /* \"#utility.yul\":1021:1044   */\n  div\n    /* \"#utility.yul\":1011:1044   */\n  swap1\n  pop\n    /* \"#utility.yul\":957:1050   */\n  swap2\n  swap1\n  pop\n  jump\t// out\n    /* \"#utility.yul\":1056:1163   */\ntag_71:\n    /* \"#utility.yul\":1100:1108   */\n  0x00\n    /* \"#utility.yul\":1150:1155   */\n  dup3\n    /* \"#utility.yul\":1144:1148   */\n  dup3\n    /* \"#utility.yul\":1140:1156   */\n  shl\n    /* \"#utility.yul\":1119:1156   */\n  swap1\n  pop\n    /* \"#utility.yul\":1056:1163   */\n  swap3\n  swap2\n  pop\n  pop\n  jump\t// out\n    /* \"#utility.yul\":1169:1562   */\ntag_72:\n    /* \"#utility.yul\":1238:1244   */\n  0x00\n    /* \"#utility.yul\":1288:1289   */\n  0x08\n    /* \"#utility.yul\":1276:1286   */\n  dup4\n    /* \"#utility.yul\":1272:1290   */\n  mul\n    /* \"#utility.yul\":1311:1408   */\n  tag_102\n    /* \"#utility.yul\":1341:1407   */\n  0xffffffffffffffffffffffffffffffffffffffffffffffffffffffffffffffff\n    /* \"#utility.yul\":1330:1339   */\n  dup3\n    /* \"#utility.yul\":1311:1408   */\n  tag_71\n  jump\t// in\ntag_102:\n    /* \"#utility.yul\":1429:1468   */\n  tag_103\n    /* \"#utility.yul\":1459:1467   */\n  dup7\n    /* \"#utility.yul\":1448:1457   */\n  dup4\n    /* \"#utility.yul\":1429:1468   */\n  tag_71\n  jump\t// in\ntag_103:\n    /* \"#utility.yul\":1417:1468   */\n  swap6\n  pop\n    /* \"#utility.yul\":1501:1505   */\n  dup1\n    /* \"#utility.yul\":1497:1506   */\n  not\n    /* \"#utility.yul\":1490:1495   */\n  dup5\n    /* \"#utility.yul\":1486:1507   */\n  and\n    /* \"#utility.yul\":1477:1507   */\n  swap4\n  pop\n    /* \"#utility.yul\":1550:1554   */\n  dup1\n    /* \"#utility.yul\":1540:1548   */\n  dup7\n    /* \"#utility.yul\":1536:1555   */\n  and\n    /* \"#utility.yul\":1529:1534   */\n  dup5\n    /* \"#utility.yul\":1526:1556   */\n  or\n    /* \"#utility.yul\":1516:1556   */\n  swap3\n  pop\n    /* \"#utility.yul\":1245:1562   */\n  pop\n  pop\n    /* \"#utility.yul\":1169:1562   */\n  swap4\n  swap3\n  pop\n  pop\n  pop\n  jump\t// out\n    /* \"#utility.yul\":1568:1645   */\ntag_73:\n    /* \"#utility.yul\":1605:1612   */\n  0x00\n    /* \"#utility.yul\":1634:1639   */\n  dup2\n    /* \"#utility.yul\":1623:1639   */\n  swap1\n  pop\n    /* \"#utility.yul\":1568:1645   */\n  swap2\n  swap1\n  pop\n  jump\t// out\n    /* \"#utility.yul\":1651:1711   */\ntag_74:\n    /* \"#utility.yul\":1679:1682   */\n  0x00\n    /* \"#utility.yul\":1700:1705   */\n  dup2\n    /* \"#utility.yul\":1693:1705   */\n  swap1\n  pop\n    /* \"#utility.yul\":1651:1711   */\n  swap2\n  swap1\n  pop\n  jump\t// out\n    /* \"#utility.yul\":1717:1859   */\ntag_75:\n    /* \"#utility.yul\":1767:1776   */\n  0x00\n    /* \"#utility.yul\":1800:1853   */\n  tag_107\n    /* \"#utility.yul\":1818:1852   */\n  tag_108\n    /* \"#utility.yul\":1827:1851   */\n  tag_109\n    /* \"#utility.yul\":1845:1850   */\n  dup5\n    /* \"#utility.yul\":1827:1851   */\n  tag_73\n  jump\t// in\ntag_109:\n    /* \"#utility.yul\":1818:1852   */\n  tag_74\n  jump\t// in\ntag_108:\n    /* \"#utility.yul\":1800:1853   */\n  tag_73\n  jump\t// in\ntag_107:\n    /* \"#utility.yul\":1787:1853   */\n  swap1\n  pop\n    /* \"#utility.yul\":1717:1859   */\n  swap2\n  swap1\n  pop\n  jump\t// out\n    /* \"#utility.yul\":1865:1940   */\ntag_76:\n    /* \"#utility.yul\":1908:1911   */\n  0x00\n    /* \"#utility.yul\":1929:1934   */\n  dup2\n    /* \"#utility.yul\":1922:1934   */\n  swap1\n  pop\n    /* \"#utility.yul\":1865:1940   */\n  swap2\n  swap1\n  pop\n  jump\t// out\n    /* \"#utility.yul\":1946:2215   */\ntag_77:\n    /* \"#utility.yul\":2056:2095   */\n  tag_112\n    /* \"#utility.yul\":2087:2094   */\n  dup4\n    /* \"#utility.yul\":2056:2095   */\n  tag_75\n  jump\t// in\ntag_112:\n    /* \"#utility.yul\":2117:2208   */\n  tag_113\n    /* \"#utility.yul\":2166:2207   */\n  tag_114\n    /* \"#utility.yul\":2190:2206   */\n  dup3\n    /* \"#utility.yul\":2166:2207   */\n  tag_76\n  jump\t// in\ntag_114:\n    /* \"#utility.yul\":2158:2164   */\n  dup5\n    /* \"#utility.yul\":2151:2155   */\n  dup5\n    /* \"#utility.yul\":2145:2156   */\n  sload\n    /* \"#utility.yul\":2117:2208   */\n  tag_72\n  jump\t// in\ntag_113:\n    /* \"#utility.yul\":2111:2115   */\n  dup3\n    /* \"#utility.yul\":2104:2209   */\n  sstore\n    /* \"#utility.yul\":2022:2215   */\n  pop\n    /* \"#utility.yul\":1946:2215   */\n  pop\n  pop\n  pop\n  jump\t// out\n    /* \"#utility.yul\":2221:2294   */\ntag_78:\n    /* \"#utility.yul\":2266:2269   */\n  0x00\n    /* \"#utility.yul\":2221:2294   */\n  swap1\n  jump\t// out\n    /* \"#utility.yul\":2300:2489   */\ntag_79:\n    /* \"#utility.yul\":2377:2409   */\n  tag_117\n  tag_78\n  jump\t// in\ntag_117:\n    /* \"#utility.yul\":2418:2483   */\n  tag_118\n    /* \"#utility.yul\":2476:2482   */\n  dup2\n    /* \"#utility.yul\":2468:2474   */\n  dup5\n    /* \"#utility.yul\":2462:2466   */\n  dup5\n    /* \"#utility.yul\":2418:2483   */\n  tag_77\n  jump\t// in\ntag_118:\n    /* \"#utility.yul\":2353:2489   */\n  pop\n    /* \"#utility.yul\":2300:2489   */\n  pop\n  pop\n  jump\t// out\n    /* \"#utility.yul\":2495:2681   */\ntag_80:\n    /* \"#utility.yul\":2555:2675   */\ntag_120:\n    /* \"#utility.yul\":2572:2575   */\n  dup2\n    /* \"#utility.yul\":2565:2570   */\n  dup2\n    /* \"#utility.yul\":2562:2576   */\n  lt\n    /* \"#utility.yul\":2555:2675   */\n  iszero\n  tag_122\n  jumpi\n    /* \"#utility.yul\":2626:2665   */\n  tag_123\n    /* \"#utility.yul\":2663:2664   */\n  0x00\n    /* \"#utility.yul\":2656:2661   */\n  dup3\n    /* \"#utility.yul\":2626:2665   */\n  tag_79\n  jump\t// in\ntag_123:\n    /* \"#utility.yul\":2599:2600   */\n  0x01\n    /* \"#utility.yul\":2592:2597   */\n  dup2\n    /* \"#utility.yul\":2588:2601   */\n  add\n    /* \"#utility.yul\":2579:2601   */\n  swap1\n  pop\n    /* \"#utility.yul\":2555:2675   */\n  jump(tag_120)\ntag_122:\n    /* \"#utility.yul\":2495:2681   */\n  pop\n  pop\n  jump\t// out\n    /* \"#utility.yul\":2687:3230   */\ntag_81:\n    /* \"#utility.yul\":2788:2790   */\n  0x1f\n    /* \"#utility.yul\":2783:2786   */\n  dup3\n    /* \"#utility.yul\":2780:2791   */\n  gt\n    /* \"#utility.yul\":2777:3223   */\n  iszero\n  tag_125\n  jumpi\n    /* \"#utility.yul\":2822:2860   */\n  tag_126\n    /* \"#utility.yul\":2854:2859   */\n  dup2\n    /* \"#utility.yul\":2822:2860   */\n  tag_69\n  jump\t// in\ntag_126:\n    /* \"#utility.yul\":2906:2935   */\n  tag_127\n    /* \"#utility.yul\":2924:2934   */\n  dup5\n    /* \"#utility.yul\":2906:2935   */\n  tag_70\n  jump\t// in\ntag_127:\n    /* \"#utility.yul\":2896:2904   */\n  dup2\n    /* \"#utility.yul\":2892:2936   */\n  add\n    /* \"#utility.yul\":3089:3091   */\n  0x20\n    /* \"#utility.yul\":3077:3087   */\n  dup6\n    /* \"#utility.yul\":3074:3092   */\n  lt\n    /* \"#utility.yul\":3071:3120   */\n  iszero\n  tag_128\n  jumpi\n    /* \"#utility.yul\":3110:3118   */\n  dup2\n    /* \"#utility.yul\":3095:3118   */\n  swap1\n  pop\n    /* \"#utility.yul\":3071:3120   */\ntag_128:\n    /* \"#utility.yul\":3133:3213   */\n  tag_129\n    /* \"#utility.yul\":3189:3211   */\n  tag_130\n    /* \"#utility.yul\":3207:3210   */\n  dup6\n    /* \"#utility.yul\":3189:3211   */\n  tag_70\n  jump\t// in\ntag_130:\n    /* \"#utility.yul\":3179:3187   */\n  dup4\n    /* \"#utility.yul\":3175:3212   */\n  add\n    /* \"#utility.yul\":3162:3173   */\n  dup3\n    /* \"#utility.yul\":3133:3213   */\n  tag_80\n  jump\t// in\ntag_129:\n    /* \"#utility.yul\":2792:3223   */\n  pop\n  pop\n    /* \"#utility.yul\":2777:3223   */\ntag_125:\n    /* \"#utility.yul\":2687:3230   */\n  pop\n  pop\n  pop\n  jump\t// out\n    /* \"#utility.yul\":3236:3353   */\ntag_82:\n    /* \"#utility.yul\":3290:3298   */\n  0x00\n    /* \"#utility.yul\":3340:3345   */\n  dup3\n    /* \"#utility.yul\":3334:3338   */\n  dup3\n    /* \"#utility.yul\":3330:3346   */\n  shr\n    /* \"#utility.yul\":3309:3346   */\n  swap1\n  pop\n    /* \"#utility.yul\":3236:3353   */\n  swap3\n  swap2\n  pop\n  pop\n  jump\t// out\n    /* \"#utility.yul\":3359:3528   */\ntag_83:\n    /* \"#utility.yul\":3403:3409   */\n  0x00\n    /* \"#utility.yul\":3436:3487   */\n  tag_133\n    /* \"#utility.yul\":3484:3485   */\n  0x00\n    /* \"#utility.yul\":3480:3486   */\n  not\n    /* \"#utility.yul\":3472:3477   */\n  dup5\n    /* \"#utility.yul\":3469:3470   */\n  0x08\n    /* \"#utility.yul\":3465:3478   */\n  mul\n    /* \"#utility.yul\":3436:3487   */\n  tag_82\n  jump\t// in\ntag_133:\n    /* \"#utility.yul\":3432:3488   */\n  not\n    /* \"#utility.yul\":3517:3521   */\n  dup1\n    /* \"#utility.yul\":3511:3515   */\n  dup4\n    /* \"#utility.yul\":3507:3522   */\n  and\n    /* \"#utility.yul\":3497:3522   */\n  swap2\n  pop\n    /* \"#utility.yul\":3410:3528   */\n  pop\n    /* \"#utility.yul\":3359:3528   */\n  swap3\n  swap2\n  pop\n  pop\n  jump\t// out\n    /* \"#utility.yul\":3533:3828   */\ntag_84:\n    /* \"#utility.yul\":3609:3613   */\n  0x00\n    /* \"#utility.yul\":3755:3784   */\n  tag_135\n    /* \"#utility.yul\":3780:3783   */\n  dup4\n    /* \"#utility.yul\":3774:3778   */\n  dup4\n    /* \"#utility.yul\":3755:3784   */\n  tag_83\n  jump\t// in\ntag_135:\n    /* \"#utility.yul\":3747:3784   */\n  swap2\n  pop\n    /* \"#utility.yul\":3817:3820   */\n  dup3\n    /* \"#utility.yul\":3814:3815   */\n  0x02\n    /* \"#utility.yul\":3810:3821   */\n  mul\n    /* \"#utility.yul\":3804:3808   */\n  dup3\n    /* \"#utility.yul\":3801:3822   */\n  or\n    /* \"#utility.yul\":3793:3822   */\n  swap1\n  pop\n    /* \"#utility.yul\":3533:3828   */\n  swap3\n  swap2\n  pop\n  pop\n  jump\t// out\n    /* \"#utility.yul\":3833:5228   */\ntag_5:\n    /* \"#utility.yul\":3950:3987   */\n  tag_137\n    /* \"#utility.yul\":3983:3986   */\n  dup3\n    /* \"#utility.yul\":3950:3987   */\n  tag_65\n  jump\t// in\ntag_137:\n    /* \"#utility.yul\":4052:4070   */\n  0xffffffffffffffff\n    /* \"#utility.yul\":4044:4050   */\n  dup2\n    /* \"#utility.yul\":4041:4071   */\n  gt\n    /* \"#utility.yul\":4038:4094   */\n  iszero\n  tag_138\n  jumpi\n    /* \"#utility.yul\":4074:4092   */\n  tag_139\n  tag_66\n  jump\t// in\ntag_139:\n    /* \"#utility.yul\":4038:4094   */\ntag_138:\n    /* \"#utility.yul\":4118:4156   */\n  tag_140\n    /* \"#utility.yul\":4150:4154   */\n  dup3\n    /* \"#utility.yul\":4144:4155   */\n  sload\n    /* \"#utility.yul\":4118:4156   */\n  tag_68\n  jump\t// in\ntag_140:\n    /* \"#utility.yul\":4203:4270   */\n  tag_141\n    /* \"#utility.yul\":4263:4269   */\n  dup3\n    /* \"#utility.yul\":4255:4261   */\n  dup3\n    /* \"#utility.yul\":4249:4253   */\n  dup6\n    /* \"#utility.yul\":4203:4270   */\n  tag_81\n  jump\t// in\ntag_141:\n    /* \"#utility.yul\":4297:4298   */\n  0x00\n    /* \"#utility.yul\":4321:4325   */\n  0x20\n    /* \"#utility.yul\":4308:4325   */\n  swap1\n  pop\n    /* \"#utility.yul\":4353:4355   */\n  0x1f\n    /* \"#utility.yul\":4345:4351   */\n  dup4\n    /* \"#utility.yul\":4342:4356   */\n  gt\n    /* \"#utility.yul\":4370:4371   */\n  0x01\n    /* \"#utility.yul\":4365:4983   */\n  dup2\n  eq\n  tag_143\n  jumpi\n    /* \"#utility.yul\":5027:5028   */\n  0x00\n    /* \"#utility.yul\":5044:5050   */\n  dup5\n    /* \"#utility.yul\":5041:5118   */\n  iszero\n  tag_144\n  jumpi\n    /* \"#utility.yul\":5093:5102   */\n  dup3\n    /* \"#utility.yul\":5088:5091   */\n  dup8\n    /* \"#utility.yul\":5084:5103   */\n  add\n    /* \"#utility.yul\":5078:5104   */\n  mload\n    /* \"#utility.yul\":5069:5104   */\n  swap1\n  pop\n    /* \"#utility.yul\":5041:5118   */\ntag_144:\n    /* \"#utility.yul\":5144:5211   */\n  tag_145\n    /* \"#utility.yul\":5204:5210   */\n  dup6\n    /* \"#utility.yul\":5197:5202   */\n  dup3\n    /* \"#utility.yul\":5144:5211   */\n  tag_84\n  jump\t// in\ntag_145:\n    /* \"#utility.yul\":5138:5142   */\n  dup7\n    /* \"#utility.yul\":5131:5212   */\n  sstore\n    /* \"#utility.yul\":5000:5222   */\n  pop\n    /* \"#utility.yul\":4335:5222   */\n  jump(tag_142)\n    /* \"#utility.yul\":4365:4983   */\ntag_143:\n    /* \"#utility.yul\":4417:4421   */\n  0x1f\n    /* \"#utility.yul\":4413:4422   */\n  not\n    /* \"#utility.yul\":4405:4411   */\n  dup5\n    /* \"#utility.yul\":4401:4423   */\n  and\n    /* \"#utility.yul\":4451:4488   */\n  tag_146\n    /* \"#utility.yul\":4483:4487   */\n  dup7\n    /* \"#utility.yul\":4451:4488   */\n  tag_69\n  jump\t// in\ntag_146:\n    /* \"#utility.yul\":4510:4511   */\n  0x00\n    /* \"#utility.yul\":4524:4732   */\ntag_147:\n    /* \"#utility.yul\":4538:4545   */\n  dup3\n    /* \"#utility.yul\":4535:4536   */\n  dup2\n    /* \"#utility.yul\":4532:4546   */\n  lt\n    /* \"#utility.yul\":4524:4732   */\n  iszero\n  tag_149\n  jumpi\n    /* \"#utility.yul\":4617:4626   */\n  dup5\n    /* \"#utility.yul\":4612:4615   */\n  dup10\n    /* \"#utility.yul\":4608:4627   */\n  add\n    /* \"#utility.yul\":4602:4628   */\n  mload\n    /* \"#utility.yul\":4594:4600   */\n  dup3\n    /* \"#utility.yul\":4587:4629   */\n  sstore\n    /* \"#utility.yul\":4668:4669   */\n  0x01\n    /* \"#utility.yul\":4660:4666   */\n  dup3\n    /* \"#utility.yul\":4656:4670   */\n  add\n    /* \"#utility.yul\":4646:4670   */\n  swap2\n  pop\n    /* \"#utility.yul\":4715:4717   */\n  0x20\n    /* \"#utility.yul\":4704:4713   */\n  dup6\n    /* \"#utility.yul\":4700:4718   */\n  add\n    /* \"#utility.yul\":4687:4718   */\n  swap5\n  pop\n    /* \"#utility.yul\":4561:4565   */\n  0x20\n    /* \"#utility.yul\":4558:4559   */\n  dup2\n    /* \"#utility.yul\":4554:4566   */\n  add\n    /* \"#utility.yul\":4549:4566   */\n  swap1\n  pop\n    /* \"#utility.yul\":4524:4732   */\n  jump(tag_147)\ntag_149:\n    /* \"#utility.yul\":4760:4766   */\n  dup7\n    /* \"#utility.yul\":4751:4758   */\n  dup4\n    /* \"#utility.yul\":4748:4767   */\n  lt\n    /* \"#utility.yul\":4745:4924   */\n  iszero\n  tag_150\n  jumpi\n    /* \"#utility.yul\":4818:4827   */\n  dup5\n    /* \"#utility.yul\":4813:4816   */\n  dup10\n    /* \"#utility.yul\":4809:4828   */\n  add\n    /* \"#utility.yul\":4803:4829   */\n  mload\n    /* \"#utility.yul\":4861:4909   */\n  tag_151\n    /* \"#utility.yul\":4903:4907   */\n  0x1f\n    /* \"#utility.yul\":4895:4901   */\n  dup10\n    /* \"#utility.yul\":4891:4908   */\n  and\n    /* \"#utility.yul\":4880:4889   */\n  dup3\n    /* \"#utility.yul\":4861:4909   */\n  tag_83\n  jump\t// in\ntag_151:\n    /* \"#utility.yul\":4853:4859   */\n  dup4\n    /* \"#utility.yul\":4846:4910   */\n  sstore\n    /* \"#utility.yul\":4768:4924   */\n  pop\n    /* \"#utility.yul\":4745:4924   */\ntag_150:\n    /* \"#utility.yul\":4970:4971   */\n  0x01\n    /* \"#utility.yul\":4966:4967   */\n  0x02\n    /* \"#utility.yul\":4958:4964   */\n  dup9\n    /* \"#utility.yul\":4954:4968   */\n  mul\n    /* \"#utility.yul\":4950:4972   */\n  add\n    /* \"#utility.yul\":4944:4948   */\n  dup9\n    /* \"#utility.yul\":4937:4973   */\n  sstore\n    /* \"#utility.yul\":4372:4983   */\n  pop\n  pop\n  pop\n    /* \"#utility.yul\":4335:5222   */\ntag_142:\n  pop\n    /* \"#utility.yul\":3925:5228   */\n  pop\n  pop\n  pop\n    /* \"#utility.yul\":3833:5228   */\n  pop\n  pop\n  jump\t// out\n    /* \"#utility.yul\":5234:5403   */\ntag_85:\n    /* \"#utility.yul\":5318:5329   */\n  0x00\n    /* \"#utility.yul\":5352:5358   */\n  dup3\n    /* \"#utility.yul\":5347:5350   */\n  dup3\n    /* \"#utility.yul\":5340:5359   */\n  mstore\n    /* \"#utility.yul\":5392:5396   */\n  0x20\n    /* \"#utility.yul\":5387:5390   */\n  dup3\n    /* \"#utility.yul\":5383:5397   */\n  add\n    /* \"#utility.yul\":5368:5397   */\n  swap1\n  pop\n    /* \"#utility.yul\":5234:5403   */\n  swap3\n  swap2\n  pop\n  pop\n  jump\t// out\n    /* \"#utility.yul\":5433:6264   */\ntag_86:\n    /* \"#utility.yul\":5518:5521   */\n  0x00\n    /* \"#utility.yul\":5555:5560   */\n  dup2\n    /* \"#utility.yul\":5549:5561   */\n  sload\n    /* \"#utility.yul\":5584:5620   */\n  tag_154\n    /* \"#utility.yul\":5610:5619   */\n  dup2\n    /* \"#utility.yul\":5584:5620   */\n  tag_68\n  jump\t// in\ntag_154:\n    /* \"#utility.yul\":5636:5707   */\n  tag_155\n    /* \"#utility.yul\":5700:5706   */\n  dup2\n    /* \"#utility.yul\":5695:5698   */\n  dup7\n    /* \"#utility.yul\":5636:5707   */\n  tag_85\n  jump\t// in\ntag_155:\n    /* \"#utility.yul\":5629:5707   */\n  swap5\n  pop\n    /* \"#utility.yul\":5738:5739   */\n  0x01\n    /* \"#utility.yul\":5727:5736   */\n  dup3\n    /* \"#utility.yul\":5723:5740   */\n  and\n    /* \"#utility.yul\":5754:5755   */\n  0x00\n    /* \"#utility.yul\":5749:5913   */\n  dup2\n  eq\n  tag_157\n  jumpi\n    /* \"#utility.yul\":5927:5928   */\n  0x01\n    /* \"#utility.yul\":5922:6258   */\n  dup2\n  eq\n  tag_158\n  jumpi\n    /* \"#utility.yul\":5716:6258   */\n  jump(tag_156)\n    /* \"#utility.yul\":5749:5913   */\ntag_157:\n    /* \"#utility.yul\":5833:5837   */\n  0xff\n    /* \"#utility.yul\":5829:5838   */\n  not\n    /* \"#utility.yul\":5818:5827   */\n  dup4\n    /* \"#utility.yul\":5814:5839   */\n  and\n    /* \"#utility.yul\":5809:5812   */\n  dup7\n    /* \"#utility.yul\":5802:5840   */\n  mstore\n    /* \"#utility.yul\":5893:5899   */\n  dup2\n    /* \"#utility.yul\":5886:5900   */\n  iszero\n    /* \"#utility.yul\":5879:5901   */\n  iszero\n    /* \"#utility.yul\":5873:5877   */\n  0x20\n    /* \"#utility.yul\":5869:5902   */\n  mul\n    /* \"#utility.yul\":5864:5867   */\n  dup7\n    /* \"#utility.yul\":5860:5903   */\n  add\n    /* \"#utility.yul\":5853:5903   */\n  swap4\n  pop\n    /* \"#utility.yul\":5749:5913   */\n  jump(tag_156)\n    /* \"#utility.yul\":5922:6258   */\ntag_158:\n    /* \"#utility.yul\":5989:6027   */\n  tag_159\n    /* \"#utility.yul\":6021:6026   */\n  dup6\n    /* \"#utility.yul\":5989:6027   */\n  tag_69\n  jump\t// in\ntag_159:\n    /* \"#utility.yul\":6049:6050   */\n  0x00\n    /* \"#utility.yul\":6063:6217   */\ntag_160:\n    /* \"#utility.yul\":6077:6083   */\n  dup4\n    /* \"#utility.yul\":6074:6075   */\n  dup2\n    /* \"#utility.yul\":6071:6084   */\n  lt\n    /* \"#utility.yul\":6063:6217   */\n  iszero\n  tag_162\n  jumpi\n    /* \"#utility.yul\":6151:6158   */\n  dup2\n    /* \"#utility.yul\":6145:6159   */\n  sload\n    /* \"#utility.yul\":6141:6142   */\n  dup2\n    /* \"#utility.yul\":6136:6139   */\n  dup10\n    /* \"#utility.yul\":6132:6143   */\n  add\n    /* \"#utility.yul\":6125:6160   */\n  mstore\n    /* \"#utility.yul\":6201:6202   */\n  0x01\n    /* \"#utility.yul\":6192:6199   */\n  dup3\n    /* \"#utility.yul\":6188:6203   */\n  add\n    /* \"#utility.yul\":6177:6203   */\n  swap2\n  pop\n    /* \"#utility.yul\":6099:6103   */\n  0x20\n    /* \"#utility.yul\":6096:6097   */\n  dup2\n    /* \"#utility.yul\":6092:6104   */\n  add\n    /* \"#utility.yul\":6087:6104   */\n  swap1\n  pop\n    /* \"#utility.yul\":6063:6217   */\n  jump(tag_160)\ntag_162:\n    /* \"#utility.yul\":6246:6247   */\n  dup1\n    /* \"#utility.yul\":6241:6244   */\n  dup9\n    /* \"#utility.yul\":6237:6248   */\n  add\n    /* \"#utility.yul\":6230:6248   */\n  swap6\n  pop\n    /* \"#utility.yul\":5929:6258   */\n  pop\n  pop\n    /* \"#utility.yul\":5716:6258   */\ntag_156:\n  pop\n    /* \"#utility.yul\":5522:6264   */\n  pop\n  pop\n    /* \"#utility.yul\":5433:6264   */\n  swap3\n  swap2\n  pop\n  pop\n  jump\t// out\n    /* \"#utility.yul\":6270:6772   */\ntag_10:\n    /* \"#utility.yul\":6425:6429   */\n  0x00\n    /* \"#utility.yul\":6463:6465   */\n  0x40\n    /* \"#utility.yul\":6452:6461   */\n  dup3\n    /* \"#utility.yul\":6448:6466   */\n  add\n    /* \"#utility.yul\":6440:6466   */\n  swap1\n  pop\n    /* \"#utility.yul\":6512:6521   */\n  dup2\n    /* \"#utility.yul\":6506:6510   */\n  dup2\n    /* \"#utility.yul\":6502:6522   */\n  sub\n    /* \"#utility.yul\":6498:6499   */\n  0x00\n    /* \"#utility.yul\":6487:6496   */\n  dup4\n    /* \"#utility.yul\":6483:6500   */\n  add\n    /* \"#utility.yul\":6476:6523   */\n  mstore\n    /* \"#utility.yul\":6540:6615   */\n  tag_164\n    /* \"#utility.yul\":6610:6614   */\n  dup2\n    /* \"#utility.yul\":6601:6607   */\n  dup6\n    /* \"#utility.yul\":6540:6615   */\n  tag_86\n  jump\t// in\ntag_164:\n    /* \"#utility.yul\":6532:6615   */\n  swap1\n  pop\n    /* \"#utility.yul\":6662:6671   */\n  dup2\n    /* \"#utility.yul\":6656:6660   */\n  dup2\n    /* \"#utility.yul\":6652:6672   */\n  sub\n    /* \"#utility.yul\":6647:6649   */\n  0x20\n    /* \"#utility.yul\":6636:6645   */\n  dup4\n    /* \"#utility.yul\":6632:6650   */\n  add\n    /* \"#utility.yul\":6625:6673   */\n  mstore\n    /* \"#utility.yul\":6690:6765   */\n  tag_165\n    /* \"#utility.yul\":6760:6764   */\n  dup2\n    /* \"#utility.yul\":6751:6757   */\n  dup5\n    /* \"#utility.yul\":6690:6765   */\n  tag_86\n  jump\t// in\ntag_165:\n    /* \"#utility.yul\":6682:6765   */\n  swap1\n  pop\n    /* \"#utility.yul\":6270:6772   */\n  swap4\n  swap3\n  pop\n  pop\n  pop\n  jump\t// out\n    /* \"#utility.yul\":6778:6958   */\ntag_87:\n    /* \"#utility.yul\":6826:6903   */\n  0x4e487b7100000000000000000000000000000000000000000000000000000000\n    /* \"#utility.yul\":6823:6824   */\n  0x00\n    /* \"#utility.yul\":6816:6904   */\n  mstore\n    /* \"#utility.yul\":6923:6927   */\n  0x11\n    /* \"#utility.yul\":6920:6921   */\n  0x04\n    /* \"#utility.yul\":6913:6928   */\n  mstore\n    /* \"#utility.yul\":6947:6951   */\n  0x24\n    /* \"#utility.yul\":6944:6945   */\n  0x00\n    /* \"#utility.yul\":6937:6952   */\n  revert\n    /* \"#utility.yul\":6964:7197   */\ntag_13:\n    /* \"#utility.yul\":7003:7006   */\n  0x00\n    /* \"#utility.yul\":7026:7050   */\n  tag_168\n    /* \"#utility.yul\":7044:7049   */\n  dup3\n    /* \"#utility.yul\":7026:7050   */\n  tag_73\n  jump\t// in\ntag_168:\n    /* \"#utility.yul\":7017:7050   */\n  swap2\n  pop\n    /* \"#utility.yul\":7072:7138   */\n  0xffffffffffffffffffffffffffffffffffffffffffffffffffffffffffffffff\n    /* \"#utility.yul\":7065:7070   */\n  dup3\n    /* \"#utility.yul\":7062:7139   */\n  sub\n    /* \"#utility.yul\":7059:7162   */\n  tag_169\n  jumpi\n    /* \"#utility.yul\":7142:7160   */\n  tag_170\n  tag_87\n  jump\t// in\ntag_170:\n    /* \"#utility.yul\":7059:7162   */\ntag_169:\n    /* \"#utility.yul\":7189:7190   */\n  0x01\n    /* \"#utility.yul\":7182:7187   */\n  dup3\n    /* \"#utility.yul\":7178:7191   */\n  add\n    /* \"#utility.yul\":7171:7191   */\n  swap1\n  pop\n    /* \"#utility.yul\":6964:7197   */\n  swap2\n  swap1\n  pop\n  jump\t// out\n    /* \"#utility.yul\":7203:7293   */\ntag_88:\n    /* \"#utility.yul\":7237:7244   */\n  0x00\n    /* \"#utility.yul\":7280:7285   */\n  dup2\n    /* \"#utility.yul\":7273:7286   */\n  iszero\n    /* \"#utility.yul\":7266:7287   */\n  iszero\n    /* \"#utility.yul\":7255:7287   */\n  swap1\n  pop\n    /* \"#utility.yul\":7203:7293   */\n  swap2\n  swap1\n  pop\n  jump\t// out\n    /* \"#utility.yul\":7299:7408   */\ntag_89:\n    /* \"#utility.yul\":7380:7401   */\n  tag_173\n    /* \"#utility.yul\":7395:7400   */\n  dup2\n    /* \"#utility.yul\":7380:7401   */\n  tag_88\n  jump\t// in\ntag_173:\n    /* \"#utility.yul\":7375:7378   */\n  dup3\n    /* \"#utility.yul\":7368:7402   */\n  mstore\n    /* \"#utility.yul\":7299:7408   */\n  pop\n  pop\n  jump\t// out\n    /* \"#utility.yul\":7414:7624   */\ntag_58:\n    /* \"#utility.yul\":7501:7505   */\n  0x00\n    /* \"#utility.yul\":7539:7541   */\n  0x20\n    /* \"#utility.yul\":7528:7537   */\n  dup3\n    /* \"#utility.yul\":7524:7542   */\n  add\n    /* \"#utility.yul\":7516:7542   */\n  swap1\n  pop\n    /* \"#utility.yul\":7552:7617   */\n  tag_175\n    /* \"#utility.yul\":7614:7615   */\n  0x00\n    /* \"#utility.yul\":7603:7612   */\n  dup4\n    /* \"#utility.yul\":7599:7616   */\n  add\n    /* \"#utility.yul\":7590:7596   */\n  dup5\n    /* \"#utility.yul\":7552:7617   */\n  tag_89\n  jump\t// in\ntag_175:\n    /* \"#utility.yul\":7414:7624   */\n  swap3\n  swap2\n  pop\n  pop\n  jump\t// out\n    /* \"contracts/forum.sol\":58:19690  contract HKUSTForum {... */\ntag_64:\n  dataSize(sub_0)\n  dup1\n  dataOffset(sub_0)\n  0x00\n  codecopy\n  0x00\n  return\nstop\ndata_2d563f8c4a74dd0644937725b586cee1a44ad356b95651a297511e43fe5cf6b0 5468697320706572736f6e207769746820696420233435206973206e6f742073746166662e2054686973206775792074727969696e6720746f2070726574656e7420626f74682070726f666573736f7220616e642073747566662e2049277665207365656e207468656d2061726f756e642063616d70757320617320612073747564656e742e\ndata_662f9e819c0ec1a67b4a86892f28f9af57a2c566121d6e8707b10c6df7847a0e 54686520657363616c61746f72206f757473696465204359542069732062726f6b656e20616761696e2120506c656173652066697820697420757267656e746c7921\ndata_6a32d54aaa3d6cc644c0cfd59ce456d7bbde628c26c171f3732220dbc6f2351f 50726f706f73616c3a20556e69766572736974792073686f756c64207072696f726974697a65205354454d2072657365617263682066756e64696e67207369676e69666963616e746c79206f7665722048756d616e697469657320746f206d61696e7461696e206f757220636f6d7065746974697665206564676520616e6420616c69676e207769746820667574757265206a6f62206d61726b65742064656d616e64732e2054686973206973206120707261676d6174696320617070726f61636820666f72206c6f6e672d7465726d20696e737469747574696f6e616c20737563636573732e20234675747572655354454d\ndata_7a88afac954be152cbdd746c103c09b6bbbaac92bf6b79edf0e92bb32febcb00 5768656e2077696c6c204c4731206f70656e206e6577206d65616c206f7074696f6e733f\ndata_7ba65dfa51de3fbfe99f35b178c057bcaa8bcdb81add2d747f6af783d9fbb8f1 49206b6e6f77207468697320706572736f6e2066726f6d206d7920636c6173732e20546865792772652070726574656e64696e6720746f20626520737461666620616761696e21\ndata_8cc125cce4df0a85733c0639b1a638faa4013f9bff2d8c5a759dd2dc0f8b9264 5468697320697320646566696e6974656c792066616b65206e6577732e20446f6e27742062656c696576652069742e\ndata_91dcfb7d7a085b9f8b5d17c4e0a5ce16333bb6d86ea07f0a4b8f440ad6622dfd 5468616e6b20796f7520746f2074686520737461666620666f722074686520717569636b20726573706f6e736521205468697320686173206265656e20616e206f6e676f696e672069737375652e\ndata_be61c13ac23e6b5eaad2bf0272172247570a0cc74c677836fd04ebbbd826c629 4e6f207761792120492063616e2066696e616c6c7920626520667265652066726f6d207468652070726f6a65637421\ndata_bfd32dfeebfad00248507133dfb22b1b4392c7826fed06fb78fa1b3e0ab08520 4672616d696e6720746869732061732061202750726f666573736f7227207669657720697320612062697420646973696e67656e756f75732e204d616e7920666163756c74792062656c6965766520696e20612062616c616e63656420617070726f6163682e20546865206973737565206973206d6f7265206e75616e636564207468616e2070726573656e74656420686572652e\ndata_c626309a2b2d0d2f31e3c3b6d36266f67d4204939e266901cbf28ee624e6e2d0 492061677265652c20646566696e6974656c79206e6f742073746166662e20566f74696e672066616b65206f6e2074686973206f6e652e\ndata_c7f26a841e6c3160dc03ee8c2016accfd5282ffdd118e40a3c709b46bc2a6c30 486f772063616e20796f752070726574656e6420746f20626520612070726f666573736f7220616e64207468656e20636f6d6d656e7420617320612073747564656e743f204f75722070726f6a656374206973207374696c6c206f6e676f696e672e2057652073686f756c64206368616c6c656e676520746869732075736572277320637265646962696c69747921\ndata_c82959ddba0abf90a078c025a95d0f077dc3ee31c7b7b94a9d43d450fadb60f5 5468697320697320612073616d706c6520636f6d6d656e74206f6e20746865207465737420706f7374\ndata_d8f7bcd88a9abae79308735d412cab7c6367db5fa488f155e2477dbd8dad78da 417320612073747564656e742c204920736565207468652070726163746963616c2062656e6566697473206f6620666f637573696e67206f6e205354454d20666f72206a6f622070726f7370656374732c206275742077652073686f756c646e277420636f6d706c6574656c7920646566756e642068756d616e69746965732e205468657920746561636820637269746963616c207468696e6b696e672e\ndata_f91a2c705d04979d9b7b4f9891b6f77a768e3aed826646fb07790d0edb5497ef 5468616e6b20796f7520666f72207265706f7274696e6720746869732069737375652e205765276c6c2073656e642061206d61696e74656e616e6365207465616d20726967687420617761792e\ndata_fb7fa661df71668dd14585a57ca5bec8eeb6303f7f7bf6f9db70ac6e49e4a587 74686520434f4d50343531312070726f6a6563742077696c6c2062652063616e63656c656421\n\nsub_0: assembly {\n        /* \"contracts/forum.sol\":58:19690  contract HKUSTForum {... */\n      mstore(0x40, 0x80)\n      callvalue\n      dup1\n      iszero\n      tag_1\n      jumpi\n      0x00\n      dup1\n      revert\n    tag_1:\n      pop\n      jumpi(tag_2, lt(calldatasize, 0x04))\n      shr(0xe0, calldataload(0x00))\n      dup1\n      0x392338f5\n      gt\n      tag_14\n      jumpi\n      dup1\n      0x392338f5\n      eq\n      tag_8\n      jumpi\n      dup1\n      0x40731c24\n      eq\n      tag_9\n      jumpi\n      dup1\n      0x43859632\n      eq\n      tag_10\n      jumpi\n      dup1\n      0x48892753\n      eq\n      tag_11\n      jumpi\n      dup1\n      0x6305dd23\n      eq\n      tag_12\n      jumpi\n      dup1\n      0xfc6c776f\n      eq\n      tag_13\n      jumpi\n      jump(tag_2)\n    tag_14:\n      dup1\n      0x0b1e7f83\n      eq\n      tag_3\n      jumpi\n      dup1\n      0x0d4bfb4f\n      eq\n      tag_4\n      jumpi\n      dup1\n      0x1521e616\n      eq\n      tag_5\n      jumpi\n      dup1\n      0x17906c2e\n      eq\n      tag_6\n      jumpi\n      dup1\n      0x25cfb1c5\n      eq\n      tag_7\n      jumpi\n    tag_2:\n      0x00\n      dup1\n      revert\n        /* \"contracts/forum.sol\":835:872  mapping(uint256 => Post) public posts */\n    tag_3:\n      tag_15\n      0x04\n      dup1\n      calldatasize\n      sub\n      dup2\n      add\n      swap1\n      tag_16\n      swap2\n      swap1\n      tag_17\n      jump\t// in\n    tag_16:\n      tag_18\n      jump\t// in\n    tag_15:\n      mload(0x40)\n      tag_19\n      swap9\n      swap8\n      swap7\n      swap6\n      swap5\n      swap4\n      swap3\n      swap2\n      swap1\n      tag_20\n      jump\t// in\n    tag_19:\n      mload(0x40)\n      dup1\n      swap2\n      sub\n      swap1\n      return\n        /* \"contracts/forum.sol\":17484:17682  function getCommentCount(uint256 _postId) external view returns (uint256) {... */\n    tag_4:\n      tag_21\n      0x04\n      dup1\n      calldatasize\n      sub\n      dup2\n      add\n      swap1\n      tag_22\n      swap2\n      swap1\n      tag_17\n      jump\t// in\n    tag_22:\n      tag_23\n      jump\t// in\n    tag_21:\n      mload(0x40)\n      tag_24\n      swap2\n      swap1\n      tag_25\n      jump\t// in\n    tag_24:\n      mload(0x40)\n      dup1\n      swap2\n      sub\n      swap1\n      return\n        /* \"contracts/forum.sol\":14337:14995  function addComment(uint256 _postId, string memory _content, string memory _tag) external {... */\n    tag_5:\n      tag_26\n      0x04\n      dup1\n      calldatasize\n      sub\n      dup2\n      add\n      swap1\n      tag_27\n      swap2\n      swap1\n      tag_28\n      jump\t// in\n    tag_27:\n      tag_29\n      jump\t// in\n    tag_26:\n      stop\n        /* \"contracts/forum.sol\":878:902  uint256 public postCount */\n    tag_6:\n      tag_30\n      tag_31\n      jump\t// in\n    tag_30:\n      mload(0x40)\n      tag_32\n      swap2\n      swap1\n      tag_25\n      jump\t// in\n    tag_32:\n      mload(0x40)\n      dup1\n      swap2\n      sub\n      swap1\n      return\n        /* \"contracts/forum.sol\":15668:17474  function getCommentsBatch(uint256 _postId, uint256 _startId, uint256 _batchSize) external view returns (... */\n    tag_7:\n      tag_33\n      0x04\n      dup1\n      calldatasize\n      sub\n      dup2\n      add\n      swap1\n      tag_34\n      swap2\n      swap1\n      tag_35\n      jump\t// in\n    tag_34:\n      tag_36\n      jump\t// in\n    tag_33:\n      mload(0x40)\n      tag_37\n      swap6\n      swap5\n      swap4\n      swap3\n      swap2\n      swap1\n      tag_38\n      jump\t// in\n    tag_37:\n      mload(0x40)\n      dup1\n      swap2\n      sub\n      swap1\n      return\n        /* \"contracts/forum.sol\":13729:14327  function createPost(string memory _content, string memory _tag) external {... */\n    tag_8:\n      tag_39\n      0x04\n      dup1\n      calldatasize\n      sub\n      dup2\n      add\n      swap1\n      tag_40\n      swap2\n      swap1\n      tag_41\n      jump\t// in\n    tag_40:\n      tag_42\n      jump\t// in\n    tag_39:\n      stop\n        /* \"contracts/forum.sol\":18800:19470  function getPost(uint256 _postId) external view returns (... */\n    tag_9:\n      tag_43\n      0x04\n      dup1\n      calldatasize\n      sub\n      dup2\n      add\n      swap1\n      tag_44\n      swap2\n      swap1\n      tag_17\n      jump\t// in\n    tag_44:\n      tag_45\n      jump\t// in\n    tag_43:\n      mload(0x40)\n      tag_46\n      swap9\n      swap8\n      swap7\n      swap6\n      swap5\n      swap4\n      swap3\n      swap2\n      swap1\n      tag_20\n      jump\t// in\n    tag_46:\n      mload(0x40)\n      dup1\n      swap2\n      sub\n      swap1\n      return\n        /* \"contracts/forum.sol\":19480:19688  function hasVoted(uint256 _postId, address _voter) external view returns (bool) {... */\n    tag_10:\n      tag_47\n      0x04\n      dup1\n      calldatasize\n      sub\n      dup2\n      add\n      swap1\n      tag_48\n      swap2\n      swap1\n      tag_49\n      jump\t// in\n    tag_48:\n      tag_50\n      jump\t// in\n    tag_47:\n      mload(0x40)\n      tag_51\n      swap2\n      swap1\n      tag_52\n      jump\t// in\n    tag_51:\n      mload(0x40)\n      dup1\n      swap2\n      sub\n      swap1\n      return\n        /* \"contracts/forum.sol\":15069:15658  function getComment(uint256 _postId, uint256 _commentId) external view returns (... */\n    tag_11:\n      tag_53\n      0x04\n      dup1\n      calldatasize\n      sub\n      dup2\n      add\n      swap1\n      tag_54\n      swap2\n      swap1\n      tag_55\n      jump\t// in\n    tag_54:\n      tag_56\n      jump\t// in\n    tag_53:\n      mload(0x40)\n      tag_57\n      swap5\n      swap4\n      swap3\n      swap2\n      swap1\n      tag_58\n      jump\t// in\n    tag_57:\n      mload(0x40)\n      dup1\n      swap2\n      sub\n      swap1\n      return\n        /* \"contracts/forum.sol\":17810:18636  function voteOnTag(uint256 _postId, bool _isRealVote) external {... */\n    tag_12:\n      tag_59\n      0x04\n      dup1\n      calldatasize\n      sub\n      dup2\n      add\n      swap1\n      tag_60\n      swap2\n      swap1\n      tag_61\n      jump\t// in\n    tag_60:\n      tag_62\n      jump\t// in\n    tag_59:\n      stop\n        /* \"contracts/forum.sol\":956:1019  mapping(uint256 => mapping(uint256 => Comment)) public comments */\n    tag_13:\n      tag_63\n      0x04\n      dup1\n      calldatasize\n      sub\n      dup2\n      add\n      swap1\n      tag_64\n      swap2\n      swap1\n      tag_55\n      jump\t// in\n    tag_64:\n      tag_65\n      jump\t// in\n    tag_63:\n      mload(0x40)\n      tag_66\n      swap5\n      swap4\n      swap3\n      swap2\n      swap1\n      tag_58\n      jump\t// in\n    tag_66:\n      mload(0x40)\n      dup1\n      swap2\n      sub\n      swap1\n      return\n        /* \"contracts/forum.sol\":835:872  mapping(uint256 => Post) public posts */\n    tag_18:\n      mstore(0x20, 0x00)\n      dup1\n      0x00\n      mstore\n      keccak256(0x00, 0x40)\n      0x00\n      swap2\n      pop\n      swap1\n      pop\n      dup1\n      0x00\n      add\n      0x00\n      swap1\n      sload\n      swap1\n      0x0100\n      exp\n      swap1\n      div\n      0xffffffffffffffffffffffffffffffffffffffff\n      and\n      swap1\n      dup1\n      0x01\n      add\n      dup1\n      sload\n      tag_67\n      swap1\n      tag_68\n      jump\t// in\n    tag_67:\n      dup1\n      0x1f\n      add\n      0x20\n      dup1\n      swap2\n      div\n      mul\n      0x20\n      add\n      mload(0x40)\n      swap1\n      dup2\n      add\n      0x40\n      mstore\n      dup1\n      swap3\n      swap2\n      swap1\n      dup2\n      dup2\n      mstore\n      0x20\n      add\n      dup3\n      dup1\n      sload\n      tag_69\n      swap1\n      tag_68\n      jump\t// in\n    tag_69:\n      dup1\n      iszero\n      tag_70\n      jumpi\n      dup1\n      0x1f\n      lt\n      tag_71\n      jumpi\n      0x0100\n      dup1\n      dup4\n      sload\n      div\n      mul\n      dup4\n      mstore\n      swap2\n      0x20\n      add\n      swap2\n      jump(tag_70)\n    tag_71:\n      dup3\n      add\n      swap2\n      swap1\n      0x00\n      mstore\n      keccak256(0x00, 0x20)\n      swap1\n    tag_72:\n      dup2\n      sload\n      dup2\n      mstore\n      swap1\n      0x01\n      add\n      swap1\n      0x20\n      add\n      dup1\n      dup4\n      gt\n      tag_72\n      jumpi\n      dup3\n      swap1\n      sub\n      0x1f\n      and\n      dup3\n      add\n      swap2\n    tag_70:\n      pop\n      pop\n      pop\n      pop\n      pop\n      swap1\n      dup1\n      0x02\n      add\n      dup1\n      sload\n      tag_73\n      swap1\n      tag_68\n      jump\t// in\n    tag_73:\n      dup1\n      0x1f\n      add\n      0x20\n      dup1\n      swap2\n      div\n      mul\n      0x20\n      add\n      mload(0x40)\n      swap1\n      dup2\n      add\n      0x40\n      mstore\n      dup1\n      swap3\n      swap2\n      swap1\n      dup2\n      dup2\n      mstore\n      0x20\n      add\n      dup3\n      dup1\n      sload\n      tag_74\n      swap1\n      tag_68\n      jump\t// in\n    tag_74:\n      dup1\n      iszero\n      tag_75\n      jumpi\n      dup1\n      0x1f\n      lt\n      tag_76\n      jumpi\n      0x0100\n      dup1\n      dup4\n      sload\n      div\n      mul\n      dup4\n      mstore\n      swap2\n      0x20\n      add\n      swap2\n      jump(tag_75)\n    tag_76:\n      dup3\n      add\n      swap2\n      swap1\n      0x00\n      mstore\n      keccak256(0x00, 0x20)\n      swap1\n    tag_77:\n      dup2\n      sload\n      dup2\n      mstore\n      swap1\n      0x01\n      add\n      swap1\n      0x20\n      add\n      dup1\n      dup4\n      gt\n      tag_77\n      jumpi\n      dup3\n      swap1\n      sub\n      0x1f\n      and\n      dup3\n      add\n      swap2\n    tag_75:\n      pop\n      pop\n      pop\n      pop\n      pop\n      swap1\n      dup1\n      0x03\n      add\n      sload\n      swap1\n      dup1\n      0x04\n      add\n      0x00\n      swap1\n      sload\n      swap1\n      0x0100\n      exp\n      swap1\n      div\n      0xff\n      and\n      swap1\n      dup1\n      0x05\n      add\n      sload\n      swap1\n      dup1\n      0x06\n      add\n      sload\n      swap1\n      dup1\n      0x08\n      add\n      sload\n      swap1\n      pop\n      dup9\n      jump\t// out\n        /* \"contracts/forum.sol\":17484:17682  function getCommentCount(uint256 _postId) external view returns (uint256) {... */\n    tag_23:\n        /* \"contracts/forum.sol\":17549:17556  uint256 */\n      0x00\n        /* \"contracts/forum.sol\":17586:17587  0 */\n      dup1\n        /* \"contracts/forum.sol\":17576:17583  _postId */\n      dup3\n        /* \"contracts/forum.sol\":17576:17587  _postId > 0 */\n      gt\n        /* \"contracts/forum.sol\":17576:17611  _postId > 0 && _postId <= postCount */\n      dup1\n      iszero\n      tag_79\n      jumpi\n      pop\n        /* \"contracts/forum.sol\":17602:17611  postCount */\n      sload(0x01)\n        /* \"contracts/forum.sol\":17591:17598  _postId */\n      dup3\n        /* \"contracts/forum.sol\":17591:17611  _postId <= postCount */\n      gt\n      iszero\n        /* \"contracts/forum.sol\":17576:17611  _postId > 0 && _postId <= postCount */\n    tag_79:\n        /* \"contracts/forum.sol\":17568:17631  require(_postId > 0 && _postId <= postCount, \"Invalid post ID\") */\n      tag_80\n      jumpi\n      mload(0x40)\n      0x08c379a000000000000000000000000000000000000000000000000000000000\n      dup2\n      mstore\n      0x04\n      add\n      tag_81\n      swap1\n      tag_82\n      jump\t// in\n    tag_81:\n      mload(0x40)\n      dup1\n      swap2\n      sub\n      swap1\n      revert\n    tag_80:\n        /* \"contracts/forum.sol\":17648:17653  posts */\n      0x00\n        /* \"contracts/forum.sol\":17648:17662  posts[_postId] */\n      dup1\n        /* \"contracts/forum.sol\":17654:17661  _postId */\n      dup4\n        /* \"contracts/forum.sol\":17648:17662  posts[_postId] */\n      dup2\n      mstore\n      0x20\n      add\n      swap1\n      dup2\n      mstore\n      0x20\n      add\n      0x00\n      keccak256\n        /* \"contracts/forum.sol\":17648:17675  posts[_postId].commentCount */\n      0x08\n      add\n      sload\n        /* \"contracts/forum.sol\":17641:17675  return posts[_postId].commentCount */\n      swap1\n      pop\n        /* \"contracts/forum.sol\":17484:17682  function getCommentCount(uint256 _postId) external view returns (uint256) {... */\n      swap2\n      swap1\n      pop\n      jump\t// out\n        /* \"contracts/forum.sol\":14337:14995  function addComment(uint256 _postId, string memory _content, string memory _tag) external {... */\n    tag_29:\n        /* \"contracts/forum.sol\":14455:14456  0 */\n      0x00\n        /* \"contracts/forum.sol\":14445:14452  _postId */\n      dup4\n        /* \"contracts/forum.sol\":14445:14456  _postId > 0 */\n      gt\n        /* \"contracts/forum.sol\":14445:14480  _postId > 0 && _postId <= postCount */\n      dup1\n      iszero\n      tag_84\n      jumpi\n      pop\n        /* \"contracts/forum.sol\":14471:14480  postCount */\n      sload(0x01)\n        /* \"contracts/forum.sol\":14460:14467  _postId */\n      dup4\n        /* \"contracts/forum.sol\":14460:14480  _postId <= postCount */\n      gt\n      iszero\n        /* \"contracts/forum.sol\":14445:14480  _postId > 0 && _postId <= postCount */\n    tag_84:\n        /* \"contracts/forum.sol\":14437:14500  require(_postId > 0 && _postId <= postCount, \"Invalid post ID\") */\n      tag_85\n      jumpi\n      mload(0x40)\n      0x08c379a000000000000000000000000000000000000000000000000000000000\n      dup2\n      mstore\n      0x04\n      add\n      tag_86\n      swap1\n      tag_82\n      jump\t// in\n    tag_86:\n      mload(0x40)\n      dup1\n      swap2\n      sub\n      swap1\n      revert\n    tag_85:\n        /* \"contracts/forum.sol\":14543:14544  0 */\n      0x00\n        /* \"contracts/forum.sol\":14524:14532  _content */\n      dup3\n        /* \"contracts/forum.sol\":14518:14540  bytes(_content).length */\n      mload\n        /* \"contracts/forum.sol\":14518:14544  bytes(_content).length > 0 */\n      gt\n        /* \"contracts/forum.sol\":14510:14572  require(bytes(_content).length > 0, \"Comment cannot be empty\") */\n      tag_87\n      jumpi\n      mload(0x40)\n      0x08c379a000000000000000000000000000000000000000000000000000000000\n      dup2\n      mstore\n      0x04\n      add\n      tag_88\n      swap1\n      tag_89\n      jump\t// in\n    tag_88:\n      mload(0x40)\n      dup1\n      swap2\n      sub\n      swap1\n      revert\n    tag_87:\n        /* \"contracts/forum.sol\":14591:14608  Post storage post */\n      0x00\n        /* \"contracts/forum.sol\":14611:14616  posts */\n      dup1\n        /* \"contracts/forum.sol\":14611:14625  posts[_postId] */\n      0x00\n        /* \"contracts/forum.sol\":14617:14624  _postId */\n      dup6\n        /* \"contracts/forum.sol\":14611:14625  posts[_postId] */\n      dup2\n      mstore\n      0x20\n      add\n      swap1\n      dup2\n      mstore\n      0x20\n      add\n      0x00\n      keccak256\n        /* \"contracts/forum.sol\":14591:14625  Post storage post = posts[_postId] */\n      swap1\n      pop\n        /* \"contracts/forum.sol\":14635:14639  post */\n      dup1\n        /* \"contracts/forum.sol\":14635:14652  post.commentCount */\n      0x08\n      add\n      0x00\n        /* \"contracts/forum.sol\":14635:14654  post.commentCount++ */\n      dup2\n      sload\n      dup1\n      swap3\n      swap2\n      swap1\n      tag_90\n      swap1\n      tag_91\n      jump\t// in\n    tag_90:\n      swap2\n      swap1\n      pop\n      sstore\n      pop\n        /* \"contracts/forum.sol\":14673:14699  Comment storage newComment */\n      0x00\n        /* \"contracts/forum.sol\":14702:14710  comments */\n      0x02\n        /* \"contracts/forum.sol\":14702:14719  comments[_postId] */\n      0x00\n        /* \"contracts/forum.sol\":14711:14718  _postId */\n      dup7\n        /* \"contracts/forum.sol\":14702:14719  comments[_postId] */\n      dup2\n      mstore\n      0x20\n      add\n      swap1\n      dup2\n      mstore\n      0x20\n      add\n      0x00\n      keccak256\n        /* \"contracts/forum.sol\":14702:14738  comments[_postId][post.commentCount] */\n      0x00\n        /* \"contracts/forum.sol\":14720:14724  post */\n      dup4\n        /* \"contracts/forum.sol\":14720:14737  post.commentCount */\n      0x08\n      add\n      sload\n        /* \"contracts/forum.sol\":14702:14738  comments[_postId][post.commentCount] */\n      dup2\n      mstore\n      0x20\n      add\n      swap1\n      dup2\n      mstore\n      0x20\n      add\n      0x00\n      keccak256\n        /* \"contracts/forum.sol\":14673:14738  Comment storage newComment = comments[_postId][post.commentCount] */\n      swap1\n      pop\n        /* \"contracts/forum.sol\":14768:14778  msg.sender */\n      caller\n        /* \"contracts/forum.sol\":14748:14758  newComment */\n      dup2\n        /* \"contracts/forum.sol\":14748:14765  newComment.author */\n      0x00\n      add\n      0x00\n        /* \"contracts/forum.sol\":14748:14778  newComment.author = msg.sender */\n      0x0100\n      exp\n      dup2\n      sload\n      dup2\n      0xffffffffffffffffffffffffffffffffffffffff\n      mul\n      not\n      and\n      swap1\n      dup4\n      0xffffffffffffffffffffffffffffffffffffffff\n      and\n      mul\n      or\n      swap1\n      sstore\n      pop\n        /* \"contracts/forum.sol\":14809:14817  _content */\n      dup4\n        /* \"contracts/forum.sol\":14788:14798  newComment */\n      dup2\n        /* \"contracts/forum.sol\":14788:14806  newComment.content */\n      0x01\n      add\n        /* \"contracts/forum.sol\":14788:14817  newComment.content = _content */\n      swap1\n      dup2\n      tag_92\n      swap2\n      swap1\n      tag_93\n      jump\t// in\n    tag_92:\n      pop\n        /* \"contracts/forum.sol\":14844:14848  _tag */\n      dup3\n        /* \"contracts/forum.sol\":14827:14837  newComment */\n      dup2\n        /* \"contracts/forum.sol\":14827:14841  newComment.tag */\n      0x02\n      add\n        /* \"contracts/forum.sol\":14827:14848  newComment.tag = _tag */\n      swap1\n      dup2\n      tag_94\n      swap2\n      swap1\n      tag_93\n      jump\t// in\n    tag_94:\n      pop\n        /* \"contracts/forum.sol\":14881:14896  block.timestamp */\n      timestamp\n        /* \"contracts/forum.sol\":14858:14868  newComment */\n      dup2\n        /* \"contracts/forum.sol\":14858:14878  newComment.timestamp */\n      0x03\n      add\n        /* \"contracts/forum.sol\":14858:14896  newComment.timestamp = block.timestamp */\n      dup2\n      swap1\n      sstore\n      pop\n        /* \"contracts/forum.sol\":14961:14971  msg.sender */\n      caller\n        /* \"contracts/forum.sol\":14920:14988  CommentAdded(_postId, post.commentCount, msg.sender, _content, _tag) */\n      0xffffffffffffffffffffffffffffffffffffffff\n      and\n        /* \"contracts/forum.sol\":14942:14946  post */\n      dup3\n        /* \"contracts/forum.sol\":14942:14959  post.commentCount */\n      0x08\n      add\n      sload\n        /* \"contracts/forum.sol\":14933:14940  _postId */\n      dup7\n        /* \"contracts/forum.sol\":14920:14988  CommentAdded(_postId, post.commentCount, msg.sender, _content, _tag) */\n      0x03a56e2377acf256c15a50f0b97834fa29a151d0b8a6d05c450576e40634fadc\n        /* \"contracts/forum.sol\":14973:14981  _content */\n      dup8\n        /* \"contracts/forum.sol\":14983:14987  _tag */\n      dup8\n        /* \"contracts/forum.sol\":14920:14988  CommentAdded(_postId, post.commentCount, msg.sender, _content, _tag) */\n      mload(0x40)\n      tag_95\n      swap3\n      swap2\n      swap1\n      tag_96\n      jump\t// in\n    tag_95:\n      mload(0x40)\n      dup1\n      swap2\n      sub\n      swap1\n      log4\n        /* \"contracts/forum.sol\":14427:14995  {... */\n      pop\n      pop\n        /* \"contracts/forum.sol\":14337:14995  function addComment(uint256 _postId, string memory _content, string memory _tag) external {... */\n      pop\n      pop\n      pop\n      jump\t// out\n        /* \"contracts/forum.sol\":878:902  uint256 public postCount */\n    tag_31:\n      sload(0x01)\n      dup2\n      jump\t// out\n        /* \"contracts/forum.sol\":15668:17474  function getCommentsBatch(uint256 _postId, uint256 _startId, uint256 _batchSize) external view returns (... */\n    tag_36:\n        /* \"contracts/forum.sol\":15781:15805  address[] memory authors */\n      0x60\n        /* \"contracts/forum.sol\":15815:15839  string[] memory contents */\n      dup1\n        /* \"contracts/forum.sol\":15849:15869  string[] memory tags */\n      0x60\n        /* \"contracts/forum.sol\":15879:15906  uint256[] memory timestamps */\n      dup1\n        /* \"contracts/forum.sol\":15916:15934  uint256 totalCount */\n      0x00\n        /* \"contracts/forum.sol\":15969:15970  0 */\n      dup1\n        /* \"contracts/forum.sol\":15959:15966  _postId */\n      dup9\n        /* \"contracts/forum.sol\":15959:15970  _postId > 0 */\n      gt\n        /* \"contracts/forum.sol\":15959:15994  _postId > 0 && _postId <= postCount */\n      dup1\n      iszero\n      tag_98\n      jumpi\n      pop\n        /* \"contracts/forum.sol\":15985:15994  postCount */\n      sload(0x01)\n        /* \"contracts/forum.sol\":15974:15981  _postId */\n      dup9\n        /* \"contracts/forum.sol\":15974:15994  _postId <= postCount */\n      gt\n      iszero\n        /* \"contracts/forum.sol\":15959:15994  _postId > 0 && _postId <= postCount */\n    tag_98:\n        /* \"contracts/forum.sol\":15951:16014  require(_postId > 0 && _postId <= postCount, \"Invalid post ID\") */\n      tag_99\n      jumpi\n      mload(0x40)\n      0x08c379a000000000000000000000000000000000000000000000000000000000\n      dup2\n      mstore\n      0x04\n      add\n      tag_100\n      swap1\n      tag_82\n      jump\t// in\n    tag_100:\n      mload(0x40)\n      dup1\n      swap2\n      sub\n      swap1\n      revert\n    tag_99:\n        /* \"contracts/forum.sol\":16043:16044  0 */\n      0x00\n        /* \"contracts/forum.sol\":16032:16040  _startId */\n      dup8\n        /* \"contracts/forum.sol\":16032:16044  _startId > 0 */\n      gt\n        /* \"contracts/forum.sol\":16024:16080  require(_startId > 0, \"Start ID must be greater than 0\") */\n      tag_101\n      jumpi\n      mload(0x40)\n      0x08c379a000000000000000000000000000000000000000000000000000000000\n      dup2\n      mstore\n      0x04\n      add\n      tag_102\n      swap1\n      tag_103\n      jump\t// in\n    tag_102:\n      mload(0x40)\n      dup1\n      swap2\n      sub\n      swap1\n      revert\n    tag_101:\n        /* \"contracts/forum.sol\":16099:16119  uint256 commentCount */\n      0x00\n        /* \"contracts/forum.sol\":16122:16127  posts */\n      dup1\n        /* \"contracts/forum.sol\":16122:16136  posts[_postId] */\n      0x00\n        /* \"contracts/forum.sol\":16128:16135  _postId */\n      dup11\n        /* \"contracts/forum.sol\":16122:16136  posts[_postId] */\n      dup2\n      mstore\n      0x20\n      add\n      swap1\n      dup2\n      mstore\n      0x20\n      add\n      0x00\n      keccak256\n        /* \"contracts/forum.sol\":16122:16149  posts[_postId].commentCount */\n      0x08\n      add\n      sload\n        /* \"contracts/forum.sol\":16099:16149  uint256 commentCount = posts[_postId].commentCount */\n      swap1\n      pop\n        /* \"contracts/forum.sol\":16172:16184  commentCount */\n      dup1\n        /* \"contracts/forum.sol\":16159:16184  totalCount = commentCount */\n      swap2\n      pop\n        /* \"contracts/forum.sol\":16292:16304  commentCount */\n      dup1\n        /* \"contracts/forum.sol\":16281:16289  _startId */\n      dup9\n        /* \"contracts/forum.sol\":16281:16304  _startId > commentCount */\n      gt\n        /* \"contracts/forum.sol\":16277:16420  if (_startId > commentCount) {... */\n      iszero\n      tag_104\n      jumpi\n        /* \"contracts/forum.sol\":16342:16343  0 */\n      0x00\n        /* \"contracts/forum.sol\":16328:16344  new address[](0) */\n      0xffffffffffffffff\n      dup2\n      gt\n      iszero\n      tag_105\n      jumpi\n      tag_106\n      tag_107\n      jump\t// in\n    tag_106:\n    tag_105:\n      mload(0x40)\n      swap1\n      dup1\n      dup3\n      mstore\n      dup1\n      0x20\n      mul\n      0x20\n      add\n      dup3\n      add\n      0x40\n      mstore\n      dup1\n      iszero\n      tag_108\n      jumpi\n      dup2\n      0x20\n      add\n      0x20\n      dup3\n      mul\n      dup1\n      calldatasize\n      dup4\n      calldatacopy\n      dup1\n      dup3\n      add\n      swap2\n      pop\n      pop\n      swap1\n      pop\n    tag_108:\n      pop\n        /* \"contracts/forum.sol\":16359:16360  0 */\n      0x00\n        /* \"contracts/forum.sol\":16346:16361  new string[](0) */\n      0xffffffffffffffff\n      dup2\n      gt\n      iszero\n      tag_109\n      jumpi\n      tag_110\n      tag_107\n      jump\t// in\n    tag_110:\n    tag_109:\n      mload(0x40)\n      swap1\n      dup1\n      dup3\n      mstore\n      dup1\n      0x20\n      mul\n      0x20\n      add\n      dup3\n      add\n      0x40\n      mstore\n      dup1\n      iszero\n      tag_111\n      jumpi\n      dup2\n      0x20\n      add\n    tag_112:\n      0x60\n      dup2\n      mstore\n      0x20\n      add\n      swap1\n      0x01\n      swap1\n      sub\n      swap1\n      dup2\n      tag_112\n      jumpi\n      swap1\n      pop\n    tag_111:\n      pop\n        /* \"contracts/forum.sol\":16376:16377  0 */\n      0x00\n        /* \"contracts/forum.sol\":16363:16378  new string[](0) */\n      0xffffffffffffffff\n      dup2\n      gt\n      iszero\n      tag_113\n      jumpi\n      tag_114\n      tag_107\n      jump\t// in\n    tag_114:\n    tag_113:\n      mload(0x40)\n      swap1\n      dup1\n      dup3\n      mstore\n      dup1\n      0x20\n      mul\n      0x20\n      add\n      dup3\n      add\n      0x40\n      mstore\n      dup1\n      iszero\n      tag_115\n      jumpi\n      dup2\n      0x20\n      add\n    tag_116:\n      0x60\n      dup2\n      mstore\n      0x20\n      add\n      swap1\n      0x01\n      swap1\n      sub\n      swap1\n      dup2\n      tag_116\n      jumpi\n      swap1\n      pop\n    tag_115:\n      pop\n        /* \"contracts/forum.sol\":16394:16395  0 */\n      0x00\n        /* \"contracts/forum.sol\":16380:16396  new uint256[](0) */\n      0xffffffffffffffff\n      dup2\n      gt\n      iszero\n      tag_117\n      jumpi\n      tag_118\n      tag_107\n      jump\t// in\n    tag_118:\n    tag_117:\n      mload(0x40)\n      swap1\n      dup1\n      dup3\n      mstore\n      dup1\n      0x20\n      mul\n      0x20\n      add\n      dup3\n      add\n      0x40\n      mstore\n      dup1\n      iszero\n      tag_119\n      jumpi\n      dup2\n      0x20\n      add\n      0x20\n      dup3\n      mul\n      dup1\n      calldatasize\n      dup4\n      calldatacopy\n      dup1\n      dup3\n      add\n      swap2\n      pop\n      pop\n      swap1\n      pop\n    tag_119:\n      pop\n        /* \"contracts/forum.sol\":16320:16409  return (new address[](0), new string[](0), new string[](0), new uint256[](0), totalCount) */\n      swap6\n      pop\n      swap6\n      pop\n      swap6\n      pop\n      swap6\n      pop\n      pop\n      jump(tag_97)\n        /* \"contracts/forum.sol\":16277:16420  if (_startId > commentCount) {... */\n    tag_104:\n        /* \"contracts/forum.sol\":16485:16502  uint256 batchSize */\n      0x00\n        /* \"contracts/forum.sol\":16505:16515  _batchSize */\n      dup8\n        /* \"contracts/forum.sol\":16485:16515  uint256 batchSize = _batchSize */\n      swap1\n      pop\n        /* \"contracts/forum.sol\":185:187  20 */\n      0x14\n        /* \"contracts/forum.sol\":16529:16538  batchSize */\n      dup2\n        /* \"contracts/forum.sol\":16529:16555  batchSize > MAX_BATCH_SIZE */\n      gt\n        /* \"contracts/forum.sol\":16525:16608  if (batchSize > MAX_BATCH_SIZE) {... */\n      iszero\n      tag_120\n      jumpi\n        /* \"contracts/forum.sol\":185:187  20 */\n      0x14\n        /* \"contracts/forum.sol\":16571:16597  batchSize = MAX_BATCH_SIZE */\n      swap1\n      pop\n        /* \"contracts/forum.sol\":16525:16608  if (batchSize > MAX_BATCH_SIZE) {... */\n    tag_120:\n        /* \"contracts/forum.sol\":16693:16718  uint256 remainingComments */\n      0x00\n        /* \"contracts/forum.sol\":16747:16748  1 */\n      0x01\n        /* \"contracts/forum.sol\":16736:16744  _startId */\n      dup11\n        /* \"contracts/forum.sol\":16721:16733  commentCount */\n      dup5\n        /* \"contracts/forum.sol\":16721:16744  commentCount - _startId */\n      tag_121\n      swap2\n      swap1\n      tag_122\n      jump\t// in\n    tag_121:\n        /* \"contracts/forum.sol\":16721:16748  commentCount - _startId + 1 */\n      tag_123\n      swap2\n      swap1\n      tag_124\n      jump\t// in\n    tag_123:\n        /* \"contracts/forum.sol\":16693:16748  uint256 remainingComments = commentCount - _startId + 1 */\n      swap1\n      pop\n        /* \"contracts/forum.sol\":16774:16791  remainingComments */\n      dup1\n        /* \"contracts/forum.sol\":16762:16771  batchSize */\n      dup3\n        /* \"contracts/forum.sol\":16762:16791  batchSize > remainingComments */\n      gt\n        /* \"contracts/forum.sol\":16758:16847  if (batchSize > remainingComments) {... */\n      iszero\n      tag_125\n      jumpi\n        /* \"contracts/forum.sol\":16819:16836  remainingComments */\n      dup1\n        /* \"contracts/forum.sol\":16807:16836  batchSize = remainingComments */\n      swap2\n      pop\n        /* \"contracts/forum.sol\":16758:16847  if (batchSize > remainingComments) {... */\n    tag_125:\n        /* \"contracts/forum.sol\":16889:16898  batchSize */\n      dup2\n        /* \"contracts/forum.sol\":16875:16899  new address[](batchSize) */\n      0xffffffffffffffff\n      dup2\n      gt\n      iszero\n      tag_126\n      jumpi\n      tag_127\n      tag_107\n      jump\t// in\n    tag_127:\n    tag_126:\n      mload(0x40)\n      swap1\n      dup1\n      dup3\n      mstore\n      dup1\n      0x20\n      mul\n      0x20\n      add\n      dup3\n      add\n      0x40\n      mstore\n      dup1\n      iszero\n      tag_128\n      jumpi\n      dup2\n      0x20\n      add\n      0x20\n      dup3\n      mul\n      dup1\n      calldatasize\n      dup4\n      calldatacopy\n      dup1\n      dup3\n      add\n      swap2\n      pop\n      pop\n      swap1\n      pop\n    tag_128:\n      pop\n        /* \"contracts/forum.sol\":16865:16899  authors = new address[](batchSize) */\n      swap8\n      pop\n        /* \"contracts/forum.sol\":16933:16942  batchSize */\n      dup2\n        /* \"contracts/forum.sol\":16920:16943  new string[](batchSize) */\n      0xffffffffffffffff\n      dup2\n      gt\n      iszero\n      tag_129\n      jumpi\n      tag_130\n      tag_107\n      jump\t// in\n    tag_130:\n    tag_129:\n      mload(0x40)\n      swap1\n      dup1\n      dup3\n      mstore\n      dup1\n      0x20\n      mul\n      0x20\n      add\n      dup3\n      add\n      0x40\n      mstore\n      dup1\n      iszero\n      tag_131\n      jumpi\n      dup2\n      0x20\n      add\n    tag_132:\n      0x60\n      dup2\n      mstore\n      0x20\n      add\n      swap1\n      0x01\n      swap1\n      sub\n      swap1\n      dup2\n      tag_132\n      jumpi\n      swap1\n      pop\n    tag_131:\n      pop\n        /* \"contracts/forum.sol\":16909:16943  contents = new string[](batchSize) */\n      swap7\n      pop\n        /* \"contracts/forum.sol\":16973:16982  batchSize */\n      dup2\n        /* \"contracts/forum.sol\":16960:16983  new string[](batchSize) */\n      0xffffffffffffffff\n      dup2\n      gt\n      iszero\n      tag_133\n      jumpi\n      tag_134\n      tag_107\n      jump\t// in\n    tag_134:\n    tag_133:\n      mload(0x40)\n      swap1\n      dup1\n      dup3\n      mstore\n      dup1\n      0x20\n      mul\n      0x20\n      add\n      dup3\n      add\n      0x40\n      mstore\n      dup1\n      iszero\n      tag_135\n      jumpi\n      dup2\n      0x20\n      add\n    tag_136:\n      0x60\n      dup2\n      mstore\n      0x20\n      add\n      swap1\n      0x01\n      swap1\n      sub\n      swap1\n      dup2\n      tag_136\n      jumpi\n      swap1\n      pop\n    tag_135:\n      pop\n        /* \"contracts/forum.sol\":16953:16983  tags = new string[](batchSize) */\n      swap6\n      pop\n        /* \"contracts/forum.sol\":17020:17029  batchSize */\n      dup2\n        /* \"contracts/forum.sol\":17006:17030  new uint256[](batchSize) */\n      0xffffffffffffffff\n      dup2\n      gt\n      iszero\n      tag_137\n      jumpi\n      tag_138\n      tag_107\n      jump\t// in\n    tag_138:\n    tag_137:\n      mload(0x40)\n      swap1\n      dup1\n      dup3\n      mstore\n      dup1\n      0x20\n      mul\n      0x20\n      add\n      dup3\n      add\n      0x40\n      mstore\n      dup1\n      iszero\n      tag_139\n      jumpi\n      dup2\n      0x20\n      add\n      0x20\n      dup3\n      mul\n      dup1\n      calldatasize\n      dup4\n      calldatacopy\n      dup1\n      dup3\n      add\n      swap2\n      pop\n      pop\n      swap1\n      pop\n    tag_139:\n      pop\n        /* \"contracts/forum.sol\":16993:17030  timestamps = new uint256[](batchSize) */\n      swap5\n      pop\n        /* \"contracts/forum.sol\":17054:17063  uint256 i */\n      0x00\n        /* \"contracts/forum.sol\":17049:17393  for (uint256 i = 0; i < batchSize; i++) {... */\n    tag_140:\n        /* \"contracts/forum.sol\":17073:17082  batchSize */\n      dup3\n        /* \"contracts/forum.sol\":17069:17070  i */\n      dup2\n        /* \"contracts/forum.sol\":17069:17082  i < batchSize */\n      lt\n        /* \"contracts/forum.sol\":17049:17393  for (uint256 i = 0; i < batchSize; i++) {... */\n      iszero\n      tag_141\n      jumpi\n        /* \"contracts/forum.sol\":17103:17120  uint256 commentId */\n      0x00\n        /* \"contracts/forum.sol\":17134:17135  i */\n      dup2\n        /* \"contracts/forum.sol\":17123:17131  _startId */\n      dup13\n        /* \"contracts/forum.sol\":17123:17135  _startId + i */\n      tag_143\n      swap2\n      swap1\n      tag_124\n      jump\t// in\n    tag_143:\n        /* \"contracts/forum.sol\":17103:17135  uint256 commentId = _startId + i */\n      swap1\n      pop\n        /* \"contracts/forum.sol\":17149:17172  Comment storage comment */\n      0x00\n        /* \"contracts/forum.sol\":17175:17183  comments */\n      0x02\n        /* \"contracts/forum.sol\":17175:17192  comments[_postId] */\n      0x00\n        /* \"contracts/forum.sol\":17184:17191  _postId */\n      dup16\n        /* \"contracts/forum.sol\":17175:17192  comments[_postId] */\n      dup2\n      mstore\n      0x20\n      add\n      swap1\n      dup2\n      mstore\n      0x20\n      add\n      0x00\n      keccak256\n        /* \"contracts/forum.sol\":17175:17203  comments[_postId][commentId] */\n      0x00\n        /* \"contracts/forum.sol\":17193:17202  commentId */\n      dup4\n        /* \"contracts/forum.sol\":17175:17203  comments[_postId][commentId] */\n      dup2\n      mstore\n      0x20\n      add\n      swap1\n      dup2\n      mstore\n      0x20\n      add\n      0x00\n      keccak256\n        /* \"contracts/forum.sol\":17149:17203  Comment storage comment = comments[_postId][commentId] */\n      swap1\n      pop\n        /* \"contracts/forum.sol\":17243:17250  comment */\n      dup1\n        /* \"contracts/forum.sol\":17243:17257  comment.author */\n      0x00\n      add\n      0x00\n      swap1\n      sload\n      swap1\n      0x0100\n      exp\n      swap1\n      div\n      0xffffffffffffffffffffffffffffffffffffffff\n      and\n        /* \"contracts/forum.sol\":17230:17237  authors */\n      dup12\n        /* \"contracts/forum.sol\":17238:17239  i */\n      dup5\n        /* \"contracts/forum.sol\":17230:17240  authors[i] */\n      dup2\n      mload\n      dup2\n      lt\n      tag_144\n      jumpi\n      tag_145\n      tag_146\n      jump\t// in\n    tag_145:\n    tag_144:\n      0x20\n      mul\n      0x20\n      add\n      add\n        /* \"contracts/forum.sol\":17230:17257  authors[i] = comment.author */\n      swap1\n      0xffffffffffffffffffffffffffffffffffffffff\n      and\n      swap1\n      dup2\n      0xffffffffffffffffffffffffffffffffffffffff\n      and\n      dup2\n      mstore\n      pop\n      pop\n        /* \"contracts/forum.sol\":17285:17292  comment */\n      dup1\n        /* \"contracts/forum.sol\":17285:17300  comment.content */\n      0x01\n      add\n        /* \"contracts/forum.sol\":17271:17300  contents[i] = comment.content */\n      dup1\n      sload\n      tag_147\n      swap1\n      tag_68\n      jump\t// in\n    tag_147:\n      dup1\n      0x1f\n      add\n      0x20\n      dup1\n      swap2\n      div\n      mul\n      0x20\n      add\n      mload(0x40)\n      swap1\n      dup2\n      add\n      0x40\n      mstore\n      dup1\n      swap3\n      swap2\n      swap1\n      dup2\n      dup2\n      mstore\n      0x20\n      add\n      dup3\n      dup1\n      sload\n      tag_148\n      swap1\n      tag_68\n      jump\t// in\n    tag_148:\n      dup1\n      iszero\n      tag_149\n      jumpi\n      dup1\n      0x1f\n      lt\n      tag_150\n      jumpi\n      0x0100\n      dup1\n      dup4\n      sload\n      div\n      mul\n      dup4\n      mstore\n      swap2\n      0x20\n      add\n      swap2\n      jump(tag_149)\n    tag_150:\n      dup3\n      add\n      swap2\n      swap1\n      0x00\n      mstore\n      keccak256(0x00, 0x20)\n      swap1\n    tag_151:\n      dup2\n      sload\n      dup2\n      mstore\n      swap1\n      0x01\n      add\n      swap1\n      0x20\n      add\n      dup1\n      dup4\n      gt\n      tag_151\n      jumpi\n      dup3\n      swap1\n      sub\n      0x1f\n      and\n      dup3\n      add\n      swap2\n    tag_149:\n      pop\n      pop\n      pop\n      pop\n      pop\n        /* \"contracts/forum.sol\":17271:17279  contents */\n      dup11\n        /* \"contracts/forum.sol\":17280:17281  i */\n      dup5\n        /* \"contracts/forum.sol\":17271:17282  contents[i] */\n      dup2\n      mload\n      dup2\n      lt\n      tag_152\n      jumpi\n      tag_153\n      tag_146\n      jump\t// in\n    tag_153:\n    tag_152:\n      0x20\n      mul\n      0x20\n      add\n      add\n        /* \"contracts/forum.sol\":17271:17300  contents[i] = comment.content */\n      dup2\n      swap1\n      mstore\n      pop\n        /* \"contracts/forum.sol\":17324:17331  comment */\n      dup1\n        /* \"contracts/forum.sol\":17324:17335  comment.tag */\n      0x02\n      add\n        /* \"contracts/forum.sol\":17314:17335  tags[i] = comment.tag */\n      dup1\n      sload\n      tag_154\n      swap1\n      tag_68\n      jump\t// in\n    tag_154:\n      dup1\n      0x1f\n      add\n      0x20\n      dup1\n      swap2\n      div\n      mul\n      0x20\n      add\n      mload(0x40)\n      swap1\n      dup2\n      add\n      0x40\n      mstore\n      dup1\n      swap3\n      swap2\n      swap1\n      dup2\n      dup2\n      mstore\n      0x20\n      add\n      dup3\n      dup1\n      sload\n      tag_155\n      swap1\n      tag_68\n      jump\t// in\n    tag_155:\n      dup1\n      iszero\n      tag_156\n      jumpi\n      dup1\n      0x1f\n      lt\n      tag_157\n      jumpi\n      0x0100\n      dup1\n      dup4\n      sload\n      div\n      mul\n      dup4\n      mstore\n      swap2\n      0x20\n      add\n      swap2\n      jump(tag_156)\n    tag_157:\n      dup3\n      add\n      swap2\n      swap1\n      0x00\n      mstore\n      keccak256(0x00, 0x20)\n      swap1\n    tag_158:\n      dup2\n      sload\n      dup2\n      mstore\n      swap1\n      0x01\n      add\n      swap1\n      0x20\n      add\n      dup1\n      dup4\n      gt\n      tag_158\n      jumpi\n      dup3\n      swap1\n      sub\n      0x1f\n      and\n      dup3\n      add\n      swap2\n    tag_156:\n      pop\n      pop\n      pop\n      pop\n      pop\n        /* \"contracts/forum.sol\":17314:17318  tags */\n      dup10\n        /* \"contracts/forum.sol\":17319:17320  i */\n      dup5\n        /* \"contracts/forum.sol\":17314:17321  tags[i] */\n      dup2\n      mload\n      dup2\n      lt\n      tag_159\n      jumpi\n      tag_160\n      tag_146\n      jump\t// in\n    tag_160:\n    tag_159:\n      0x20\n      mul\n      0x20\n      add\n      add\n        /* \"contracts/forum.sol\":17314:17335  tags[i] = comment.tag */\n      dup2\n      swap1\n      mstore\n      pop\n        /* \"contracts/forum.sol\":17365:17372  comment */\n      dup1\n        /* \"contracts/forum.sol\":17365:17382  comment.timestamp */\n      0x03\n      add\n      sload\n        /* \"contracts/forum.sol\":17349:17359  timestamps */\n      dup9\n        /* \"contracts/forum.sol\":17360:17361  i */\n      dup5\n        /* \"contracts/forum.sol\":17349:17362  timestamps[i] */\n      dup2\n      mload\n      dup2\n      lt\n      tag_161\n      jumpi\n      tag_162\n      tag_146\n      jump\t// in\n    tag_162:\n    tag_161:\n      0x20\n      mul\n      0x20\n      add\n      add\n        /* \"contracts/forum.sol\":17349:17382  timestamps[i] = comment.timestamp */\n      dup2\n      dup2\n      mstore\n      pop\n      pop\n        /* \"contracts/forum.sol\":17089:17393  {... */\n      pop\n      pop\n        /* \"contracts/forum.sol\":17084:17087  i++ */\n      dup1\n      dup1\n      tag_163\n      swap1\n      tag_91\n      jump\t// in\n    tag_163:\n      swap2\n      pop\n      pop\n        /* \"contracts/forum.sol\":17049:17393  for (uint256 i = 0; i < batchSize; i++) {... */\n      jump(tag_140)\n    tag_141:\n      pop\n        /* \"contracts/forum.sol\":17411:17467  return (authors, contents, tags, timestamps, totalCount) */\n      pop\n      pop\n      pop\n        /* \"contracts/forum.sol\":15668:17474  function getCommentsBatch(uint256 _postId, uint256 _startId, uint256 _batchSize) external view returns (... */\n    tag_97:\n      swap4\n      swap8\n      swap3\n      swap7\n      pop\n      swap4\n      pop\n      swap4\n      pop\n      jump\t// out\n        /* \"contracts/forum.sol\":13729:14327  function createPost(string memory _content, string memory _tag) external {... */\n    tag_42:\n        /* \"contracts/forum.sol\":13844:13853  postCount */\n      0x01\n      0x00\n        /* \"contracts/forum.sol\":13844:13855  postCount++ */\n      dup2\n      sload\n      dup1\n      swap3\n      swap2\n      swap1\n      tag_165\n      swap1\n      tag_91\n      jump\t// in\n    tag_165:\n      swap2\n      swap1\n      pop\n      sstore\n      pop\n        /* \"contracts/forum.sol\":13901:13921  Post storage newPost */\n      0x00\n        /* \"contracts/forum.sol\":13924:13929  posts */\n      dup1\n        /* \"contracts/forum.sol\":13924:13940  posts[postCount] */\n      0x00\n        /* \"contracts/forum.sol\":13930:13939  postCount */\n      sload(0x01)\n        /* \"contracts/forum.sol\":13924:13940  posts[postCount] */\n      dup2\n      mstore\n      0x20\n      add\n      swap1\n      dup2\n      mstore\n      0x20\n      add\n      0x00\n      keccak256\n        /* \"contracts/forum.sol\":13901:13940  Post storage newPost = posts[postCount] */\n      swap1\n      pop\n        /* \"contracts/forum.sol\":13967:13977  msg.sender */\n      caller\n        /* \"contracts/forum.sol\":13950:13957  newPost */\n      dup2\n        /* \"contracts/forum.sol\":13950:13964  newPost.author */\n      0x00\n      add\n      0x00\n        /* \"contracts/forum.sol\":13950:13977  newPost.author = msg.sender */\n      0x0100\n      exp\n      dup2\n      sload\n      dup2\n      0xffffffffffffffffffffffffffffffffffffffff\n      mul\n      not\n      and\n      swap1\n      dup4\n      0xffffffffffffffffffffffffffffffffffffffff\n      and\n      mul\n      or\n      swap1\n      sstore\n      pop\n        /* \"contracts/forum.sol\":14005:14013  _content */\n      dup3\n        /* \"contracts/forum.sol\":13987:13994  newPost */\n      dup2\n        /* \"contracts/forum.sol\":13987:14002  newPost.content */\n      0x01\n      add\n        /* \"contracts/forum.sol\":13987:14013  newPost.content = _content */\n      swap1\n      dup2\n      tag_166\n      swap2\n      swap1\n      tag_93\n      jump\t// in\n    tag_166:\n      pop\n        /* \"contracts/forum.sol\":14037:14041  _tag */\n      dup2\n        /* \"contracts/forum.sol\":14023:14030  newPost */\n      dup2\n        /* \"contracts/forum.sol\":14023:14034  newPost.tag */\n      0x02\n      add\n        /* \"contracts/forum.sol\":14023:14041  newPost.tag = _tag */\n      swap1\n      dup2\n      tag_167\n      swap2\n      swap1\n      tag_93\n      jump\t// in\n    tag_167:\n      pop\n        /* \"contracts/forum.sol\":14071:14086  block.timestamp */\n      timestamp\n        /* \"contracts/forum.sol\":14051:14058  newPost */\n      dup2\n        /* \"contracts/forum.sol\":14051:14068  newPost.timestamp */\n      0x03\n      add\n        /* \"contracts/forum.sol\":14051:14086  newPost.timestamp = block.timestamp */\n      dup2\n      swap1\n      sstore\n      pop\n        /* \"contracts/forum.sol\":14122:14127  false */\n      0x00\n        /* \"contracts/forum.sol\":14096:14103  newPost */\n      dup2\n        /* \"contracts/forum.sol\":14096:14119  newPost.isTagChallenged */\n      0x04\n      add\n      0x00\n        /* \"contracts/forum.sol\":14096:14127  newPost.isTagChallenged = false */\n      0x0100\n      exp\n      dup2\n      sload\n      dup2\n      0xff\n      mul\n      not\n      and\n      swap1\n      dup4\n      iszero\n      iszero\n      mul\n      or\n      swap1\n      sstore\n      pop\n        /* \"contracts/forum.sol\":14157:14158  0 */\n      0x00\n        /* \"contracts/forum.sol\":14137:14144  newPost */\n      dup2\n        /* \"contracts/forum.sol\":14137:14154  newPost.realVotes */\n      0x05\n      add\n        /* \"contracts/forum.sol\":14137:14158  newPost.realVotes = 0 */\n      dup2\n      swap1\n      sstore\n      pop\n        /* \"contracts/forum.sol\":14189:14190  0 */\n      0x00\n        /* \"contracts/forum.sol\":14168:14175  newPost */\n      dup2\n        /* \"contracts/forum.sol\":14168:14186  newPost.fakerVotes */\n      0x06\n      add\n        /* \"contracts/forum.sol\":14168:14190  newPost.fakerVotes = 0 */\n      dup2\n      swap1\n      sstore\n      pop\n        /* \"contracts/forum.sol\":14223:14224  0 */\n      0x00\n        /* \"contracts/forum.sol\":14200:14207  newPost */\n      dup2\n        /* \"contracts/forum.sol\":14200:14220  newPost.commentCount */\n      0x08\n      add\n        /* \"contracts/forum.sol\":14200:14224  newPost.commentCount = 0 */\n      dup2\n      swap1\n      sstore\n      pop\n        /* \"contracts/forum.sol\":14293:14303  msg.sender */\n      caller\n        /* \"contracts/forum.sol\":14270:14320  PostCreated(postCount, msg.sender, _tag, _content) */\n      0xffffffffffffffffffffffffffffffffffffffff\n      and\n        /* \"contracts/forum.sol\":14282:14291  postCount */\n      sload(0x01)\n        /* \"contracts/forum.sol\":14270:14320  PostCreated(postCount, msg.sender, _tag, _content) */\n      0x5475621b07408f75d49c828caa5aeacb3a5e98d3497e75730dc184677504401c\n        /* \"contracts/forum.sol\":14305:14309  _tag */\n      dup5\n        /* \"contracts/forum.sol\":14311:14319  _content */\n      dup7\n        /* \"contracts/forum.sol\":14270:14320  PostCreated(postCount, msg.sender, _tag, _content) */\n      mload(0x40)\n      tag_168\n      swap3\n      swap2\n      swap1\n      tag_96\n      jump\t// in\n    tag_168:\n      mload(0x40)\n      dup1\n      swap2\n      sub\n      swap1\n      log3\n        /* \"contracts/forum.sol\":13802:14327  {... */\n      pop\n        /* \"contracts/forum.sol\":13729:14327  function createPost(string memory _content, string memory _tag) external {... */\n      pop\n      pop\n      jump\t// out\n        /* \"contracts/forum.sol\":18800:19470  function getPost(uint256 _postId) external view returns (... */\n    tag_45:\n        /* \"contracts/forum.sol\":18866:18880  address author */\n      0x00\n        /* \"contracts/forum.sol\":18890:18911  string memory content */\n      0x60\n        /* \"contracts/forum.sol\":18921:18938  string memory tag */\n      dup1\n        /* \"contracts/forum.sol\":18948:18965  uint256 timestamp */\n      0x00\n        /* \"contracts/forum.sol\":18975:18995  bool isTagChallenged */\n      dup1\n        /* \"contracts/forum.sol\":19005:19022  uint256 realVotes */\n      0x00\n        /* \"contracts/forum.sol\":19032:19050  uint256 fakerVotes */\n      dup1\n        /* \"contracts/forum.sol\":19060:19080  uint256 commentCount */\n      0x00\n        /* \"contracts/forum.sol\":19115:19116  0 */\n      dup1\n        /* \"contracts/forum.sol\":19105:19112  _postId */\n      dup10\n        /* \"contracts/forum.sol\":19105:19116  _postId > 0 */\n      gt\n        /* \"contracts/forum.sol\":19105:19140  _postId > 0 && _postId <= postCount */\n      dup1\n      iszero\n      tag_170\n      jumpi\n      pop\n        /* \"contracts/forum.sol\":19131:19140  postCount */\n      sload(0x01)\n        /* \"contracts/forum.sol\":19120:19127  _postId */\n      dup10\n        /* \"contracts/forum.sol\":19120:19140  _postId <= postCount */\n      gt\n      iszero\n        /* \"contracts/forum.sol\":19105:19140  _postId > 0 && _postId <= postCount */\n    tag_170:\n        /* \"contracts/forum.sol\":19097:19160  require(_postId > 0 && _postId <= postCount, \"Invalid post ID\") */\n      tag_171\n      jumpi\n      mload(0x40)\n      0x08c379a000000000000000000000000000000000000000000000000000000000\n      dup2\n      mstore\n      0x04\n      add\n      tag_172\n      swap1\n      tag_82\n      jump\t// in\n    tag_172:\n      mload(0x40)\n      dup1\n      swap2\n      sub\n      swap1\n      revert\n    tag_171:\n        /* \"contracts/forum.sol\":19170:19187  Post storage post */\n      0x00\n        /* \"contracts/forum.sol\":19190:19195  posts */\n      dup1\n        /* \"contracts/forum.sol\":19190:19204  posts[_postId] */\n      0x00\n        /* \"contracts/forum.sol\":19196:19203  _postId */\n      dup12\n        /* \"contracts/forum.sol\":19190:19204  posts[_postId] */\n      dup2\n      mstore\n      0x20\n      add\n      swap1\n      dup2\n      mstore\n      0x20\n      add\n      0x00\n      keccak256\n        /* \"contracts/forum.sol\":19170:19204  Post storage post = posts[_postId] */\n      swap1\n      pop\n        /* \"contracts/forum.sol\":19244:19248  post */\n      dup1\n        /* \"contracts/forum.sol\":19244:19255  post.author */\n      0x00\n      add\n      0x00\n      swap1\n      sload\n      swap1\n      0x0100\n      exp\n      swap1\n      div\n      0xffffffffffffffffffffffffffffffffffffffff\n      and\n        /* \"contracts/forum.sol\":19269:19273  post */\n      dup2\n        /* \"contracts/forum.sol\":19269:19281  post.content */\n      0x01\n      add\n        /* \"contracts/forum.sol\":19295:19299  post */\n      dup3\n        /* \"contracts/forum.sol\":19295:19303  post.tag */\n      0x02\n      add\n        /* \"contracts/forum.sol\":19317:19321  post */\n      dup4\n        /* \"contracts/forum.sol\":19317:19331  post.timestamp */\n      0x03\n      add\n      sload\n        /* \"contracts/forum.sol\":19345:19349  post */\n      dup5\n        /* \"contracts/forum.sol\":19345:19365  post.isTagChallenged */\n      0x04\n      add\n      0x00\n      swap1\n      sload\n      swap1\n      0x0100\n      exp\n      swap1\n      div\n      0xff\n      and\n        /* \"contracts/forum.sol\":19379:19383  post */\n      dup6\n        /* \"contracts/forum.sol\":19379:19393  post.realVotes */\n      0x05\n      add\n      sload\n        /* \"contracts/forum.sol\":19407:19411  post */\n      dup7\n        /* \"contracts/forum.sol\":19407:19422  post.fakerVotes */\n      0x06\n      add\n      sload\n        /* \"contracts/forum.sol\":19436:19440  post */\n      dup8\n        /* \"contracts/forum.sol\":19436:19453  post.commentCount */\n      0x08\n      add\n      sload\n        /* \"contracts/forum.sol\":19223:19463  return (... */\n      dup7\n      dup1\n      sload\n      tag_173\n      swap1\n      tag_68\n      jump\t// in\n    tag_173:\n      dup1\n      0x1f\n      add\n      0x20\n      dup1\n      swap2\n      div\n      mul\n      0x20\n      add\n      mload(0x40)\n      swap1\n      dup2\n      add\n      0x40\n      mstore\n      dup1\n      swap3\n      swap2\n      swap1\n      dup2\n      dup2\n      mstore\n      0x20\n      add\n      dup3\n      dup1\n      sload\n      tag_174\n      swap1\n      tag_68\n      jump\t// in\n    tag_174:\n      dup1\n      iszero\n      tag_175\n      jumpi\n      dup1\n      0x1f\n      lt\n      tag_176\n      jumpi\n      0x0100\n      dup1\n      dup4\n      sload\n      div\n      mul\n      dup4\n      mstore\n      swap2\n      0x20\n      add\n      swap2\n      jump(tag_175)\n    tag_176:\n      dup3\n      add\n      swap2\n      swap1\n      0x00\n      mstore\n      keccak256(0x00, 0x20)\n      swap1\n    tag_177:\n      dup2\n      sload\n      dup2\n      mstore\n      swap1\n      0x01\n      add\n      swap1\n      0x20\n      add\n      dup1\n      dup4\n      gt\n      tag_177\n      jumpi\n      dup3\n      swap1\n      sub\n      0x1f\n      and\n      dup3\n      add\n      swap2\n    tag_175:\n      pop\n      pop\n      pop\n      pop\n      pop\n      swap7\n      pop\n      dup6\n      dup1\n      sload\n      tag_178\n      swap1\n      tag_68\n      jump\t// in\n    tag_178:\n      dup1\n      0x1f\n      add\n      0x20\n      dup1\n      swap2\n      div\n      mul\n      0x20\n      add\n      mload(0x40)\n      swap1\n      dup2\n      add\n      0x40\n      mstore\n      dup1\n      swap3\n      swap2\n      swap1\n      dup2\n      dup2\n      mstore\n      0x20\n      add\n      dup3\n      dup1\n      sload\n      tag_179\n      swap1\n      tag_68\n      jump\t// in\n    tag_179:\n      dup1\n      iszero\n      tag_180\n      jumpi\n      dup1\n      0x1f\n      lt\n      tag_181\n      jumpi\n      0x0100\n      dup1\n      dup4\n      sload\n      div\n      mul\n      dup4\n      mstore\n      swap2\n      0x20\n      add\n      swap2\n      jump(tag_180)\n    tag_181:\n      dup3\n      add\n      swap2\n      swap1\n      0x00\n      mstore\n      keccak256(0x00, 0x20)\n      swap1\n    tag_182:\n      dup2\n      sload\n      dup2\n      mstore\n      swap1\n      0x01\n      add\n      swap1\n      0x20\n      add\n      dup1\n      dup4\n      gt\n      tag_182\n      jumpi\n      dup3\n      swap1\n      sub\n      0x1f\n      and\n      dup3\n      add\n      swap2\n    tag_180:\n      pop\n      pop\n      pop\n      pop\n      pop\n      swap6\n      pop\n      swap9\n      pop\n      swap9\n      pop\n      swap9\n      pop\n      swap9\n      pop\n      swap9\n      pop\n      swap9\n      pop\n      swap9\n      pop\n      swap9\n      pop\n      pop\n        /* \"contracts/forum.sol\":18800:19470  function getPost(uint256 _postId) external view returns (... */\n      swap2\n      swap4\n      swap6\n      swap8\n      pop\n      swap2\n      swap4\n      swap6\n      swap8\n      jump\t// out\n        /* \"contracts/forum.sol\":19480:19688  function hasVoted(uint256 _postId, address _voter) external view returns (bool) {... */\n    tag_50:\n        /* \"contracts/forum.sol\":19554:19558  bool */\n      0x00\n        /* \"contracts/forum.sol\":19588:19589  0 */\n      dup1\n        /* \"contracts/forum.sol\":19578:19585  _postId */\n      dup4\n        /* \"contracts/forum.sol\":19578:19589  _postId > 0 */\n      gt\n        /* \"contracts/forum.sol\":19578:19613  _postId > 0 && _postId <= postCount */\n      dup1\n      iszero\n      tag_184\n      jumpi\n      pop\n        /* \"contracts/forum.sol\":19604:19613  postCount */\n      sload(0x01)\n        /* \"contracts/forum.sol\":19593:19600  _postId */\n      dup4\n        /* \"contracts/forum.sol\":19593:19613  _postId <= postCount */\n      gt\n      iszero\n        /* \"contracts/forum.sol\":19578:19613  _postId > 0 && _postId <= postCount */\n    tag_184:\n        /* \"contracts/forum.sol\":19570:19633  require(_postId > 0 && _postId <= postCount, \"Invalid post ID\") */\n      tag_185\n      jumpi\n      mload(0x40)\n      0x08c379a000000000000000000000000000000000000000000000000000000000\n      dup2\n      mstore\n      0x04\n      add\n      tag_186\n      swap1\n      tag_82\n      jump\t// in\n    tag_186:\n      mload(0x40)\n      dup1\n      swap2\n      sub\n      swap1\n      revert\n    tag_185:\n        /* \"contracts/forum.sol\":19650:19655  posts */\n      0x00\n        /* \"contracts/forum.sol\":19650:19664  posts[_postId] */\n      dup1\n        /* \"contracts/forum.sol\":19656:19663  _postId */\n      dup5\n        /* \"contracts/forum.sol\":19650:19664  posts[_postId] */\n      dup2\n      mstore\n      0x20\n      add\n      swap1\n      dup2\n      mstore\n      0x20\n      add\n      0x00\n      keccak256\n        /* \"contracts/forum.sol\":19650:19673  posts[_postId].hasVoted */\n      0x07\n      add\n        /* \"contracts/forum.sol\":19650:19681  posts[_postId].hasVoted[_voter] */\n      0x00\n        /* \"contracts/forum.sol\":19674:19680  _voter */\n      dup4\n        /* \"contracts/forum.sol\":19650:19681  posts[_postId].hasVoted[_voter] */\n      0xffffffffffffffffffffffffffffffffffffffff\n      and\n      0xffffffffffffffffffffffffffffffffffffffff\n      and\n      dup2\n      mstore\n      0x20\n      add\n      swap1\n      dup2\n      mstore\n      0x20\n      add\n      0x00\n      keccak256\n      0x00\n      swap1\n      sload\n      swap1\n      0x0100\n      exp\n      swap1\n      div\n      0xff\n      and\n        /* \"contracts/forum.sol\":19643:19681  return posts[_postId].hasVoted[_voter] */\n      swap1\n      pop\n        /* \"contracts/forum.sol\":19480:19688  function hasVoted(uint256 _postId, address _voter) external view returns (bool) {... */\n      swap3\n      swap2\n      pop\n      pop\n      jump\t// out\n        /* \"contracts/forum.sol\":15069:15658  function getComment(uint256 _postId, uint256 _commentId) external view returns (... */\n    tag_56:\n        /* \"contracts/forum.sol\":15158:15172  address author */\n      0x00\n        /* \"contracts/forum.sol\":15182:15203  string memory content */\n      0x60\n        /* \"contracts/forum.sol\":15213:15230  string memory tag */\n      dup1\n        /* \"contracts/forum.sol\":15240:15257  uint256 timestamp */\n      0x00\n        /* \"contracts/forum.sol\":15292:15293  0 */\n      dup1\n        /* \"contracts/forum.sol\":15282:15289  _postId */\n      dup7\n        /* \"contracts/forum.sol\":15282:15293  _postId > 0 */\n      gt\n        /* \"contracts/forum.sol\":15282:15317  _postId > 0 && _postId <= postCount */\n      dup1\n      iszero\n      tag_188\n      jumpi\n      pop\n        /* \"contracts/forum.sol\":15308:15317  postCount */\n      sload(0x01)\n        /* \"contracts/forum.sol\":15297:15304  _postId */\n      dup7\n        /* \"contracts/forum.sol\":15297:15317  _postId <= postCount */\n      gt\n      iszero\n        /* \"contracts/forum.sol\":15282:15317  _postId > 0 && _postId <= postCount */\n    tag_188:\n        /* \"contracts/forum.sol\":15274:15337  require(_postId > 0 && _postId <= postCount, \"Invalid post ID\") */\n      tag_189\n      jumpi\n      mload(0x40)\n      0x08c379a000000000000000000000000000000000000000000000000000000000\n      dup2\n      mstore\n      0x04\n      add\n      tag_190\n      swap1\n      tag_82\n      jump\t// in\n    tag_190:\n      mload(0x40)\n      dup1\n      swap2\n      sub\n      swap1\n      revert\n    tag_189:\n        /* \"contracts/forum.sol\":15368:15369  0 */\n      0x00\n        /* \"contracts/forum.sol\":15355:15365  _commentId */\n      dup6\n        /* \"contracts/forum.sol\":15355:15369  _commentId > 0 */\n      gt\n        /* \"contracts/forum.sol\":15355:15414  _commentId > 0 && _commentId <= posts[_postId].commentCount */\n      dup1\n      iszero\n      tag_191\n      jumpi\n      pop\n        /* \"contracts/forum.sol\":15387:15392  posts */\n      0x00\n        /* \"contracts/forum.sol\":15387:15401  posts[_postId] */\n      dup1\n        /* \"contracts/forum.sol\":15393:15400  _postId */\n      dup8\n        /* \"contracts/forum.sol\":15387:15401  posts[_postId] */\n      dup2\n      mstore\n      0x20\n      add\n      swap1\n      dup2\n      mstore\n      0x20\n      add\n      0x00\n      keccak256\n        /* \"contracts/forum.sol\":15387:15414  posts[_postId].commentCount */\n      0x08\n      add\n      sload\n        /* \"contracts/forum.sol\":15373:15383  _commentId */\n      dup6\n        /* \"contracts/forum.sol\":15373:15414  _commentId <= posts[_postId].commentCount */\n      gt\n      iszero\n        /* \"contracts/forum.sol\":15355:15414  _commentId > 0 && _commentId <= posts[_postId].commentCount */\n    tag_191:\n        /* \"contracts/forum.sol\":15347:15437  require(_commentId > 0 && _commentId <= posts[_postId].commentCount, \"Invalid comment ID\") */\n      tag_192\n      jumpi\n      mload(0x40)\n      0x08c379a000000000000000000000000000000000000000000000000000000000\n      dup2\n      mstore\n      0x04\n      add\n      tag_193\n      swap1\n      tag_194\n      jump\t// in\n    tag_193:\n      mload(0x40)\n      dup1\n      swap2\n      sub\n      swap1\n      revert\n    tag_192:\n        /* \"contracts/forum.sol\":15456:15479  Comment storage comment */\n      0x00\n        /* \"contracts/forum.sol\":15482:15490  comments */\n      0x02\n        /* \"contracts/forum.sol\":15482:15499  comments[_postId] */\n      0x00\n        /* \"contracts/forum.sol\":15491:15498  _postId */\n      dup9\n        /* \"contracts/forum.sol\":15482:15499  comments[_postId] */\n      dup2\n      mstore\n      0x20\n      add\n      swap1\n      dup2\n      mstore\n      0x20\n      add\n      0x00\n      keccak256\n        /* \"contracts/forum.sol\":15482:15511  comments[_postId][_commentId] */\n      0x00\n        /* \"contracts/forum.sol\":15500:15510  _commentId */\n      dup8\n        /* \"contracts/forum.sol\":15482:15511  comments[_postId][_commentId] */\n      dup2\n      mstore\n      0x20\n      add\n      swap1\n      dup2\n      mstore\n      0x20\n      add\n      0x00\n      keccak256\n        /* \"contracts/forum.sol\":15456:15511  Comment storage comment = comments[_postId][_commentId] */\n      swap1\n      pop\n        /* \"contracts/forum.sol\":15542:15549  comment */\n      dup1\n        /* \"contracts/forum.sol\":15542:15556  comment.author */\n      0x00\n      add\n      0x00\n      swap1\n      sload\n      swap1\n      0x0100\n      exp\n      swap1\n      div\n      0xffffffffffffffffffffffffffffffffffffffff\n      and\n        /* \"contracts/forum.sol\":15570:15577  comment */\n      dup2\n        /* \"contracts/forum.sol\":15570:15585  comment.content */\n      0x01\n      add\n        /* \"contracts/forum.sol\":15599:15606  comment */\n      dup3\n        /* \"contracts/forum.sol\":15599:15610  comment.tag */\n      0x02\n      add\n        /* \"contracts/forum.sol\":15624:15631  comment */\n      dup4\n        /* \"contracts/forum.sol\":15624:15641  comment.timestamp */\n      0x03\n      add\n      sload\n        /* \"contracts/forum.sol\":15521:15651  return (... */\n      dup3\n      dup1\n      sload\n      tag_195\n      swap1\n      tag_68\n      jump\t// in\n    tag_195:\n      dup1\n      0x1f\n      add\n      0x20\n      dup1\n      swap2\n      div\n      mul\n      0x20\n      add\n      mload(0x40)\n      swap1\n      dup2\n      add\n      0x40\n      mstore\n      dup1\n      swap3\n      swap2\n      swap1\n      dup2\n      dup2\n      mstore\n      0x20\n      add\n      dup3\n      dup1\n      sload\n      tag_196\n      swap1\n      tag_68\n      jump\t// in\n    tag_196:\n      dup1\n      iszero\n      tag_197\n      jumpi\n      dup1\n      0x1f\n      lt\n      tag_198\n      jumpi\n      0x0100\n      dup1\n      dup4\n      sload\n      div\n      mul\n      dup4\n      mstore\n      swap2\n      0x20\n      add\n      swap2\n      jump(tag_197)\n    tag_198:\n      dup3\n      add\n      swap2\n      swap1\n      0x00\n      mstore\n      keccak256(0x00, 0x20)\n      swap1\n    tag_199:\n      dup2\n      sload\n      dup2\n      mstore\n      swap1\n      0x01\n      add\n      swap1\n      0x20\n      add\n      dup1\n      dup4\n      gt\n      tag_199\n      jumpi\n      dup3\n      swap1\n      sub\n      0x1f\n      and\n      dup3\n      add\n      swap2\n    tag_197:\n      pop\n      pop\n      pop\n      pop\n      pop\n      swap3\n      pop\n      dup2\n      dup1\n      sload\n      tag_200\n      swap1\n      tag_68\n      jump\t// in\n    tag_200:\n      dup1\n      0x1f\n      add\n      0x20\n      dup1\n      swap2\n      div\n      mul\n      0x20\n      add\n      mload(0x40)\n      swap1\n      dup2\n      add\n      0x40\n      mstore\n      dup1\n      swap3\n      swap2\n      swap1\n      dup2\n      dup2\n      mstore\n      0x20\n      add\n      dup3\n      dup1\n      sload\n      tag_201\n      swap1\n      tag_68\n      jump\t// in\n    tag_201:\n      dup1\n      iszero\n      tag_202\n      jumpi\n      dup1\n      0x1f\n      lt\n      tag_203\n      jumpi\n      0x0100\n      dup1\n      dup4\n      sload\n      div\n      mul\n      dup4\n      mstore\n      swap2\n      0x20\n      add\n      swap2\n      jump(tag_202)\n    tag_203:\n      dup3\n      add\n      swap2\n      swap1\n      0x00\n      mstore\n      keccak256(0x00, 0x20)\n      swap1\n    tag_204:\n      dup2\n      sload\n      dup2\n      mstore\n      swap1\n      0x01\n      add\n      swap1\n      0x20\n      add\n      dup1\n      dup4\n      gt\n      tag_204\n      jumpi\n      dup3\n      swap1\n      sub\n      0x1f\n      and\n      dup3\n      add\n      swap2\n    tag_202:\n      pop\n      pop\n      pop\n      pop\n      pop\n      swap2\n      pop\n      swap5\n      pop\n      swap5\n      pop\n      swap5\n      pop\n      swap5\n      pop\n      pop\n        /* \"contracts/forum.sol\":15069:15658  function getComment(uint256 _postId, uint256 _commentId) external view returns (... */\n      swap3\n      swap6\n      swap2\n      swap5\n      pop\n      swap3\n      pop\n      jump\t// out\n        /* \"contracts/forum.sol\":17810:18636  function voteOnTag(uint256 _postId, bool _isRealVote) external {... */\n    tag_62:\n        /* \"contracts/forum.sol\":17901:17902  0 */\n      0x00\n        /* \"contracts/forum.sol\":17891:17898  _postId */\n      dup3\n        /* \"contracts/forum.sol\":17891:17902  _postId > 0 */\n      gt\n        /* \"contracts/forum.sol\":17891:17926  _postId > 0 && _postId <= postCount */\n      dup1\n      iszero\n      tag_206\n      jumpi\n      pop\n        /* \"contracts/forum.sol\":17917:17926  postCount */\n      sload(0x01)\n        /* \"contracts/forum.sol\":17906:17913  _postId */\n      dup3\n        /* \"contracts/forum.sol\":17906:17926  _postId <= postCount */\n      gt\n      iszero\n        /* \"contracts/forum.sol\":17891:17926  _postId > 0 && _postId <= postCount */\n    tag_206:\n        /* \"contracts/forum.sol\":17883:17946  require(_postId > 0 && _postId <= postCount, \"Invalid post ID\") */\n      tag_207\n      jumpi\n      mload(0x40)\n      0x08c379a000000000000000000000000000000000000000000000000000000000\n      dup2\n      mstore\n      0x04\n      add\n      tag_208\n      swap1\n      tag_82\n      jump\t// in\n    tag_208:\n      mload(0x40)\n      dup1\n      swap2\n      sub\n      swap1\n      revert\n    tag_207:\n        /* \"contracts/forum.sol\":17956:17973  Post storage post */\n      0x00\n        /* \"contracts/forum.sol\":17976:17981  posts */\n      dup1\n        /* \"contracts/forum.sol\":17976:17990  posts[_postId] */\n      0x00\n        /* \"contracts/forum.sol\":17982:17989  _postId */\n      dup5\n        /* \"contracts/forum.sol\":17976:17990  posts[_postId] */\n      dup2\n      mstore\n      0x20\n      add\n      swap1\n      dup2\n      mstore\n      0x20\n      add\n      0x00\n      keccak256\n        /* \"contracts/forum.sol\":17956:17990  Post storage post = posts[_postId] */\n      swap1\n      pop\n        /* \"contracts/forum.sol\":18032:18042  msg.sender */\n      caller\n        /* \"contracts/forum.sol\":18017:18042  post.author != msg.sender */\n      0xffffffffffffffffffffffffffffffffffffffff\n      and\n        /* \"contracts/forum.sol\":18017:18021  post */\n      dup2\n        /* \"contracts/forum.sol\":18017:18028  post.author */\n      0x00\n      add\n      0x00\n      swap1\n      sload\n      swap1\n      0x0100\n      exp\n      swap1\n      div\n      0xffffffffffffffffffffffffffffffffffffffff\n      and\n        /* \"contracts/forum.sol\":18017:18042  post.author != msg.sender */\n      0xffffffffffffffffffffffffffffffffffffffff\n      and\n      sub\n        /* \"contracts/forum.sol\":18009:18075  require(post.author != msg.sender, \"Cannot vote on your own post\") */\n      tag_209\n      jumpi\n      mload(0x40)\n      0x08c379a000000000000000000000000000000000000000000000000000000000\n      dup2\n      mstore\n      0x04\n      add\n      tag_210\n      swap1\n      tag_211\n      jump\t// in\n    tag_210:\n      mload(0x40)\n      dup1\n      swap2\n      sub\n      swap1\n      revert\n    tag_209:\n        /* \"contracts/forum.sol\":18094:18098  post */\n      dup1\n        /* \"contracts/forum.sol\":18094:18107  post.hasVoted */\n      0x07\n      add\n        /* \"contracts/forum.sol\":18094:18119  post.hasVoted[msg.sender] */\n      0x00\n        /* \"contracts/forum.sol\":18108:18118  msg.sender */\n      caller\n        /* \"contracts/forum.sol\":18094:18119  post.hasVoted[msg.sender] */\n      0xffffffffffffffffffffffffffffffffffffffff\n      and\n      0xffffffffffffffffffffffffffffffffffffffff\n      and\n      dup2\n      mstore\n      0x20\n      add\n      swap1\n      dup2\n      mstore\n      0x20\n      add\n      0x00\n      keccak256\n      0x00\n      swap1\n      sload\n      swap1\n      0x0100\n      exp\n      swap1\n      div\n      0xff\n      and\n        /* \"contracts/forum.sol\":18093:18119  !post.hasVoted[msg.sender] */\n      iszero\n        /* \"contracts/forum.sol\":18085:18137  require(!post.hasVoted[msg.sender], \"Already voted\") */\n      tag_212\n      jumpi\n      mload(0x40)\n      0x08c379a000000000000000000000000000000000000000000000000000000000\n      dup2\n      mstore\n      0x04\n      add\n      tag_213\n      swap1\n      tag_214\n      jump\t// in\n    tag_213:\n      mload(0x40)\n      dup1\n      swap2\n      sub\n      swap1\n      revert\n    tag_212:\n        /* \"contracts/forum.sol\":18218:18222  post */\n      dup1\n        /* \"contracts/forum.sol\":18218:18238  post.isTagChallenged */\n      0x04\n      add\n      0x00\n      swap1\n      sload\n      swap1\n      0x0100\n      exp\n      swap1\n      div\n      0xff\n      and\n        /* \"contracts/forum.sol\":18213:18389  if (!post.isTagChallenged) {... */\n      tag_215\n      jumpi\n        /* \"contracts/forum.sol\":18277:18281  true */\n      0x01\n        /* \"contracts/forum.sol\":18254:18258  post */\n      dup2\n        /* \"contracts/forum.sol\":18254:18274  post.isTagChallenged */\n      0x04\n      add\n      0x00\n        /* \"contracts/forum.sol\":18254:18281  post.isTagChallenged = true */\n      0x0100\n      exp\n      dup2\n      sload\n      dup2\n      0xff\n      mul\n      not\n      and\n      swap1\n      dup4\n      iszero\n      iszero\n      mul\n      or\n      swap1\n      sstore\n      pop\n        /* \"contracts/forum.sol\":18323:18333  msg.sender */\n      caller\n        /* \"contracts/forum.sol\":18300:18334  TagChallenged(_postId, msg.sender) */\n      0xffffffffffffffffffffffffffffffffffffffff\n      and\n        /* \"contracts/forum.sol\":18314:18321  _postId */\n      dup4\n        /* \"contracts/forum.sol\":18300:18334  TagChallenged(_postId, msg.sender) */\n      0xedc96ef82a3fd8ea664dd4fe50f94c77be3c3d6130792c3ed8b0199e3c28ec62\n      mload(0x40)\n      mload(0x40)\n      dup1\n      swap2\n      sub\n      swap1\n      log3\n        /* \"contracts/forum.sol\":18213:18389  if (!post.isTagChallenged) {... */\n    tag_215:\n        /* \"contracts/forum.sol\":18435:18439  true */\n      0x01\n        /* \"contracts/forum.sol\":18407:18411  post */\n      dup2\n        /* \"contracts/forum.sol\":18407:18420  post.hasVoted */\n      0x07\n      add\n        /* \"contracts/forum.sol\":18407:18432  post.hasVoted[msg.sender] */\n      0x00\n        /* \"contracts/forum.sol\":18421:18431  msg.sender */\n      caller\n        /* \"contracts/forum.sol\":18407:18432  post.hasVoted[msg.sender] */\n      0xffffffffffffffffffffffffffffffffffffffff\n      and\n      0xffffffffffffffffffffffffffffffffffffffff\n      and\n      dup2\n      mstore\n      0x20\n      add\n      swap1\n      dup2\n      mstore\n      0x20\n      add\n      0x00\n      keccak256\n      0x00\n        /* \"contracts/forum.sol\":18407:18439  post.hasVoted[msg.sender] = true */\n      0x0100\n      exp\n      dup2\n      sload\n      dup2\n      0xff\n      mul\n      not\n      and\n      swap1\n      dup4\n      iszero\n      iszero\n      mul\n      or\n      swap1\n      sstore\n      pop\n        /* \"contracts/forum.sol\":18462:18473  _isRealVote */\n      dup2\n        /* \"contracts/forum.sol\":18458:18564  if (_isRealVote) {... */\n      iszero\n      tag_216\n      jumpi\n        /* \"contracts/forum.sol\":18489:18493  post */\n      dup1\n        /* \"contracts/forum.sol\":18489:18503  post.realVotes */\n      0x05\n      add\n      0x00\n        /* \"contracts/forum.sol\":18489:18505  post.realVotes++ */\n      dup2\n      sload\n      dup1\n      swap3\n      swap2\n      swap1\n      tag_217\n      swap1\n      tag_91\n      jump\t// in\n    tag_217:\n      swap2\n      swap1\n      pop\n      sstore\n      pop\n        /* \"contracts/forum.sol\":18458:18564  if (_isRealVote) {... */\n      jump(tag_218)\n    tag_216:\n        /* \"contracts/forum.sol\":18536:18540  post */\n      dup1\n        /* \"contracts/forum.sol\":18536:18551  post.fakerVotes */\n      0x06\n      add\n      0x00\n        /* \"contracts/forum.sol\":18536:18553  post.fakerVotes++ */\n      dup2\n      sload\n      dup1\n      swap3\n      swap2\n      swap1\n      tag_219\n      swap1\n      tag_91\n      jump\t// in\n    tag_219:\n      swap2\n      swap1\n      pop\n      sstore\n      pop\n        /* \"contracts/forum.sol\":18458:18564  if (_isRealVote) {... */\n    tag_218:\n        /* \"contracts/forum.sol\":18605:18615  msg.sender */\n      caller\n        /* \"contracts/forum.sol\":18587:18629  VoteCast(_postId, msg.sender, _isRealVote) */\n      0xffffffffffffffffffffffffffffffffffffffff\n      and\n        /* \"contracts/forum.sol\":18596:18603  _postId */\n      dup4\n        /* \"contracts/forum.sol\":18587:18629  VoteCast(_postId, msg.sender, _isRealVote) */\n      0xe71fcdac32df1877c1700e7bda2a03157e20993363a28fc35ac495cefc76e4d4\n        /* \"contracts/forum.sol\":18617:18628  _isRealVote */\n      dup5\n        /* \"contracts/forum.sol\":18587:18629  VoteCast(_postId, msg.sender, _isRealVote) */\n      mload(0x40)\n      tag_220\n      swap2\n      swap1\n      tag_52\n      jump\t// in\n    tag_220:\n      mload(0x40)\n      dup1\n      swap2\n      sub\n      swap1\n      log3\n        /* \"contracts/forum.sol\":17873:18636  {... */\n      pop\n        /* \"contracts/forum.sol\":17810:18636  function voteOnTag(uint256 _postId, bool _isRealVote) external {... */\n      pop\n      pop\n      jump\t// out\n        /* \"contracts/forum.sol\":956:1019  mapping(uint256 => mapping(uint256 => Comment)) public comments */\n    tag_65:\n      mstore(0x20, 0x02)\n      dup2\n      0x00\n      mstore\n      mstore(0x20, keccak256(0x00, 0x40))\n      dup1\n      0x00\n      mstore\n      keccak256(0x00, 0x40)\n      0x00\n      swap2\n      pop\n      swap2\n      pop\n      pop\n      dup1\n      0x00\n      add\n      0x00\n      swap1\n      sload\n      swap1\n      0x0100\n      exp\n      swap1\n      div\n      0xffffffffffffffffffffffffffffffffffffffff\n      and\n      swap1\n      dup1\n      0x01\n      add\n      dup1\n      sload\n      tag_221\n      swap1\n      tag_68\n      jump\t// in\n    tag_221:\n      dup1\n      0x1f\n      add\n      0x20\n      dup1\n      swap2\n      div\n      mul\n      0x20\n      add\n      mload(0x40)\n      swap1\n      dup2\n      add\n      0x40\n      mstore\n      dup1\n      swap3\n      swap2\n      swap1\n      dup2\n      dup2\n      mstore\n      0x20\n      add\n      dup3\n      dup1\n      sload\n      tag_222\n      swap1\n      tag_68\n      jump\t// in\n    tag_222:\n      dup1\n      iszero\n      tag_223\n      jumpi\n      dup1\n      0x1f\n      lt\n      tag_224\n      jumpi\n      0x0100\n      dup1\n      dup4\n      sload\n      div\n      mul\n      dup4\n      mstore\n      swap2\n      0x20\n      add\n      swap2\n      jump(tag_223)\n    tag_224:\n      dup3\n      add\n      swap2\n      swap1\n      0x00\n      mstore\n      keccak256(0x00, 0x20)\n      swap1\n    tag_225:\n      dup2\n      sload\n      dup2\n      mstore\n      swap1\n      0x01\n      add\n      swap1\n      0x20\n      add\n      dup1\n      dup4\n      gt\n      tag_225\n      jumpi\n      dup3\n      swap1\n      sub\n      0x1f\n      and\n      dup3\n      add\n      swap2\n    tag_223:\n      pop\n      pop\n      pop\n      pop\n      pop\n      swap1\n      dup1\n      0x02\n      add\n      dup1\n      sload\n      tag_226\n      swap1\n      tag_68\n      jump\t// in\n    tag_226:\n      dup1\n      0x1f\n      add\n      0x20\n      dup1\n      swap2\n      div\n      mul\n      0x20\n      add\n      mload(0x40)\n      swap1\n      dup2\n      add\n      0x40\n      mstore\n      dup1\n      swap3\n      swap2\n      swap1\n      dup2\n      dup2\n      mstore\n      0x20\n      add\n      dup3\n      dup1\n      sload\n      tag_227\n      swap1\n      tag_68\n      jump\t// in\n    tag_227:\n      dup1\n      iszero\n      tag_228\n      jumpi\n      dup1\n      0x1f\n      lt\n      tag_229\n      jumpi\n      0x0100\n      dup1\n      dup4\n      sload\n      div\n      mul\n      dup4\n      mstore\n      swap2\n      0x20\n      add\n      swap2\n      jump(tag_228)\n    tag_229:\n      dup3\n      add\n      swap2\n      swap1\n      0x00\n      mstore\n      keccak256(0x00, 0x20)\n      swap1\n    tag_230:\n      dup2\n      sload\n      dup2\n      mstore\n      swap1\n      0x01\n      add\n      swap1\n      0x20\n      add\n      dup1\n      dup4\n      gt\n      tag_230\n      jumpi\n      dup3\n      swap1\n      sub\n      0x1f\n      and\n      dup3\n      add\n      swap2\n    tag_228:\n      pop\n      pop\n      pop\n      pop\n      pop\n      swap1\n      dup1\n      0x03\n      add\n      sload\n      swap1\n      pop\n      dup5\n      jump\t// out\n        /* \"#utility.yul\":7:82   */\n    tag_231:\n        /* \"#utility.yul\":40:46   */\n      0x00\n        /* \"#utility.yul\":73:75   */\n      0x40\n        /* \"#utility.yul\":67:76   */\n      mload\n        /* \"#utility.yul\":57:76   */\n      swap1\n      pop\n        /* \"#utility.yul\":7:82   */\n      swap1\n      jump\t// out\n        /* \"#utility.yul\":88:205   */\n    tag_232:\n        /* \"#utility.yul\":197:198   */\n      0x00\n        /* \"#utility.yul\":194:195   */\n      dup1\n        /* \"#utility.yul\":187:199   */\n      revert\n        /* \"#utility.yul\":211:328   */\n    tag_233:\n        /* \"#utility.yul\":320:321   */\n      0x00\n        /* \"#utility.yul\":317:318   */\n      dup1\n        /* \"#utility.yul\":310:322   */\n      revert\n        /* \"#utility.yul\":334:411   */\n    tag_234:\n        /* \"#utility.yul\":371:378   */\n      0x00\n        /* \"#utility.yul\":400:405   */\n      dup2\n        /* \"#utility.yul\":389:405   */\n      swap1\n      pop\n        /* \"#utility.yul\":334:411   */\n      swap2\n      swap1\n      pop\n      jump\t// out\n        /* \"#utility.yul\":417:539   */\n    tag_235:\n        /* \"#utility.yul\":490:514   */\n      tag_317\n        /* \"#utility.yul\":508:513   */\n      dup2\n        /* \"#utility.yul\":490:514   */\n      tag_234\n      jump\t// in\n    tag_317:\n        /* \"#utility.yul\":483:488   */\n      dup2\n        /* \"#utility.yul\":480:515   */\n      eq\n        /* \"#utility.yul\":470:533   */\n      tag_318\n      jumpi\n        /* \"#utility.yul\":529:530   */\n      0x00\n        /* \"#utility.yul\":526:527   */\n      dup1\n        /* \"#utility.yul\":519:531   */\n      revert\n        /* \"#utility.yul\":470:533   */\n    tag_318:\n        /* \"#utility.yul\":417:539   */\n      pop\n      jump\t// out\n        /* \"#utility.yul\":545:684   */\n    tag_236:\n        /* \"#utility.yul\":591:596   */\n      0x00\n        /* \"#utility.yul\":629:635   */\n      dup2\n        /* \"#utility.yul\":616:636   */\n      calldataload\n        /* \"#utility.yul\":607:636   */\n      swap1\n      pop\n        /* \"#utility.yul\":645:678   */\n      tag_320\n        /* \"#utility.yul\":672:677   */\n      dup2\n        /* \"#utility.yul\":645:678   */\n      tag_235\n      jump\t// in\n    tag_320:\n        /* \"#utility.yul\":545:684   */\n      swap3\n      swap2\n      pop\n      pop\n      jump\t// out\n        /* \"#utility.yul\":690:1019   */\n    tag_17:\n        /* \"#utility.yul\":749:755   */\n      0x00\n        /* \"#utility.yul\":798:800   */\n      0x20\n        /* \"#utility.yul\":786:795   */\n      dup3\n        /* \"#utility.yul\":777:784   */\n      dup5\n        /* \"#utility.yul\":773:796   */\n      sub\n        /* \"#utility.yul\":769:801   */\n      slt\n        /* \"#utility.yul\":766:885   */\n      iszero\n      tag_322\n      jumpi\n        /* \"#utility.yul\":804:883   */\n      tag_323\n      tag_232\n      jump\t// in\n    tag_323:\n        /* \"#utility.yul\":766:885   */\n    tag_322:\n        /* \"#utility.yul\":924:925   */\n      0x00\n        /* \"#utility.yul\":949:1002   */\n      tag_324\n        /* \"#utility.yul\":994:1001   */\n      dup5\n        /* \"#utility.yul\":985:991   */\n      dup3\n        /* \"#utility.yul\":974:983   */\n      dup6\n        /* \"#utility.yul\":970:992   */\n      add\n        /* \"#utility.yul\":949:1002   */\n      tag_236\n      jump\t// in\n    tag_324:\n        /* \"#utility.yul\":939:1002   */\n      swap2\n      pop\n        /* \"#utility.yul\":895:1012   */\n      pop\n        /* \"#utility.yul\":690:1019   */\n      swap3\n      swap2\n      pop\n      pop\n      jump\t// out\n        /* \"#utility.yul\":1025:1151   */\n    tag_237:\n        /* \"#utility.yul\":1062:1069   */\n      0x00\n        /* \"#utility.yul\":1102:1144   */\n      0xffffffffffffffffffffffffffffffffffffffff\n        /* \"#utility.yul\":1095:1100   */\n      dup3\n        /* \"#utility.yul\":1091:1145   */\n      and\n        /* \"#utility.yul\":1080:1145   */\n      swap1\n      pop\n        /* \"#utility.yul\":1025:1151   */\n      swap2\n      swap1\n      pop\n      jump\t// out\n        /* \"#utility.yul\":1157:1253   */\n    tag_238:\n        /* \"#utility.yul\":1194:1201   */\n      0x00\n        /* \"#utility.yul\":1223:1247   */\n      tag_327\n        /* \"#utility.yul\":1241:1246   */\n      dup3\n        /* \"#utility.yul\":1223:1247   */\n      tag_237\n      jump\t// in\n    tag_327:\n        /* \"#utility.yul\":1212:1247   */\n      swap1\n      pop\n        /* \"#utility.yul\":1157:1253   */\n      swap2\n      swap1\n      pop\n      jump\t// out\n        /* \"#utility.yul\":1259:1377   */\n    tag_239:\n        /* \"#utility.yul\":1346:1370   */\n      tag_329\n        /* \"#utility.yul\":1364:1369   */\n      dup2\n        /* \"#utility.yul\":1346:1370   */\n      tag_238\n      jump\t// in\n    tag_329:\n        /* \"#utility.yul\":1341:1344   */\n      dup3\n        /* \"#utility.yul\":1334:1371   */\n      mstore\n        /* \"#utility.yul\":1259:1377   */\n      pop\n      pop\n      jump\t// out\n        /* \"#utility.yul\":1383:1482   */\n    tag_240:\n        /* \"#utility.yul\":1435:1441   */\n      0x00\n        /* \"#utility.yul\":1469:1474   */\n      dup2\n        /* \"#utility.yul\":1463:1475   */\n      mload\n        /* \"#utility.yul\":1453:1475   */\n      swap1\n      pop\n        /* \"#utility.yul\":1383:1482   */\n      swap2\n      swap1\n      pop\n      jump\t// out\n        /* \"#utility.yul\":1488:1657   */\n    tag_241:\n        /* \"#utility.yul\":1572:1583   */\n      0x00\n        /* \"#utility.yul\":1606:1612   */\n      dup3\n        /* \"#utility.yul\":1601:1604   */\n      dup3\n        /* \"#utility.yul\":1594:1613   */\n      mstore\n        /* \"#utility.yul\":1646:1650   */\n      0x20\n        /* \"#utility.yul\":1641:1644   */\n      dup3\n        /* \"#utility.yul\":1637:1651   */\n      add\n        /* \"#utility.yul\":1622:1651   */\n      swap1\n      pop\n        /* \"#utility.yul\":1488:1657   */\n      swap3\n      swap2\n      pop\n      pop\n      jump\t// out\n        /* \"#utility.yul\":1663:1909   */\n    tag_242:\n        /* \"#utility.yul\":1744:1745   */\n      0x00\n        /* \"#utility.yul\":1754:1867   */\n    tag_333:\n        /* \"#utility.yul\":1768:1774   */\n      dup4\n        /* \"#utility.yul\":1765:1766   */\n      dup2\n        /* \"#utility.yul\":1762:1775   */\n      lt\n        /* \"#utility.yul\":1754:1867   */\n      iszero\n      tag_335\n      jumpi\n        /* \"#utility.yul\":1853:1854   */\n      dup1\n        /* \"#utility.yul\":1848:1851   */\n      dup3\n        /* \"#utility.yul\":1844:1855   */\n      add\n        /* \"#utility.yul\":1838:1856   */\n      mload\n        /* \"#utility.yul\":1834:1835   */\n      dup2\n        /* \"#utility.yul\":1829:1832   */\n      dup5\n        /* \"#utility.yul\":1825:1836   */\n      add\n        /* \"#utility.yul\":1818:1857   */\n      mstore\n        /* \"#utility.yul\":1790:1792   */\n      0x20\n        /* \"#utility.yul\":1787:1788   */\n      dup2\n        /* \"#utility.yul\":1783:1793   */\n      add\n        /* \"#utility.yul\":1778:1793   */\n      swap1\n      pop\n        /* \"#utility.yul\":1754:1867   */\n      jump(tag_333)\n    tag_335:\n        /* \"#utility.yul\":1901:1902   */\n      0x00\n        /* \"#utility.yul\":1892:1898   */\n      dup5\n        /* \"#utility.yul\":1887:1890   */\n      dup5\n        /* \"#utility.yul\":1883:1899   */\n      add\n        /* \"#utility.yul\":1876:1903   */\n      mstore\n        /* \"#utility.yul\":1725:1909   */\n      pop\n        /* \"#utility.yul\":1663:1909   */\n      pop\n      pop\n      pop\n      jump\t// out\n        /* \"#utility.yul\":1915:2017   */\n    tag_243:\n        /* \"#utility.yul\":1956:1962   */\n      0x00\n        /* \"#utility.yul\":2007:2009   */\n      0x1f\n        /* \"#utility.yul\":2003:2010   */\n      not\n        /* \"#utility.yul\":1998:2000   */\n      0x1f\n        /* \"#utility.yul\":1991:1996   */\n      dup4\n        /* \"#utility.yul\":1987:2001   */\n      add\n        /* \"#utility.yul\":1983:2011   */\n      and\n        /* \"#utility.yul\":1973:2011   */\n      swap1\n      pop\n        /* \"#utility.yul\":1915:2017   */\n      swap2\n      swap1\n      pop\n      jump\t// out\n        /* \"#utility.yul\":2023:2400   */\n    tag_244:\n        /* \"#utility.yul\":2111:2114   */\n      0x00\n        /* \"#utility.yul\":2139:2178   */\n      tag_338\n        /* \"#utility.yul\":2172:2177   */\n      dup3\n        /* \"#utility.yul\":2139:2178   */\n      tag_240\n      jump\t// in\n    tag_338:\n        /* \"#utility.yul\":2194:2265   */\n      tag_339\n        /* \"#utility.yul\":2258:2264   */\n      dup2\n        /* \"#utility.yul\":2253:2256   */\n      dup6\n        /* \"#utility.yul\":2194:2265   */\n      tag_241\n      jump\t// in\n    tag_339:\n        /* \"#utility.yul\":2187:2265   */\n      swap4\n      pop\n        /* \"#utility.yul\":2274:2339   */\n      tag_340\n        /* \"#utility.yul\":2332:2338   */\n      dup2\n        /* \"#utility.yul\":2327:2330   */\n      dup6\n        /* \"#utility.yul\":2320:2324   */\n      0x20\n        /* \"#utility.yul\":2313:2318   */\n      dup7\n        /* \"#utility.yul\":2309:2325   */\n      add\n        /* \"#utility.yul\":2274:2339   */\n      tag_242\n      jump\t// in\n    tag_340:\n        /* \"#utility.yul\":2364:2393   */\n      tag_341\n        /* \"#utility.yul\":2386:2392   */\n      dup2\n        /* \"#utility.yul\":2364:2393   */\n      tag_243\n      jump\t// in\n    tag_341:\n        /* \"#utility.yul\":2359:2362   */\n      dup5\n        /* \"#utility.yul\":2355:2394   */\n      add\n        /* \"#utility.yul\":2348:2394   */\n      swap2\n      pop\n        /* \"#utility.yul\":2115:2400   */\n      pop\n        /* \"#utility.yul\":2023:2400   */\n      swap3\n      swap2\n      pop\n      pop\n      jump\t// out\n        /* \"#utility.yul\":2406:2524   */\n    tag_245:\n        /* \"#utility.yul\":2493:2517   */\n      tag_343\n        /* \"#utility.yul\":2511:2516   */\n      dup2\n        /* \"#utility.yul\":2493:2517   */\n      tag_234\n      jump\t// in\n    tag_343:\n        /* \"#utility.yul\":2488:2491   */\n      dup3\n        /* \"#utility.yul\":2481:2518   */\n      mstore\n        /* \"#utility.yul\":2406:2524   */\n      pop\n      pop\n      jump\t// out\n        /* \"#utility.yul\":2530:2620   */\n    tag_246:\n        /* \"#utility.yul\":2564:2571   */\n      0x00\n        /* \"#utility.yul\":2607:2612   */\n      dup2\n        /* \"#utility.yul\":2600:2613   */\n      iszero\n        /* \"#utility.yul\":2593:2614   */\n      iszero\n        /* \"#utility.yul\":2582:2614   */\n      swap1\n      pop\n        /* \"#utility.yul\":2530:2620   */\n      swap2\n      swap1\n      pop\n      jump\t// out\n        /* \"#utility.yul\":2626:2735   */\n    tag_247:\n        /* \"#utility.yul\":2707:2728   */\n      tag_346\n        /* \"#utility.yul\":2722:2727   */\n      dup2\n        /* \"#utility.yul\":2707:2728   */\n      tag_246\n      jump\t// in\n    tag_346:\n        /* \"#utility.yul\":2702:2705   */\n      dup3\n        /* \"#utility.yul\":2695:2729   */\n      mstore\n        /* \"#utility.yul\":2626:2735   */\n      pop\n      pop\n      jump\t// out\n        /* \"#utility.yul\":2741:3908   */\n    tag_20:\n        /* \"#utility.yul\":3064:3068   */\n      0x00\n        /* \"#utility.yul\":3102:3105   */\n      0x0100\n        /* \"#utility.yul\":3091:3100   */\n      dup3\n        /* \"#utility.yul\":3087:3106   */\n      add\n        /* \"#utility.yul\":3079:3106   */\n      swap1\n      pop\n        /* \"#utility.yul\":3116:3187   */\n      tag_348\n        /* \"#utility.yul\":3184:3185   */\n      0x00\n        /* \"#utility.yul\":3173:3182   */\n      dup4\n        /* \"#utility.yul\":3169:3186   */\n      add\n        /* \"#utility.yul\":3160:3166   */\n      dup12\n        /* \"#utility.yul\":3116:3187   */\n      tag_239\n      jump\t// in\n    tag_348:\n        /* \"#utility.yul\":3234:3243   */\n      dup2\n        /* \"#utility.yul\":3228:3232   */\n      dup2\n        /* \"#utility.yul\":3224:3244   */\n      sub\n        /* \"#utility.yul\":3219:3221   */\n      0x20\n        /* \"#utility.yul\":3208:3217   */\n      dup4\n        /* \"#utility.yul\":3204:3222   */\n      add\n        /* \"#utility.yul\":3197:3245   */\n      mstore\n        /* \"#utility.yul\":3262:3340   */\n      tag_349\n        /* \"#utility.yul\":3335:3339   */\n      dup2\n        /* \"#utility.yul\":3326:3332   */\n      dup11\n        /* \"#utility.yul\":3262:3340   */\n      tag_244\n      jump\t// in\n    tag_349:\n        /* \"#utility.yul\":3254:3340   */\n      swap1\n      pop\n        /* \"#utility.yul\":3387:3396   */\n      dup2\n        /* \"#utility.yul\":3381:3385   */\n      dup2\n        /* \"#utility.yul\":3377:3397   */\n      sub\n        /* \"#utility.yul\":3372:3374   */\n      0x40\n        /* \"#utility.yul\":3361:3370   */\n      dup4\n        /* \"#utility.yul\":3357:3375   */\n      add\n        /* \"#utility.yul\":3350:3398   */\n      mstore\n        /* \"#utility.yul\":3415:3493   */\n      tag_350\n        /* \"#utility.yul\":3488:3492   */\n      dup2\n        /* \"#utility.yul\":3479:3485   */\n      dup10\n        /* \"#utility.yul\":3415:3493   */\n      tag_244\n      jump\t// in\n    tag_350:\n        /* \"#utility.yul\":3407:3493   */\n      swap1\n      pop\n        /* \"#utility.yul\":3503:3575   */\n      tag_351\n        /* \"#utility.yul\":3571:3573   */\n      0x60\n        /* \"#utility.yul\":3560:3569   */\n      dup4\n        /* \"#utility.yul\":3556:3574   */\n      add\n        /* \"#utility.yul\":3547:3553   */\n      dup9\n        /* \"#utility.yul\":3503:3575   */\n      tag_245\n      jump\t// in\n    tag_351:\n        /* \"#utility.yul\":3585:3652   */\n      tag_352\n        /* \"#utility.yul\":3647:3650   */\n      0x80\n        /* \"#utility.yul\":3636:3645   */\n      dup4\n        /* \"#utility.yul\":3632:3651   */\n      add\n        /* \"#utility.yul\":3623:3629   */\n      dup8\n        /* \"#utility.yul\":3585:3652   */\n      tag_247\n      jump\t// in\n    tag_352:\n        /* \"#utility.yul\":3662:3735   */\n      tag_353\n        /* \"#utility.yul\":3730:3733   */\n      0xa0\n        /* \"#utility.yul\":3719:3728   */\n      dup4\n        /* \"#utility.yul\":3715:3734   */\n      add\n        /* \"#utility.yul\":3706:3712   */\n      dup7\n        /* \"#utility.yul\":3662:3735   */\n      tag_245\n      jump\t// in\n    tag_353:\n        /* \"#utility.yul\":3745:3818   */\n      tag_354\n        /* \"#utility.yul\":3813:3816   */\n      0xc0\n        /* \"#utility.yul\":3802:3811   */\n      dup4\n        /* \"#utility.yul\":3798:3817   */\n      add\n        /* \"#utility.yul\":3789:3795   */\n      dup6\n        /* \"#utility.yul\":3745:3818   */\n      tag_245\n      jump\t// in\n    tag_354:\n        /* \"#utility.yul\":3828:3901   */\n      tag_355\n        /* \"#utility.yul\":3896:3899   */\n      0xe0\n        /* \"#utility.yul\":3885:3894   */\n      dup4\n        /* \"#utility.yul\":3881:3900   */\n      add\n        /* \"#utility.yul\":3872:3878   */\n      dup5\n        /* \"#utility.yul\":3828:3901   */\n      tag_245\n      jump\t// in\n    tag_355:\n        /* \"#utility.yul\":2741:3908   */\n      swap10\n      swap9\n      pop\n      pop\n      pop\n      pop\n      pop\n      pop\n      pop\n      pop\n      pop\n      jump\t// out\n        /* \"#utility.yul\":3914:4136   */\n    tag_25:\n        /* \"#utility.yul\":4007:4011   */\n      0x00\n        /* \"#utility.yul\":4045:4047   */\n      0x20\n        /* \"#utility.yul\":4034:4043   */\n      dup3\n        /* \"#utility.yul\":4030:4048   */\n      add\n        /* \"#utility.yul\":4022:4048   */\n      swap1\n      pop\n        /* \"#utility.yul\":4058:4129   */\n      tag_357\n        /* \"#utility.yul\":4126:4127   */\n      0x00\n        /* \"#utility.yul\":4115:4124   */\n      dup4\n        /* \"#utility.yul\":4111:4128   */\n      add\n        /* \"#utility.yul\":4102:4108   */\n      dup5\n        /* \"#utility.yul\":4058:4129   */\n      tag_245\n      jump\t// in\n    tag_357:\n        /* \"#utility.yul\":3914:4136   */\n      swap3\n      swap2\n      pop\n      pop\n      jump\t// out\n        /* \"#utility.yul\":4142:4259   */\n    tag_248:\n        /* \"#utility.yul\":4251:4252   */\n      0x00\n        /* \"#utility.yul\":4248:4249   */\n      dup1\n        /* \"#utility.yul\":4241:4253   */\n      revert\n        /* \"#utility.yul\":4265:4382   */\n    tag_249:\n        /* \"#utility.yul\":4374:4375   */\n      0x00\n        /* \"#utility.yul\":4371:4372   */\n      dup1\n        /* \"#utility.yul\":4364:4376   */\n      revert\n        /* \"#utility.yul\":4388:4568   */\n    tag_107:\n        /* \"#utility.yul\":4436:4513   */\n      0x4e487b7100000000000000000000000000000000000000000000000000000000\n        /* \"#utility.yul\":4433:4434   */\n      0x00\n        /* \"#utility.yul\":4426:4514   */\n      mstore\n        /* \"#utility.yul\":4533:4537   */\n      0x41\n        /* \"#utility.yul\":4530:4531   */\n      0x04\n        /* \"#utility.yul\":4523:4538   */\n      mstore\n        /* \"#utility.yul\":4557:4561   */\n      0x24\n        /* \"#utility.yul\":4554:4555   */\n      0x00\n        /* \"#utility.yul\":4547:4562   */\n      revert\n        /* \"#utility.yul\":4574:4855   */\n    tag_250:\n        /* \"#utility.yul\":4657:4684   */\n      tag_362\n        /* \"#utility.yul\":4679:4683   */\n      dup3\n        /* \"#utility.yul\":4657:4684   */\n      tag_243\n      jump\t// in\n    tag_362:\n        /* \"#utility.yul\":4649:4655   */\n      dup2\n        /* \"#utility.yul\":4645:4685   */\n      add\n        /* \"#utility.yul\":4787:4793   */\n      dup2\n        /* \"#utility.yul\":4775:4785   */\n      dup2\n        /* \"#utility.yul\":4772:4794   */\n      lt\n        /* \"#utility.yul\":4751:4769   */\n      0xffffffffffffffff\n        /* \"#utility.yul\":4739:4749   */\n      dup3\n        /* \"#utility.yul\":4736:4770   */\n      gt\n        /* \"#utility.yul\":4733:4795   */\n      or\n        /* \"#utility.yul\":4730:4818   */\n      iszero\n      tag_363\n      jumpi\n        /* \"#utility.yul\":4798:4816   */\n      tag_364\n      tag_107\n      jump\t// in\n    tag_364:\n        /* \"#utility.yul\":4730:4818   */\n    tag_363:\n        /* \"#utility.yul\":4838:4848   */\n      dup1\n        /* \"#utility.yul\":4834:4836   */\n      0x40\n        /* \"#utility.yul\":4827:4849   */\n      mstore\n        /* \"#utility.yul\":4617:4855   */\n      pop\n        /* \"#utility.yul\":4574:4855   */\n      pop\n      pop\n      jump\t// out\n        /* \"#utility.yul\":4861:4990   */\n    tag_251:\n        /* \"#utility.yul\":4895:4901   */\n      0x00\n        /* \"#utility.yul\":4922:4942   */\n      tag_366\n      tag_231\n      jump\t// in\n    tag_366:\n        /* \"#utility.yul\":4912:4942   */\n      swap1\n      pop\n        /* \"#utility.yul\":4951:4984   */\n      tag_367\n        /* \"#utility.yul\":4979:4983   */\n      dup3\n        /* \"#utility.yul\":4971:4977   */\n      dup3\n        /* \"#utility.yul\":4951:4984   */\n      tag_250\n      jump\t// in\n    tag_367:\n        /* \"#utility.yul\":4861:4990   */\n      swap2\n      swap1\n      pop\n      jump\t// out\n        /* \"#utility.yul\":4996:5304   */\n    tag_252:\n        /* \"#utility.yul\":5058:5062   */\n      0x00\n        /* \"#utility.yul\":5148:5166   */\n      0xffffffffffffffff\n        /* \"#utility.yul\":5140:5146   */\n      dup3\n        /* \"#utility.yul\":5137:5167   */\n      gt\n        /* \"#utility.yul\":5134:5190   */\n      iszero\n      tag_369\n      jumpi\n        /* \"#utility.yul\":5170:5188   */\n      tag_370\n      tag_107\n      jump\t// in\n    tag_370:\n        /* \"#utility.yul\":5134:5190   */\n    tag_369:\n        /* \"#utility.yul\":5208:5237   */\n      tag_371\n        /* \"#utility.yul\":5230:5236   */\n      dup3\n        /* \"#utility.yul\":5208:5237   */\n      tag_243\n      jump\t// in\n    tag_371:\n        /* \"#utility.yul\":5200:5237   */\n      swap1\n      pop\n        /* \"#utility.yul\":5292:5296   */\n      0x20\n        /* \"#utility.yul\":5286:5290   */\n      dup2\n        /* \"#utility.yul\":5282:5297   */\n      add\n        /* \"#utility.yul\":5274:5297   */\n      swap1\n      pop\n        /* \"#utility.yul\":4996:5304   */\n      swap2\n      swap1\n      pop\n      jump\t// out\n        /* \"#utility.yul\":5310:5456   */\n    tag_253:\n        /* \"#utility.yul\":5407:5413   */\n      dup3\n        /* \"#utility.yul\":5402:5405   */\n      dup2\n        /* \"#utility.yul\":5397:5400   */\n      dup4\n        /* \"#utility.yul\":5384:5414   */\n      calldatacopy\n        /* \"#utility.yul\":5448:5449   */\n      0x00\n        /* \"#utility.yul\":5439:5445   */\n      dup4\n        /* \"#utility.yul\":5434:5437   */\n      dup4\n        /* \"#utility.yul\":5430:5446   */\n      add\n        /* \"#utility.yul\":5423:5450   */\n      mstore\n        /* \"#utility.yul\":5310:5456   */\n      pop\n      pop\n      pop\n      jump\t// out\n        /* \"#utility.yul\":5462:5887   */\n    tag_254:\n        /* \"#utility.yul\":5540:5545   */\n      0x00\n        /* \"#utility.yul\":5565:5631   */\n      tag_374\n        /* \"#utility.yul\":5581:5630   */\n      tag_375\n        /* \"#utility.yul\":5623:5629   */\n      dup5\n        /* \"#utility.yul\":5581:5630   */\n      tag_252\n      jump\t// in\n    tag_375:\n        /* \"#utility.yul\":5565:5631   */\n      tag_251\n      jump\t// in\n    tag_374:\n        /* \"#utility.yul\":5556:5631   */\n      swap1\n      pop\n        /* \"#utility.yul\":5654:5660   */\n      dup3\n        /* \"#utility.yul\":5647:5652   */\n      dup2\n        /* \"#utility.yul\":5640:5661   */\n      mstore\n        /* \"#utility.yul\":5692:5696   */\n      0x20\n        /* \"#utility.yul\":5685:5690   */\n      dup2\n        /* \"#utility.yul\":5681:5697   */\n      add\n        /* \"#utility.yul\":5730:5733   */\n      dup5\n        /* \"#utility.yul\":5721:5727   */\n      dup5\n        /* \"#utility.yul\":5716:5719   */\n      dup5\n        /* \"#utility.yul\":5712:5728   */\n      add\n        /* \"#utility.yul\":5709:5734   */\n      gt\n        /* \"#utility.yul\":5706:5818   */\n      iszero\n      tag_376\n      jumpi\n        /* \"#utility.yul\":5737:5816   */\n      tag_377\n      tag_249\n      jump\t// in\n    tag_377:\n        /* \"#utility.yul\":5706:5818   */\n    tag_376:\n        /* \"#utility.yul\":5827:5881   */\n      tag_378\n        /* \"#utility.yul\":5874:5880   */\n      dup5\n        /* \"#utility.yul\":5869:5872   */\n      dup3\n        /* \"#utility.yul\":5864:5867   */\n      dup6\n        /* \"#utility.yul\":5827:5881   */\n      tag_253\n      jump\t// in\n    tag_378:\n        /* \"#utility.yul\":5546:5887   */\n      pop\n        /* \"#utility.yul\":5462:5887   */\n      swap4\n      swap3\n      pop\n      pop\n      pop\n      jump\t// out\n        /* \"#utility.yul\":5907:6247   */\n    tag_255:\n        /* \"#utility.yul\":5963:5968   */\n      0x00\n        /* \"#utility.yul\":6012:6015   */\n      dup3\n        /* \"#utility.yul\":6005:6009   */\n      0x1f\n        /* \"#utility.yul\":5997:6003   */\n      dup4\n        /* \"#utility.yul\":5993:6010   */\n      add\n        /* \"#utility.yul\":5989:6016   */\n      slt\n        /* \"#utility.yul\":5979:6101   */\n      tag_380\n      jumpi\n        /* \"#utility.yul\":6020:6099   */\n      tag_381\n      tag_248\n      jump\t// in\n    tag_381:\n        /* \"#utility.yul\":5979:6101   */\n    tag_380:\n        /* \"#utility.yul\":6137:6143   */\n      dup2\n        /* \"#utility.yul\":6124:6144   */\n      calldataload\n        /* \"#utility.yul\":6162:6241   */\n      tag_382\n        /* \"#utility.yul\":6237:6240   */\n      dup5\n        /* \"#utility.yul\":6229:6235   */\n      dup3\n        /* \"#utility.yul\":6222:6226   */\n      0x20\n        /* \"#utility.yul\":6214:6220   */\n      dup7\n        /* \"#utility.yul\":6210:6227   */\n      add\n        /* \"#utility.yul\":6162:6241   */\n      tag_254\n      jump\t// in\n    tag_382:\n        /* \"#utility.yul\":6153:6241   */\n      swap2\n      pop\n        /* \"#utility.yul\":5969:6247   */\n      pop\n        /* \"#utility.yul\":5907:6247   */\n      swap3\n      swap2\n      pop\n      pop\n      jump\t// out\n        /* \"#utility.yul\":6253:7232   */\n    tag_28:\n        /* \"#utility.yul\":6350:6356   */\n      0x00\n        /* \"#utility.yul\":6358:6364   */\n      dup1\n        /* \"#utility.yul\":6366:6372   */\n      0x00\n        /* \"#utility.yul\":6415:6417   */\n      0x60\n        /* \"#utility.yul\":6403:6412   */\n      dup5\n        /* \"#utility.yul\":6394:6401   */\n      dup7\n        /* \"#utility.yul\":6390:6413   */\n      sub\n        /* \"#utility.yul\":6386:6418   */\n      slt\n        /* \"#utility.yul\":6383:6502   */\n      iszero\n      tag_384\n      jumpi\n        /* \"#utility.yul\":6421:6500   */\n      tag_385\n      tag_232\n      jump\t// in\n    tag_385:\n        /* \"#utility.yul\":6383:6502   */\n    tag_384:\n        /* \"#utility.yul\":6541:6542   */\n      0x00\n        /* \"#utility.yul\":6566:6619   */\n      tag_386\n        /* \"#utility.yul\":6611:6618   */\n      dup7\n        /* \"#utility.yul\":6602:6608   */\n      dup3\n        /* \"#utility.yul\":6591:6600   */\n      dup8\n        /* \"#utility.yul\":6587:6609   */\n      add\n        /* \"#utility.yul\":6566:6619   */\n      tag_236\n      jump\t// in\n    tag_386:\n        /* \"#utility.yul\":6556:6619   */\n      swap4\n      pop\n        /* \"#utility.yul\":6512:6629   */\n      pop\n        /* \"#utility.yul\":6696:6698   */\n      0x20\n        /* \"#utility.yul\":6685:6694   */\n      dup5\n        /* \"#utility.yul\":6681:6699   */\n      add\n        /* \"#utility.yul\":6668:6700   */\n      calldataload\n        /* \"#utility.yul\":6727:6745   */\n      0xffffffffffffffff\n        /* \"#utility.yul\":6719:6725   */\n      dup2\n        /* \"#utility.yul\":6716:6746   */\n      gt\n        /* \"#utility.yul\":6713:6830   */\n      iszero\n      tag_387\n      jumpi\n        /* \"#utility.yul\":6749:6828   */\n      tag_388\n      tag_233\n      jump\t// in\n    tag_388:\n        /* \"#utility.yul\":6713:6830   */\n    tag_387:\n        /* \"#utility.yul\":6854:6917   */\n      tag_389\n        /* \"#utility.yul\":6909:6916   */\n      dup7\n        /* \"#utility.yul\":6900:6906   */\n      dup3\n        /* \"#utility.yul\":6889:6898   */\n      dup8\n        /* \"#utility.yul\":6885:6907   */\n      add\n        /* \"#utility.yul\":6854:6917   */\n      tag_255\n      jump\t// in\n    tag_389:\n        /* \"#utility.yul\":6844:6917   */\n      swap3\n      pop\n        /* \"#utility.yul\":6639:6927   */\n      pop\n        /* \"#utility.yul\":6994:6996   */\n      0x40\n        /* \"#utility.yul\":6983:6992   */\n      dup5\n        /* \"#utility.yul\":6979:6997   */\n      add\n        /* \"#utility.yul\":6966:6998   */\n      calldataload\n        /* \"#utility.yul\":7025:7043   */\n      0xffffffffffffffff\n        /* \"#utility.yul\":7017:7023   */\n      dup2\n        /* \"#utility.yul\":7014:7044   */\n      gt\n        /* \"#utility.yul\":7011:7128   */\n      iszero\n      tag_390\n      jumpi\n        /* \"#utility.yul\":7047:7126   */\n      tag_391\n      tag_233\n      jump\t// in\n    tag_391:\n        /* \"#utility.yul\":7011:7128   */\n    tag_390:\n        /* \"#utility.yul\":7152:7215   */\n      tag_392\n        /* \"#utility.yul\":7207:7214   */\n      dup7\n        /* \"#utility.yul\":7198:7204   */\n      dup3\n        /* \"#utility.yul\":7187:7196   */\n      dup8\n        /* \"#utility.yul\":7183:7205   */\n      add\n        /* \"#utility.yul\":7152:7215   */\n      tag_255\n      jump\t// in\n    tag_392:\n        /* \"#utility.yul\":7142:7215   */\n      swap2\n      pop\n        /* \"#utility.yul\":6937:7225   */\n      pop\n        /* \"#utility.yul\":6253:7232   */\n      swap3\n      pop\n      swap3\n      pop\n      swap3\n      jump\t// out\n        /* \"#utility.yul\":7238:7857   */\n    tag_35:\n        /* \"#utility.yul\":7315:7321   */\n      0x00\n        /* \"#utility.yul\":7323:7329   */\n      dup1\n        /* \"#utility.yul\":7331:7337   */\n      0x00\n        /* \"#utility.yul\":7380:7382   */\n      0x60\n        /* \"#utility.yul\":7368:7377   */\n      dup5\n        /* \"#utility.yul\":7359:7366   */\n      dup7\n        /* \"#utility.yul\":7355:7378   */\n      sub\n        /* \"#utility.yul\":7351:7383   */\n      slt\n        /* \"#utility.yul\":7348:7467   */\n      iszero\n      tag_394\n      jumpi\n        /* \"#utility.yul\":7386:7465   */\n      tag_395\n      tag_232\n      jump\t// in\n    tag_395:\n        /* \"#utility.yul\":7348:7467   */\n    tag_394:\n        /* \"#utility.yul\":7506:7507   */\n      0x00\n        /* \"#utility.yul\":7531:7584   */\n      tag_396\n        /* \"#utility.yul\":7576:7583   */\n      dup7\n        /* \"#utility.yul\":7567:7573   */\n      dup3\n        /* \"#utility.yul\":7556:7565   */\n      dup8\n        /* \"#utility.yul\":7552:7574   */\n      add\n        /* \"#utility.yul\":7531:7584   */\n      tag_236\n      jump\t// in\n    tag_396:\n        /* \"#utility.yul\":7521:7584   */\n      swap4\n      pop\n        /* \"#utility.yul\":7477:7594   */\n      pop\n        /* \"#utility.yul\":7633:7635   */\n      0x20\n        /* \"#utility.yul\":7659:7712   */\n      tag_397\n        /* \"#utility.yul\":7704:7711   */\n      dup7\n        /* \"#utility.yul\":7695:7701   */\n      dup3\n        /* \"#utility.yul\":7684:7693   */\n      dup8\n        /* \"#utility.yul\":7680:7702   */\n      add\n        /* \"#utility.yul\":7659:7712   */\n      tag_236\n      jump\t// in\n    tag_397:\n        /* \"#utility.yul\":7649:7712   */\n      swap3\n      pop\n        /* \"#utility.yul\":7604:7722   */\n      pop\n        /* \"#utility.yul\":7761:7763   */\n      0x40\n        /* \"#utility.yul\":7787:7840   */\n      tag_398\n        /* \"#utility.yul\":7832:7839   */\n      dup7\n        /* \"#utility.yul\":7823:7829   */\n      dup3\n        /* \"#utility.yul\":7812:7821   */\n      dup8\n        /* \"#utility.yul\":7808:7830   */\n      add\n        /* \"#utility.yul\":7787:7840   */\n      tag_236\n      jump\t// in\n    tag_398:\n        /* \"#utility.yul\":7777:7840   */\n      swap2\n      pop\n        /* \"#utility.yul\":7732:7850   */\n      pop\n        /* \"#utility.yul\":7238:7857   */\n      swap3\n      pop\n      swap3\n      pop\n      swap3\n      jump\t// out\n        /* \"#utility.yul\":7863:7977   */\n    tag_256:\n        /* \"#utility.yul\":7930:7936   */\n      0x00\n        /* \"#utility.yul\":7964:7969   */\n      dup2\n        /* \"#utility.yul\":7958:7970   */\n      mload\n        /* \"#utility.yul\":7948:7970   */\n      swap1\n      pop\n        /* \"#utility.yul\":7863:7977   */\n      swap2\n      swap1\n      pop\n      jump\t// out\n        /* \"#utility.yul\":7983:8167   */\n    tag_257:\n        /* \"#utility.yul\":8082:8093   */\n      0x00\n        /* \"#utility.yul\":8116:8122   */\n      dup3\n        /* \"#utility.yul\":8111:8114   */\n      dup3\n        /* \"#utility.yul\":8104:8123   */\n      mstore\n        /* \"#utility.yul\":8156:8160   */\n      0x20\n        /* \"#utility.yul\":8151:8154   */\n      dup3\n        /* \"#utility.yul\":8147:8161   */\n      add\n        /* \"#utility.yul\":8132:8161   */\n      swap1\n      pop\n        /* \"#utility.yul\":7983:8167   */\n      swap3\n      swap2\n      pop\n      pop\n      jump\t// out\n        /* \"#utility.yul\":8173:8305   */\n    tag_258:\n        /* \"#utility.yul\":8240:8244   */\n      0x00\n        /* \"#utility.yul\":8263:8266   */\n      dup2\n        /* \"#utility.yul\":8255:8266   */\n      swap1\n      pop\n        /* \"#utility.yul\":8293:8297   */\n      0x20\n        /* \"#utility.yul\":8288:8291   */\n      dup3\n        /* \"#utility.yul\":8284:8298   */\n      add\n        /* \"#utility.yul\":8276:8298   */\n      swap1\n      pop\n        /* \"#utility.yul\":8173:8305   */\n      swap2\n      swap1\n      pop\n      jump\t// out\n        /* \"#utility.yul\":8311:8419   */\n    tag_259:\n        /* \"#utility.yul\":8388:8412   */\n      tag_403\n        /* \"#utility.yul\":8406:8411   */\n      dup2\n        /* \"#utility.yul\":8388:8412   */\n      tag_238\n      jump\t// in\n    tag_403:\n        /* \"#utility.yul\":8383:8386   */\n      dup3\n        /* \"#utility.yul\":8376:8413   */\n      mstore\n        /* \"#utility.yul\":8311:8419   */\n      pop\n      pop\n      jump\t// out\n        /* \"#utility.yul\":8425:8604   */\n    tag_260:\n        /* \"#utility.yul\":8494:8504   */\n      0x00\n        /* \"#utility.yul\":8515:8561   */\n      tag_405\n        /* \"#utility.yul\":8557:8560   */\n      dup4\n        /* \"#utility.yul\":8549:8555   */\n      dup4\n        /* \"#utility.yul\":8515:8561   */\n      tag_259\n      jump\t// in\n    tag_405:\n        /* \"#utility.yul\":8593:8597   */\n      0x20\n        /* \"#utility.yul\":8588:8591   */\n      dup4\n        /* \"#utility.yul\":8584:8598   */\n      add\n        /* \"#utility.yul\":8570:8598   */\n      swap1\n      pop\n        /* \"#utility.yul\":8425:8604   */\n      swap3\n      swap2\n      pop\n      pop\n      jump\t// out\n        /* \"#utility.yul\":8610:8723   */\n    tag_261:\n        /* \"#utility.yul\":8680:8684   */\n      0x00\n        /* \"#utility.yul\":8712:8716   */\n      0x20\n        /* \"#utility.yul\":8707:8710   */\n      dup3\n        /* \"#utility.yul\":8703:8717   */\n      add\n        /* \"#utility.yul\":8695:8717   */\n      swap1\n      pop\n        /* \"#utility.yul\":8610:8723   */\n      swap2\n      swap1\n      pop\n      jump\t// out\n        /* \"#utility.yul\":8759:9491   */\n    tag_262:\n        /* \"#utility.yul\":8878:8881   */\n      0x00\n        /* \"#utility.yul\":8907:8961   */\n      tag_408\n        /* \"#utility.yul\":8955:8960   */\n      dup3\n        /* \"#utility.yul\":8907:8961   */\n      tag_256\n      jump\t// in\n    tag_408:\n        /* \"#utility.yul\":8977:9063   */\n      tag_409\n        /* \"#utility.yul\":9056:9062   */\n      dup2\n        /* \"#utility.yul\":9051:9054   */\n      dup6\n        /* \"#utility.yul\":8977:9063   */\n      tag_257\n      jump\t// in\n    tag_409:\n        /* \"#utility.yul\":8970:9063   */\n      swap4\n      pop\n        /* \"#utility.yul\":9087:9143   */\n      tag_410\n        /* \"#utility.yul\":9137:9142   */\n      dup4\n        /* \"#utility.yul\":9087:9143   */\n      tag_258\n      jump\t// in\n    tag_410:\n        /* \"#utility.yul\":9166:9173   */\n      dup1\n        /* \"#utility.yul\":9197:9198   */\n      0x00\n        /* \"#utility.yul\":9182:9466   */\n    tag_411:\n        /* \"#utility.yul\":9207:9213   */\n      dup4\n        /* \"#utility.yul\":9204:9205   */\n      dup2\n        /* \"#utility.yul\":9201:9214   */\n      lt\n        /* \"#utility.yul\":9182:9466   */\n      iszero\n      tag_413\n      jumpi\n        /* \"#utility.yul\":9283:9289   */\n      dup2\n        /* \"#utility.yul\":9277:9290   */\n      mload\n        /* \"#utility.yul\":9310:9373   */\n      tag_414\n        /* \"#utility.yul\":9369:9372   */\n      dup9\n        /* \"#utility.yul\":9354:9367   */\n      dup3\n        /* \"#utility.yul\":9310:9373   */\n      tag_260\n      jump\t// in\n    tag_414:\n        /* \"#utility.yul\":9303:9373   */\n      swap8\n      pop\n        /* \"#utility.yul\":9396:9456   */\n      tag_415\n        /* \"#utility.yul\":9449:9455   */\n      dup4\n        /* \"#utility.yul\":9396:9456   */\n      tag_261\n      jump\t// in\n    tag_415:\n        /* \"#utility.yul\":9386:9456   */\n      swap3\n      pop\n        /* \"#utility.yul\":9242:9466   */\n      pop\n        /* \"#utility.yul\":9229:9230   */\n      0x01\n        /* \"#utility.yul\":9226:9227   */\n      dup2\n        /* \"#utility.yul\":9222:9231   */\n      add\n        /* \"#utility.yul\":9217:9231   */\n      swap1\n      pop\n        /* \"#utility.yul\":9182:9466   */\n      jump(tag_411)\n    tag_413:\n        /* \"#utility.yul\":9186:9200   */\n      pop\n        /* \"#utility.yul\":9482:9485   */\n      dup6\n        /* \"#utility.yul\":9475:9485   */\n      swap4\n      pop\n        /* \"#utility.yul\":8883:9491   */\n      pop\n      pop\n      pop\n        /* \"#utility.yul\":8759:9491   */\n      swap3\n      swap2\n      pop\n      pop\n      jump\t// out\n        /* \"#utility.yul\":9497:9621   */\n    tag_263:\n        /* \"#utility.yul\":9574:9580   */\n      0x00\n        /* \"#utility.yul\":9608:9613   */\n      dup2\n        /* \"#utility.yul\":9602:9614   */\n      mload\n        /* \"#utility.yul\":9592:9614   */\n      swap1\n      pop\n        /* \"#utility.yul\":9497:9621   */\n      swap2\n      swap1\n      pop\n      jump\t// out\n        /* \"#utility.yul\":9627:9821   */\n    tag_264:\n        /* \"#utility.yul\":9736:9747   */\n      0x00\n        /* \"#utility.yul\":9770:9776   */\n      dup3\n        /* \"#utility.yul\":9765:9768   */\n      dup3\n        /* \"#utility.yul\":9758:9777   */\n      mstore\n        /* \"#utility.yul\":9810:9814   */\n      0x20\n        /* \"#utility.yul\":9805:9808   */\n      dup3\n        /* \"#utility.yul\":9801:9815   */\n      add\n        /* \"#utility.yul\":9786:9815   */\n      swap1\n      pop\n        /* \"#utility.yul\":9627:9821   */\n      swap3\n      swap2\n      pop\n      pop\n      jump\t// out\n        /* \"#utility.yul\":9827:9969   */\n    tag_265:\n        /* \"#utility.yul\":9904:9908   */\n      0x00\n        /* \"#utility.yul\":9927:9930   */\n      dup2\n        /* \"#utility.yul\":9919:9930   */\n      swap1\n      pop\n        /* \"#utility.yul\":9957:9961   */\n      0x20\n        /* \"#utility.yul\":9952:9955   */\n      dup3\n        /* \"#utility.yul\":9948:9962   */\n      add\n        /* \"#utility.yul\":9940:9962   */\n      swap1\n      pop\n        /* \"#utility.yul\":9827:9969   */\n      swap2\n      swap1\n      pop\n      jump\t// out\n        /* \"#utility.yul\":9975:10134   */\n    tag_266:\n        /* \"#utility.yul\":10049:10060   */\n      0x00\n        /* \"#utility.yul\":10083:10089   */\n      dup3\n        /* \"#utility.yul\":10078:10081   */\n      dup3\n        /* \"#utility.yul\":10071:10090   */\n      mstore\n        /* \"#utility.yul\":10123:10127   */\n      0x20\n        /* \"#utility.yul\":10118:10121   */\n      dup3\n        /* \"#utility.yul\":10114:10128   */\n      add\n        /* \"#utility.yul\":10099:10128   */\n      swap1\n      pop\n        /* \"#utility.yul\":9975:10134   */\n      swap3\n      swap2\n      pop\n      pop\n      jump\t// out\n        /* \"#utility.yul\":10140:10497   */\n    tag_267:\n        /* \"#utility.yul\":10218:10221   */\n      0x00\n        /* \"#utility.yul\":10246:10285   */\n      tag_421\n        /* \"#utility.yul\":10279:10284   */\n      dup3\n        /* \"#utility.yul\":10246:10285   */\n      tag_240\n      jump\t// in\n    tag_421:\n        /* \"#utility.yul\":10301:10362   */\n      tag_422\n        /* \"#utility.yul\":10355:10361   */\n      dup2\n        /* \"#utility.yul\":10350:10353   */\n      dup6\n        /* \"#utility.yul\":10301:10362   */\n      tag_266\n      jump\t// in\n    tag_422:\n        /* \"#utility.yul\":10294:10362   */\n      swap4\n      pop\n        /* \"#utility.yul\":10371:10436   */\n      tag_423\n        /* \"#utility.yul\":10429:10435   */\n      dup2\n        /* \"#utility.yul\":10424:10427   */\n      dup6\n        /* \"#utility.yul\":10417:10421   */\n      0x20\n        /* \"#utility.yul\":10410:10415   */\n      dup7\n        /* \"#utility.yul\":10406:10422   */\n      add\n        /* \"#utility.yul\":10371:10436   */\n      tag_242\n      jump\t// in\n    tag_423:\n        /* \"#utility.yul\":10461:10490   */\n      tag_424\n        /* \"#utility.yul\":10483:10489   */\n      dup2\n        /* \"#utility.yul\":10461:10490   */\n      tag_243\n      jump\t// in\n    tag_424:\n        /* \"#utility.yul\":10456:10459   */\n      dup5\n        /* \"#utility.yul\":10452:10491   */\n      add\n        /* \"#utility.yul\":10445:10491   */\n      swap2\n      pop\n        /* \"#utility.yul\":10222:10497   */\n      pop\n        /* \"#utility.yul\":10140:10497   */\n      swap3\n      swap2\n      pop\n      pop\n      jump\t// out\n        /* \"#utility.yul\":10503:10699   */\n    tag_268:\n        /* \"#utility.yul\":10592:10602   */\n      0x00\n        /* \"#utility.yul\":10627:10693   */\n      tag_426\n        /* \"#utility.yul\":10689:10692   */\n      dup4\n        /* \"#utility.yul\":10681:10687   */\n      dup4\n        /* \"#utility.yul\":10627:10693   */\n      tag_267\n      jump\t// in\n    tag_426:\n        /* \"#utility.yul\":10613:10693   */\n      swap1\n      pop\n        /* \"#utility.yul\":10503:10699   */\n      swap3\n      swap2\n      pop\n      pop\n      jump\t// out\n        /* \"#utility.yul\":10705:10828   */\n    tag_269:\n        /* \"#utility.yul\":10785:10789   */\n      0x00\n        /* \"#utility.yul\":10817:10821   */\n      0x20\n        /* \"#utility.yul\":10812:10815   */\n      dup3\n        /* \"#utility.yul\":10808:10822   */\n      add\n        /* \"#utility.yul\":10800:10822   */\n      swap1\n      pop\n        /* \"#utility.yul\":10705:10828   */\n      swap2\n      swap1\n      pop\n      jump\t// out\n        /* \"#utility.yul\":10862:11853   */\n    tag_270:\n        /* \"#utility.yul\":11001:11004   */\n      0x00\n        /* \"#utility.yul\":11030:11094   */\n      tag_429\n        /* \"#utility.yul\":11088:11093   */\n      dup3\n        /* \"#utility.yul\":11030:11094   */\n      tag_263\n      jump\t// in\n    tag_429:\n        /* \"#utility.yul\":11110:11206   */\n      tag_430\n        /* \"#utility.yul\":11199:11205   */\n      dup2\n        /* \"#utility.yul\":11194:11197   */\n      dup6\n        /* \"#utility.yul\":11110:11206   */\n      tag_264\n      jump\t// in\n    tag_430:\n        /* \"#utility.yul\":11103:11206   */\n      swap4\n      pop\n        /* \"#utility.yul\":11232:11235   */\n      dup4\n        /* \"#utility.yul\":11277:11281   */\n      0x20\n        /* \"#utility.yul\":11269:11275   */\n      dup3\n        /* \"#utility.yul\":11265:11282   */\n      mul\n        /* \"#utility.yul\":11260:11263   */\n      dup6\n        /* \"#utility.yul\":11256:11283   */\n      add\n        /* \"#utility.yul\":11307:11373   */\n      tag_431\n        /* \"#utility.yul\":11367:11372   */\n      dup6\n        /* \"#utility.yul\":11307:11373   */\n      tag_265\n      jump\t// in\n    tag_431:\n        /* \"#utility.yul\":11396:11403   */\n      dup1\n        /* \"#utility.yul\":11427:11428   */\n      0x00\n        /* \"#utility.yul\":11412:11808   */\n    tag_432:\n        /* \"#utility.yul\":11437:11443   */\n      dup6\n        /* \"#utility.yul\":11434:11435   */\n      dup2\n        /* \"#utility.yul\":11431:11444   */\n      lt\n        /* \"#utility.yul\":11412:11808   */\n      iszero\n      tag_434\n      jumpi\n        /* \"#utility.yul\":11508:11517   */\n      dup5\n        /* \"#utility.yul\":11502:11506   */\n      dup5\n        /* \"#utility.yul\":11498:11518   */\n      sub\n        /* \"#utility.yul\":11493:11496   */\n      dup10\n        /* \"#utility.yul\":11486:11519   */\n      mstore\n        /* \"#utility.yul\":11559:11565   */\n      dup2\n        /* \"#utility.yul\":11553:11566   */\n      mload\n        /* \"#utility.yul\":11587:11671   */\n      tag_435\n        /* \"#utility.yul\":11666:11670   */\n      dup6\n        /* \"#utility.yul\":11651:11664   */\n      dup3\n        /* \"#utility.yul\":11587:11671   */\n      tag_268\n      jump\t// in\n    tag_435:\n        /* \"#utility.yul\":11579:11671   */\n      swap5\n      pop\n        /* \"#utility.yul\":11694:11764   */\n      tag_436\n        /* \"#utility.yul\":11757:11763   */\n      dup4\n        /* \"#utility.yul\":11694:11764   */\n      tag_269\n      jump\t// in\n    tag_436:\n        /* \"#utility.yul\":11684:11764   */\n      swap3\n      pop\n        /* \"#utility.yul\":11793:11797   */\n      0x20\n        /* \"#utility.yul\":11788:11791   */\n      dup11\n        /* \"#utility.yul\":11784:11798   */\n      add\n        /* \"#utility.yul\":11777:11798   */\n      swap10\n      pop\n        /* \"#utility.yul\":11472:11808   */\n      pop\n        /* \"#utility.yul\":11459:11460   */\n      0x01\n        /* \"#utility.yul\":11456:11457   */\n      dup2\n        /* \"#utility.yul\":11452:11461   */\n      add\n        /* \"#utility.yul\":11447:11461   */\n      swap1\n      pop\n        /* \"#utility.yul\":11412:11808   */\n      jump(tag_432)\n    tag_434:\n        /* \"#utility.yul\":11416:11430   */\n      pop\n        /* \"#utility.yul\":11824:11828   */\n      dup3\n        /* \"#utility.yul\":11817:11828   */\n      swap8\n      pop\n        /* \"#utility.yul\":11844:11847   */\n      dup8\n        /* \"#utility.yul\":11837:11847   */\n      swap6\n      pop\n        /* \"#utility.yul\":11006:11853   */\n      pop\n      pop\n      pop\n      pop\n      pop\n        /* \"#utility.yul\":10862:11853   */\n      swap3\n      swap2\n      pop\n      pop\n      jump\t// out\n        /* \"#utility.yul\":11859:11973   */\n    tag_271:\n        /* \"#utility.yul\":11926:11932   */\n      0x00\n        /* \"#utility.yul\":11960:11965   */\n      dup2\n        /* \"#utility.yul\":11954:11966   */\n      mload\n        /* \"#utility.yul\":11944:11966   */\n      swap1\n      pop\n        /* \"#utility.yul\":11859:11973   */\n      swap2\n      swap1\n      pop\n      jump\t// out\n        /* \"#utility.yul\":11979:12163   */\n    tag_272:\n        /* \"#utility.yul\":12078:12089   */\n      0x00\n        /* \"#utility.yul\":12112:12118   */\n      dup3\n        /* \"#utility.yul\":12107:12110   */\n      dup3\n        /* \"#utility.yul\":12100:12119   */\n      mstore\n        /* \"#utility.yul\":12152:12156   */\n      0x20\n        /* \"#utility.yul\":12147:12150   */\n      dup3\n        /* \"#utility.yul\":12143:12157   */\n      add\n        /* \"#utility.yul\":12128:12157   */\n      swap1\n      pop\n        /* \"#utility.yul\":11979:12163   */\n      swap3\n      swap2\n      pop\n      pop\n      jump\t// out\n        /* \"#utility.yul\":12169:12301   */\n    tag_273:\n        /* \"#utility.yul\":12236:12240   */\n      0x00\n        /* \"#utility.yul\":12259:12262   */\n      dup2\n        /* \"#utility.yul\":12251:12262   */\n      swap1\n      pop\n        /* \"#utility.yul\":12289:12293   */\n      0x20\n        /* \"#utility.yul\":12284:12287   */\n      dup3\n        /* \"#utility.yul\":12280:12294   */\n      add\n        /* \"#utility.yul\":12272:12294   */\n      swap1\n      pop\n        /* \"#utility.yul\":12169:12301   */\n      swap2\n      swap1\n      pop\n      jump\t// out\n        /* \"#utility.yul\":12307:12415   */\n    tag_274:\n        /* \"#utility.yul\":12384:12408   */\n      tag_441\n        /* \"#utility.yul\":12402:12407   */\n      dup2\n        /* \"#utility.yul\":12384:12408   */\n      tag_234\n      jump\t// in\n    tag_441:\n        /* \"#utility.yul\":12379:12382   */\n      dup3\n        /* \"#utility.yul\":12372:12409   */\n      mstore\n        /* \"#utility.yul\":12307:12415   */\n      pop\n      pop\n      jump\t// out\n        /* \"#utility.yul\":12421:12600   */\n    tag_275:\n        /* \"#utility.yul\":12490:12500   */\n      0x00\n        /* \"#utility.yul\":12511:12557   */\n      tag_443\n        /* \"#utility.yul\":12553:12556   */\n      dup4\n        /* \"#utility.yul\":12545:12551   */\n      dup4\n        /* \"#utility.yul\":12511:12557   */\n      tag_274\n      jump\t// in\n    tag_443:\n        /* \"#utility.yul\":12589:12593   */\n      0x20\n        /* \"#utility.yul\":12584:12587   */\n      dup4\n        /* \"#utility.yul\":12580:12594   */\n      add\n        /* \"#utility.yul\":12566:12594   */\n      swap1\n      pop\n        /* \"#utility.yul\":12421:12600   */\n      swap3\n      swap2\n      pop\n      pop\n      jump\t// out\n        /* \"#utility.yul\":12606:12719   */\n    tag_276:\n        /* \"#utility.yul\":12676:12680   */\n      0x00\n        /* \"#utility.yul\":12708:12712   */\n      0x20\n        /* \"#utility.yul\":12703:12706   */\n      dup3\n        /* \"#utility.yul\":12699:12713   */\n      add\n        /* \"#utility.yul\":12691:12713   */\n      swap1\n      pop\n        /* \"#utility.yul\":12606:12719   */\n      swap2\n      swap1\n      pop\n      jump\t// out\n        /* \"#utility.yul\":12755:13487   */\n    tag_277:\n        /* \"#utility.yul\":12874:12877   */\n      0x00\n        /* \"#utility.yul\":12903:12957   */\n      tag_446\n        /* \"#utility.yul\":12951:12956   */\n      dup3\n        /* \"#utility.yul\":12903:12957   */\n      tag_271\n      jump\t// in\n    tag_446:\n        /* \"#utility.yul\":12973:13059   */\n      tag_447\n        /* \"#utility.yul\":13052:13058   */\n      dup2\n        /* \"#utility.yul\":13047:13050   */\n      dup6\n        /* \"#utility.yul\":12973:13059   */\n      tag_272\n      jump\t// in\n    tag_447:\n        /* \"#utility.yul\":12966:13059   */\n      swap4\n      pop\n        /* \"#utility.yul\":13083:13139   */\n      tag_448\n        /* \"#utility.yul\":13133:13138   */\n      dup4\n        /* \"#utility.yul\":13083:13139   */\n      tag_273\n      jump\t// in\n    tag_448:\n        /* \"#utility.yul\":13162:13169   */\n      dup1\n        /* \"#utility.yul\":13193:13194   */\n      0x00\n        /* \"#utility.yul\":13178:13462   */\n    tag_449:\n        /* \"#utility.yul\":13203:13209   */\n      dup4\n        /* \"#utility.yul\":13200:13201   */\n      dup2\n        /* \"#utility.yul\":13197:13210   */\n      lt\n        /* \"#utility.yul\":13178:13462   */\n      iszero\n      tag_451\n      jumpi\n        /* \"#utility.yul\":13279:13285   */\n      dup2\n        /* \"#utility.yul\":13273:13286   */\n      mload\n        /* \"#utility.yul\":13306:13369   */\n      tag_452\n        /* \"#utility.yul\":13365:13368   */\n      dup9\n        /* \"#utility.yul\":13350:13363   */\n      dup3\n        /* \"#utility.yul\":13306:13369   */\n      tag_275\n      jump\t// in\n    tag_452:\n        /* \"#utility.yul\":13299:13369   */\n      swap8\n      pop\n        /* \"#utility.yul\":13392:13452   */\n      tag_453\n        /* \"#utility.yul\":13445:13451   */\n      dup4\n        /* \"#utility.yul\":13392:13452   */\n      tag_276\n      jump\t// in\n    tag_453:\n        /* \"#utility.yul\":13382:13452   */\n      swap3\n      pop\n        /* \"#utility.yul\":13238:13462   */\n      pop\n        /* \"#utility.yul\":13225:13226   */\n      0x01\n        /* \"#utility.yul\":13222:13223   */\n      dup2\n        /* \"#utility.yul\":13218:13227   */\n      add\n        /* \"#utility.yul\":13213:13227   */\n      swap1\n      pop\n        /* \"#utility.yul\":13178:13462   */\n      jump(tag_449)\n    tag_451:\n        /* \"#utility.yul\":13182:13196   */\n      pop\n        /* \"#utility.yul\":13478:13481   */\n      dup6\n        /* \"#utility.yul\":13471:13481   */\n      swap4\n      pop\n        /* \"#utility.yul\":12879:13487   */\n      pop\n      pop\n      pop\n        /* \"#utility.yul\":12755:13487   */\n      swap3\n      swap2\n      pop\n      pop\n      jump\t// out\n        /* \"#utility.yul\":13493:14841   */\n    tag_38:\n        /* \"#utility.yul\":13938:13942   */\n      0x00\n        /* \"#utility.yul\":13976:13979   */\n      0xa0\n        /* \"#utility.yul\":13965:13974   */\n      dup3\n        /* \"#utility.yul\":13961:13980   */\n      add\n        /* \"#utility.yul\":13953:13980   */\n      swap1\n      pop\n        /* \"#utility.yul\":14026:14035   */\n      dup2\n        /* \"#utility.yul\":14020:14024   */\n      dup2\n        /* \"#utility.yul\":14016:14036   */\n      sub\n        /* \"#utility.yul\":14012:14013   */\n      0x00\n        /* \"#utility.yul\":14001:14010   */\n      dup4\n        /* \"#utility.yul\":13997:14014   */\n      add\n        /* \"#utility.yul\":13990:14037   */\n      mstore\n        /* \"#utility.yul\":14054:14162   */\n      tag_455\n        /* \"#utility.yul\":14157:14161   */\n      dup2\n        /* \"#utility.yul\":14148:14154   */\n      dup9\n        /* \"#utility.yul\":14054:14162   */\n      tag_262\n      jump\t// in\n    tag_455:\n        /* \"#utility.yul\":14046:14162   */\n      swap1\n      pop\n        /* \"#utility.yul\":14209:14218   */\n      dup2\n        /* \"#utility.yul\":14203:14207   */\n      dup2\n        /* \"#utility.yul\":14199:14219   */\n      sub\n        /* \"#utility.yul\":14194:14196   */\n      0x20\n        /* \"#utility.yul\":14183:14192   */\n      dup4\n        /* \"#utility.yul\":14179:14197   */\n      add\n        /* \"#utility.yul\":14172:14220   */\n      mstore\n        /* \"#utility.yul\":14237:14365   */\n      tag_456\n        /* \"#utility.yul\":14360:14364   */\n      dup2\n        /* \"#utility.yul\":14351:14357   */\n      dup8\n        /* \"#utility.yul\":14237:14365   */\n      tag_270\n      jump\t// in\n    tag_456:\n        /* \"#utility.yul\":14229:14365   */\n      swap1\n      pop\n        /* \"#utility.yul\":14412:14421   */\n      dup2\n        /* \"#utility.yul\":14406:14410   */\n      dup2\n        /* \"#utility.yul\":14402:14422   */\n      sub\n        /* \"#utility.yul\":14397:14399   */\n      0x40\n        /* \"#utility.yul\":14386:14395   */\n      dup4\n        /* \"#utility.yul\":14382:14400   */\n      add\n        /* \"#utility.yul\":14375:14423   */\n      mstore\n        /* \"#utility.yul\":14440:14568   */\n      tag_457\n        /* \"#utility.yul\":14563:14567   */\n      dup2\n        /* \"#utility.yul\":14554:14560   */\n      dup7\n        /* \"#utility.yul\":14440:14568   */\n      tag_270\n      jump\t// in\n    tag_457:\n        /* \"#utility.yul\":14432:14568   */\n      swap1\n      pop\n        /* \"#utility.yul\":14615:14624   */\n      dup2\n        /* \"#utility.yul\":14609:14613   */\n      dup2\n        /* \"#utility.yul\":14605:14625   */\n      sub\n        /* \"#utility.yul\":14600:14602   */\n      0x60\n        /* \"#utility.yul\":14589:14598   */\n      dup4\n        /* \"#utility.yul\":14585:14603   */\n      add\n        /* \"#utility.yul\":14578:14626   */\n      mstore\n        /* \"#utility.yul\":14643:14751   */\n      tag_458\n        /* \"#utility.yul\":14746:14750   */\n      dup2\n        /* \"#utility.yul\":14737:14743   */\n      dup6\n        /* \"#utility.yul\":14643:14751   */\n      tag_277\n      jump\t// in\n    tag_458:\n        /* \"#utility.yul\":14635:14751   */\n      swap1\n      pop\n        /* \"#utility.yul\":14761:14834   */\n      tag_459\n        /* \"#utility.yul\":14829:14832   */\n      0x80\n        /* \"#utility.yul\":14818:14827   */\n      dup4\n        /* \"#utility.yul\":14814:14833   */\n      add\n        /* \"#utility.yul\":14805:14811   */\n      dup5\n        /* \"#utility.yul\":14761:14834   */\n      tag_245\n      jump\t// in\n    tag_459:\n        /* \"#utility.yul\":13493:14841   */\n      swap7\n      swap6\n      pop\n      pop\n      pop\n      pop\n      pop\n      pop\n      jump\t// out\n        /* \"#utility.yul\":14847:15681   */\n    tag_41:\n        /* \"#utility.yul\":14935:14941   */\n      0x00\n        /* \"#utility.yul\":14943:14949   */\n      dup1\n        /* \"#utility.yul\":14992:14994   */\n      0x40\n        /* \"#utility.yul\":14980:14989   */\n      dup4\n        /* \"#utility.yul\":14971:14978   */\n      dup6\n        /* \"#utility.yul\":14967:14990   */\n      sub\n        /* \"#utility.yul\":14963:14995   */\n      slt\n        /* \"#utility.yul\":14960:15079   */\n      iszero\n      tag_461\n      jumpi\n        /* \"#utility.yul\":14998:15077   */\n      tag_462\n      tag_232\n      jump\t// in\n    tag_462:\n        /* \"#utility.yul\":14960:15079   */\n    tag_461:\n        /* \"#utility.yul\":15146:15147   */\n      0x00\n        /* \"#utility.yul\":15135:15144   */\n      dup4\n        /* \"#utility.yul\":15131:15148   */\n      add\n        /* \"#utility.yul\":15118:15149   */\n      calldataload\n        /* \"#utility.yul\":15176:15194   */\n      0xffffffffffffffff\n        /* \"#utility.yul\":15168:15174   */\n      dup2\n        /* \"#utility.yul\":15165:15195   */\n      gt\n        /* \"#utility.yul\":15162:15279   */\n      iszero\n      tag_463\n      jumpi\n        /* \"#utility.yul\":15198:15277   */\n      tag_464\n      tag_233\n      jump\t// in\n    tag_464:\n        /* \"#utility.yul\":15162:15279   */\n    tag_463:\n        /* \"#utility.yul\":15303:15366   */\n      tag_465\n        /* \"#utility.yul\":15358:15365   */\n      dup6\n        /* \"#utility.yul\":15349:15355   */\n      dup3\n        /* \"#utility.yul\":15338:15347   */\n      dup7\n        /* \"#utility.yul\":15334:15356   */\n      add\n        /* \"#utility.yul\":15303:15366   */\n      tag_255\n      jump\t// in\n    tag_465:\n        /* \"#utility.yul\":15293:15366   */\n      swap3\n      pop\n        /* \"#utility.yul\":15089:15376   */\n      pop\n        /* \"#utility.yul\":15443:15445   */\n      0x20\n        /* \"#utility.yul\":15432:15441   */\n      dup4\n        /* \"#utility.yul\":15428:15446   */\n      add\n        /* \"#utility.yul\":15415:15447   */\n      calldataload\n        /* \"#utility.yul\":15474:15492   */\n      0xffffffffffffffff\n        /* \"#utility.yul\":15466:15472   */\n      dup2\n        /* \"#utility.yul\":15463:15493   */\n      gt\n        /* \"#utility.yul\":15460:15577   */\n      iszero\n      tag_466\n      jumpi\n        /* \"#utility.yul\":15496:15575   */\n      tag_467\n      tag_233\n      jump\t// in\n    tag_467:\n        /* \"#utility.yul\":15460:15577   */\n    tag_466:\n        /* \"#utility.yul\":15601:15664   */\n      tag_468\n        /* \"#utility.yul\":15656:15663   */\n      dup6\n        /* \"#utility.yul\":15647:15653   */\n      dup3\n        /* \"#utility.yul\":15636:15645   */\n      dup7\n        /* \"#utility.yul\":15632:15654   */\n      add\n        /* \"#utility.yul\":15601:15664   */\n      tag_255\n      jump\t// in\n    tag_468:\n        /* \"#utility.yul\":15591:15664   */\n      swap2\n      pop\n        /* \"#utility.yul\":15386:15674   */\n      pop\n        /* \"#utility.yul\":14847:15681   */\n      swap3\n      pop\n      swap3\n      swap1\n      pop\n      jump\t// out\n        /* \"#utility.yul\":15687:15809   */\n    tag_278:\n        /* \"#utility.yul\":15760:15784   */\n      tag_470\n        /* \"#utility.yul\":15778:15783   */\n      dup2\n        /* \"#utility.yul\":15760:15784   */\n      tag_238\n      jump\t// in\n    tag_470:\n        /* \"#utility.yul\":15753:15758   */\n      dup2\n        /* \"#utility.yul\":15750:15785   */\n      eq\n        /* \"#utility.yul\":15740:15803   */\n      tag_471\n      jumpi\n        /* \"#utility.yul\":15799:15800   */\n      0x00\n        /* \"#utility.yul\":15796:15797   */\n      dup1\n        /* \"#utility.yul\":15789:15801   */\n      revert\n        /* \"#utility.yul\":15740:15803   */\n    tag_471:\n        /* \"#utility.yul\":15687:15809   */\n      pop\n      jump\t// out\n        /* \"#utility.yul\":15815:15954   */\n    tag_279:\n        /* \"#utility.yul\":15861:15866   */\n      0x00\n        /* \"#utility.yul\":15899:15905   */\n      dup2\n        /* \"#utility.yul\":15886:15906   */\n      calldataload\n        /* \"#utility.yul\":15877:15906   */\n      swap1\n      pop\n        /* \"#utility.yul\":15915:15948   */\n      tag_473\n        /* \"#utility.yul\":15942:15947   */\n      dup2\n        /* \"#utility.yul\":15915:15948   */\n      tag_278\n      jump\t// in\n    tag_473:\n        /* \"#utility.yul\":15815:15954   */\n      swap3\n      swap2\n      pop\n      pop\n      jump\t// out\n        /* \"#utility.yul\":15960:16434   */\n    tag_49:\n        /* \"#utility.yul\":16028:16034   */\n      0x00\n        /* \"#utility.yul\":16036:16042   */\n      dup1\n        /* \"#utility.yul\":16085:16087   */\n      0x40\n        /* \"#utility.yul\":16073:16082   */\n      dup4\n        /* \"#utility.yul\":16064:16071   */\n      dup6\n        /* \"#utility.yul\":16060:16083   */\n      sub\n        /* \"#utility.yul\":16056:16088   */\n      slt\n        /* \"#utility.yul\":16053:16172   */\n      iszero\n      tag_475\n      jumpi\n        /* \"#utility.yul\":16091:16170   */\n      tag_476\n      tag_232\n      jump\t// in\n    tag_476:\n        /* \"#utility.yul\":16053:16172   */\n    tag_475:\n        /* \"#utility.yul\":16211:16212   */\n      0x00\n        /* \"#utility.yul\":16236:16289   */\n      tag_477\n        /* \"#utility.yul\":16281:16288   */\n      dup6\n        /* \"#utility.yul\":16272:16278   */\n      dup3\n        /* \"#utility.yul\":16261:16270   */\n      dup7\n        /* \"#utility.yul\":16257:16279   */\n      add\n        /* \"#utility.yul\":16236:16289   */\n      tag_236\n      jump\t// in\n    tag_477:\n        /* \"#utility.yul\":16226:16289   */\n      swap3\n      pop\n        /* \"#utility.yul\":16182:16299   */\n      pop\n        /* \"#utility.yul\":16338:16340   */\n      0x20\n        /* \"#utility.yul\":16364:16417   */\n      tag_478\n        /* \"#utility.yul\":16409:16416   */\n      dup6\n        /* \"#utility.yul\":16400:16406   */\n      dup3\n        /* \"#utility.yul\":16389:16398   */\n      dup7\n        /* \"#utility.yul\":16385:16407   */\n      add\n        /* \"#utility.yul\":16364:16417   */\n      tag_279\n      jump\t// in\n    tag_478:\n        /* \"#utility.yul\":16354:16417   */\n      swap2\n      pop\n        /* \"#utility.yul\":16309:16427   */\n      pop\n        /* \"#utility.yul\":15960:16434   */\n      swap3\n      pop\n      swap3\n      swap1\n      pop\n      jump\t// out\n        /* \"#utility.yul\":16440:16650   */\n    tag_52:\n        /* \"#utility.yul\":16527:16531   */\n      0x00\n        /* \"#utility.yul\":16565:16567   */\n      0x20\n        /* \"#utility.yul\":16554:16563   */\n      dup3\n        /* \"#utility.yul\":16550:16568   */\n      add\n        /* \"#utility.yul\":16542:16568   */\n      swap1\n      pop\n        /* \"#utility.yul\":16578:16643   */\n      tag_480\n        /* \"#utility.yul\":16640:16641   */\n      0x00\n        /* \"#utility.yul\":16629:16638   */\n      dup4\n        /* \"#utility.yul\":16625:16642   */\n      add\n        /* \"#utility.yul\":16616:16622   */\n      dup5\n        /* \"#utility.yul\":16578:16643   */\n      tag_247\n      jump\t// in\n    tag_480:\n        /* \"#utility.yul\":16440:16650   */\n      swap3\n      swap2\n      pop\n      pop\n      jump\t// out\n        /* \"#utility.yul\":16656:17130   */\n    tag_55:\n        /* \"#utility.yul\":16724:16730   */\n      0x00\n        /* \"#utility.yul\":16732:16738   */\n      dup1\n        /* \"#utility.yul\":16781:16783   */\n      0x40\n        /* \"#utility.yul\":16769:16778   */\n      dup4\n        /* \"#utility.yul\":16760:16767   */\n      dup6\n        /* \"#utility.yul\":16756:16779   */\n      sub\n        /* \"#utility.yul\":16752:16784   */\n      slt\n        /* \"#utility.yul\":16749:16868   */\n      iszero\n      tag_482\n      jumpi\n        /* \"#utility.yul\":16787:16866   */\n      tag_483\n      tag_232\n      jump\t// in\n    tag_483:\n        /* \"#utility.yul\":16749:16868   */\n    tag_482:\n        /* \"#utility.yul\":16907:16908   */\n      0x00\n        /* \"#utility.yul\":16932:16985   */\n      tag_484\n        /* \"#utility.yul\":16977:16984   */\n      dup6\n        /* \"#utility.yul\":16968:16974   */\n      dup3\n        /* \"#utility.yul\":16957:16966   */\n      dup7\n        /* \"#utility.yul\":16953:16975   */\n      add\n        /* \"#utility.yul\":16932:16985   */\n      tag_236\n      jump\t// in\n    tag_484:\n        /* \"#utility.yul\":16922:16985   */\n      swap3\n      pop\n        /* \"#utility.yul\":16878:16995   */\n      pop\n        /* \"#utility.yul\":17034:17036   */\n      0x20\n        /* \"#utility.yul\":17060:17113   */\n      tag_485\n        /* \"#utility.yul\":17105:17112   */\n      dup6\n        /* \"#utility.yul\":17096:17102   */\n      dup3\n        /* \"#utility.yul\":17085:17094   */\n      dup7\n        /* \"#utility.yul\":17081:17103   */\n      add\n        /* \"#utility.yul\":17060:17113   */\n      tag_236\n      jump\t// in\n    tag_485:\n        /* \"#utility.yul\":17050:17113   */\n      swap2\n      pop\n        /* \"#utility.yul\":17005:17123   */\n      pop\n        /* \"#utility.yul\":16656:17130   */\n      swap3\n      pop\n      swap3\n      swap1\n      pop\n      jump\t// out\n        /* \"#utility.yul\":17136:17871   */\n    tag_58:\n        /* \"#utility.yul\":17353:17357   */\n      0x00\n        /* \"#utility.yul\":17391:17394   */\n      0x80\n        /* \"#utility.yul\":17380:17389   */\n      dup3\n        /* \"#utility.yul\":17376:17395   */\n      add\n        /* \"#utility.yul\":17368:17395   */\n      swap1\n      pop\n        /* \"#utility.yul\":17405:17476   */\n      tag_487\n        /* \"#utility.yul\":17473:17474   */\n      0x00\n        /* \"#utility.yul\":17462:17471   */\n      dup4\n        /* \"#utility.yul\":17458:17475   */\n      add\n        /* \"#utility.yul\":17449:17455   */\n      dup8\n        /* \"#utility.yul\":17405:17476   */\n      tag_239\n      jump\t// in\n    tag_487:\n        /* \"#utility.yul\":17523:17532   */\n      dup2\n        /* \"#utility.yul\":17517:17521   */\n      dup2\n        /* \"#utility.yul\":17513:17533   */\n      sub\n        /* \"#utility.yul\":17508:17510   */\n      0x20\n        /* \"#utility.yul\":17497:17506   */\n      dup4\n        /* \"#utility.yul\":17493:17511   */\n      add\n        /* \"#utility.yul\":17486:17534   */\n      mstore\n        /* \"#utility.yul\":17551:17629   */\n      tag_488\n        /* \"#utility.yul\":17624:17628   */\n      dup2\n        /* \"#utility.yul\":17615:17621   */\n      dup7\n        /* \"#utility.yul\":17551:17629   */\n      tag_244\n      jump\t// in\n    tag_488:\n        /* \"#utility.yul\":17543:17629   */\n      swap1\n      pop\n        /* \"#utility.yul\":17676:17685   */\n      dup2\n        /* \"#utility.yul\":17670:17674   */\n      dup2\n        /* \"#utility.yul\":17666:17686   */\n      sub\n        /* \"#utility.yul\":17661:17663   */\n      0x40\n        /* \"#utility.yul\":17650:17659   */\n      dup4\n        /* \"#utility.yul\":17646:17664   */\n      add\n        /* \"#utility.yul\":17639:17687   */\n      mstore\n        /* \"#utility.yul\":17704:17782   */\n      tag_489\n        /* \"#utility.yul\":17777:17781   */\n      dup2\n        /* \"#utility.yul\":17768:17774   */\n      dup6\n        /* \"#utility.yul\":17704:17782   */\n      tag_244\n      jump\t// in\n    tag_489:\n        /* \"#utility.yul\":17696:17782   */\n      swap1\n      pop\n        /* \"#utility.yul\":17792:17864   */\n      tag_490\n        /* \"#utility.yul\":17860:17862   */\n      0x60\n        /* \"#utility.yul\":17849:17858   */\n      dup4\n        /* \"#utility.yul\":17845:17863   */\n      add\n        /* \"#utility.yul\":17836:17842   */\n      dup5\n        /* \"#utility.yul\":17792:17864   */\n      tag_245\n      jump\t// in\n    tag_490:\n        /* \"#utility.yul\":17136:17871   */\n      swap6\n      swap5\n      pop\n      pop\n      pop\n      pop\n      pop\n      jump\t// out\n        /* \"#utility.yul\":17877:17993   */\n    tag_280:\n        /* \"#utility.yul\":17947:17968   */\n      tag_492\n        /* \"#utility.yul\":17962:17967   */\n      dup2\n        /* \"#utility.yul\":17947:17968   */\n      tag_246\n      jump\t// in\n    tag_492:\n        /* \"#utility.yul\":17940:17945   */\n      dup2\n        /* \"#utility.yul\":17937:17969   */\n      eq\n        /* \"#utility.yul\":17927:17987   */\n      tag_493\n      jumpi\n        /* \"#utility.yul\":17983:17984   */\n      0x00\n        /* \"#utility.yul\":17980:17981   */\n      dup1\n        /* \"#utility.yul\":17973:17985   */\n      revert\n        /* \"#utility.yul\":17927:17987   */\n    tag_493:\n        /* \"#utility.yul\":17877:17993   */\n      pop\n      jump\t// out\n        /* \"#utility.yul\":17999:18132   */\n    tag_281:\n        /* \"#utility.yul\":18042:18047   */\n      0x00\n        /* \"#utility.yul\":18080:18086   */\n      dup2\n        /* \"#utility.yul\":18067:18087   */\n      calldataload\n        /* \"#utility.yul\":18058:18087   */\n      swap1\n      pop\n        /* \"#utility.yul\":18096:18126   */\n      tag_495\n        /* \"#utility.yul\":18120:18125   */\n      dup2\n        /* \"#utility.yul\":18096:18126   */\n      tag_280\n      jump\t// in\n    tag_495:\n        /* \"#utility.yul\":17999:18132   */\n      swap3\n      swap2\n      pop\n      pop\n      jump\t// out\n        /* \"#utility.yul\":18138:18606   */\n    tag_61:\n        /* \"#utility.yul\":18203:18209   */\n      0x00\n        /* \"#utility.yul\":18211:18217   */\n      dup1\n        /* \"#utility.yul\":18260:18262   */\n      0x40\n        /* \"#utility.yul\":18248:18257   */\n      dup4\n        /* \"#utility.yul\":18239:18246   */\n      dup6\n        /* \"#utility.yul\":18235:18258   */\n      sub\n        /* \"#utility.yul\":18231:18263   */\n      slt\n        /* \"#utility.yul\":18228:18347   */\n      iszero\n      tag_497\n      jumpi\n        /* \"#utility.yul\":18266:18345   */\n      tag_498\n      tag_232\n      jump\t// in\n    tag_498:\n        /* \"#utility.yul\":18228:18347   */\n    tag_497:\n        /* \"#utility.yul\":18386:18387   */\n      0x00\n        /* \"#utility.yul\":18411:18464   */\n      tag_499\n        /* \"#utility.yul\":18456:18463   */\n      dup6\n        /* \"#utility.yul\":18447:18453   */\n      dup3\n        /* \"#utility.yul\":18436:18445   */\n      dup7\n        /* \"#utility.yul\":18432:18454   */\n      add\n        /* \"#utility.yul\":18411:18464   */\n      tag_236\n      jump\t// in\n    tag_499:\n        /* \"#utility.yul\":18401:18464   */\n      swap3\n      pop\n        /* \"#utility.yul\":18357:18474   */\n      pop\n        /* \"#utility.yul\":18513:18515   */\n      0x20\n        /* \"#utility.yul\":18539:18589   */\n      tag_500\n        /* \"#utility.yul\":18581:18588   */\n      dup6\n        /* \"#utility.yul\":18572:18578   */\n      dup3\n        /* \"#utility.yul\":18561:18570   */\n      dup7\n        /* \"#utility.yul\":18557:18579   */\n      add\n        /* \"#utility.yul\":18539:18589   */\n      tag_281\n      jump\t// in\n    tag_500:\n        /* \"#utility.yul\":18529:18589   */\n      swap2\n      pop\n        /* \"#utility.yul\":18484:18599   */\n      pop\n        /* \"#utility.yul\":18138:18606   */\n      swap3\n      pop\n      swap3\n      swap1\n      pop\n      jump\t// out\n        /* \"#utility.yul\":18612:18792   */\n    tag_282:\n        /* \"#utility.yul\":18660:18737   */\n      0x4e487b7100000000000000000000000000000000000000000000000000000000\n        /* \"#utility.yul\":18657:18658   */\n      0x00\n        /* \"#utility.yul\":18650:18738   */\n      mstore\n        /* \"#utility.yul\":18757:18761   */\n      0x22\n        /* \"#utility.yul\":18754:18755   */\n      0x04\n        /* \"#utility.yul\":18747:18762   */\n      mstore\n        /* \"#utility.yul\":18781:18785   */\n      0x24\n        /* \"#utility.yul\":18778:18779   */\n      0x00\n        /* \"#utility.yul\":18771:18786   */\n      revert\n        /* \"#utility.yul\":18798:19118   */\n    tag_68:\n        /* \"#utility.yul\":18842:18848   */\n      0x00\n        /* \"#utility.yul\":18879:18880   */\n      0x02\n        /* \"#utility.yul\":18873:18877   */\n      dup3\n        /* \"#utility.yul\":18869:18881   */\n      div\n        /* \"#utility.yul\":18859:18881   */\n      swap1\n      pop\n        /* \"#utility.yul\":18926:18927   */\n      0x01\n        /* \"#utility.yul\":18920:18924   */\n      dup3\n        /* \"#utility.yul\":18916:18928   */\n      and\n        /* \"#utility.yul\":18947:18965   */\n      dup1\n        /* \"#utility.yul\":18937:19018   */\n      tag_503\n      jumpi\n        /* \"#utility.yul\":19003:19007   */\n      0x7f\n        /* \"#utility.yul\":18995:19001   */\n      dup3\n        /* \"#utility.yul\":18991:19008   */\n      and\n        /* \"#utility.yul\":18981:19008   */\n      swap2\n      pop\n        /* \"#utility.yul\":18937:19018   */\n    tag_503:\n        /* \"#utility.yul\":19065:19067   */\n      0x20\n        /* \"#utility.yul\":19057:19063   */\n      dup3\n        /* \"#utility.yul\":19054:19068   */\n      lt\n        /* \"#utility.yul\":19034:19052   */\n      dup2\n        /* \"#utility.yul\":19031:19069   */\n      sub\n        /* \"#utility.yul\":19028:19112   */\n      tag_504\n      jumpi\n        /* \"#utility.yul\":19084:19102   */\n      tag_505\n      tag_282\n      jump\t// in\n    tag_505:\n        /* \"#utility.yul\":19028:19112   */\n    tag_504:\n        /* \"#utility.yul\":18849:19118   */\n      pop\n        /* \"#utility.yul\":18798:19118   */\n      swap2\n      swap1\n      pop\n      jump\t// out\n        /* \"#utility.yul\":19124:19289   */\n    tag_283:\n        /* \"#utility.yul\":19264:19281   */\n      0x496e76616c696420706f73742049440000000000000000000000000000000000\n        /* \"#utility.yul\":19260:19261   */\n      0x00\n        /* \"#utility.yul\":19252:19258   */\n      dup3\n        /* \"#utility.yul\":19248:19262   */\n      add\n        /* \"#utility.yul\":19241:19282   */\n      mstore\n        /* \"#utility.yul\":19124:19289   */\n      pop\n      jump\t// out\n        /* \"#utility.yul\":19295:19661   */\n    tag_284:\n        /* \"#utility.yul\":19437:19440   */\n      0x00\n        /* \"#utility.yul\":19458:19525   */\n      tag_508\n        /* \"#utility.yul\":19522:19524   */\n      0x0f\n        /* \"#utility.yul\":19517:19520   */\n      dup4\n        /* \"#utility.yul\":19458:19525   */\n      tag_241\n      jump\t// in\n    tag_508:\n        /* \"#utility.yul\":19451:19525   */\n      swap2\n      pop\n        /* \"#utility.yul\":19534:19627   */\n      tag_509\n        /* \"#utility.yul\":19623:19626   */\n      dup3\n        /* \"#utility.yul\":19534:19627   */\n      tag_283\n      jump\t// in\n    tag_509:\n        /* \"#utility.yul\":19652:19654   */\n      0x20\n        /* \"#utility.yul\":19647:19650   */\n      dup3\n        /* \"#utility.yul\":19643:19655   */\n      add\n        /* \"#utility.yul\":19636:19655   */\n      swap1\n      pop\n        /* \"#utility.yul\":19295:19661   */\n      swap2\n      swap1\n      pop\n      jump\t// out\n        /* \"#utility.yul\":19667:20086   */\n    tag_82:\n        /* \"#utility.yul\":19833:19837   */\n      0x00\n        /* \"#utility.yul\":19871:19873   */\n      0x20\n        /* \"#utility.yul\":19860:19869   */\n      dup3\n        /* \"#utility.yul\":19856:19874   */\n      add\n        /* \"#utility.yul\":19848:19874   */\n      swap1\n      pop\n        /* \"#utility.yul\":19920:19929   */\n      dup2\n        /* \"#utility.yul\":19914:19918   */\n      dup2\n        /* \"#utility.yul\":19910:19930   */\n      sub\n        /* \"#utility.yul\":19906:19907   */\n      0x00\n        /* \"#utility.yul\":19895:19904   */\n      dup4\n        /* \"#utility.yul\":19891:19908   */\n      add\n        /* \"#utility.yul\":19884:19931   */\n      mstore\n        /* \"#utility.yul\":19948:20079   */\n      tag_511\n        /* \"#utility.yul\":20074:20078   */\n      dup2\n        /* \"#utility.yul\":19948:20079   */\n      tag_284\n      jump\t// in\n    tag_511:\n        /* \"#utility.yul\":19940:20079   */\n      swap1\n      pop\n        /* \"#utility.yul\":19667:20086   */\n      swap2\n      swap1\n      pop\n      jump\t// out\n        /* \"#utility.yul\":20092:20265   */\n    tag_285:\n        /* \"#utility.yul\":20232:20257   */\n      0x436f6d6d656e742063616e6e6f7420626520656d707479000000000000000000\n        /* \"#utility.yul\":20228:20229   */\n      0x00\n        /* \"#utility.yul\":20220:20226   */\n      dup3\n        /* \"#utility.yul\":20216:20230   */\n      add\n        /* \"#utility.yul\":20209:20258   */\n      mstore\n        /* \"#utility.yul\":20092:20265   */\n      pop\n      jump\t// out\n        /* \"#utility.yul\":20271:20637   */\n    tag_286:\n        /* \"#utility.yul\":20413:20416   */\n      0x00\n        /* \"#utility.yul\":20434:20501   */\n      tag_514\n        /* \"#utility.yul\":20498:20500   */\n      0x17\n        /* \"#utility.yul\":20493:20496   */\n      dup4\n        /* \"#utility.yul\":20434:20501   */\n      tag_241\n      jump\t// in\n    tag_514:\n        /* \"#utility.yul\":20427:20501   */\n      swap2\n      pop\n        /* \"#utility.yul\":20510:20603   */\n      tag_515\n        /* \"#utility.yul\":20599:20602   */\n      dup3\n        /* \"#utility.yul\":20510:20603   */\n      tag_285\n      jump\t// in\n    tag_515:\n        /* \"#utility.yul\":20628:20630   */\n      0x20\n        /* \"#utility.yul\":20623:20626   */\n      dup3\n        /* \"#utility.yul\":20619:20631   */\n      add\n        /* \"#utility.yul\":20612:20631   */\n      swap1\n      pop\n        /* \"#utility.yul\":20271:20637   */\n      swap2\n      swap1\n      pop\n      jump\t// out\n        /* \"#utility.yul\":20643:21062   */\n    tag_89:\n        /* \"#utility.yul\":20809:20813   */\n      0x00\n        /* \"#utility.yul\":20847:20849   */\n      0x20\n        /* \"#utility.yul\":20836:20845   */\n      dup3\n        /* \"#utility.yul\":20832:20850   */\n      add\n        /* \"#utility.yul\":20824:20850   */\n      swap1\n      pop\n        /* \"#utility.yul\":20896:20905   */\n      dup2\n        /* \"#utility.yul\":20890:20894   */\n      dup2\n        /* \"#utility.yul\":20886:20906   */\n      sub\n        /* \"#utility.yul\":20882:20883   */\n      0x00\n        /* \"#utility.yul\":20871:20880   */\n      dup4\n        /* \"#utility.yul\":20867:20884   */\n      add\n        /* \"#utility.yul\":20860:20907   */\n      mstore\n        /* \"#utility.yul\":20924:21055   */\n      tag_517\n        /* \"#utility.yul\":21050:21054   */\n      dup2\n        /* \"#utility.yul\":20924:21055   */\n      tag_286\n      jump\t// in\n    tag_517:\n        /* \"#utility.yul\":20916:21055   */\n      swap1\n      pop\n        /* \"#utility.yul\":20643:21062   */\n      swap2\n      swap1\n      pop\n      jump\t// out\n        /* \"#utility.yul\":21068:21248   */\n    tag_287:\n        /* \"#utility.yul\":21116:21193   */\n      0x4e487b7100000000000000000000000000000000000000000000000000000000\n        /* \"#utility.yul\":21113:21114   */\n      0x00\n        /* \"#utility.yul\":21106:21194   */\n      mstore\n        /* \"#utility.yul\":21213:21217   */\n      0x11\n        /* \"#utility.yul\":21210:21211   */\n      0x04\n        /* \"#utility.yul\":21203:21218   */\n      mstore\n        /* \"#utility.yul\":21237:21241   */\n      0x24\n        /* \"#utility.yul\":21234:21235   */\n      0x00\n        /* \"#utility.yul\":21227:21242   */\n      revert\n        /* \"#utility.yul\":21254:21487   */\n    tag_91:\n        /* \"#utility.yul\":21293:21296   */\n      0x00\n        /* \"#utility.yul\":21316:21340   */\n      tag_520\n        /* \"#utility.yul\":21334:21339   */\n      dup3\n        /* \"#utility.yul\":21316:21340   */\n      tag_234\n      jump\t// in\n    tag_520:\n        /* \"#utility.yul\":21307:21340   */\n      swap2\n      pop\n        /* \"#utility.yul\":21362:21428   */\n      0xffffffffffffffffffffffffffffffffffffffffffffffffffffffffffffffff\n        /* \"#utility.yul\":21355:21360   */\n      dup3\n        /* \"#utility.yul\":21352:21429   */\n      sub\n        /* \"#utility.yul\":21349:21452   */\n      tag_521\n      jumpi\n        /* \"#utility.yul\":21432:21450   */\n      tag_522\n      tag_287\n      jump\t// in\n    tag_522:\n        /* \"#utility.yul\":21349:21452   */\n    tag_521:\n        /* \"#utility.yul\":21479:21480   */\n      0x01\n        /* \"#utility.yul\":21472:21477   */\n      dup3\n        /* \"#utility.yul\":21468:21481   */\n      add\n        /* \"#utility.yul\":21461:21481   */\n      swap1\n      pop\n        /* \"#utility.yul\":21254:21487   */\n      swap2\n      swap1\n      pop\n      jump\t// out\n        /* \"#utility.yul\":21493:21634   */\n    tag_288:\n        /* \"#utility.yul\":21542:21546   */\n      0x00\n        /* \"#utility.yul\":21565:21568   */\n      dup2\n        /* \"#utility.yul\":21557:21568   */\n      swap1\n      pop\n        /* \"#utility.yul\":21588:21591   */\n      dup2\n        /* \"#utility.yul\":21585:21586   */\n      0x00\n        /* \"#utility.yul\":21578:21592   */\n      mstore\n        /* \"#utility.yul\":21622:21626   */\n      0x20\n        /* \"#utility.yul\":21619:21620   */\n      0x00\n        /* \"#utility.yul\":21609:21627   */\n      keccak256\n        /* \"#utility.yul\":21601:21627   */\n      swap1\n      pop\n        /* \"#utility.yul\":21493:21634   */\n      swap2\n      swap1\n      pop\n      jump\t// out\n        /* \"#utility.yul\":21640:21733   */\n    tag_289:\n        /* \"#utility.yul\":21677:21683   */\n      0x00\n        /* \"#utility.yul\":21724:21726   */\n      0x20\n        /* \"#utility.yul\":21719:21721   */\n      0x1f\n        /* \"#utility.yul\":21712:21717   */\n      dup4\n        /* \"#utility.yul\":21708:21722   */\n      add\n        /* \"#utility.yul\":21704:21727   */\n      div\n        /* \"#utility.yul\":21694:21727   */\n      swap1\n      pop\n        /* \"#utility.yul\":21640:21733   */\n      swap2\n      swap1\n      pop\n      jump\t// out\n        /* \"#utility.yul\":21739:21846   */\n    tag_290:\n        /* \"#utility.yul\":21783:21791   */\n      0x00\n        /* \"#utility.yul\":21833:21838   */\n      dup3\n        /* \"#utility.yul\":21827:21831   */\n      dup3\n        /* \"#utility.yul\":21823:21839   */\n      shl\n        /* \"#utility.yul\":21802:21839   */\n      swap1\n      pop\n        /* \"#utility.yul\":21739:21846   */\n      swap3\n      swap2\n      pop\n      pop\n      jump\t// out\n        /* \"#utility.yul\":21852:22245   */\n    tag_291:\n        /* \"#utility.yul\":21921:21927   */\n      0x00\n        /* \"#utility.yul\":21971:21972   */\n      0x08\n        /* \"#utility.yul\":21959:21969   */\n      dup4\n        /* \"#utility.yul\":21955:21973   */\n      mul\n        /* \"#utility.yul\":21994:22091   */\n      tag_527\n        /* \"#utility.yul\":22024:22090   */\n      0xffffffffffffffffffffffffffffffffffffffffffffffffffffffffffffffff\n        /* \"#utility.yul\":22013:22022   */\n      dup3\n        /* \"#utility.yul\":21994:22091   */\n      tag_290\n      jump\t// in\n    tag_527:\n        /* \"#utility.yul\":22112:22151   */\n      tag_528\n        /* \"#utility.yul\":22142:22150   */\n      dup7\n        /* \"#utility.yul\":22131:22140   */\n      dup4\n        /* \"#utility.yul\":22112:22151   */\n      tag_290\n      jump\t// in\n    tag_528:\n        /* \"#utility.yul\":22100:22151   */\n      swap6\n      pop\n        /* \"#utility.yul\":22184:22188   */\n      dup1\n        /* \"#utility.yul\":22180:22189   */\n      not\n        /* \"#utility.yul\":22173:22178   */\n      dup5\n        /* \"#utility.yul\":22169:22190   */\n      and\n        /* \"#utility.yul\":22160:22190   */\n      swap4\n      pop\n        /* \"#utility.yul\":22233:22237   */\n      dup1\n        /* \"#utility.yul\":22223:22231   */\n      dup7\n        /* \"#utility.yul\":22219:22238   */\n      and\n        /* \"#utility.yul\":22212:22217   */\n      dup5\n        /* \"#utility.yul\":22209:22239   */\n      or\n        /* \"#utility.yul\":22199:22239   */\n      swap3\n      pop\n        /* \"#utility.yul\":21928:22245   */\n      pop\n      pop\n        /* \"#utility.yul\":21852:22245   */\n      swap4\n      swap3\n      pop\n      pop\n      pop\n      jump\t// out\n        /* \"#utility.yul\":22251:22311   */\n    tag_292:\n        /* \"#utility.yul\":22279:22282   */\n      0x00\n        /* \"#utility.yul\":22300:22305   */\n      dup2\n        /* \"#utility.yul\":22293:22305   */\n      swap1\n      pop\n        /* \"#utility.yul\":22251:22311   */\n      swap2\n      swap1\n      pop\n      jump\t// out\n        /* \"#utility.yul\":22317:22459   */\n    tag_293:\n        /* \"#utility.yul\":22367:22376   */\n      0x00\n        /* \"#utility.yul\":22400:22453   */\n      tag_531\n        /* \"#utility.yul\":22418:22452   */\n      tag_532\n        /* \"#utility.yul\":22427:22451   */\n      tag_533\n        /* \"#utility.yul\":22445:22450   */\n      dup5\n        /* \"#utility.yul\":22427:22451   */\n      tag_234\n      jump\t// in\n    tag_533:\n        /* \"#utility.yul\":22418:22452   */\n      tag_292\n      jump\t// in\n    tag_532:\n        /* \"#utility.yul\":22400:22453   */\n      tag_234\n      jump\t// in\n    tag_531:\n        /* \"#utility.yul\":22387:22453   */\n      swap1\n      pop\n        /* \"#utility.yul\":22317:22459   */\n      swap2\n      swap1\n      pop\n      jump\t// out\n        /* \"#utility.yul\":22465:22540   */\n    tag_294:\n        /* \"#utility.yul\":22508:22511   */\n      0x00\n        /* \"#utility.yul\":22529:22534   */\n      dup2\n        /* \"#utility.yul\":22522:22534   */\n      swap1\n      pop\n        /* \"#utility.yul\":22465:22540   */\n      swap2\n      swap1\n      pop\n      jump\t// out\n        /* \"#utility.yul\":22546:22815   */\n    tag_295:\n        /* \"#utility.yul\":22656:22695   */\n      tag_536\n        /* \"#utility.yul\":22687:22694   */\n      dup4\n        /* \"#utility.yul\":22656:22695   */\n      tag_293\n      jump\t// in\n    tag_536:\n        /* \"#utility.yul\":22717:22808   */\n      tag_537\n        /* \"#utility.yul\":22766:22807   */\n      tag_538\n        /* \"#utility.yul\":22790:22806   */\n      dup3\n        /* \"#utility.yul\":22766:22807   */\n      tag_294\n      jump\t// in\n    tag_538:\n        /* \"#utility.yul\":22758:22764   */\n      dup5\n        /* \"#utility.yul\":22751:22755   */\n      dup5\n        /* \"#utility.yul\":22745:22756   */\n      sload\n        /* \"#utility.yul\":22717:22808   */\n      tag_291\n      jump\t// in\n    tag_537:\n        /* \"#utility.yul\":22711:22715   */\n      dup3\n        /* \"#utility.yul\":22704:22809   */\n      sstore\n        /* \"#utility.yul\":22622:22815   */\n      pop\n        /* \"#utility.yul\":22546:22815   */\n      pop\n      pop\n      pop\n      jump\t// out\n        /* \"#utility.yul\":22821:22894   */\n    tag_296:\n        /* \"#utility.yul\":22866:22869   */\n      0x00\n        /* \"#utility.yul\":22821:22894   */\n      swap1\n      jump\t// out\n        /* \"#utility.yul\":22900:23089   */\n    tag_297:\n        /* \"#utility.yul\":22977:23009   */\n      tag_541\n      tag_296\n      jump\t// in\n    tag_541:\n        /* \"#utility.yul\":23018:23083   */\n      tag_542\n        /* \"#utility.yul\":23076:23082   */\n      dup2\n        /* \"#utility.yul\":23068:23074   */\n      dup5\n        /* \"#utility.yul\":23062:23066   */\n      dup5\n        /* \"#utility.yul\":23018:23083   */\n      tag_295\n      jump\t// in\n    tag_542:\n        /* \"#utility.yul\":22953:23089   */\n      pop\n        /* \"#utility.yul\":22900:23089   */\n      pop\n      pop\n      jump\t// out\n        /* \"#utility.yul\":23095:23281   */\n    tag_298:\n        /* \"#utility.yul\":23155:23275   */\n    tag_544:\n        /* \"#utility.yul\":23172:23175   */\n      dup2\n        /* \"#utility.yul\":23165:23170   */\n      dup2\n        /* \"#utility.yul\":23162:23176   */\n      lt\n        /* \"#utility.yul\":23155:23275   */\n      iszero\n      tag_546\n      jumpi\n        /* \"#utility.yul\":23226:23265   */\n      tag_547\n        /* \"#utility.yul\":23263:23264   */\n      0x00\n        /* \"#utility.yul\":23256:23261   */\n      dup3\n        /* \"#utility.yul\":23226:23265   */\n      tag_297\n      jump\t// in\n    tag_547:\n        /* \"#utility.yul\":23199:23200   */\n      0x01\n        /* \"#utility.yul\":23192:23197   */\n      dup2\n        /* \"#utility.yul\":23188:23201   */\n      add\n        /* \"#utility.yul\":23179:23201   */\n      swap1\n      pop\n        /* \"#utility.yul\":23155:23275   */\n      jump(tag_544)\n    tag_546:\n        /* \"#utility.yul\":23095:23281   */\n      pop\n      pop\n      jump\t// out\n        /* \"#utility.yul\":23287:23830   */\n    tag_299:\n        /* \"#utility.yul\":23388:23390   */\n      0x1f\n        /* \"#utility.yul\":23383:23386   */\n      dup3\n        /* \"#utility.yul\":23380:23391   */\n      gt\n        /* \"#utility.yul\":23377:23823   */\n      iszero\n      tag_549\n      jumpi\n        /* \"#utility.yul\":23422:23460   */\n      tag_550\n        /* \"#utility.yul\":23454:23459   */\n      dup2\n        /* \"#utility.yul\":23422:23460   */\n      tag_288\n      jump\t// in\n    tag_550:\n        /* \"#utility.yul\":23506:23535   */\n      tag_551\n        /* \"#utility.yul\":23524:23534   */\n      dup5\n        /* \"#utility.yul\":23506:23535   */\n      tag_289\n      jump\t// in\n    tag_551:\n        /* \"#utility.yul\":23496:23504   */\n      dup2\n        /* \"#utility.yul\":23492:23536   */\n      add\n        /* \"#utility.yul\":23689:23691   */\n      0x20\n        /* \"#utility.yul\":23677:23687   */\n      dup6\n        /* \"#utility.yul\":23674:23692   */\n      lt\n        /* \"#utility.yul\":23671:23720   */\n      iszero\n      tag_552\n      jumpi\n        /* \"#utility.yul\":23710:23718   */\n      dup2\n        /* \"#utility.yul\":23695:23718   */\n      swap1\n      pop\n        /* \"#utility.yul\":23671:23720   */\n    tag_552:\n        /* \"#utility.yul\":23733:23813   */\n      tag_553\n        /* \"#utility.yul\":23789:23811   */\n      tag_554\n        /* \"#utility.yul\":23807:23810   */\n      dup6\n        /* \"#utility.yul\":23789:23811   */\n      tag_289\n      jump\t// in\n    tag_554:\n        /* \"#utility.yul\":23779:23787   */\n      dup4\n        /* \"#utility.yul\":23775:23812   */\n      add\n        /* \"#utility.yul\":23762:23773   */\n      dup3\n        /* \"#utility.yul\":23733:23813   */\n      tag_298\n      jump\t// in\n    tag_553:\n        /* \"#utility.yul\":23392:23823   */\n      pop\n      pop\n        /* \"#utility.yul\":23377:23823   */\n    tag_549:\n        /* \"#utility.yul\":23287:23830   */\n      pop\n      pop\n      pop\n      jump\t// out\n        /* \"#utility.yul\":23836:23953   */\n    tag_300:\n        /* \"#utility.yul\":23890:23898   */\n      0x00\n        /* \"#utility.yul\":23940:23945   */\n      dup3\n        /* \"#utility.yul\":23934:23938   */\n      dup3\n        /* \"#utility.yul\":23930:23946   */\n      shr\n        /* \"#utility.yul\":23909:23946   */\n      swap1\n      pop\n        /* \"#utility.yul\":23836:23953   */\n      swap3\n      swap2\n      pop\n      pop\n      jump\t// out\n        /* \"#utility.yul\":23959:24128   */\n    tag_301:\n        /* \"#utility.yul\":24003:24009   */\n      0x00\n        /* \"#utility.yul\":24036:24087   */\n      tag_557\n        /* \"#utility.yul\":24084:24085   */\n      0x00\n        /* \"#utility.yul\":24080:24086   */\n      not\n        /* \"#utility.yul\":24072:24077   */\n      dup5\n        /* \"#utility.yul\":24069:24070   */\n      0x08\n        /* \"#utility.yul\":24065:24078   */\n      mul\n        /* \"#utility.yul\":24036:24087   */\n      tag_300\n      jump\t// in\n    tag_557:\n        /* \"#utility.yul\":24032:24088   */\n      not\n        /* \"#utility.yul\":24117:24121   */\n      dup1\n        /* \"#utility.yul\":24111:24115   */\n      dup4\n        /* \"#utility.yul\":24107:24122   */\n      and\n        /* \"#utility.yul\":24097:24122   */\n      swap2\n      pop\n        /* \"#utility.yul\":24010:24128   */\n      pop\n        /* \"#utility.yul\":23959:24128   */\n      swap3\n      swap2\n      pop\n      pop\n      jump\t// out\n        /* \"#utility.yul\":24133:24428   */\n    tag_302:\n        /* \"#utility.yul\":24209:24213   */\n      0x00\n        /* \"#utility.yul\":24355:24384   */\n      tag_559\n        /* \"#utility.yul\":24380:24383   */\n      dup4\n        /* \"#utility.yul\":24374:24378   */\n      dup4\n        /* \"#utility.yul\":24355:24384   */\n      tag_301\n      jump\t// in\n    tag_559:\n        /* \"#utility.yul\":24347:24384   */\n      swap2\n      pop\n        /* \"#utility.yul\":24417:24420   */\n      dup3\n        /* \"#utility.yul\":24414:24415   */\n      0x02\n        /* \"#utility.yul\":24410:24421   */\n      mul\n        /* \"#utility.yul\":24404:24408   */\n      dup3\n        /* \"#utility.yul\":24401:24422   */\n      or\n        /* \"#utility.yul\":24393:24422   */\n      swap1\n      pop\n        /* \"#utility.yul\":24133:24428   */\n      swap3\n      swap2\n      pop\n      pop\n      jump\t// out\n        /* \"#utility.yul\":24433:25828   */\n    tag_93:\n        /* \"#utility.yul\":24550:24587   */\n      tag_561\n        /* \"#utility.yul\":24583:24586   */\n      dup3\n        /* \"#utility.yul\":24550:24587   */\n      tag_240\n      jump\t// in\n    tag_561:\n        /* \"#utility.yul\":24652:24670   */\n      0xffffffffffffffff\n        /* \"#utility.yul\":24644:24650   */\n      dup2\n        /* \"#utility.yul\":24641:24671   */\n      gt\n        /* \"#utility.yul\":24638:24694   */\n      iszero\n      tag_562\n      jumpi\n        /* \"#utility.yul\":24674:24692   */\n      tag_563\n      tag_107\n      jump\t// in\n    tag_563:\n        /* \"#utility.yul\":24638:24694   */\n    tag_562:\n        /* \"#utility.yul\":24718:24756   */\n      tag_564\n        /* \"#utility.yul\":24750:24754   */\n      dup3\n        /* \"#utility.yul\":24744:24755   */\n      sload\n        /* \"#utility.yul\":24718:24756   */\n      tag_68\n      jump\t// in\n    tag_564:\n        /* \"#utility.yul\":24803:24870   */\n      tag_565\n        /* \"#utility.yul\":24863:24869   */\n      dup3\n        /* \"#utility.yul\":24855:24861   */\n      dup3\n        /* \"#utility.yul\":24849:24853   */\n      dup6\n        /* \"#utility.yul\":24803:24870   */\n      tag_299\n      jump\t// in\n    tag_565:\n        /* \"#utility.yul\":24897:24898   */\n      0x00\n        /* \"#utility.yul\":24921:24925   */\n      0x20\n        /* \"#utility.yul\":24908:24925   */\n      swap1\n      pop\n        /* \"#utility.yul\":24953:24955   */\n      0x1f\n        /* \"#utility.yul\":24945:24951   */\n      dup4\n        /* \"#utility.yul\":24942:24956   */\n      gt\n        /* \"#utility.yul\":24970:24971   */\n      0x01\n        /* \"#utility.yul\":24965:25583   */\n      dup2\n      eq\n      tag_567\n      jumpi\n        /* \"#utility.yul\":25627:25628   */\n      0x00\n        /* \"#utility.yul\":25644:25650   */\n      dup5\n        /* \"#utility.yul\":25641:25718   */\n      iszero\n      tag_568\n      jumpi\n        /* \"#utility.yul\":25693:25702   */\n      dup3\n        /* \"#utility.yul\":25688:25691   */\n      dup8\n        /* \"#utility.yul\":25684:25703   */\n      add\n        /* \"#utility.yul\":25678:25704   */\n      mload\n        /* \"#utility.yul\":25669:25704   */\n      swap1\n      pop\n        /* \"#utility.yul\":25641:25718   */\n    tag_568:\n        /* \"#utility.yul\":25744:25811   */\n      tag_569\n        /* \"#utility.yul\":25804:25810   */\n      dup6\n        /* \"#utility.yul\":25797:25802   */\n      dup3\n        /* \"#utility.yul\":25744:25811   */\n      tag_302\n      jump\t// in\n    tag_569:\n        /* \"#utility.yul\":25738:25742   */\n      dup7\n        /* \"#utility.yul\":25731:25812   */\n      sstore\n        /* \"#utility.yul\":25600:25822   */\n      pop\n        /* \"#utility.yul\":24935:25822   */\n      jump(tag_566)\n        /* \"#utility.yul\":24965:25583   */\n    tag_567:\n        /* \"#utility.yul\":25017:25021   */\n      0x1f\n        /* \"#utility.yul\":25013:25022   */\n      not\n        /* \"#utility.yul\":25005:25011   */\n      dup5\n        /* \"#utility.yul\":25001:25023   */\n      and\n        /* \"#utility.yul\":25051:25088   */\n      tag_570\n        /* \"#utility.yul\":25083:25087   */\n      dup7\n        /* \"#utility.yul\":25051:25088   */\n      tag_288\n      jump\t// in\n    tag_570:\n        /* \"#utility.yul\":25110:25111   */\n      0x00\n        /* \"#utility.yul\":25124:25332   */\n    tag_571:\n        /* \"#utility.yul\":25138:25145   */\n      dup3\n        /* \"#utility.yul\":25135:25136   */\n      dup2\n        /* \"#utility.yul\":25132:25146   */\n      lt\n        /* \"#utility.yul\":25124:25332   */\n      iszero\n      tag_573\n      jumpi\n        /* \"#utility.yul\":25217:25226   */\n      dup5\n        /* \"#utility.yul\":25212:25215   */\n      dup10\n        /* \"#utility.yul\":25208:25227   */\n      add\n        /* \"#utility.yul\":25202:25228   */\n      mload\n        /* \"#utility.yul\":25194:25200   */\n      dup3\n        /* \"#utility.yul\":25187:25229   */\n      sstore\n        /* \"#utility.yul\":25268:25269   */\n      0x01\n        /* \"#utility.yul\":25260:25266   */\n      dup3\n        /* \"#utility.yul\":25256:25270   */\n      add\n        /* \"#utility.yul\":25246:25270   */\n      swap2\n      pop\n        /* \"#utility.yul\":25315:25317   */\n      0x20\n        /* \"#utility.yul\":25304:25313   */\n      dup6\n        /* \"#utility.yul\":25300:25318   */\n      add\n        /* \"#utility.yul\":25287:25318   */\n      swap5\n      pop\n        /* \"#utility.yul\":25161:25165   */\n      0x20\n        /* \"#utility.yul\":25158:25159   */\n      dup2\n        /* \"#utility.yul\":25154:25166   */\n      add\n        /* \"#utility.yul\":25149:25166   */\n      swap1\n      pop\n        /* \"#utility.yul\":25124:25332   */\n      jump(tag_571)\n    tag_573:\n        /* \"#utility.yul\":25360:25366   */\n      dup7\n        /* \"#utility.yul\":25351:25358   */\n      dup4\n        /* \"#utility.yul\":25348:25367   */\n      lt\n        /* \"#utility.yul\":25345:25524   */\n      iszero\n      tag_574\n      jumpi\n        /* \"#utility.yul\":25418:25427   */\n      dup5\n        /* \"#utility.yul\":25413:25416   */\n      dup10\n        /* \"#utility.yul\":25409:25428   */\n      add\n        /* \"#utility.yul\":25403:25429   */\n      mload\n        /* \"#utility.yul\":25461:25509   */\n      tag_575\n        /* \"#utility.yul\":25503:25507   */\n      0x1f\n        /* \"#utility.yul\":25495:25501   */\n      dup10\n        /* \"#utility.yul\":25491:25508   */\n      and\n        /* \"#utility.yul\":25480:25489   */\n      dup3\n        /* \"#utility.yul\":25461:25509   */\n      tag_301\n      jump\t// in\n    tag_575:\n        /* \"#utility.yul\":25453:25459   */\n      dup4\n        /* \"#utility.yul\":25446:25510   */\n      sstore\n        /* \"#utility.yul\":25368:25524   */\n      pop\n        /* \"#utility.yul\":25345:25524   */\n    tag_574:\n        /* \"#utility.yul\":25570:25571   */\n      0x01\n        /* \"#utility.yul\":25566:25567   */\n      0x02\n        /* \"#utility.yul\":25558:25564   */\n      dup9\n        /* \"#utility.yul\":25554:25568   */\n      mul\n        /* \"#utility.yul\":25550:25572   */\n      add\n        /* \"#utility.yul\":25544:25548   */\n      dup9\n        /* \"#utility.yul\":25537:25573   */\n      sstore\n        /* \"#utility.yul\":24972:25583   */\n      pop\n      pop\n      pop\n        /* \"#utility.yul\":24935:25822   */\n    tag_566:\n      pop\n        /* \"#utility.yul\":24525:25828   */\n      pop\n      pop\n      pop\n        /* \"#utility.yul\":24433:25828   */\n      pop\n      pop\n      jump\t// out\n        /* \"#utility.yul\":25834:26348   */\n    tag_96:\n        /* \"#utility.yul\":25995:25999   */\n      0x00\n        /* \"#utility.yul\":26033:26035   */\n      0x40\n        /* \"#utility.yul\":26022:26031   */\n      dup3\n        /* \"#utility.yul\":26018:26036   */\n      add\n        /* \"#utility.yul\":26010:26036   */\n      swap1\n      pop\n        /* \"#utility.yul\":26082:26091   */\n      dup2\n        /* \"#utility.yul\":26076:26080   */\n      dup2\n        /* \"#utility.yul\":26072:26092   */\n      sub\n        /* \"#utility.yul\":26068:26069   */\n      0x00\n        /* \"#utility.yul\":26057:26066   */\n      dup4\n        /* \"#utility.yul\":26053:26070   */\n      add\n        /* \"#utility.yul\":26046:26093   */\n      mstore\n        /* \"#utility.yul\":26110:26188   */\n      tag_577\n        /* \"#utility.yul\":26183:26187   */\n      dup2\n        /* \"#utility.yul\":26174:26180   */\n      dup6\n        /* \"#utility.yul\":26110:26188   */\n      tag_244\n      jump\t// in\n    tag_577:\n        /* \"#utility.yul\":26102:26188   */\n      swap1\n      pop\n        /* \"#utility.yul\":26235:26244   */\n      dup2\n        /* \"#utility.yul\":26229:26233   */\n      dup2\n        /* \"#utility.yul\":26225:26245   */\n      sub\n        /* \"#utility.yul\":26220:26222   */\n      0x20\n        /* \"#utility.yul\":26209:26218   */\n      dup4\n        /* \"#utility.yul\":26205:26223   */\n      add\n        /* \"#utility.yul\":26198:26246   */\n      mstore\n        /* \"#utility.yul\":26263:26341   */\n      tag_578\n        /* \"#utility.yul\":26336:26340   */\n      dup2\n        /* \"#utility.yul\":26327:26333   */\n      dup5\n        /* \"#utility.yul\":26263:26341   */\n      tag_244\n      jump\t// in\n    tag_578:\n        /* \"#utility.yul\":26255:26341   */\n      swap1\n      pop\n        /* \"#utility.yul\":25834:26348   */\n      swap4\n      swap3\n      pop\n      pop\n      pop\n      jump\t// out\n        /* \"#utility.yul\":26354:26535   */\n    tag_303:\n        /* \"#utility.yul\":26494:26527   */\n      0x5374617274204944206d7573742062652067726561746572207468616e203000\n        /* \"#utility.yul\":26490:26491   */\n      0x00\n        /* \"#utility.yul\":26482:26488   */\n      dup3\n        /* \"#utility.yul\":26478:26492   */\n      add\n        /* \"#utility.yul\":26471:26528   */\n      mstore\n        /* \"#utility.yul\":26354:26535   */\n      pop\n      jump\t// out\n        /* \"#utility.yul\":26541:26907   */\n    tag_304:\n        /* \"#utility.yul\":26683:26686   */\n      0x00\n        /* \"#utility.yul\":26704:26771   */\n      tag_581\n        /* \"#utility.yul\":26768:26770   */\n      0x1f\n        /* \"#utility.yul\":26763:26766   */\n      dup4\n        /* \"#utility.yul\":26704:26771   */\n      tag_241\n      jump\t// in\n    tag_581:\n        /* \"#utility.yul\":26697:26771   */\n      swap2\n      pop\n        /* \"#utility.yul\":26780:26873   */\n      tag_582\n        /* \"#utility.yul\":26869:26872   */\n      dup3\n        /* \"#utility.yul\":26780:26873   */\n      tag_303\n      jump\t// in\n    tag_582:\n        /* \"#utility.yul\":26898:26900   */\n      0x20\n        /* \"#utility.yul\":26893:26896   */\n      dup3\n        /* \"#utility.yul\":26889:26901   */\n      add\n        /* \"#utility.yul\":26882:26901   */\n      swap1\n      pop\n        /* \"#utility.yul\":26541:26907   */\n      swap2\n      swap1\n      pop\n      jump\t// out\n        /* \"#utility.yul\":26913:27332   */\n    tag_103:\n        /* \"#utility.yul\":27079:27083   */\n      0x00\n        /* \"#utility.yul\":27117:27119   */\n      0x20\n        /* \"#utility.yul\":27106:27115   */\n      dup3\n        /* \"#utility.yul\":27102:27120   */\n      add\n        /* \"#utility.yul\":27094:27120   */\n      swap1\n      pop\n        /* \"#utility.yul\":27166:27175   */\n      dup2\n        /* \"#utility.yul\":27160:27164   */\n      dup2\n        /* \"#utility.yul\":27156:27176   */\n      sub\n        /* \"#utility.yul\":27152:27153   */\n      0x00\n        /* \"#utility.yul\":27141:27150   */\n      dup4\n        /* \"#utility.yul\":27137:27154   */\n      add\n        /* \"#utility.yul\":27130:27177   */\n      mstore\n        /* \"#utility.yul\":27194:27325   */\n      tag_584\n        /* \"#utility.yul\":27320:27324   */\n      dup2\n        /* \"#utility.yul\":27194:27325   */\n      tag_304\n      jump\t// in\n    tag_584:\n        /* \"#utility.yul\":27186:27325   */\n      swap1\n      pop\n        /* \"#utility.yul\":26913:27332   */\n      swap2\n      swap1\n      pop\n      jump\t// out\n        /* \"#utility.yul\":27338:27532   */\n    tag_122:\n        /* \"#utility.yul\":27378:27382   */\n      0x00\n        /* \"#utility.yul\":27398:27418   */\n      tag_586\n        /* \"#utility.yul\":27416:27417   */\n      dup3\n        /* \"#utility.yul\":27398:27418   */\n      tag_234\n      jump\t// in\n    tag_586:\n        /* \"#utility.yul\":27393:27418   */\n      swap2\n      pop\n        /* \"#utility.yul\":27432:27452   */\n      tag_587\n        /* \"#utility.yul\":27450:27451   */\n      dup4\n        /* \"#utility.yul\":27432:27452   */\n      tag_234\n      jump\t// in\n    tag_587:\n        /* \"#utility.yul\":27427:27452   */\n      swap3\n      pop\n        /* \"#utility.yul\":27476:27477   */\n      dup3\n        /* \"#utility.yul\":27473:27474   */\n      dup3\n        /* \"#utility.yul\":27469:27478   */\n      sub\n        /* \"#utility.yul\":27461:27478   */\n      swap1\n      pop\n        /* \"#utility.yul\":27500:27501   */\n      dup2\n        /* \"#utility.yul\":27494:27498   */\n      dup2\n        /* \"#utility.yul\":27491:27502   */\n      gt\n        /* \"#utility.yul\":27488:27525   */\n      iszero\n      tag_588\n      jumpi\n        /* \"#utility.yul\":27505:27523   */\n      tag_589\n      tag_287\n      jump\t// in\n    tag_589:\n        /* \"#utility.yul\":27488:27525   */\n    tag_588:\n        /* \"#utility.yul\":27338:27532   */\n      swap3\n      swap2\n      pop\n      pop\n      jump\t// out\n        /* \"#utility.yul\":27538:27729   */\n    tag_124:\n        /* \"#utility.yul\":27578:27581   */\n      0x00\n        /* \"#utility.yul\":27597:27617   */\n      tag_591\n        /* \"#utility.yul\":27615:27616   */\n      dup3\n        /* \"#utility.yul\":27597:27617   */\n      tag_234\n      jump\t// in\n    tag_591:\n        /* \"#utility.yul\":27592:27617   */\n      swap2\n      pop\n        /* \"#utility.yul\":27631:27651   */\n      tag_592\n        /* \"#utility.yul\":27649:27650   */\n      dup4\n        /* \"#utility.yul\":27631:27651   */\n      tag_234\n      jump\t// in\n    tag_592:\n        /* \"#utility.yul\":27626:27651   */\n      swap3\n      pop\n        /* \"#utility.yul\":27674:27675   */\n      dup3\n        /* \"#utility.yul\":27671:27672   */\n      dup3\n        /* \"#utility.yul\":27667:27676   */\n      add\n        /* \"#utility.yul\":27660:27676   */\n      swap1\n      pop\n        /* \"#utility.yul\":27695:27698   */\n      dup1\n        /* \"#utility.yul\":27692:27693   */\n      dup3\n        /* \"#utility.yul\":27689:27699   */\n      gt\n        /* \"#utility.yul\":27686:27722   */\n      iszero\n      tag_593\n      jumpi\n        /* \"#utility.yul\":27702:27720   */\n      tag_594\n      tag_287\n      jump\t// in\n    tag_594:\n        /* \"#utility.yul\":27686:27722   */\n    tag_593:\n        /* \"#utility.yul\":27538:27729   */\n      swap3\n      swap2\n      pop\n      pop\n      jump\t// out\n        /* \"#utility.yul\":27735:27915   */\n    tag_146:\n        /* \"#utility.yul\":27783:27860   */\n      0x4e487b7100000000000000000000000000000000000000000000000000000000\n        /* \"#utility.yul\":27780:27781   */\n      0x00\n        /* \"#utility.yul\":27773:27861   */\n      mstore\n        /* \"#utility.yul\":27880:27884   */\n      0x32\n        /* \"#utility.yul\":27877:27878   */\n      0x04\n        /* \"#utility.yul\":27870:27885   */\n      mstore\n        /* \"#utility.yul\":27904:27908   */\n      0x24\n        /* \"#utility.yul\":27901:27902   */\n      0x00\n        /* \"#utility.yul\":27894:27909   */\n      revert\n        /* \"#utility.yul\":27921:28089   */\n    tag_305:\n        /* \"#utility.yul\":28061:28081   */\n      0x496e76616c696420636f6d6d656e742049440000000000000000000000000000\n        /* \"#utility.yul\":28057:28058   */\n      0x00\n        /* \"#utility.yul\":28049:28055   */\n      dup3\n        /* \"#utility.yul\":28045:28059   */\n      add\n        /* \"#utility.yul\":28038:28082   */\n      mstore\n        /* \"#utility.yul\":27921:28089   */\n      pop\n      jump\t// out\n        /* \"#utility.yul\":28095:28461   */\n    tag_306:\n        /* \"#utility.yul\":28237:28240   */\n      0x00\n        /* \"#utility.yul\":28258:28325   */\n      tag_598\n        /* \"#utility.yul\":28322:28324   */\n      0x12\n        /* \"#utility.yul\":28317:28320   */\n      dup4\n        /* \"#utility.yul\":28258:28325   */\n      tag_241\n      jump\t// in\n    tag_598:\n        /* \"#utility.yul\":28251:28325   */\n      swap2\n      pop\n        /* \"#utility.yul\":28334:28427   */\n      tag_599\n        /* \"#utility.yul\":28423:28426   */\n      dup3\n        /* \"#utility.yul\":28334:28427   */\n      tag_305\n      jump\t// in\n    tag_599:\n        /* \"#utility.yul\":28452:28454   */\n      0x20\n        /* \"#utility.yul\":28447:28450   */\n      dup3\n        /* \"#utility.yul\":28443:28455   */\n      add\n        /* \"#utility.yul\":28436:28455   */\n      swap1\n      pop\n        /* \"#utility.yul\":28095:28461   */\n      swap2\n      swap1\n      pop\n      jump\t// out\n        /* \"#utility.yul\":28467:28886   */\n    tag_194:\n        /* \"#utility.yul\":28633:28637   */\n      0x00\n        /* \"#utility.yul\":28671:28673   */\n      0x20\n        /* \"#utility.yul\":28660:28669   */\n      dup3\n        /* \"#utility.yul\":28656:28674   */\n      add\n        /* \"#utility.yul\":28648:28674   */\n      swap1\n      pop\n        /* \"#utility.yul\":28720:28729   */\n      dup2\n        /* \"#utility.yul\":28714:28718   */\n      dup2\n        /* \"#utility.yul\":28710:28730   */\n      sub\n        /* \"#utility.yul\":28706:28707   */\n      0x00\n        /* \"#utility.yul\":28695:28704   */\n      dup4\n        /* \"#utility.yul\":28691:28708   */\n      add\n        /* \"#utility.yul\":28684:28731   */\n      mstore\n        /* \"#utility.yul\":28748:28879   */\n      tag_601\n        /* \"#utility.yul\":28874:28878   */\n      dup2\n        /* \"#utility.yul\":28748:28879   */\n      tag_306\n      jump\t// in\n    tag_601:\n        /* \"#utility.yul\":28740:28879   */\n      swap1\n      pop\n        /* \"#utility.yul\":28467:28886   */\n      swap2\n      swap1\n      pop\n      jump\t// out\n        /* \"#utility.yul\":28892:29070   */\n    tag_307:\n        /* \"#utility.yul\":29032:29062   */\n      0x43616e6e6f7420766f7465206f6e20796f7572206f776e20706f737400000000\n        /* \"#utility.yul\":29028:29029   */\n      0x00\n        /* \"#utility.yul\":29020:29026   */\n      dup3\n        /* \"#utility.yul\":29016:29030   */\n      add\n        /* \"#utility.yul\":29009:29063   */\n      mstore\n        /* \"#utility.yul\":28892:29070   */\n      pop\n      jump\t// out\n        /* \"#utility.yul\":29076:29442   */\n    tag_308:\n        /* \"#utility.yul\":29218:29221   */\n      0x00\n        /* \"#utility.yul\":29239:29306   */\n      tag_604\n        /* \"#utility.yul\":29303:29305   */\n      0x1c\n        /* \"#utility.yul\":29298:29301   */\n      dup4\n        /* \"#utility.yul\":29239:29306   */\n      tag_241\n      jump\t// in\n    tag_604:\n        /* \"#utility.yul\":29232:29306   */\n      swap2\n      pop\n        /* \"#utility.yul\":29315:29408   */\n      tag_605\n        /* \"#utility.yul\":29404:29407   */\n      dup3\n        /* \"#utility.yul\":29315:29408   */\n      tag_307\n      jump\t// in\n    tag_605:\n        /* \"#utility.yul\":29433:29435   */\n      0x20\n        /* \"#utility.yul\":29428:29431   */\n      dup3\n        /* \"#utility.yul\":29424:29436   */\n      add\n        /* \"#utility.yul\":29417:29436   */\n      swap1\n      pop\n        /* \"#utility.yul\":29076:29442   */\n      swap2\n      swap1\n      pop\n      jump\t// out\n        /* \"#utility.yul\":29448:29867   */\n    tag_211:\n        /* \"#utility.yul\":29614:29618   */\n      0x00\n        /* \"#utility.yul\":29652:29654   */\n      0x20\n        /* \"#utility.yul\":29641:29650   */\n      dup3\n        /* \"#utility.yul\":29637:29655   */\n      add\n        /* \"#utility.yul\":29629:29655   */\n      swap1\n      pop\n        /* \"#utility.yul\":29701:29710   */\n      dup2\n        /* \"#utility.yul\":29695:29699   */\n      dup2\n        /* \"#utility.yul\":29691:29711   */\n      sub\n        /* \"#utility.yul\":29687:29688   */\n      0x00\n        /* \"#utility.yul\":29676:29685   */\n      dup4\n        /* \"#utility.yul\":29672:29689   */\n      add\n        /* \"#utility.yul\":29665:29712   */\n      mstore\n        /* \"#utility.yul\":29729:29860   */\n      tag_607\n        /* \"#utility.yul\":29855:29859   */\n      dup2\n        /* \"#utility.yul\":29729:29860   */\n      tag_308\n      jump\t// in\n    tag_607:\n        /* \"#utility.yul\":29721:29860   */\n      swap1\n      pop\n        /* \"#utility.yul\":29448:29867   */\n      swap2\n      swap1\n      pop\n      jump\t// out\n        /* \"#utility.yul\":29873:30036   */\n    tag_309:\n        /* \"#utility.yul\":30013:30028   */\n      0x416c726561647920766f74656400000000000000000000000000000000000000\n        /* \"#utility.yul\":30009:30010   */\n      0x00\n        /* \"#utility.yul\":30001:30007   */\n      dup3\n        /* \"#utility.yul\":29997:30011   */\n      add\n        /* \"#utility.yul\":29990:30029   */\n      mstore\n        /* \"#utility.yul\":29873:30036   */\n      pop\n      jump\t// out\n        /* \"#utility.yul\":30042:30408   */\n    tag_310:\n        /* \"#utility.yul\":30184:30187   */\n      0x00\n        /* \"#utility.yul\":30205:30272   */\n      tag_610\n        /* \"#utility.yul\":30269:30271   */\n      0x0d\n        /* \"#utility.yul\":30264:30267   */\n      dup4\n        /* \"#utility.yul\":30205:30272   */\n      tag_241\n      jump\t// in\n    tag_610:\n        /* \"#utility.yul\":30198:30272   */\n      swap2\n      pop\n        /* \"#utility.yul\":30281:30374   */\n      tag_611\n        /* \"#utility.yul\":30370:30373   */\n      dup3\n        /* \"#utility.yul\":30281:30374   */\n      tag_309\n      jump\t// in\n    tag_611:\n        /* \"#utility.yul\":30399:30401   */\n      0x20\n        /* \"#utility.yul\":30394:30397   */\n      dup3\n        /* \"#utility.yul\":30390:30402   */\n      add\n        /* \"#utility.yul\":30383:30402   */\n      swap1\n      pop\n        /* \"#utility.yul\":30042:30408   */\n      swap2\n      swap1\n      pop\n      jump\t// out\n        /* \"#utility.yul\":30414:30833   */\n    tag_214:\n        /* \"#utility.yul\":30580:30584   */\n      0x00\n        /* \"#utility.yul\":30618:30620   */\n      0x20\n        /* \"#utility.yul\":30607:30616   */\n      dup3\n        /* \"#utility.yul\":30603:30621   */\n      add\n        /* \"#utility.yul\":30595:30621   */\n      swap1\n      pop\n        /* \"#utility.yul\":30667:30676   */\n      dup2\n        /* \"#utility.yul\":30661:30665   */\n      dup2\n        /* \"#utility.yul\":30657:30677   */\n      sub\n        /* \"#utility.yul\":30653:30654   */\n      0x00\n        /* \"#utility.yul\":30642:30651   */\n      dup4\n        /* \"#utility.yul\":30638:30655   */\n      add\n        /* \"#utility.yul\":30631:30678   */\n      mstore\n        /* \"#utility.yul\":30695:30826   */\n      tag_613\n        /* \"#utility.yul\":30821:30825   */\n      dup2\n        /* \"#utility.yul\":30695:30826   */\n      tag_310\n      jump\t// in\n    tag_613:\n        /* \"#utility.yul\":30687:30826   */\n      swap1\n      pop\n        /* \"#utility.yul\":30414:30833   */\n      swap2\n      swap1\n      pop\n      jump\t// out\n\n    auxdata: 0xa2646970667358221220e2e0c39c8e9b2247793ef17546f46323fd1fe91f0093a9f61806869599041e9f64736f6c63430008140033\n}\n",
				"bytecode": {
					"linkReferences": {},
					"object": "608060405234801562000010575f80fd5b50600180819055505f805f60015481526020019081526020015f209050734511277f98ba4282705da1c250110e24aa2f88a2815f015f6101000a81548173ffffffffffffffffffffffffffffffffffffffff021916908373ffffffffffffffffffffffffffffffffffffffff1602179055506040518060400160405280600481526020017f7465737400000000000000000000000000000000000000000000000000000000815250816001019081620000ca9190620021aa565b506040518060400160405280600781526020017f73747564656e7400000000000000000000000000000000000000000000000000815250816002019081620001139190620021aa565b5063681f310881600301819055505f816004015f6101000a81548160ff0219169083151502179055505f81600501819055505f8160060181905550600181600801819055505f60025f60015481526020019081526020015f205f600181526020019081526020015f209050734511277f98ba4282705da1c250110e24aa2f88a2815f015f6101000a81548173ffffffffffffffffffffffffffffffffffffffff021916908373ffffffffffffffffffffffffffffffffffffffff16021790555060405180606001604052806029815260200162004dd460299139816001019081620001ff9190620021aa565b506040518060400160405280600781526020017f73747564656e7400000000000000000000000000000000000000000000000000815250816002019081620002489190620021aa565b5063681f314c8160030181905550815f015f9054906101000a900473ffffffffffffffffffffffffffffffffffffffff1673ffffffffffffffffffffffffffffffffffffffff166001547f5475621b07408f75d49c828caa5aeacb3a5e98d3497e75730dc184677504401c8460020185600101604051620002cb9291906200232b565b60405180910390a3805f015f9054906101000a900473ffffffffffffffffffffffffffffffffffffffff1673ffffffffffffffffffffffffffffffffffffffff16600180547f03a56e2377acf256c15a50f0b97834fa29a151d0b8a6d05c450576e40634fadc8460010185600201604051620003499291906200232b565b60405180910390a460015f815480929190620003659062002391565b91905055505f805f60015481526020019081526020015f209050734511277f98ba4282705da1c250110e24aa2f88a2815f015f6101000a81548173ffffffffffffffffffffffffffffffffffffffff021916908373ffffffffffffffffffffffffffffffffffffffff16021790555060405180606001604052806026815260200162004ee860269139816001019081620004009190620021aa565b506040518060400160405280600981526020017f70726f666573736f720000000000000000000000000000000000000000000000815250816002019081620004499190620021aa565b5063681f31b081600301819055506001816004015f6101000a81548160ff0219169083151502179055505f816005018190555060018160060181905550600381600801819055505f60025f60015481526020019081526020015f205f600181526020019081526020015f209050734511277f98ba4282705da1c250110e24aa2f88a2815f015f6101000a81548173ffffffffffffffffffffffffffffffffffffffff021916908373ffffffffffffffffffffffffffffffffffffffff1602179055506040518060600160405280602f815260200162004c4a602f9139816001019081620005379190620021aa565b506040518060400160405280600781526020017f73747564656e7400000000000000000000000000000000000000000000000000815250816002019081620005809190620021aa565b5063681f327881600301819055505f60025f60015481526020019081526020015f205f600281526020019081526020015f209050733fc91a3afd70395cd496c647d5a6cc9d4b2b7fad815f015f6101000a81548173ffffffffffffffffffffffffffffffffffffffff021916908373ffffffffffffffffffffffffffffffffffffffff1602179055506040518060600160405280602f815260200162004bcd602f9139816001019081620006359190620021aa565b506040518060400160405280600781526020017f73747564656e74000000000000000000000000000000000000000000000000008152508160020190816200067e9190620021aa565b5063681f334081600301819055505f60025f60015481526020019081526020015f205f600381526020019081526020015f20905073a983d7e14ac1aaf050bb64fdab1024ae9c93c956815f015f6101000a81548173ffffffffffffffffffffffffffffffffffffffff021916908373ffffffffffffffffffffffffffffffffffffffff1602179055506040518060c00160405280608f815260200162004d45608f9139816001019081620007339190620021aa565b506040518060400160405280600781526020017f73747564656e74000000000000000000000000000000000000000000000000008152508160020190816200077c9190620021aa565b5063681f4fbc8160030181905550835f015f9054906101000a900473ffffffffffffffffffffffffffffffffffffffff1673ffffffffffffffffffffffffffffffffffffffff166001547f5475621b07408f75d49c828caa5aeacb3a5e98d3497e75730dc184677504401c8660020187600101604051620007ff9291906200232b565b60405180910390a3825f015f9054906101000a900473ffffffffffffffffffffffffffffffffffffffff1673ffffffffffffffffffffffffffffffffffffffff16600180547f03a56e2377acf256c15a50f0b97834fa29a151d0b8a6d05c450576e40634fadc86600101876002016040516200087d9291906200232b565b60405180910390a4815f015f9054906101000a900473ffffffffffffffffffffffffffffffffffffffff1673ffffffffffffffffffffffffffffffffffffffff1660026001547f03a56e2377acf256c15a50f0b97834fa29a151d0b8a6d05c450576e40634fadc8560010186600201604051620008fc9291906200232b565b60405180910390a4805f015f9054906101000a900473ffffffffffffffffffffffffffffffffffffffff1673ffffffffffffffffffffffffffffffffffffffff1660036001547f03a56e2377acf256c15a50f0b97834fa29a151d0b8a6d05c450576e40634fadc84600101856002016040516200097b9291906200232b565b60405180910390a460015f815480929190620009979062002391565b91905055505f805f60015481526020019081526020015f2090507378731d3ca6b7e34ac0f824c42a7cc18a495cabab815f015f6101000a81548173ffffffffffffffffffffffffffffffffffffffff021916908373ffffffffffffffffffffffffffffffffffffffff16021790555060405180608001604052806042815260200162004a2d6042913981600101908162000a329190620021aa565b506040518060400160405280600781526020017f73747564656e740000000000000000000000000000000000000000000000000081525081600201908162000a7b9190620021aa565b506368229cfc81600301819055505f816004015f6101000a81548160ff021916908315150217905550600181600501819055505f8160060181905550600281600801819055505f60025f60015481526020019081526020015f205f600181526020019081526020015f209050733fc91a3afd70395cd496c647d5a6cc9d4b2b7fad815f015f6101000a81548173ffffffffffffffffffffffffffffffffffffffff021916908373ffffffffffffffffffffffffffffffffffffffff1602179055506040518060800160405280604d815260200162004e9b604d913981600101908162000b689190620021aa565b506040518060400160405280600581526020017f737461666600000000000000000000000000000000000000000000000000000081525081600201908162000bb19190620021aa565b506368229d7881600301819055505f60025f60015481526020019081526020015f205f600281526020019081526020015f20905073a983d7e14ac1aaf050bb64fdab1024ae9c93c956815f015f6101000a81548173ffffffffffffffffffffffffffffffffffffffff021916908373ffffffffffffffffffffffffffffffffffffffff1602179055506040518060800160405280604e815260200162004bfc604e913981600101908162000c669190620021aa565b506040518060400160405280600981526020017f70726f666573736f72000000000000000000000000000000000000000000000081525081600201908162000caf9190620021aa565b5063681f4f68816003018190555060015f8060015481526020019081526020015f206007015f835f015f9054906101000a900473ffffffffffffffffffffffffffffffffffffffff1673ffffffffffffffffffffffffffffffffffffffff1673ffffffffffffffffffffffffffffffffffffffff1681526020019081526020015f205f6101000a81548160ff021916908315150217905550825f015f9054906101000a900473ffffffffffffffffffffffffffffffffffffffff1673ffffffffffffffffffffffffffffffffffffffff166001547f5475621b07408f75d49c828caa5aeacb3a5e98d3497e75730dc184677504401c856002018660010160405162000dbc9291906200232b565b60405180910390a3815f015f9054906101000a900473ffffffffffffffffffffffffffffffffffffffff1673ffffffffffffffffffffffffffffffffffffffff16600180547f03a56e2377acf256c15a50f0b97834fa29a151d0b8a6d05c450576e40634fadc856001018660020160405162000e3a9291906200232b565b60405180910390a4805f015f9054906101000a900473ffffffffffffffffffffffffffffffffffffffff1673ffffffffffffffffffffffffffffffffffffffff1660026001547f03a56e2377acf256c15a50f0b97834fa29a151d0b8a6d05c450576e40634fadc846001018560020160405162000eb99291906200232b565b60405180910390a460015f81548092919062000ed59062002391565b91905055505f805f60015481526020019081526020015f209050734511277f98ba4282705da1c250110e24aa2f88a2815f015f6101000a81548173ffffffffffffffffffffffffffffffffffffffff021916908373ffffffffffffffffffffffffffffffffffffffff16021790555060405180606001604052806024815260200162004b626024913981600101908162000f709190620021aa565b506040518060400160405280600581526020017f737461666600000000000000000000000000000000000000000000000000000081525081600201908162000fb99190620021aa565b5063681f5fc881600301819055506001816004015f6101000a81548160ff0219169083151502179055505f816005018190555060038160060181905550600381600801819055505f60025f60015481526020019081526020015f205f600181526020019081526020015f209050735b38da6a701c568545dcfcb03fcb875f56beddc4815f015f6101000a81548173ffffffffffffffffffffffffffffffffffffffff021916908373ffffffffffffffffffffffffffffffffffffffff1602179055506040518060c0016040528060868152602001620049a760869139816001019081620010a79190620021aa565b506040518060400160405280600781526020017f73747564656e7400000000000000000000000000000000000000000000000000815250816002019081620010f09190620021aa565b5063681f6414816003018190555060015f8060015481526020019081526020015f206007015f835f015f9054906101000a900473ffffffffffffffffffffffffffffffffffffffff1673ffffffffffffffffffffffffffffffffffffffff1673ffffffffffffffffffffffffffffffffffffffff1681526020019081526020015f205f6101000a81548160ff0219169083151502179055505f60025f60015481526020019081526020015f205f600281526020019081526020015f20905073617f2e2fd72fd9d5503197092ac168c91465e7f2815f015f6101000a81548173ffffffffffffffffffffffffffffffffffffffff021916908373ffffffffffffffffffffffffffffffffffffffff16021790555060405180606001604052806037815260200162004d0e603791398160010190816200122f9190620021aa565b506040518060400160405280600781526020017f73747564656e7400000000000000000000000000000000000000000000000000815250816002019081620012789190620021aa565b5063681f6860816003018190555060015f8060015481526020019081526020015f206007015f835f015f9054906101000a900473ffffffffffffffffffffffffffffffffffffffff1673ffffffffffffffffffffffffffffffffffffffff1673ffffffffffffffffffffffffffffffffffffffff1681526020019081526020015f205f6101000a81548160ff0219169083151502179055505f60025f60015481526020019081526020015f205f600381526020019081526020015f20905073a983d7e14ac1aaf050bb64fdab1024ae9c93c956815f015f6101000a81548173ffffffffffffffffffffffffffffffffffffffff021916908373ffffffffffffffffffffffffffffffffffffffff16021790555060405180608001604052806047815260200162004b8660479139816001019081620013b79190620021aa565b506040518060400160405280600781526020017f73747564656e7400000000000000000000000000000000000000000000000000815250816002019081620014009190620021aa565b5063681f6cac816003018190555060015f8060015481526020019081526020015f206007015f835f015f9054906101000a900473ffffffffffffffffffffffffffffffffffffffff1673ffffffffffffffffffffffffffffffffffffffff1673ffffffffffffffffffffffffffffffffffffffff1681526020019081526020015f205f6101000a81548160ff021916908315150217905550835f015f9054906101000a900473ffffffffffffffffffffffffffffffffffffffff1673ffffffffffffffffffffffffffffffffffffffff166001547f5475621b07408f75d49c828caa5aeacb3a5e98d3497e75730dc184677504401c86600201876001016040516200150d9291906200232b565b60405180910390a3825f015f9054906101000a900473ffffffffffffffffffffffffffffffffffffffff1673ffffffffffffffffffffffffffffffffffffffff16600180547f03a56e2377acf256c15a50f0b97834fa29a151d0b8a6d05c450576e40634fadc86600101876002016040516200158b9291906200232b565b60405180910390a4815f015f9054906101000a900473ffffffffffffffffffffffffffffffffffffffff1673ffffffffffffffffffffffffffffffffffffffff1660026001547f03a56e2377acf256c15a50f0b97834fa29a151d0b8a6d05c450576e40634fadc85600101866002016040516200160a9291906200232b565b60405180910390a4805f015f9054906101000a900473ffffffffffffffffffffffffffffffffffffffff1673ffffffffffffffffffffffffffffffffffffffff1660036001547f03a56e2377acf256c15a50f0b97834fa29a151d0b8a6d05c450576e40634fadc8460010185600201604051620016899291906200232b565b60405180910390a460015f815480929190620016a59062002391565b91905055505f805f60015481526020019081526020015f209050731111111111111111111111111111111111111111815f015f6101000a81548173ffffffffffffffffffffffffffffffffffffffff021916908373ffffffffffffffffffffffffffffffffffffffff16021790555060405180610120016040528060f3815260200162004a6f60f39139816001019081620017419190620021aa565b506040518060400160405280600981526020017f70726f666573736f7200000000000000000000000000000000000000000000008152508160020190816200178a9190620021aa565b50636821ec2081600301819055506001816004015f6101000a81548160ff02191690831515021790555060028160050181905550600281600601819055506002816008018190555060015f8060015481526020019081526020015f206007015f73222222222222222222222222222222222222222273ffffffffffffffffffffffffffffffffffffffff1673ffffffffffffffffffffffffffffffffffffffff1681526020019081526020015f205f6101000a81548160ff02191690831515021790555060015f8060015481526020019081526020015f206007015f73333333333333333333333333333333333333333373ffffffffffffffffffffffffffffffffffffffff1673ffffffffffffffffffffffffffffffffffffffff1681526020019081526020015f205f6101000a81548160ff02191690831515021790555060015f8060015481526020019081526020015f206007015f73444444444444444444444444444444444444444473ffffffffffffffffffffffffffffffffffffffff1673ffffffffffffffffffffffffffffffffffffffff1681526020019081526020015f205f6101000a81548160ff02191690831515021790555060015f8060015481526020019081526020015f206007015f73555555555555555555555555555555555555555573ffffffffffffffffffffffffffffffffffffffff1673ffffffffffffffffffffffffffffffffffffffff1681526020019081526020015f205f6101000a81548160ff0219169083151502179055505f60025f60015481526020019081526020015f205f600181526020019081526020015f209050736666666666666666666666666666666666666666815f015f6101000a81548173ffffffffffffffffffffffffffffffffffffffff021916908373ffffffffffffffffffffffffffffffffffffffff1602179055506040518060c00160405280609e815260200162004dfd609e913981600101908162001a699190620021aa565b506040518060400160405280600781526020017f73747564656e740000000000000000000000000000000000000000000000000081525081600201908162001ab29190620021aa565b50636821ec8481600301819055505f60025f60015481526020019081526020015f205f600281526020019081526020015f209050737777777777777777777777777777777777777777815f015f6101000a81548173ffffffffffffffffffffffffffffffffffffffff021916908373ffffffffffffffffffffffffffffffffffffffff1602179055506040518060c001604052806095815260200162004c796095913981600101908162001b679190620021aa565b506040518060400160405280600981526020017f70726f666573736f72000000000000000000000000000000000000000000000081525081600201908162001bb09190620021aa565b50636821ece88160030181905550825f015f9054906101000a900473ffffffffffffffffffffffffffffffffffffffff1673ffffffffffffffffffffffffffffffffffffffff166001547f5475621b07408f75d49c828caa5aeacb3a5e98d3497e75730dc184677504401c856002018660010160405162001c339291906200232b565b60405180910390a373222222222222222222222222222222222222222273ffffffffffffffffffffffffffffffffffffffff166001547fedc96ef82a3fd8ea664dd4fe50f94c77be3c3d6130792c3ed8b0199e3c28ec6260405160405180910390a373222222222222222222222222222222222222222273ffffffffffffffffffffffffffffffffffffffff166001547fe71fcdac32df1877c1700e7bda2a03157e20993363a28fc35ac495cefc76e4d4600160405162001cf59190620023f9565b60405180910390a373333333333333333333333333333333333333333373ffffffffffffffffffffffffffffffffffffffff166001547fe71fcdac32df1877c1700e7bda2a03157e20993363a28fc35ac495cefc76e4d45f60405162001d5c9190620023f9565b60405180910390a373444444444444444444444444444444444444444473ffffffffffffffffffffffffffffffffffffffff166001547fe71fcdac32df1877c1700e7bda2a03157e20993363a28fc35ac495cefc76e4d4600160405162001dc49190620023f9565b60405180910390a373555555555555555555555555555555555555555573ffffffffffffffffffffffffffffffffffffffff166001547fe71fcdac32df1877c1700e7bda2a03157e20993363a28fc35ac495cefc76e4d45f60405162001e2b9190620023f9565b60405180910390a3815f015f9054906101000a900473ffffffffffffffffffffffffffffffffffffffff1673ffffffffffffffffffffffffffffffffffffffff16600180547f03a56e2377acf256c15a50f0b97834fa29a151d0b8a6d05c450576e40634fadc856001018660020160405162001ea99291906200232b565b60405180910390a4805f015f9054906101000a900473ffffffffffffffffffffffffffffffffffffffff1673ffffffffffffffffffffffffffffffffffffffff1660026001547f03a56e2377acf256c15a50f0b97834fa29a151d0b8a6d05c450576e40634fadc846001018560020160405162001f289291906200232b565b60405180910390a45050505050505050505050505050505062002414565b5f81519050919050565b7f4e487b71000000000000000000000000000000000000000000000000000000005f52604160045260245ffd5b7f4e487b71000000000000000000000000000000000000000000000000000000005f52602260045260245ffd5b5f600282049050600182168062001fc257607f821691505b60208210810362001fd85762001fd762001f7d565b5b50919050565b5f819050815f5260205f209050919050565b5f6020601f8301049050919050565b5f82821b905092915050565b5f600883026200203c7fffffffffffffffffffffffffffffffffffffffffffffffffffffffffffffffff8262001fff565b62002048868362001fff565b95508019841693508086168417925050509392505050565b5f819050919050565b5f819050919050565b5f620020926200208c620020868462002060565b62002069565b62002060565b9050919050565b5f819050919050565b620020ad8362002072565b620020c5620020bc8262002099565b8484546200200b565b825550505050565b5f90565b620020db620020cd565b620020e8818484620020a2565b505050565b5b818110156200210f57620021035f82620020d1565b600181019050620020ee565b5050565b601f8211156200215e57620021288162001fde565b620021338462001ff0565b8101602085101562002143578190505b6200215b620021528562001ff0565b830182620020ed565b50505b505050565b5f82821c905092915050565b5f620021805f198460080262002163565b1980831691505092915050565b5f6200219a83836200216f565b9150826002028217905092915050565b620021b58262001f46565b67ffffffffffffffff811115620021d157620021d062001f50565b5b620021dd825462001faa565b620021ea82828562002113565b5f60209050601f83116001811462002220575f84156200220b578287015190505b6200221785826200218d565b86555062002286565b601f198416620022308662001fde565b5f5b82811015620022595784890151825560018201915060208501945060208101905062002232565b8683101562002279578489015162002275601f8916826200216f565b8355505b6001600288020188555050505b505050505050565b5f82825260208201905092915050565b5f8154620022ac8162001faa565b620022b881866200228e565b9450600182165f8114620022d55760018114620022ec5762002322565b60ff19831686528115156020028601935062002322565b620022f78562001fde565b5f5b838110156200231a57815481890152600182019150602081019050620022f9565b808801955050505b50505092915050565b5f6040820190508181035f8301526200234581856200229e565b905081810360208301526200235b81846200229e565b90509392505050565b7f4e487b71000000000000000000000000000000000000000000000000000000005f52601160045260245ffd5b5f6200239d8262002060565b91507fffffffffffffffffffffffffffffffffffffffffffffffffffffffffffffffff8203620023d257620023d162002364565b5b600182019050919050565b5f8115159050919050565b620023f381620023dd565b82525050565b5f6020820190506200240e5f830184620023e8565b92915050565b61258580620024225f395ff3fe608060405234801561000f575f80fd5b50600436106100a7575f3560e01c8063392338f51161006f578063392338f51461018057806340731c241461019c57806343859632146101d357806348892753146102035780636305dd2314610236578063fc6c776f14610252576100a7565b80630b1e7f83146100ab5780630d4bfb4f146100e25780631521e6161461011257806317906c2e1461012e57806325cfb1c51461014c575b5f80fd5b6100c560048036038101906100c0919061164a565b610285565b6040516100d9989796959493929190611767565b60405180910390f35b6100fc60048036038101906100f7919061164a565b6103ff565b60405161010991906117f1565b60405180910390f35b61012c60048036038101906101279190611936565b61046b565b005b61013661061c565b60405161014391906117f1565b60405180910390f35b610166600480360381019061016191906119be565b610622565b604051610177959493929190611c7f565b60405180910390f35b61019a60048036038101906101959190611cec565b610bcf565b005b6101b660048036038101906101b1919061164a565b610cf7565b6040516101ca989796959493929190611767565b60405180910390f35b6101ed60048036038101906101e89190611d8c565b610ee3565b6040516101fa9190611dca565b60405180910390f35b61021d60048036038101906102189190611de3565b610f97565b60405161022d9493929190611e21565b60405180910390f35b610250600480360381019061024b9190611e9c565b6111c6565b005b61026c60048036038101906102679190611de3565b6114a4565b60405161027c9493929190611e21565b60405180910390f35b5f602052805f5260405f205f91509050805f015f9054906101000a900473ffffffffffffffffffffffffffffffffffffffff16908060010180546102c890611f07565b80601f01602080910402602001604051908101604052809291908181526020018280546102f490611f07565b801561033f5780601f106103165761010080835404028352916020019161033f565b820191905f5260205f20905b81548152906001019060200180831161032257829003601f168201915b50505050509080600201805461035490611f07565b80601f016020809104026020016040519081016040528092919081815260200182805461038090611f07565b80156103cb5780601f106103a2576101008083540402835291602001916103cb565b820191905f5260205f20905b8154815290600101906020018083116103ae57829003601f168201915b505050505090806003015490806004015f9054906101000a900460ff16908060050154908060060154908060080154905088565b5f808211801561041157506001548211155b610450576040517f08c379a000000000000000000000000000000000000000000000000000000000815260040161044790611f81565b60405180910390fd5b5f808381526020019081526020015f20600801549050919050565b5f8311801561047c57506001548311155b6104bb576040517f08c379a00000000000000000000000000000000000000000000000000000000081526004016104b290611f81565b60405180910390fd5b5f8251116104fe576040517f08c379a00000000000000000000000000000000000000000000000000000000081526004016104f590611fe9565b60405180910390fd5b5f805f8581526020019081526020015f209050806008015f81548092919061052590612034565b91905055505f60025f8681526020019081526020015f205f836008015481526020019081526020015f20905033815f015f6101000a81548173ffffffffffffffffffffffffffffffffffffffff021916908373ffffffffffffffffffffffffffffffffffffffff160217905550838160010190816105a39190612218565b50828160020190816105b59190612218565b504281600301819055503373ffffffffffffffffffffffffffffffffffffffff168260080154867f03a56e2377acf256c15a50f0b97834fa29a151d0b8a6d05c450576e40634fadc878760405161060d9291906122e7565b60405180910390a45050505050565b60015481565b6060806060805f808811801561063a57506001548811155b610679576040517f08c379a000000000000000000000000000000000000000000000000000000000815260040161067090611f81565b60405180910390fd5b5f87116106bb576040517f08c379a00000000000000000000000000000000000000000000000000000000081526004016106b290612366565b60405180910390fd5b5f805f8a81526020019081526020015f2060080154905080915080881115610819575f67ffffffffffffffff8111156106f7576106f6611812565b5b6040519080825280602002602001820160405280156107255781602001602082028036833780820191505090505b505f67ffffffffffffffff8111156107405761073f611812565b5b60405190808252806020026020018201604052801561077357816020015b606081526020019060019003908161075e5790505b505f67ffffffffffffffff81111561078e5761078d611812565b5b6040519080825280602002602001820160405280156107c157816020015b60608152602001906001900390816107ac5790505b505f67ffffffffffffffff8111156107dc576107db611812565b5b60405190808252806020026020018201604052801561080a5781602001602082028036833780820191505090505b50955095509550955050610bc4565b5f879050601481111561082b57601490505b5f60018a8461083a9190612384565b61084491906123b7565b905080821115610852578091505b8167ffffffffffffffff81111561086c5761086b611812565b5b60405190808252806020026020018201604052801561089a5781602001602082028036833780820191505090505b5097508167ffffffffffffffff8111156108b7576108b6611812565b5b6040519080825280602002602001820160405280156108ea57816020015b60608152602001906001900390816108d55790505b5096508167ffffffffffffffff81111561090757610906611812565b5b60405190808252806020026020018201604052801561093a57816020015b60608152602001906001900390816109255790505b5095508167ffffffffffffffff81111561095757610956611812565b5b6040519080825280602002602001820160405280156109855781602001602082028036833780820191505090505b5094505f5b82811015610bbf575f818c61099f91906123b7565b90505f60025f8f81526020019081526020015f205f8381526020019081526020015f209050805f015f9054906101000a900473ffffffffffffffffffffffffffffffffffffffff168b84815181106109fa576109f96123ea565b5b602002602001019073ffffffffffffffffffffffffffffffffffffffff16908173ffffffffffffffffffffffffffffffffffffffff1681525050806001018054610a4390611f07565b80601f0160208091040260200160405190810160405280929190818152602001828054610a6f90611f07565b8015610aba5780601f10610a9157610100808354040283529160200191610aba565b820191905f5260205f20905b815481529060010190602001808311610a9d57829003601f168201915b50505050508a8481518110610ad257610ad16123ea565b5b6020026020010181905250806002018054610aec90611f07565b80601f0160208091040260200160405190810160405280929190818152602001828054610b1890611f07565b8015610b635780601f10610b3a57610100808354040283529160200191610b63565b820191905f5260205f20905b815481529060010190602001808311610b4657829003601f168201915b5050505050898481518110610b7b57610b7a6123ea565b5b60200260200101819052508060030154888481518110610b9e57610b9d6123ea565b5b60200260200101818152505050508080610bb790612034565b91505061098a565b505050505b939792965093509350565b60015f815480929190610be190612034565b91905055505f805f60015481526020019081526020015f20905033815f015f6101000a81548173ffffffffffffffffffffffffffffffffffffffff021916908373ffffffffffffffffffffffffffffffffffffffff16021790555082816001019081610c4d9190612218565b5081816002019081610c5f9190612218565b504281600301819055505f816004015f6101000a81548160ff0219169083151502179055505f81600501819055505f81600601819055505f81600801819055503373ffffffffffffffffffffffffffffffffffffffff166001547f5475621b07408f75d49c828caa5aeacb3a5e98d3497e75730dc184677504401c8486604051610cea9291906122e7565b60405180910390a3505050565b5f6060805f805f805f8089118015610d1157506001548911155b610d50576040517f08c379a0000000000000000000000000000000000000000000000000000000008152600401610d4790611f81565b60405180910390fd5b5f805f8b81526020019081526020015f209050805f015f9054906101000a900473ffffffffffffffffffffffffffffffffffffffff1681600101826002018360030154846004015f9054906101000a900460ff16856005015486600601548760080154868054610dbf90611f07565b80601f0160208091040260200160405190810160405280929190818152602001828054610deb90611f07565b8015610e365780601f10610e0d57610100808354040283529160200191610e36565b820191905f5260205f20905b815481529060010190602001808311610e1957829003601f168201915b50505050509650858054610e4990611f07565b80601f0160208091040260200160405190810160405280929190818152602001828054610e7590611f07565b8015610ec05780601f10610e9757610100808354040283529160200191610ec0565b820191905f5260205f20905b815481529060010190602001808311610ea357829003601f168201915b505050505095509850985098509850985098509850985050919395975091939597565b5f8083118015610ef557506001548311155b610f34576040517f08c379a0000000000000000000000000000000000000000000000000000000008152600401610f2b90611f81565b60405180910390fd5b5f808481526020019081526020015f206007015f8373ffffffffffffffffffffffffffffffffffffffff1673ffffffffffffffffffffffffffffffffffffffff1681526020019081526020015f205f9054906101000a900460ff16905092915050565b5f6060805f8086118015610fad57506001548611155b610fec576040517f08c379a0000000000000000000000000000000000000000000000000000000008152600401610fe390611f81565b60405180910390fd5b5f8511801561100e57505f808781526020019081526020015f20600801548511155b61104d576040517f08c379a000000000000000000000000000000000000000000000000000000000815260040161104490612461565b60405180910390fd5b5f60025f8881526020019081526020015f205f8781526020019081526020015f209050805f015f9054906101000a900473ffffffffffffffffffffffffffffffffffffffff16816001018260020183600301548280546110ac90611f07565b80601f01602080910402602001604051908101604052809291908181526020018280546110d890611f07565b80156111235780601f106110fa57610100808354040283529160200191611123565b820191905f5260205f20905b81548152906001019060200180831161110657829003601f168201915b5050505050925081805461113690611f07565b80601f016020809104026020016040519081016040528092919081815260200182805461116290611f07565b80156111ad5780601f10611184576101008083540402835291602001916111ad565b820191905f5260205f20905b81548152906001019060200180831161119057829003601f168201915b5050505050915094509450945094505092959194509250565b5f821180156111d757506001548211155b611216576040517f08c379a000000000000000000000000000000000000000000000000000000000815260040161120d90611f81565b60405180910390fd5b5f805f8481526020019081526020015f2090503373ffffffffffffffffffffffffffffffffffffffff16815f015f9054906101000a900473ffffffffffffffffffffffffffffffffffffffff1673ffffffffffffffffffffffffffffffffffffffff16036112b9576040517f08c379a00000000000000000000000000000000000000000000000000000000081526004016112b0906124c9565b60405180910390fd5b806007015f3373ffffffffffffffffffffffffffffffffffffffff1673ffffffffffffffffffffffffffffffffffffffff1681526020019081526020015f205f9054906101000a900460ff1615611345576040517f08c379a000000000000000000000000000000000000000000000000000000000815260040161133c90612531565b60405180910390fd5b806004015f9054906101000a900460ff166113bb576001816004015f6101000a81548160ff0219169083151502179055503373ffffffffffffffffffffffffffffffffffffffff16837fedc96ef82a3fd8ea664dd4fe50f94c77be3c3d6130792c3ed8b0199e3c28ec6260405160405180910390a35b6001816007015f3373ffffffffffffffffffffffffffffffffffffffff1673ffffffffffffffffffffffffffffffffffffffff1681526020019081526020015f205f6101000a81548160ff021916908315150217905550811561143657806005015f81548092919061142c90612034565b9190505550611450565b806006015f81548092919061144a90612034565b91905055505b3373ffffffffffffffffffffffffffffffffffffffff16837fe71fcdac32df1877c1700e7bda2a03157e20993363a28fc35ac495cefc76e4d4846040516114979190611dca565b60405180910390a3505050565b6002602052815f5260405f20602052805f5260405f205f9150915050805f015f9054906101000a900473ffffffffffffffffffffffffffffffffffffffff16908060010180546114f390611f07565b80601f016020809104026020016040519081016040528092919081815260200182805461151f90611f07565b801561156a5780601f106115415761010080835404028352916020019161156a565b820191905f5260205f20905b81548152906001019060200180831161154d57829003601f168201915b50505050509080600201805461157f90611f07565b80601f01602080910402602001604051908101604052809291908181526020018280546115ab90611f07565b80156115f65780601f106115cd576101008083540402835291602001916115f6565b820191905f5260205f20905b8154815290600101906020018083116115d957829003601f168201915b5050505050908060030154905084565b5f604051905090565b5f80fd5b5f80fd5b5f819050919050565b61162981611617565b8114611633575f80fd5b50565b5f8135905061164481611620565b92915050565b5f6020828403121561165f5761165e61160f565b5b5f61166c84828501611636565b91505092915050565b5f73ffffffffffffffffffffffffffffffffffffffff82169050919050565b5f61169e82611675565b9050919050565b6116ae81611694565b82525050565b5f81519050919050565b5f82825260208201905092915050565b5f5b838110156116eb5780820151818401526020810190506116d0565b5f8484015250505050565b5f601f19601f8301169050919050565b5f611710826116b4565b61171a81856116be565b935061172a8185602086016116ce565b611733816116f6565b840191505092915050565b61174781611617565b82525050565b5f8115159050919050565b6117618161174d565b82525050565b5f6101008201905061177b5f83018b6116a5565b818103602083015261178d818a611706565b905081810360408301526117a18189611706565b90506117b0606083018861173e565b6117bd6080830187611758565b6117ca60a083018661173e565b6117d760c083018561173e565b6117e460e083018461173e565b9998505050505050505050565b5f6020820190506118045f83018461173e565b92915050565b5f80fd5b5f80fd5b7f4e487b71000000000000000000000000000000000000000000000000000000005f52604160045260245ffd5b611848826116f6565b810181811067ffffffffffffffff8211171561186757611866611812565b5b80604052505050565b5f611879611606565b9050611885828261183f565b919050565b5f67ffffffffffffffff8211156118a4576118a3611812565b5b6118ad826116f6565b9050602081019050919050565b828183375f83830152505050565b5f6118da6118d58461188a565b611870565b9050828152602081018484840111156118f6576118f561180e565b5b6119018482856118ba565b509392505050565b5f82601f83011261191d5761191c61180a565b5b813561192d8482602086016118c8565b91505092915050565b5f805f6060848603121561194d5761194c61160f565b5b5f61195a86828701611636565b935050602084013567ffffffffffffffff81111561197b5761197a611613565b5b61198786828701611909565b925050604084013567ffffffffffffffff8111156119a8576119a7611613565b5b6119b486828701611909565b9150509250925092565b5f805f606084860312156119d5576119d461160f565b5b5f6119e286828701611636565b93505060206119f386828701611636565b9250506040611a0486828701611636565b9150509250925092565b5f81519050919050565b5f82825260208201905092915050565b5f819050602082019050919050565b611a4081611694565b82525050565b5f611a518383611a37565b60208301905092915050565b5f602082019050919050565b5f611a7382611a0e565b611a7d8185611a18565b9350611a8883611a28565b805f5b83811015611ab8578151611a9f8882611a46565b9750611aaa83611a5d565b925050600181019050611a8b565b5085935050505092915050565b5f81519050919050565b5f82825260208201905092915050565b5f819050602082019050919050565b5f82825260208201905092915050565b5f611b08826116b4565b611b128185611aee565b9350611b228185602086016116ce565b611b2b816116f6565b840191505092915050565b5f611b418383611afe565b905092915050565b5f602082019050919050565b5f611b5f82611ac5565b611b698185611acf565b935083602082028501611b7b85611adf565b805f5b85811015611bb65784840389528151611b978582611b36565b9450611ba283611b49565b925060208a01995050600181019050611b7e565b50829750879550505050505092915050565b5f81519050919050565b5f82825260208201905092915050565b5f819050602082019050919050565b611bfa81611617565b82525050565b5f611c0b8383611bf1565b60208301905092915050565b5f602082019050919050565b5f611c2d82611bc8565b611c378185611bd2565b9350611c4283611be2565b805f5b83811015611c72578151611c598882611c00565b9750611c6483611c17565b925050600181019050611c45565b5085935050505092915050565b5f60a0820190508181035f830152611c978188611a69565b90508181036020830152611cab8187611b55565b90508181036040830152611cbf8186611b55565b90508181036060830152611cd38185611c23565b9050611ce2608083018461173e565b9695505050505050565b5f8060408385031215611d0257611d0161160f565b5b5f83013567ffffffffffffffff811115611d1f57611d1e611613565b5b611d2b85828601611909565b925050602083013567ffffffffffffffff811115611d4c57611d4b611613565b5b611d5885828601611909565b9150509250929050565b611d6b81611694565b8114611d75575f80fd5b50565b5f81359050611d8681611d62565b92915050565b5f8060408385031215611da257611da161160f565b5b5f611daf85828601611636565b9250506020611dc085828601611d78565b9150509250929050565b5f602082019050611ddd5f830184611758565b92915050565b5f8060408385031215611df957611df861160f565b5b5f611e0685828601611636565b9250506020611e1785828601611636565b9150509250929050565b5f608082019050611e345f8301876116a5565b8181036020830152611e468186611706565b90508181036040830152611e5a8185611706565b9050611e69606083018461173e565b95945050505050565b611e7b8161174d565b8114611e85575f80fd5b50565b5f81359050611e9681611e72565b92915050565b5f8060408385031215611eb257611eb161160f565b5b5f611ebf85828601611636565b9250506020611ed085828601611e88565b9150509250929050565b7f4e487b71000000000000000000000000000000000000000000000000000000005f52602260045260245ffd5b5f6002820490506001821680611f1e57607f821691505b602082108103611f3157611f30611eda565b5b50919050565b7f496e76616c696420706f737420494400000000000000000000000000000000005f82015250565b5f611f6b600f836116be565b9150611f7682611f37565b602082019050919050565b5f6020820190508181035f830152611f9881611f5f565b9050919050565b7f436f6d6d656e742063616e6e6f7420626520656d7074790000000000000000005f82015250565b5f611fd36017836116be565b9150611fde82611f9f565b602082019050919050565b5f6020820190508181035f83015261200081611fc7565b9050919050565b7f4e487b71000000000000000000000000000000000000000000000000000000005f52601160045260245ffd5b5f61203e82611617565b91507fffffffffffffffffffffffffffffffffffffffffffffffffffffffffffffffff82036120705761206f612007565b5b600182019050919050565b5f819050815f5260205f209050919050565b5f6020601f8301049050919050565b5f82821b905092915050565b5f600883026120d77fffffffffffffffffffffffffffffffffffffffffffffffffffffffffffffffff8261209c565b6120e1868361209c565b95508019841693508086168417925050509392505050565b5f819050919050565b5f61211c61211761211284611617565b6120f9565b611617565b9050919050565b5f819050919050565b61213583612102565b61214961214182612123565b8484546120a8565b825550505050565b5f90565b61215d612151565b61216881848461212c565b505050565b5b8181101561218b576121805f82612155565b60018101905061216e565b5050565b601f8211156121d0576121a18161207b565b6121aa8461208d565b810160208510156121b9578190505b6121cd6121c58561208d565b83018261216d565b50505b505050565b5f82821c905092915050565b5f6121f05f19846008026121d5565b1980831691505092915050565b5f61220883836121e1565b9150826002028217905092915050565b612221826116b4565b67ffffffffffffffff81111561223a57612239611812565b5b6122448254611f07565b61224f82828561218f565b5f60209050601f831160018114612280575f841561226e578287015190505b61227885826121fd565b8655506122df565b601f19841661228e8661207b565b5f5b828110156122b557848901518255600182019150602085019450602081019050612290565b868310156122d257848901516122ce601f8916826121e1565b8355505b6001600288020188555050505b505050505050565b5f6040820190508181035f8301526122ff8185611706565b905081810360208301526123138184611706565b90509392505050565b7f5374617274204944206d7573742062652067726561746572207468616e2030005f82015250565b5f612350601f836116be565b915061235b8261231c565b602082019050919050565b5f6020820190508181035f83015261237d81612344565b9050919050565b5f61238e82611617565b915061239983611617565b92508282039050818111156123b1576123b0612007565b5b92915050565b5f6123c182611617565b91506123cc83611617565b92508282019050808211156123e4576123e3612007565b5b92915050565b7f4e487b71000000000000000000000000000000000000000000000000000000005f52603260045260245ffd5b7f496e76616c696420636f6d6d656e7420494400000000000000000000000000005f82015250565b5f61244b6012836116be565b915061245682612417565b602082019050919050565b5f6020820190508181035f8301526124788161243f565b9050919050565b7f43616e6e6f7420766f7465206f6e20796f7572206f776e20706f7374000000005f82015250565b5f6124b3601c836116be565b91506124be8261247f565b602082019050919050565b5f6020820190508181035f8301526124e0816124a7565b9050919050565b7f416c726561647920766f746564000000000000000000000000000000000000005f82015250565b5f61251b600d836116be565b9150612526826124e7565b602082019050919050565b5f6020820190508181035f8301526125488161250f565b905091905056fea2646970667358221220e2e0c39c8e9b2247793ef17546f46323fd1fe91f0093a9f61806869599041e9f64736f6c634300081400335468697320706572736f6e207769746820696420233435206973206e6f742073746166662e2054686973206775792074727969696e6720746f2070726574656e7420626f74682070726f666573736f7220616e642073747566662e2049277665207365656e207468656d2061726f756e642063616d70757320617320612073747564656e742e54686520657363616c61746f72206f757473696465204359542069732062726f6b656e20616761696e2120506c656173652066697820697420757267656e746c792150726f706f73616c3a20556e69766572736974792073686f756c64207072696f726974697a65205354454d2072657365617263682066756e64696e67207369676e69666963616e746c79206f7665722048756d616e697469657320746f206d61696e7461696e206f757220636f6d7065746974697665206564676520616e6420616c69676e207769746820667574757265206a6f62206d61726b65742064656d616e64732e2054686973206973206120707261676d6174696320617070726f61636820666f72206c6f6e672d7465726d20696e737469747574696f6e616c20737563636573732e20234675747572655354454d5768656e2077696c6c204c4731206f70656e206e6577206d65616c206f7074696f6e733f49206b6e6f77207468697320706572736f6e2066726f6d206d7920636c6173732e20546865792772652070726574656e64696e6720746f20626520737461666620616761696e215468697320697320646566696e6974656c792066616b65206e6577732e20446f6e27742062656c696576652069742e5468616e6b20796f7520746f2074686520737461666620666f722074686520717569636b20726573706f6e736521205468697320686173206265656e20616e206f6e676f696e672069737375652e4e6f207761792120492063616e2066696e616c6c7920626520667265652066726f6d207468652070726f6a656374214672616d696e6720746869732061732061202750726f666573736f7227207669657720697320612062697420646973696e67656e756f75732e204d616e7920666163756c74792062656c6965766520696e20612062616c616e63656420617070726f6163682e20546865206973737565206973206d6f7265206e75616e636564207468616e2070726573656e74656420686572652e492061677265652c20646566696e6974656c79206e6f742073746166662e20566f74696e672066616b65206f6e2074686973206f6e652e486f772063616e20796f752070726574656e6420746f20626520612070726f666573736f7220616e64207468656e20636f6d6d656e7420617320612073747564656e743f204f75722070726f6a656374206973207374696c6c206f6e676f696e672e2057652073686f756c64206368616c6c656e676520746869732075736572277320637265646962696c697479215468697320697320612073616d706c6520636f6d6d656e74206f6e20746865207465737420706f7374417320612073747564656e742c204920736565207468652070726163746963616c2062656e6566697473206f6620666f637573696e67206f6e205354454d20666f72206a6f622070726f7370656374732c206275742077652073686f756c646e277420636f6d706c6574656c7920646566756e642068756d616e69746965732e205468657920746561636820637269746963616c207468696e6b696e672e5468616e6b20796f7520666f72207265706f7274696e6720746869732069737375652e205765276c6c2073656e642061206d61696e74656e616e6365207465616d20726967687420617761792e74686520434f4d50343531312070726f6a6563742077696c6c2062652063616e63656c656421",
					"opcodes": "PUSH1 0x80 PUSH1 0x40 MSTORE CALLVALUE DUP1 ISZERO PUSH3 0x10 JUMPI PUSH0 DUP1 REVERT JUMPDEST POP PUSH1 0x1 DUP1 DUP2 SWAP1 SSTORE POP PUSH0 DUP1 PUSH0 PUSH1 0x1 SLOAD DUP2 MSTORE PUSH1 0x20 ADD SWAP1 DUP2 MSTORE PUSH1 0x20 ADD PUSH0 KECCAK256 SWAP1 POP PUSH20 0x4511277F98BA4282705DA1C250110E24AA2F88A2 DUP2 PUSH0 ADD PUSH0 PUSH2 0x100 EXP DUP2 SLOAD DUP2 PUSH20 0xFFFFFFFFFFFFFFFFFFFFFFFFFFFFFFFFFFFFFFFF MUL NOT AND SWAP1 DUP4 PUSH20 0xFFFFFFFFFFFFFFFFFFFFFFFFFFFFFFFFFFFFFFFF AND MUL OR SWAP1 SSTORE POP PUSH1 0x40 MLOAD DUP1 PUSH1 0x40 ADD PUSH1 0x40 MSTORE DUP1 PUSH1 0x4 DUP2 MSTORE PUSH1 0x20 ADD PUSH32 0x7465737400000000000000000000000000000000000000000000000000000000 DUP2 MSTORE POP DUP2 PUSH1 0x1 ADD SWAP1 DUP2 PUSH3 0xCA SWAP2 SWAP1 PUSH3 0x21AA JUMP JUMPDEST POP PUSH1 0x40 MLOAD DUP1 PUSH1 0x40 ADD PUSH1 0x40 MSTORE DUP1 PUSH1 0x7 DUP2 MSTORE PUSH1 0x20 ADD PUSH32 0x73747564656E7400000000000000000000000000000000000000000000000000 DUP2 MSTORE POP DUP2 PUSH1 0x2 ADD SWAP1 DUP2 PUSH3 0x113 SWAP2 SWAP1 PUSH3 0x21AA JUMP JUMPDEST POP PUSH4 0x681F3108 DUP2 PUSH1 0x3 ADD DUP2 SWAP1 SSTORE POP PUSH0 DUP2 PUSH1 0x4 ADD PUSH0 PUSH2 0x100 EXP DUP2 SLOAD DUP2 PUSH1 0xFF MUL NOT AND SWAP1 DUP4 ISZERO ISZERO MUL OR SWAP1 SSTORE POP PUSH0 DUP2 PUSH1 0x5 ADD DUP2 SWAP1 SSTORE POP PUSH0 DUP2 PUSH1 0x6 ADD DUP2 SWAP1 SSTORE POP PUSH1 0x1 DUP2 PUSH1 0x8 ADD DUP2 SWAP1 SSTORE POP PUSH0 PUSH1 0x2 PUSH0 PUSH1 0x1 SLOAD DUP2 MSTORE PUSH1 0x20 ADD SWAP1 DUP2 MSTORE PUSH1 0x20 ADD PUSH0 KECCAK256 PUSH0 PUSH1 0x1 DUP2 MSTORE PUSH1 0x20 ADD SWAP1 DUP2 MSTORE PUSH1 0x20 ADD PUSH0 KECCAK256 SWAP1 POP PUSH20 0x4511277F98BA4282705DA1C250110E24AA2F88A2 DUP2 PUSH0 ADD PUSH0 PUSH2 0x100 EXP DUP2 SLOAD DUP2 PUSH20 0xFFFFFFFFFFFFFFFFFFFFFFFFFFFFFFFFFFFFFFFF MUL NOT AND SWAP1 DUP4 PUSH20 0xFFFFFFFFFFFFFFFFFFFFFFFFFFFFFFFFFFFFFFFF AND MUL OR SWAP1 SSTORE POP PUSH1 0x40 MLOAD DUP1 PUSH1 0x60 ADD PUSH1 0x40 MSTORE DUP1 PUSH1 0x29 DUP2 MSTORE PUSH1 0x20 ADD PUSH3 0x4DD4 PUSH1 0x29 SWAP2 CODECOPY DUP2 PUSH1 0x1 ADD SWAP1 DUP2 PUSH3 0x1FF SWAP2 SWAP1 PUSH3 0x21AA JUMP JUMPDEST POP PUSH1 0x40 MLOAD DUP1 PUSH1 0x40 ADD PUSH1 0x40 MSTORE DUP1 PUSH1 0x7 DUP2 MSTORE PUSH1 0x20 ADD PUSH32 0x73747564656E7400000000000000000000000000000000000000000000000000 DUP2 MSTORE POP DUP2 PUSH1 0x2 ADD SWAP1 DUP2 PUSH3 0x248 SWAP2 SWAP1 PUSH3 0x21AA JUMP JUMPDEST POP PUSH4 0x681F314C DUP2 PUSH1 0x3 ADD DUP2 SWAP1 SSTORE POP DUP2 PUSH0 ADD PUSH0 SWAP1 SLOAD SWAP1 PUSH2 0x100 EXP SWAP1 DIV PUSH20 0xFFFFFFFFFFFFFFFFFFFFFFFFFFFFFFFFFFFFFFFF AND PUSH20 0xFFFFFFFFFFFFFFFFFFFFFFFFFFFFFFFFFFFFFFFF AND PUSH1 0x1 SLOAD PUSH32 0x5475621B07408F75D49C828CAA5AEACB3A5E98D3497E75730DC184677504401C DUP5 PUSH1 0x2 ADD DUP6 PUSH1 0x1 ADD PUSH1 0x40 MLOAD PUSH3 0x2CB SWAP3 SWAP2 SWAP1 PUSH3 0x232B JUMP JUMPDEST PUSH1 0x40 MLOAD DUP1 SWAP2 SUB SWAP1 LOG3 DUP1 PUSH0 ADD PUSH0 SWAP1 SLOAD SWAP1 PUSH2 0x100 EXP SWAP1 DIV PUSH20 0xFFFFFFFFFFFFFFFFFFFFFFFFFFFFFFFFFFFFFFFF AND PUSH20 0xFFFFFFFFFFFFFFFFFFFFFFFFFFFFFFFFFFFFFFFF AND PUSH1 0x1 DUP1 SLOAD PUSH32 0x3A56E2377ACF256C15A50F0B97834FA29A151D0B8A6D05C450576E40634FADC DUP5 PUSH1 0x1 ADD DUP6 PUSH1 0x2 ADD PUSH1 0x40 MLOAD PUSH3 0x349 SWAP3 SWAP2 SWAP1 PUSH3 0x232B JUMP JUMPDEST PUSH1 0x40 MLOAD DUP1 SWAP2 SUB SWAP1 LOG4 PUSH1 0x1 PUSH0 DUP2 SLOAD DUP1 SWAP3 SWAP2 SWAP1 PUSH3 0x365 SWAP1 PUSH3 0x2391 JUMP JUMPDEST SWAP2 SWAP1 POP SSTORE POP PUSH0 DUP1 PUSH0 PUSH1 0x1 SLOAD DUP2 MSTORE PUSH1 0x20 ADD SWAP1 DUP2 MSTORE PUSH1 0x20 ADD PUSH0 KECCAK256 SWAP1 POP PUSH20 0x4511277F98BA4282705DA1C250110E24AA2F88A2 DUP2 PUSH0 ADD PUSH0 PUSH2 0x100 EXP DUP2 SLOAD DUP2 PUSH20 0xFFFFFFFFFFFFFFFFFFFFFFFFFFFFFFFFFFFFFFFF MUL NOT AND SWAP1 DUP4 PUSH20 0xFFFFFFFFFFFFFFFFFFFFFFFFFFFFFFFFFFFFFFFF AND MUL OR SWAP1 SSTORE POP PUSH1 0x40 MLOAD DUP1 PUSH1 0x60 ADD PUSH1 0x40 MSTORE DUP1 PUSH1 0x26 DUP2 MSTORE PUSH1 0x20 ADD PUSH3 0x4EE8 PUSH1 0x26 SWAP2 CODECOPY DUP2 PUSH1 0x1 ADD SWAP1 DUP2 PUSH3 0x400 SWAP2 SWAP1 PUSH3 0x21AA JUMP JUMPDEST POP PUSH1 0x40 MLOAD DUP1 PUSH1 0x40 ADD PUSH1 0x40 MSTORE DUP1 PUSH1 0x9 DUP2 MSTORE PUSH1 0x20 ADD PUSH32 0x70726F666573736F720000000000000000000000000000000000000000000000 DUP2 MSTORE POP DUP2 PUSH1 0x2 ADD SWAP1 DUP2 PUSH3 0x449 SWAP2 SWAP1 PUSH3 0x21AA JUMP JUMPDEST POP PUSH4 0x681F31B0 DUP2 PUSH1 0x3 ADD DUP2 SWAP1 SSTORE POP PUSH1 0x1 DUP2 PUSH1 0x4 ADD PUSH0 PUSH2 0x100 EXP DUP2 SLOAD DUP2 PUSH1 0xFF MUL NOT AND SWAP1 DUP4 ISZERO ISZERO MUL OR SWAP1 SSTORE POP PUSH0 DUP2 PUSH1 0x5 ADD DUP2 SWAP1 SSTORE POP PUSH1 0x1 DUP2 PUSH1 0x6 ADD DUP2 SWAP1 SSTORE POP PUSH1 0x3 DUP2 PUSH1 0x8 ADD DUP2 SWAP1 SSTORE POP PUSH0 PUSH1 0x2 PUSH0 PUSH1 0x1 SLOAD DUP2 MSTORE PUSH1 0x20 ADD SWAP1 DUP2 MSTORE PUSH1 0x20 ADD PUSH0 KECCAK256 PUSH0 PUSH1 0x1 DUP2 MSTORE PUSH1 0x20 ADD SWAP1 DUP2 MSTORE PUSH1 0x20 ADD PUSH0 KECCAK256 SWAP1 POP PUSH20 0x4511277F98BA4282705DA1C250110E24AA2F88A2 DUP2 PUSH0 ADD PUSH0 PUSH2 0x100 EXP DUP2 SLOAD DUP2 PUSH20 0xFFFFFFFFFFFFFFFFFFFFFFFFFFFFFFFFFFFFFFFF MUL NOT AND SWAP1 DUP4 PUSH20 0xFFFFFFFFFFFFFFFFFFFFFFFFFFFFFFFFFFFFFFFF AND MUL OR SWAP1 SSTORE POP PUSH1 0x40 MLOAD DUP1 PUSH1 0x60 ADD PUSH1 0x40 MSTORE DUP1 PUSH1 0x2F DUP2 MSTORE PUSH1 0x20 ADD PUSH3 0x4C4A PUSH1 0x2F SWAP2 CODECOPY DUP2 PUSH1 0x1 ADD SWAP1 DUP2 PUSH3 0x537 SWAP2 SWAP1 PUSH3 0x21AA JUMP JUMPDEST POP PUSH1 0x40 MLOAD DUP1 PUSH1 0x40 ADD PUSH1 0x40 MSTORE DUP1 PUSH1 0x7 DUP2 MSTORE PUSH1 0x20 ADD PUSH32 0x73747564656E7400000000000000000000000000000000000000000000000000 DUP2 MSTORE POP DUP2 PUSH1 0x2 ADD SWAP1 DUP2 PUSH3 0x580 SWAP2 SWAP1 PUSH3 0x21AA JUMP JUMPDEST POP PUSH4 0x681F3278 DUP2 PUSH1 0x3 ADD DUP2 SWAP1 SSTORE POP PUSH0 PUSH1 0x2 PUSH0 PUSH1 0x1 SLOAD DUP2 MSTORE PUSH1 0x20 ADD SWAP1 DUP2 MSTORE PUSH1 0x20 ADD PUSH0 KECCAK256 PUSH0 PUSH1 0x2 DUP2 MSTORE PUSH1 0x20 ADD SWAP1 DUP2 MSTORE PUSH1 0x20 ADD PUSH0 KECCAK256 SWAP1 POP PUSH20 0x3FC91A3AFD70395CD496C647D5A6CC9D4B2B7FAD DUP2 PUSH0 ADD PUSH0 PUSH2 0x100 EXP DUP2 SLOAD DUP2 PUSH20 0xFFFFFFFFFFFFFFFFFFFFFFFFFFFFFFFFFFFFFFFF MUL NOT AND SWAP1 DUP4 PUSH20 0xFFFFFFFFFFFFFFFFFFFFFFFFFFFFFFFFFFFFFFFF AND MUL OR SWAP1 SSTORE POP PUSH1 0x40 MLOAD DUP1 PUSH1 0x60 ADD PUSH1 0x40 MSTORE DUP1 PUSH1 0x2F DUP2 MSTORE PUSH1 0x20 ADD PUSH3 0x4BCD PUSH1 0x2F SWAP2 CODECOPY DUP2 PUSH1 0x1 ADD SWAP1 DUP2 PUSH3 0x635 SWAP2 SWAP1 PUSH3 0x21AA JUMP JUMPDEST POP PUSH1 0x40 MLOAD DUP1 PUSH1 0x40 ADD PUSH1 0x40 MSTORE DUP1 PUSH1 0x7 DUP2 MSTORE PUSH1 0x20 ADD PUSH32 0x73747564656E7400000000000000000000000000000000000000000000000000 DUP2 MSTORE POP DUP2 PUSH1 0x2 ADD SWAP1 DUP2 PUSH3 0x67E SWAP2 SWAP1 PUSH3 0x21AA JUMP JUMPDEST POP PUSH4 0x681F3340 DUP2 PUSH1 0x3 ADD DUP2 SWAP1 SSTORE POP PUSH0 PUSH1 0x2 PUSH0 PUSH1 0x1 SLOAD DUP2 MSTORE PUSH1 0x20 ADD SWAP1 DUP2 MSTORE PUSH1 0x20 ADD PUSH0 KECCAK256 PUSH0 PUSH1 0x3 DUP2 MSTORE PUSH1 0x20 ADD SWAP1 DUP2 MSTORE PUSH1 0x20 ADD PUSH0 KECCAK256 SWAP1 POP PUSH20 0xA983D7E14AC1AAF050BB64FDAB1024AE9C93C956 DUP2 PUSH0 ADD PUSH0 PUSH2 0x100 EXP DUP2 SLOAD DUP2 PUSH20 0xFFFFFFFFFFFFFFFFFFFFFFFFFFFFFFFFFFFFFFFF MUL NOT AND SWAP1 DUP4 PUSH20 0xFFFFFFFFFFFFFFFFFFFFFFFFFFFFFFFFFFFFFFFF AND MUL OR SWAP1 SSTORE POP PUSH1 0x40 MLOAD DUP1 PUSH1 0xC0 ADD PUSH1 0x40 MSTORE DUP1 PUSH1 0x8F DUP2 MSTORE PUSH1 0x20 ADD PUSH3 0x4D45 PUSH1 0x8F SWAP2 CODECOPY DUP2 PUSH1 0x1 ADD SWAP1 DUP2 PUSH3 0x733 SWAP2 SWAP1 PUSH3 0x21AA JUMP JUMPDEST POP PUSH1 0x40 MLOAD DUP1 PUSH1 0x40 ADD PUSH1 0x40 MSTORE DUP1 PUSH1 0x7 DUP2 MSTORE PUSH1 0x20 ADD PUSH32 0x73747564656E7400000000000000000000000000000000000000000000000000 DUP2 MSTORE POP DUP2 PUSH1 0x2 ADD SWAP1 DUP2 PUSH3 0x77C SWAP2 SWAP1 PUSH3 0x21AA JUMP JUMPDEST POP PUSH4 0x681F4FBC DUP2 PUSH1 0x3 ADD DUP2 SWAP1 SSTORE POP DUP4 PUSH0 ADD PUSH0 SWAP1 SLOAD SWAP1 PUSH2 0x100 EXP SWAP1 DIV PUSH20 0xFFFFFFFFFFFFFFFFFFFFFFFFFFFFFFFFFFFFFFFF AND PUSH20 0xFFFFFFFFFFFFFFFFFFFFFFFFFFFFFFFFFFFFFFFF AND PUSH1 0x1 SLOAD PUSH32 0x5475621B07408F75D49C828CAA5AEACB3A5E98D3497E75730DC184677504401C DUP7 PUSH1 0x2 ADD DUP8 PUSH1 0x1 ADD PUSH1 0x40 MLOAD PUSH3 0x7FF SWAP3 SWAP2 SWAP1 PUSH3 0x232B JUMP JUMPDEST PUSH1 0x40 MLOAD DUP1 SWAP2 SUB SWAP1 LOG3 DUP3 PUSH0 ADD PUSH0 SWAP1 SLOAD SWAP1 PUSH2 0x100 EXP SWAP1 DIV PUSH20 0xFFFFFFFFFFFFFFFFFFFFFFFFFFFFFFFFFFFFFFFF AND PUSH20 0xFFFFFFFFFFFFFFFFFFFFFFFFFFFFFFFFFFFFFFFF AND PUSH1 0x1 DUP1 SLOAD PUSH32 0x3A56E2377ACF256C15A50F0B97834FA29A151D0B8A6D05C450576E40634FADC DUP7 PUSH1 0x1 ADD DUP8 PUSH1 0x2 ADD PUSH1 0x40 MLOAD PUSH3 0x87D SWAP3 SWAP2 SWAP1 PUSH3 0x232B JUMP JUMPDEST PUSH1 0x40 MLOAD DUP1 SWAP2 SUB SWAP1 LOG4 DUP2 PUSH0 ADD PUSH0 SWAP1 SLOAD SWAP1 PUSH2 0x100 EXP SWAP1 DIV PUSH20 0xFFFFFFFFFFFFFFFFFFFFFFFFFFFFFFFFFFFFFFFF AND PUSH20 0xFFFFFFFFFFFFFFFFFFFFFFFFFFFFFFFFFFFFFFFF AND PUSH1 0x2 PUSH1 0x1 SLOAD PUSH32 0x3A56E2377ACF256C15A50F0B97834FA29A151D0B8A6D05C450576E40634FADC DUP6 PUSH1 0x1 ADD DUP7 PUSH1 0x2 ADD PUSH1 0x40 MLOAD PUSH3 0x8FC SWAP3 SWAP2 SWAP1 PUSH3 0x232B JUMP JUMPDEST PUSH1 0x40 MLOAD DUP1 SWAP2 SUB SWAP1 LOG4 DUP1 PUSH0 ADD PUSH0 SWAP1 SLOAD SWAP1 PUSH2 0x100 EXP SWAP1 DIV PUSH20 0xFFFFFFFFFFFFFFFFFFFFFFFFFFFFFFFFFFFFFFFF AND PUSH20 0xFFFFFFFFFFFFFFFFFFFFFFFFFFFFFFFFFFFFFFFF AND PUSH1 0x3 PUSH1 0x1 SLOAD PUSH32 0x3A56E2377ACF256C15A50F0B97834FA29A151D0B8A6D05C450576E40634FADC DUP5 PUSH1 0x1 ADD DUP6 PUSH1 0x2 ADD PUSH1 0x40 MLOAD PUSH3 0x97B SWAP3 SWAP2 SWAP1 PUSH3 0x232B JUMP JUMPDEST PUSH1 0x40 MLOAD DUP1 SWAP2 SUB SWAP1 LOG4 PUSH1 0x1 PUSH0 DUP2 SLOAD DUP1 SWAP3 SWAP2 SWAP1 PUSH3 0x997 SWAP1 PUSH3 0x2391 JUMP JUMPDEST SWAP2 SWAP1 POP SSTORE POP PUSH0 DUP1 PUSH0 PUSH1 0x1 SLOAD DUP2 MSTORE PUSH1 0x20 ADD SWAP1 DUP2 MSTORE PUSH1 0x20 ADD PUSH0 KECCAK256 SWAP1 POP PUSH20 0x78731D3CA6B7E34AC0F824C42A7CC18A495CABAB DUP2 PUSH0 ADD PUSH0 PUSH2 0x100 EXP DUP2 SLOAD DUP2 PUSH20 0xFFFFFFFFFFFFFFFFFFFFFFFFFFFFFFFFFFFFFFFF MUL NOT AND SWAP1 DUP4 PUSH20 0xFFFFFFFFFFFFFFFFFFFFFFFFFFFFFFFFFFFFFFFF AND MUL OR SWAP1 SSTORE POP PUSH1 0x40 MLOAD DUP1 PUSH1 0x80 ADD PUSH1 0x40 MSTORE DUP1 PUSH1 0x42 DUP2 MSTORE PUSH1 0x20 ADD PUSH3 0x4A2D PUSH1 0x42 SWAP2 CODECOPY DUP2 PUSH1 0x1 ADD SWAP1 DUP2 PUSH3 0xA32 SWAP2 SWAP1 PUSH3 0x21AA JUMP JUMPDEST POP PUSH1 0x40 MLOAD DUP1 PUSH1 0x40 ADD PUSH1 0x40 MSTORE DUP1 PUSH1 0x7 DUP2 MSTORE PUSH1 0x20 ADD PUSH32 0x73747564656E7400000000000000000000000000000000000000000000000000 DUP2 MSTORE POP DUP2 PUSH1 0x2 ADD SWAP1 DUP2 PUSH3 0xA7B SWAP2 SWAP1 PUSH3 0x21AA JUMP JUMPDEST POP PUSH4 0x68229CFC DUP2 PUSH1 0x3 ADD DUP2 SWAP1 SSTORE POP PUSH0 DUP2 PUSH1 0x4 ADD PUSH0 PUSH2 0x100 EXP DUP2 SLOAD DUP2 PUSH1 0xFF MUL NOT AND SWAP1 DUP4 ISZERO ISZERO MUL OR SWAP1 SSTORE POP PUSH1 0x1 DUP2 PUSH1 0x5 ADD DUP2 SWAP1 SSTORE POP PUSH0 DUP2 PUSH1 0x6 ADD DUP2 SWAP1 SSTORE POP PUSH1 0x2 DUP2 PUSH1 0x8 ADD DUP2 SWAP1 SSTORE POP PUSH0 PUSH1 0x2 PUSH0 PUSH1 0x1 SLOAD DUP2 MSTORE PUSH1 0x20 ADD SWAP1 DUP2 MSTORE PUSH1 0x20 ADD PUSH0 KECCAK256 PUSH0 PUSH1 0x1 DUP2 MSTORE PUSH1 0x20 ADD SWAP1 DUP2 MSTORE PUSH1 0x20 ADD PUSH0 KECCAK256 SWAP1 POP PUSH20 0x3FC91A3AFD70395CD496C647D5A6CC9D4B2B7FAD DUP2 PUSH0 ADD PUSH0 PUSH2 0x100 EXP DUP2 SLOAD DUP2 PUSH20 0xFFFFFFFFFFFFFFFFFFFFFFFFFFFFFFFFFFFFFFFF MUL NOT AND SWAP1 DUP4 PUSH20 0xFFFFFFFFFFFFFFFFFFFFFFFFFFFFFFFFFFFFFFFF AND MUL OR SWAP1 SSTORE POP PUSH1 0x40 MLOAD DUP1 PUSH1 0x80 ADD PUSH1 0x40 MSTORE DUP1 PUSH1 0x4D DUP2 MSTORE PUSH1 0x20 ADD PUSH3 0x4E9B PUSH1 0x4D SWAP2 CODECOPY DUP2 PUSH1 0x1 ADD SWAP1 DUP2 PUSH3 0xB68 SWAP2 SWAP1 PUSH3 0x21AA JUMP JUMPDEST POP PUSH1 0x40 MLOAD DUP1 PUSH1 0x40 ADD PUSH1 0x40 MSTORE DUP1 PUSH1 0x5 DUP2 MSTORE PUSH1 0x20 ADD PUSH32 0x7374616666000000000000000000000000000000000000000000000000000000 DUP2 MSTORE POP DUP2 PUSH1 0x2 ADD SWAP1 DUP2 PUSH3 0xBB1 SWAP2 SWAP1 PUSH3 0x21AA JUMP JUMPDEST POP PUSH4 0x68229D78 DUP2 PUSH1 0x3 ADD DUP2 SWAP1 SSTORE POP PUSH0 PUSH1 0x2 PUSH0 PUSH1 0x1 SLOAD DUP2 MSTORE PUSH1 0x20 ADD SWAP1 DUP2 MSTORE PUSH1 0x20 ADD PUSH0 KECCAK256 PUSH0 PUSH1 0x2 DUP2 MSTORE PUSH1 0x20 ADD SWAP1 DUP2 MSTORE PUSH1 0x20 ADD PUSH0 KECCAK256 SWAP1 POP PUSH20 0xA983D7E14AC1AAF050BB64FDAB1024AE9C93C956 DUP2 PUSH0 ADD PUSH0 PUSH2 0x100 EXP DUP2 SLOAD DUP2 PUSH20 0xFFFFFFFFFFFFFFFFFFFFFFFFFFFFFFFFFFFFFFFF MUL NOT AND SWAP1 DUP4 PUSH20 0xFFFFFFFFFFFFFFFFFFFFFFFFFFFFFFFFFFFFFFFF AND MUL OR SWAP1 SSTORE POP PUSH1 0x40 MLOAD DUP1 PUSH1 0x80 ADD PUSH1 0x40 MSTORE DUP1 PUSH1 0x4E DUP2 MSTORE PUSH1 0x20 ADD PUSH3 0x4BFC PUSH1 0x4E SWAP2 CODECOPY DUP2 PUSH1 0x1 ADD SWAP1 DUP2 PUSH3 0xC66 SWAP2 SWAP1 PUSH3 0x21AA JUMP JUMPDEST POP PUSH1 0x40 MLOAD DUP1 PUSH1 0x40 ADD PUSH1 0x40 MSTORE DUP1 PUSH1 0x9 DUP2 MSTORE PUSH1 0x20 ADD PUSH32 0x70726F666573736F720000000000000000000000000000000000000000000000 DUP2 MSTORE POP DUP2 PUSH1 0x2 ADD SWAP1 DUP2 PUSH3 0xCAF SWAP2 SWAP1 PUSH3 0x21AA JUMP JUMPDEST POP PUSH4 0x681F4F68 DUP2 PUSH1 0x3 ADD DUP2 SWAP1 SSTORE POP PUSH1 0x1 PUSH0 DUP1 PUSH1 0x1 SLOAD DUP2 MSTORE PUSH1 0x20 ADD SWAP1 DUP2 MSTORE PUSH1 0x20 ADD PUSH0 KECCAK256 PUSH1 0x7 ADD PUSH0 DUP4 PUSH0 ADD PUSH0 SWAP1 SLOAD SWAP1 PUSH2 0x100 EXP SWAP1 DIV PUSH20 0xFFFFFFFFFFFFFFFFFFFFFFFFFFFFFFFFFFFFFFFF AND PUSH20 0xFFFFFFFFFFFFFFFFFFFFFFFFFFFFFFFFFFFFFFFF AND PUSH20 0xFFFFFFFFFFFFFFFFFFFFFFFFFFFFFFFFFFFFFFFF AND DUP2 MSTORE PUSH1 0x20 ADD SWAP1 DUP2 MSTORE PUSH1 0x20 ADD PUSH0 KECCAK256 PUSH0 PUSH2 0x100 EXP DUP2 SLOAD DUP2 PUSH1 0xFF MUL NOT AND SWAP1 DUP4 ISZERO ISZERO MUL OR SWAP1 SSTORE POP DUP3 PUSH0 ADD PUSH0 SWAP1 SLOAD SWAP1 PUSH2 0x100 EXP SWAP1 DIV PUSH20 0xFFFFFFFFFFFFFFFFFFFFFFFFFFFFFFFFFFFFFFFF AND PUSH20 0xFFFFFFFFFFFFFFFFFFFFFFFFFFFFFFFFFFFFFFFF AND PUSH1 0x1 SLOAD PUSH32 0x5475621B07408F75D49C828CAA5AEACB3A5E98D3497E75730DC184677504401C DUP6 PUSH1 0x2 ADD DUP7 PUSH1 0x1 ADD PUSH1 0x40 MLOAD PUSH3 0xDBC SWAP3 SWAP2 SWAP1 PUSH3 0x232B JUMP JUMPDEST PUSH1 0x40 MLOAD DUP1 SWAP2 SUB SWAP1 LOG3 DUP2 PUSH0 ADD PUSH0 SWAP1 SLOAD SWAP1 PUSH2 0x100 EXP SWAP1 DIV PUSH20 0xFFFFFFFFFFFFFFFFFFFFFFFFFFFFFFFFFFFFFFFF AND PUSH20 0xFFFFFFFFFFFFFFFFFFFFFFFFFFFFFFFFFFFFFFFF AND PUSH1 0x1 DUP1 SLOAD PUSH32 0x3A56E2377ACF256C15A50F0B97834FA29A151D0B8A6D05C450576E40634FADC DUP6 PUSH1 0x1 ADD DUP7 PUSH1 0x2 ADD PUSH1 0x40 MLOAD PUSH3 0xE3A SWAP3 SWAP2 SWAP1 PUSH3 0x232B JUMP JUMPDEST PUSH1 0x40 MLOAD DUP1 SWAP2 SUB SWAP1 LOG4 DUP1 PUSH0 ADD PUSH0 SWAP1 SLOAD SWAP1 PUSH2 0x100 EXP SWAP1 DIV PUSH20 0xFFFFFFFFFFFFFFFFFFFFFFFFFFFFFFFFFFFFFFFF AND PUSH20 0xFFFFFFFFFFFFFFFFFFFFFFFFFFFFFFFFFFFFFFFF AND PUSH1 0x2 PUSH1 0x1 SLOAD PUSH32 0x3A56E2377ACF256C15A50F0B97834FA29A151D0B8A6D05C450576E40634FADC DUP5 PUSH1 0x1 ADD DUP6 PUSH1 0x2 ADD PUSH1 0x40 MLOAD PUSH3 0xEB9 SWAP3 SWAP2 SWAP1 PUSH3 0x232B JUMP JUMPDEST PUSH1 0x40 MLOAD DUP1 SWAP2 SUB SWAP1 LOG4 PUSH1 0x1 PUSH0 DUP2 SLOAD DUP1 SWAP3 SWAP2 SWAP1 PUSH3 0xED5 SWAP1 PUSH3 0x2391 JUMP JUMPDEST SWAP2 SWAP1 POP SSTORE POP PUSH0 DUP1 PUSH0 PUSH1 0x1 SLOAD DUP2 MSTORE PUSH1 0x20 ADD SWAP1 DUP2 MSTORE PUSH1 0x20 ADD PUSH0 KECCAK256 SWAP1 POP PUSH20 0x4511277F98BA4282705DA1C250110E24AA2F88A2 DUP2 PUSH0 ADD PUSH0 PUSH2 0x100 EXP DUP2 SLOAD DUP2 PUSH20 0xFFFFFFFFFFFFFFFFFFFFFFFFFFFFFFFFFFFFFFFF MUL NOT AND SWAP1 DUP4 PUSH20 0xFFFFFFFFFFFFFFFFFFFFFFFFFFFFFFFFFFFFFFFF AND MUL OR SWAP1 SSTORE POP PUSH1 0x40 MLOAD DUP1 PUSH1 0x60 ADD PUSH1 0x40 MSTORE DUP1 PUSH1 0x24 DUP2 MSTORE PUSH1 0x20 ADD PUSH3 0x4B62 PUSH1 0x24 SWAP2 CODECOPY DUP2 PUSH1 0x1 ADD SWAP1 DUP2 PUSH3 0xF70 SWAP2 SWAP1 PUSH3 0x21AA JUMP JUMPDEST POP PUSH1 0x40 MLOAD DUP1 PUSH1 0x40 ADD PUSH1 0x40 MSTORE DUP1 PUSH1 0x5 DUP2 MSTORE PUSH1 0x20 ADD PUSH32 0x7374616666000000000000000000000000000000000000000000000000000000 DUP2 MSTORE POP DUP2 PUSH1 0x2 ADD SWAP1 DUP2 PUSH3 0xFB9 SWAP2 SWAP1 PUSH3 0x21AA JUMP JUMPDEST POP PUSH4 0x681F5FC8 DUP2 PUSH1 0x3 ADD DUP2 SWAP1 SSTORE POP PUSH1 0x1 DUP2 PUSH1 0x4 ADD PUSH0 PUSH2 0x100 EXP DUP2 SLOAD DUP2 PUSH1 0xFF MUL NOT AND SWAP1 DUP4 ISZERO ISZERO MUL OR SWAP1 SSTORE POP PUSH0 DUP2 PUSH1 0x5 ADD DUP2 SWAP1 SSTORE POP PUSH1 0x3 DUP2 PUSH1 0x6 ADD DUP2 SWAP1 SSTORE POP PUSH1 0x3 DUP2 PUSH1 0x8 ADD DUP2 SWAP1 SSTORE POP PUSH0 PUSH1 0x2 PUSH0 PUSH1 0x1 SLOAD DUP2 MSTORE PUSH1 0x20 ADD SWAP1 DUP2 MSTORE PUSH1 0x20 ADD PUSH0 KECCAK256 PUSH0 PUSH1 0x1 DUP2 MSTORE PUSH1 0x20 ADD SWAP1 DUP2 MSTORE PUSH1 0x20 ADD PUSH0 KECCAK256 SWAP1 POP PUSH20 0x5B38DA6A701C568545DCFCB03FCB875F56BEDDC4 DUP2 PUSH0 ADD PUSH0 PUSH2 0x100 EXP DUP2 SLOAD DUP2 PUSH20 0xFFFFFFFFFFFFFFFFFFFFFFFFFFFFFFFFFFFFFFFF MUL NOT AND SWAP1 DUP4 PUSH20 0xFFFFFFFFFFFFFFFFFFFFFFFFFFFFFFFFFFFFFFFF AND MUL OR SWAP1 SSTORE POP PUSH1 0x40 MLOAD DUP1 PUSH1 0xC0 ADD PUSH1 0x40 MSTORE DUP1 PUSH1 0x86 DUP2 MSTORE PUSH1 0x20 ADD PUSH3 0x49A7 PUSH1 0x86 SWAP2 CODECOPY DUP2 PUSH1 0x1 ADD SWAP1 DUP2 PUSH3 0x10A7 SWAP2 SWAP1 PUSH3 0x21AA JUMP JUMPDEST POP PUSH1 0x40 MLOAD DUP1 PUSH1 0x40 ADD PUSH1 0x40 MSTORE DUP1 PUSH1 0x7 DUP2 MSTORE PUSH1 0x20 ADD PUSH32 0x73747564656E7400000000000000000000000000000000000000000000000000 DUP2 MSTORE POP DUP2 PUSH1 0x2 ADD SWAP1 DUP2 PUSH3 0x10F0 SWAP2 SWAP1 PUSH3 0x21AA JUMP JUMPDEST POP PUSH4 0x681F6414 DUP2 PUSH1 0x3 ADD DUP2 SWAP1 SSTORE POP PUSH1 0x1 PUSH0 DUP1 PUSH1 0x1 SLOAD DUP2 MSTORE PUSH1 0x20 ADD SWAP1 DUP2 MSTORE PUSH1 0x20 ADD PUSH0 KECCAK256 PUSH1 0x7 ADD PUSH0 DUP4 PUSH0 ADD PUSH0 SWAP1 SLOAD SWAP1 PUSH2 0x100 EXP SWAP1 DIV PUSH20 0xFFFFFFFFFFFFFFFFFFFFFFFFFFFFFFFFFFFFFFFF AND PUSH20 0xFFFFFFFFFFFFFFFFFFFFFFFFFFFFFFFFFFFFFFFF AND PUSH20 0xFFFFFFFFFFFFFFFFFFFFFFFFFFFFFFFFFFFFFFFF AND DUP2 MSTORE PUSH1 0x20 ADD SWAP1 DUP2 MSTORE PUSH1 0x20 ADD PUSH0 KECCAK256 PUSH0 PUSH2 0x100 EXP DUP2 SLOAD DUP2 PUSH1 0xFF MUL NOT AND SWAP1 DUP4 ISZERO ISZERO MUL OR SWAP1 SSTORE POP PUSH0 PUSH1 0x2 PUSH0 PUSH1 0x1 SLOAD DUP2 MSTORE PUSH1 0x20 ADD SWAP1 DUP2 MSTORE PUSH1 0x20 ADD PUSH0 KECCAK256 PUSH0 PUSH1 0x2 DUP2 MSTORE PUSH1 0x20 ADD SWAP1 DUP2 MSTORE PUSH1 0x20 ADD PUSH0 KECCAK256 SWAP1 POP PUSH20 0x617F2E2FD72FD9D5503197092AC168C91465E7F2 DUP2 PUSH0 ADD PUSH0 PUSH2 0x100 EXP DUP2 SLOAD DUP2 PUSH20 0xFFFFFFFFFFFFFFFFFFFFFFFFFFFFFFFFFFFFFFFF MUL NOT AND SWAP1 DUP4 PUSH20 0xFFFFFFFFFFFFFFFFFFFFFFFFFFFFFFFFFFFFFFFF AND MUL OR SWAP1 SSTORE POP PUSH1 0x40 MLOAD DUP1 PUSH1 0x60 ADD PUSH1 0x40 MSTORE DUP1 PUSH1 0x37 DUP2 MSTORE PUSH1 0x20 ADD PUSH3 0x4D0E PUSH1 0x37 SWAP2 CODECOPY DUP2 PUSH1 0x1 ADD SWAP1 DUP2 PUSH3 0x122F SWAP2 SWAP1 PUSH3 0x21AA JUMP JUMPDEST POP PUSH1 0x40 MLOAD DUP1 PUSH1 0x40 ADD PUSH1 0x40 MSTORE DUP1 PUSH1 0x7 DUP2 MSTORE PUSH1 0x20 ADD PUSH32 0x73747564656E7400000000000000000000000000000000000000000000000000 DUP2 MSTORE POP DUP2 PUSH1 0x2 ADD SWAP1 DUP2 PUSH3 0x1278 SWAP2 SWAP1 PUSH3 0x21AA JUMP JUMPDEST POP PUSH4 0x681F6860 DUP2 PUSH1 0x3 ADD DUP2 SWAP1 SSTORE POP PUSH1 0x1 PUSH0 DUP1 PUSH1 0x1 SLOAD DUP2 MSTORE PUSH1 0x20 ADD SWAP1 DUP2 MSTORE PUSH1 0x20 ADD PUSH0 KECCAK256 PUSH1 0x7 ADD PUSH0 DUP4 PUSH0 ADD PUSH0 SWAP1 SLOAD SWAP1 PUSH2 0x100 EXP SWAP1 DIV PUSH20 0xFFFFFFFFFFFFFFFFFFFFFFFFFFFFFFFFFFFFFFFF AND PUSH20 0xFFFFFFFFFFFFFFFFFFFFFFFFFFFFFFFFFFFFFFFF AND PUSH20 0xFFFFFFFFFFFFFFFFFFFFFFFFFFFFFFFFFFFFFFFF AND DUP2 MSTORE PUSH1 0x20 ADD SWAP1 DUP2 MSTORE PUSH1 0x20 ADD PUSH0 KECCAK256 PUSH0 PUSH2 0x100 EXP DUP2 SLOAD DUP2 PUSH1 0xFF MUL NOT AND SWAP1 DUP4 ISZERO ISZERO MUL OR SWAP1 SSTORE POP PUSH0 PUSH1 0x2 PUSH0 PUSH1 0x1 SLOAD DUP2 MSTORE PUSH1 0x20 ADD SWAP1 DUP2 MSTORE PUSH1 0x20 ADD PUSH0 KECCAK256 PUSH0 PUSH1 0x3 DUP2 MSTORE PUSH1 0x20 ADD SWAP1 DUP2 MSTORE PUSH1 0x20 ADD PUSH0 KECCAK256 SWAP1 POP PUSH20 0xA983D7E14AC1AAF050BB64FDAB1024AE9C93C956 DUP2 PUSH0 ADD PUSH0 PUSH2 0x100 EXP DUP2 SLOAD DUP2 PUSH20 0xFFFFFFFFFFFFFFFFFFFFFFFFFFFFFFFFFFFFFFFF MUL NOT AND SWAP1 DUP4 PUSH20 0xFFFFFFFFFFFFFFFFFFFFFFFFFFFFFFFFFFFFFFFF AND MUL OR SWAP1 SSTORE POP PUSH1 0x40 MLOAD DUP1 PUSH1 0x80 ADD PUSH1 0x40 MSTORE DUP1 PUSH1 0x47 DUP2 MSTORE PUSH1 0x20 ADD PUSH3 0x4B86 PUSH1 0x47 SWAP2 CODECOPY DUP2 PUSH1 0x1 ADD SWAP1 DUP2 PUSH3 0x13B7 SWAP2 SWAP1 PUSH3 0x21AA JUMP JUMPDEST POP PUSH1 0x40 MLOAD DUP1 PUSH1 0x40 ADD PUSH1 0x40 MSTORE DUP1 PUSH1 0x7 DUP2 MSTORE PUSH1 0x20 ADD PUSH32 0x73747564656E7400000000000000000000000000000000000000000000000000 DUP2 MSTORE POP DUP2 PUSH1 0x2 ADD SWAP1 DUP2 PUSH3 0x1400 SWAP2 SWAP1 PUSH3 0x21AA JUMP JUMPDEST POP PUSH4 0x681F6CAC DUP2 PUSH1 0x3 ADD DUP2 SWAP1 SSTORE POP PUSH1 0x1 PUSH0 DUP1 PUSH1 0x1 SLOAD DUP2 MSTORE PUSH1 0x20 ADD SWAP1 DUP2 MSTORE PUSH1 0x20 ADD PUSH0 KECCAK256 PUSH1 0x7 ADD PUSH0 DUP4 PUSH0 ADD PUSH0 SWAP1 SLOAD SWAP1 PUSH2 0x100 EXP SWAP1 DIV PUSH20 0xFFFFFFFFFFFFFFFFFFFFFFFFFFFFFFFFFFFFFFFF AND PUSH20 0xFFFFFFFFFFFFFFFFFFFFFFFFFFFFFFFFFFFFFFFF AND PUSH20 0xFFFFFFFFFFFFFFFFFFFFFFFFFFFFFFFFFFFFFFFF AND DUP2 MSTORE PUSH1 0x20 ADD SWAP1 DUP2 MSTORE PUSH1 0x20 ADD PUSH0 KECCAK256 PUSH0 PUSH2 0x100 EXP DUP2 SLOAD DUP2 PUSH1 0xFF MUL NOT AND SWAP1 DUP4 ISZERO ISZERO MUL OR SWAP1 SSTORE POP DUP4 PUSH0 ADD PUSH0 SWAP1 SLOAD SWAP1 PUSH2 0x100 EXP SWAP1 DIV PUSH20 0xFFFFFFFFFFFFFFFFFFFFFFFFFFFFFFFFFFFFFFFF AND PUSH20 0xFFFFFFFFFFFFFFFFFFFFFFFFFFFFFFFFFFFFFFFF AND PUSH1 0x1 SLOAD PUSH32 0x5475621B07408F75D49C828CAA5AEACB3A5E98D3497E75730DC184677504401C DUP7 PUSH1 0x2 ADD DUP8 PUSH1 0x1 ADD PUSH1 0x40 MLOAD PUSH3 0x150D SWAP3 SWAP2 SWAP1 PUSH3 0x232B JUMP JUMPDEST PUSH1 0x40 MLOAD DUP1 SWAP2 SUB SWAP1 LOG3 DUP3 PUSH0 ADD PUSH0 SWAP1 SLOAD SWAP1 PUSH2 0x100 EXP SWAP1 DIV PUSH20 0xFFFFFFFFFFFFFFFFFFFFFFFFFFFFFFFFFFFFFFFF AND PUSH20 0xFFFFFFFFFFFFFFFFFFFFFFFFFFFFFFFFFFFFFFFF AND PUSH1 0x1 DUP1 SLOAD PUSH32 0x3A56E2377ACF256C15A50F0B97834FA29A151D0B8A6D05C450576E40634FADC DUP7 PUSH1 0x1 ADD DUP8 PUSH1 0x2 ADD PUSH1 0x40 MLOAD PUSH3 0x158B SWAP3 SWAP2 SWAP1 PUSH3 0x232B JUMP JUMPDEST PUSH1 0x40 MLOAD DUP1 SWAP2 SUB SWAP1 LOG4 DUP2 PUSH0 ADD PUSH0 SWAP1 SLOAD SWAP1 PUSH2 0x100 EXP SWAP1 DIV PUSH20 0xFFFFFFFFFFFFFFFFFFFFFFFFFFFFFFFFFFFFFFFF AND PUSH20 0xFFFFFFFFFFFFFFFFFFFFFFFFFFFFFFFFFFFFFFFF AND PUSH1 0x2 PUSH1 0x1 SLOAD PUSH32 0x3A56E2377ACF256C15A50F0B97834FA29A151D0B8A6D05C450576E40634FADC DUP6 PUSH1 0x1 ADD DUP7 PUSH1 0x2 ADD PUSH1 0x40 MLOAD PUSH3 0x160A SWAP3 SWAP2 SWAP1 PUSH3 0x232B JUMP JUMPDEST PUSH1 0x40 MLOAD DUP1 SWAP2 SUB SWAP1 LOG4 DUP1 PUSH0 ADD PUSH0 SWAP1 SLOAD SWAP1 PUSH2 0x100 EXP SWAP1 DIV PUSH20 0xFFFFFFFFFFFFFFFFFFFFFFFFFFFFFFFFFFFFFFFF AND PUSH20 0xFFFFFFFFFFFFFFFFFFFFFFFFFFFFFFFFFFFFFFFF AND PUSH1 0x3 PUSH1 0x1 SLOAD PUSH32 0x3A56E2377ACF256C15A50F0B97834FA29A151D0B8A6D05C450576E40634FADC DUP5 PUSH1 0x1 ADD DUP6 PUSH1 0x2 ADD PUSH1 0x40 MLOAD PUSH3 0x1689 SWAP3 SWAP2 SWAP1 PUSH3 0x232B JUMP JUMPDEST PUSH1 0x40 MLOAD DUP1 SWAP2 SUB SWAP1 LOG4 PUSH1 0x1 PUSH0 DUP2 SLOAD DUP1 SWAP3 SWAP2 SWAP1 PUSH3 0x16A5 SWAP1 PUSH3 0x2391 JUMP JUMPDEST SWAP2 SWAP1 POP SSTORE POP PUSH0 DUP1 PUSH0 PUSH1 0x1 SLOAD DUP2 MSTORE PUSH1 0x20 ADD SWAP1 DUP2 MSTORE PUSH1 0x20 ADD PUSH0 KECCAK256 SWAP1 POP PUSH20 0x1111111111111111111111111111111111111111 DUP2 PUSH0 ADD PUSH0 PUSH2 0x100 EXP DUP2 SLOAD DUP2 PUSH20 0xFFFFFFFFFFFFFFFFFFFFFFFFFFFFFFFFFFFFFFFF MUL NOT AND SWAP1 DUP4 PUSH20 0xFFFFFFFFFFFFFFFFFFFFFFFFFFFFFFFFFFFFFFFF AND MUL OR SWAP1 SSTORE POP PUSH1 0x40 MLOAD DUP1 PUSH2 0x120 ADD PUSH1 0x40 MSTORE DUP1 PUSH1 0xF3 DUP2 MSTORE PUSH1 0x20 ADD PUSH3 0x4A6F PUSH1 0xF3 SWAP2 CODECOPY DUP2 PUSH1 0x1 ADD SWAP1 DUP2 PUSH3 0x1741 SWAP2 SWAP1 PUSH3 0x21AA JUMP JUMPDEST POP PUSH1 0x40 MLOAD DUP1 PUSH1 0x40 ADD PUSH1 0x40 MSTORE DUP1 PUSH1 0x9 DUP2 MSTORE PUSH1 0x20 ADD PUSH32 0x70726F666573736F720000000000000000000000000000000000000000000000 DUP2 MSTORE POP DUP2 PUSH1 0x2 ADD SWAP1 DUP2 PUSH3 0x178A SWAP2 SWAP1 PUSH3 0x21AA JUMP JUMPDEST POP PUSH4 0x6821EC20 DUP2 PUSH1 0x3 ADD DUP2 SWAP1 SSTORE POP PUSH1 0x1 DUP2 PUSH1 0x4 ADD PUSH0 PUSH2 0x100 EXP DUP2 SLOAD DUP2 PUSH1 0xFF MUL NOT AND SWAP1 DUP4 ISZERO ISZERO MUL OR SWAP1 SSTORE POP PUSH1 0x2 DUP2 PUSH1 0x5 ADD DUP2 SWAP1 SSTORE POP PUSH1 0x2 DUP2 PUSH1 0x6 ADD DUP2 SWAP1 SSTORE POP PUSH1 0x2 DUP2 PUSH1 0x8 ADD DUP2 SWAP1 SSTORE POP PUSH1 0x1 PUSH0 DUP1 PUSH1 0x1 SLOAD DUP2 MSTORE PUSH1 0x20 ADD SWAP1 DUP2 MSTORE PUSH1 0x20 ADD PUSH0 KECCAK256 PUSH1 0x7 ADD PUSH0 PUSH20 0x2222222222222222222222222222222222222222 PUSH20 0xFFFFFFFFFFFFFFFFFFFFFFFFFFFFFFFFFFFFFFFF AND PUSH20 0xFFFFFFFFFFFFFFFFFFFFFFFFFFFFFFFFFFFFFFFF AND DUP2 MSTORE PUSH1 0x20 ADD SWAP1 DUP2 MSTORE PUSH1 0x20 ADD PUSH0 KECCAK256 PUSH0 PUSH2 0x100 EXP DUP2 SLOAD DUP2 PUSH1 0xFF MUL NOT AND SWAP1 DUP4 ISZERO ISZERO MUL OR SWAP1 SSTORE POP PUSH1 0x1 PUSH0 DUP1 PUSH1 0x1 SLOAD DUP2 MSTORE PUSH1 0x20 ADD SWAP1 DUP2 MSTORE PUSH1 0x20 ADD PUSH0 KECCAK256 PUSH1 0x7 ADD PUSH0 PUSH20 0x3333333333333333333333333333333333333333 PUSH20 0xFFFFFFFFFFFFFFFFFFFFFFFFFFFFFFFFFFFFFFFF AND PUSH20 0xFFFFFFFFFFFFFFFFFFFFFFFFFFFFFFFFFFFFFFFF AND DUP2 MSTORE PUSH1 0x20 ADD SWAP1 DUP2 MSTORE PUSH1 0x20 ADD PUSH0 KECCAK256 PUSH0 PUSH2 0x100 EXP DUP2 SLOAD DUP2 PUSH1 0xFF MUL NOT AND SWAP1 DUP4 ISZERO ISZERO MUL OR SWAP1 SSTORE POP PUSH1 0x1 PUSH0 DUP1 PUSH1 0x1 SLOAD DUP2 MSTORE PUSH1 0x20 ADD SWAP1 DUP2 MSTORE PUSH1 0x20 ADD PUSH0 KECCAK256 PUSH1 0x7 ADD PUSH0 PUSH20 0x4444444444444444444444444444444444444444 PUSH20 0xFFFFFFFFFFFFFFFFFFFFFFFFFFFFFFFFFFFFFFFF AND PUSH20 0xFFFFFFFFFFFFFFFFFFFFFFFFFFFFFFFFFFFFFFFF AND DUP2 MSTORE PUSH1 0x20 ADD SWAP1 DUP2 MSTORE PUSH1 0x20 ADD PUSH0 KECCAK256 PUSH0 PUSH2 0x100 EXP DUP2 SLOAD DUP2 PUSH1 0xFF MUL NOT AND SWAP1 DUP4 ISZERO ISZERO MUL OR SWAP1 SSTORE POP PUSH1 0x1 PUSH0 DUP1 PUSH1 0x1 SLOAD DUP2 MSTORE PUSH1 0x20 ADD SWAP1 DUP2 MSTORE PUSH1 0x20 ADD PUSH0 KECCAK256 PUSH1 0x7 ADD PUSH0 PUSH20 0x5555555555555555555555555555555555555555 PUSH20 0xFFFFFFFFFFFFFFFFFFFFFFFFFFFFFFFFFFFFFFFF AND PUSH20 0xFFFFFFFFFFFFFFFFFFFFFFFFFFFFFFFFFFFFFFFF AND DUP2 MSTORE PUSH1 0x20 ADD SWAP1 DUP2 MSTORE PUSH1 0x20 ADD PUSH0 KECCAK256 PUSH0 PUSH2 0x100 EXP DUP2 SLOAD DUP2 PUSH1 0xFF MUL NOT AND SWAP1 DUP4 ISZERO ISZERO MUL OR SWAP1 SSTORE POP PUSH0 PUSH1 0x2 PUSH0 PUSH1 0x1 SLOAD DUP2 MSTORE PUSH1 0x20 ADD SWAP1 DUP2 MSTORE PUSH1 0x20 ADD PUSH0 KECCAK256 PUSH0 PUSH1 0x1 DUP2 MSTORE PUSH1 0x20 ADD SWAP1 DUP2 MSTORE PUSH1 0x20 ADD PUSH0 KECCAK256 SWAP1 POP PUSH20 0x6666666666666666666666666666666666666666 DUP2 PUSH0 ADD PUSH0 PUSH2 0x100 EXP DUP2 SLOAD DUP2 PUSH20 0xFFFFFFFFFFFFFFFFFFFFFFFFFFFFFFFFFFFFFFFF MUL NOT AND SWAP1 DUP4 PUSH20 0xFFFFFFFFFFFFFFFFFFFFFFFFFFFFFFFFFFFFFFFF AND MUL OR SWAP1 SSTORE POP PUSH1 0x40 MLOAD DUP1 PUSH1 0xC0 ADD PUSH1 0x40 MSTORE DUP1 PUSH1 0x9E DUP2 MSTORE PUSH1 0x20 ADD PUSH3 0x4DFD PUSH1 0x9E SWAP2 CODECOPY DUP2 PUSH1 0x1 ADD SWAP1 DUP2 PUSH3 0x1A69 SWAP2 SWAP1 PUSH3 0x21AA JUMP JUMPDEST POP PUSH1 0x40 MLOAD DUP1 PUSH1 0x40 ADD PUSH1 0x40 MSTORE DUP1 PUSH1 0x7 DUP2 MSTORE PUSH1 0x20 ADD PUSH32 0x73747564656E7400000000000000000000000000000000000000000000000000 DUP2 MSTORE POP DUP2 PUSH1 0x2 ADD SWAP1 DUP2 PUSH3 0x1AB2 SWAP2 SWAP1 PUSH3 0x21AA JUMP JUMPDEST POP PUSH4 0x6821EC84 DUP2 PUSH1 0x3 ADD DUP2 SWAP1 SSTORE POP PUSH0 PUSH1 0x2 PUSH0 PUSH1 0x1 SLOAD DUP2 MSTORE PUSH1 0x20 ADD SWAP1 DUP2 MSTORE PUSH1 0x20 ADD PUSH0 KECCAK256 PUSH0 PUSH1 0x2 DUP2 MSTORE PUSH1 0x20 ADD SWAP1 DUP2 MSTORE PUSH1 0x20 ADD PUSH0 KECCAK256 SWAP1 POP PUSH20 0x7777777777777777777777777777777777777777 DUP2 PUSH0 ADD PUSH0 PUSH2 0x100 EXP DUP2 SLOAD DUP2 PUSH20 0xFFFFFFFFFFFFFFFFFFFFFFFFFFFFFFFFFFFFFFFF MUL NOT AND SWAP1 DUP4 PUSH20 0xFFFFFFFFFFFFFFFFFFFFFFFFFFFFFFFFFFFFFFFF AND MUL OR SWAP1 SSTORE POP PUSH1 0x40 MLOAD DUP1 PUSH1 0xC0 ADD PUSH1 0x40 MSTORE DUP1 PUSH1 0x95 DUP2 MSTORE PUSH1 0x20 ADD PUSH3 0x4C79 PUSH1 0x95 SWAP2 CODECOPY DUP2 PUSH1 0x1 ADD SWAP1 DUP2 PUSH3 0x1B67 SWAP2 SWAP1 PUSH3 0x21AA JUMP JUMPDEST POP PUSH1 0x40 MLOAD DUP1 PUSH1 0x40 ADD PUSH1 0x40 MSTORE DUP1 PUSH1 0x9 DUP2 MSTORE PUSH1 0x20 ADD PUSH32 0x70726F666573736F720000000000000000000000000000000000000000000000 DUP2 MSTORE POP DUP2 PUSH1 0x2 ADD SWAP1 DUP2 PUSH3 0x1BB0 SWAP2 SWAP1 PUSH3 0x21AA JUMP JUMPDEST POP PUSH4 0x6821ECE8 DUP2 PUSH1 0x3 ADD DUP2 SWAP1 SSTORE POP DUP3 PUSH0 ADD PUSH0 SWAP1 SLOAD SWAP1 PUSH2 0x100 EXP SWAP1 DIV PUSH20 0xFFFFFFFFFFFFFFFFFFFFFFFFFFFFFFFFFFFFFFFF AND PUSH20 0xFFFFFFFFFFFFFFFFFFFFFFFFFFFFFFFFFFFFFFFF AND PUSH1 0x1 SLOAD PUSH32 0x5475621B07408F75D49C828CAA5AEACB3A5E98D3497E75730DC184677504401C DUP6 PUSH1 0x2 ADD DUP7 PUSH1 0x1 ADD PUSH1 0x40 MLOAD PUSH3 0x1C33 SWAP3 SWAP2 SWAP1 PUSH3 0x232B JUMP JUMPDEST PUSH1 0x40 MLOAD DUP1 SWAP2 SUB SWAP1 LOG3 PUSH20 0x2222222222222222222222222222222222222222 PUSH20 0xFFFFFFFFFFFFFFFFFFFFFFFFFFFFFFFFFFFFFFFF AND PUSH1 0x1 SLOAD PUSH32 0xEDC96EF82A3FD8EA664DD4FE50F94C77BE3C3D6130792C3ED8B0199E3C28EC62 PUSH1 0x40 MLOAD PUSH1 0x40 MLOAD DUP1 SWAP2 SUB SWAP1 LOG3 PUSH20 0x2222222222222222222222222222222222222222 PUSH20 0xFFFFFFFFFFFFFFFFFFFFFFFFFFFFFFFFFFFFFFFF AND PUSH1 0x1 SLOAD PUSH32 0xE71FCDAC32DF1877C1700E7BDA2A03157E20993363A28FC35AC495CEFC76E4D4 PUSH1 0x1 PUSH1 0x40 MLOAD PUSH3 0x1CF5 SWAP2 SWAP1 PUSH3 0x23F9 JUMP JUMPDEST PUSH1 0x40 MLOAD DUP1 SWAP2 SUB SWAP1 LOG3 PUSH20 0x3333333333333333333333333333333333333333 PUSH20 0xFFFFFFFFFFFFFFFFFFFFFFFFFFFFFFFFFFFFFFFF AND PUSH1 0x1 SLOAD PUSH32 0xE71FCDAC32DF1877C1700E7BDA2A03157E20993363A28FC35AC495CEFC76E4D4 PUSH0 PUSH1 0x40 MLOAD PUSH3 0x1D5C SWAP2 SWAP1 PUSH3 0x23F9 JUMP JUMPDEST PUSH1 0x40 MLOAD DUP1 SWAP2 SUB SWAP1 LOG3 PUSH20 0x4444444444444444444444444444444444444444 PUSH20 0xFFFFFFFFFFFFFFFFFFFFFFFFFFFFFFFFFFFFFFFF AND PUSH1 0x1 SLOAD PUSH32 0xE71FCDAC32DF1877C1700E7BDA2A03157E20993363A28FC35AC495CEFC76E4D4 PUSH1 0x1 PUSH1 0x40 MLOAD PUSH3 0x1DC4 SWAP2 SWAP1 PUSH3 0x23F9 JUMP JUMPDEST PUSH1 0x40 MLOAD DUP1 SWAP2 SUB SWAP1 LOG3 PUSH20 0x5555555555555555555555555555555555555555 PUSH20 0xFFFFFFFFFFFFFFFFFFFFFFFFFFFFFFFFFFFFFFFF AND PUSH1 0x1 SLOAD PUSH32 0xE71FCDAC32DF1877C1700E7BDA2A03157E20993363A28FC35AC495CEFC76E4D4 PUSH0 PUSH1 0x40 MLOAD PUSH3 0x1E2B SWAP2 SWAP1 PUSH3 0x23F9 JUMP JUMPDEST PUSH1 0x40 MLOAD DUP1 SWAP2 SUB SWAP1 LOG3 DUP2 PUSH0 ADD PUSH0 SWAP1 SLOAD SWAP1 PUSH2 0x100 EXP SWAP1 DIV PUSH20 0xFFFFFFFFFFFFFFFFFFFFFFFFFFFFFFFFFFFFFFFF AND PUSH20 0xFFFFFFFFFFFFFFFFFFFFFFFFFFFFFFFFFFFFFFFF AND PUSH1 0x1 DUP1 SLOAD PUSH32 0x3A56E2377ACF256C15A50F0B97834FA29A151D0B8A6D05C450576E40634FADC DUP6 PUSH1 0x1 ADD DUP7 PUSH1 0x2 ADD PUSH1 0x40 MLOAD PUSH3 0x1EA9 SWAP3 SWAP2 SWAP1 PUSH3 0x232B JUMP JUMPDEST PUSH1 0x40 MLOAD DUP1 SWAP2 SUB SWAP1 LOG4 DUP1 PUSH0 ADD PUSH0 SWAP1 SLOAD SWAP1 PUSH2 0x100 EXP SWAP1 DIV PUSH20 0xFFFFFFFFFFFFFFFFFFFFFFFFFFFFFFFFFFFFFFFF AND PUSH20 0xFFFFFFFFFFFFFFFFFFFFFFFFFFFFFFFFFFFFFFFF AND PUSH1 0x2 PUSH1 0x1 SLOAD PUSH32 0x3A56E2377ACF256C15A50F0B97834FA29A151D0B8A6D05C450576E40634FADC DUP5 PUSH1 0x1 ADD DUP6 PUSH1 0x2 ADD PUSH1 0x40 MLOAD PUSH3 0x1F28 SWAP3 SWAP2 SWAP1 PUSH3 0x232B JUMP JUMPDEST PUSH1 0x40 MLOAD DUP1 SWAP2 SUB SWAP1 LOG4 POP POP POP POP POP POP POP POP POP POP POP POP POP POP POP POP PUSH3 0x2414 JUMP JUMPDEST PUSH0 DUP2 MLOAD SWAP1 POP SWAP2 SWAP1 POP JUMP JUMPDEST PUSH32 0x4E487B7100000000000000000000000000000000000000000000000000000000 PUSH0 MSTORE PUSH1 0x41 PUSH1 0x4 MSTORE PUSH1 0x24 PUSH0 REVERT JUMPDEST PUSH32 0x4E487B7100000000000000000000000000000000000000000000000000000000 PUSH0 MSTORE PUSH1 0x22 PUSH1 0x4 MSTORE PUSH1 0x24 PUSH0 REVERT JUMPDEST PUSH0 PUSH1 0x2 DUP3 DIV SWAP1 POP PUSH1 0x1 DUP3 AND DUP1 PUSH3 0x1FC2 JUMPI PUSH1 0x7F DUP3 AND SWAP2 POP JUMPDEST PUSH1 0x20 DUP3 LT DUP2 SUB PUSH3 0x1FD8 JUMPI PUSH3 0x1FD7 PUSH3 0x1F7D JUMP JUMPDEST JUMPDEST POP SWAP2 SWAP1 POP JUMP JUMPDEST PUSH0 DUP2 SWAP1 POP DUP2 PUSH0 MSTORE PUSH1 0x20 PUSH0 KECCAK256 SWAP1 POP SWAP2 SWAP1 POP JUMP JUMPDEST PUSH0 PUSH1 0x20 PUSH1 0x1F DUP4 ADD DIV SWAP1 POP SWAP2 SWAP1 POP JUMP JUMPDEST PUSH0 DUP3 DUP3 SHL SWAP1 POP SWAP3 SWAP2 POP POP JUMP JUMPDEST PUSH0 PUSH1 0x8 DUP4 MUL PUSH3 0x203C PUSH32 0xFFFFFFFFFFFFFFFFFFFFFFFFFFFFFFFFFFFFFFFFFFFFFFFFFFFFFFFFFFFFFFFF DUP3 PUSH3 0x1FFF JUMP JUMPDEST PUSH3 0x2048 DUP7 DUP4 PUSH3 0x1FFF JUMP JUMPDEST SWAP6 POP DUP1 NOT DUP5 AND SWAP4 POP DUP1 DUP7 AND DUP5 OR SWAP3 POP POP POP SWAP4 SWAP3 POP POP POP JUMP JUMPDEST PUSH0 DUP2 SWAP1 POP SWAP2 SWAP1 POP JUMP JUMPDEST PUSH0 DUP2 SWAP1 POP SWAP2 SWAP1 POP JUMP JUMPDEST PUSH0 PUSH3 0x2092 PUSH3 0x208C PUSH3 0x2086 DUP5 PUSH3 0x2060 JUMP JUMPDEST PUSH3 0x2069 JUMP JUMPDEST PUSH3 0x2060 JUMP JUMPDEST SWAP1 POP SWAP2 SWAP1 POP JUMP JUMPDEST PUSH0 DUP2 SWAP1 POP SWAP2 SWAP1 POP JUMP JUMPDEST PUSH3 0x20AD DUP4 PUSH3 0x2072 JUMP JUMPDEST PUSH3 0x20C5 PUSH3 0x20BC DUP3 PUSH3 0x2099 JUMP JUMPDEST DUP5 DUP5 SLOAD PUSH3 0x200B JUMP JUMPDEST DUP3 SSTORE POP POP POP POP JUMP JUMPDEST PUSH0 SWAP1 JUMP JUMPDEST PUSH3 0x20DB PUSH3 0x20CD JUMP JUMPDEST PUSH3 0x20E8 DUP2 DUP5 DUP5 PUSH3 0x20A2 JUMP JUMPDEST POP POP POP JUMP JUMPDEST JUMPDEST DUP2 DUP2 LT ISZERO PUSH3 0x210F JUMPI PUSH3 0x2103 PUSH0 DUP3 PUSH3 0x20D1 JUMP JUMPDEST PUSH1 0x1 DUP2 ADD SWAP1 POP PUSH3 0x20EE JUMP JUMPDEST POP POP JUMP JUMPDEST PUSH1 0x1F DUP3 GT ISZERO PUSH3 0x215E JUMPI PUSH3 0x2128 DUP2 PUSH3 0x1FDE JUMP JUMPDEST PUSH3 0x2133 DUP5 PUSH3 0x1FF0 JUMP JUMPDEST DUP2 ADD PUSH1 0x20 DUP6 LT ISZERO PUSH3 0x2143 JUMPI DUP2 SWAP1 POP JUMPDEST PUSH3 0x215B PUSH3 0x2152 DUP6 PUSH3 0x1FF0 JUMP JUMPDEST DUP4 ADD DUP3 PUSH3 0x20ED JUMP JUMPDEST POP POP JUMPDEST POP POP POP JUMP JUMPDEST PUSH0 DUP3 DUP3 SHR SWAP1 POP SWAP3 SWAP2 POP POP JUMP JUMPDEST PUSH0 PUSH3 0x2180 PUSH0 NOT DUP5 PUSH1 0x8 MUL PUSH3 0x2163 JUMP JUMPDEST NOT DUP1 DUP4 AND SWAP2 POP POP SWAP3 SWAP2 POP POP JUMP JUMPDEST PUSH0 PUSH3 0x219A DUP4 DUP4 PUSH3 0x216F JUMP JUMPDEST SWAP2 POP DUP3 PUSH1 0x2 MUL DUP3 OR SWAP1 POP SWAP3 SWAP2 POP POP JUMP JUMPDEST PUSH3 0x21B5 DUP3 PUSH3 0x1F46 JUMP JUMPDEST PUSH8 0xFFFFFFFFFFFFFFFF DUP2 GT ISZERO PUSH3 0x21D1 JUMPI PUSH3 0x21D0 PUSH3 0x1F50 JUMP JUMPDEST JUMPDEST PUSH3 0x21DD DUP3 SLOAD PUSH3 0x1FAA JUMP JUMPDEST PUSH3 0x21EA DUP3 DUP3 DUP6 PUSH3 0x2113 JUMP JUMPDEST PUSH0 PUSH1 0x20 SWAP1 POP PUSH1 0x1F DUP4 GT PUSH1 0x1 DUP2 EQ PUSH3 0x2220 JUMPI PUSH0 DUP5 ISZERO PUSH3 0x220B JUMPI DUP3 DUP8 ADD MLOAD SWAP1 POP JUMPDEST PUSH3 0x2217 DUP6 DUP3 PUSH3 0x218D JUMP JUMPDEST DUP7 SSTORE POP PUSH3 0x2286 JUMP JUMPDEST PUSH1 0x1F NOT DUP5 AND PUSH3 0x2230 DUP7 PUSH3 0x1FDE JUMP JUMPDEST PUSH0 JUMPDEST DUP3 DUP2 LT ISZERO PUSH3 0x2259 JUMPI DUP5 DUP10 ADD MLOAD DUP3 SSTORE PUSH1 0x1 DUP3 ADD SWAP2 POP PUSH1 0x20 DUP6 ADD SWAP5 POP PUSH1 0x20 DUP2 ADD SWAP1 POP PUSH3 0x2232 JUMP JUMPDEST DUP7 DUP4 LT ISZERO PUSH3 0x2279 JUMPI DUP5 DUP10 ADD MLOAD PUSH3 0x2275 PUSH1 0x1F DUP10 AND DUP3 PUSH3 0x216F JUMP JUMPDEST DUP4 SSTORE POP JUMPDEST PUSH1 0x1 PUSH1 0x2 DUP9 MUL ADD DUP9 SSTORE POP POP POP JUMPDEST POP POP POP POP POP POP JUMP JUMPDEST PUSH0 DUP3 DUP3 MSTORE PUSH1 0x20 DUP3 ADD SWAP1 POP SWAP3 SWAP2 POP POP JUMP JUMPDEST PUSH0 DUP2 SLOAD PUSH3 0x22AC DUP2 PUSH3 0x1FAA JUMP JUMPDEST PUSH3 0x22B8 DUP2 DUP7 PUSH3 0x228E JUMP JUMPDEST SWAP5 POP PUSH1 0x1 DUP3 AND PUSH0 DUP2 EQ PUSH3 0x22D5 JUMPI PUSH1 0x1 DUP2 EQ PUSH3 0x22EC JUMPI PUSH3 0x2322 JUMP JUMPDEST PUSH1 0xFF NOT DUP4 AND DUP7 MSTORE DUP2 ISZERO ISZERO PUSH1 0x20 MUL DUP7 ADD SWAP4 POP PUSH3 0x2322 JUMP JUMPDEST PUSH3 0x22F7 DUP6 PUSH3 0x1FDE JUMP JUMPDEST PUSH0 JUMPDEST DUP4 DUP2 LT ISZERO PUSH3 0x231A JUMPI DUP2 SLOAD DUP2 DUP10 ADD MSTORE PUSH1 0x1 DUP3 ADD SWAP2 POP PUSH1 0x20 DUP2 ADD SWAP1 POP PUSH3 0x22F9 JUMP JUMPDEST DUP1 DUP9 ADD SWAP6 POP POP POP JUMPDEST POP POP POP SWAP3 SWAP2 POP POP JUMP JUMPDEST PUSH0 PUSH1 0x40 DUP3 ADD SWAP1 POP DUP2 DUP2 SUB PUSH0 DUP4 ADD MSTORE PUSH3 0x2345 DUP2 DUP6 PUSH3 0x229E JUMP JUMPDEST SWAP1 POP DUP2 DUP2 SUB PUSH1 0x20 DUP4 ADD MSTORE PUSH3 0x235B DUP2 DUP5 PUSH3 0x229E JUMP JUMPDEST SWAP1 POP SWAP4 SWAP3 POP POP POP JUMP JUMPDEST PUSH32 0x4E487B7100000000000000000000000000000000000000000000000000000000 PUSH0 MSTORE PUSH1 0x11 PUSH1 0x4 MSTORE PUSH1 0x24 PUSH0 REVERT JUMPDEST PUSH0 PUSH3 0x239D DUP3 PUSH3 0x2060 JUMP JUMPDEST SWAP2 POP PUSH32 0xFFFFFFFFFFFFFFFFFFFFFFFFFFFFFFFFFFFFFFFFFFFFFFFFFFFFFFFFFFFFFFFF DUP3 SUB PUSH3 0x23D2 JUMPI PUSH3 0x23D1 PUSH3 0x2364 JUMP JUMPDEST JUMPDEST PUSH1 0x1 DUP3 ADD SWAP1 POP SWAP2 SWAP1 POP JUMP JUMPDEST PUSH0 DUP2 ISZERO ISZERO SWAP1 POP SWAP2 SWAP1 POP JUMP JUMPDEST PUSH3 0x23F3 DUP2 PUSH3 0x23DD JUMP JUMPDEST DUP3 MSTORE POP POP JUMP JUMPDEST PUSH0 PUSH1 0x20 DUP3 ADD SWAP1 POP PUSH3 0x240E PUSH0 DUP4 ADD DUP5 PUSH3 0x23E8 JUMP JUMPDEST SWAP3 SWAP2 POP POP JUMP JUMPDEST PUSH2 0x2585 DUP1 PUSH3 0x2422 PUSH0 CODECOPY PUSH0 RETURN INVALID PUSH1 0x80 PUSH1 0x40 MSTORE CALLVALUE DUP1 ISZERO PUSH2 0xF JUMPI PUSH0 DUP1 REVERT JUMPDEST POP PUSH1 0x4 CALLDATASIZE LT PUSH2 0xA7 JUMPI PUSH0 CALLDATALOAD PUSH1 0xE0 SHR DUP1 PUSH4 0x392338F5 GT PUSH2 0x6F JUMPI DUP1 PUSH4 0x392338F5 EQ PUSH2 0x180 JUMPI DUP1 PUSH4 0x40731C24 EQ PUSH2 0x19C JUMPI DUP1 PUSH4 0x43859632 EQ PUSH2 0x1D3 JUMPI DUP1 PUSH4 0x48892753 EQ PUSH2 0x203 JUMPI DUP1 PUSH4 0x6305DD23 EQ PUSH2 0x236 JUMPI DUP1 PUSH4 0xFC6C776F EQ PUSH2 0x252 JUMPI PUSH2 0xA7 JUMP JUMPDEST DUP1 PUSH4 0xB1E7F83 EQ PUSH2 0xAB JUMPI DUP1 PUSH4 0xD4BFB4F EQ PUSH2 0xE2 JUMPI DUP1 PUSH4 0x1521E616 EQ PUSH2 0x112 JUMPI DUP1 PUSH4 0x17906C2E EQ PUSH2 0x12E JUMPI DUP1 PUSH4 0x25CFB1C5 EQ PUSH2 0x14C JUMPI JUMPDEST PUSH0 DUP1 REVERT JUMPDEST PUSH2 0xC5 PUSH1 0x4 DUP1 CALLDATASIZE SUB DUP2 ADD SWAP1 PUSH2 0xC0 SWAP2 SWAP1 PUSH2 0x164A JUMP JUMPDEST PUSH2 0x285 JUMP JUMPDEST PUSH1 0x40 MLOAD PUSH2 0xD9 SWAP9 SWAP8 SWAP7 SWAP6 SWAP5 SWAP4 SWAP3 SWAP2 SWAP1 PUSH2 0x1767 JUMP JUMPDEST PUSH1 0x40 MLOAD DUP1 SWAP2 SUB SWAP1 RETURN JUMPDEST PUSH2 0xFC PUSH1 0x4 DUP1 CALLDATASIZE SUB DUP2 ADD SWAP1 PUSH2 0xF7 SWAP2 SWAP1 PUSH2 0x164A JUMP JUMPDEST PUSH2 0x3FF JUMP JUMPDEST PUSH1 0x40 MLOAD PUSH2 0x109 SWAP2 SWAP1 PUSH2 0x17F1 JUMP JUMPDEST PUSH1 0x40 MLOAD DUP1 SWAP2 SUB SWAP1 RETURN JUMPDEST PUSH2 0x12C PUSH1 0x4 DUP1 CALLDATASIZE SUB DUP2 ADD SWAP1 PUSH2 0x127 SWAP2 SWAP1 PUSH2 0x1936 JUMP JUMPDEST PUSH2 0x46B JUMP JUMPDEST STOP JUMPDEST PUSH2 0x136 PUSH2 0x61C JUMP JUMPDEST PUSH1 0x40 MLOAD PUSH2 0x143 SWAP2 SWAP1 PUSH2 0x17F1 JUMP JUMPDEST PUSH1 0x40 MLOAD DUP1 SWAP2 SUB SWAP1 RETURN JUMPDEST PUSH2 0x166 PUSH1 0x4 DUP1 CALLDATASIZE SUB DUP2 ADD SWAP1 PUSH2 0x161 SWAP2 SWAP1 PUSH2 0x19BE JUMP JUMPDEST PUSH2 0x622 JUMP JUMPDEST PUSH1 0x40 MLOAD PUSH2 0x177 SWAP6 SWAP5 SWAP4 SWAP3 SWAP2 SWAP1 PUSH2 0x1C7F JUMP JUMPDEST PUSH1 0x40 MLOAD DUP1 SWAP2 SUB SWAP1 RETURN JUMPDEST PUSH2 0x19A PUSH1 0x4 DUP1 CALLDATASIZE SUB DUP2 ADD SWAP1 PUSH2 0x195 SWAP2 SWAP1 PUSH2 0x1CEC JUMP JUMPDEST PUSH2 0xBCF JUMP JUMPDEST STOP JUMPDEST PUSH2 0x1B6 PUSH1 0x4 DUP1 CALLDATASIZE SUB DUP2 ADD SWAP1 PUSH2 0x1B1 SWAP2 SWAP1 PUSH2 0x164A JUMP JUMPDEST PUSH2 0xCF7 JUMP JUMPDEST PUSH1 0x40 MLOAD PUSH2 0x1CA SWAP9 SWAP8 SWAP7 SWAP6 SWAP5 SWAP4 SWAP3 SWAP2 SWAP1 PUSH2 0x1767 JUMP JUMPDEST PUSH1 0x40 MLOAD DUP1 SWAP2 SUB SWAP1 RETURN JUMPDEST PUSH2 0x1ED PUSH1 0x4 DUP1 CALLDATASIZE SUB DUP2 ADD SWAP1 PUSH2 0x1E8 SWAP2 SWAP1 PUSH2 0x1D8C JUMP JUMPDEST PUSH2 0xEE3 JUMP JUMPDEST PUSH1 0x40 MLOAD PUSH2 0x1FA SWAP2 SWAP1 PUSH2 0x1DCA JUMP JUMPDEST PUSH1 0x40 MLOAD DUP1 SWAP2 SUB SWAP1 RETURN JUMPDEST PUSH2 0x21D PUSH1 0x4 DUP1 CALLDATASIZE SUB DUP2 ADD SWAP1 PUSH2 0x218 SWAP2 SWAP1 PUSH2 0x1DE3 JUMP JUMPDEST PUSH2 0xF97 JUMP JUMPDEST PUSH1 0x40 MLOAD PUSH2 0x22D SWAP5 SWAP4 SWAP3 SWAP2 SWAP1 PUSH2 0x1E21 JUMP JUMPDEST PUSH1 0x40 MLOAD DUP1 SWAP2 SUB SWAP1 RETURN JUMPDEST PUSH2 0x250 PUSH1 0x4 DUP1 CALLDATASIZE SUB DUP2 ADD SWAP1 PUSH2 0x24B SWAP2 SWAP1 PUSH2 0x1E9C JUMP JUMPDEST PUSH2 0x11C6 JUMP JUMPDEST STOP JUMPDEST PUSH2 0x26C PUSH1 0x4 DUP1 CALLDATASIZE SUB DUP2 ADD SWAP1 PUSH2 0x267 SWAP2 SWAP1 PUSH2 0x1DE3 JUMP JUMPDEST PUSH2 0x14A4 JUMP JUMPDEST PUSH1 0x40 MLOAD PUSH2 0x27C SWAP5 SWAP4 SWAP3 SWAP2 SWAP1 PUSH2 0x1E21 JUMP JUMPDEST PUSH1 0x40 MLOAD DUP1 SWAP2 SUB SWAP1 RETURN JUMPDEST PUSH0 PUSH1 0x20 MSTORE DUP1 PUSH0 MSTORE PUSH1 0x40 PUSH0 KECCAK256 PUSH0 SWAP2 POP SWAP1 POP DUP1 PUSH0 ADD PUSH0 SWAP1 SLOAD SWAP1 PUSH2 0x100 EXP SWAP1 DIV PUSH20 0xFFFFFFFFFFFFFFFFFFFFFFFFFFFFFFFFFFFFFFFF AND SWAP1 DUP1 PUSH1 0x1 ADD DUP1 SLOAD PUSH2 0x2C8 SWAP1 PUSH2 0x1F07 JUMP JUMPDEST DUP1 PUSH1 0x1F ADD PUSH1 0x20 DUP1 SWAP2 DIV MUL PUSH1 0x20 ADD PUSH1 0x40 MLOAD SWAP1 DUP2 ADD PUSH1 0x40 MSTORE DUP1 SWAP3 SWAP2 SWAP1 DUP2 DUP2 MSTORE PUSH1 0x20 ADD DUP3 DUP1 SLOAD PUSH2 0x2F4 SWAP1 PUSH2 0x1F07 JUMP JUMPDEST DUP1 ISZERO PUSH2 0x33F JUMPI DUP1 PUSH1 0x1F LT PUSH2 0x316 JUMPI PUSH2 0x100 DUP1 DUP4 SLOAD DIV MUL DUP4 MSTORE SWAP2 PUSH1 0x20 ADD SWAP2 PUSH2 0x33F JUMP JUMPDEST DUP3 ADD SWAP2 SWAP1 PUSH0 MSTORE PUSH1 0x20 PUSH0 KECCAK256 SWAP1 JUMPDEST DUP2 SLOAD DUP2 MSTORE SWAP1 PUSH1 0x1 ADD SWAP1 PUSH1 0x20 ADD DUP1 DUP4 GT PUSH2 0x322 JUMPI DUP3 SWAP1 SUB PUSH1 0x1F AND DUP3 ADD SWAP2 JUMPDEST POP POP POP POP POP SWAP1 DUP1 PUSH1 0x2 ADD DUP1 SLOAD PUSH2 0x354 SWAP1 PUSH2 0x1F07 JUMP JUMPDEST DUP1 PUSH1 0x1F ADD PUSH1 0x20 DUP1 SWAP2 DIV MUL PUSH1 0x20 ADD PUSH1 0x40 MLOAD SWAP1 DUP2 ADD PUSH1 0x40 MSTORE DUP1 SWAP3 SWAP2 SWAP1 DUP2 DUP2 MSTORE PUSH1 0x20 ADD DUP3 DUP1 SLOAD PUSH2 0x380 SWAP1 PUSH2 0x1F07 JUMP JUMPDEST DUP1 ISZERO PUSH2 0x3CB JUMPI DUP1 PUSH1 0x1F LT PUSH2 0x3A2 JUMPI PUSH2 0x100 DUP1 DUP4 SLOAD DIV MUL DUP4 MSTORE SWAP2 PUSH1 0x20 ADD SWAP2 PUSH2 0x3CB JUMP JUMPDEST DUP3 ADD SWAP2 SWAP1 PUSH0 MSTORE PUSH1 0x20 PUSH0 KECCAK256 SWAP1 JUMPDEST DUP2 SLOAD DUP2 MSTORE SWAP1 PUSH1 0x1 ADD SWAP1 PUSH1 0x20 ADD DUP1 DUP4 GT PUSH2 0x3AE JUMPI DUP3 SWAP1 SUB PUSH1 0x1F AND DUP3 ADD SWAP2 JUMPDEST POP POP POP POP POP SWAP1 DUP1 PUSH1 0x3 ADD SLOAD SWAP1 DUP1 PUSH1 0x4 ADD PUSH0 SWAP1 SLOAD SWAP1 PUSH2 0x100 EXP SWAP1 DIV PUSH1 0xFF AND SWAP1 DUP1 PUSH1 0x5 ADD SLOAD SWAP1 DUP1 PUSH1 0x6 ADD SLOAD SWAP1 DUP1 PUSH1 0x8 ADD SLOAD SWAP1 POP DUP9 JUMP JUMPDEST PUSH0 DUP1 DUP3 GT DUP1 ISZERO PUSH2 0x411 JUMPI POP PUSH1 0x1 SLOAD DUP3 GT ISZERO JUMPDEST PUSH2 0x450 JUMPI PUSH1 0x40 MLOAD PUSH32 0x8C379A000000000000000000000000000000000000000000000000000000000 DUP2 MSTORE PUSH1 0x4 ADD PUSH2 0x447 SWAP1 PUSH2 0x1F81 JUMP JUMPDEST PUSH1 0x40 MLOAD DUP1 SWAP2 SUB SWAP1 REVERT JUMPDEST PUSH0 DUP1 DUP4 DUP2 MSTORE PUSH1 0x20 ADD SWAP1 DUP2 MSTORE PUSH1 0x20 ADD PUSH0 KECCAK256 PUSH1 0x8 ADD SLOAD SWAP1 POP SWAP2 SWAP1 POP JUMP JUMPDEST PUSH0 DUP4 GT DUP1 ISZERO PUSH2 0x47C JUMPI POP PUSH1 0x1 SLOAD DUP4 GT ISZERO JUMPDEST PUSH2 0x4BB JUMPI PUSH1 0x40 MLOAD PUSH32 0x8C379A000000000000000000000000000000000000000000000000000000000 DUP2 MSTORE PUSH1 0x4 ADD PUSH2 0x4B2 SWAP1 PUSH2 0x1F81 JUMP JUMPDEST PUSH1 0x40 MLOAD DUP1 SWAP2 SUB SWAP1 REVERT JUMPDEST PUSH0 DUP3 MLOAD GT PUSH2 0x4FE JUMPI PUSH1 0x40 MLOAD PUSH32 0x8C379A000000000000000000000000000000000000000000000000000000000 DUP2 MSTORE PUSH1 0x4 ADD PUSH2 0x4F5 SWAP1 PUSH2 0x1FE9 JUMP JUMPDEST PUSH1 0x40 MLOAD DUP1 SWAP2 SUB SWAP1 REVERT JUMPDEST PUSH0 DUP1 PUSH0 DUP6 DUP2 MSTORE PUSH1 0x20 ADD SWAP1 DUP2 MSTORE PUSH1 0x20 ADD PUSH0 KECCAK256 SWAP1 POP DUP1 PUSH1 0x8 ADD PUSH0 DUP2 SLOAD DUP1 SWAP3 SWAP2 SWAP1 PUSH2 0x525 SWAP1 PUSH2 0x2034 JUMP JUMPDEST SWAP2 SWAP1 POP SSTORE POP PUSH0 PUSH1 0x2 PUSH0 DUP7 DUP2 MSTORE PUSH1 0x20 ADD SWAP1 DUP2 MSTORE PUSH1 0x20 ADD PUSH0 KECCAK256 PUSH0 DUP4 PUSH1 0x8 ADD SLOAD DUP2 MSTORE PUSH1 0x20 ADD SWAP1 DUP2 MSTORE PUSH1 0x20 ADD PUSH0 KECCAK256 SWAP1 POP CALLER DUP2 PUSH0 ADD PUSH0 PUSH2 0x100 EXP DUP2 SLOAD DUP2 PUSH20 0xFFFFFFFFFFFFFFFFFFFFFFFFFFFFFFFFFFFFFFFF MUL NOT AND SWAP1 DUP4 PUSH20 0xFFFFFFFFFFFFFFFFFFFFFFFFFFFFFFFFFFFFFFFF AND MUL OR SWAP1 SSTORE POP DUP4 DUP2 PUSH1 0x1 ADD SWAP1 DUP2 PUSH2 0x5A3 SWAP2 SWAP1 PUSH2 0x2218 JUMP JUMPDEST POP DUP3 DUP2 PUSH1 0x2 ADD SWAP1 DUP2 PUSH2 0x5B5 SWAP2 SWAP1 PUSH2 0x2218 JUMP JUMPDEST POP TIMESTAMP DUP2 PUSH1 0x3 ADD DUP2 SWAP1 SSTORE POP CALLER PUSH20 0xFFFFFFFFFFFFFFFFFFFFFFFFFFFFFFFFFFFFFFFF AND DUP3 PUSH1 0x8 ADD SLOAD DUP7 PUSH32 0x3A56E2377ACF256C15A50F0B97834FA29A151D0B8A6D05C450576E40634FADC DUP8 DUP8 PUSH1 0x40 MLOAD PUSH2 0x60D SWAP3 SWAP2 SWAP1 PUSH2 0x22E7 JUMP JUMPDEST PUSH1 0x40 MLOAD DUP1 SWAP2 SUB SWAP1 LOG4 POP POP POP POP POP JUMP JUMPDEST PUSH1 0x1 SLOAD DUP2 JUMP JUMPDEST PUSH1 0x60 DUP1 PUSH1 0x60 DUP1 PUSH0 DUP1 DUP9 GT DUP1 ISZERO PUSH2 0x63A JUMPI POP PUSH1 0x1 SLOAD DUP9 GT ISZERO JUMPDEST PUSH2 0x679 JUMPI PUSH1 0x40 MLOAD PUSH32 0x8C379A000000000000000000000000000000000000000000000000000000000 DUP2 MSTORE PUSH1 0x4 ADD PUSH2 0x670 SWAP1 PUSH2 0x1F81 JUMP JUMPDEST PUSH1 0x40 MLOAD DUP1 SWAP2 SUB SWAP1 REVERT JUMPDEST PUSH0 DUP8 GT PUSH2 0x6BB JUMPI PUSH1 0x40 MLOAD PUSH32 0x8C379A000000000000000000000000000000000000000000000000000000000 DUP2 MSTORE PUSH1 0x4 ADD PUSH2 0x6B2 SWAP1 PUSH2 0x2366 JUMP JUMPDEST PUSH1 0x40 MLOAD DUP1 SWAP2 SUB SWAP1 REVERT JUMPDEST PUSH0 DUP1 PUSH0 DUP11 DUP2 MSTORE PUSH1 0x20 ADD SWAP1 DUP2 MSTORE PUSH1 0x20 ADD PUSH0 KECCAK256 PUSH1 0x8 ADD SLOAD SWAP1 POP DUP1 SWAP2 POP DUP1 DUP9 GT ISZERO PUSH2 0x819 JUMPI PUSH0 PUSH8 0xFFFFFFFFFFFFFFFF DUP2 GT ISZERO PUSH2 0x6F7 JUMPI PUSH2 0x6F6 PUSH2 0x1812 JUMP JUMPDEST JUMPDEST PUSH1 0x40 MLOAD SWAP1 DUP1 DUP3 MSTORE DUP1 PUSH1 0x20 MUL PUSH1 0x20 ADD DUP3 ADD PUSH1 0x40 MSTORE DUP1 ISZERO PUSH2 0x725 JUMPI DUP2 PUSH1 0x20 ADD PUSH1 0x20 DUP3 MUL DUP1 CALLDATASIZE DUP4 CALLDATACOPY DUP1 DUP3 ADD SWAP2 POP POP SWAP1 POP JUMPDEST POP PUSH0 PUSH8 0xFFFFFFFFFFFFFFFF DUP2 GT ISZERO PUSH2 0x740 JUMPI PUSH2 0x73F PUSH2 0x1812 JUMP JUMPDEST JUMPDEST PUSH1 0x40 MLOAD SWAP1 DUP1 DUP3 MSTORE DUP1 PUSH1 0x20 MUL PUSH1 0x20 ADD DUP3 ADD PUSH1 0x40 MSTORE DUP1 ISZERO PUSH2 0x773 JUMPI DUP2 PUSH1 0x20 ADD JUMPDEST PUSH1 0x60 DUP2 MSTORE PUSH1 0x20 ADD SWAP1 PUSH1 0x1 SWAP1 SUB SWAP1 DUP2 PUSH2 0x75E JUMPI SWAP1 POP JUMPDEST POP PUSH0 PUSH8 0xFFFFFFFFFFFFFFFF DUP2 GT ISZERO PUSH2 0x78E JUMPI PUSH2 0x78D PUSH2 0x1812 JUMP JUMPDEST JUMPDEST PUSH1 0x40 MLOAD SWAP1 DUP1 DUP3 MSTORE DUP1 PUSH1 0x20 MUL PUSH1 0x20 ADD DUP3 ADD PUSH1 0x40 MSTORE DUP1 ISZERO PUSH2 0x7C1 JUMPI DUP2 PUSH1 0x20 ADD JUMPDEST PUSH1 0x60 DUP2 MSTORE PUSH1 0x20 ADD SWAP1 PUSH1 0x1 SWAP1 SUB SWAP1 DUP2 PUSH2 0x7AC JUMPI SWAP1 POP JUMPDEST POP PUSH0 PUSH8 0xFFFFFFFFFFFFFFFF DUP2 GT ISZERO PUSH2 0x7DC JUMPI PUSH2 0x7DB PUSH2 0x1812 JUMP JUMPDEST JUMPDEST PUSH1 0x40 MLOAD SWAP1 DUP1 DUP3 MSTORE DUP1 PUSH1 0x20 MUL PUSH1 0x20 ADD DUP3 ADD PUSH1 0x40 MSTORE DUP1 ISZERO PUSH2 0x80A JUMPI DUP2 PUSH1 0x20 ADD PUSH1 0x20 DUP3 MUL DUP1 CALLDATASIZE DUP4 CALLDATACOPY DUP1 DUP3 ADD SWAP2 POP POP SWAP1 POP JUMPDEST POP SWAP6 POP SWAP6 POP SWAP6 POP SWAP6 POP POP PUSH2 0xBC4 JUMP JUMPDEST PUSH0 DUP8 SWAP1 POP PUSH1 0x14 DUP2 GT ISZERO PUSH2 0x82B JUMPI PUSH1 0x14 SWAP1 POP JUMPDEST PUSH0 PUSH1 0x1 DUP11 DUP5 PUSH2 0x83A SWAP2 SWAP1 PUSH2 0x2384 JUMP JUMPDEST PUSH2 0x844 SWAP2 SWAP1 PUSH2 0x23B7 JUMP JUMPDEST SWAP1 POP DUP1 DUP3 GT ISZERO PUSH2 0x852 JUMPI DUP1 SWAP2 POP JUMPDEST DUP2 PUSH8 0xFFFFFFFFFFFFFFFF DUP2 GT ISZERO PUSH2 0x86C JUMPI PUSH2 0x86B PUSH2 0x1812 JUMP JUMPDEST JUMPDEST PUSH1 0x40 MLOAD SWAP1 DUP1 DUP3 MSTORE DUP1 PUSH1 0x20 MUL PUSH1 0x20 ADD DUP3 ADD PUSH1 0x40 MSTORE DUP1 ISZERO PUSH2 0x89A JUMPI DUP2 PUSH1 0x20 ADD PUSH1 0x20 DUP3 MUL DUP1 CALLDATASIZE DUP4 CALLDATACOPY DUP1 DUP3 ADD SWAP2 POP POP SWAP1 POP JUMPDEST POP SWAP8 POP DUP2 PUSH8 0xFFFFFFFFFFFFFFFF DUP2 GT ISZERO PUSH2 0x8B7 JUMPI PUSH2 0x8B6 PUSH2 0x1812 JUMP JUMPDEST JUMPDEST PUSH1 0x40 MLOAD SWAP1 DUP1 DUP3 MSTORE DUP1 PUSH1 0x20 MUL PUSH1 0x20 ADD DUP3 ADD PUSH1 0x40 MSTORE DUP1 ISZERO PUSH2 0x8EA JUMPI DUP2 PUSH1 0x20 ADD JUMPDEST PUSH1 0x60 DUP2 MSTORE PUSH1 0x20 ADD SWAP1 PUSH1 0x1 SWAP1 SUB SWAP1 DUP2 PUSH2 0x8D5 JUMPI SWAP1 POP JUMPDEST POP SWAP7 POP DUP2 PUSH8 0xFFFFFFFFFFFFFFFF DUP2 GT ISZERO PUSH2 0x907 JUMPI PUSH2 0x906 PUSH2 0x1812 JUMP JUMPDEST JUMPDEST PUSH1 0x40 MLOAD SWAP1 DUP1 DUP3 MSTORE DUP1 PUSH1 0x20 MUL PUSH1 0x20 ADD DUP3 ADD PUSH1 0x40 MSTORE DUP1 ISZERO PUSH2 0x93A JUMPI DUP2 PUSH1 0x20 ADD JUMPDEST PUSH1 0x60 DUP2 MSTORE PUSH1 0x20 ADD SWAP1 PUSH1 0x1 SWAP1 SUB SWAP1 DUP2 PUSH2 0x925 JUMPI SWAP1 POP JUMPDEST POP SWAP6 POP DUP2 PUSH8 0xFFFFFFFFFFFFFFFF DUP2 GT ISZERO PUSH2 0x957 JUMPI PUSH2 0x956 PUSH2 0x1812 JUMP JUMPDEST JUMPDEST PUSH1 0x40 MLOAD SWAP1 DUP1 DUP3 MSTORE DUP1 PUSH1 0x20 MUL PUSH1 0x20 ADD DUP3 ADD PUSH1 0x40 MSTORE DUP1 ISZERO PUSH2 0x985 JUMPI DUP2 PUSH1 0x20 ADD PUSH1 0x20 DUP3 MUL DUP1 CALLDATASIZE DUP4 CALLDATACOPY DUP1 DUP3 ADD SWAP2 POP POP SWAP1 POP JUMPDEST POP SWAP5 POP PUSH0 JUMPDEST DUP3 DUP2 LT ISZERO PUSH2 0xBBF JUMPI PUSH0 DUP2 DUP13 PUSH2 0x99F SWAP2 SWAP1 PUSH2 0x23B7 JUMP JUMPDEST SWAP1 POP PUSH0 PUSH1 0x2 PUSH0 DUP16 DUP2 MSTORE PUSH1 0x20 ADD SWAP1 DUP2 MSTORE PUSH1 0x20 ADD PUSH0 KECCAK256 PUSH0 DUP4 DUP2 MSTORE PUSH1 0x20 ADD SWAP1 DUP2 MSTORE PUSH1 0x20 ADD PUSH0 KECCAK256 SWAP1 POP DUP1 PUSH0 ADD PUSH0 SWAP1 SLOAD SWAP1 PUSH2 0x100 EXP SWAP1 DIV PUSH20 0xFFFFFFFFFFFFFFFFFFFFFFFFFFFFFFFFFFFFFFFF AND DUP12 DUP5 DUP2 MLOAD DUP2 LT PUSH2 0x9FA JUMPI PUSH2 0x9F9 PUSH2 0x23EA JUMP JUMPDEST JUMPDEST PUSH1 0x20 MUL PUSH1 0x20 ADD ADD SWAP1 PUSH20 0xFFFFFFFFFFFFFFFFFFFFFFFFFFFFFFFFFFFFFFFF AND SWAP1 DUP2 PUSH20 0xFFFFFFFFFFFFFFFFFFFFFFFFFFFFFFFFFFFFFFFF AND DUP2 MSTORE POP POP DUP1 PUSH1 0x1 ADD DUP1 SLOAD PUSH2 0xA43 SWAP1 PUSH2 0x1F07 JUMP JUMPDEST DUP1 PUSH1 0x1F ADD PUSH1 0x20 DUP1 SWAP2 DIV MUL PUSH1 0x20 ADD PUSH1 0x40 MLOAD SWAP1 DUP2 ADD PUSH1 0x40 MSTORE DUP1 SWAP3 SWAP2 SWAP1 DUP2 DUP2 MSTORE PUSH1 0x20 ADD DUP3 DUP1 SLOAD PUSH2 0xA6F SWAP1 PUSH2 0x1F07 JUMP JUMPDEST DUP1 ISZERO PUSH2 0xABA JUMPI DUP1 PUSH1 0x1F LT PUSH2 0xA91 JUMPI PUSH2 0x100 DUP1 DUP4 SLOAD DIV MUL DUP4 MSTORE SWAP2 PUSH1 0x20 ADD SWAP2 PUSH2 0xABA JUMP JUMPDEST DUP3 ADD SWAP2 SWAP1 PUSH0 MSTORE PUSH1 0x20 PUSH0 KECCAK256 SWAP1 JUMPDEST DUP2 SLOAD DUP2 MSTORE SWAP1 PUSH1 0x1 ADD SWAP1 PUSH1 0x20 ADD DUP1 DUP4 GT PUSH2 0xA9D JUMPI DUP3 SWAP1 SUB PUSH1 0x1F AND DUP3 ADD SWAP2 JUMPDEST POP POP POP POP POP DUP11 DUP5 DUP2 MLOAD DUP2 LT PUSH2 0xAD2 JUMPI PUSH2 0xAD1 PUSH2 0x23EA JUMP JUMPDEST JUMPDEST PUSH1 0x20 MUL PUSH1 0x20 ADD ADD DUP2 SWAP1 MSTORE POP DUP1 PUSH1 0x2 ADD DUP1 SLOAD PUSH2 0xAEC SWAP1 PUSH2 0x1F07 JUMP JUMPDEST DUP1 PUSH1 0x1F ADD PUSH1 0x20 DUP1 SWAP2 DIV MUL PUSH1 0x20 ADD PUSH1 0x40 MLOAD SWAP1 DUP2 ADD PUSH1 0x40 MSTORE DUP1 SWAP3 SWAP2 SWAP1 DUP2 DUP2 MSTORE PUSH1 0x20 ADD DUP3 DUP1 SLOAD PUSH2 0xB18 SWAP1 PUSH2 0x1F07 JUMP JUMPDEST DUP1 ISZERO PUSH2 0xB63 JUMPI DUP1 PUSH1 0x1F LT PUSH2 0xB3A JUMPI PUSH2 0x100 DUP1 DUP4 SLOAD DIV MUL DUP4 MSTORE SWAP2 PUSH1 0x20 ADD SWAP2 PUSH2 0xB63 JUMP JUMPDEST DUP3 ADD SWAP2 SWAP1 PUSH0 MSTORE PUSH1 0x20 PUSH0 KECCAK256 SWAP1 JUMPDEST DUP2 SLOAD DUP2 MSTORE SWAP1 PUSH1 0x1 ADD SWAP1 PUSH1 0x20 ADD DUP1 DUP4 GT PUSH2 0xB46 JUMPI DUP3 SWAP1 SUB PUSH1 0x1F AND DUP3 ADD SWAP2 JUMPDEST POP POP POP POP POP DUP10 DUP5 DUP2 MLOAD DUP2 LT PUSH2 0xB7B JUMPI PUSH2 0xB7A PUSH2 0x23EA JUMP JUMPDEST JUMPDEST PUSH1 0x20 MUL PUSH1 0x20 ADD ADD DUP2 SWAP1 MSTORE POP DUP1 PUSH1 0x3 ADD SLOAD DUP9 DUP5 DUP2 MLOAD DUP2 LT PUSH2 0xB9E JUMPI PUSH2 0xB9D PUSH2 0x23EA JUMP JUMPDEST JUMPDEST PUSH1 0x20 MUL PUSH1 0x20 ADD ADD DUP2 DUP2 MSTORE POP POP POP POP DUP1 DUP1 PUSH2 0xBB7 SWAP1 PUSH2 0x2034 JUMP JUMPDEST SWAP2 POP POP PUSH2 0x98A JUMP JUMPDEST POP POP POP POP JUMPDEST SWAP4 SWAP8 SWAP3 SWAP7 POP SWAP4 POP SWAP4 POP JUMP JUMPDEST PUSH1 0x1 PUSH0 DUP2 SLOAD DUP1 SWAP3 SWAP2 SWAP1 PUSH2 0xBE1 SWAP1 PUSH2 0x2034 JUMP JUMPDEST SWAP2 SWAP1 POP SSTORE POP PUSH0 DUP1 PUSH0 PUSH1 0x1 SLOAD DUP2 MSTORE PUSH1 0x20 ADD SWAP1 DUP2 MSTORE PUSH1 0x20 ADD PUSH0 KECCAK256 SWAP1 POP CALLER DUP2 PUSH0 ADD PUSH0 PUSH2 0x100 EXP DUP2 SLOAD DUP2 PUSH20 0xFFFFFFFFFFFFFFFFFFFFFFFFFFFFFFFFFFFFFFFF MUL NOT AND SWAP1 DUP4 PUSH20 0xFFFFFFFFFFFFFFFFFFFFFFFFFFFFFFFFFFFFFFFF AND MUL OR SWAP1 SSTORE POP DUP3 DUP2 PUSH1 0x1 ADD SWAP1 DUP2 PUSH2 0xC4D SWAP2 SWAP1 PUSH2 0x2218 JUMP JUMPDEST POP DUP2 DUP2 PUSH1 0x2 ADD SWAP1 DUP2 PUSH2 0xC5F SWAP2 SWAP1 PUSH2 0x2218 JUMP JUMPDEST POP TIMESTAMP DUP2 PUSH1 0x3 ADD DUP2 SWAP1 SSTORE POP PUSH0 DUP2 PUSH1 0x4 ADD PUSH0 PUSH2 0x100 EXP DUP2 SLOAD DUP2 PUSH1 0xFF MUL NOT AND SWAP1 DUP4 ISZERO ISZERO MUL OR SWAP1 SSTORE POP PUSH0 DUP2 PUSH1 0x5 ADD DUP2 SWAP1 SSTORE POP PUSH0 DUP2 PUSH1 0x6 ADD DUP2 SWAP1 SSTORE POP PUSH0 DUP2 PUSH1 0x8 ADD DUP2 SWAP1 SSTORE POP CALLER PUSH20 0xFFFFFFFFFFFFFFFFFFFFFFFFFFFFFFFFFFFFFFFF AND PUSH1 0x1 SLOAD PUSH32 0x5475621B07408F75D49C828CAA5AEACB3A5E98D3497E75730DC184677504401C DUP5 DUP7 PUSH1 0x40 MLOAD PUSH2 0xCEA SWAP3 SWAP2 SWAP1 PUSH2 0x22E7 JUMP JUMPDEST PUSH1 0x40 MLOAD DUP1 SWAP2 SUB SWAP1 LOG3 POP POP POP JUMP JUMPDEST PUSH0 PUSH1 0x60 DUP1 PUSH0 DUP1 PUSH0 DUP1 PUSH0 DUP1 DUP10 GT DUP1 ISZERO PUSH2 0xD11 JUMPI POP PUSH1 0x1 SLOAD DUP10 GT ISZERO JUMPDEST PUSH2 0xD50 JUMPI PUSH1 0x40 MLOAD PUSH32 0x8C379A000000000000000000000000000000000000000000000000000000000 DUP2 MSTORE PUSH1 0x4 ADD PUSH2 0xD47 SWAP1 PUSH2 0x1F81 JUMP JUMPDEST PUSH1 0x40 MLOAD DUP1 SWAP2 SUB SWAP1 REVERT JUMPDEST PUSH0 DUP1 PUSH0 DUP12 DUP2 MSTORE PUSH1 0x20 ADD SWAP1 DUP2 MSTORE PUSH1 0x20 ADD PUSH0 KECCAK256 SWAP1 POP DUP1 PUSH0 ADD PUSH0 SWAP1 SLOAD SWAP1 PUSH2 0x100 EXP SWAP1 DIV PUSH20 0xFFFFFFFFFFFFFFFFFFFFFFFFFFFFFFFFFFFFFFFF AND DUP2 PUSH1 0x1 ADD DUP3 PUSH1 0x2 ADD DUP4 PUSH1 0x3 ADD SLOAD DUP5 PUSH1 0x4 ADD PUSH0 SWAP1 SLOAD SWAP1 PUSH2 0x100 EXP SWAP1 DIV PUSH1 0xFF AND DUP6 PUSH1 0x5 ADD SLOAD DUP7 PUSH1 0x6 ADD SLOAD DUP8 PUSH1 0x8 ADD SLOAD DUP7 DUP1 SLOAD PUSH2 0xDBF SWAP1 PUSH2 0x1F07 JUMP JUMPDEST DUP1 PUSH1 0x1F ADD PUSH1 0x20 DUP1 SWAP2 DIV MUL PUSH1 0x20 ADD PUSH1 0x40 MLOAD SWAP1 DUP2 ADD PUSH1 0x40 MSTORE DUP1 SWAP3 SWAP2 SWAP1 DUP2 DUP2 MSTORE PUSH1 0x20 ADD DUP3 DUP1 SLOAD PUSH2 0xDEB SWAP1 PUSH2 0x1F07 JUMP JUMPDEST DUP1 ISZERO PUSH2 0xE36 JUMPI DUP1 PUSH1 0x1F LT PUSH2 0xE0D JUMPI PUSH2 0x100 DUP1 DUP4 SLOAD DIV MUL DUP4 MSTORE SWAP2 PUSH1 0x20 ADD SWAP2 PUSH2 0xE36 JUMP JUMPDEST DUP3 ADD SWAP2 SWAP1 PUSH0 MSTORE PUSH1 0x20 PUSH0 KECCAK256 SWAP1 JUMPDEST DUP2 SLOAD DUP2 MSTORE SWAP1 PUSH1 0x1 ADD SWAP1 PUSH1 0x20 ADD DUP1 DUP4 GT PUSH2 0xE19 JUMPI DUP3 SWAP1 SUB PUSH1 0x1F AND DUP3 ADD SWAP2 JUMPDEST POP POP POP POP POP SWAP7 POP DUP6 DUP1 SLOAD PUSH2 0xE49 SWAP1 PUSH2 0x1F07 JUMP JUMPDEST DUP1 PUSH1 0x1F ADD PUSH1 0x20 DUP1 SWAP2 DIV MUL PUSH1 0x20 ADD PUSH1 0x40 MLOAD SWAP1 DUP2 ADD PUSH1 0x40 MSTORE DUP1 SWAP3 SWAP2 SWAP1 DUP2 DUP2 MSTORE PUSH1 0x20 ADD DUP3 DUP1 SLOAD PUSH2 0xE75 SWAP1 PUSH2 0x1F07 JUMP JUMPDEST DUP1 ISZERO PUSH2 0xEC0 JUMPI DUP1 PUSH1 0x1F LT PUSH2 0xE97 JUMPI PUSH2 0x100 DUP1 DUP4 SLOAD DIV MUL DUP4 MSTORE SWAP2 PUSH1 0x20 ADD SWAP2 PUSH2 0xEC0 JUMP JUMPDEST DUP3 ADD SWAP2 SWAP1 PUSH0 MSTORE PUSH1 0x20 PUSH0 KECCAK256 SWAP1 JUMPDEST DUP2 SLOAD DUP2 MSTORE SWAP1 PUSH1 0x1 ADD SWAP1 PUSH1 0x20 ADD DUP1 DUP4 GT PUSH2 0xEA3 JUMPI DUP3 SWAP1 SUB PUSH1 0x1F AND DUP3 ADD SWAP2 JUMPDEST POP POP POP POP POP SWAP6 POP SWAP9 POP SWAP9 POP SWAP9 POP SWAP9 POP SWAP9 POP SWAP9 POP SWAP9 POP SWAP9 POP POP SWAP2 SWAP4 SWAP6 SWAP8 POP SWAP2 SWAP4 SWAP6 SWAP8 JUMP JUMPDEST PUSH0 DUP1 DUP4 GT DUP1 ISZERO PUSH2 0xEF5 JUMPI POP PUSH1 0x1 SLOAD DUP4 GT ISZERO JUMPDEST PUSH2 0xF34 JUMPI PUSH1 0x40 MLOAD PUSH32 0x8C379A000000000000000000000000000000000000000000000000000000000 DUP2 MSTORE PUSH1 0x4 ADD PUSH2 0xF2B SWAP1 PUSH2 0x1F81 JUMP JUMPDEST PUSH1 0x40 MLOAD DUP1 SWAP2 SUB SWAP1 REVERT JUMPDEST PUSH0 DUP1 DUP5 DUP2 MSTORE PUSH1 0x20 ADD SWAP1 DUP2 MSTORE PUSH1 0x20 ADD PUSH0 KECCAK256 PUSH1 0x7 ADD PUSH0 DUP4 PUSH20 0xFFFFFFFFFFFFFFFFFFFFFFFFFFFFFFFFFFFFFFFF AND PUSH20 0xFFFFFFFFFFFFFFFFFFFFFFFFFFFFFFFFFFFFFFFF AND DUP2 MSTORE PUSH1 0x20 ADD SWAP1 DUP2 MSTORE PUSH1 0x20 ADD PUSH0 KECCAK256 PUSH0 SWAP1 SLOAD SWAP1 PUSH2 0x100 EXP SWAP1 DIV PUSH1 0xFF AND SWAP1 POP SWAP3 SWAP2 POP POP JUMP JUMPDEST PUSH0 PUSH1 0x60 DUP1 PUSH0 DUP1 DUP7 GT DUP1 ISZERO PUSH2 0xFAD JUMPI POP PUSH1 0x1 SLOAD DUP7 GT ISZERO JUMPDEST PUSH2 0xFEC JUMPI PUSH1 0x40 MLOAD PUSH32 0x8C379A000000000000000000000000000000000000000000000000000000000 DUP2 MSTORE PUSH1 0x4 ADD PUSH2 0xFE3 SWAP1 PUSH2 0x1F81 JUMP JUMPDEST PUSH1 0x40 MLOAD DUP1 SWAP2 SUB SWAP1 REVERT JUMPDEST PUSH0 DUP6 GT DUP1 ISZERO PUSH2 0x100E JUMPI POP PUSH0 DUP1 DUP8 DUP2 MSTORE PUSH1 0x20 ADD SWAP1 DUP2 MSTORE PUSH1 0x20 ADD PUSH0 KECCAK256 PUSH1 0x8 ADD SLOAD DUP6 GT ISZERO JUMPDEST PUSH2 0x104D JUMPI PUSH1 0x40 MLOAD PUSH32 0x8C379A000000000000000000000000000000000000000000000000000000000 DUP2 MSTORE PUSH1 0x4 ADD PUSH2 0x1044 SWAP1 PUSH2 0x2461 JUMP JUMPDEST PUSH1 0x40 MLOAD DUP1 SWAP2 SUB SWAP1 REVERT JUMPDEST PUSH0 PUSH1 0x2 PUSH0 DUP9 DUP2 MSTORE PUSH1 0x20 ADD SWAP1 DUP2 MSTORE PUSH1 0x20 ADD PUSH0 KECCAK256 PUSH0 DUP8 DUP2 MSTORE PUSH1 0x20 ADD SWAP1 DUP2 MSTORE PUSH1 0x20 ADD PUSH0 KECCAK256 SWAP1 POP DUP1 PUSH0 ADD PUSH0 SWAP1 SLOAD SWAP1 PUSH2 0x100 EXP SWAP1 DIV PUSH20 0xFFFFFFFFFFFFFFFFFFFFFFFFFFFFFFFFFFFFFFFF AND DUP2 PUSH1 0x1 ADD DUP3 PUSH1 0x2 ADD DUP4 PUSH1 0x3 ADD SLOAD DUP3 DUP1 SLOAD PUSH2 0x10AC SWAP1 PUSH2 0x1F07 JUMP JUMPDEST DUP1 PUSH1 0x1F ADD PUSH1 0x20 DUP1 SWAP2 DIV MUL PUSH1 0x20 ADD PUSH1 0x40 MLOAD SWAP1 DUP2 ADD PUSH1 0x40 MSTORE DUP1 SWAP3 SWAP2 SWAP1 DUP2 DUP2 MSTORE PUSH1 0x20 ADD DUP3 DUP1 SLOAD PUSH2 0x10D8 SWAP1 PUSH2 0x1F07 JUMP JUMPDEST DUP1 ISZERO PUSH2 0x1123 JUMPI DUP1 PUSH1 0x1F LT PUSH2 0x10FA JUMPI PUSH2 0x100 DUP1 DUP4 SLOAD DIV MUL DUP4 MSTORE SWAP2 PUSH1 0x20 ADD SWAP2 PUSH2 0x1123 JUMP JUMPDEST DUP3 ADD SWAP2 SWAP1 PUSH0 MSTORE PUSH1 0x20 PUSH0 KECCAK256 SWAP1 JUMPDEST DUP2 SLOAD DUP2 MSTORE SWAP1 PUSH1 0x1 ADD SWAP1 PUSH1 0x20 ADD DUP1 DUP4 GT PUSH2 0x1106 JUMPI DUP3 SWAP1 SUB PUSH1 0x1F AND DUP3 ADD SWAP2 JUMPDEST POP POP POP POP POP SWAP3 POP DUP2 DUP1 SLOAD PUSH2 0x1136 SWAP1 PUSH2 0x1F07 JUMP JUMPDEST DUP1 PUSH1 0x1F ADD PUSH1 0x20 DUP1 SWAP2 DIV MUL PUSH1 0x20 ADD PUSH1 0x40 MLOAD SWAP1 DUP2 ADD PUSH1 0x40 MSTORE DUP1 SWAP3 SWAP2 SWAP1 DUP2 DUP2 MSTORE PUSH1 0x20 ADD DUP3 DUP1 SLOAD PUSH2 0x1162 SWAP1 PUSH2 0x1F07 JUMP JUMPDEST DUP1 ISZERO PUSH2 0x11AD JUMPI DUP1 PUSH1 0x1F LT PUSH2 0x1184 JUMPI PUSH2 0x100 DUP1 DUP4 SLOAD DIV MUL DUP4 MSTORE SWAP2 PUSH1 0x20 ADD SWAP2 PUSH2 0x11AD JUMP JUMPDEST DUP3 ADD SWAP2 SWAP1 PUSH0 MSTORE PUSH1 0x20 PUSH0 KECCAK256 SWAP1 JUMPDEST DUP2 SLOAD DUP2 MSTORE SWAP1 PUSH1 0x1 ADD SWAP1 PUSH1 0x20 ADD DUP1 DUP4 GT PUSH2 0x1190 JUMPI DUP3 SWAP1 SUB PUSH1 0x1F AND DUP3 ADD SWAP2 JUMPDEST POP POP POP POP POP SWAP2 POP SWAP5 POP SWAP5 POP SWAP5 POP SWAP5 POP POP SWAP3 SWAP6 SWAP2 SWAP5 POP SWAP3 POP JUMP JUMPDEST PUSH0 DUP3 GT DUP1 ISZERO PUSH2 0x11D7 JUMPI POP PUSH1 0x1 SLOAD DUP3 GT ISZERO JUMPDEST PUSH2 0x1216 JUMPI PUSH1 0x40 MLOAD PUSH32 0x8C379A000000000000000000000000000000000000000000000000000000000 DUP2 MSTORE PUSH1 0x4 ADD PUSH2 0x120D SWAP1 PUSH2 0x1F81 JUMP JUMPDEST PUSH1 0x40 MLOAD DUP1 SWAP2 SUB SWAP1 REVERT JUMPDEST PUSH0 DUP1 PUSH0 DUP5 DUP2 MSTORE PUSH1 0x20 ADD SWAP1 DUP2 MSTORE PUSH1 0x20 ADD PUSH0 KECCAK256 SWAP1 POP CALLER PUSH20 0xFFFFFFFFFFFFFFFFFFFFFFFFFFFFFFFFFFFFFFFF AND DUP2 PUSH0 ADD PUSH0 SWAP1 SLOAD SWAP1 PUSH2 0x100 EXP SWAP1 DIV PUSH20 0xFFFFFFFFFFFFFFFFFFFFFFFFFFFFFFFFFFFFFFFF AND PUSH20 0xFFFFFFFFFFFFFFFFFFFFFFFFFFFFFFFFFFFFFFFF AND SUB PUSH2 0x12B9 JUMPI PUSH1 0x40 MLOAD PUSH32 0x8C379A000000000000000000000000000000000000000000000000000000000 DUP2 MSTORE PUSH1 0x4 ADD PUSH2 0x12B0 SWAP1 PUSH2 0x24C9 JUMP JUMPDEST PUSH1 0x40 MLOAD DUP1 SWAP2 SUB SWAP1 REVERT JUMPDEST DUP1 PUSH1 0x7 ADD PUSH0 CALLER PUSH20 0xFFFFFFFFFFFFFFFFFFFFFFFFFFFFFFFFFFFFFFFF AND PUSH20 0xFFFFFFFFFFFFFFFFFFFFFFFFFFFFFFFFFFFFFFFF AND DUP2 MSTORE PUSH1 0x20 ADD SWAP1 DUP2 MSTORE PUSH1 0x20 ADD PUSH0 KECCAK256 PUSH0 SWAP1 SLOAD SWAP1 PUSH2 0x100 EXP SWAP1 DIV PUSH1 0xFF AND ISZERO PUSH2 0x1345 JUMPI PUSH1 0x40 MLOAD PUSH32 0x8C379A000000000000000000000000000000000000000000000000000000000 DUP2 MSTORE PUSH1 0x4 ADD PUSH2 0x133C SWAP1 PUSH2 0x2531 JUMP JUMPDEST PUSH1 0x40 MLOAD DUP1 SWAP2 SUB SWAP1 REVERT JUMPDEST DUP1 PUSH1 0x4 ADD PUSH0 SWAP1 SLOAD SWAP1 PUSH2 0x100 EXP SWAP1 DIV PUSH1 0xFF AND PUSH2 0x13BB JUMPI PUSH1 0x1 DUP2 PUSH1 0x4 ADD PUSH0 PUSH2 0x100 EXP DUP2 SLOAD DUP2 PUSH1 0xFF MUL NOT AND SWAP1 DUP4 ISZERO ISZERO MUL OR SWAP1 SSTORE POP CALLER PUSH20 0xFFFFFFFFFFFFFFFFFFFFFFFFFFFFFFFFFFFFFFFF AND DUP4 PUSH32 0xEDC96EF82A3FD8EA664DD4FE50F94C77BE3C3D6130792C3ED8B0199E3C28EC62 PUSH1 0x40 MLOAD PUSH1 0x40 MLOAD DUP1 SWAP2 SUB SWAP1 LOG3 JUMPDEST PUSH1 0x1 DUP2 PUSH1 0x7 ADD PUSH0 CALLER PUSH20 0xFFFFFFFFFFFFFFFFFFFFFFFFFFFFFFFFFFFFFFFF AND PUSH20 0xFFFFFFFFFFFFFFFFFFFFFFFFFFFFFFFFFFFFFFFF AND DUP2 MSTORE PUSH1 0x20 ADD SWAP1 DUP2 MSTORE PUSH1 0x20 ADD PUSH0 KECCAK256 PUSH0 PUSH2 0x100 EXP DUP2 SLOAD DUP2 PUSH1 0xFF MUL NOT AND SWAP1 DUP4 ISZERO ISZERO MUL OR SWAP1 SSTORE POP DUP2 ISZERO PUSH2 0x1436 JUMPI DUP1 PUSH1 0x5 ADD PUSH0 DUP2 SLOAD DUP1 SWAP3 SWAP2 SWAP1 PUSH2 0x142C SWAP1 PUSH2 0x2034 JUMP JUMPDEST SWAP2 SWAP1 POP SSTORE POP PUSH2 0x1450 JUMP JUMPDEST DUP1 PUSH1 0x6 ADD PUSH0 DUP2 SLOAD DUP1 SWAP3 SWAP2 SWAP1 PUSH2 0x144A SWAP1 PUSH2 0x2034 JUMP JUMPDEST SWAP2 SWAP1 POP SSTORE POP JUMPDEST CALLER PUSH20 0xFFFFFFFFFFFFFFFFFFFFFFFFFFFFFFFFFFFFFFFF AND DUP4 PUSH32 0xE71FCDAC32DF1877C1700E7BDA2A03157E20993363A28FC35AC495CEFC76E4D4 DUP5 PUSH1 0x40 MLOAD PUSH2 0x1497 SWAP2 SWAP1 PUSH2 0x1DCA JUMP JUMPDEST PUSH1 0x40 MLOAD DUP1 SWAP2 SUB SWAP1 LOG3 POP POP POP JUMP JUMPDEST PUSH1 0x2 PUSH1 0x20 MSTORE DUP2 PUSH0 MSTORE PUSH1 0x40 PUSH0 KECCAK256 PUSH1 0x20 MSTORE DUP1 PUSH0 MSTORE PUSH1 0x40 PUSH0 KECCAK256 PUSH0 SWAP2 POP SWAP2 POP POP DUP1 PUSH0 ADD PUSH0 SWAP1 SLOAD SWAP1 PUSH2 0x100 EXP SWAP1 DIV PUSH20 0xFFFFFFFFFFFFFFFFFFFFFFFFFFFFFFFFFFFFFFFF AND SWAP1 DUP1 PUSH1 0x1 ADD DUP1 SLOAD PUSH2 0x14F3 SWAP1 PUSH2 0x1F07 JUMP JUMPDEST DUP1 PUSH1 0x1F ADD PUSH1 0x20 DUP1 SWAP2 DIV MUL PUSH1 0x20 ADD PUSH1 0x40 MLOAD SWAP1 DUP2 ADD PUSH1 0x40 MSTORE DUP1 SWAP3 SWAP2 SWAP1 DUP2 DUP2 MSTORE PUSH1 0x20 ADD DUP3 DUP1 SLOAD PUSH2 0x151F SWAP1 PUSH2 0x1F07 JUMP JUMPDEST DUP1 ISZERO PUSH2 0x156A JUMPI DUP1 PUSH1 0x1F LT PUSH2 0x1541 JUMPI PUSH2 0x100 DUP1 DUP4 SLOAD DIV MUL DUP4 MSTORE SWAP2 PUSH1 0x20 ADD SWAP2 PUSH2 0x156A JUMP JUMPDEST DUP3 ADD SWAP2 SWAP1 PUSH0 MSTORE PUSH1 0x20 PUSH0 KECCAK256 SWAP1 JUMPDEST DUP2 SLOAD DUP2 MSTORE SWAP1 PUSH1 0x1 ADD SWAP1 PUSH1 0x20 ADD DUP1 DUP4 GT PUSH2 0x154D JUMPI DUP3 SWAP1 SUB PUSH1 0x1F AND DUP3 ADD SWAP2 JUMPDEST POP POP POP POP POP SWAP1 DUP1 PUSH1 0x2 ADD DUP1 SLOAD PUSH2 0x157F SWAP1 PUSH2 0x1F07 JUMP JUMPDEST DUP1 PUSH1 0x1F ADD PUSH1 0x20 DUP1 SWAP2 DIV MUL PUSH1 0x20 ADD PUSH1 0x40 MLOAD SWAP1 DUP2 ADD PUSH1 0x40 MSTORE DUP1 SWAP3 SWAP2 SWAP1 DUP2 DUP2 MSTORE PUSH1 0x20 ADD DUP3 DUP1 SLOAD PUSH2 0x15AB SWAP1 PUSH2 0x1F07 JUMP JUMPDEST DUP1 ISZERO PUSH2 0x15F6 JUMPI DUP1 PUSH1 0x1F LT PUSH2 0x15CD JUMPI PUSH2 0x100 DUP1 DUP4 SLOAD DIV MUL DUP4 MSTORE SWAP2 PUSH1 0x20 ADD SWAP2 PUSH2 0x15F6 JUMP JUMPDEST DUP3 ADD SWAP2 SWAP1 PUSH0 MSTORE PUSH1 0x20 PUSH0 KECCAK256 SWAP1 JUMPDEST DUP2 SLOAD DUP2 MSTORE SWAP1 PUSH1 0x1 ADD SWAP1 PUSH1 0x20 ADD DUP1 DUP4 GT PUSH2 0x15D9 JUMPI DUP3 SWAP1 SUB PUSH1 0x1F AND DUP3 ADD SWAP2 JUMPDEST POP POP POP POP POP SWAP1 DUP1 PUSH1 0x3 ADD SLOAD SWAP1 POP DUP5 JUMP JUMPDEST PUSH0 PUSH1 0x40 MLOAD SWAP1 POP SWAP1 JUMP JUMPDEST PUSH0 DUP1 REVERT JUMPDEST PUSH0 DUP1 REVERT JUMPDEST PUSH0 DUP2 SWAP1 POP SWAP2 SWAP1 POP JUMP JUMPDEST PUSH2 0x1629 DUP2 PUSH2 0x1617 JUMP JUMPDEST DUP2 EQ PUSH2 0x1633 JUMPI PUSH0 DUP1 REVERT JUMPDEST POP JUMP JUMPDEST PUSH0 DUP2 CALLDATALOAD SWAP1 POP PUSH2 0x1644 DUP2 PUSH2 0x1620 JUMP JUMPDEST SWAP3 SWAP2 POP POP JUMP JUMPDEST PUSH0 PUSH1 0x20 DUP3 DUP5 SUB SLT ISZERO PUSH2 0x165F JUMPI PUSH2 0x165E PUSH2 0x160F JUMP JUMPDEST JUMPDEST PUSH0 PUSH2 0x166C DUP5 DUP3 DUP6 ADD PUSH2 0x1636 JUMP JUMPDEST SWAP2 POP POP SWAP3 SWAP2 POP POP JUMP JUMPDEST PUSH0 PUSH20 0xFFFFFFFFFFFFFFFFFFFFFFFFFFFFFFFFFFFFFFFF DUP3 AND SWAP1 POP SWAP2 SWAP1 POP JUMP JUMPDEST PUSH0 PUSH2 0x169E DUP3 PUSH2 0x1675 JUMP JUMPDEST SWAP1 POP SWAP2 SWAP1 POP JUMP JUMPDEST PUSH2 0x16AE DUP2 PUSH2 0x1694 JUMP JUMPDEST DUP3 MSTORE POP POP JUMP JUMPDEST PUSH0 DUP2 MLOAD SWAP1 POP SWAP2 SWAP1 POP JUMP JUMPDEST PUSH0 DUP3 DUP3 MSTORE PUSH1 0x20 DUP3 ADD SWAP1 POP SWAP3 SWAP2 POP POP JUMP JUMPDEST PUSH0 JUMPDEST DUP4 DUP2 LT ISZERO PUSH2 0x16EB JUMPI DUP1 DUP3 ADD MLOAD DUP2 DUP5 ADD MSTORE PUSH1 0x20 DUP2 ADD SWAP1 POP PUSH2 0x16D0 JUMP JUMPDEST PUSH0 DUP5 DUP5 ADD MSTORE POP POP POP POP JUMP JUMPDEST PUSH0 PUSH1 0x1F NOT PUSH1 0x1F DUP4 ADD AND SWAP1 POP SWAP2 SWAP1 POP JUMP JUMPDEST PUSH0 PUSH2 0x1710 DUP3 PUSH2 0x16B4 JUMP JUMPDEST PUSH2 0x171A DUP2 DUP6 PUSH2 0x16BE JUMP JUMPDEST SWAP4 POP PUSH2 0x172A DUP2 DUP6 PUSH1 0x20 DUP7 ADD PUSH2 0x16CE JUMP JUMPDEST PUSH2 0x1733 DUP2 PUSH2 0x16F6 JUMP JUMPDEST DUP5 ADD SWAP2 POP POP SWAP3 SWAP2 POP POP JUMP JUMPDEST PUSH2 0x1747 DUP2 PUSH2 0x1617 JUMP JUMPDEST DUP3 MSTORE POP POP JUMP JUMPDEST PUSH0 DUP2 ISZERO ISZERO SWAP1 POP SWAP2 SWAP1 POP JUMP JUMPDEST PUSH2 0x1761 DUP2 PUSH2 0x174D JUMP JUMPDEST DUP3 MSTORE POP POP JUMP JUMPDEST PUSH0 PUSH2 0x100 DUP3 ADD SWAP1 POP PUSH2 0x177B PUSH0 DUP4 ADD DUP12 PUSH2 0x16A5 JUMP JUMPDEST DUP2 DUP2 SUB PUSH1 0x20 DUP4 ADD MSTORE PUSH2 0x178D DUP2 DUP11 PUSH2 0x1706 JUMP JUMPDEST SWAP1 POP DUP2 DUP2 SUB PUSH1 0x40 DUP4 ADD MSTORE PUSH2 0x17A1 DUP2 DUP10 PUSH2 0x1706 JUMP JUMPDEST SWAP1 POP PUSH2 0x17B0 PUSH1 0x60 DUP4 ADD DUP9 PUSH2 0x173E JUMP JUMPDEST PUSH2 0x17BD PUSH1 0x80 DUP4 ADD DUP8 PUSH2 0x1758 JUMP JUMPDEST PUSH2 0x17CA PUSH1 0xA0 DUP4 ADD DUP7 PUSH2 0x173E JUMP JUMPDEST PUSH2 0x17D7 PUSH1 0xC0 DUP4 ADD DUP6 PUSH2 0x173E JUMP JUMPDEST PUSH2 0x17E4 PUSH1 0xE0 DUP4 ADD DUP5 PUSH2 0x173E JUMP JUMPDEST SWAP10 SWAP9 POP POP POP POP POP POP POP POP POP JUMP JUMPDEST PUSH0 PUSH1 0x20 DUP3 ADD SWAP1 POP PUSH2 0x1804 PUSH0 DUP4 ADD DUP5 PUSH2 0x173E JUMP JUMPDEST SWAP3 SWAP2 POP POP JUMP JUMPDEST PUSH0 DUP1 REVERT JUMPDEST PUSH0 DUP1 REVERT JUMPDEST PUSH32 0x4E487B7100000000000000000000000000000000000000000000000000000000 PUSH0 MSTORE PUSH1 0x41 PUSH1 0x4 MSTORE PUSH1 0x24 PUSH0 REVERT JUMPDEST PUSH2 0x1848 DUP3 PUSH2 0x16F6 JUMP JUMPDEST DUP2 ADD DUP2 DUP2 LT PUSH8 0xFFFFFFFFFFFFFFFF DUP3 GT OR ISZERO PUSH2 0x1867 JUMPI PUSH2 0x1866 PUSH2 0x1812 JUMP JUMPDEST JUMPDEST DUP1 PUSH1 0x40 MSTORE POP POP POP JUMP JUMPDEST PUSH0 PUSH2 0x1879 PUSH2 0x1606 JUMP JUMPDEST SWAP1 POP PUSH2 0x1885 DUP3 DUP3 PUSH2 0x183F JUMP JUMPDEST SWAP2 SWAP1 POP JUMP JUMPDEST PUSH0 PUSH8 0xFFFFFFFFFFFFFFFF DUP3 GT ISZERO PUSH2 0x18A4 JUMPI PUSH2 0x18A3 PUSH2 0x1812 JUMP JUMPDEST JUMPDEST PUSH2 0x18AD DUP3 PUSH2 0x16F6 JUMP JUMPDEST SWAP1 POP PUSH1 0x20 DUP2 ADD SWAP1 POP SWAP2 SWAP1 POP JUMP JUMPDEST DUP3 DUP2 DUP4 CALLDATACOPY PUSH0 DUP4 DUP4 ADD MSTORE POP POP POP JUMP JUMPDEST PUSH0 PUSH2 0x18DA PUSH2 0x18D5 DUP5 PUSH2 0x188A JUMP JUMPDEST PUSH2 0x1870 JUMP JUMPDEST SWAP1 POP DUP3 DUP2 MSTORE PUSH1 0x20 DUP2 ADD DUP5 DUP5 DUP5 ADD GT ISZERO PUSH2 0x18F6 JUMPI PUSH2 0x18F5 PUSH2 0x180E JUMP JUMPDEST JUMPDEST PUSH2 0x1901 DUP5 DUP3 DUP6 PUSH2 0x18BA JUMP JUMPDEST POP SWAP4 SWAP3 POP POP POP JUMP JUMPDEST PUSH0 DUP3 PUSH1 0x1F DUP4 ADD SLT PUSH2 0x191D JUMPI PUSH2 0x191C PUSH2 0x180A JUMP JUMPDEST JUMPDEST DUP2 CALLDATALOAD PUSH2 0x192D DUP5 DUP3 PUSH1 0x20 DUP7 ADD PUSH2 0x18C8 JUMP JUMPDEST SWAP2 POP POP SWAP3 SWAP2 POP POP JUMP JUMPDEST PUSH0 DUP1 PUSH0 PUSH1 0x60 DUP5 DUP7 SUB SLT ISZERO PUSH2 0x194D JUMPI PUSH2 0x194C PUSH2 0x160F JUMP JUMPDEST JUMPDEST PUSH0 PUSH2 0x195A DUP7 DUP3 DUP8 ADD PUSH2 0x1636 JUMP JUMPDEST SWAP4 POP POP PUSH1 0x20 DUP5 ADD CALLDATALOAD PUSH8 0xFFFFFFFFFFFFFFFF DUP2 GT ISZERO PUSH2 0x197B JUMPI PUSH2 0x197A PUSH2 0x1613 JUMP JUMPDEST JUMPDEST PUSH2 0x1987 DUP7 DUP3 DUP8 ADD PUSH2 0x1909 JUMP JUMPDEST SWAP3 POP POP PUSH1 0x40 DUP5 ADD CALLDATALOAD PUSH8 0xFFFFFFFFFFFFFFFF DUP2 GT ISZERO PUSH2 0x19A8 JUMPI PUSH2 0x19A7 PUSH2 0x1613 JUMP JUMPDEST JUMPDEST PUSH2 0x19B4 DUP7 DUP3 DUP8 ADD PUSH2 0x1909 JUMP JUMPDEST SWAP2 POP POP SWAP3 POP SWAP3 POP SWAP3 JUMP JUMPDEST PUSH0 DUP1 PUSH0 PUSH1 0x60 DUP5 DUP7 SUB SLT ISZERO PUSH2 0x19D5 JUMPI PUSH2 0x19D4 PUSH2 0x160F JUMP JUMPDEST JUMPDEST PUSH0 PUSH2 0x19E2 DUP7 DUP3 DUP8 ADD PUSH2 0x1636 JUMP JUMPDEST SWAP4 POP POP PUSH1 0x20 PUSH2 0x19F3 DUP7 DUP3 DUP8 ADD PUSH2 0x1636 JUMP JUMPDEST SWAP3 POP POP PUSH1 0x40 PUSH2 0x1A04 DUP7 DUP3 DUP8 ADD PUSH2 0x1636 JUMP JUMPDEST SWAP2 POP POP SWAP3 POP SWAP3 POP SWAP3 JUMP JUMPDEST PUSH0 DUP2 MLOAD SWAP1 POP SWAP2 SWAP1 POP JUMP JUMPDEST PUSH0 DUP3 DUP3 MSTORE PUSH1 0x20 DUP3 ADD SWAP1 POP SWAP3 SWAP2 POP POP JUMP JUMPDEST PUSH0 DUP2 SWAP1 POP PUSH1 0x20 DUP3 ADD SWAP1 POP SWAP2 SWAP1 POP JUMP JUMPDEST PUSH2 0x1A40 DUP2 PUSH2 0x1694 JUMP JUMPDEST DUP3 MSTORE POP POP JUMP JUMPDEST PUSH0 PUSH2 0x1A51 DUP4 DUP4 PUSH2 0x1A37 JUMP JUMPDEST PUSH1 0x20 DUP4 ADD SWAP1 POP SWAP3 SWAP2 POP POP JUMP JUMPDEST PUSH0 PUSH1 0x20 DUP3 ADD SWAP1 POP SWAP2 SWAP1 POP JUMP JUMPDEST PUSH0 PUSH2 0x1A73 DUP3 PUSH2 0x1A0E JUMP JUMPDEST PUSH2 0x1A7D DUP2 DUP6 PUSH2 0x1A18 JUMP JUMPDEST SWAP4 POP PUSH2 0x1A88 DUP4 PUSH2 0x1A28 JUMP JUMPDEST DUP1 PUSH0 JUMPDEST DUP4 DUP2 LT ISZERO PUSH2 0x1AB8 JUMPI DUP2 MLOAD PUSH2 0x1A9F DUP9 DUP3 PUSH2 0x1A46 JUMP JUMPDEST SWAP8 POP PUSH2 0x1AAA DUP4 PUSH2 0x1A5D JUMP JUMPDEST SWAP3 POP POP PUSH1 0x1 DUP2 ADD SWAP1 POP PUSH2 0x1A8B JUMP JUMPDEST POP DUP6 SWAP4 POP POP POP POP SWAP3 SWAP2 POP POP JUMP JUMPDEST PUSH0 DUP2 MLOAD SWAP1 POP SWAP2 SWAP1 POP JUMP JUMPDEST PUSH0 DUP3 DUP3 MSTORE PUSH1 0x20 DUP3 ADD SWAP1 POP SWAP3 SWAP2 POP POP JUMP JUMPDEST PUSH0 DUP2 SWAP1 POP PUSH1 0x20 DUP3 ADD SWAP1 POP SWAP2 SWAP1 POP JUMP JUMPDEST PUSH0 DUP3 DUP3 MSTORE PUSH1 0x20 DUP3 ADD SWAP1 POP SWAP3 SWAP2 POP POP JUMP JUMPDEST PUSH0 PUSH2 0x1B08 DUP3 PUSH2 0x16B4 JUMP JUMPDEST PUSH2 0x1B12 DUP2 DUP6 PUSH2 0x1AEE JUMP JUMPDEST SWAP4 POP PUSH2 0x1B22 DUP2 DUP6 PUSH1 0x20 DUP7 ADD PUSH2 0x16CE JUMP JUMPDEST PUSH2 0x1B2B DUP2 PUSH2 0x16F6 JUMP JUMPDEST DUP5 ADD SWAP2 POP POP SWAP3 SWAP2 POP POP JUMP JUMPDEST PUSH0 PUSH2 0x1B41 DUP4 DUP4 PUSH2 0x1AFE JUMP JUMPDEST SWAP1 POP SWAP3 SWAP2 POP POP JUMP JUMPDEST PUSH0 PUSH1 0x20 DUP3 ADD SWAP1 POP SWAP2 SWAP1 POP JUMP JUMPDEST PUSH0 PUSH2 0x1B5F DUP3 PUSH2 0x1AC5 JUMP JUMPDEST PUSH2 0x1B69 DUP2 DUP6 PUSH2 0x1ACF JUMP JUMPDEST SWAP4 POP DUP4 PUSH1 0x20 DUP3 MUL DUP6 ADD PUSH2 0x1B7B DUP6 PUSH2 0x1ADF JUMP JUMPDEST DUP1 PUSH0 JUMPDEST DUP6 DUP2 LT ISZERO PUSH2 0x1BB6 JUMPI DUP5 DUP5 SUB DUP10 MSTORE DUP2 MLOAD PUSH2 0x1B97 DUP6 DUP3 PUSH2 0x1B36 JUMP JUMPDEST SWAP5 POP PUSH2 0x1BA2 DUP4 PUSH2 0x1B49 JUMP JUMPDEST SWAP3 POP PUSH1 0x20 DUP11 ADD SWAP10 POP POP PUSH1 0x1 DUP2 ADD SWAP1 POP PUSH2 0x1B7E JUMP JUMPDEST POP DUP3 SWAP8 POP DUP8 SWAP6 POP POP POP POP POP POP SWAP3 SWAP2 POP POP JUMP JUMPDEST PUSH0 DUP2 MLOAD SWAP1 POP SWAP2 SWAP1 POP JUMP JUMPDEST PUSH0 DUP3 DUP3 MSTORE PUSH1 0x20 DUP3 ADD SWAP1 POP SWAP3 SWAP2 POP POP JUMP JUMPDEST PUSH0 DUP2 SWAP1 POP PUSH1 0x20 DUP3 ADD SWAP1 POP SWAP2 SWAP1 POP JUMP JUMPDEST PUSH2 0x1BFA DUP2 PUSH2 0x1617 JUMP JUMPDEST DUP3 MSTORE POP POP JUMP JUMPDEST PUSH0 PUSH2 0x1C0B DUP4 DUP4 PUSH2 0x1BF1 JUMP JUMPDEST PUSH1 0x20 DUP4 ADD SWAP1 POP SWAP3 SWAP2 POP POP JUMP JUMPDEST PUSH0 PUSH1 0x20 DUP3 ADD SWAP1 POP SWAP2 SWAP1 POP JUMP JUMPDEST PUSH0 PUSH2 0x1C2D DUP3 PUSH2 0x1BC8 JUMP JUMPDEST PUSH2 0x1C37 DUP2 DUP6 PUSH2 0x1BD2 JUMP JUMPDEST SWAP4 POP PUSH2 0x1C42 DUP4 PUSH2 0x1BE2 JUMP JUMPDEST DUP1 PUSH0 JUMPDEST DUP4 DUP2 LT ISZERO PUSH2 0x1C72 JUMPI DUP2 MLOAD PUSH2 0x1C59 DUP9 DUP3 PUSH2 0x1C00 JUMP JUMPDEST SWAP8 POP PUSH2 0x1C64 DUP4 PUSH2 0x1C17 JUMP JUMPDEST SWAP3 POP POP PUSH1 0x1 DUP2 ADD SWAP1 POP PUSH2 0x1C45 JUMP JUMPDEST POP DUP6 SWAP4 POP POP POP POP SWAP3 SWAP2 POP POP JUMP JUMPDEST PUSH0 PUSH1 0xA0 DUP3 ADD SWAP1 POP DUP2 DUP2 SUB PUSH0 DUP4 ADD MSTORE PUSH2 0x1C97 DUP2 DUP9 PUSH2 0x1A69 JUMP JUMPDEST SWAP1 POP DUP2 DUP2 SUB PUSH1 0x20 DUP4 ADD MSTORE PUSH2 0x1CAB DUP2 DUP8 PUSH2 0x1B55 JUMP JUMPDEST SWAP1 POP DUP2 DUP2 SUB PUSH1 0x40 DUP4 ADD MSTORE PUSH2 0x1CBF DUP2 DUP7 PUSH2 0x1B55 JUMP JUMPDEST SWAP1 POP DUP2 DUP2 SUB PUSH1 0x60 DUP4 ADD MSTORE PUSH2 0x1CD3 DUP2 DUP6 PUSH2 0x1C23 JUMP JUMPDEST SWAP1 POP PUSH2 0x1CE2 PUSH1 0x80 DUP4 ADD DUP5 PUSH2 0x173E JUMP JUMPDEST SWAP7 SWAP6 POP POP POP POP POP POP JUMP JUMPDEST PUSH0 DUP1 PUSH1 0x40 DUP4 DUP6 SUB SLT ISZERO PUSH2 0x1D02 JUMPI PUSH2 0x1D01 PUSH2 0x160F JUMP JUMPDEST JUMPDEST PUSH0 DUP4 ADD CALLDATALOAD PUSH8 0xFFFFFFFFFFFFFFFF DUP2 GT ISZERO PUSH2 0x1D1F JUMPI PUSH2 0x1D1E PUSH2 0x1613 JUMP JUMPDEST JUMPDEST PUSH2 0x1D2B DUP6 DUP3 DUP7 ADD PUSH2 0x1909 JUMP JUMPDEST SWAP3 POP POP PUSH1 0x20 DUP4 ADD CALLDATALOAD PUSH8 0xFFFFFFFFFFFFFFFF DUP2 GT ISZERO PUSH2 0x1D4C JUMPI PUSH2 0x1D4B PUSH2 0x1613 JUMP JUMPDEST JUMPDEST PUSH2 0x1D58 DUP6 DUP3 DUP7 ADD PUSH2 0x1909 JUMP JUMPDEST SWAP2 POP POP SWAP3 POP SWAP3 SWAP1 POP JUMP JUMPDEST PUSH2 0x1D6B DUP2 PUSH2 0x1694 JUMP JUMPDEST DUP2 EQ PUSH2 0x1D75 JUMPI PUSH0 DUP1 REVERT JUMPDEST POP JUMP JUMPDEST PUSH0 DUP2 CALLDATALOAD SWAP1 POP PUSH2 0x1D86 DUP2 PUSH2 0x1D62 JUMP JUMPDEST SWAP3 SWAP2 POP POP JUMP JUMPDEST PUSH0 DUP1 PUSH1 0x40 DUP4 DUP6 SUB SLT ISZERO PUSH2 0x1DA2 JUMPI PUSH2 0x1DA1 PUSH2 0x160F JUMP JUMPDEST JUMPDEST PUSH0 PUSH2 0x1DAF DUP6 DUP3 DUP7 ADD PUSH2 0x1636 JUMP JUMPDEST SWAP3 POP POP PUSH1 0x20 PUSH2 0x1DC0 DUP6 DUP3 DUP7 ADD PUSH2 0x1D78 JUMP JUMPDEST SWAP2 POP POP SWAP3 POP SWAP3 SWAP1 POP JUMP JUMPDEST PUSH0 PUSH1 0x20 DUP3 ADD SWAP1 POP PUSH2 0x1DDD PUSH0 DUP4 ADD DUP5 PUSH2 0x1758 JUMP JUMPDEST SWAP3 SWAP2 POP POP JUMP JUMPDEST PUSH0 DUP1 PUSH1 0x40 DUP4 DUP6 SUB SLT ISZERO PUSH2 0x1DF9 JUMPI PUSH2 0x1DF8 PUSH2 0x160F JUMP JUMPDEST JUMPDEST PUSH0 PUSH2 0x1E06 DUP6 DUP3 DUP7 ADD PUSH2 0x1636 JUMP JUMPDEST SWAP3 POP POP PUSH1 0x20 PUSH2 0x1E17 DUP6 DUP3 DUP7 ADD PUSH2 0x1636 JUMP JUMPDEST SWAP2 POP POP SWAP3 POP SWAP3 SWAP1 POP JUMP JUMPDEST PUSH0 PUSH1 0x80 DUP3 ADD SWAP1 POP PUSH2 0x1E34 PUSH0 DUP4 ADD DUP8 PUSH2 0x16A5 JUMP JUMPDEST DUP2 DUP2 SUB PUSH1 0x20 DUP4 ADD MSTORE PUSH2 0x1E46 DUP2 DUP7 PUSH2 0x1706 JUMP JUMPDEST SWAP1 POP DUP2 DUP2 SUB PUSH1 0x40 DUP4 ADD MSTORE PUSH2 0x1E5A DUP2 DUP6 PUSH2 0x1706 JUMP JUMPDEST SWAP1 POP PUSH2 0x1E69 PUSH1 0x60 DUP4 ADD DUP5 PUSH2 0x173E JUMP JUMPDEST SWAP6 SWAP5 POP POP POP POP POP JUMP JUMPDEST PUSH2 0x1E7B DUP2 PUSH2 0x174D JUMP JUMPDEST DUP2 EQ PUSH2 0x1E85 JUMPI PUSH0 DUP1 REVERT JUMPDEST POP JUMP JUMPDEST PUSH0 DUP2 CALLDATALOAD SWAP1 POP PUSH2 0x1E96 DUP2 PUSH2 0x1E72 JUMP JUMPDEST SWAP3 SWAP2 POP POP JUMP JUMPDEST PUSH0 DUP1 PUSH1 0x40 DUP4 DUP6 SUB SLT ISZERO PUSH2 0x1EB2 JUMPI PUSH2 0x1EB1 PUSH2 0x160F JUMP JUMPDEST JUMPDEST PUSH0 PUSH2 0x1EBF DUP6 DUP3 DUP7 ADD PUSH2 0x1636 JUMP JUMPDEST SWAP3 POP POP PUSH1 0x20 PUSH2 0x1ED0 DUP6 DUP3 DUP7 ADD PUSH2 0x1E88 JUMP JUMPDEST SWAP2 POP POP SWAP3 POP SWAP3 SWAP1 POP JUMP JUMPDEST PUSH32 0x4E487B7100000000000000000000000000000000000000000000000000000000 PUSH0 MSTORE PUSH1 0x22 PUSH1 0x4 MSTORE PUSH1 0x24 PUSH0 REVERT JUMPDEST PUSH0 PUSH1 0x2 DUP3 DIV SWAP1 POP PUSH1 0x1 DUP3 AND DUP1 PUSH2 0x1F1E JUMPI PUSH1 0x7F DUP3 AND SWAP2 POP JUMPDEST PUSH1 0x20 DUP3 LT DUP2 SUB PUSH2 0x1F31 JUMPI PUSH2 0x1F30 PUSH2 0x1EDA JUMP JUMPDEST JUMPDEST POP SWAP2 SWAP1 POP JUMP JUMPDEST PUSH32 0x496E76616C696420706F73742049440000000000000000000000000000000000 PUSH0 DUP3 ADD MSTORE POP JUMP JUMPDEST PUSH0 PUSH2 0x1F6B PUSH1 0xF DUP4 PUSH2 0x16BE JUMP JUMPDEST SWAP2 POP PUSH2 0x1F76 DUP3 PUSH2 0x1F37 JUMP JUMPDEST PUSH1 0x20 DUP3 ADD SWAP1 POP SWAP2 SWAP1 POP JUMP JUMPDEST PUSH0 PUSH1 0x20 DUP3 ADD SWAP1 POP DUP2 DUP2 SUB PUSH0 DUP4 ADD MSTORE PUSH2 0x1F98 DUP2 PUSH2 0x1F5F JUMP JUMPDEST SWAP1 POP SWAP2 SWAP1 POP JUMP JUMPDEST PUSH32 0x436F6D6D656E742063616E6E6F7420626520656D707479000000000000000000 PUSH0 DUP3 ADD MSTORE POP JUMP JUMPDEST PUSH0 PUSH2 0x1FD3 PUSH1 0x17 DUP4 PUSH2 0x16BE JUMP JUMPDEST SWAP2 POP PUSH2 0x1FDE DUP3 PUSH2 0x1F9F JUMP JUMPDEST PUSH1 0x20 DUP3 ADD SWAP1 POP SWAP2 SWAP1 POP JUMP JUMPDEST PUSH0 PUSH1 0x20 DUP3 ADD SWAP1 POP DUP2 DUP2 SUB PUSH0 DUP4 ADD MSTORE PUSH2 0x2000 DUP2 PUSH2 0x1FC7 JUMP JUMPDEST SWAP1 POP SWAP2 SWAP1 POP JUMP JUMPDEST PUSH32 0x4E487B7100000000000000000000000000000000000000000000000000000000 PUSH0 MSTORE PUSH1 0x11 PUSH1 0x4 MSTORE PUSH1 0x24 PUSH0 REVERT JUMPDEST PUSH0 PUSH2 0x203E DUP3 PUSH2 0x1617 JUMP JUMPDEST SWAP2 POP PUSH32 0xFFFFFFFFFFFFFFFFFFFFFFFFFFFFFFFFFFFFFFFFFFFFFFFFFFFFFFFFFFFFFFFF DUP3 SUB PUSH2 0x2070 JUMPI PUSH2 0x206F PUSH2 0x2007 JUMP JUMPDEST JUMPDEST PUSH1 0x1 DUP3 ADD SWAP1 POP SWAP2 SWAP1 POP JUMP JUMPDEST PUSH0 DUP2 SWAP1 POP DUP2 PUSH0 MSTORE PUSH1 0x20 PUSH0 KECCAK256 SWAP1 POP SWAP2 SWAP1 POP JUMP JUMPDEST PUSH0 PUSH1 0x20 PUSH1 0x1F DUP4 ADD DIV SWAP1 POP SWAP2 SWAP1 POP JUMP JUMPDEST PUSH0 DUP3 DUP3 SHL SWAP1 POP SWAP3 SWAP2 POP POP JUMP JUMPDEST PUSH0 PUSH1 0x8 DUP4 MUL PUSH2 0x20D7 PUSH32 0xFFFFFFFFFFFFFFFFFFFFFFFFFFFFFFFFFFFFFFFFFFFFFFFFFFFFFFFFFFFFFFFF DUP3 PUSH2 0x209C JUMP JUMPDEST PUSH2 0x20E1 DUP7 DUP4 PUSH2 0x209C JUMP JUMPDEST SWAP6 POP DUP1 NOT DUP5 AND SWAP4 POP DUP1 DUP7 AND DUP5 OR SWAP3 POP POP POP SWAP4 SWAP3 POP POP POP JUMP JUMPDEST PUSH0 DUP2 SWAP1 POP SWAP2 SWAP1 POP JUMP JUMPDEST PUSH0 PUSH2 0x211C PUSH2 0x2117 PUSH2 0x2112 DUP5 PUSH2 0x1617 JUMP JUMPDEST PUSH2 0x20F9 JUMP JUMPDEST PUSH2 0x1617 JUMP JUMPDEST SWAP1 POP SWAP2 SWAP1 POP JUMP JUMPDEST PUSH0 DUP2 SWAP1 POP SWAP2 SWAP1 POP JUMP JUMPDEST PUSH2 0x2135 DUP4 PUSH2 0x2102 JUMP JUMPDEST PUSH2 0x2149 PUSH2 0x2141 DUP3 PUSH2 0x2123 JUMP JUMPDEST DUP5 DUP5 SLOAD PUSH2 0x20A8 JUMP JUMPDEST DUP3 SSTORE POP POP POP POP JUMP JUMPDEST PUSH0 SWAP1 JUMP JUMPDEST PUSH2 0x215D PUSH2 0x2151 JUMP JUMPDEST PUSH2 0x2168 DUP2 DUP5 DUP5 PUSH2 0x212C JUMP JUMPDEST POP POP POP JUMP JUMPDEST JUMPDEST DUP2 DUP2 LT ISZERO PUSH2 0x218B JUMPI PUSH2 0x2180 PUSH0 DUP3 PUSH2 0x2155 JUMP JUMPDEST PUSH1 0x1 DUP2 ADD SWAP1 POP PUSH2 0x216E JUMP JUMPDEST POP POP JUMP JUMPDEST PUSH1 0x1F DUP3 GT ISZERO PUSH2 0x21D0 JUMPI PUSH2 0x21A1 DUP2 PUSH2 0x207B JUMP JUMPDEST PUSH2 0x21AA DUP5 PUSH2 0x208D JUMP JUMPDEST DUP2 ADD PUSH1 0x20 DUP6 LT ISZERO PUSH2 0x21B9 JUMPI DUP2 SWAP1 POP JUMPDEST PUSH2 0x21CD PUSH2 0x21C5 DUP6 PUSH2 0x208D JUMP JUMPDEST DUP4 ADD DUP3 PUSH2 0x216D JUMP JUMPDEST POP POP JUMPDEST POP POP POP JUMP JUMPDEST PUSH0 DUP3 DUP3 SHR SWAP1 POP SWAP3 SWAP2 POP POP JUMP JUMPDEST PUSH0 PUSH2 0x21F0 PUSH0 NOT DUP5 PUSH1 0x8 MUL PUSH2 0x21D5 JUMP JUMPDEST NOT DUP1 DUP4 AND SWAP2 POP POP SWAP3 SWAP2 POP POP JUMP JUMPDEST PUSH0 PUSH2 0x2208 DUP4 DUP4 PUSH2 0x21E1 JUMP JUMPDEST SWAP2 POP DUP3 PUSH1 0x2 MUL DUP3 OR SWAP1 POP SWAP3 SWAP2 POP POP JUMP JUMPDEST PUSH2 0x2221 DUP3 PUSH2 0x16B4 JUMP JUMPDEST PUSH8 0xFFFFFFFFFFFFFFFF DUP2 GT ISZERO PUSH2 0x223A JUMPI PUSH2 0x2239 PUSH2 0x1812 JUMP JUMPDEST JUMPDEST PUSH2 0x2244 DUP3 SLOAD PUSH2 0x1F07 JUMP JUMPDEST PUSH2 0x224F DUP3 DUP3 DUP6 PUSH2 0x218F JUMP JUMPDEST PUSH0 PUSH1 0x20 SWAP1 POP PUSH1 0x1F DUP4 GT PUSH1 0x1 DUP2 EQ PUSH2 0x2280 JUMPI PUSH0 DUP5 ISZERO PUSH2 0x226E JUMPI DUP3 DUP8 ADD MLOAD SWAP1 POP JUMPDEST PUSH2 0x2278 DUP6 DUP3 PUSH2 0x21FD JUMP JUMPDEST DUP7 SSTORE POP PUSH2 0x22DF JUMP JUMPDEST PUSH1 0x1F NOT DUP5 AND PUSH2 0x228E DUP7 PUSH2 0x207B JUMP JUMPDEST PUSH0 JUMPDEST DUP3 DUP2 LT ISZERO PUSH2 0x22B5 JUMPI DUP5 DUP10 ADD MLOAD DUP3 SSTORE PUSH1 0x1 DUP3 ADD SWAP2 POP PUSH1 0x20 DUP6 ADD SWAP5 POP PUSH1 0x20 DUP2 ADD SWAP1 POP PUSH2 0x2290 JUMP JUMPDEST DUP7 DUP4 LT ISZERO PUSH2 0x22D2 JUMPI DUP5 DUP10 ADD MLOAD PUSH2 0x22CE PUSH1 0x1F DUP10 AND DUP3 PUSH2 0x21E1 JUMP JUMPDEST DUP4 SSTORE POP JUMPDEST PUSH1 0x1 PUSH1 0x2 DUP9 MUL ADD DUP9 SSTORE POP POP POP JUMPDEST POP POP POP POP POP POP JUMP JUMPDEST PUSH0 PUSH1 0x40 DUP3 ADD SWAP1 POP DUP2 DUP2 SUB PUSH0 DUP4 ADD MSTORE PUSH2 0x22FF DUP2 DUP6 PUSH2 0x1706 JUMP JUMPDEST SWAP1 POP DUP2 DUP2 SUB PUSH1 0x20 DUP4 ADD MSTORE PUSH2 0x2313 DUP2 DUP5 PUSH2 0x1706 JUMP JUMPDEST SWAP1 POP SWAP4 SWAP3 POP POP POP JUMP JUMPDEST PUSH32 0x5374617274204944206D7573742062652067726561746572207468616E203000 PUSH0 DUP3 ADD MSTORE POP JUMP JUMPDEST PUSH0 PUSH2 0x2350 PUSH1 0x1F DUP4 PUSH2 0x16BE JUMP JUMPDEST SWAP2 POP PUSH2 0x235B DUP3 PUSH2 0x231C JUMP JUMPDEST PUSH1 0x20 DUP3 ADD SWAP1 POP SWAP2 SWAP1 POP JUMP JUMPDEST PUSH0 PUSH1 0x20 DUP3 ADD SWAP1 POP DUP2 DUP2 SUB PUSH0 DUP4 ADD MSTORE PUSH2 0x237D DUP2 PUSH2 0x2344 JUMP JUMPDEST SWAP1 POP SWAP2 SWAP1 POP JUMP JUMPDEST PUSH0 PUSH2 0x238E DUP3 PUSH2 0x1617 JUMP JUMPDEST SWAP2 POP PUSH2 0x2399 DUP4 PUSH2 0x1617 JUMP JUMPDEST SWAP3 POP DUP3 DUP3 SUB SWAP1 POP DUP2 DUP2 GT ISZERO PUSH2 0x23B1 JUMPI PUSH2 0x23B0 PUSH2 0x2007 JUMP JUMPDEST JUMPDEST SWAP3 SWAP2 POP POP JUMP JUMPDEST PUSH0 PUSH2 0x23C1 DUP3 PUSH2 0x1617 JUMP JUMPDEST SWAP2 POP PUSH2 0x23CC DUP4 PUSH2 0x1617 JUMP JUMPDEST SWAP3 POP DUP3 DUP3 ADD SWAP1 POP DUP1 DUP3 GT ISZERO PUSH2 0x23E4 JUMPI PUSH2 0x23E3 PUSH2 0x2007 JUMP JUMPDEST JUMPDEST SWAP3 SWAP2 POP POP JUMP JUMPDEST PUSH32 0x4E487B7100000000000000000000000000000000000000000000000000000000 PUSH0 MSTORE PUSH1 0x32 PUSH1 0x4 MSTORE PUSH1 0x24 PUSH0 REVERT JUMPDEST PUSH32 0x496E76616C696420636F6D6D656E742049440000000000000000000000000000 PUSH0 DUP3 ADD MSTORE POP JUMP JUMPDEST PUSH0 PUSH2 0x244B PUSH1 0x12 DUP4 PUSH2 0x16BE JUMP JUMPDEST SWAP2 POP PUSH2 0x2456 DUP3 PUSH2 0x2417 JUMP JUMPDEST PUSH1 0x20 DUP3 ADD SWAP1 POP SWAP2 SWAP1 POP JUMP JUMPDEST PUSH0 PUSH1 0x20 DUP3 ADD SWAP1 POP DUP2 DUP2 SUB PUSH0 DUP4 ADD MSTORE PUSH2 0x2478 DUP2 PUSH2 0x243F JUMP JUMPDEST SWAP1 POP SWAP2 SWAP1 POP JUMP JUMPDEST PUSH32 0x43616E6E6F7420766F7465206F6E20796F7572206F776E20706F737400000000 PUSH0 DUP3 ADD MSTORE POP JUMP JUMPDEST PUSH0 PUSH2 0x24B3 PUSH1 0x1C DUP4 PUSH2 0x16BE JUMP JUMPDEST SWAP2 POP PUSH2 0x24BE DUP3 PUSH2 0x247F JUMP JUMPDEST PUSH1 0x20 DUP3 ADD SWAP1 POP SWAP2 SWAP1 POP JUMP JUMPDEST PUSH0 PUSH1 0x20 DUP3 ADD SWAP1 POP DUP2 DUP2 SUB PUSH0 DUP4 ADD MSTORE PUSH2 0x24E0 DUP2 PUSH2 0x24A7 JUMP JUMPDEST SWAP1 POP SWAP2 SWAP1 POP JUMP JUMPDEST PUSH32 0x416C726561647920766F74656400000000000000000000000000000000000000 PUSH0 DUP3 ADD MSTORE POP JUMP JUMPDEST PUSH0 PUSH2 0x251B PUSH1 0xD DUP4 PUSH2 0x16BE JUMP JUMPDEST SWAP2 POP PUSH2 0x2526 DUP3 PUSH2 0x24E7 JUMP JUMPDEST PUSH1 0x20 DUP3 ADD SWAP1 POP SWAP2 SWAP1 POP JUMP JUMPDEST PUSH0 PUSH1 0x20 DUP3 ADD SWAP1 POP DUP2 DUP2 SUB PUSH0 DUP4 ADD MSTORE PUSH2 0x2548 DUP2 PUSH2 0x250F JUMP JUMPDEST SWAP1 POP SWAP2 SWAP1 POP JUMP INVALID LOG2 PUSH5 0x6970667358 0x22 SLT KECCAK256 0xE2 0xE0 0xC3 SWAP13 DUP15 SWAP12 0x22 SELFBALANCE PUSH26 0x3EF17546F46323FD1FE91F0093A9F61806869599041E9F64736F PUSH13 0x63430008140033546869732070 PUSH6 0x72736F6E2077 PUSH10 0x74682069642023343520 PUSH10 0x73206E6F742073746166 PUSH7 0x2E205468697320 PUSH8 0x7579207472796969 PUSH15 0x6720746F2070726574656E7420626F PUSH21 0x682070726F666573736F7220616E64207374756666 0x2E KECCAK256 0x49 0x27 PUSH23 0x65207365656E207468656D2061726F756E642063616D70 PUSH22 0x7320617320612073747564656E742E54686520657363 PUSH2 0x6C61 PUSH21 0x6F72206F757473696465204359542069732062726F PUSH12 0x656E20616761696E2120506C PUSH6 0x617365206669 PUSH25 0x20697420757267656E746C792150726F706F73616C3A20556E PUSH10 0x76657273697479207368 PUSH16 0x756C64207072696F726974697A652053 SLOAD GASLIMIT 0x4D KECCAK256 PUSH19 0x657365617263682066756E64696E6720736967 PUSH15 0x69666963616E746C79206F76657220 BASEFEE PUSH22 0x6D616E697469657320746F206D61696E7461696E206F PUSH22 0x7220636F6D7065746974697665206564676520616E64 KECCAK256 PUSH2 0x6C69 PUSH8 0x6E20776974682066 PUSH22 0x74757265206A6F62206D61726B65742064656D616E64 PUSH20 0x2E2054686973206973206120707261676D617469 PUSH4 0x20617070 PUSH19 0x6F61636820666F72206C6F6E672D7465726D20 PUSH10 0x6E737469747574696F6E PUSH2 0x6C20 PUSH20 0x7563636573732E20234675747572655354454D57 PUSH9 0x656E2077696C6C204C SELFBALANCE BALANCE KECCAK256 PUSH16 0x70656E206E6577206D65616C206F7074 PUSH10 0x6F6E733F49206B6E6F77 KECCAK256 PUSH21 0x68697320706572736F6E2066726F6D206D7920636C PUSH2 0x7373 0x2E KECCAK256 SLOAD PUSH9 0x657927726520707265 PUSH21 0x656E64696E6720746F206265207374616666206167 PUSH2 0x696E 0x21 SLOAD PUSH9 0x697320697320646566 PUSH10 0x6E6974656C792066616B PUSH6 0x206E6577732E KECCAK256 PREVRANDAO PUSH16 0x6E27742062656C696576652069742E54 PUSH9 0x616E6B20796F752074 PUSH16 0x2074686520737461666620666F722074 PUSH9 0x6520717569636B2072 PUSH6 0x73706F6E7365 0x21 KECCAK256 SLOAD PUSH9 0x697320686173206265 PUSH6 0x6E20616E206F PUSH15 0x676F696E672069737375652E4E6F20 PUSH24 0x61792120492063616E2066696E616C6C7920626520667265 PUSH6 0x2066726F6D20 PUSH21 0x68652070726F6A656374214672616D696E67207468 PUSH10 0x73206173206120275072 PUSH16 0x666573736F7227207669657720697320 PUSH2 0x2062 PUSH10 0x7420646973696E67656E PUSH22 0x6F75732E204D616E7920666163756C74792062656C69 PUSH6 0x766520696E20 PUSH2 0x2062 PUSH2 0x6C61 PUSH15 0x63656420617070726F6163682E2054 PUSH9 0x652069737375652069 PUSH20 0x206D6F7265206E75616E636564207468616E2070 PUSH19 0x6573656E74656420686572652E492061677265 PUSH6 0x2C2064656669 PUSH15 0x6974656C79206E6F74207374616666 0x2E KECCAK256 JUMP PUSH16 0x74696E672066616B65206F6E20746869 PUSH20 0x206F6E652E486F772063616E20796F7520707265 PUSH21 0x656E6420746F20626520612070726F666573736F72 KECCAK256 PUSH2 0x6E64 KECCAK256 PUSH21 0x68656E20636F6D6D656E7420617320612073747564 PUSH6 0x6E743F204F75 PUSH19 0x2070726F6A656374206973207374696C6C206F PUSH15 0x676F696E672E2057652073686F756C PUSH5 0x206368616C PUSH13 0x656E6765207468697320757365 PUSH19 0x277320637265646962696C6974792154686973 KECCAK256 PUSH10 0x7320612073616D706C65 KECCAK256 PUSH4 0x6F6D6D65 PUSH15 0x74206F6E2074686520746573742070 PUSH16 0x7374417320612073747564656E742C20 0x49 KECCAK256 PUSH20 0x6565207468652070726163746963616C2062656E PUSH6 0x66697473206F PUSH7 0x20666F63757369 PUSH15 0x67206F6E205354454D20666F72206A PUSH16 0x622070726F7370656374732C20627574 KECCAK256 PUSH24 0x652073686F756C646E277420636F6D706C6574656C792064 PUSH6 0x66756E642068 PUSH22 0x6D616E69746965732E20546865792074656163682063 PUSH19 0x69746963616C207468696E6B696E672E546861 PUSH15 0x6B20796F7520666F72207265706F72 PUSH21 0x696E6720746869732069737375652E205765276C6C KECCAK256 PUSH20 0x656E642061206D61696E74656E616E6365207465 PUSH2 0x6D20 PUSH19 0x6967687420617761792E74686520434F4D5034 CALLDATALOAD BALANCE BALANCE KECCAK256 PUSH17 0x726F6A6563742077696C6C206265206361 PUSH15 0x63656C656421000000000000000000 "
				},
				"gasEstimates": {
					"creation": {
						"codeDepositCost": "1921000",
						"executionCost": "infinite",
						"totalCost": "infinite"
					},
					"external": {
						"addComment(uint256,string,string)": "infinite",
						"comments(uint256,uint256)": "infinite",
						"createPost(string,string)": "infinite",
						"getComment(uint256,uint256)": "infinite",
						"getCommentCount(uint256)": "infinite",
						"getCommentsBatch(uint256,uint256,uint256)": "infinite",
						"getPost(uint256)": "infinite",
						"hasVoted(uint256,address)": "5324",
						"postCount()": "2492",
						"posts(uint256)": "infinite",
						"voteOnTag(uint256,bool)": "infinite"
					},
					"internal": {
						"_createInitialPost(string memory,string memory,string memory)": "infinite"
					}
				},
				"methodIdentifiers": {
					"addComment(uint256,string,string)": "1521e616",
					"comments(uint256,uint256)": "fc6c776f",
					"createPost(string,string)": "392338f5",
					"getComment(uint256,uint256)": "48892753",
					"getCommentCount(uint256)": "0d4bfb4f",
					"getCommentsBatch(uint256,uint256,uint256)": "25cfb1c5",
					"getPost(uint256)": "40731c24",
					"hasVoted(uint256,address)": "43859632",
					"postCount()": "17906c2e",
					"posts(uint256)": "0b1e7f83",
					"voteOnTag(uint256,bool)": "6305dd23"
				}
			},
			"storageLayout": {
				"storage": [
					{
						"astId": 39,
						"contract": "contracts/forum.sol:HKUSTForum",
						"label": "posts",
						"offset": 0,
						"slot": "0",
						"type": "t_mapping(t_uint256,t_struct(Post)25_storage)"
					},
					{
						"astId": 41,
						"contract": "contracts/forum.sol:HKUSTForum",
						"label": "postCount",
						"offset": 0,
						"slot": "1",
						"type": "t_uint256"
					},
					{
						"astId": 48,
						"contract": "contracts/forum.sol:HKUSTForum",
						"label": "comments",
						"offset": 0,
						"slot": "2",
						"type": "t_mapping(t_uint256,t_mapping(t_uint256,t_struct(Comment)34_storage))"
					}
				],
				"types": {
					"t_address": {
						"encoding": "inplace",
						"label": "address",
						"numberOfBytes": "20"
					},
					"t_bool": {
						"encoding": "inplace",
						"label": "bool",
						"numberOfBytes": "1"
					},
					"t_mapping(t_address,t_bool)": {
						"encoding": "mapping",
						"key": "t_address",
						"label": "mapping(address => bool)",
						"numberOfBytes": "32",
						"value": "t_bool"
					},
					"t_mapping(t_uint256,t_mapping(t_uint256,t_struct(Comment)34_storage))": {
						"encoding": "mapping",
						"key": "t_uint256",
						"label": "mapping(uint256 => mapping(uint256 => struct HKUSTForum.Comment))",
						"numberOfBytes": "32",
						"value": "t_mapping(t_uint256,t_struct(Comment)34_storage)"
					},
					"t_mapping(t_uint256,t_struct(Comment)34_storage)": {
						"encoding": "mapping",
						"key": "t_uint256",
						"label": "mapping(uint256 => struct HKUSTForum.Comment)",
						"numberOfBytes": "32",
						"value": "t_struct(Comment)34_storage"
					},
					"t_mapping(t_uint256,t_struct(Post)25_storage)": {
						"encoding": "mapping",
						"key": "t_uint256",
						"label": "mapping(uint256 => struct HKUSTForum.Post)",
						"numberOfBytes": "32",
						"value": "t_struct(Post)25_storage"
					},
					"t_string_storage": {
						"encoding": "bytes",
						"label": "string",
						"numberOfBytes": "32"
					},
					"t_struct(Comment)34_storage": {
						"encoding": "inplace",
						"label": "struct HKUSTForum.Comment",
						"members": [
							{
								"astId": 27,
								"contract": "contracts/forum.sol:HKUSTForum",
								"label": "author",
								"offset": 0,
								"slot": "0",
								"type": "t_address"
							},
							{
								"astId": 29,
								"contract": "contracts/forum.sol:HKUSTForum",
								"label": "content",
								"offset": 0,
								"slot": "1",
								"type": "t_string_storage"
							},
							{
								"astId": 31,
								"contract": "contracts/forum.sol:HKUSTForum",
								"label": "tag",
								"offset": 0,
								"slot": "2",
								"type": "t_string_storage"
							},
							{
								"astId": 33,
								"contract": "contracts/forum.sol:HKUSTForum",
								"label": "timestamp",
								"offset": 0,
								"slot": "3",
								"type": "t_uint256"
							}
						],
						"numberOfBytes": "128"
					},
					"t_struct(Post)25_storage": {
						"encoding": "inplace",
						"label": "struct HKUSTForum.Post",
						"members": [
							{
								"astId": 6,
								"contract": "contracts/forum.sol:HKUSTForum",
								"label": "author",
								"offset": 0,
								"slot": "0",
								"type": "t_address"
							},
							{
								"astId": 8,
								"contract": "contracts/forum.sol:HKUSTForum",
								"label": "content",
								"offset": 0,
								"slot": "1",
								"type": "t_string_storage"
							},
							{
								"astId": 10,
								"contract": "contracts/forum.sol:HKUSTForum",
								"label": "tag",
								"offset": 0,
								"slot": "2",
								"type": "t_string_storage"
							},
							{
								"astId": 12,
								"contract": "contracts/forum.sol:HKUSTForum",
								"label": "timestamp",
								"offset": 0,
								"slot": "3",
								"type": "t_uint256"
							},
							{
								"astId": 14,
								"contract": "contracts/forum.sol:HKUSTForum",
								"label": "isTagChallenged",
								"offset": 0,
								"slot": "4",
								"type": "t_bool"
							},
							{
								"astId": 16,
								"contract": "contracts/forum.sol:HKUSTForum",
								"label": "realVotes",
								"offset": 0,
								"slot": "5",
								"type": "t_uint256"
							},
							{
								"astId": 18,
								"contract": "contracts/forum.sol:HKUSTForum",
								"label": "fakerVotes",
								"offset": 0,
								"slot": "6",
								"type": "t_uint256"
							},
							{
								"astId": 22,
								"contract": "contracts/forum.sol:HKUSTForum",
								"label": "hasVoted",
								"offset": 0,
								"slot": "7",
								"type": "t_mapping(t_address,t_bool)"
							},
							{
								"astId": 24,
								"contract": "contracts/forum.sol:HKUSTForum",
								"label": "commentCount",
								"offset": 0,
								"slot": "8",
								"type": "t_uint256"
							}
						],
						"numberOfBytes": "288"
					},
					"t_uint256": {
						"encoding": "inplace",
						"label": "uint256",
						"numberOfBytes": "32"
					}
				}
			},
			"userdoc": {
				"kind": "user",
				"methods": {},
				"version": 1
			}
		}
	}
}