{
	"data": {
		"bytecode": {
			"linkReferences": {},
			"object": "608060405234801562000010575f80fd5b50600180819055505f805f60015481526020019081526020015f209050734511277f98ba4282705da1c250110e24aa2f88a2815f015f6101000a81548173ffffffffffffffffffffffffffffffffffffffff021916908373ffffffffffffffffffffffffffffffffffffffff1602179055506040518060400160405280600481526020017f7465737400000000000000000000000000000000000000000000000000000000815250816001019081620000ca9190620021aa565b506040518060400160405280600781526020017f73747564656e7400000000000000000000000000000000000000000000000000815250816002019081620001139190620021aa565b5063681f310881600301819055505f816004015f6101000a81548160ff0219169083151502179055505f81600501819055505f8160060181905550600181600801819055505f60025f60015481526020019081526020015f205f600181526020019081526020015f209050734511277f98ba4282705da1c250110e24aa2f88a2815f015f6101000a81548173ffffffffffffffffffffffffffffffffffffffff021916908373ffffffffffffffffffffffffffffffffffffffff16021790555060405180606001604052806029815260200162004dd460299139816001019081620001ff9190620021aa565b506040518060400160405280600781526020017f73747564656e7400000000000000000000000000000000000000000000000000815250816002019081620002489190620021aa565b5063681f314c8160030181905550815f015f9054906101000a900473ffffffffffffffffffffffffffffffffffffffff1673ffffffffffffffffffffffffffffffffffffffff166001547f5475621b07408f75d49c828caa5aeacb3a5e98d3497e75730dc184677504401c8460020185600101604051620002cb9291906200232b565b60405180910390a3805f015f9054906101000a900473ffffffffffffffffffffffffffffffffffffffff1673ffffffffffffffffffffffffffffffffffffffff16600180547f03a56e2377acf256c15a50f0b97834fa29a151d0b8a6d05c450576e40634fadc8460010185600201604051620003499291906200232b565b60405180910390a460015f815480929190620003659062002391565b91905055505f805f60015481526020019081526020015f209050734511277f98ba4282705da1c250110e24aa2f88a2815f015f6101000a81548173ffffffffffffffffffffffffffffffffffffffff021916908373ffffffffffffffffffffffffffffffffffffffff16021790555060405180606001604052806026815260200162004ee860269139816001019081620004009190620021aa565b506040518060400160405280600981526020017f70726f666573736f720000000000000000000000000000000000000000000000815250816002019081620004499190620021aa565b5063681f31b081600301819055506001816004015f6101000a81548160ff0219169083151502179055505f816005018190555060018160060181905550600381600801819055505f60025f60015481526020019081526020015f205f600181526020019081526020015f209050734511277f98ba4282705da1c250110e24aa2f88a2815f015f6101000a81548173ffffffffffffffffffffffffffffffffffffffff021916908373ffffffffffffffffffffffffffffffffffffffff1602179055506040518060600160405280602f815260200162004c4a602f9139816001019081620005379190620021aa565b506040518060400160405280600781526020017f73747564656e7400000000000000000000000000000000000000000000000000815250816002019081620005809190620021aa565b5063681f327881600301819055505f60025f60015481526020019081526020015f205f600281526020019081526020015f209050733fc91a3afd70395cd496c647d5a6cc9d4b2b7fad815f015f6101000a81548173ffffffffffffffffffffffffffffffffffffffff021916908373ffffffffffffffffffffffffffffffffffffffff1602179055506040518060600160405280602f815260200162004bcd602f9139816001019081620006359190620021aa565b506040518060400160405280600781526020017f73747564656e74000000000000000000000000000000000000000000000000008152508160020190816200067e9190620021aa565b5063681f334081600301819055505f60025f60015481526020019081526020015f205f600381526020019081526020015f20905073a983d7e14ac1aaf050bb64fdab1024ae9c93c956815f015f6101000a81548173ffffffffffffffffffffffffffffffffffffffff021916908373ffffffffffffffffffffffffffffffffffffffff1602179055506040518060c00160405280608f815260200162004d45608f9139816001019081620007339190620021aa565b506040518060400160405280600781526020017f73747564656e74000000000000000000000000000000000000000000000000008152508160020190816200077c9190620021aa565b5063681f4fbc8160030181905550835f015f9054906101000a900473ffffffffffffffffffffffffffffffffffffffff1673ffffffffffffffffffffffffffffffffffffffff166001547f5475621b07408f75d49c828caa5aeacb3a5e98d3497e75730dc184677504401c8660020187600101604051620007ff9291906200232b565b60405180910390a3825f015f9054906101000a900473ffffffffffffffffffffffffffffffffffffffff1673ffffffffffffffffffffffffffffffffffffffff16600180547f03a56e2377acf256c15a50f0b97834fa29a151d0b8a6d05c450576e40634fadc86600101876002016040516200087d9291906200232b565b60405180910390a4815f015f9054906101000a900473ffffffffffffffffffffffffffffffffffffffff1673ffffffffffffffffffffffffffffffffffffffff1660026001547f03a56e2377acf256c15a50f0b97834fa29a151d0b8a6d05c450576e40634fadc8560010186600201604051620008fc9291906200232b565b60405180910390a4805f015f9054906101000a900473ffffffffffffffffffffffffffffffffffffffff1673ffffffffffffffffffffffffffffffffffffffff1660036001547f03a56e2377acf256c15a50f0b97834fa29a151d0b8a6d05c450576e40634fadc84600101856002016040516200097b9291906200232b565b60405180910390a460015f815480929190620009979062002391565b91905055505f805f60015481526020019081526020015f2090507378731d3ca6b7e34ac0f824c42a7cc18a495cabab815f015f6101000a81548173ffffffffffffffffffffffffffffffffffffffff021916908373ffffffffffffffffffffffffffffffffffffffff16021790555060405180608001604052806042815260200162004a2d6042913981600101908162000a329190620021aa565b506040518060400160405280600781526020017f73747564656e740000000000000000000000000000000000000000000000000081525081600201908162000a7b9190620021aa565b506368229cfc81600301819055505f816004015f6101000a81548160ff021916908315150217905550600181600501819055505f8160060181905550600281600801819055505f60025f60015481526020019081526020015f205f600181526020019081526020015f209050733fc91a3afd70395cd496c647d5a6cc9d4b2b7fad815f015f6101000a81548173ffffffffffffffffffffffffffffffffffffffff021916908373ffffffffffffffffffffffffffffffffffffffff1602179055506040518060800160405280604d815260200162004e9b604d913981600101908162000b689190620021aa565b506040518060400160405280600581526020017f737461666600000000000000000000000000000000000000000000000000000081525081600201908162000bb19190620021aa565b506368229d7881600301819055505f60025f60015481526020019081526020015f205f600281526020019081526020015f20905073a983d7e14ac1aaf050bb64fdab1024ae9c93c956815f015f6101000a81548173ffffffffffffffffffffffffffffffffffffffff021916908373ffffffffffffffffffffffffffffffffffffffff1602179055506040518060800160405280604e815260200162004bfc604e913981600101908162000c669190620021aa565b506040518060400160405280600981526020017f70726f666573736f72000000000000000000000000000000000000000000000081525081600201908162000caf9190620021aa565b5063681f4f68816003018190555060015f8060015481526020019081526020015f206007015f835f015f9054906101000a900473ffffffffffffffffffffffffffffffffffffffff1673ffffffffffffffffffffffffffffffffffffffff1673ffffffffffffffffffffffffffffffffffffffff1681526020019081526020015f205f6101000a81548160ff021916908315150217905550825f015f9054906101000a900473ffffffffffffffffffffffffffffffffffffffff1673ffffffffffffffffffffffffffffffffffffffff166001547f5475621b07408f75d49c828caa5aeacb3a5e98d3497e75730dc184677504401c856002018660010160405162000dbc9291906200232b565b60405180910390a3815f015f9054906101000a900473ffffffffffffffffffffffffffffffffffffffff1673ffffffffffffffffffffffffffffffffffffffff16600180547f03a56e2377acf256c15a50f0b97834fa29a151d0b8a6d05c450576e40634fadc856001018660020160405162000e3a9291906200232b565b60405180910390a4805f015f9054906101000a900473ffffffffffffffffffffffffffffffffffffffff1673ffffffffffffffffffffffffffffffffffffffff1660026001547f03a56e2377acf256c15a50f0b97834fa29a151d0b8a6d05c450576e40634fadc846001018560020160405162000eb99291906200232b565b60405180910390a460015f81548092919062000ed59062002391565b91905055505f805f60015481526020019081526020015f209050734511277f98ba4282705da1c250110e24aa2f88a2815f015f6101000a81548173ffffffffffffffffffffffffffffffffffffffff021916908373ffffffffffffffffffffffffffffffffffffffff16021790555060405180606001604052806024815260200162004b626024913981600101908162000f709190620021aa565b506040518060400160405280600581526020017f737461666600000000000000000000000000000000000000000000000000000081525081600201908162000fb99190620021aa565b5063681f5fc881600301819055506001816004015f6101000a81548160ff0219169083151502179055505f816005018190555060038160060181905550600381600801819055505f60025f60015481526020019081526020015f205f600181526020019081526020015f209050735b38da6a701c568545dcfcb03fcb875f56beddc4815f015f6101000a81548173ffffffffffffffffffffffffffffffffffffffff021916908373ffffffffffffffffffffffffffffffffffffffff1602179055506040518060c0016040528060868152602001620049a760869139816001019081620010a79190620021aa565b506040518060400160405280600781526020017f73747564656e7400000000000000000000000000000000000000000000000000815250816002019081620010f09190620021aa565b5063681f6414816003018190555060015f8060015481526020019081526020015f206007015f835f015f9054906101000a900473ffffffffffffffffffffffffffffffffffffffff1673ffffffffffffffffffffffffffffffffffffffff1673ffffffffffffffffffffffffffffffffffffffff1681526020019081526020015f205f6101000a81548160ff0219169083151502179055505f60025f60015481526020019081526020015f205f600281526020019081526020015f20905073617f2e2fd72fd9d5503197092ac168c91465e7f2815f015f6101000a81548173ffffffffffffffffffffffffffffffffffffffff021916908373ffffffffffffffffffffffffffffffffffffffff16021790555060405180606001604052806037815260200162004d0e603791398160010190816200122f9190620021aa565b506040518060400160405280600781526020017f73747564656e7400000000000000000000000000000000000000000000000000815250816002019081620012789190620021aa565b5063681f6860816003018190555060015f8060015481526020019081526020015f206007015f835f015f9054906101000a900473ffffffffffffffffffffffffffffffffffffffff1673ffffffffffffffffffffffffffffffffffffffff1673ffffffffffffffffffffffffffffffffffffffff1681526020019081526020015f205f6101000a81548160ff0219169083151502179055505f60025f60015481526020019081526020015f205f600381526020019081526020015f20905073a983d7e14ac1aaf050bb64fdab1024ae9c93c956815f015f6101000a81548173ffffffffffffffffffffffffffffffffffffffff021916908373ffffffffffffffffffffffffffffffffffffffff16021790555060405180608001604052806047815260200162004b8660479139816001019081620013b79190620021aa565b506040518060400160405280600781526020017f73747564656e7400000000000000000000000000000000000000000000000000815250816002019081620014009190620021aa565b5063681f6cac816003018190555060015f8060015481526020019081526020015f206007015f835f015f9054906101000a900473ffffffffffffffffffffffffffffffffffffffff1673ffffffffffffffffffffffffffffffffffffffff1673ffffffffffffffffffffffffffffffffffffffff1681526020019081526020015f205f6101000a81548160ff021916908315150217905550835f015f9054906101000a900473ffffffffffffffffffffffffffffffffffffffff1673ffffffffffffffffffffffffffffffffffffffff166001547f5475621b07408f75d49c828caa5aeacb3a5e98d3497e75730dc184677504401c86600201876001016040516200150d9291906200232b565b60405180910390a3825f015f9054906101000a900473ffffffffffffffffffffffffffffffffffffffff1673ffffffffffffffffffffffffffffffffffffffff16600180547f03a56e2377acf256c15a50f0b97834fa29a151d0b8a6d05c450576e40634fadc86600101876002016040516200158b9291906200232b565b60405180910390a4815f015f9054906101000a900473ffffffffffffffffffffffffffffffffffffffff1673ffffffffffffffffffffffffffffffffffffffff1660026001547f03a56e2377acf256c15a50f0b97834fa29a151d0b8a6d05c450576e40634fadc85600101866002016040516200160a9291906200232b565b60405180910390a4805f015f9054906101000a900473ffffffffffffffffffffffffffffffffffffffff1673ffffffffffffffffffffffffffffffffffffffff1660036001547f03a56e2377acf256c15a50f0b97834fa29a151d0b8a6d05c450576e40634fadc8460010185600201604051620016899291906200232b565b60405180910390a460015f815480929190620016a59062002391565b91905055505f805f60015481526020019081526020015f209050731111111111111111111111111111111111111111815f015f6101000a81548173ffffffffffffffffffffffffffffffffffffffff021916908373ffffffffffffffffffffffffffffffffffffffff16021790555060405180610120016040528060f3815260200162004a6f60f39139816001019081620017419190620021aa565b506040518060400160405280600981526020017f70726f666573736f7200000000000000000000000000000000000000000000008152508160020190816200178a9190620021aa565b50636821ec2081600301819055506001816004015f6101000a81548160ff02191690831515021790555060028160050181905550600281600601819055506002816008018190555060015f8060015481526020019081526020015f206007015f73222222222222222222222222222222222222222273ffffffffffffffffffffffffffffffffffffffff1673ffffffffffffffffffffffffffffffffffffffff1681526020019081526020015f205f6101000a81548160ff02191690831515021790555060015f8060015481526020019081526020015f206007015f73333333333333333333333333333333333333333373ffffffffffffffffffffffffffffffffffffffff1673ffffffffffffffffffffffffffffffffffffffff1681526020019081526020015f205f6101000a81548160ff02191690831515021790555060015f8060015481526020019081526020015f206007015f73444444444444444444444444444444444444444473ffffffffffffffffffffffffffffffffffffffff1673ffffffffffffffffffffffffffffffffffffffff1681526020019081526020015f205f6101000a81548160ff02191690831515021790555060015f8060015481526020019081526020015f206007015f73555555555555555555555555555555555555555573ffffffffffffffffffffffffffffffffffffffff1673ffffffffffffffffffffffffffffffffffffffff1681526020019081526020015f205f6101000a81548160ff0219169083151502179055505f60025f60015481526020019081526020015f205f600181526020019081526020015f209050736666666666666666666666666666666666666666815f015f6101000a81548173ffffffffffffffffffffffffffffffffffffffff021916908373ffffffffffffffffffffffffffffffffffffffff1602179055506040518060c00160405280609e815260200162004dfd609e913981600101908162001a699190620021aa565b506040518060400160405280600781526020017f73747564656e740000000000000000000000000000000000000000000000000081525081600201908162001ab29190620021aa565b50636821ec8481600301819055505f60025f60015481526020019081526020015f205f600281526020019081526020015f209050737777777777777777777777777777777777777777815f015f6101000a81548173ffffffffffffffffffffffffffffffffffffffff021916908373ffffffffffffffffffffffffffffffffffffffff1602179055506040518060c001604052806095815260200162004c796095913981600101908162001b679190620021aa565b506040518060400160405280600981526020017f70726f666573736f72000000000000000000000000000000000000000000000081525081600201908162001bb09190620021aa565b50636821ece88160030181905550825f015f9054906101000a900473ffffffffffffffffffffffffffffffffffffffff1673ffffffffffffffffffffffffffffffffffffffff166001547f5475621b07408f75d49c828caa5aeacb3a5e98d3497e75730dc184677504401c856002018660010160405162001c339291906200232b565b60405180910390a373222222222222222222222222222222222222222273ffffffffffffffffffffffffffffffffffffffff166001547fedc96ef82a3fd8ea664dd4fe50f94c77be3c3d6130792c3ed8b0199e3c28ec6260405160405180910390a373222222222222222222222222222222222222222273ffffffffffffffffffffffffffffffffffffffff166001547fe71fcdac32df1877c1700e7bda2a03157e20993363a28fc35ac495cefc76e4d4600160405162001cf59190620023f9565b60405180910390a373333333333333333333333333333333333333333373ffffffffffffffffffffffffffffffffffffffff166001547fe71fcdac32df1877c1700e7bda2a03157e20993363a28fc35ac495cefc76e4d45f60405162001d5c9190620023f9565b60405180910390a373444444444444444444444444444444444444444473ffffffffffffffffffffffffffffffffffffffff166001547fe71fcdac32df1877c1700e7bda2a03157e20993363a28fc35ac495cefc76e4d4600160405162001dc49190620023f9565b60405180910390a373555555555555555555555555555555555555555573ffffffffffffffffffffffffffffffffffffffff166001547fe71fcdac32df1877c1700e7bda2a03157e20993363a28fc35ac495cefc76e4d45f60405162001e2b9190620023f9565b60405180910390a3815f015f9054906101000a900473ffffffffffffffffffffffffffffffffffffffff1673ffffffffffffffffffffffffffffffffffffffff16600180547f03a56e2377acf256c15a50f0b97834fa29a151d0b8a6d05c450576e40634fadc856001018660020160405162001ea99291906200232b565b60405180910390a4805f015f9054906101000a900473ffffffffffffffffffffffffffffffffffffffff1673ffffffffffffffffffffffffffffffffffffffff1660026001547f03a56e2377acf256c15a50f0b97834fa29a151d0b8a6d05c450576e40634fadc846001018560020160405162001f289291906200232b565b60405180910390a45050505050505050505050505050505062002414565b5f81519050919050565b7f4e487b71000000000000000000000000000000000000000000000000000000005f52604160045260245ffd5b7f4e487b71000000000000000000000000000000000000000000000000000000005f52602260045260245ffd5b5f600282049050600182168062001fc257607f821691505b60208210810362001fd85762001fd762001f7d565b5b50919050565b5f819050815f5260205f209050919050565b5f6020601f8301049050919050565b5f82821b905092915050565b5f600883026200203c7fffffffffffffffffffffffffffffffffffffffffffffffffffffffffffffffff8262001fff565b62002048868362001fff565b95508019841693508086168417925050509392505050565b5f819050919050565b5f819050919050565b5f620020926200208c620020868462002060565b62002069565b62002060565b9050919050565b5f819050919050565b620020ad8362002072565b620020c5620020bc8262002099565b8484546200200b565b825550505050565b5f90565b620020db620020cd565b620020e8818484620020a2565b505050565b5b818110156200210f57620021035f82620020d1565b600181019050620020ee565b5050565b601f8211156200215e57620021288162001fde565b620021338462001ff0565b8101602085101562002143578190505b6200215b620021528562001ff0565b830182620020ed565b50505b505050565b5f82821c905092915050565b5f620021805f198460080262002163565b1980831691505092915050565b5f6200219a83836200216f565b9150826002028217905092915050565b620021b58262001f46565b67ffffffffffffffff811115620021d157620021d062001f50565b5b620021dd825462001faa565b620021ea82828562002113565b5f60209050601f83116001811462002220575f84156200220b578287015190505b6200221785826200218d565b86555062002286565b601f198416620022308662001fde565b5f5b82811015620022595784890151825560018201915060208501945060208101905062002232565b8683101562002279578489015162002275601f8916826200216f565b8355505b6001600288020188555050505b505050505050565b5f82825260208201905092915050565b5f8154620022ac8162001faa565b620022b881866200228e565b9450600182165f8114620022d55760018114620022ec5762002322565b60ff19831686528115156020028601935062002322565b620022f78562001fde565b5f5b838110156200231a57815481890152600182019150602081019050620022f9565b808801955050505b50505092915050565b5f6040820190508181035f8301526200234581856200229e565b905081810360208301526200235b81846200229e565b90509392505050565b7f4e487b71000000000000000000000000000000000000000000000000000000005f52601160045260245ffd5b5f6200239d8262002060565b91507fffffffffffffffffffffffffffffffffffffffffffffffffffffffffffffffff8203620023d257620023d162002364565b5b600182019050919050565b5f8115159050919050565b620023f381620023dd565b82525050565b5f6020820190506200240e5f830184620023e8565b92915050565b61258580620024225f395ff3fe608060405234801561000f575f80fd5b50600436106100a7575f3560e01c8063392338f51161006f578063392338f51461018057806340731c241461019c57806343859632146101d357806348892753146102035780636305dd2314610236578063fc6c776f14610252576100a7565b80630b1e7f83146100ab5780630d4bfb4f146100e25780631521e6161461011257806317906c2e1461012e57806325cfb1c51461014c575b5f80fd5b6100c560048036038101906100c0919061164a565b610285565b6040516100d9989796959493929190611767565b60405180910390f35b6100fc60048036038101906100f7919061164a565b6103ff565b60405161010991906117f1565b60405180910390f35b61012c60048036038101906101279190611936565b61046b565b005b61013661061c565b60405161014391906117f1565b60405180910390f35b610166600480360381019061016191906119be565b610622565b604051610177959493929190611c7f565b60405180910390f35b61019a60048036038101906101959190611cec565b610bcf565b005b6101b660048036038101906101b1919061164a565b610cf7565b6040516101ca989796959493929190611767565b60405180910390f35b6101ed60048036038101906101e89190611d8c565b610ee3565b6040516101fa9190611dca565b60405180910390f35b61021d60048036038101906102189190611de3565b610f97565b60405161022d9493929190611e21565b60405180910390f35b610250600480360381019061024b9190611e9c565b6111c6565b005b61026c60048036038101906102679190611de3565b6114a4565b60405161027c9493929190611e21565b60405180910390f35b5f602052805f5260405f205f91509050805f015f9054906101000a900473ffffffffffffffffffffffffffffffffffffffff16908060010180546102c890611f07565b80601f01602080910402602001604051908101604052809291908181526020018280546102f490611f07565b801561033f5780601f106103165761010080835404028352916020019161033f565b820191905f5260205f20905b81548152906001019060200180831161032257829003601f168201915b50505050509080600201805461035490611f07565b80601f016020809104026020016040519081016040528092919081815260200182805461038090611f07565b80156103cb5780601f106103a2576101008083540402835291602001916103cb565b820191905f5260205f20905b8154815290600101906020018083116103ae57829003601f168201915b505050505090806003015490806004015f9054906101000a900460ff16908060050154908060060154908060080154905088565b5f808211801561041157506001548211155b610450576040517f08c379a000000000000000000000000000000000000000000000000000000000815260040161044790611f81565b60405180910390fd5b5f808381526020019081526020015f20600801549050919050565b5f8311801561047c57506001548311155b6104bb576040517f08c379a00000000000000000000000000000000000000000000000000000000081526004016104b290611f81565b60405180910390fd5b5f8251116104fe576040517f08c379a00000000000000000000000000000000000000000000000000000000081526004016104f590611fe9565b60405180910390fd5b5f805f8581526020019081526020015f209050806008015f81548092919061052590612034565b91905055505f60025f8681526020019081526020015f205f836008015481526020019081526020015f20905033815f015f6101000a81548173ffffffffffffffffffffffffffffffffffffffff021916908373ffffffffffffffffffffffffffffffffffffffff160217905550838160010190816105a39190612218565b50828160020190816105b59190612218565b504281600301819055503373ffffffffffffffffffffffffffffffffffffffff168260080154867f03a56e2377acf256c15a50f0b97834fa29a151d0b8a6d05c450576e40634fadc878760405161060d9291906122e7565b60405180910390a45050505050565b60015481565b6060806060805f808811801561063a57506001548811155b610679576040517f08c379a000000000000000000000000000000000000000000000000000000000815260040161067090611f81565b60405180910390fd5b5f87116106bb576040517f08c379a00000000000000000000000000000000000000000000000000000000081526004016106b290612366565b60405180910390fd5b5f805f8a81526020019081526020015f2060080154905080915080881115610819575f67ffffffffffffffff8111156106f7576106f6611812565b5b6040519080825280602002602001820160405280156107255781602001602082028036833780820191505090505b505f67ffffffffffffffff8111156107405761073f611812565b5b60405190808252806020026020018201604052801561077357816020015b606081526020019060019003908161075e5790505b505f67ffffffffffffffff81111561078e5761078d611812565b5b6040519080825280602002602001820160405280156107c157816020015b60608152602001906001900390816107ac5790505b505f67ffffffffffffffff8111156107dc576107db611812565b5b60405190808252806020026020018201604052801561080a5781602001602082028036833780820191505090505b50955095509550955050610bc4565b5f879050601481111561082b57601490505b5f60018a8461083a9190612384565b61084491906123b7565b905080821115610852578091505b8167ffffffffffffffff81111561086c5761086b611812565b5b60405190808252806020026020018201604052801561089a5781602001602082028036833780820191505090505b5097508167ffffffffffffffff8111156108b7576108b6611812565b5b6040519080825280602002602001820160405280156108ea57816020015b60608152602001906001900390816108d55790505b5096508167ffffffffffffffff81111561090757610906611812565b5b60405190808252806020026020018201604052801561093a57816020015b60608152602001906001900390816109255790505b5095508167ffffffffffffffff81111561095757610956611812565b5b6040519080825280602002602001820160405280156109855781602001602082028036833780820191505090505b5094505f5b82811015610bbf575f818c61099f91906123b7565b90505f60025f8f81526020019081526020015f205f8381526020019081526020015f209050805f015f9054906101000a900473ffffffffffffffffffffffffffffffffffffffff168b84815181106109fa576109f96123ea565b5b602002602001019073ffffffffffffffffffffffffffffffffffffffff16908173ffffffffffffffffffffffffffffffffffffffff1681525050806001018054610a4390611f07565b80601f0160208091040260200160405190810160405280929190818152602001828054610a6f90611f07565b8015610aba5780601f10610a9157610100808354040283529160200191610aba565b820191905f5260205f20905b815481529060010190602001808311610a9d57829003601f168201915b50505050508a8481518110610ad257610ad16123ea565b5b6020026020010181905250806002018054610aec90611f07565b80601f0160208091040260200160405190810160405280929190818152602001828054610b1890611f07565b8015610b635780601f10610b3a57610100808354040283529160200191610b63565b820191905f5260205f20905b815481529060010190602001808311610b4657829003601f168201915b5050505050898481518110610b7b57610b7a6123ea565b5b60200260200101819052508060030154888481518110610b9e57610b9d6123ea565b5b60200260200101818152505050508080610bb790612034565b91505061098a565b505050505b939792965093509350565b60015f815480929190610be190612034565b91905055505f805f60015481526020019081526020015f20905033815f015f6101000a81548173ffffffffffffffffffffffffffffffffffffffff021916908373ffffffffffffffffffffffffffffffffffffffff16021790555082816001019081610c4d9190612218565b5081816002019081610c5f9190612218565b504281600301819055505f816004015f6101000a81548160ff0219169083151502179055505f81600501819055505f81600601819055505f81600801819055503373ffffffffffffffffffffffffffffffffffffffff166001547f5475621b07408f75d49c828caa5aeacb3a5e98d3497e75730dc184677504401c8486604051610cea9291906122e7565b60405180910390a3505050565b5f6060805f805f805f8089118015610d1157506001548911155b610d50576040517f08c379a0000000000000000000000000000000000000000000000000000000008152600401610d4790611f81565b60405180910390fd5b5f805f8b81526020019081526020015f209050805f015f9054906101000a900473ffffffffffffffffffffffffffffffffffffffff1681600101826002018360030154846004015f9054906101000a900460ff16856005015486600601548760080154868054610dbf90611f07565b80601f0160208091040260200160405190810160405280929190818152602001828054610deb90611f07565b8015610e365780601f10610e0d57610100808354040283529160200191610e36565b820191905f5260205f20905b815481529060010190602001808311610e1957829003601f168201915b50505050509650858054610e4990611f07565b80601f0160208091040260200160405190810160405280929190818152602001828054610e7590611f07565b8015610ec05780601f10610e9757610100808354040283529160200191610ec0565b820191905f5260205f20905b815481529060010190602001808311610ea357829003601f168201915b505050505095509850985098509850985098509850985050919395975091939597565b5f8083118015610ef557506001548311155b610f34576040517f08c379a0000000000000000000000000000000000000000000000000000000008152600401610f2b90611f81565b60405180910390fd5b5f808481526020019081526020015f206007015f8373ffffffffffffffffffffffffffffffffffffffff1673ffffffffffffffffffffffffffffffffffffffff1681526020019081526020015f205f9054906101000a900460ff16905092915050565b5f6060805f8086118015610fad57506001548611155b610fec576040517f08c379a0000000000000000000000000000000000000000000000000000000008152600401610fe390611f81565b60405180910390fd5b5f8511801561100e57505f808781526020019081526020015f20600801548511155b61104d576040517f08c379a000000000000000000000000000000000000000000000000000000000815260040161104490612461565b60405180910390fd5b5f60025f8881526020019081526020015f205f8781526020019081526020015f209050805f015f9054906101000a900473ffffffffffffffffffffffffffffffffffffffff16816001018260020183600301548280546110ac90611f07565b80601f01602080910402602001604051908101604052809291908181526020018280546110d890611f07565b80156111235780601f106110fa57610100808354040283529160200191611123565b820191905f5260205f20905b81548152906001019060200180831161110657829003601f168201915b5050505050925081805461113690611f07565b80601f016020809104026020016040519081016040528092919081815260200182805461116290611f07565b80156111ad5780601f10611184576101008083540402835291602001916111ad565b820191905f5260205f20905b81548152906001019060200180831161119057829003601f168201915b5050505050915094509450945094505092959194509250565b5f821180156111d757506001548211155b611216576040517f08c379a000000000000000000000000000000000000000000000000000000000815260040161120d90611f81565b60405180910390fd5b5f805f8481526020019081526020015f2090503373ffffffffffffffffffffffffffffffffffffffff16815f015f9054906101000a900473ffffffffffffffffffffffffffffffffffffffff1673ffffffffffffffffffffffffffffffffffffffff16036112b9576040517f08c379a00000000000000000000000000000000000000000000000000000000081526004016112b0906124c9565b60405180910390fd5b806007015f3373ffffffffffffffffffffffffffffffffffffffff1673ffffffffffffffffffffffffffffffffffffffff1681526020019081526020015f205f9054906101000a900460ff1615611345576040517f08c379a000000000000000000000000000000000000000000000000000000000815260040161133c90612531565b60405180910390fd5b806004015f9054906101000a900460ff166113bb576001816004015f6101000a81548160ff0219169083151502179055503373ffffffffffffffffffffffffffffffffffffffff16837fedc96ef82a3fd8ea664dd4fe50f94c77be3c3d6130792c3ed8b0199e3c28ec6260405160405180910390a35b6001816007015f3373ffffffffffffffffffffffffffffffffffffffff1673ffffffffffffffffffffffffffffffffffffffff1681526020019081526020015f205f6101000a81548160ff021916908315150217905550811561143657806005015f81548092919061142c90612034565b9190505550611450565b806006015f81548092919061144a90612034565b91905055505b3373ffffffffffffffffffffffffffffffffffffffff16837fe71fcdac32df1877c1700e7bda2a03157e20993363a28fc35ac495cefc76e4d4846040516114979190611dca565b60405180910390a3505050565b6002602052815f5260405f20602052805f5260405f205f9150915050805f015f9054906101000a900473ffffffffffffffffffffffffffffffffffffffff16908060010180546114f390611f07565b80601f016020809104026020016040519081016040528092919081815260200182805461151f90611f07565b801561156a5780601f106115415761010080835404028352916020019161156a565b820191905f5260205f20905b81548152906001019060200180831161154d57829003601f168201915b50505050509080600201805461157f90611f07565b80601f01602080910402602001604051908101604052809291908181526020018280546115ab90611f07565b80156115f65780601f106115cd576101008083540402835291602001916115f6565b820191905f5260205f20905b8154815290600101906020018083116115d957829003601f168201915b5050505050908060030154905084565b5f604051905090565b5f80fd5b5f80fd5b5f819050919050565b61162981611617565b8114611633575f80fd5b50565b5f8135905061164481611620565b92915050565b5f6020828403121561165f5761165e61160f565b5b5f61166c84828501611636565b91505092915050565b5f73ffffffffffffffffffffffffffffffffffffffff82169050919050565b5f61169e82611675565b9050919050565b6116ae81611694565b82525050565b5f81519050919050565b5f82825260208201905092915050565b5f5b838110156116eb5780820151818401526020810190506116d0565b5f8484015250505050565b5f601f19601f8301169050919050565b5f611710826116b4565b61171a81856116be565b935061172a8185602086016116ce565b611733816116f6565b840191505092915050565b61174781611617565b82525050565b5f8115159050919050565b6117618161174d565b82525050565b5f6101008201905061177b5f83018b6116a5565b818103602083015261178d818a611706565b905081810360408301526117a18189611706565b90506117b0606083018861173e565b6117bd6080830187611758565b6117ca60a083018661173e565b6117d760c083018561173e565b6117e460e083018461173e565b9998505050505050505050565b5f6020820190506118045f83018461173e565b92915050565b5f80fd5b5f80fd5b7f4e487b71000000000000000000000000000000000000000000000000000000005f52604160045260245ffd5b611848826116f6565b810181811067ffffffffffffffff8211171561186757611866611812565b5b80604052505050565b5f611879611606565b9050611885828261183f565b919050565b5f67ffffffffffffffff8211156118a4576118a3611812565b5b6118ad826116f6565b9050602081019050919050565b828183375f83830152505050565b5f6118da6118d58461188a565b611870565b9050828152602081018484840111156118f6576118f561180e565b5b6119018482856118ba565b509392505050565b5f82601f83011261191d5761191c61180a565b5b813561192d8482602086016118c8565b91505092915050565b5f805f6060848603121561194d5761194c61160f565b5b5f61195a86828701611636565b935050602084013567ffffffffffffffff81111561197b5761197a611613565b5b61198786828701611909565b925050604084013567ffffffffffffffff8111156119a8576119a7611613565b5b6119b486828701611909565b9150509250925092565b5f805f606084860312156119d5576119d461160f565b5b5f6119e286828701611636565b93505060206119f386828701611636565b9250506040611a0486828701611636565b9150509250925092565b5f81519050919050565b5f82825260208201905092915050565b5f819050602082019050919050565b611a4081611694565b82525050565b5f611a518383611a37565b60208301905092915050565b5f602082019050919050565b5f611a7382611a0e565b611a7d8185611a18565b9350611a8883611a28565b805f5b83811015611ab8578151611a9f8882611a46565b9750611aaa83611a5d565b925050600181019050611a8b565b5085935050505092915050565b5f81519050919050565b5f82825260208201905092915050565b5f819050602082019050919050565b5f82825260208201905092915050565b5f611b08826116b4565b611b128185611aee565b9350611b228185602086016116ce565b611b2b816116f6565b840191505092915050565b5f611b418383611afe565b905092915050565b5f602082019050919050565b5f611b5f82611ac5565b611b698185611acf565b935083602082028501611b7b85611adf565b805f5b85811015611bb65784840389528151611b978582611b36565b9450611ba283611b49565b925060208a01995050600181019050611b7e565b50829750879550505050505092915050565b5f81519050919050565b5f82825260208201905092915050565b5f819050602082019050919050565b611bfa81611617565b82525050565b5f611c0b8383611bf1565b60208301905092915050565b5f602082019050919050565b5f611c2d82611bc8565b611c378185611bd2565b9350611c4283611be2565b805f5b83811015611c72578151611c598882611c00565b9750611c6483611c17565b925050600181019050611c45565b5085935050505092915050565b5f60a0820190508181035f830152611c978188611a69565b90508181036020830152611cab8187611b55565b90508181036040830152611cbf8186611b55565b90508181036060830152611cd38185611c23565b9050611ce2608083018461173e565b9695505050505050565b5f8060408385031215611d0257611d0161160f565b5b5f83013567ffffffffffffffff811115611d1f57611d1e611613565b5b611d2b85828601611909565b925050602083013567ffffffffffffffff811115611d4c57611d4b611613565b5b611d5885828601611909565b9150509250929050565b611d6b81611694565b8114611d75575f80fd5b50565b5f81359050611d8681611d62565b92915050565b5f8060408385031215611da257611da161160f565b5b5f611daf85828601611636565b9250506020611dc085828601611d78565b9150509250929050565b5f602082019050611ddd5f830184611758565b92915050565b5f8060408385031215611df957611df861160f565b5b5f611e0685828601611636565b9250506020611e1785828601611636565b9150509250929050565b5f608082019050611e345f8301876116a5565b8181036020830152611e468186611706565b90508181036040830152611e5a8185611706565b9050611e69606083018461173e565b95945050505050565b611e7b8161174d565b8114611e85575f80fd5b50565b5f81359050611e9681611e72565b92915050565b5f8060408385031215611eb257611eb161160f565b5b5f611ebf85828601611636565b9250506020611ed085828601611e88565b9150509250929050565b7f4e487b71000000000000000000000000000000000000000000000000000000005f52602260045260245ffd5b5f6002820490506001821680611f1e57607f821691505b602082108103611f3157611f30611eda565b5b50919050565b7f496e76616c696420706f737420494400000000000000000000000000000000005f82015250565b5f611f6b600f836116be565b9150611f7682611f37565b602082019050919050565b5f6020820190508181035f830152611f9881611f5f565b9050919050565b7f436f6d6d656e742063616e6e6f7420626520656d7074790000000000000000005f82015250565b5f611fd36017836116be565b9150611fde82611f9f565b602082019050919050565b5f6020820190508181035f83015261200081611fc7565b9050919050565b7f4e487b71000000000000000000000000000000000000000000000000000000005f52601160045260245ffd5b5f61203e82611617565b91507fffffffffffffffffffffffffffffffffffffffffffffffffffffffffffffffff82036120705761206f612007565b5b600182019050919050565b5f819050815f5260205f209050919050565b5f6020601f8301049050919050565b5f82821b905092915050565b5f600883026120d77fffffffffffffffffffffffffffffffffffffffffffffffffffffffffffffffff8261209c565b6120e1868361209c565b95508019841693508086168417925050509392505050565b5f819050919050565b5f61211c61211761211284611617565b6120f9565b611617565b9050919050565b5f819050919050565b61213583612102565b61214961214182612123565b8484546120a8565b825550505050565b5f90565b61215d612151565b61216881848461212c565b505050565b5b8181101561218b576121805f82612155565b60018101905061216e565b5050565b601f8211156121d0576121a18161207b565b6121aa8461208d565b810160208510156121b9578190505b6121cd6121c58561208d565b83018261216d565b50505b505050565b5f82821c905092915050565b5f6121f05f19846008026121d5565b1980831691505092915050565b5f61220883836121e1565b9150826002028217905092915050565b612221826116b4565b67ffffffffffffffff81111561223a57612239611812565b5b6122448254611f07565b61224f82828561218f565b5f60209050601f831160018114612280575f841561226e578287015190505b61227885826121fd565b8655506122df565b601f19841661228e8661207b565b5f5b828110156122b557848901518255600182019150602085019450602081019050612290565b868310156122d257848901516122ce601f8916826121e1565b8355505b6001600288020188555050505b505050505050565b5f6040820190508181035f8301526122ff8185611706565b905081810360208301526123138184611706565b90509392505050565b7f5374617274204944206d7573742062652067726561746572207468616e2030005f82015250565b5f612350601f836116be565b915061235b8261231c565b602082019050919050565b5f6020820190508181035f83015261237d81612344565b9050919050565b5f61238e82611617565b915061239983611617565b92508282039050818111156123b1576123b0612007565b5b92915050565b5f6123c182611617565b91506123cc83611617565b92508282019050808211156123e4576123e3612007565b5b92915050565b7f4e487b71000000000000000000000000000000000000000000000000000000005f52603260045260245ffd5b7f496e76616c696420636f6d6d656e7420494400000000000000000000000000005f82015250565b5f61244b6012836116be565b915061245682612417565b602082019050919050565b5f6020820190508181035f8301526124788161243f565b9050919050565b7f43616e6e6f7420766f7465206f6e20796f7572206f776e20706f7374000000005f82015250565b5f6124b3601c836116be565b91506124be8261247f565b602082019050919050565b5f6020820190508181035f8301526124e0816124a7565b9050919050565b7f416c726561647920766f746564000000000000000000000000000000000000005f82015250565b5f61251b600d836116be565b9150612526826124e7565b602082019050919050565b5f6020820190508181035f8301526125488161250f565b905091905056fea2646970667358221220e2e0c39c8e9b2247793ef17546f46323fd1fe91f0093a9f61806869599041e9f64736f6c634300081400335468697320706572736f6e207769746820696420233435206973206e6f742073746166662e2054686973206775792074727969696e6720746f2070726574656e7420626f74682070726f666573736f7220616e642073747566662e2049277665207365656e207468656d2061726f756e642063616d70757320617320612073747564656e742e54686520657363616c61746f72206f757473696465204359542069732062726f6b656e20616761696e2120506c656173652066697820697420757267656e746c792150726f706f73616c3a20556e69766572736974792073686f756c64207072696f726974697a65205354454d2072657365617263682066756e64696e67207369676e69666963616e746c79206f7665722048756d616e697469657320746f206d61696e7461696e206f757220636f6d7065746974697665206564676520616e6420616c69676e207769746820667574757265206a6f62206d61726b65742064656d616e64732e2054686973206973206120707261676d6174696320617070726f61636820666f72206c6f6e672d7465726d20696e737469747574696f6e616c20737563636573732e20234675747572655354454d5768656e2077696c6c204c4731206f70656e206e6577206d65616c206f7074696f6e733f49206b6e6f77207468697320706572736f6e2066726f6d206d7920636c6173732e20546865792772652070726574656e64696e6720746f20626520737461666620616761696e215468697320697320646566696e6974656c792066616b65206e6577732e20446f6e27742062656c696576652069742e5468616e6b20796f7520746f2074686520737461666620666f722074686520717569636b20726573706f6e736521205468697320686173206265656e20616e206f6e676f696e672069737375652e4e6f207761792120492063616e2066696e616c6c7920626520667265652066726f6d207468652070726f6a656374214672616d696e6720746869732061732061202750726f666573736f7227207669657720697320612062697420646973696e67656e756f75732e204d616e7920666163756c74792062656c6965766520696e20612062616c616e63656420617070726f6163682e20546865206973737565206973206d6f7265206e75616e636564207468616e2070726573656e74656420686572652e492061677265652c20646566696e6974656c79206e6f742073746166662e20566f74696e672066616b65206f6e2074686973206f6e652e486f772063616e20796f752070726574656e6420746f20626520612070726f666573736f7220616e64207468656e20636f6d6d656e7420617320612073747564656e743f204f75722070726f6a656374206973207374696c6c206f6e676f696e672e2057652073686f756c64206368616c6c656e676520746869732075736572277320637265646962696c697479215468697320697320612073616d706c6520636f6d6d656e74206f6e20746865207465737420706f7374417320612073747564656e742c204920736565207468652070726163746963616c2062656e6566697473206f6620666f637573696e67206f6e205354454d20666f72206a6f622070726f7370656374732c206275742077652073686f756c646e277420636f6d706c6574656c7920646566756e642068756d616e69746965732e205468657920746561636820637269746963616c207468696e6b696e672e5468616e6b20796f7520666f72207265706f7274696e6720746869732069737375652e205765276c6c2073656e642061206d61696e74656e616e6365207465616d20726967687420617761792e74686520434f4d50343531312070726f6a6563742077696c6c2062652063616e63656c656421",
			"opcodes": "PUSH1 0x80 PUSH1 0x40 MSTORE CALLVALUE DUP1 ISZERO PUSH3 0x10 JUMPI PUSH0 DUP1 REVERT JUMPDEST POP PUSH1 0x1 DUP1 DUP2 SWAP1 SSTORE POP PUSH0 DUP1 PUSH0 PUSH1 0x1 SLOAD DUP2 MSTORE PUSH1 0x20 ADD SWAP1 DUP2 MSTORE PUSH1 0x20 ADD PUSH0 KECCAK256 SWAP1 POP PUSH20 0x4511277F98BA4282705DA1C250110E24AA2F88A2 DUP2 PUSH0 ADD PUSH0 PUSH2 0x100 EXP DUP2 SLOAD DUP2 PUSH20 0xFFFFFFFFFFFFFFFFFFFFFFFFFFFFFFFFFFFFFFFF MUL NOT AND SWAP1 DUP4 PUSH20 0xFFFFFFFFFFFFFFFFFFFFFFFFFFFFFFFFFFFFFFFF AND MUL OR SWAP1 SSTORE POP PUSH1 0x40 MLOAD DUP1 PUSH1 0x40 ADD PUSH1 0x40 MSTORE DUP1 PUSH1 0x4 DUP2 MSTORE PUSH1 0x20 ADD PUSH32 0x7465737400000000000000000000000000000000000000000000000000000000 DUP2 MSTORE POP DUP2 PUSH1 0x1 ADD SWAP1 DUP2 PUSH3 0xCA SWAP2 SWAP1 PUSH3 0x21AA JUMP JUMPDEST POP PUSH1 0x40 MLOAD DUP1 PUSH1 0x40 ADD PUSH1 0x40 MSTORE DUP1 PUSH1 0x7 DUP2 MSTORE PUSH1 0x20 ADD PUSH32 0x73747564656E7400000000000000000000000000000000000000000000000000 DUP2 MSTORE POP DUP2 PUSH1 0x2 ADD SWAP1 DUP2 PUSH3 0x113 SWAP2 SWAP1 PUSH3 0x21AA JUMP JUMPDEST POP PUSH4 0x681F3108 DUP2 PUSH1 0x3 ADD DUP2 SWAP1 SSTORE POP PUSH0 DUP2 PUSH1 0x4 ADD PUSH0 PUSH2 0x100 EXP DUP2 SLOAD DUP2 PUSH1 0xFF MUL NOT AND SWAP1 DUP4 ISZERO ISZERO MUL OR SWAP1 SSTORE POP PUSH0 DUP2 PUSH1 0x5 ADD DUP2 SWAP1 SSTORE POP PUSH0 DUP2 PUSH1 0x6 ADD DUP2 SWAP1 SSTORE POP PUSH1 0x1 DUP2 PUSH1 0x8 ADD DUP2 SWAP1 SSTORE POP PUSH0 PUSH1 0x2 PUSH0 PUSH1 0x1 SLOAD DUP2 MSTORE PUSH1 0x20 ADD SWAP1 DUP2 MSTORE PUSH1 0x20 ADD PUSH0 KECCAK256 PUSH0 PUSH1 0x1 DUP2 MSTORE PUSH1 0x20 ADD SWAP1 DUP2 MSTORE PUSH1 0x20 ADD PUSH0 KECCAK256 SWAP1 POP PUSH20 0x4511277F98BA4282705DA1C250110E24AA2F88A2 DUP2 PUSH0 ADD PUSH0 PUSH2 0x100 EXP DUP2 SLOAD DUP2 PUSH20 0xFFFFFFFFFFFFFFFFFFFFFFFFFFFFFFFFFFFFFFFF MUL NOT AND SWAP1 DUP4 PUSH20 0xFFFFFFFFFFFFFFFFFFFFFFFFFFFFFFFFFFFFFFFF AND MUL OR SWAP1 SSTORE POP PUSH1 0x40 MLOAD DUP1 PUSH1 0x60 ADD PUSH1 0x40 MSTORE DUP1 PUSH1 0x29 DUP2 MSTORE PUSH1 0x20 ADD PUSH3 0x4DD4 PUSH1 0x29 SWAP2 CODECOPY DUP2 PUSH1 0x1 ADD SWAP1 DUP2 PUSH3 0x1FF SWAP2 SWAP1 PUSH3 0x21AA JUMP JUMPDEST POP PUSH1 0x40 MLOAD DUP1 PUSH1 0x40 ADD PUSH1 0x40 MSTORE DUP1 PUSH1 0x7 DUP2 MSTORE PUSH1 0x20 ADD PUSH32 0x73747564656E7400000000000000000000000000000000000000000000000000 DUP2 MSTORE POP DUP2 PUSH1 0x2 ADD SWAP1 DUP2 PUSH3 0x248 SWAP2 SWAP1 PUSH3 0x21AA JUMP JUMPDEST POP PUSH4 0x681F314C DUP2 PUSH1 0x3 ADD DUP2 SWAP1 SSTORE POP DUP2 PUSH0 ADD PUSH0 SWAP1 SLOAD SWAP1 PUSH2 0x100 EXP SWAP1 DIV PUSH20 0xFFFFFFFFFFFFFFFFFFFFFFFFFFFFFFFFFFFFFFFF AND PUSH20 0xFFFFFFFFFFFFFFFFFFFFFFFFFFFFFFFFFFFFFFFF AND PUSH1 0x1 SLOAD PUSH32 0x5475621B07408F75D49C828CAA5AEACB3A5E98D3497E75730DC184677504401C DUP5 PUSH1 0x2 ADD DUP6 PUSH1 0x1 ADD PUSH1 0x40 MLOAD PUSH3 0x2CB SWAP3 SWAP2 SWAP1 PUSH3 0x232B JUMP JUMPDEST PUSH1 0x40 MLOAD DUP1 SWAP2 SUB SWAP1 LOG3 DUP1 PUSH0 ADD PUSH0 SWAP1 SLOAD SWAP1 PUSH2 0x100 EXP SWAP1 DIV PUSH20 0xFFFFFFFFFFFFFFFFFFFFFFFFFFFFFFFFFFFFFFFF AND PUSH20 0xFFFFFFFFFFFFFFFFFFFFFFFFFFFFFFFFFFFFFFFF AND PUSH1 0x1 DUP1 SLOAD PUSH32 0x3A56E2377ACF256C15A50F0B97834FA29A151D0B8A6D05C450576E40634FADC DUP5 PUSH1 0x1 ADD DUP6 PUSH1 0x2 ADD PUSH1 0x40 MLOAD PUSH3 0x349 SWAP3 SWAP2 SWAP1 PUSH3 0x232B JUMP JUMPDEST PUSH1 0x40 MLOAD DUP1 SWAP2 SUB SWAP1 LOG4 PUSH1 0x1 PUSH0 DUP2 SLOAD DUP1 SWAP3 SWAP2 SWAP1 PUSH3 0x365 SWAP1 PUSH3 0x2391 JUMP JUMPDEST SWAP2 SWAP1 POP SSTORE POP PUSH0 DUP1 PUSH0 PUSH1 0x1 SLOAD DUP2 MSTORE PUSH1 0x20 ADD SWAP1 DUP2 MSTORE PUSH1 0x20 ADD PUSH0 KECCAK256 SWAP1 POP PUSH20 0x4511277F98BA4282705DA1C250110E24AA2F88A2 DUP2 PUSH0 ADD PUSH0 PUSH2 0x100 EXP DUP2 SLOAD DUP2 PUSH20 0xFFFFFFFFFFFFFFFFFFFFFFFFFFFFFFFFFFFFFFFF MUL NOT AND SWAP1 DUP4 PUSH20 0xFFFFFFFFFFFFFFFFFFFFFFFFFFFFFFFFFFFFFFFF AND MUL OR SWAP1 SSTORE POP PUSH1 0x40 MLOAD DUP1 PUSH1 0x60 ADD PUSH1 0x40 MSTORE DUP1 PUSH1 0x26 DUP2 MSTORE PUSH1 0x20 ADD PUSH3 0x4EE8 PUSH1 0x26 SWAP2 CODECOPY DUP2 PUSH1 0x1 ADD SWAP1 DUP2 PUSH3 0x400 SWAP2 SWAP1 PUSH3 0x21AA JUMP JUMPDEST POP PUSH1 0x40 MLOAD DUP1 PUSH1 0x40 ADD PUSH1 0x40 MSTORE DUP1 PUSH1 0x9 DUP2 MSTORE PUSH1 0x20 ADD PUSH32 0x70726F666573736F720000000000000000000000000000000000000000000000 DUP2 MSTORE POP DUP2 PUSH1 0x2 ADD SWAP1 DUP2 PUSH3 0x449 SWAP2 SWAP1 PUSH3 0x21AA JUMP JUMPDEST POP PUSH4 0x681F31B0 DUP2 PUSH1 0x3 ADD DUP2 SWAP1 SSTORE POP PUSH1 0x1 DUP2 PUSH1 0x4 ADD PUSH0 PUSH2 0x100 EXP DUP2 SLOAD DUP2 PUSH1 0xFF MUL NOT AND SWAP1 DUP4 ISZERO ISZERO MUL OR SWAP1 SSTORE POP PUSH0 DUP2 PUSH1 0x5 ADD DUP2 SWAP1 SSTORE POP PUSH1 0x1 DUP2 PUSH1 0x6 ADD DUP2 SWAP1 SSTORE POP PUSH1 0x3 DUP2 PUSH1 0x8 ADD DUP2 SWAP1 SSTORE POP PUSH0 PUSH1 0x2 PUSH0 PUSH1 0x1 SLOAD DUP2 MSTORE PUSH1 0x20 ADD SWAP1 DUP2 MSTORE PUSH1 0x20 ADD PUSH0 KECCAK256 PUSH0 PUSH1 0x1 DUP2 MSTORE PUSH1 0x20 ADD SWAP1 DUP2 MSTORE PUSH1 0x20 ADD PUSH0 KECCAK256 SWAP1 POP PUSH20 0x4511277F98BA4282705DA1C250110E24AA2F88A2 DUP2 PUSH0 ADD PUSH0 PUSH2 0x100 EXP DUP2 SLOAD DUP2 PUSH20 0xFFFFFFFFFFFFFFFFFFFFFFFFFFFFFFFFFFFFFFFF MUL NOT AND SWAP1 DUP4 PUSH20 0xFFFFFFFFFFFFFFFFFFFFFFFFFFFFFFFFFFFFFFFF AND MUL OR SWAP1 SSTORE POP PUSH1 0x40 MLOAD DUP1 PUSH1 0x60 ADD PUSH1 0x40 MSTORE DUP1 PUSH1 0x2F DUP2 MSTORE PUSH1 0x20 ADD PUSH3 0x4C4A PUSH1 0x2F SWAP2 CODECOPY DUP2 PUSH1 0x1 ADD SWAP1 DUP2 PUSH3 0x537 SWAP2 SWAP1 PUSH3 0x21AA JUMP JUMPDEST POP PUSH1 0x40 MLOAD DUP1 PUSH1 0x40 ADD PUSH1 0x40 MSTORE DUP1 PUSH1 0x7 DUP2 MSTORE PUSH1 0x20 ADD PUSH32 0x73747564656E7400000000000000000000000000000000000000000000000000 DUP2 MSTORE POP DUP2 PUSH1 0x2 ADD SWAP1 DUP2 PUSH3 0x580 SWAP2 SWAP1 PUSH3 0x21AA JUMP JUMPDEST POP PUSH4 0x681F3278 DUP2 PUSH1 0x3 ADD DUP2 SWAP1 SSTORE POP PUSH0 PUSH1 0x2 PUSH0 PUSH1 0x1 SLOAD DUP2 MSTORE PUSH1 0x20 ADD SWAP1 DUP2 MSTORE PUSH1 0x20 ADD PUSH0 KECCAK256 PUSH0 PUSH1 0x2 DUP2 MSTORE PUSH1 0x20 ADD SWAP1 DUP2 MSTORE PUSH1 0x20 ADD PUSH0 KECCAK256 SWAP1 POP PUSH20 0x3FC91A3AFD70395CD496C647D5A6CC9D4B2B7FAD DUP2 PUSH0 ADD PUSH0 PUSH2 0x100 EXP DUP2 SLOAD DUP2 PUSH20 0xFFFFFFFFFFFFFFFFFFFFFFFFFFFFFFFFFFFFFFFF MUL NOT AND SWAP1 DUP4 PUSH20 0xFFFFFFFFFFFFFFFFFFFFFFFFFFFFFFFFFFFFFFFF AND MUL OR SWAP1 SSTORE POP PUSH1 0x40 MLOAD DUP1 PUSH1 0x60 ADD PUSH1 0x40 MSTORE DUP1 PUSH1 0x2F DUP2 MSTORE PUSH1 0x20 ADD PUSH3 0x4BCD PUSH1 0x2F SWAP2 CODECOPY DUP2 PUSH1 0x1 ADD SWAP1 DUP2 PUSH3 0x635 SWAP2 SWAP1 PUSH3 0x21AA JUMP JUMPDEST POP PUSH1 0x40 MLOAD DUP1 PUSH1 0x40 ADD PUSH1 0x40 MSTORE DUP1 PUSH1 0x7 DUP2 MSTORE PUSH1 0x20 ADD PUSH32 0x73747564656E7400000000000000000000000000000000000000000000000000 DUP2 MSTORE POP DUP2 PUSH1 0x2 ADD SWAP1 DUP2 PUSH3 0x67E SWAP2 SWAP1 PUSH3 0x21AA JUMP JUMPDEST POP PUSH4 0x681F3340 DUP2 PUSH1 0x3 ADD DUP2 SWAP1 SSTORE POP PUSH0 PUSH1 0x2 PUSH0 PUSH1 0x1 SLOAD DUP2 MSTORE PUSH1 0x20 ADD SWAP1 DUP2 MSTORE PUSH1 0x20 ADD PUSH0 KECCAK256 PUSH0 PUSH1 0x3 DUP2 MSTORE PUSH1 0x20 ADD SWAP1 DUP2 MSTORE PUSH1 0x20 ADD PUSH0 KECCAK256 SWAP1 POP PUSH20 0xA983D7E14AC1AAF050BB64FDAB1024AE9C93C956 DUP2 PUSH0 ADD PUSH0 PUSH2 0x100 EXP DUP2 SLOAD DUP2 PUSH20 0xFFFFFFFFFFFFFFFFFFFFFFFFFFFFFFFFFFFFFFFF MUL NOT AND SWAP1 DUP4 PUSH20 0xFFFFFFFFFFFFFFFFFFFFFFFFFFFFFFFFFFFFFFFF AND MUL OR SWAP1 SSTORE POP PUSH1 0x40 MLOAD DUP1 PUSH1 0xC0 ADD PUSH1 0x40 MSTORE DUP1 PUSH1 0x8F DUP2 MSTORE PUSH1 0x20 ADD PUSH3 0x4D45 PUSH1 0x8F SWAP2 CODECOPY DUP2 PUSH1 0x1 ADD SWAP1 DUP2 PUSH3 0x733 SWAP2 SWAP1 PUSH3 0x21AA JUMP JUMPDEST POP PUSH1 0x40 MLOAD DUP1 PUSH1 0x40 ADD PUSH1 0x40 MSTORE DUP1 PUSH1 0x7 DUP2 MSTORE PUSH1 0x20 ADD PUSH32 0x73747564656E7400000000000000000000000000000000000000000000000000 DUP2 MSTORE POP DUP2 PUSH1 0x2 ADD SWAP1 DUP2 PUSH3 0x77C SWAP2 SWAP1 PUSH3 0x21AA JUMP JUMPDEST POP PUSH4 0x681F4FBC DUP2 PUSH1 0x3 ADD DUP2 SWAP1 SSTORE POP DUP4 PUSH0 ADD PUSH0 SWAP1 SLOAD SWAP1 PUSH2 0x100 EXP SWAP1 DIV PUSH20 0xFFFFFFFFFFFFFFFFFFFFFFFFFFFFFFFFFFFFFFFF AND PUSH20 0xFFFFFFFFFFFFFFFFFFFFFFFFFFFFFFFFFFFFFFFF AND PUSH1 0x1 SLOAD PUSH32 0x5475621B07408F75D49C828CAA5AEACB3A5E98D3497E75730DC184677504401C DUP7 PUSH1 0x2 ADD DUP8 PUSH1 0x1 ADD PUSH1 0x40 MLOAD PUSH3 0x7FF SWAP3 SWAP2 SWAP1 PUSH3 0x232B JUMP JUMPDEST PUSH1 0x40 MLOAD DUP1 SWAP2 SUB SWAP1 LOG3 DUP3 PUSH0 ADD PUSH0 SWAP1 SLOAD SWAP1 PUSH2 0x100 EXP SWAP1 DIV PUSH20 0xFFFFFFFFFFFFFFFFFFFFFFFFFFFFFFFFFFFFFFFF AND PUSH20 0xFFFFFFFFFFFFFFFFFFFFFFFFFFFFFFFFFFFFFFFF AND PUSH1 0x1 DUP1 SLOAD PUSH32 0x3A56E2377ACF256C15A50F0B97834FA29A151D0B8A6D05C450576E40634FADC DUP7 PUSH1 0x1 ADD DUP8 PUSH1 0x2 ADD PUSH1 0x40 MLOAD PUSH3 0x87D SWAP3 SWAP2 SWAP1 PUSH3 0x232B JUMP JUMPDEST PUSH1 0x40 MLOAD DUP1 SWAP2 SUB SWAP1 LOG4 DUP2 PUSH0 ADD PUSH0 SWAP1 SLOAD SWAP1 PUSH2 0x100 EXP SWAP1 DIV PUSH20 0xFFFFFFFFFFFFFFFFFFFFFFFFFFFFFFFFFFFFFFFF AND PUSH20 0xFFFFFFFFFFFFFFFFFFFFFFFFFFFFFFFFFFFFFFFF AND PUSH1 0x2 PUSH1 0x1 SLOAD PUSH32 0x3A56E2377ACF256C15A50F0B97834FA29A151D0B8A6D05C450576E40634FADC DUP6 PUSH1 0x1 ADD DUP7 PUSH1 0x2 ADD PUSH1 0x40 MLOAD PUSH3 0x8FC SWAP3 SWAP2 SWAP1 PUSH3 0x232B JUMP JUMPDEST PUSH1 0x40 MLOAD DUP1 SWAP2 SUB SWAP1 LOG4 DUP1 PUSH0 ADD PUSH0 SWAP1 SLOAD SWAP1 PUSH2 0x100 EXP SWAP1 DIV PUSH20 0xFFFFFFFFFFFFFFFFFFFFFFFFFFFFFFFFFFFFFFFF AND PUSH20 0xFFFFFFFFFFFFFFFFFFFFFFFFFFFFFFFFFFFFFFFF AND PUSH1 0x3 PUSH1 0x1 SLOAD PUSH32 0x3A56E2377ACF256C15A50F0B97834FA29A151D0B8A6D05C450576E40634FADC DUP5 PUSH1 0x1 ADD DUP6 PUSH1 0x2 ADD PUSH1 0x40 MLOAD PUSH3 0x97B SWAP3 SWAP2 SWAP1 PUSH3 0x232B JUMP JUMPDEST PUSH1 0x40 MLOAD DUP1 SWAP2 SUB SWAP1 LOG4 PUSH1 0x1 PUSH0 DUP2 SLOAD DUP1 SWAP3 SWAP2 SWAP1 PUSH3 0x997 SWAP1 PUSH3 0x2391 JUMP JUMPDEST SWAP2 SWAP1 POP SSTORE POP PUSH0 DUP1 PUSH0 PUSH1 0x1 SLOAD DUP2 MSTORE PUSH1 0x20 ADD SWAP1 DUP2 MSTORE PUSH1 0x20 ADD PUSH0 KECCAK256 SWAP1 POP PUSH20 0x78731D3CA6B7E34AC0F824C42A7CC18A495CABAB DUP2 PUSH0 ADD PUSH0 PUSH2 0x100 EXP DUP2 SLOAD DUP2 PUSH20 0xFFFFFFFFFFFFFFFFFFFFFFFFFFFFFFFFFFFFFFFF MUL NOT AND SWAP1 DUP4 PUSH20 0xFFFFFFFFFFFFFFFFFFFFFFFFFFFFFFFFFFFFFFFF AND MUL OR SWAP1 SSTORE POP PUSH1 0x40 MLOAD DUP1 PUSH1 0x80 ADD PUSH1 0x40 MSTORE DUP1 PUSH1 0x42 DUP2 MSTORE PUSH1 0x20 ADD PUSH3 0x4A2D PUSH1 0x42 SWAP2 CODECOPY DUP2 PUSH1 0x1 ADD SWAP1 DUP2 PUSH3 0xA32 SWAP2 SWAP1 PUSH3 0x21AA JUMP JUMPDEST POP PUSH1 0x40 MLOAD DUP1 PUSH1 0x40 ADD PUSH1 0x40 MSTORE DUP1 PUSH1 0x7 DUP2 MSTORE PUSH1 0x20 ADD PUSH32 0x73747564656E7400000000000000000000000000000000000000000000000000 DUP2 MSTORE POP DUP2 PUSH1 0x2 ADD SWAP1 DUP2 PUSH3 0xA7B SWAP2 SWAP1 PUSH3 0x21AA JUMP JUMPDEST POP PUSH4 0x68229CFC DUP2 PUSH1 0x3 ADD DUP2 SWAP1 SSTORE POP PUSH0 DUP2 PUSH1 0x4 ADD PUSH0 PUSH2 0x100 EXP DUP2 SLOAD DUP2 PUSH1 0xFF MUL NOT AND SWAP1 DUP4 ISZERO ISZERO MUL OR SWAP1 SSTORE POP PUSH1 0x1 DUP2 PUSH1 0x5 ADD DUP2 SWAP1 SSTORE POP PUSH0 DUP2 PUSH1 0x6 ADD DUP2 SWAP1 SSTORE POP PUSH1 0x2 DUP2 PUSH1 0x8 ADD DUP2 SWAP1 SSTORE POP PUSH0 PUSH1 0x2 PUSH0 PUSH1 0x1 SLOAD DUP2 MSTORE PUSH1 0x20 ADD SWAP1 DUP2 MSTORE PUSH1 0x20 ADD PUSH0 KECCAK256 PUSH0 PUSH1 0x1 DUP2 MSTORE PUSH1 0x20 ADD SWAP1 DUP2 MSTORE PUSH1 0x20 ADD PUSH0 KECCAK256 SWAP1 POP PUSH20 0x3FC91A3AFD70395CD496C647D5A6CC9D4B2B7FAD DUP2 PUSH0 ADD PUSH0 PUSH2 0x100 EXP DUP2 SLOAD DUP2 PUSH20 0xFFFFFFFFFFFFFFFFFFFFFFFFFFFFFFFFFFFFFFFF MUL NOT AND SWAP1 DUP4 PUSH20 0xFFFFFFFFFFFFFFFFFFFFFFFFFFFFFFFFFFFFFFFF AND MUL OR SWAP1 SSTORE POP PUSH1 0x40 MLOAD DUP1 PUSH1 0x80 ADD PUSH1 0x40 MSTORE DUP1 PUSH1 0x4D DUP2 MSTORE PUSH1 0x20 ADD PUSH3 0x4E9B PUSH1 0x4D SWAP2 CODECOPY DUP2 PUSH1 0x1 ADD SWAP1 DUP2 PUSH3 0xB68 SWAP2 SWAP1 PUSH3 0x21AA JUMP JUMPDEST POP PUSH1 0x40 MLOAD DUP1 PUSH1 0x40 ADD PUSH1 0x40 MSTORE DUP1 PUSH1 0x5 DUP2 MSTORE PUSH1 0x20 ADD PUSH32 0x7374616666000000000000000000000000000000000000000000000000000000 DUP2 MSTORE POP DUP2 PUSH1 0x2 ADD SWAP1 DUP2 PUSH3 0xBB1 SWAP2 SWAP1 PUSH3 0x21AA JUMP JUMPDEST POP PUSH4 0x68229D78 DUP2 PUSH1 0x3 ADD DUP2 SWAP1 SSTORE POP PUSH0 PUSH1 0x2 PUSH0 PUSH1 0x1 SLOAD DUP2 MSTORE PUSH1 0x20 ADD SWAP1 DUP2 MSTORE PUSH1 0x20 ADD PUSH0 KECCAK256 PUSH0 PUSH1 0x2 DUP2 MSTORE PUSH1 0x20 ADD SWAP1 DUP2 MSTORE PUSH1 0x20 ADD PUSH0 KECCAK256 SWAP1 POP PUSH20 0xA983D7E14AC1AAF050BB64FDAB1024AE9C93C956 DUP2 PUSH0 ADD PUSH0 PUSH2 0x100 EXP DUP2 SLOAD DUP2 PUSH20 0xFFFFFFFFFFFFFFFFFFFFFFFFFFFFFFFFFFFFFFFF MUL NOT AND SWAP1 DUP4 PUSH20 0xFFFFFFFFFFFFFFFFFFFFFFFFFFFFFFFFFFFFFFFF AND MUL OR SWAP1 SSTORE POP PUSH1 0x40 MLOAD DUP1 PUSH1 0x80 ADD PUSH1 0x40 MSTORE DUP1 PUSH1 0x4E DUP2 MSTORE PUSH1 0x20 ADD PUSH3 0x4BFC PUSH1 0x4E SWAP2 CODECOPY DUP2 PUSH1 0x1 ADD SWAP1 DUP2 PUSH3 0xC66 SWAP2 SWAP1 PUSH3 0x21AA JUMP JUMPDEST POP PUSH1 0x40 MLOAD DUP1 PUSH1 0x40 ADD PUSH1 0x40 MSTORE DUP1 PUSH1 0x9 DUP2 MSTORE PUSH1 0x20 ADD PUSH32 0x70726F666573736F720000000000000000000000000000000000000000000000 DUP2 MSTORE POP DUP2 PUSH1 0x2 ADD SWAP1 DUP2 PUSH3 0xCAF SWAP2 SWAP1 PUSH3 0x21AA JUMP JUMPDEST POP PUSH4 0x681F4F68 DUP2 PUSH1 0x3 ADD DUP2 SWAP1 SSTORE POP PUSH1 0x1 PUSH0 DUP1 PUSH1 0x1 SLOAD DUP2 MSTORE PUSH1 0x20 ADD SWAP1 DUP2 MSTORE PUSH1 0x20 ADD PUSH0 KECCAK256 PUSH1 0x7 ADD PUSH0 DUP4 PUSH0 ADD PUSH0 SWAP1 SLOAD SWAP1 PUSH2 0x100 EXP SWAP1 DIV PUSH20 0xFFFFFFFFFFFFFFFFFFFFFFFFFFFFFFFFFFFFFFFF AND PUSH20 0xFFFFFFFFFFFFFFFFFFFFFFFFFFFFFFFFFFFFFFFF AND PUSH20 0xFFFFFFFFFFFFFFFFFFFFFFFFFFFFFFFFFFFFFFFF AND DUP2 MSTORE PUSH1 0x20 ADD SWAP1 DUP2 MSTORE PUSH1 0x20 ADD PUSH0 KECCAK256 PUSH0 PUSH2 0x100 EXP DUP2 SLOAD DUP2 PUSH1 0xFF MUL NOT AND SWAP1 DUP4 ISZERO ISZERO MUL OR SWAP1 SSTORE POP DUP3 PUSH0 ADD PUSH0 SWAP1 SLOAD SWAP1 PUSH2 0x100 EXP SWAP1 DIV PUSH20 0xFFFFFFFFFFFFFFFFFFFFFFFFFFFFFFFFFFFFFFFF AND PUSH20 0xFFFFFFFFFFFFFFFFFFFFFFFFFFFFFFFFFFFFFFFF AND PUSH1 0x1 SLOAD PUSH32 0x5475621B07408F75D49C828CAA5AEACB3A5E98D3497E75730DC184677504401C DUP6 PUSH1 0x2 ADD DUP7 PUSH1 0x1 ADD PUSH1 0x40 MLOAD PUSH3 0xDBC SWAP3 SWAP2 SWAP1 PUSH3 0x232B JUMP JUMPDEST PUSH1 0x40 MLOAD DUP1 SWAP2 SUB SWAP1 LOG3 DUP2 PUSH0 ADD PUSH0 SWAP1 SLOAD SWAP1 PUSH2 0x100 EXP SWAP1 DIV PUSH20 0xFFFFFFFFFFFFFFFFFFFFFFFFFFFFFFFFFFFFFFFF AND PUSH20 0xFFFFFFFFFFFFFFFFFFFFFFFFFFFFFFFFFFFFFFFF AND PUSH1 0x1 DUP1 SLOAD PUSH32 0x3A56E2377ACF256C15A50F0B97834FA29A151D0B8A6D05C450576E40634FADC DUP6 PUSH1 0x1 ADD DUP7 PUSH1 0x2 ADD PUSH1 0x40 MLOAD PUSH3 0xE3A SWAP3 SWAP2 SWAP1 PUSH3 0x232B JUMP JUMPDEST PUSH1 0x40 MLOAD DUP1 SWAP2 SUB SWAP1 LOG4 DUP1 PUSH0 ADD PUSH0 SWAP1 SLOAD SWAP1 PUSH2 0x100 EXP SWAP1 DIV PUSH20 0xFFFFFFFFFFFFFFFFFFFFFFFFFFFFFFFFFFFFFFFF AND PUSH20 0xFFFFFFFFFFFFFFFFFFFFFFFFFFFFFFFFFFFFFFFF AND PUSH1 0x2 PUSH1 0x1 SLOAD PUSH32 0x3A56E2377ACF256C15A50F0B97834FA29A151D0B8A6D05C450576E40634FADC DUP5 PUSH1 0x1 ADD DUP6 PUSH1 0x2 ADD PUSH1 0x40 MLOAD PUSH3 0xEB9 SWAP3 SWAP2 SWAP1 PUSH3 0x232B JUMP JUMPDEST PUSH1 0x40 MLOAD DUP1 SWAP2 SUB SWAP1 LOG4 PUSH1 0x1 PUSH0 DUP2 SLOAD DUP1 SWAP3 SWAP2 SWAP1 PUSH3 0xED5 SWAP1 PUSH3 0x2391 JUMP JUMPDEST SWAP2 SWAP1 POP SSTORE POP PUSH0 DUP1 PUSH0 PUSH1 0x1 SLOAD DUP2 MSTORE PUSH1 0x20 ADD SWAP1 DUP2 MSTORE PUSH1 0x20 ADD PUSH0 KECCAK256 SWAP1 POP PUSH20 0x4511277F98BA4282705DA1C250110E24AA2F88A2 DUP2 PUSH0 ADD PUSH0 PUSH2 0x100 EXP DUP2 SLOAD DUP2 PUSH20 0xFFFFFFFFFFFFFFFFFFFFFFFFFFFFFFFFFFFFFFFF MUL NOT AND SWAP1 DUP4 PUSH20 0xFFFFFFFFFFFFFFFFFFFFFFFFFFFFFFFFFFFFFFFF AND MUL OR SWAP1 SSTORE POP PUSH1 0x40 MLOAD DUP1 PUSH1 0x60 ADD PUSH1 0x40 MSTORE DUP1 PUSH1 0x24 DUP2 MSTORE PUSH1 0x20 ADD PUSH3 0x4B62 PUSH1 0x24 SWAP2 CODECOPY DUP2 PUSH1 0x1 ADD SWAP1 DUP2 PUSH3 0xF70 SWAP2 SWAP1 PUSH3 0x21AA JUMP JUMPDEST POP PUSH1 0x40 MLOAD DUP1 PUSH1 0x40 ADD PUSH1 0x40 MSTORE DUP1 PUSH1 0x5 DUP2 MSTORE PUSH1 0x20 ADD PUSH32 0x7374616666000000000000000000000000000000000000000000000000000000 DUP2 MSTORE POP DUP2 PUSH1 0x2 ADD SWAP1 DUP2 PUSH3 0xFB9 SWAP2 SWAP1 PUSH3 0x21AA JUMP JUMPDEST POP PUSH4 0x681F5FC8 DUP2 PUSH1 0x3 ADD DUP2 SWAP1 SSTORE POP PUSH1 0x1 DUP2 PUSH1 0x4 ADD PUSH0 PUSH2 0x100 EXP DUP2 SLOAD DUP2 PUSH1 0xFF MUL NOT AND SWAP1 DUP4 ISZERO ISZERO MUL OR SWAP1 SSTORE POP PUSH0 DUP2 PUSH1 0x5 ADD DUP2 SWAP1 SSTORE POP PUSH1 0x3 DUP2 PUSH1 0x6 ADD DUP2 SWAP1 SSTORE POP PUSH1 0x3 DUP2 PUSH1 0x8 ADD DUP2 SWAP1 SSTORE POP PUSH0 PUSH1 0x2 PUSH0 PUSH1 0x1 SLOAD DUP2 MSTORE PUSH1 0x20 ADD SWAP1 DUP2 MSTORE PUSH1 0x20 ADD PUSH0 KECCAK256 PUSH0 PUSH1 0x1 DUP2 MSTORE PUSH1 0x20 ADD SWAP1 DUP2 MSTORE PUSH1 0x20 ADD PUSH0 KECCAK256 SWAP1 POP PUSH20 0x5B38DA6A701C568545DCFCB03FCB875F56BEDDC4 DUP2 PUSH0 ADD PUSH0 PUSH2 0x100 EXP DUP2 SLOAD DUP2 PUSH20 0xFFFFFFFFFFFFFFFFFFFFFFFFFFFFFFFFFFFFFFFF MUL NOT AND SWAP1 DUP4 PUSH20 0xFFFFFFFFFFFFFFFFFFFFFFFFFFFFFFFFFFFFFFFF AND MUL OR SWAP1 SSTORE POP PUSH1 0x40 MLOAD DUP1 PUSH1 0xC0 ADD PUSH1 0x40 MSTORE DUP1 PUSH1 0x86 DUP2 MSTORE PUSH1 0x20 ADD PUSH3 0x49A7 PUSH1 0x86 SWAP2 CODECOPY DUP2 PUSH1 0x1 ADD SWAP1 DUP2 PUSH3 0x10A7 SWAP2 SWAP1 PUSH3 0x21AA JUMP JUMPDEST POP PUSH1 0x40 MLOAD DUP1 PUSH1 0x40 ADD PUSH1 0x40 MSTORE DUP1 PUSH1 0x7 DUP2 MSTORE PUSH1 0x20 ADD PUSH32 0x73747564656E7400000000000000000000000000000000000000000000000000 DUP2 MSTORE POP DUP2 PUSH1 0x2 ADD SWAP1 DUP2 PUSH3 0x10F0 SWAP2 SWAP1 PUSH3 0x21AA JUMP JUMPDEST POP PUSH4 0x681F6414 DUP2 PUSH1 0x3 ADD DUP2 SWAP1 SSTORE POP PUSH1 0x1 PUSH0 DUP1 PUSH1 0x1 SLOAD DUP2 MSTORE PUSH1 0x20 ADD SWAP1 DUP2 MSTORE PUSH1 0x20 ADD PUSH0 KECCAK256 PUSH1 0x7 ADD PUSH0 DUP4 PUSH0 ADD PUSH0 SWAP1 SLOAD SWAP1 PUSH2 0x100 EXP SWAP1 DIV PUSH20 0xFFFFFFFFFFFFFFFFFFFFFFFFFFFFFFFFFFFFFFFF AND PUSH20 0xFFFFFFFFFFFFFFFFFFFFFFFFFFFFFFFFFFFFFFFF AND PUSH20 0xFFFFFFFFFFFFFFFFFFFFFFFFFFFFFFFFFFFFFFFF AND DUP2 MSTORE PUSH1 0x20 ADD SWAP1 DUP2 MSTORE PUSH1 0x20 ADD PUSH0 KECCAK256 PUSH0 PUSH2 0x100 EXP DUP2 SLOAD DUP2 PUSH1 0xFF MUL NOT AND SWAP1 DUP4 ISZERO ISZERO MUL OR SWAP1 SSTORE POP PUSH0 PUSH1 0x2 PUSH0 PUSH1 0x1 SLOAD DUP2 MSTORE PUSH1 0x20 ADD SWAP1 DUP2 MSTORE PUSH1 0x20 ADD PUSH0 KECCAK256 PUSH0 PUSH1 0x2 DUP2 MSTORE PUSH1 0x20 ADD SWAP1 DUP2 MSTORE PUSH1 0x20 ADD PUSH0 KECCAK256 SWAP1 POP PUSH20 0x617F2E2FD72FD9D5503197092AC168C91465E7F2 DUP2 PUSH0 ADD PUSH0 PUSH2 0x100 EXP DUP2 SLOAD DUP2 PUSH20 0xFFFFFFFFFFFFFFFFFFFFFFFFFFFFFFFFFFFFFFFF MUL NOT AND SWAP1 DUP4 PUSH20 0xFFFFFFFFFFFFFFFFFFFFFFFFFFFFFFFFFFFFFFFF AND MUL OR SWAP1 SSTORE POP PUSH1 0x40 MLOAD DUP1 PUSH1 0x60 ADD PUSH1 0x40 MSTORE DUP1 PUSH1 0x37 DUP2 MSTORE PUSH1 0x20 ADD PUSH3 0x4D0E PUSH1 0x37 SWAP2 CODECOPY DUP2 PUSH1 0x1 ADD SWAP1 DUP2 PUSH3 0x122F SWAP2 SWAP1 PUSH3 0x21AA JUMP JUMPDEST POP PUSH1 0x40 MLOAD DUP1 PUSH1 0x40 ADD PUSH1 0x40 MSTORE DUP1 PUSH1 0x7 DUP2 MSTORE PUSH1 0x20 ADD PUSH32 0x73747564656E7400000000000000000000000000000000000000000000000000 DUP2 MSTORE POP DUP2 PUSH1 0x2 ADD SWAP1 DUP2 PUSH3 0x1278 SWAP2 SWAP1 PUSH3 0x21AA JUMP JUMPDEST POP PUSH4 0x681F6860 DUP2 PUSH1 0x3 ADD DUP2 SWAP1 SSTORE POP PUSH1 0x1 PUSH0 DUP1 PUSH1 0x1 SLOAD DUP2 MSTORE PUSH1 0x20 ADD SWAP1 DUP2 MSTORE PUSH1 0x20 ADD PUSH0 KECCAK256 PUSH1 0x7 ADD PUSH0 DUP4 PUSH0 ADD PUSH0 SWAP1 SLOAD SWAP1 PUSH2 0x100 EXP SWAP1 DIV PUSH20 0xFFFFFFFFFFFFFFFFFFFFFFFFFFFFFFFFFFFFFFFF AND PUSH20 0xFFFFFFFFFFFFFFFFFFFFFFFFFFFFFFFFFFFFFFFF AND PUSH20 0xFFFFFFFFFFFFFFFFFFFFFFFFFFFFFFFFFFFFFFFF AND DUP2 MSTORE PUSH1 0x20 ADD SWAP1 DUP2 MSTORE PUSH1 0x20 ADD PUSH0 KECCAK256 PUSH0 PUSH2 0x100 EXP DUP2 SLOAD DUP2 PUSH1 0xFF MUL NOT AND SWAP1 DUP4 ISZERO ISZERO MUL OR SWAP1 SSTORE POP PUSH0 PUSH1 0x2 PUSH0 PUSH1 0x1 SLOAD DUP2 MSTORE PUSH1 0x20 ADD SWAP1 DUP2 MSTORE PUSH1 0x20 ADD PUSH0 KECCAK256 PUSH0 PUSH1 0x3 DUP2 MSTORE PUSH1 0x20 ADD SWAP1 DUP2 MSTORE PUSH1 0x20 ADD PUSH0 KECCAK256 SWAP1 POP PUSH20 0xA983D7E14AC1AAF050BB64FDAB1024AE9C93C956 DUP2 PUSH0 ADD PUSH0 PUSH2 0x100 EXP DUP2 SLOAD DUP2 PUSH20 0xFFFFFFFFFFFFFFFFFFFFFFFFFFFFFFFFFFFFFFFF MUL NOT AND SWAP1 DUP4 PUSH20 0xFFFFFFFFFFFFFFFFFFFFFFFFFFFFFFFFFFFFFFFF AND MUL OR SWAP1 SSTORE POP PUSH1 0x40 MLOAD DUP1 PUSH1 0x80 ADD PUSH1 0x40 MSTORE DUP1 PUSH1 0x47 DUP2 MSTORE PUSH1 0x20 ADD PUSH3 0x4B86 PUSH1 0x47 SWAP2 CODECOPY DUP2 PUSH1 0x1 ADD SWAP1 DUP2 PUSH3 0x13B7 SWAP2 SWAP1 PUSH3 0x21AA JUMP JUMPDEST POP PUSH1 0x40 MLOAD DUP1 PUSH1 0x40 ADD PUSH1 0x40 MSTORE DUP1 PUSH1 0x7 DUP2 MSTORE PUSH1 0x20 ADD PUSH32 0x73747564656E7400000000000000000000000000000000000000000000000000 DUP2 MSTORE POP DUP2 PUSH1 0x2 ADD SWAP1 DUP2 PUSH3 0x1400 SWAP2 SWAP1 PUSH3 0x21AA JUMP JUMPDEST POP PUSH4 0x681F6CAC DUP2 PUSH1 0x3 ADD DUP2 SWAP1 SSTORE POP PUSH1 0x1 PUSH0 DUP1 PUSH1 0x1 SLOAD DUP2 MSTORE PUSH1 0x20 ADD SWAP1 DUP2 MSTORE PUSH1 0x20 ADD PUSH0 KECCAK256 PUSH1 0x7 ADD PUSH0 DUP4 PUSH0 ADD PUSH0 SWAP1 SLOAD SWAP1 PUSH2 0x100 EXP SWAP1 DIV PUSH20 0xFFFFFFFFFFFFFFFFFFFFFFFFFFFFFFFFFFFFFFFF AND PUSH20 0xFFFFFFFFFFFFFFFFFFFFFFFFFFFFFFFFFFFFFFFF AND PUSH20 0xFFFFFFFFFFFFFFFFFFFFFFFFFFFFFFFFFFFFFFFF AND DUP2 MSTORE PUSH1 0x20 ADD SWAP1 DUP2 MSTORE PUSH1 0x20 ADD PUSH0 KECCAK256 PUSH0 PUSH2 0x100 EXP DUP2 SLOAD DUP2 PUSH1 0xFF MUL NOT AND SWAP1 DUP4 ISZERO ISZERO MUL OR SWAP1 SSTORE POP DUP4 PUSH0 ADD PUSH0 SWAP1 SLOAD SWAP1 PUSH2 0x100 EXP SWAP1 DIV PUSH20 0xFFFFFFFFFFFFFFFFFFFFFFFFFFFFFFFFFFFFFFFF AND PUSH20 0xFFFFFFFFFFFFFFFFFFFFFFFFFFFFFFFFFFFFFFFF AND PUSH1 0x1 SLOAD PUSH32 0x5475621B07408F75D49C828CAA5AEACB3A5E98D3497E75730DC184677504401C DUP7 PUSH1 0x2 ADD DUP8 PUSH1 0x1 ADD PUSH1 0x40 MLOAD PUSH3 0x150D SWAP3 SWAP2 SWAP1 PUSH3 0x232B JUMP JUMPDEST PUSH1 0x40 MLOAD DUP1 SWAP2 SUB SWAP1 LOG3 DUP3 PUSH0 ADD PUSH0 SWAP1 SLOAD SWAP1 PUSH2 0x100 EXP SWAP1 DIV PUSH20 0xFFFFFFFFFFFFFFFFFFFFFFFFFFFFFFFFFFFFFFFF AND PUSH20 0xFFFFFFFFFFFFFFFFFFFFFFFFFFFFFFFFFFFFFFFF AND PUSH1 0x1 DUP1 SLOAD PUSH32 0x3A56E2377ACF256C15A50F0B97834FA29A151D0B8A6D05C450576E40634FADC DUP7 PUSH1 0x1 ADD DUP8 PUSH1 0x2 ADD PUSH1 0x40 MLOAD PUSH3 0x158B SWAP3 SWAP2 SWAP1 PUSH3 0x232B JUMP JUMPDEST PUSH1 0x40 MLOAD DUP1 SWAP2 SUB SWAP1 LOG4 DUP2 PUSH0 ADD PUSH0 SWAP1 SLOAD SWAP1 PUSH2 0x100 EXP SWAP1 DIV PUSH20 0xFFFFFFFFFFFFFFFFFFFFFFFFFFFFFFFFFFFFFFFF AND PUSH20 0xFFFFFFFFFFFFFFFFFFFFFFFFFFFFFFFFFFFFFFFF AND PUSH1 0x2 PUSH1 0x1 SLOAD PUSH32 0x3A56E2377ACF256C15A50F0B97834FA29A151D0B8A6D05C450576E40634FADC DUP6 PUSH1 0x1 ADD DUP7 PUSH1 0x2 ADD PUSH1 0x40 MLOAD PUSH3 0x160A SWAP3 SWAP2 SWAP1 PUSH3 0x232B JUMP JUMPDEST PUSH1 0x40 MLOAD DUP1 SWAP2 SUB SWAP1 LOG4 DUP1 PUSH0 ADD PUSH0 SWAP1 SLOAD SWAP1 PUSH2 0x100 EXP SWAP1 DIV PUSH20 0xFFFFFFFFFFFFFFFFFFFFFFFFFFFFFFFFFFFFFFFF AND PUSH20 0xFFFFFFFFFFFFFFFFFFFFFFFFFFFFFFFFFFFFFFFF AND PUSH1 0x3 PUSH1 0x1 SLOAD PUSH32 0x3A56E2377ACF256C15A50F0B97834FA29A151D0B8A6D05C450576E40634FADC DUP5 PUSH1 0x1 ADD DUP6 PUSH1 0x2 ADD PUSH1 0x40 MLOAD PUSH3 0x1689 SWAP3 SWAP2 SWAP1 PUSH3 0x232B JUMP JUMPDEST PUSH1 0x40 MLOAD DUP1 SWAP2 SUB SWAP1 LOG4 PUSH1 0x1 PUSH0 DUP2 SLOAD DUP1 SWAP3 SWAP2 SWAP1 PUSH3 0x16A5 SWAP1 PUSH3 0x2391 JUMP JUMPDEST SWAP2 SWAP1 POP SSTORE POP PUSH0 DUP1 PUSH0 PUSH1 0x1 SLOAD DUP2 MSTORE PUSH1 0x20 ADD SWAP1 DUP2 MSTORE PUSH1 0x20 ADD PUSH0 KECCAK256 SWAP1 POP PUSH20 0x1111111111111111111111111111111111111111 DUP2 PUSH0 ADD PUSH0 PUSH2 0x100 EXP DUP2 SLOAD DUP2 PUSH20 0xFFFFFFFFFFFFFFFFFFFFFFFFFFFFFFFFFFFFFFFF MUL NOT AND SWAP1 DUP4 PUSH20 0xFFFFFFFFFFFFFFFFFFFFFFFFFFFFFFFFFFFFFFFF AND MUL OR SWAP1 SSTORE POP PUSH1 0x40 MLOAD DUP1 PUSH2 0x120 ADD PUSH1 0x40 MSTORE DUP1 PUSH1 0xF3 DUP2 MSTORE PUSH1 0x20 ADD PUSH3 0x4A6F PUSH1 0xF3 SWAP2 CODECOPY DUP2 PUSH1 0x1 ADD SWAP1 DUP2 PUSH3 0x1741 SWAP2 SWAP1 PUSH3 0x21AA JUMP JUMPDEST POP PUSH1 0x40 MLOAD DUP1 PUSH1 0x40 ADD PUSH1 0x40 MSTORE DUP1 PUSH1 0x9 DUP2 MSTORE PUSH1 0x20 ADD PUSH32 0x70726F666573736F720000000000000000000000000000000000000000000000 DUP2 MSTORE POP DUP2 PUSH1 0x2 ADD SWAP1 DUP2 PUSH3 0x178A SWAP2 SWAP1 PUSH3 0x21AA JUMP JUMPDEST POP PUSH4 0x6821EC20 DUP2 PUSH1 0x3 ADD DUP2 SWAP1 SSTORE POP PUSH1 0x1 DUP2 PUSH1 0x4 ADD PUSH0 PUSH2 0x100 EXP DUP2 SLOAD DUP2 PUSH1 0xFF MUL NOT AND SWAP1 DUP4 ISZERO ISZERO MUL OR SWAP1 SSTORE POP PUSH1 0x2 DUP2 PUSH1 0x5 ADD DUP2 SWAP1 SSTORE POP PUSH1 0x2 DUP2 PUSH1 0x6 ADD DUP2 SWAP1 SSTORE POP PUSH1 0x2 DUP2 PUSH1 0x8 ADD DUP2 SWAP1 SSTORE POP PUSH1 0x1 PUSH0 DUP1 PUSH1 0x1 SLOAD DUP2 MSTORE PUSH1 0x20 ADD SWAP1 DUP2 MSTORE PUSH1 0x20 ADD PUSH0 KECCAK256 PUSH1 0x7 ADD PUSH0 PUSH20 0x2222222222222222222222222222222222222222 PUSH20 0xFFFFFFFFFFFFFFFFFFFFFFFFFFFFFFFFFFFFFFFF AND PUSH20 0xFFFFFFFFFFFFFFFFFFFFFFFFFFFFFFFFFFFFFFFF AND DUP2 MSTORE PUSH1 0x20 ADD SWAP1 DUP2 MSTORE PUSH1 0x20 ADD PUSH0 KECCAK256 PUSH0 PUSH2 0x100 EXP DUP2 SLOAD DUP2 PUSH1 0xFF MUL NOT AND SWAP1 DUP4 ISZERO ISZERO MUL OR SWAP1 SSTORE POP PUSH1 0x1 PUSH0 DUP1 PUSH1 0x1 SLOAD DUP2 MSTORE PUSH1 0x20 ADD SWAP1 DUP2 MSTORE PUSH1 0x20 ADD PUSH0 KECCAK256 PUSH1 0x7 ADD PUSH0 PUSH20 0x3333333333333333333333333333333333333333 PUSH20 0xFFFFFFFFFFFFFFFFFFFFFFFFFFFFFFFFFFFFFFFF AND PUSH20 0xFFFFFFFFFFFFFFFFFFFFFFFFFFFFFFFFFFFFFFFF AND DUP2 MSTORE PUSH1 0x20 ADD SWAP1 DUP2 MSTORE PUSH1 0x20 ADD PUSH0 KECCAK256 PUSH0 PUSH2 0x100 EXP DUP2 SLOAD DUP2 PUSH1 0xFF MUL NOT AND SWAP1 DUP4 ISZERO ISZERO MUL OR SWAP1 SSTORE POP PUSH1 0x1 PUSH0 DUP1 PUSH1 0x1 SLOAD DUP2 MSTORE PUSH1 0x20 ADD SWAP1 DUP2 MSTORE PUSH1 0x20 ADD PUSH0 KECCAK256 PUSH1 0x7 ADD PUSH0 PUSH20 0x4444444444444444444444444444444444444444 PUSH20 0xFFFFFFFFFFFFFFFFFFFFFFFFFFFFFFFFFFFFFFFF AND PUSH20 0xFFFFFFFFFFFFFFFFFFFFFFFFFFFFFFFFFFFFFFFF AND DUP2 MSTORE PUSH1 0x20 ADD SWAP1 DUP2 MSTORE PUSH1 0x20 ADD PUSH0 KECCAK256 PUSH0 PUSH2 0x100 EXP DUP2 SLOAD DUP2 PUSH1 0xFF MUL NOT AND SWAP1 DUP4 ISZERO ISZERO MUL OR SWAP1 SSTORE POP PUSH1 0x1 PUSH0 DUP1 PUSH1 0x1 SLOAD DUP2 MSTORE PUSH1 0x20 ADD SWAP1 DUP2 MSTORE PUSH1 0x20 ADD PUSH0 KECCAK256 PUSH1 0x7 ADD PUSH0 PUSH20 0x5555555555555555555555555555555555555555 PUSH20 0xFFFFFFFFFFFFFFFFFFFFFFFFFFFFFFFFFFFFFFFF AND PUSH20 0xFFFFFFFFFFFFFFFFFFFFFFFFFFFFFFFFFFFFFFFF AND DUP2 MSTORE PUSH1 0x20 ADD SWAP1 DUP2 MSTORE PUSH1 0x20 ADD PUSH0 KECCAK256 PUSH0 PUSH2 0x100 EXP DUP2 SLOAD DUP2 PUSH1 0xFF MUL NOT AND SWAP1 DUP4 ISZERO ISZERO MUL OR SWAP1 SSTORE POP PUSH0 PUSH1 0x2 PUSH0 PUSH1 0x1 SLOAD DUP2 MSTORE PUSH1 0x20 ADD SWAP1 DUP2 MSTORE PUSH1 0x20 ADD PUSH0 KECCAK256 PUSH0 PUSH1 0x1 DUP2 MSTORE PUSH1 0x20 ADD SWAP1 DUP2 MSTORE PUSH1 0x20 ADD PUSH0 KECCAK256 SWAP1 POP PUSH20 0x6666666666666666666666666666666666666666 DUP2 PUSH0 ADD PUSH0 PUSH2 0x100 EXP DUP2 SLOAD DUP2 PUSH20 0xFFFFFFFFFFFFFFFFFFFFFFFFFFFFFFFFFFFFFFFF MUL NOT AND SWAP1 DUP4 PUSH20 0xFFFFFFFFFFFFFFFFFFFFFFFFFFFFFFFFFFFFFFFF AND MUL OR SWAP1 SSTORE POP PUSH1 0x40 MLOAD DUP1 PUSH1 0xC0 ADD PUSH1 0x40 MSTORE DUP1 PUSH1 0x9E DUP2 MSTORE PUSH1 0x20 ADD PUSH3 0x4DFD PUSH1 0x9E SWAP2 CODECOPY DUP2 PUSH1 0x1 ADD SWAP1 DUP2 PUSH3 0x1A69 SWAP2 SWAP1 PUSH3 0x21AA JUMP JUMPDEST POP PUSH1 0x40 MLOAD DUP1 PUSH1 0x40 ADD PUSH1 0x40 MSTORE DUP1 PUSH1 0x7 DUP2 MSTORE PUSH1 0x20 ADD PUSH32 0x73747564656E7400000000000000000000000000000000000000000000000000 DUP2 MSTORE POP DUP2 PUSH1 0x2 ADD SWAP1 DUP2 PUSH3 0x1AB2 SWAP2 SWAP1 PUSH3 0x21AA JUMP JUMPDEST POP PUSH4 0x6821EC84 DUP2 PUSH1 0x3 ADD DUP2 SWAP1 SSTORE POP PUSH0 PUSH1 0x2 PUSH0 PUSH1 0x1 SLOAD DUP2 MSTORE PUSH1 0x20 ADD SWAP1 DUP2 MSTORE PUSH1 0x20 ADD PUSH0 KECCAK256 PUSH0 PUSH1 0x2 DUP2 MSTORE PUSH1 0x20 ADD SWAP1 DUP2 MSTORE PUSH1 0x20 ADD PUSH0 KECCAK256 SWAP1 POP PUSH20 0x7777777777777777777777777777777777777777 DUP2 PUSH0 ADD PUSH0 PUSH2 0x100 EXP DUP2 SLOAD DUP2 PUSH20 0xFFFFFFFFFFFFFFFFFFFFFFFFFFFFFFFFFFFFFFFF MUL NOT AND SWAP1 DUP4 PUSH20 0xFFFFFFFFFFFFFFFFFFFFFFFFFFFFFFFFFFFFFFFF AND MUL OR SWAP1 SSTORE POP PUSH1 0x40 MLOAD DUP1 PUSH1 0xC0 ADD PUSH1 0x40 MSTORE DUP1 PUSH1 0x95 DUP2 MSTORE PUSH1 0x20 ADD PUSH3 0x4C79 PUSH1 0x95 SWAP2 CODECOPY DUP2 PUSH1 0x1 ADD SWAP1 DUP2 PUSH3 0x1B67 SWAP2 SWAP1 PUSH3 0x21AA JUMP JUMPDEST POP PUSH1 0x40 MLOAD DUP1 PUSH1 0x40 ADD PUSH1 0x40 MSTORE DUP1 PUSH1 0x9 DUP2 MSTORE PUSH1 0x20 ADD PUSH32 0x70726F666573736F720000000000000000000000000000000000000000000000 DUP2 MSTORE POP DUP2 PUSH1 0x2 ADD SWAP1 DUP2 PUSH3 0x1BB0 SWAP2 SWAP1 PUSH3 0x21AA JUMP JUMPDEST POP PUSH4 0x6821ECE8 DUP2 PUSH1 0x3 ADD DUP2 SWAP1 SSTORE POP DUP3 PUSH0 ADD PUSH0 SWAP1 SLOAD SWAP1 PUSH2 0x100 EXP SWAP1 DIV PUSH20 0xFFFFFFFFFFFFFFFFFFFFFFFFFFFFFFFFFFFFFFFF AND PUSH20 0xFFFFFFFFFFFFFFFFFFFFFFFFFFFFFFFFFFFFFFFF AND PUSH1 0x1 SLOAD PUSH32 0x5475621B07408F75D49C828CAA5AEACB3A5E98D3497E75730DC184677504401C DUP6 PUSH1 0x2 ADD DUP7 PUSH1 0x1 ADD PUSH1 0x40 MLOAD PUSH3 0x1C33 SWAP3 SWAP2 SWAP1 PUSH3 0x232B JUMP JUMPDEST PUSH1 0x40 MLOAD DUP1 SWAP2 SUB SWAP1 LOG3 PUSH20 0x2222222222222222222222222222222222222222 PUSH20 0xFFFFFFFFFFFFFFFFFFFFFFFFFFFFFFFFFFFFFFFF AND PUSH1 0x1 SLOAD PUSH32 0xEDC96EF82A3FD8EA664DD4FE50F94C77BE3C3D6130792C3ED8B0199E3C28EC62 PUSH1 0x40 MLOAD PUSH1 0x40 MLOAD DUP1 SWAP2 SUB SWAP1 LOG3 PUSH20 0x2222222222222222222222222222222222222222 PUSH20 0xFFFFFFFFFFFFFFFFFFFFFFFFFFFFFFFFFFFFFFFF AND PUSH1 0x1 SLOAD PUSH32 0xE71FCDAC32DF1877C1700E7BDA2A03157E20993363A28FC35AC495CEFC76E4D4 PUSH1 0x1 PUSH1 0x40 MLOAD PUSH3 0x1CF5 SWAP2 SWAP1 PUSH3 0x23F9 JUMP JUMPDEST PUSH1 0x40 MLOAD DUP1 SWAP2 SUB SWAP1 LOG3 PUSH20 0x3333333333333333333333333333333333333333 PUSH20 0xFFFFFFFFFFFFFFFFFFFFFFFFFFFFFFFFFFFFFFFF AND PUSH1 0x1 SLOAD PUSH32 0xE71FCDAC32DF1877C1700E7BDA2A03157E20993363A28FC35AC495CEFC76E4D4 PUSH0 PUSH1 0x40 MLOAD PUSH3 0x1D5C SWAP2 SWAP1 PUSH3 0x23F9 JUMP JUMPDEST PUSH1 0x40 MLOAD DUP1 SWAP2 SUB SWAP1 LOG3 PUSH20 0x4444444444444444444444444444444444444444 PUSH20 0xFFFFFFFFFFFFFFFFFFFFFFFFFFFFFFFFFFFFFFFF AND PUSH1 0x1 SLOAD PUSH32 0xE71FCDAC32DF1877C1700E7BDA2A03157E20993363A28FC35AC495CEFC76E4D4 PUSH1 0x1 PUSH1 0x40 MLOAD PUSH3 0x1DC4 SWAP2 SWAP1 PUSH3 0x23F9 JUMP JUMPDEST PUSH1 0x40 MLOAD DUP1 SWAP2 SUB SWAP1 LOG3 PUSH20 0x5555555555555555555555555555555555555555 PUSH20 0xFFFFFFFFFFFFFFFFFFFFFFFFFFFFFFFFFFFFFFFF AND PUSH1 0x1 SLOAD PUSH32 0xE71FCDAC32DF1877C1700E7BDA2A03157E20993363A28FC35AC495CEFC76E4D4 PUSH0 PUSH1 0x40 MLOAD PUSH3 0x1E2B SWAP2 SWAP1 PUSH3 0x23F9 JUMP JUMPDEST PUSH1 0x40 MLOAD DUP1 SWAP2 SUB SWAP1 LOG3 DUP2 PUSH0 ADD PUSH0 SWAP1 SLOAD SWAP1 PUSH2 0x100 EXP SWAP1 DIV PUSH20 0xFFFFFFFFFFFFFFFFFFFFFFFFFFFFFFFFFFFFFFFF AND PUSH20 0xFFFFFFFFFFFFFFFFFFFFFFFFFFFFFFFFFFFFFFFF AND PUSH1 0x1 DUP1 SLOAD PUSH32 0x3A56E2377ACF256C15A50F0B97834FA29A151D0B8A6D05C450576E40634FADC DUP6 PUSH1 0x1 ADD DUP7 PUSH1 0x2 ADD PUSH1 0x40 MLOAD PUSH3 0x1EA9 SWAP3 SWAP2 SWAP1 PUSH3 0x232B JUMP JUMPDEST PUSH1 0x40 MLOAD DUP1 SWAP2 SUB SWAP1 LOG4 DUP1 PUSH0 ADD PUSH0 SWAP1 SLOAD SWAP1 PUSH2 0x100 EXP SWAP1 DIV PUSH20 0xFFFFFFFFFFFFFFFFFFFFFFFFFFFFFFFFFFFFFFFF AND PUSH20 0xFFFFFFFFFFFFFFFFFFFFFFFFFFFFFFFFFFFFFFFF AND PUSH1 0x2 PUSH1 0x1 SLOAD PUSH32 0x3A56E2377ACF256C15A50F0B97834FA29A151D0B8A6D05C450576E40634FADC DUP5 PUSH1 0x1 ADD DUP6 PUSH1 0x2 ADD PUSH1 0x40 MLOAD PUSH3 0x1F28 SWAP3 SWAP2 SWAP1 PUSH3 0x232B JUMP JUMPDEST PUSH1 0x40 MLOAD DUP1 SWAP2 SUB SWAP1 LOG4 POP POP POP POP POP POP POP POP POP POP POP POP POP POP POP POP PUSH3 0x2414 JUMP JUMPDEST PUSH0 DUP2 MLOAD SWAP1 POP SWAP2 SWAP1 POP JUMP JUMPDEST PUSH32 0x4E487B7100000000000000000000000000000000000000000000000000000000 PUSH0 MSTORE PUSH1 0x41 PUSH1 0x4 MSTORE PUSH1 0x24 PUSH0 REVERT JUMPDEST PUSH32 0x4E487B7100000000000000000000000000000000000000000000000000000000 PUSH0 MSTORE PUSH1 0x22 PUSH1 0x4 MSTORE PUSH1 0x24 PUSH0 REVERT JUMPDEST PUSH0 PUSH1 0x2 DUP3 DIV SWAP1 POP PUSH1 0x1 DUP3 AND DUP1 PUSH3 0x1FC2 JUMPI PUSH1 0x7F DUP3 AND SWAP2 POP JUMPDEST PUSH1 0x20 DUP3 LT DUP2 SUB PUSH3 0x1FD8 JUMPI PUSH3 0x1FD7 PUSH3 0x1F7D JUMP JUMPDEST JUMPDEST POP SWAP2 SWAP1 POP JUMP JUMPDEST PUSH0 DUP2 SWAP1 POP DUP2 PUSH0 MSTORE PUSH1 0x20 PUSH0 KECCAK256 SWAP1 POP SWAP2 SWAP1 POP JUMP JUMPDEST PUSH0 PUSH1 0x20 PUSH1 0x1F DUP4 ADD DIV SWAP1 POP SWAP2 SWAP1 POP JUMP JUMPDEST PUSH0 DUP3 DUP3 SHL SWAP1 POP SWAP3 SWAP2 POP POP JUMP JUMPDEST PUSH0 PUSH1 0x8 DUP4 MUL PUSH3 0x203C PUSH32 0xFFFFFFFFFFFFFFFFFFFFFFFFFFFFFFFFFFFFFFFFFFFFFFFFFFFFFFFFFFFFFFFF DUP3 PUSH3 0x1FFF JUMP JUMPDEST PUSH3 0x2048 DUP7 DUP4 PUSH3 0x1FFF JUMP JUMPDEST SWAP6 POP DUP1 NOT DUP5 AND SWAP4 POP DUP1 DUP7 AND DUP5 OR SWAP3 POP POP POP SWAP4 SWAP3 POP POP POP JUMP JUMPDEST PUSH0 DUP2 SWAP1 POP SWAP2 SWAP1 POP JUMP JUMPDEST PUSH0 DUP2 SWAP1 POP SWAP2 SWAP1 POP JUMP JUMPDEST PUSH0 PUSH3 0x2092 PUSH3 0x208C PUSH3 0x2086 DUP5 PUSH3 0x2060 JUMP JUMPDEST PUSH3 0x2069 JUMP JUMPDEST PUSH3 0x2060 JUMP JUMPDEST SWAP1 POP SWAP2 SWAP1 POP JUMP JUMPDEST PUSH0 DUP2 SWAP1 POP SWAP2 SWAP1 POP JUMP JUMPDEST PUSH3 0x20AD DUP4 PUSH3 0x2072 JUMP JUMPDEST PUSH3 0x20C5 PUSH3 0x20BC DUP3 PUSH3 0x2099 JUMP JUMPDEST DUP5 DUP5 SLOAD PUSH3 0x200B JUMP JUMPDEST DUP3 SSTORE POP POP POP POP JUMP JUMPDEST PUSH0 SWAP1 JUMP JUMPDEST PUSH3 0x20DB PUSH3 0x20CD JUMP JUMPDEST PUSH3 0x20E8 DUP2 DUP5 DUP5 PUSH3 0x20A2 JUMP JUMPDEST POP POP POP JUMP JUMPDEST JUMPDEST DUP2 DUP2 LT ISZERO PUSH3 0x210F JUMPI PUSH3 0x2103 PUSH0 DUP3 PUSH3 0x20D1 JUMP JUMPDEST PUSH1 0x1 DUP2 ADD SWAP1 POP PUSH3 0x20EE JUMP JUMPDEST POP POP JUMP JUMPDEST PUSH1 0x1F DUP3 GT ISZERO PUSH3 0x215E JUMPI PUSH3 0x2128 DUP2 PUSH3 0x1FDE JUMP JUMPDEST PUSH3 0x2133 DUP5 PUSH3 0x1FF0 JUMP JUMPDEST DUP2 ADD PUSH1 0x20 DUP6 LT ISZERO PUSH3 0x2143 JUMPI DUP2 SWAP1 POP JUMPDEST PUSH3 0x215B PUSH3 0x2152 DUP6 PUSH3 0x1FF0 JUMP JUMPDEST DUP4 ADD DUP3 PUSH3 0x20ED JUMP JUMPDEST POP POP JUMPDEST POP POP POP JUMP JUMPDEST PUSH0 DUP3 DUP3 SHR SWAP1 POP SWAP3 SWAP2 POP POP JUMP JUMPDEST PUSH0 PUSH3 0x2180 PUSH0 NOT DUP5 PUSH1 0x8 MUL PUSH3 0x2163 JUMP JUMPDEST NOT DUP1 DUP4 AND SWAP2 POP POP SWAP3 SWAP2 POP POP JUMP JUMPDEST PUSH0 PUSH3 0x219A DUP4 DUP4 PUSH3 0x216F JUMP JUMPDEST SWAP2 POP DUP3 PUSH1 0x2 MUL DUP3 OR SWAP1 POP SWAP3 SWAP2 POP POP JUMP JUMPDEST PUSH3 0x21B5 DUP3 PUSH3 0x1F46 JUMP JUMPDEST PUSH8 0xFFFFFFFFFFFFFFFF DUP2 GT ISZERO PUSH3 0x21D1 JUMPI PUSH3 0x21D0 PUSH3 0x1F50 JUMP JUMPDEST JUMPDEST PUSH3 0x21DD DUP3 SLOAD PUSH3 0x1FAA JUMP JUMPDEST PUSH3 0x21EA DUP3 DUP3 DUP6 PUSH3 0x2113 JUMP JUMPDEST PUSH0 PUSH1 0x20 SWAP1 POP PUSH1 0x1F DUP4 GT PUSH1 0x1 DUP2 EQ PUSH3 0x2220 JUMPI PUSH0 DUP5 ISZERO PUSH3 0x220B JUMPI DUP3 DUP8 ADD MLOAD SWAP1 POP JUMPDEST PUSH3 0x2217 DUP6 DUP3 PUSH3 0x218D JUMP JUMPDEST DUP7 SSTORE POP PUSH3 0x2286 JUMP JUMPDEST PUSH1 0x1F NOT DUP5 AND PUSH3 0x2230 DUP7 PUSH3 0x1FDE JUMP JUMPDEST PUSH0 JUMPDEST DUP3 DUP2 LT ISZERO PUSH3 0x2259 JUMPI DUP5 DUP10 ADD MLOAD DUP3 SSTORE PUSH1 0x1 DUP3 ADD SWAP2 POP PUSH1 0x20 DUP6 ADD SWAP5 POP PUSH1 0x20 DUP2 ADD SWAP1 POP PUSH3 0x2232 JUMP JUMPDEST DUP7 DUP4 LT ISZERO PUSH3 0x2279 JUMPI DUP5 DUP10 ADD MLOAD PUSH3 0x2275 PUSH1 0x1F DUP10 AND DUP3 PUSH3 0x216F JUMP JUMPDEST DUP4 SSTORE POP JUMPDEST PUSH1 0x1 PUSH1 0x2 DUP9 MUL ADD DUP9 SSTORE POP POP POP JUMPDEST POP POP POP POP POP POP JUMP JUMPDEST PUSH0 DUP3 DUP3 MSTORE PUSH1 0x20 DUP3 ADD SWAP1 POP SWAP3 SWAP2 POP POP JUMP JUMPDEST PUSH0 DUP2 SLOAD PUSH3 0x22AC DUP2 PUSH3 0x1FAA JUMP JUMPDEST PUSH3 0x22B8 DUP2 DUP7 PUSH3 0x228E JUMP JUMPDEST SWAP5 POP PUSH1 0x1 DUP3 AND PUSH0 DUP2 EQ PUSH3 0x22D5 JUMPI PUSH1 0x1 DUP2 EQ PUSH3 0x22EC JUMPI PUSH3 0x2322 JUMP JUMPDEST PUSH1 0xFF NOT DUP4 AND DUP7 MSTORE DUP2 ISZERO ISZERO PUSH1 0x20 MUL DUP7 ADD SWAP4 POP PUSH3 0x2322 JUMP JUMPDEST PUSH3 0x22F7 DUP6 PUSH3 0x1FDE JUMP JUMPDEST PUSH0 JUMPDEST DUP4 DUP2 LT ISZERO PUSH3 0x231A JUMPI DUP2 SLOAD DUP2 DUP10 ADD MSTORE PUSH1 0x1 DUP3 ADD SWAP2 POP PUSH1 0x20 DUP2 ADD SWAP1 POP PUSH3 0x22F9 JUMP JUMPDEST DUP1 DUP9 ADD SWAP6 POP POP POP JUMPDEST POP POP POP SWAP3 SWAP2 POP POP JUMP JUMPDEST PUSH0 PUSH1 0x40 DUP3 ADD SWAP1 POP DUP2 DUP2 SUB PUSH0 DUP4 ADD MSTORE PUSH3 0x2345 DUP2 DUP6 PUSH3 0x229E JUMP JUMPDEST SWAP1 POP DUP2 DUP2 SUB PUSH1 0x20 DUP4 ADD MSTORE PUSH3 0x235B DUP2 DUP5 PUSH3 0x229E JUMP JUMPDEST SWAP1 POP SWAP4 SWAP3 POP POP POP JUMP JUMPDEST PUSH32 0x4E487B7100000000000000000000000000000000000000000000000000000000 PUSH0 MSTORE PUSH1 0x11 PUSH1 0x4 MSTORE PUSH1 0x24 PUSH0 REVERT JUMPDEST PUSH0 PUSH3 0x239D DUP3 PUSH3 0x2060 JUMP JUMPDEST SWAP2 POP PUSH32 0xFFFFFFFFFFFFFFFFFFFFFFFFFFFFFFFFFFFFFFFFFFFFFFFFFFFFFFFFFFFFFFFF DUP3 SUB PUSH3 0x23D2 JUMPI PUSH3 0x23D1 PUSH3 0x2364 JUMP JUMPDEST JUMPDEST PUSH1 0x1 DUP3 ADD SWAP1 POP SWAP2 SWAP1 POP JUMP JUMPDEST PUSH0 DUP2 ISZERO ISZERO SWAP1 POP SWAP2 SWAP1 POP JUMP JUMPDEST PUSH3 0x23F3 DUP2 PUSH3 0x23DD JUMP JUMPDEST DUP3 MSTORE POP POP JUMP JUMPDEST PUSH0 PUSH1 0x20 DUP3 ADD SWAP1 POP PUSH3 0x240E PUSH0 DUP4 ADD DUP5 PUSH3 0x23E8 JUMP JUMPDEST SWAP3 SWAP2 POP POP JUMP JUMPDEST PUSH2 0x2585 DUP1 PUSH3 0x2422 PUSH0 CODECOPY PUSH0 RETURN INVALID PUSH1 0x80 PUSH1 0x40 MSTORE CALLVALUE DUP1 ISZERO PUSH2 0xF JUMPI PUSH0 DUP1 REVERT JUMPDEST POP PUSH1 0x4 CALLDATASIZE LT PUSH2 0xA7 JUMPI PUSH0 CALLDATALOAD PUSH1 0xE0 SHR DUP1 PUSH4 0x392338F5 GT PUSH2 0x6F JUMPI DUP1 PUSH4 0x392338F5 EQ PUSH2 0x180 JUMPI DUP1 PUSH4 0x40731C24 EQ PUSH2 0x19C JUMPI DUP1 PUSH4 0x43859632 EQ PUSH2 0x1D3 JUMPI DUP1 PUSH4 0x48892753 EQ PUSH2 0x203 JUMPI DUP1 PUSH4 0x6305DD23 EQ PUSH2 0x236 JUMPI DUP1 PUSH4 0xFC6C776F EQ PUSH2 0x252 JUMPI PUSH2 0xA7 JUMP JUMPDEST DUP1 PUSH4 0xB1E7F83 EQ PUSH2 0xAB JUMPI DUP1 PUSH4 0xD4BFB4F EQ PUSH2 0xE2 JUMPI DUP1 PUSH4 0x1521E616 EQ PUSH2 0x112 JUMPI DUP1 PUSH4 0x17906C2E EQ PUSH2 0x12E JUMPI DUP1 PUSH4 0x25CFB1C5 EQ PUSH2 0x14C JUMPI JUMPDEST PUSH0 DUP1 REVERT JUMPDEST PUSH2 0xC5 PUSH1 0x4 DUP1 CALLDATASIZE SUB DUP2 ADD SWAP1 PUSH2 0xC0 SWAP2 SWAP1 PUSH2 0x164A JUMP JUMPDEST PUSH2 0x285 JUMP JUMPDEST PUSH1 0x40 MLOAD PUSH2 0xD9 SWAP9 SWAP8 SWAP7 SWAP6 SWAP5 SWAP4 SWAP3 SWAP2 SWAP1 PUSH2 0x1767 JUMP JUMPDEST PUSH1 0x40 MLOAD DUP1 SWAP2 SUB SWAP1 RETURN JUMPDEST PUSH2 0xFC PUSH1 0x4 DUP1 CALLDATASIZE SUB DUP2 ADD SWAP1 PUSH2 0xF7 SWAP2 SWAP1 PUSH2 0x164A JUMP JUMPDEST PUSH2 0x3FF JUMP JUMPDEST PUSH1 0x40 MLOAD PUSH2 0x109 SWAP2 SWAP1 PUSH2 0x17F1 JUMP JUMPDEST PUSH1 0x40 MLOAD DUP1 SWAP2 SUB SWAP1 RETURN JUMPDEST PUSH2 0x12C PUSH1 0x4 DUP1 CALLDATASIZE SUB DUP2 ADD SWAP1 PUSH2 0x127 SWAP2 SWAP1 PUSH2 0x1936 JUMP JUMPDEST PUSH2 0x46B JUMP JUMPDEST STOP JUMPDEST PUSH2 0x136 PUSH2 0x61C JUMP JUMPDEST PUSH1 0x40 MLOAD PUSH2 0x143 SWAP2 SWAP1 PUSH2 0x17F1 JUMP JUMPDEST PUSH1 0x40 MLOAD DUP1 SWAP2 SUB SWAP1 RETURN JUMPDEST PUSH2 0x166 PUSH1 0x4 DUP1 CALLDATASIZE SUB DUP2 ADD SWAP1 PUSH2 0x161 SWAP2 SWAP1 PUSH2 0x19BE JUMP JUMPDEST PUSH2 0x622 JUMP JUMPDEST PUSH1 0x40 MLOAD PUSH2 0x177 SWAP6 SWAP5 SWAP4 SWAP3 SWAP2 SWAP1 PUSH2 0x1C7F JUMP JUMPDEST PUSH1 0x40 MLOAD DUP1 SWAP2 SUB SWAP1 RETURN JUMPDEST PUSH2 0x19A PUSH1 0x4 DUP1 CALLDATASIZE SUB DUP2 ADD SWAP1 PUSH2 0x195 SWAP2 SWAP1 PUSH2 0x1CEC JUMP JUMPDEST PUSH2 0xBCF JUMP JUMPDEST STOP JUMPDEST PUSH2 0x1B6 PUSH1 0x4 DUP1 CALLDATASIZE SUB DUP2 ADD SWAP1 PUSH2 0x1B1 SWAP2 SWAP1 PUSH2 0x164A JUMP JUMPDEST PUSH2 0xCF7 JUMP JUMPDEST PUSH1 0x40 MLOAD PUSH2 0x1CA SWAP9 SWAP8 SWAP7 SWAP6 SWAP5 SWAP4 SWAP3 SWAP2 SWAP1 PUSH2 0x1767 JUMP JUMPDEST PUSH1 0x40 MLOAD DUP1 SWAP2 SUB SWAP1 RETURN JUMPDEST PUSH2 0x1ED PUSH1 0x4 DUP1 CALLDATASIZE SUB DUP2 ADD SWAP1 PUSH2 0x1E8 SWAP2 SWAP1 PUSH2 0x1D8C JUMP JUMPDEST PUSH2 0xEE3 JUMP JUMPDEST PUSH1 0x40 MLOAD PUSH2 0x1FA SWAP2 SWAP1 PUSH2 0x1DCA JUMP JUMPDEST PUSH1 0x40 MLOAD DUP1 SWAP2 SUB SWAP1 RETURN JUMPDEST PUSH2 0x21D PUSH1 0x4 DUP1 CALLDATASIZE SUB DUP2 ADD SWAP1 PUSH2 0x218 SWAP2 SWAP1 PUSH2 0x1DE3 JUMP JUMPDEST PUSH2 0xF97 JUMP JUMPDEST PUSH1 0x40 MLOAD PUSH2 0x22D SWAP5 SWAP4 SWAP3 SWAP2 SWAP1 PUSH2 0x1E21 JUMP JUMPDEST PUSH1 0x40 MLOAD DUP1 SWAP2 SUB SWAP1 RETURN JUMPDEST PUSH2 0x250 PUSH1 0x4 DUP1 CALLDATASIZE SUB DUP2 ADD SWAP1 PUSH2 0x24B SWAP2 SWAP1 PUSH2 0x1E9C JUMP JUMPDEST PUSH2 0x11C6 JUMP JUMPDEST STOP JUMPDEST PUSH2 0x26C PUSH1 0x4 DUP1 CALLDATASIZE SUB DUP2 ADD SWAP1 PUSH2 0x267 SWAP2 SWAP1 PUSH2 0x1DE3 JUMP JUMPDEST PUSH2 0x14A4 JUMP JUMPDEST PUSH1 0x40 MLOAD PUSH2 0x27C SWAP5 SWAP4 SWAP3 SWAP2 SWAP1 PUSH2 0x1E21 JUMP JUMPDEST PUSH1 0x40 MLOAD DUP1 SWAP2 SUB SWAP1 RETURN JUMPDEST PUSH0 PUSH1 0x20 MSTORE DUP1 PUSH0 MSTORE PUSH1 0x40 PUSH0 KECCAK256 PUSH0 SWAP2 POP SWAP1 POP DUP1 PUSH0 ADD PUSH0 SWAP1 SLOAD SWAP1 PUSH2 0x100 EXP SWAP1 DIV PUSH20 0xFFFFFFFFFFFFFFFFFFFFFFFFFFFFFFFFFFFFFFFF AND SWAP1 DUP1 PUSH1 0x1 ADD DUP1 SLOAD PUSH2 0x2C8 SWAP1 PUSH2 0x1F07 JUMP JUMPDEST DUP1 PUSH1 0x1F ADD PUSH1 0x20 DUP1 SWAP2 DIV MUL PUSH1 0x20 ADD PUSH1 0x40 MLOAD SWAP1 DUP2 ADD PUSH1 0x40 MSTORE DUP1 SWAP3 SWAP2 SWAP1 DUP2 DUP2 MSTORE PUSH1 0x20 ADD DUP3 DUP1 SLOAD PUSH2 0x2F4 SWAP1 PUSH2 0x1F07 JUMP JUMPDEST DUP1 ISZERO PUSH2 0x33F JUMPI DUP1 PUSH1 0x1F LT PUSH2 0x316 JUMPI PUSH2 0x100 DUP1 DUP4 SLOAD DIV MUL DUP4 MSTORE SWAP2 PUSH1 0x20 ADD SWAP2 PUSH2 0x33F JUMP JUMPDEST DUP3 ADD SWAP2 SWAP1 PUSH0 MSTORE PUSH1 0x20 PUSH0 KECCAK256 SWAP1 JUMPDEST DUP2 SLOAD DUP2 MSTORE SWAP1 PUSH1 0x1 ADD SWAP1 PUSH1 0x20 ADD DUP1 DUP4 GT PUSH2 0x322 JUMPI DUP3 SWAP1 SUB PUSH1 0x1F AND DUP3 ADD SWAP2 JUMPDEST POP POP POP POP POP SWAP1 DUP1 PUSH1 0x2 ADD DUP1 SLOAD PUSH2 0x354 SWAP1 PUSH2 0x1F07 JUMP JUMPDEST DUP1 PUSH1 0x1F ADD PUSH1 0x20 DUP1 SWAP2 DIV MUL PUSH1 0x20 ADD PUSH1 0x40 MLOAD SWAP1 DUP2 ADD PUSH1 0x40 MSTORE DUP1 SWAP3 SWAP2 SWAP1 DUP2 DUP2 MSTORE PUSH1 0x20 ADD DUP3 DUP1 SLOAD PUSH2 0x380 SWAP1 PUSH2 0x1F07 JUMP JUMPDEST DUP1 ISZERO PUSH2 0x3CB JUMPI DUP1 PUSH1 0x1F LT PUSH2 0x3A2 JUMPI PUSH2 0x100 DUP1 DUP4 SLOAD DIV MUL DUP4 MSTORE SWAP2 PUSH1 0x20 ADD SWAP2 PUSH2 0x3CB JUMP JUMPDEST DUP3 ADD SWAP2 SWAP1 PUSH0 MSTORE PUSH1 0x20 PUSH0 KECCAK256 SWAP1 JUMPDEST DUP2 SLOAD DUP2 MSTORE SWAP1 PUSH1 0x1 ADD SWAP1 PUSH1 0x20 ADD DUP1 DUP4 GT PUSH2 0x3AE JUMPI DUP3 SWAP1 SUB PUSH1 0x1F AND DUP3 ADD SWAP2 JUMPDEST POP POP POP POP POP SWAP1 DUP1 PUSH1 0x3 ADD SLOAD SWAP1 DUP1 PUSH1 0x4 ADD PUSH0 SWAP1 SLOAD SWAP1 PUSH2 0x100 EXP SWAP1 DIV PUSH1 0xFF AND SWAP1 DUP1 PUSH1 0x5 ADD SLOAD SWAP1 DUP1 PUSH1 0x6 ADD SLOAD SWAP1 DUP1 PUSH1 0x8 ADD SLOAD SWAP1 POP DUP9 JUMP JUMPDEST PUSH0 DUP1 DUP3 GT DUP1 ISZERO PUSH2 0x411 JUMPI POP PUSH1 0x1 SLOAD DUP3 GT ISZERO JUMPDEST PUSH2 0x450 JUMPI PUSH1 0x40 MLOAD PUSH32 0x8C379A000000000000000000000000000000000000000000000000000000000 DUP2 MSTORE PUSH1 0x4 ADD PUSH2 0x447 SWAP1 PUSH2 0x1F81 JUMP JUMPDEST PUSH1 0x40 MLOAD DUP1 SWAP2 SUB SWAP1 REVERT JUMPDEST PUSH0 DUP1 DUP4 DUP2 MSTORE PUSH1 0x20 ADD SWAP1 DUP2 MSTORE PUSH1 0x20 ADD PUSH0 KECCAK256 PUSH1 0x8 ADD SLOAD SWAP1 POP SWAP2 SWAP1 POP JUMP JUMPDEST PUSH0 DUP4 GT DUP1 ISZERO PUSH2 0x47C JUMPI POP PUSH1 0x1 SLOAD DUP4 GT ISZERO JUMPDEST PUSH2 0x4BB JUMPI PUSH1 0x40 MLOAD PUSH32 0x8C379A000000000000000000000000000000000000000000000000000000000 DUP2 MSTORE PUSH1 0x4 ADD PUSH2 0x4B2 SWAP1 PUSH2 0x1F81 JUMP JUMPDEST PUSH1 0x40 MLOAD DUP1 SWAP2 SUB SWAP1 REVERT JUMPDEST PUSH0 DUP3 MLOAD GT PUSH2 0x4FE JUMPI PUSH1 0x40 MLOAD PUSH32 0x8C379A000000000000000000000000000000000000000000000000000000000 DUP2 MSTORE PUSH1 0x4 ADD PUSH2 0x4F5 SWAP1 PUSH2 0x1FE9 JUMP JUMPDEST PUSH1 0x40 MLOAD DUP1 SWAP2 SUB SWAP1 REVERT JUMPDEST PUSH0 DUP1 PUSH0 DUP6 DUP2 MSTORE PUSH1 0x20 ADD SWAP1 DUP2 MSTORE PUSH1 0x20 ADD PUSH0 KECCAK256 SWAP1 POP DUP1 PUSH1 0x8 ADD PUSH0 DUP2 SLOAD DUP1 SWAP3 SWAP2 SWAP1 PUSH2 0x525 SWAP1 PUSH2 0x2034 JUMP JUMPDEST SWAP2 SWAP1 POP SSTORE POP PUSH0 PUSH1 0x2 PUSH0 DUP7 DUP2 MSTORE PUSH1 0x20 ADD SWAP1 DUP2 MSTORE PUSH1 0x20 ADD PUSH0 KECCAK256 PUSH0 DUP4 PUSH1 0x8 ADD SLOAD DUP2 MSTORE PUSH1 0x20 ADD SWAP1 DUP2 MSTORE PUSH1 0x20 ADD PUSH0 KECCAK256 SWAP1 POP CALLER DUP2 PUSH0 ADD PUSH0 PUSH2 0x100 EXP DUP2 SLOAD DUP2 PUSH20 0xFFFFFFFFFFFFFFFFFFFFFFFFFFFFFFFFFFFFFFFF MUL NOT AND SWAP1 DUP4 PUSH20 0xFFFFFFFFFFFFFFFFFFFFFFFFFFFFFFFFFFFFFFFF AND MUL OR SWAP1 SSTORE POP DUP4 DUP2 PUSH1 0x1 ADD SWAP1 DUP2 PUSH2 0x5A3 SWAP2 SWAP1 PUSH2 0x2218 JUMP JUMPDEST POP DUP3 DUP2 PUSH1 0x2 ADD SWAP1 DUP2 PUSH2 0x5B5 SWAP2 SWAP1 PUSH2 0x2218 JUMP JUMPDEST POP TIMESTAMP DUP2 PUSH1 0x3 ADD DUP2 SWAP1 SSTORE POP CALLER PUSH20 0xFFFFFFFFFFFFFFFFFFFFFFFFFFFFFFFFFFFFFFFF AND DUP3 PUSH1 0x8 ADD SLOAD DUP7 PUSH32 0x3A56E2377ACF256C15A50F0B97834FA29A151D0B8A6D05C450576E40634FADC DUP8 DUP8 PUSH1 0x40 MLOAD PUSH2 0x60D SWAP3 SWAP2 SWAP1 PUSH2 0x22E7 JUMP JUMPDEST PUSH1 0x40 MLOAD DUP1 SWAP2 SUB SWAP1 LOG4 POP POP POP POP POP JUMP JUMPDEST PUSH1 0x1 SLOAD DUP2 JUMP JUMPDEST PUSH1 0x60 DUP1 PUSH1 0x60 DUP1 PUSH0 DUP1 DUP9 GT DUP1 ISZERO PUSH2 0x63A JUMPI POP PUSH1 0x1 SLOAD DUP9 GT ISZERO JUMPDEST PUSH2 0x679 JUMPI PUSH1 0x40 MLOAD PUSH32 0x8C379A000000000000000000000000000000000000000000000000000000000 DUP2 MSTORE PUSH1 0x4 ADD PUSH2 0x670 SWAP1 PUSH2 0x1F81 JUMP JUMPDEST PUSH1 0x40 MLOAD DUP1 SWAP2 SUB SWAP1 REVERT JUMPDEST PUSH0 DUP8 GT PUSH2 0x6BB JUMPI PUSH1 0x40 MLOAD PUSH32 0x8C379A000000000000000000000000000000000000000000000000000000000 DUP2 MSTORE PUSH1 0x4 ADD PUSH2 0x6B2 SWAP1 PUSH2 0x2366 JUMP JUMPDEST PUSH1 0x40 MLOAD DUP1 SWAP2 SUB SWAP1 REVERT JUMPDEST PUSH0 DUP1 PUSH0 DUP11 DUP2 MSTORE PUSH1 0x20 ADD SWAP1 DUP2 MSTORE PUSH1 0x20 ADD PUSH0 KECCAK256 PUSH1 0x8 ADD SLOAD SWAP1 POP DUP1 SWAP2 POP DUP1 DUP9 GT ISZERO PUSH2 0x819 JUMPI PUSH0 PUSH8 0xFFFFFFFFFFFFFFFF DUP2 GT ISZERO PUSH2 0x6F7 JUMPI PUSH2 0x6F6 PUSH2 0x1812 JUMP JUMPDEST JUMPDEST PUSH1 0x40 MLOAD SWAP1 DUP1 DUP3 MSTORE DUP1 PUSH1 0x20 MUL PUSH1 0x20 ADD DUP3 ADD PUSH1 0x40 MSTORE DUP1 ISZERO PUSH2 0x725 JUMPI DUP2 PUSH1 0x20 ADD PUSH1 0x20 DUP3 MUL DUP1 CALLDATASIZE DUP4 CALLDATACOPY DUP1 DUP3 ADD SWAP2 POP POP SWAP1 POP JUMPDEST POP PUSH0 PUSH8 0xFFFFFFFFFFFFFFFF DUP2 GT ISZERO PUSH2 0x740 JUMPI PUSH2 0x73F PUSH2 0x1812 JUMP JUMPDEST JUMPDEST PUSH1 0x40 MLOAD SWAP1 DUP1 DUP3 MSTORE DUP1 PUSH1 0x20 MUL PUSH1 0x20 ADD DUP3 ADD PUSH1 0x40 MSTORE DUP1 ISZERO PUSH2 0x773 JUMPI DUP2 PUSH1 0x20 ADD JUMPDEST PUSH1 0x60 DUP2 MSTORE PUSH1 0x20 ADD SWAP1 PUSH1 0x1 SWAP1 SUB SWAP1 DUP2 PUSH2 0x75E JUMPI SWAP1 POP JUMPDEST POP PUSH0 PUSH8 0xFFFFFFFFFFFFFFFF DUP2 GT ISZERO PUSH2 0x78E JUMPI PUSH2 0x78D PUSH2 0x1812 JUMP JUMPDEST JUMPDEST PUSH1 0x40 MLOAD SWAP1 DUP1 DUP3 MSTORE DUP1 PUSH1 0x20 MUL PUSH1 0x20 ADD DUP3 ADD PUSH1 0x40 MSTORE DUP1 ISZERO PUSH2 0x7C1 JUMPI DUP2 PUSH1 0x20 ADD JUMPDEST PUSH1 0x60 DUP2 MSTORE PUSH1 0x20 ADD SWAP1 PUSH1 0x1 SWAP1 SUB SWAP1 DUP2 PUSH2 0x7AC JUMPI SWAP1 POP JUMPDEST POP PUSH0 PUSH8 0xFFFFFFFFFFFFFFFF DUP2 GT ISZERO PUSH2 0x7DC JUMPI PUSH2 0x7DB PUSH2 0x1812 JUMP JUMPDEST JUMPDEST PUSH1 0x40 MLOAD SWAP1 DUP1 DUP3 MSTORE DUP1 PUSH1 0x20 MUL PUSH1 0x20 ADD DUP3 ADD PUSH1 0x40 MSTORE DUP1 ISZERO PUSH2 0x80A JUMPI DUP2 PUSH1 0x20 ADD PUSH1 0x20 DUP3 MUL DUP1 CALLDATASIZE DUP4 CALLDATACOPY DUP1 DUP3 ADD SWAP2 POP POP SWAP1 POP JUMPDEST POP SWAP6 POP SWAP6 POP SWAP6 POP SWAP6 POP POP PUSH2 0xBC4 JUMP JUMPDEST PUSH0 DUP8 SWAP1 POP PUSH1 0x14 DUP2 GT ISZERO PUSH2 0x82B JUMPI PUSH1 0x14 SWAP1 POP JUMPDEST PUSH0 PUSH1 0x1 DUP11 DUP5 PUSH2 0x83A SWAP2 SWAP1 PUSH2 0x2384 JUMP JUMPDEST PUSH2 0x844 SWAP2 SWAP1 PUSH2 0x23B7 JUMP JUMPDEST SWAP1 POP DUP1 DUP3 GT ISZERO PUSH2 0x852 JUMPI DUP1 SWAP2 POP JUMPDEST DUP2 PUSH8 0xFFFFFFFFFFFFFFFF DUP2 GT ISZERO PUSH2 0x86C JUMPI PUSH2 0x86B PUSH2 0x1812 JUMP JUMPDEST JUMPDEST PUSH1 0x40 MLOAD SWAP1 DUP1 DUP3 MSTORE DUP1 PUSH1 0x20 MUL PUSH1 0x20 ADD DUP3 ADD PUSH1 0x40 MSTORE DUP1 ISZERO PUSH2 0x89A JUMPI DUP2 PUSH1 0x20 ADD PUSH1 0x20 DUP3 MUL DUP1 CALLDATASIZE DUP4 CALLDATACOPY DUP1 DUP3 ADD SWAP2 POP POP SWAP1 POP JUMPDEST POP SWAP8 POP DUP2 PUSH8 0xFFFFFFFFFFFFFFFF DUP2 GT ISZERO PUSH2 0x8B7 JUMPI PUSH2 0x8B6 PUSH2 0x1812 JUMP JUMPDEST JUMPDEST PUSH1 0x40 MLOAD SWAP1 DUP1 DUP3 MSTORE DUP1 PUSH1 0x20 MUL PUSH1 0x20 ADD DUP3 ADD PUSH1 0x40 MSTORE DUP1 ISZERO PUSH2 0x8EA JUMPI DUP2 PUSH1 0x20 ADD JUMPDEST PUSH1 0x60 DUP2 MSTORE PUSH1 0x20 ADD SWAP1 PUSH1 0x1 SWAP1 SUB SWAP1 DUP2 PUSH2 0x8D5 JUMPI SWAP1 POP JUMPDEST POP SWAP7 POP DUP2 PUSH8 0xFFFFFFFFFFFFFFFF DUP2 GT ISZERO PUSH2 0x907 JUMPI PUSH2 0x906 PUSH2 0x1812 JUMP JUMPDEST JUMPDEST PUSH1 0x40 MLOAD SWAP1 DUP1 DUP3 MSTORE DUP1 PUSH1 0x20 MUL PUSH1 0x20 ADD DUP3 ADD PUSH1 0x40 MSTORE DUP1 ISZERO PUSH2 0x93A JUMPI DUP2 PUSH1 0x20 ADD JUMPDEST PUSH1 0x60 DUP2 MSTORE PUSH1 0x20 ADD SWAP1 PUSH1 0x1 SWAP1 SUB SWAP1 DUP2 PUSH2 0x925 JUMPI SWAP1 POP JUMPDEST POP SWAP6 POP DUP2 PUSH8 0xFFFFFFFFFFFFFFFF DUP2 GT ISZERO PUSH2 0x957 JUMPI PUSH2 0x956 PUSH2 0x1812 JUMP JUMPDEST JUMPDEST PUSH1 0x40 MLOAD SWAP1 DUP1 DUP3 MSTORE DUP1 PUSH1 0x20 MUL PUSH1 0x20 ADD DUP3 ADD PUSH1 0x40 MSTORE DUP1 ISZERO PUSH2 0x985 JUMPI DUP2 PUSH1 0x20 ADD PUSH1 0x20 DUP3 MUL DUP1 CALLDATASIZE DUP4 CALLDATACOPY DUP1 DUP3 ADD SWAP2 POP POP SWAP1 POP JUMPDEST POP SWAP5 POP PUSH0 JUMPDEST DUP3 DUP2 LT ISZERO PUSH2 0xBBF JUMPI PUSH0 DUP2 DUP13 PUSH2 0x99F SWAP2 SWAP1 PUSH2 0x23B7 JUMP JUMPDEST SWAP1 POP PUSH0 PUSH1 0x2 PUSH0 DUP16 DUP2 MSTORE PUSH1 0x20 ADD SWAP1 DUP2 MSTORE PUSH1 0x20 ADD PUSH0 KECCAK256 PUSH0 DUP4 DUP2 MSTORE PUSH1 0x20 ADD SWAP1 DUP2 MSTORE PUSH1 0x20 ADD PUSH0 KECCAK256 SWAP1 POP DUP1 PUSH0 ADD PUSH0 SWAP1 SLOAD SWAP1 PUSH2 0x100 EXP SWAP1 DIV PUSH20 0xFFFFFFFFFFFFFFFFFFFFFFFFFFFFFFFFFFFFFFFF AND DUP12 DUP5 DUP2 MLOAD DUP2 LT PUSH2 0x9FA JUMPI PUSH2 0x9F9 PUSH2 0x23EA JUMP JUMPDEST JUMPDEST PUSH1 0x20 MUL PUSH1 0x20 ADD ADD SWAP1 PUSH20 0xFFFFFFFFFFFFFFFFFFFFFFFFFFFFFFFFFFFFFFFF AND SWAP1 DUP2 PUSH20 0xFFFFFFFFFFFFFFFFFFFFFFFFFFFFFFFFFFFFFFFF AND DUP2 MSTORE POP POP DUP1 PUSH1 0x1 ADD DUP1 SLOAD PUSH2 0xA43 SWAP1 PUSH2 0x1F07 JUMP JUMPDEST DUP1 PUSH1 0x1F ADD PUSH1 0x20 DUP1 SWAP2 DIV MUL PUSH1 0x20 ADD PUSH1 0x40 MLOAD SWAP1 DUP2 ADD PUSH1 0x40 MSTORE DUP1 SWAP3 SWAP2 SWAP1 DUP2 DUP2 MSTORE PUSH1 0x20 ADD DUP3 DUP1 SLOAD PUSH2 0xA6F SWAP1 PUSH2 0x1F07 JUMP JUMPDEST DUP1 ISZERO PUSH2 0xABA JUMPI DUP1 PUSH1 0x1F LT PUSH2 0xA91 JUMPI PUSH2 0x100 DUP1 DUP4 SLOAD DIV MUL DUP4 MSTORE SWAP2 PUSH1 0x20 ADD SWAP2 PUSH2 0xABA JUMP JUMPDEST DUP3 ADD SWAP2 SWAP1 PUSH0 MSTORE PUSH1 0x20 PUSH0 KECCAK256 SWAP1 JUMPDEST DUP2 SLOAD DUP2 MSTORE SWAP1 PUSH1 0x1 ADD SWAP1 PUSH1 0x20 ADD DUP1 DUP4 GT PUSH2 0xA9D JUMPI DUP3 SWAP1 SUB PUSH1 0x1F AND DUP3 ADD SWAP2 JUMPDEST POP POP POP POP POP DUP11 DUP5 DUP2 MLOAD DUP2 LT PUSH2 0xAD2 JUMPI PUSH2 0xAD1 PUSH2 0x23EA JUMP JUMPDEST JUMPDEST PUSH1 0x20 MUL PUSH1 0x20 ADD ADD DUP2 SWAP1 MSTORE POP DUP1 PUSH1 0x2 ADD DUP1 SLOAD PUSH2 0xAEC SWAP1 PUSH2 0x1F07 JUMP JUMPDEST DUP1 PUSH1 0x1F ADD PUSH1 0x20 DUP1 SWAP2 DIV MUL PUSH1 0x20 ADD PUSH1 0x40 MLOAD SWAP1 DUP2 ADD PUSH1 0x40 MSTORE DUP1 SWAP3 SWAP2 SWAP1 DUP2 DUP2 MSTORE PUSH1 0x20 ADD DUP3 DUP1 SLOAD PUSH2 0xB18 SWAP1 PUSH2 0x1F07 JUMP JUMPDEST DUP1 ISZERO PUSH2 0xB63 JUMPI DUP1 PUSH1 0x1F LT PUSH2 0xB3A JUMPI PUSH2 0x100 DUP1 DUP4 SLOAD DIV MUL DUP4 MSTORE SWAP2 PUSH1 0x20 ADD SWAP2 PUSH2 0xB63 JUMP JUMPDEST DUP3 ADD SWAP2 SWAP1 PUSH0 MSTORE PUSH1 0x20 PUSH0 KECCAK256 SWAP1 JUMPDEST DUP2 SLOAD DUP2 MSTORE SWAP1 PUSH1 0x1 ADD SWAP1 PUSH1 0x20 ADD DUP1 DUP4 GT PUSH2 0xB46 JUMPI DUP3 SWAP1 SUB PUSH1 0x1F AND DUP3 ADD SWAP2 JUMPDEST POP POP POP POP POP DUP10 DUP5 DUP2 MLOAD DUP2 LT PUSH2 0xB7B JUMPI PUSH2 0xB7A PUSH2 0x23EA JUMP JUMPDEST JUMPDEST PUSH1 0x20 MUL PUSH1 0x20 ADD ADD DUP2 SWAP1 MSTORE POP DUP1 PUSH1 0x3 ADD SLOAD DUP9 DUP5 DUP2 MLOAD DUP2 LT PUSH2 0xB9E JUMPI PUSH2 0xB9D PUSH2 0x23EA JUMP JUMPDEST JUMPDEST PUSH1 0x20 MUL PUSH1 0x20 ADD ADD DUP2 DUP2 MSTORE POP POP POP POP DUP1 DUP1 PUSH2 0xBB7 SWAP1 PUSH2 0x2034 JUMP JUMPDEST SWAP2 POP POP PUSH2 0x98A JUMP JUMPDEST POP POP POP POP JUMPDEST SWAP4 SWAP8 SWAP3 SWAP7 POP SWAP4 POP SWAP4 POP JUMP JUMPDEST PUSH1 0x1 PUSH0 DUP2 SLOAD DUP1 SWAP3 SWAP2 SWAP1 PUSH2 0xBE1 SWAP1 PUSH2 0x2034 JUMP JUMPDEST SWAP2 SWAP1 POP SSTORE POP PUSH0 DUP1 PUSH0 PUSH1 0x1 SLOAD DUP2 MSTORE PUSH1 0x20 ADD SWAP1 DUP2 MSTORE PUSH1 0x20 ADD PUSH0 KECCAK256 SWAP1 POP CALLER DUP2 PUSH0 ADD PUSH0 PUSH2 0x100 EXP DUP2 SLOAD DUP2 PUSH20 0xFFFFFFFFFFFFFFFFFFFFFFFFFFFFFFFFFFFFFFFF MUL NOT AND SWAP1 DUP4 PUSH20 0xFFFFFFFFFFFFFFFFFFFFFFFFFFFFFFFFFFFFFFFF AND MUL OR SWAP1 SSTORE POP DUP3 DUP2 PUSH1 0x1 ADD SWAP1 DUP2 PUSH2 0xC4D SWAP2 SWAP1 PUSH2 0x2218 JUMP JUMPDEST POP DUP2 DUP2 PUSH1 0x2 ADD SWAP1 DUP2 PUSH2 0xC5F SWAP2 SWAP1 PUSH2 0x2218 JUMP JUMPDEST POP TIMESTAMP DUP2 PUSH1 0x3 ADD DUP2 SWAP1 SSTORE POP PUSH0 DUP2 PUSH1 0x4 ADD PUSH0 PUSH2 0x100 EXP DUP2 SLOAD DUP2 PUSH1 0xFF MUL NOT AND SWAP1 DUP4 ISZERO ISZERO MUL OR SWAP1 SSTORE POP PUSH0 DUP2 PUSH1 0x5 ADD DUP2 SWAP1 SSTORE POP PUSH0 DUP2 PUSH1 0x6 ADD DUP2 SWAP1 SSTORE POP PUSH0 DUP2 PUSH1 0x8 ADD DUP2 SWAP1 SSTORE POP CALLER PUSH20 0xFFFFFFFFFFFFFFFFFFFFFFFFFFFFFFFFFFFFFFFF AND PUSH1 0x1 SLOAD PUSH32 0x5475621B07408F75D49C828CAA5AEACB3A5E98D3497E75730DC184677504401C DUP5 DUP7 PUSH1 0x40 MLOAD PUSH2 0xCEA SWAP3 SWAP2 SWAP1 PUSH2 0x22E7 JUMP JUMPDEST PUSH1 0x40 MLOAD DUP1 SWAP2 SUB SWAP1 LOG3 POP POP POP JUMP JUMPDEST PUSH0 PUSH1 0x60 DUP1 PUSH0 DUP1 PUSH0 DUP1 PUSH0 DUP1 DUP10 GT DUP1 ISZERO PUSH2 0xD11 JUMPI POP PUSH1 0x1 SLOAD DUP10 GT ISZERO JUMPDEST PUSH2 0xD50 JUMPI PUSH1 0x40 MLOAD PUSH32 0x8C379A000000000000000000000000000000000000000000000000000000000 DUP2 MSTORE PUSH1 0x4 ADD PUSH2 0xD47 SWAP1 PUSH2 0x1F81 JUMP JUMPDEST PUSH1 0x40 MLOAD DUP1 SWAP2 SUB SWAP1 REVERT JUMPDEST PUSH0 DUP1 PUSH0 DUP12 DUP2 MSTORE PUSH1 0x20 ADD SWAP1 DUP2 MSTORE PUSH1 0x20 ADD PUSH0 KECCAK256 SWAP1 POP DUP1 PUSH0 ADD PUSH0 SWAP1 SLOAD SWAP1 PUSH2 0x100 EXP SWAP1 DIV PUSH20 0xFFFFFFFFFFFFFFFFFFFFFFFFFFFFFFFFFFFFFFFF AND DUP2 PUSH1 0x1 ADD DUP3 PUSH1 0x2 ADD DUP4 PUSH1 0x3 ADD SLOAD DUP5 PUSH1 0x4 ADD PUSH0 SWAP1 SLOAD SWAP1 PUSH2 0x100 EXP SWAP1 DIV PUSH1 0xFF AND DUP6 PUSH1 0x5 ADD SLOAD DUP7 PUSH1 0x6 ADD SLOAD DUP8 PUSH1 0x8 ADD SLOAD DUP7 DUP1 SLOAD PUSH2 0xDBF SWAP1 PUSH2 0x1F07 JUMP JUMPDEST DUP1 PUSH1 0x1F ADD PUSH1 0x20 DUP1 SWAP2 DIV MUL PUSH1 0x20 ADD PUSH1 0x40 MLOAD SWAP1 DUP2 ADD PUSH1 0x40 MSTORE DUP1 SWAP3 SWAP2 SWAP1 DUP2 DUP2 MSTORE PUSH1 0x20 ADD DUP3 DUP1 SLOAD PUSH2 0xDEB SWAP1 PUSH2 0x1F07 JUMP JUMPDEST DUP1 ISZERO PUSH2 0xE36 JUMPI DUP1 PUSH1 0x1F LT PUSH2 0xE0D JUMPI PUSH2 0x100 DUP1 DUP4 SLOAD DIV MUL DUP4 MSTORE SWAP2 PUSH1 0x20 ADD SWAP2 PUSH2 0xE36 JUMP JUMPDEST DUP3 ADD SWAP2 SWAP1 PUSH0 MSTORE PUSH1 0x20 PUSH0 KECCAK256 SWAP1 JUMPDEST DUP2 SLOAD DUP2 MSTORE SWAP1 PUSH1 0x1 ADD SWAP1 PUSH1 0x20 ADD DUP1 DUP4 GT PUSH2 0xE19 JUMPI DUP3 SWAP1 SUB PUSH1 0x1F AND DUP3 ADD SWAP2 JUMPDEST POP POP POP POP POP SWAP7 POP DUP6 DUP1 SLOAD PUSH2 0xE49 SWAP1 PUSH2 0x1F07 JUMP JUMPDEST DUP1 PUSH1 0x1F ADD PUSH1 0x20 DUP1 SWAP2 DIV MUL PUSH1 0x20 ADD PUSH1 0x40 MLOAD SWAP1 DUP2 ADD PUSH1 0x40 MSTORE DUP1 SWAP3 SWAP2 SWAP1 DUP2 DUP2 MSTORE PUSH1 0x20 ADD DUP3 DUP1 SLOAD PUSH2 0xE75 SWAP1 PUSH2 0x1F07 JUMP JUMPDEST DUP1 ISZERO PUSH2 0xEC0 JUMPI DUP1 PUSH1 0x1F LT PUSH2 0xE97 JUMPI PUSH2 0x100 DUP1 DUP4 SLOAD DIV MUL DUP4 MSTORE SWAP2 PUSH1 0x20 ADD SWAP2 PUSH2 0xEC0 JUMP JUMPDEST DUP3 ADD SWAP2 SWAP1 PUSH0 MSTORE PUSH1 0x20 PUSH0 KECCAK256 SWAP1 JUMPDEST DUP2 SLOAD DUP2 MSTORE SWAP1 PUSH1 0x1 ADD SWAP1 PUSH1 0x20 ADD DUP1 DUP4 GT PUSH2 0xEA3 JUMPI DUP3 SWAP1 SUB PUSH1 0x1F AND DUP3 ADD SWAP2 JUMPDEST POP POP POP POP POP SWAP6 POP SWAP9 POP SWAP9 POP SWAP9 POP SWAP9 POP SWAP9 POP SWAP9 POP SWAP9 POP SWAP9 POP POP SWAP2 SWAP4 SWAP6 SWAP8 POP SWAP2 SWAP4 SWAP6 SWAP8 JUMP JUMPDEST PUSH0 DUP1 DUP4 GT DUP1 ISZERO PUSH2 0xEF5 JUMPI POP PUSH1 0x1 SLOAD DUP4 GT ISZERO JUMPDEST PUSH2 0xF34 JUMPI PUSH1 0x40 MLOAD PUSH32 0x8C379A000000000000000000000000000000000000000000000000000000000 DUP2 MSTORE PUSH1 0x4 ADD PUSH2 0xF2B SWAP1 PUSH2 0x1F81 JUMP JUMPDEST PUSH1 0x40 MLOAD DUP1 SWAP2 SUB SWAP1 REVERT JUMPDEST PUSH0 DUP1 DUP5 DUP2 MSTORE PUSH1 0x20 ADD SWAP1 DUP2 MSTORE PUSH1 0x20 ADD PUSH0 KECCAK256 PUSH1 0x7 ADD PUSH0 DUP4 PUSH20 0xFFFFFFFFFFFFFFFFFFFFFFFFFFFFFFFFFFFFFFFF AND PUSH20 0xFFFFFFFFFFFFFFFFFFFFFFFFFFFFFFFFFFFFFFFF AND DUP2 MSTORE PUSH1 0x20 ADD SWAP1 DUP2 MSTORE PUSH1 0x20 ADD PUSH0 KECCAK256 PUSH0 SWAP1 SLOAD SWAP1 PUSH2 0x100 EXP SWAP1 DIV PUSH1 0xFF AND SWAP1 POP SWAP3 SWAP2 POP POP JUMP JUMPDEST PUSH0 PUSH1 0x60 DUP1 PUSH0 DUP1 DUP7 GT DUP1 ISZERO PUSH2 0xFAD JUMPI POP PUSH1 0x1 SLOAD DUP7 GT ISZERO JUMPDEST PUSH2 0xFEC JUMPI PUSH1 0x40 MLOAD PUSH32 0x8C379A000000000000000000000000000000000000000000000000000000000 DUP2 MSTORE PUSH1 0x4 ADD PUSH2 0xFE3 SWAP1 PUSH2 0x1F81 JUMP JUMPDEST PUSH1 0x40 MLOAD DUP1 SWAP2 SUB SWAP1 REVERT JUMPDEST PUSH0 DUP6 GT DUP1 ISZERO PUSH2 0x100E JUMPI POP PUSH0 DUP1 DUP8 DUP2 MSTORE PUSH1 0x20 ADD SWAP1 DUP2 MSTORE PUSH1 0x20 ADD PUSH0 KECCAK256 PUSH1 0x8 ADD SLOAD DUP6 GT ISZERO JUMPDEST PUSH2 0x104D JUMPI PUSH1 0x40 MLOAD PUSH32 0x8C379A000000000000000000000000000000000000000000000000000000000 DUP2 MSTORE PUSH1 0x4 ADD PUSH2 0x1044 SWAP1 PUSH2 0x2461 JUMP JUMPDEST PUSH1 0x40 MLOAD DUP1 SWAP2 SUB SWAP1 REVERT JUMPDEST PUSH0 PUSH1 0x2 PUSH0 DUP9 DUP2 MSTORE PUSH1 0x20 ADD SWAP1 DUP2 MSTORE PUSH1 0x20 ADD PUSH0 KECCAK256 PUSH0 DUP8 DUP2 MSTORE PUSH1 0x20 ADD SWAP1 DUP2 MSTORE PUSH1 0x20 ADD PUSH0 KECCAK256 SWAP1 POP DUP1 PUSH0 ADD PUSH0 SWAP1 SLOAD SWAP1 PUSH2 0x100 EXP SWAP1 DIV PUSH20 0xFFFFFFFFFFFFFFFFFFFFFFFFFFFFFFFFFFFFFFFF AND DUP2 PUSH1 0x1 ADD DUP3 PUSH1 0x2 ADD DUP4 PUSH1 0x3 ADD SLOAD DUP3 DUP1 SLOAD PUSH2 0x10AC SWAP1 PUSH2 0x1F07 JUMP JUMPDEST DUP1 PUSH1 0x1F ADD PUSH1 0x20 DUP1 SWAP2 DIV MUL PUSH1 0x20 ADD PUSH1 0x40 MLOAD SWAP1 DUP2 ADD PUSH1 0x40 MSTORE DUP1 SWAP3 SWAP2 SWAP1 DUP2 DUP2 MSTORE PUSH1 0x20 ADD DUP3 DUP1 SLOAD PUSH2 0x10D8 SWAP1 PUSH2 0x1F07 JUMP JUMPDEST DUP1 ISZERO PUSH2 0x1123 JUMPI DUP1 PUSH1 0x1F LT PUSH2 0x10FA JUMPI PUSH2 0x100 DUP1 DUP4 SLOAD DIV MUL DUP4 MSTORE SWAP2 PUSH1 0x20 ADD SWAP2 PUSH2 0x1123 JUMP JUMPDEST DUP3 ADD SWAP2 SWAP1 PUSH0 MSTORE PUSH1 0x20 PUSH0 KECCAK256 SWAP1 JUMPDEST DUP2 SLOAD DUP2 MSTORE SWAP1 PUSH1 0x1 ADD SWAP1 PUSH1 0x20 ADD DUP1 DUP4 GT PUSH2 0x1106 JUMPI DUP3 SWAP1 SUB PUSH1 0x1F AND DUP3 ADD SWAP2 JUMPDEST POP POP POP POP POP SWAP3 POP DUP2 DUP1 SLOAD PUSH2 0x1136 SWAP1 PUSH2 0x1F07 JUMP JUMPDEST DUP1 PUSH1 0x1F ADD PUSH1 0x20 DUP1 SWAP2 DIV MUL PUSH1 0x20 ADD PUSH1 0x40 MLOAD SWAP1 DUP2 ADD PUSH1 0x40 MSTORE DUP1 SWAP3 SWAP2 SWAP1 DUP2 DUP2 MSTORE PUSH1 0x20 ADD DUP3 DUP1 SLOAD PUSH2 0x1162 SWAP1 PUSH2 0x1F07 JUMP JUMPDEST DUP1 ISZERO PUSH2 0x11AD JUMPI DUP1 PUSH1 0x1F LT PUSH2 0x1184 JUMPI PUSH2 0x100 DUP1 DUP4 SLOAD DIV MUL DUP4 MSTORE SWAP2 PUSH1 0x20 ADD SWAP2 PUSH2 0x11AD JUMP JUMPDEST DUP3 ADD SWAP2 SWAP1 PUSH0 MSTORE PUSH1 0x20 PUSH0 KECCAK256 SWAP1 JUMPDEST DUP2 SLOAD DUP2 MSTORE SWAP1 PUSH1 0x1 ADD SWAP1 PUSH1 0x20 ADD DUP1 DUP4 GT PUSH2 0x1190 JUMPI DUP3 SWAP1 SUB PUSH1 0x1F AND DUP3 ADD SWAP2 JUMPDEST POP POP POP POP POP SWAP2 POP SWAP5 POP SWAP5 POP SWAP5 POP SWAP5 POP POP SWAP3 SWAP6 SWAP2 SWAP5 POP SWAP3 POP JUMP JUMPDEST PUSH0 DUP3 GT DUP1 ISZERO PUSH2 0x11D7 JUMPI POP PUSH1 0x1 SLOAD DUP3 GT ISZERO JUMPDEST PUSH2 0x1216 JUMPI PUSH1 0x40 MLOAD PUSH32 0x8C379A000000000000000000000000000000000000000000000000000000000 DUP2 MSTORE PUSH1 0x4 ADD PUSH2 0x120D SWAP1 PUSH2 0x1F81 JUMP JUMPDEST PUSH1 0x40 MLOAD DUP1 SWAP2 SUB SWAP1 REVERT JUMPDEST PUSH0 DUP1 PUSH0 DUP5 DUP2 MSTORE PUSH1 0x20 ADD SWAP1 DUP2 MSTORE PUSH1 0x20 ADD PUSH0 KECCAK256 SWAP1 POP CALLER PUSH20 0xFFFFFFFFFFFFFFFFFFFFFFFFFFFFFFFFFFFFFFFF AND DUP2 PUSH0 ADD PUSH0 SWAP1 SLOAD SWAP1 PUSH2 0x100 EXP SWAP1 DIV PUSH20 0xFFFFFFFFFFFFFFFFFFFFFFFFFFFFFFFFFFFFFFFF AND PUSH20 0xFFFFFFFFFFFFFFFFFFFFFFFFFFFFFFFFFFFFFFFF AND SUB PUSH2 0x12B9 JUMPI PUSH1 0x40 MLOAD PUSH32 0x8C379A000000000000000000000000000000000000000000000000000000000 DUP2 MSTORE PUSH1 0x4 ADD PUSH2 0x12B0 SWAP1 PUSH2 0x24C9 JUMP JUMPDEST PUSH1 0x40 MLOAD DUP1 SWAP2 SUB SWAP1 REVERT JUMPDEST DUP1 PUSH1 0x7 ADD PUSH0 CALLER PUSH20 0xFFFFFFFFFFFFFFFFFFFFFFFFFFFFFFFFFFFFFFFF AND PUSH20 0xFFFFFFFFFFFFFFFFFFFFFFFFFFFFFFFFFFFFFFFF AND DUP2 MSTORE PUSH1 0x20 ADD SWAP1 DUP2 MSTORE PUSH1 0x20 ADD PUSH0 KECCAK256 PUSH0 SWAP1 SLOAD SWAP1 PUSH2 0x100 EXP SWAP1 DIV PUSH1 0xFF AND ISZERO PUSH2 0x1345 JUMPI PUSH1 0x40 MLOAD PUSH32 0x8C379A000000000000000000000000000000000000000000000000000000000 DUP2 MSTORE PUSH1 0x4 ADD PUSH2 0x133C SWAP1 PUSH2 0x2531 JUMP JUMPDEST PUSH1 0x40 MLOAD DUP1 SWAP2 SUB SWAP1 REVERT JUMPDEST DUP1 PUSH1 0x4 ADD PUSH0 SWAP1 SLOAD SWAP1 PUSH2 0x100 EXP SWAP1 DIV PUSH1 0xFF AND PUSH2 0x13BB JUMPI PUSH1 0x1 DUP2 PUSH1 0x4 ADD PUSH0 PUSH2 0x100 EXP DUP2 SLOAD DUP2 PUSH1 0xFF MUL NOT AND SWAP1 DUP4 ISZERO ISZERO MUL OR SWAP1 SSTORE POP CALLER PUSH20 0xFFFFFFFFFFFFFFFFFFFFFFFFFFFFFFFFFFFFFFFF AND DUP4 PUSH32 0xEDC96EF82A3FD8EA664DD4FE50F94C77BE3C3D6130792C3ED8B0199E3C28EC62 PUSH1 0x40 MLOAD PUSH1 0x40 MLOAD DUP1 SWAP2 SUB SWAP1 LOG3 JUMPDEST PUSH1 0x1 DUP2 PUSH1 0x7 ADD PUSH0 CALLER PUSH20 0xFFFFFFFFFFFFFFFFFFFFFFFFFFFFFFFFFFFFFFFF AND PUSH20 0xFFFFFFFFFFFFFFFFFFFFFFFFFFFFFFFFFFFFFFFF AND DUP2 MSTORE PUSH1 0x20 ADD SWAP1 DUP2 MSTORE PUSH1 0x20 ADD PUSH0 KECCAK256 PUSH0 PUSH2 0x100 EXP DUP2 SLOAD DUP2 PUSH1 0xFF MUL NOT AND SWAP1 DUP4 ISZERO ISZERO MUL OR SWAP1 SSTORE POP DUP2 ISZERO PUSH2 0x1436 JUMPI DUP1 PUSH1 0x5 ADD PUSH0 DUP2 SLOAD DUP1 SWAP3 SWAP2 SWAP1 PUSH2 0x142C SWAP1 PUSH2 0x2034 JUMP JUMPDEST SWAP2 SWAP1 POP SSTORE POP PUSH2 0x1450 JUMP JUMPDEST DUP1 PUSH1 0x6 ADD PUSH0 DUP2 SLOAD DUP1 SWAP3 SWAP2 SWAP1 PUSH2 0x144A SWAP1 PUSH2 0x2034 JUMP JUMPDEST SWAP2 SWAP1 POP SSTORE POP JUMPDEST CALLER PUSH20 0xFFFFFFFFFFFFFFFFFFFFFFFFFFFFFFFFFFFFFFFF AND DUP4 PUSH32 0xE71FCDAC32DF1877C1700E7BDA2A03157E20993363A28FC35AC495CEFC76E4D4 DUP5 PUSH1 0x40 MLOAD PUSH2 0x1497 SWAP2 SWAP1 PUSH2 0x1DCA JUMP JUMPDEST PUSH1 0x40 MLOAD DUP1 SWAP2 SUB SWAP1 LOG3 POP POP POP JUMP JUMPDEST PUSH1 0x2 PUSH1 0x20 MSTORE DUP2 PUSH0 MSTORE PUSH1 0x40 PUSH0 KECCAK256 PUSH1 0x20 MSTORE DUP1 PUSH0 MSTORE PUSH1 0x40 PUSH0 KECCAK256 PUSH0 SWAP2 POP SWAP2 POP POP DUP1 PUSH0 ADD PUSH0 SWAP1 SLOAD SWAP1 PUSH2 0x100 EXP SWAP1 DIV PUSH20 0xFFFFFFFFFFFFFFFFFFFFFFFFFFFFFFFFFFFFFFFF AND SWAP1 DUP1 PUSH1 0x1 ADD DUP1 SLOAD PUSH2 0x14F3 SWAP1 PUSH2 0x1F07 JUMP JUMPDEST DUP1 PUSH1 0x1F ADD PUSH1 0x20 DUP1 SWAP2 DIV MUL PUSH1 0x20 ADD PUSH1 0x40 MLOAD SWAP1 DUP2 ADD PUSH1 0x40 MSTORE DUP1 SWAP3 SWAP2 SWAP1 DUP2 DUP2 MSTORE PUSH1 0x20 ADD DUP3 DUP1 SLOAD PUSH2 0x151F SWAP1 PUSH2 0x1F07 JUMP JUMPDEST DUP1 ISZERO PUSH2 0x156A JUMPI DUP1 PUSH1 0x1F LT PUSH2 0x1541 JUMPI PUSH2 0x100 DUP1 DUP4 SLOAD DIV MUL DUP4 MSTORE SWAP2 PUSH1 0x20 ADD SWAP2 PUSH2 0x156A JUMP JUMPDEST DUP3 ADD SWAP2 SWAP1 PUSH0 MSTORE PUSH1 0x20 PUSH0 KECCAK256 SWAP1 JUMPDEST DUP2 SLOAD DUP2 MSTORE SWAP1 PUSH1 0x1 ADD SWAP1 PUSH1 0x20 ADD DUP1 DUP4 GT PUSH2 0x154D JUMPI DUP3 SWAP1 SUB PUSH1 0x1F AND DUP3 ADD SWAP2 JUMPDEST POP POP POP POP POP SWAP1 DUP1 PUSH1 0x2 ADD DUP1 SLOAD PUSH2 0x157F SWAP1 PUSH2 0x1F07 JUMP JUMPDEST DUP1 PUSH1 0x1F ADD PUSH1 0x20 DUP1 SWAP2 DIV MUL PUSH1 0x20 ADD PUSH1 0x40 MLOAD SWAP1 DUP2 ADD PUSH1 0x40 MSTORE DUP1 SWAP3 SWAP2 SWAP1 DUP2 DUP2 MSTORE PUSH1 0x20 ADD DUP3 DUP1 SLOAD PUSH2 0x15AB SWAP1 PUSH2 0x1F07 JUMP JUMPDEST DUP1 ISZERO PUSH2 0x15F6 JUMPI DUP1 PUSH1 0x1F LT PUSH2 0x15CD JUMPI PUSH2 0x100 DUP1 DUP4 SLOAD DIV MUL DUP4 MSTORE SWAP2 PUSH1 0x20 ADD SWAP2 PUSH2 0x15F6 JUMP JUMPDEST DUP3 ADD SWAP2 SWAP1 PUSH0 MSTORE PUSH1 0x20 PUSH0 KECCAK256 SWAP1 JUMPDEST DUP2 SLOAD DUP2 MSTORE SWAP1 PUSH1 0x1 ADD SWAP1 PUSH1 0x20 ADD DUP1 DUP4 GT PUSH2 0x15D9 JUMPI DUP3 SWAP1 SUB PUSH1 0x1F AND DUP3 ADD SWAP2 JUMPDEST POP POP POP POP POP SWAP1 DUP1 PUSH1 0x3 ADD SLOAD SWAP1 POP DUP5 JUMP JUMPDEST PUSH0 PUSH1 0x40 MLOAD SWAP1 POP SWAP1 JUMP JUMPDEST PUSH0 DUP1 REVERT JUMPDEST PUSH0 DUP1 REVERT JUMPDEST PUSH0 DUP2 SWAP1 POP SWAP2 SWAP1 POP JUMP JUMPDEST PUSH2 0x1629 DUP2 PUSH2 0x1617 JUMP JUMPDEST DUP2 EQ PUSH2 0x1633 JUMPI PUSH0 DUP1 REVERT JUMPDEST POP JUMP JUMPDEST PUSH0 DUP2 CALLDATALOAD SWAP1 POP PUSH2 0x1644 DUP2 PUSH2 0x1620 JUMP JUMPDEST SWAP3 SWAP2 POP POP JUMP JUMPDEST PUSH0 PUSH1 0x20 DUP3 DUP5 SUB SLT ISZERO PUSH2 0x165F JUMPI PUSH2 0x165E PUSH2 0x160F JUMP JUMPDEST JUMPDEST PUSH0 PUSH2 0x166C DUP5 DUP3 DUP6 ADD PUSH2 0x1636 JUMP JUMPDEST SWAP2 POP POP SWAP3 SWAP2 POP POP JUMP JUMPDEST PUSH0 PUSH20 0xFFFFFFFFFFFFFFFFFFFFFFFFFFFFFFFFFFFFFFFF DUP3 AND SWAP1 POP SWAP2 SWAP1 POP JUMP JUMPDEST PUSH0 PUSH2 0x169E DUP3 PUSH2 0x1675 JUMP JUMPDEST SWAP1 POP SWAP2 SWAP1 POP JUMP JUMPDEST PUSH2 0x16AE DUP2 PUSH2 0x1694 JUMP JUMPDEST DUP3 MSTORE POP POP JUMP JUMPDEST PUSH0 DUP2 MLOAD SWAP1 POP SWAP2 SWAP1 POP JUMP JUMPDEST PUSH0 DUP3 DUP3 MSTORE PUSH1 0x20 DUP3 ADD SWAP1 POP SWAP3 SWAP2 POP POP JUMP JUMPDEST PUSH0 JUMPDEST DUP4 DUP2 LT ISZERO PUSH2 0x16EB JUMPI DUP1 DUP3 ADD MLOAD DUP2 DUP5 ADD MSTORE PUSH1 0x20 DUP2 ADD SWAP1 POP PUSH2 0x16D0 JUMP JUMPDEST PUSH0 DUP5 DUP5 ADD MSTORE POP POP POP POP JUMP JUMPDEST PUSH0 PUSH1 0x1F NOT PUSH1 0x1F DUP4 ADD AND SWAP1 POP SWAP2 SWAP1 POP JUMP JUMPDEST PUSH0 PUSH2 0x1710 DUP3 PUSH2 0x16B4 JUMP JUMPDEST PUSH2 0x171A DUP2 DUP6 PUSH2 0x16BE JUMP JUMPDEST SWAP4 POP PUSH2 0x172A DUP2 DUP6 PUSH1 0x20 DUP7 ADD PUSH2 0x16CE JUMP JUMPDEST PUSH2 0x1733 DUP2 PUSH2 0x16F6 JUMP JUMPDEST DUP5 ADD SWAP2 POP POP SWAP3 SWAP2 POP POP JUMP JUMPDEST PUSH2 0x1747 DUP2 PUSH2 0x1617 JUMP JUMPDEST DUP3 MSTORE POP POP JUMP JUMPDEST PUSH0 DUP2 ISZERO ISZERO SWAP1 POP SWAP2 SWAP1 POP JUMP JUMPDEST PUSH2 0x1761 DUP2 PUSH2 0x174D JUMP JUMPDEST DUP3 MSTORE POP POP JUMP JUMPDEST PUSH0 PUSH2 0x100 DUP3 ADD SWAP1 POP PUSH2 0x177B PUSH0 DUP4 ADD DUP12 PUSH2 0x16A5 JUMP JUMPDEST DUP2 DUP2 SUB PUSH1 0x20 DUP4 ADD MSTORE PUSH2 0x178D DUP2 DUP11 PUSH2 0x1706 JUMP JUMPDEST SWAP1 POP DUP2 DUP2 SUB PUSH1 0x40 DUP4 ADD MSTORE PUSH2 0x17A1 DUP2 DUP10 PUSH2 0x1706 JUMP JUMPDEST SWAP1 POP PUSH2 0x17B0 PUSH1 0x60 DUP4 ADD DUP9 PUSH2 0x173E JUMP JUMPDEST PUSH2 0x17BD PUSH1 0x80 DUP4 ADD DUP8 PUSH2 0x1758 JUMP JUMPDEST PUSH2 0x17CA PUSH1 0xA0 DUP4 ADD DUP7 PUSH2 0x173E JUMP JUMPDEST PUSH2 0x17D7 PUSH1 0xC0 DUP4 ADD DUP6 PUSH2 0x173E JUMP JUMPDEST PUSH2 0x17E4 PUSH1 0xE0 DUP4 ADD DUP5 PUSH2 0x173E JUMP JUMPDEST SWAP10 SWAP9 POP POP POP POP POP POP POP POP POP JUMP JUMPDEST PUSH0 PUSH1 0x20 DUP3 ADD SWAP1 POP PUSH2 0x1804 PUSH0 DUP4 ADD DUP5 PUSH2 0x173E JUMP JUMPDEST SWAP3 SWAP2 POP POP JUMP JUMPDEST PUSH0 DUP1 REVERT JUMPDEST PUSH0 DUP1 REVERT JUMPDEST PUSH32 0x4E487B7100000000000000000000000000000000000000000000000000000000 PUSH0 MSTORE PUSH1 0x41 PUSH1 0x4 MSTORE PUSH1 0x24 PUSH0 REVERT JUMPDEST PUSH2 0x1848 DUP3 PUSH2 0x16F6 JUMP JUMPDEST DUP2 ADD DUP2 DUP2 LT PUSH8 0xFFFFFFFFFFFFFFFF DUP3 GT OR ISZERO PUSH2 0x1867 JUMPI PUSH2 0x1866 PUSH2 0x1812 JUMP JUMPDEST JUMPDEST DUP1 PUSH1 0x40 MSTORE POP POP POP JUMP JUMPDEST PUSH0 PUSH2 0x1879 PUSH2 0x1606 JUMP JUMPDEST SWAP1 POP PUSH2 0x1885 DUP3 DUP3 PUSH2 0x183F JUMP JUMPDEST SWAP2 SWAP1 POP JUMP JUMPDEST PUSH0 PUSH8 0xFFFFFFFFFFFFFFFF DUP3 GT ISZERO PUSH2 0x18A4 JUMPI PUSH2 0x18A3 PUSH2 0x1812 JUMP JUMPDEST JUMPDEST PUSH2 0x18AD DUP3 PUSH2 0x16F6 JUMP JUMPDEST SWAP1 POP PUSH1 0x20 DUP2 ADD SWAP1 POP SWAP2 SWAP1 POP JUMP JUMPDEST DUP3 DUP2 DUP4 CALLDATACOPY PUSH0 DUP4 DUP4 ADD MSTORE POP POP POP JUMP JUMPDEST PUSH0 PUSH2 0x18DA PUSH2 0x18D5 DUP5 PUSH2 0x188A JUMP JUMPDEST PUSH2 0x1870 JUMP JUMPDEST SWAP1 POP DUP3 DUP2 MSTORE PUSH1 0x20 DUP2 ADD DUP5 DUP5 DUP5 ADD GT ISZERO PUSH2 0x18F6 JUMPI PUSH2 0x18F5 PUSH2 0x180E JUMP JUMPDEST JUMPDEST PUSH2 0x1901 DUP5 DUP3 DUP6 PUSH2 0x18BA JUMP JUMPDEST POP SWAP4 SWAP3 POP POP POP JUMP JUMPDEST PUSH0 DUP3 PUSH1 0x1F DUP4 ADD SLT PUSH2 0x191D JUMPI PUSH2 0x191C PUSH2 0x180A JUMP JUMPDEST JUMPDEST DUP2 CALLDATALOAD PUSH2 0x192D DUP5 DUP3 PUSH1 0x20 DUP7 ADD PUSH2 0x18C8 JUMP JUMPDEST SWAP2 POP POP SWAP3 SWAP2 POP POP JUMP JUMPDEST PUSH0 DUP1 PUSH0 PUSH1 0x60 DUP5 DUP7 SUB SLT ISZERO PUSH2 0x194D JUMPI PUSH2 0x194C PUSH2 0x160F JUMP JUMPDEST JUMPDEST PUSH0 PUSH2 0x195A DUP7 DUP3 DUP8 ADD PUSH2 0x1636 JUMP JUMPDEST SWAP4 POP POP PUSH1 0x20 DUP5 ADD CALLDATALOAD PUSH8 0xFFFFFFFFFFFFFFFF DUP2 GT ISZERO PUSH2 0x197B JUMPI PUSH2 0x197A PUSH2 0x1613 JUMP JUMPDEST JUMPDEST PUSH2 0x1987 DUP7 DUP3 DUP8 ADD PUSH2 0x1909 JUMP JUMPDEST SWAP3 POP POP PUSH1 0x40 DUP5 ADD CALLDATALOAD PUSH8 0xFFFFFFFFFFFFFFFF DUP2 GT ISZERO PUSH2 0x19A8 JUMPI PUSH2 0x19A7 PUSH2 0x1613 JUMP JUMPDEST JUMPDEST PUSH2 0x19B4 DUP7 DUP3 DUP8 ADD PUSH2 0x1909 JUMP JUMPDEST SWAP2 POP POP SWAP3 POP SWAP3 POP SWAP3 JUMP JUMPDEST PUSH0 DUP1 PUSH0 PUSH1 0x60 DUP5 DUP7 SUB SLT ISZERO PUSH2 0x19D5 JUMPI PUSH2 0x19D4 PUSH2 0x160F JUMP JUMPDEST JUMPDEST PUSH0 PUSH2 0x19E2 DUP7 DUP3 DUP8 ADD PUSH2 0x1636 JUMP JUMPDEST SWAP4 POP POP PUSH1 0x20 PUSH2 0x19F3 DUP7 DUP3 DUP8 ADD PUSH2 0x1636 JUMP JUMPDEST SWAP3 POP POP PUSH1 0x40 PUSH2 0x1A04 DUP7 DUP3 DUP8 ADD PUSH2 0x1636 JUMP JUMPDEST SWAP2 POP POP SWAP3 POP SWAP3 POP SWAP3 JUMP JUMPDEST PUSH0 DUP2 MLOAD SWAP1 POP SWAP2 SWAP1 POP JUMP JUMPDEST PUSH0 DUP3 DUP3 MSTORE PUSH1 0x20 DUP3 ADD SWAP1 POP SWAP3 SWAP2 POP POP JUMP JUMPDEST PUSH0 DUP2 SWAP1 POP PUSH1 0x20 DUP3 ADD SWAP1 POP SWAP2 SWAP1 POP JUMP JUMPDEST PUSH2 0x1A40 DUP2 PUSH2 0x1694 JUMP JUMPDEST DUP3 MSTORE POP POP JUMP JUMPDEST PUSH0 PUSH2 0x1A51 DUP4 DUP4 PUSH2 0x1A37 JUMP JUMPDEST PUSH1 0x20 DUP4 ADD SWAP1 POP SWAP3 SWAP2 POP POP JUMP JUMPDEST PUSH0 PUSH1 0x20 DUP3 ADD SWAP1 POP SWAP2 SWAP1 POP JUMP JUMPDEST PUSH0 PUSH2 0x1A73 DUP3 PUSH2 0x1A0E JUMP JUMPDEST PUSH2 0x1A7D DUP2 DUP6 PUSH2 0x1A18 JUMP JUMPDEST SWAP4 POP PUSH2 0x1A88 DUP4 PUSH2 0x1A28 JUMP JUMPDEST DUP1 PUSH0 JUMPDEST DUP4 DUP2 LT ISZERO PUSH2 0x1AB8 JUMPI DUP2 MLOAD PUSH2 0x1A9F DUP9 DUP3 PUSH2 0x1A46 JUMP JUMPDEST SWAP8 POP PUSH2 0x1AAA DUP4 PUSH2 0x1A5D JUMP JUMPDEST SWAP3 POP POP PUSH1 0x1 DUP2 ADD SWAP1 POP PUSH2 0x1A8B JUMP JUMPDEST POP DUP6 SWAP4 POP POP POP POP SWAP3 SWAP2 POP POP JUMP JUMPDEST PUSH0 DUP2 MLOAD SWAP1 POP SWAP2 SWAP1 POP JUMP JUMPDEST PUSH0 DUP3 DUP3 MSTORE PUSH1 0x20 DUP3 ADD SWAP1 POP SWAP3 SWAP2 POP POP JUMP JUMPDEST PUSH0 DUP2 SWAP1 POP PUSH1 0x20 DUP3 ADD SWAP1 POP SWAP2 SWAP1 POP JUMP JUMPDEST PUSH0 DUP3 DUP3 MSTORE PUSH1 0x20 DUP3 ADD SWAP1 POP SWAP3 SWAP2 POP POP JUMP JUMPDEST PUSH0 PUSH2 0x1B08 DUP3 PUSH2 0x16B4 JUMP JUMPDEST PUSH2 0x1B12 DUP2 DUP6 PUSH2 0x1AEE JUMP JUMPDEST SWAP4 POP PUSH2 0x1B22 DUP2 DUP6 PUSH1 0x20 DUP7 ADD PUSH2 0x16CE JUMP JUMPDEST PUSH2 0x1B2B DUP2 PUSH2 0x16F6 JUMP JUMPDEST DUP5 ADD SWAP2 POP POP SWAP3 SWAP2 POP POP JUMP JUMPDEST PUSH0 PUSH2 0x1B41 DUP4 DUP4 PUSH2 0x1AFE JUMP JUMPDEST SWAP1 POP SWAP3 SWAP2 POP POP JUMP JUMPDEST PUSH0 PUSH1 0x20 DUP3 ADD SWAP1 POP SWAP2 SWAP1 POP JUMP JUMPDEST PUSH0 PUSH2 0x1B5F DUP3 PUSH2 0x1AC5 JUMP JUMPDEST PUSH2 0x1B69 DUP2 DUP6 PUSH2 0x1ACF JUMP JUMPDEST SWAP4 POP DUP4 PUSH1 0x20 DUP3 MUL DUP6 ADD PUSH2 0x1B7B DUP6 PUSH2 0x1ADF JUMP JUMPDEST DUP1 PUSH0 JUMPDEST DUP6 DUP2 LT ISZERO PUSH2 0x1BB6 JUMPI DUP5 DUP5 SUB DUP10 MSTORE DUP2 MLOAD PUSH2 0x1B97 DUP6 DUP3 PUSH2 0x1B36 JUMP JUMPDEST SWAP5 POP PUSH2 0x1BA2 DUP4 PUSH2 0x1B49 JUMP JUMPDEST SWAP3 POP PUSH1 0x20 DUP11 ADD SWAP10 POP POP PUSH1 0x1 DUP2 ADD SWAP1 POP PUSH2 0x1B7E JUMP JUMPDEST POP DUP3 SWAP8 POP DUP8 SWAP6 POP POP POP POP POP POP SWAP3 SWAP2 POP POP JUMP JUMPDEST PUSH0 DUP2 MLOAD SWAP1 POP SWAP2 SWAP1 POP JUMP JUMPDEST PUSH0 DUP3 DUP3 MSTORE PUSH1 0x20 DUP3 ADD SWAP1 POP SWAP3 SWAP2 POP POP JUMP JUMPDEST PUSH0 DUP2 SWAP1 POP PUSH1 0x20 DUP3 ADD SWAP1 POP SWAP2 SWAP1 POP JUMP JUMPDEST PUSH2 0x1BFA DUP2 PUSH2 0x1617 JUMP JUMPDEST DUP3 MSTORE POP POP JUMP JUMPDEST PUSH0 PUSH2 0x1C0B DUP4 DUP4 PUSH2 0x1BF1 JUMP JUMPDEST PUSH1 0x20 DUP4 ADD SWAP1 POP SWAP3 SWAP2 POP POP JUMP JUMPDEST PUSH0 PUSH1 0x20 DUP3 ADD SWAP1 POP SWAP2 SWAP1 POP JUMP JUMPDEST PUSH0 PUSH2 0x1C2D DUP3 PUSH2 0x1BC8 JUMP JUMPDEST PUSH2 0x1C37 DUP2 DUP6 PUSH2 0x1BD2 JUMP JUMPDEST SWAP4 POP PUSH2 0x1C42 DUP4 PUSH2 0x1BE2 JUMP JUMPDEST DUP1 PUSH0 JUMPDEST DUP4 DUP2 LT ISZERO PUSH2 0x1C72 JUMPI DUP2 MLOAD PUSH2 0x1C59 DUP9 DUP3 PUSH2 0x1C00 JUMP JUMPDEST SWAP8 POP PUSH2 0x1C64 DUP4 PUSH2 0x1C17 JUMP JUMPDEST SWAP3 POP POP PUSH1 0x1 DUP2 ADD SWAP1 POP PUSH2 0x1C45 JUMP JUMPDEST POP DUP6 SWAP4 POP POP POP POP SWAP3 SWAP2 POP POP JUMP JUMPDEST PUSH0 PUSH1 0xA0 DUP3 ADD SWAP1 POP DUP2 DUP2 SUB PUSH0 DUP4 ADD MSTORE PUSH2 0x1C97 DUP2 DUP9 PUSH2 0x1A69 JUMP JUMPDEST SWAP1 POP DUP2 DUP2 SUB PUSH1 0x20 DUP4 ADD MSTORE PUSH2 0x1CAB DUP2 DUP8 PUSH2 0x1B55 JUMP JUMPDEST SWAP1 POP DUP2 DUP2 SUB PUSH1 0x40 DUP4 ADD MSTORE PUSH2 0x1CBF DUP2 DUP7 PUSH2 0x1B55 JUMP JUMPDEST SWAP1 POP DUP2 DUP2 SUB PUSH1 0x60 DUP4 ADD MSTORE PUSH2 0x1CD3 DUP2 DUP6 PUSH2 0x1C23 JUMP JUMPDEST SWAP1 POP PUSH2 0x1CE2 PUSH1 0x80 DUP4 ADD DUP5 PUSH2 0x173E JUMP JUMPDEST SWAP7 SWAP6 POP POP POP POP POP POP JUMP JUMPDEST PUSH0 DUP1 PUSH1 0x40 DUP4 DUP6 SUB SLT ISZERO PUSH2 0x1D02 JUMPI PUSH2 0x1D01 PUSH2 0x160F JUMP JUMPDEST JUMPDEST PUSH0 DUP4 ADD CALLDATALOAD PUSH8 0xFFFFFFFFFFFFFFFF DUP2 GT ISZERO PUSH2 0x1D1F JUMPI PUSH2 0x1D1E PUSH2 0x1613 JUMP JUMPDEST JUMPDEST PUSH2 0x1D2B DUP6 DUP3 DUP7 ADD PUSH2 0x1909 JUMP JUMPDEST SWAP3 POP POP PUSH1 0x20 DUP4 ADD CALLDATALOAD PUSH8 0xFFFFFFFFFFFFFFFF DUP2 GT ISZERO PUSH2 0x1D4C JUMPI PUSH2 0x1D4B PUSH2 0x1613 JUMP JUMPDEST JUMPDEST PUSH2 0x1D58 DUP6 DUP3 DUP7 ADD PUSH2 0x1909 JUMP JUMPDEST SWAP2 POP POP SWAP3 POP SWAP3 SWAP1 POP JUMP JUMPDEST PUSH2 0x1D6B DUP2 PUSH2 0x1694 JUMP JUMPDEST DUP2 EQ PUSH2 0x1D75 JUMPI PUSH0 DUP1 REVERT JUMPDEST POP JUMP JUMPDEST PUSH0 DUP2 CALLDATALOAD SWAP1 POP PUSH2 0x1D86 DUP2 PUSH2 0x1D62 JUMP JUMPDEST SWAP3 SWAP2 POP POP JUMP JUMPDEST PUSH0 DUP1 PUSH1 0x40 DUP4 DUP6 SUB SLT ISZERO PUSH2 0x1DA2 JUMPI PUSH2 0x1DA1 PUSH2 0x160F JUMP JUMPDEST JUMPDEST PUSH0 PUSH2 0x1DAF DUP6 DUP3 DUP7 ADD PUSH2 0x1636 JUMP JUMPDEST SWAP3 POP POP PUSH1 0x20 PUSH2 0x1DC0 DUP6 DUP3 DUP7 ADD PUSH2 0x1D78 JUMP JUMPDEST SWAP2 POP POP SWAP3 POP SWAP3 SWAP1 POP JUMP JUMPDEST PUSH0 PUSH1 0x20 DUP3 ADD SWAP1 POP PUSH2 0x1DDD PUSH0 DUP4 ADD DUP5 PUSH2 0x1758 JUMP JUMPDEST SWAP3 SWAP2 POP POP JUMP JUMPDEST PUSH0 DUP1 PUSH1 0x40 DUP4 DUP6 SUB SLT ISZERO PUSH2 0x1DF9 JUMPI PUSH2 0x1DF8 PUSH2 0x160F JUMP JUMPDEST JUMPDEST PUSH0 PUSH2 0x1E06 DUP6 DUP3 DUP7 ADD PUSH2 0x1636 JUMP JUMPDEST SWAP3 POP POP PUSH1 0x20 PUSH2 0x1E17 DUP6 DUP3 DUP7 ADD PUSH2 0x1636 JUMP JUMPDEST SWAP2 POP POP SWAP3 POP SWAP3 SWAP1 POP JUMP JUMPDEST PUSH0 PUSH1 0x80 DUP3 ADD SWAP1 POP PUSH2 0x1E34 PUSH0 DUP4 ADD DUP8 PUSH2 0x16A5 JUMP JUMPDEST DUP2 DUP2 SUB PUSH1 0x20 DUP4 ADD MSTORE PUSH2 0x1E46 DUP2 DUP7 PUSH2 0x1706 JUMP JUMPDEST SWAP1 POP DUP2 DUP2 SUB PUSH1 0x40 DUP4 ADD MSTORE PUSH2 0x1E5A DUP2 DUP6 PUSH2 0x1706 JUMP JUMPDEST SWAP1 POP PUSH2 0x1E69 PUSH1 0x60 DUP4 ADD DUP5 PUSH2 0x173E JUMP JUMPDEST SWAP6 SWAP5 POP POP POP POP POP JUMP JUMPDEST PUSH2 0x1E7B DUP2 PUSH2 0x174D JUMP JUMPDEST DUP2 EQ PUSH2 0x1E85 JUMPI PUSH0 DUP1 REVERT JUMPDEST POP JUMP JUMPDEST PUSH0 DUP2 CALLDATALOAD SWAP1 POP PUSH2 0x1E96 DUP2 PUSH2 0x1E72 JUMP JUMPDEST SWAP3 SWAP2 POP POP JUMP JUMPDEST PUSH0 DUP1 PUSH1 0x40 DUP4 DUP6 SUB SLT ISZERO PUSH2 0x1EB2 JUMPI PUSH2 0x1EB1 PUSH2 0x160F JUMP JUMPDEST JUMPDEST PUSH0 PUSH2 0x1EBF DUP6 DUP3 DUP7 ADD PUSH2 0x1636 JUMP JUMPDEST SWAP3 POP POP PUSH1 0x20 PUSH2 0x1ED0 DUP6 DUP3 DUP7 ADD PUSH2 0x1E88 JUMP JUMPDEST SWAP2 POP POP SWAP3 POP SWAP3 SWAP1 POP JUMP JUMPDEST PUSH32 0x4E487B7100000000000000000000000000000000000000000000000000000000 PUSH0 MSTORE PUSH1 0x22 PUSH1 0x4 MSTORE PUSH1 0x24 PUSH0 REVERT JUMPDEST PUSH0 PUSH1 0x2 DUP3 DIV SWAP1 POP PUSH1 0x1 DUP3 AND DUP1 PUSH2 0x1F1E JUMPI PUSH1 0x7F DUP3 AND SWAP2 POP JUMPDEST PUSH1 0x20 DUP3 LT DUP2 SUB PUSH2 0x1F31 JUMPI PUSH2 0x1F30 PUSH2 0x1EDA JUMP JUMPDEST JUMPDEST POP SWAP2 SWAP1 POP JUMP JUMPDEST PUSH32 0x496E76616C696420706F73742049440000000000000000000000000000000000 PUSH0 DUP3 ADD MSTORE POP JUMP JUMPDEST PUSH0 PUSH2 0x1F6B PUSH1 0xF DUP4 PUSH2 0x16BE JUMP JUMPDEST SWAP2 POP PUSH2 0x1F76 DUP3 PUSH2 0x1F37 JUMP JUMPDEST PUSH1 0x20 DUP3 ADD SWAP1 POP SWAP2 SWAP1 POP JUMP JUMPDEST PUSH0 PUSH1 0x20 DUP3 ADD SWAP1 POP DUP2 DUP2 SUB PUSH0 DUP4 ADD MSTORE PUSH2 0x1F98 DUP2 PUSH2 0x1F5F JUMP JUMPDEST SWAP1 POP SWAP2 SWAP1 POP JUMP JUMPDEST PUSH32 0x436F6D6D656E742063616E6E6F7420626520656D707479000000000000000000 PUSH0 DUP3 ADD MSTORE POP JUMP JUMPDEST PUSH0 PUSH2 0x1FD3 PUSH1 0x17 DUP4 PUSH2 0x16BE JUMP JUMPDEST SWAP2 POP PUSH2 0x1FDE DUP3 PUSH2 0x1F9F JUMP JUMPDEST PUSH1 0x20 DUP3 ADD SWAP1 POP SWAP2 SWAP1 POP JUMP JUMPDEST PUSH0 PUSH1 0x20 DUP3 ADD SWAP1 POP DUP2 DUP2 SUB PUSH0 DUP4 ADD MSTORE PUSH2 0x2000 DUP2 PUSH2 0x1FC7 JUMP JUMPDEST SWAP1 POP SWAP2 SWAP1 POP JUMP JUMPDEST PUSH32 0x4E487B7100000000000000000000000000000000000000000000000000000000 PUSH0 MSTORE PUSH1 0x11 PUSH1 0x4 MSTORE PUSH1 0x24 PUSH0 REVERT JUMPDEST PUSH0 PUSH2 0x203E DUP3 PUSH2 0x1617 JUMP JUMPDEST SWAP2 POP PUSH32 0xFFFFFFFFFFFFFFFFFFFFFFFFFFFFFFFFFFFFFFFFFFFFFFFFFFFFFFFFFFFFFFFF DUP3 SUB PUSH2 0x2070 JUMPI PUSH2 0x206F PUSH2 0x2007 JUMP JUMPDEST JUMPDEST PUSH1 0x1 DUP3 ADD SWAP1 POP SWAP2 SWAP1 POP JUMP JUMPDEST PUSH0 DUP2 SWAP1 POP DUP2 PUSH0 MSTORE PUSH1 0x20 PUSH0 KECCAK256 SWAP1 POP SWAP2 SWAP1 POP JUMP JUMPDEST PUSH0 PUSH1 0x20 PUSH1 0x1F DUP4 ADD DIV SWAP1 POP SWAP2 SWAP1 POP JUMP JUMPDEST PUSH0 DUP3 DUP3 SHL SWAP1 POP SWAP3 SWAP2 POP POP JUMP JUMPDEST PUSH0 PUSH1 0x8 DUP4 MUL PUSH2 0x20D7 PUSH32 0xFFFFFFFFFFFFFFFFFFFFFFFFFFFFFFFFFFFFFFFFFFFFFFFFFFFFFFFFFFFFFFFF DUP3 PUSH2 0x209C JUMP JUMPDEST PUSH2 0x20E1 DUP7 DUP4 PUSH2 0x209C JUMP JUMPDEST SWAP6 POP DUP1 NOT DUP5 AND SWAP4 POP DUP1 DUP7 AND DUP5 OR SWAP3 POP POP POP SWAP4 SWAP3 POP POP POP JUMP JUMPDEST PUSH0 DUP2 SWAP1 POP SWAP2 SWAP1 POP JUMP JUMPDEST PUSH0 PUSH2 0x211C PUSH2 0x2117 PUSH2 0x2112 DUP5 PUSH2 0x1617 JUMP JUMPDEST PUSH2 0x20F9 JUMP JUMPDEST PUSH2 0x1617 JUMP JUMPDEST SWAP1 POP SWAP2 SWAP1 POP JUMP JUMPDEST PUSH0 DUP2 SWAP1 POP SWAP2 SWAP1 POP JUMP JUMPDEST PUSH2 0x2135 DUP4 PUSH2 0x2102 JUMP JUMPDEST PUSH2 0x2149 PUSH2 0x2141 DUP3 PUSH2 0x2123 JUMP JUMPDEST DUP5 DUP5 SLOAD PUSH2 0x20A8 JUMP JUMPDEST DUP3 SSTORE POP POP POP POP JUMP JUMPDEST PUSH0 SWAP1 JUMP JUMPDEST PUSH2 0x215D PUSH2 0x2151 JUMP JUMPDEST PUSH2 0x2168 DUP2 DUP5 DUP5 PUSH2 0x212C JUMP JUMPDEST POP POP POP JUMP JUMPDEST JUMPDEST DUP2 DUP2 LT ISZERO PUSH2 0x218B JUMPI PUSH2 0x2180 PUSH0 DUP3 PUSH2 0x2155 JUMP JUMPDEST PUSH1 0x1 DUP2 ADD SWAP1 POP PUSH2 0x216E JUMP JUMPDEST POP POP JUMP JUMPDEST PUSH1 0x1F DUP3 GT ISZERO PUSH2 0x21D0 JUMPI PUSH2 0x21A1 DUP2 PUSH2 0x207B JUMP JUMPDEST PUSH2 0x21AA DUP5 PUSH2 0x208D JUMP JUMPDEST DUP2 ADD PUSH1 0x20 DUP6 LT ISZERO PUSH2 0x21B9 JUMPI DUP2 SWAP1 POP JUMPDEST PUSH2 0x21CD PUSH2 0x21C5 DUP6 PUSH2 0x208D JUMP JUMPDEST DUP4 ADD DUP3 PUSH2 0x216D JUMP JUMPDEST POP POP JUMPDEST POP POP POP JUMP JUMPDEST PUSH0 DUP3 DUP3 SHR SWAP1 POP SWAP3 SWAP2 POP POP JUMP JUMPDEST PUSH0 PUSH2 0x21F0 PUSH0 NOT DUP5 PUSH1 0x8 MUL PUSH2 0x21D5 JUMP JUMPDEST NOT DUP1 DUP4 AND SWAP2 POP POP SWAP3 SWAP2 POP POP JUMP JUMPDEST PUSH0 PUSH2 0x2208 DUP4 DUP4 PUSH2 0x21E1 JUMP JUMPDEST SWAP2 POP DUP3 PUSH1 0x2 MUL DUP3 OR SWAP1 POP SWAP3 SWAP2 POP POP JUMP JUMPDEST PUSH2 0x2221 DUP3 PUSH2 0x16B4 JUMP JUMPDEST PUSH8 0xFFFFFFFFFFFFFFFF DUP2 GT ISZERO PUSH2 0x223A JUMPI PUSH2 0x2239 PUSH2 0x1812 JUMP JUMPDEST JUMPDEST PUSH2 0x2244 DUP3 SLOAD PUSH2 0x1F07 JUMP JUMPDEST PUSH2 0x224F DUP3 DUP3 DUP6 PUSH2 0x218F JUMP JUMPDEST PUSH0 PUSH1 0x20 SWAP1 POP PUSH1 0x1F DUP4 GT PUSH1 0x1 DUP2 EQ PUSH2 0x2280 JUMPI PUSH0 DUP5 ISZERO PUSH2 0x226E JUMPI DUP3 DUP8 ADD MLOAD SWAP1 POP JUMPDEST PUSH2 0x2278 DUP6 DUP3 PUSH2 0x21FD JUMP JUMPDEST DUP7 SSTORE POP PUSH2 0x22DF JUMP JUMPDEST PUSH1 0x1F NOT DUP5 AND PUSH2 0x228E DUP7 PUSH2 0x207B JUMP JUMPDEST PUSH0 JUMPDEST DUP3 DUP2 LT ISZERO PUSH2 0x22B5 JUMPI DUP5 DUP10 ADD MLOAD DUP3 SSTORE PUSH1 0x1 DUP3 ADD SWAP2 POP PUSH1 0x20 DUP6 ADD SWAP5 POP PUSH1 0x20 DUP2 ADD SWAP1 POP PUSH2 0x2290 JUMP JUMPDEST DUP7 DUP4 LT ISZERO PUSH2 0x22D2 JUMPI DUP5 DUP10 ADD MLOAD PUSH2 0x22CE PUSH1 0x1F DUP10 AND DUP3 PUSH2 0x21E1 JUMP JUMPDEST DUP4 SSTORE POP JUMPDEST PUSH1 0x1 PUSH1 0x2 DUP9 MUL ADD DUP9 SSTORE POP POP POP JUMPDEST POP POP POP POP POP POP JUMP JUMPDEST PUSH0 PUSH1 0x40 DUP3 ADD SWAP1 POP DUP2 DUP2 SUB PUSH0 DUP4 ADD MSTORE PUSH2 0x22FF DUP2 DUP6 PUSH2 0x1706 JUMP JUMPDEST SWAP1 POP DUP2 DUP2 SUB PUSH1 0x20 DUP4 ADD MSTORE PUSH2 0x2313 DUP2 DUP5 PUSH2 0x1706 JUMP JUMPDEST SWAP1 POP SWAP4 SWAP3 POP POP POP JUMP JUMPDEST PUSH32 0x5374617274204944206D7573742062652067726561746572207468616E203000 PUSH0 DUP3 ADD MSTORE POP JUMP JUMPDEST PUSH0 PUSH2 0x2350 PUSH1 0x1F DUP4 PUSH2 0x16BE JUMP JUMPDEST SWAP2 POP PUSH2 0x235B DUP3 PUSH2 0x231C JUMP JUMPDEST PUSH1 0x20 DUP3 ADD SWAP1 POP SWAP2 SWAP1 POP JUMP JUMPDEST PUSH0 PUSH1 0x20 DUP3 ADD SWAP1 POP DUP2 DUP2 SUB PUSH0 DUP4 ADD MSTORE PUSH2 0x237D DUP2 PUSH2 0x2344 JUMP JUMPDEST SWAP1 POP SWAP2 SWAP1 POP JUMP JUMPDEST PUSH0 PUSH2 0x238E DUP3 PUSH2 0x1617 JUMP JUMPDEST SWAP2 POP PUSH2 0x2399 DUP4 PUSH2 0x1617 JUMP JUMPDEST SWAP3 POP DUP3 DUP3 SUB SWAP1 POP DUP2 DUP2 GT ISZERO PUSH2 0x23B1 JUMPI PUSH2 0x23B0 PUSH2 0x2007 JUMP JUMPDEST JUMPDEST SWAP3 SWAP2 POP POP JUMP JUMPDEST PUSH0 PUSH2 0x23C1 DUP3 PUSH2 0x1617 JUMP JUMPDEST SWAP2 POP PUSH2 0x23CC DUP4 PUSH2 0x1617 JUMP JUMPDEST SWAP3 POP DUP3 DUP3 ADD SWAP1 POP DUP1 DUP3 GT ISZERO PUSH2 0x23E4 JUMPI PUSH2 0x23E3 PUSH2 0x2007 JUMP JUMPDEST JUMPDEST SWAP3 SWAP2 POP POP JUMP JUMPDEST PUSH32 0x4E487B7100000000000000000000000000000000000000000000000000000000 PUSH0 MSTORE PUSH1 0x32 PUSH1 0x4 MSTORE PUSH1 0x24 PUSH0 REVERT JUMPDEST PUSH32 0x496E76616C696420636F6D6D656E742049440000000000000000000000000000 PUSH0 DUP3 ADD MSTORE POP JUMP JUMPDEST PUSH0 PUSH2 0x244B PUSH1 0x12 DUP4 PUSH2 0x16BE JUMP JUMPDEST SWAP2 POP PUSH2 0x2456 DUP3 PUSH2 0x2417 JUMP JUMPDEST PUSH1 0x20 DUP3 ADD SWAP1 POP SWAP2 SWAP1 POP JUMP JUMPDEST PUSH0 PUSH1 0x20 DUP3 ADD SWAP1 POP DUP2 DUP2 SUB PUSH0 DUP4 ADD MSTORE PUSH2 0x2478 DUP2 PUSH2 0x243F JUMP JUMPDEST SWAP1 POP SWAP2 SWAP1 POP JUMP JUMPDEST PUSH32 0x43616E6E6F7420766F7465206F6E20796F7572206F776E20706F737400000000 PUSH0 DUP3 ADD MSTORE POP JUMP JUMPDEST PUSH0 PUSH2 0x24B3 PUSH1 0x1C DUP4 PUSH2 0x16BE JUMP JUMPDEST SWAP2 POP PUSH2 0x24BE DUP3 PUSH2 0x247F JUMP JUMPDEST PUSH1 0x20 DUP3 ADD SWAP1 POP SWAP2 SWAP1 POP JUMP JUMPDEST PUSH0 PUSH1 0x20 DUP3 ADD SWAP1 POP DUP2 DUP2 SUB PUSH0 DUP4 ADD MSTORE PUSH2 0x24E0 DUP2 PUSH2 0x24A7 JUMP JUMPDEST SWAP1 POP SWAP2 SWAP1 POP JUMP JUMPDEST PUSH32 0x416C726561647920766F74656400000000000000000000000000000000000000 PUSH0 DUP3 ADD MSTORE POP JUMP JUMPDEST PUSH0 PUSH2 0x251B PUSH1 0xD DUP4 PUSH2 0x16BE JUMP JUMPDEST SWAP2 POP PUSH2 0x2526 DUP3 PUSH2 0x24E7 JUMP JUMPDEST PUSH1 0x20 DUP3 ADD SWAP1 POP SWAP2 SWAP1 POP JUMP JUMPDEST PUSH0 PUSH1 0x20 DUP3 ADD SWAP1 POP DUP2 DUP2 SUB PUSH0 DUP4 ADD MSTORE PUSH2 0x2548 DUP2 PUSH2 0x250F JUMP JUMPDEST SWAP1 POP SWAP2 SWAP1 POP JUMP INVALID LOG2 PUSH5 0x6970667358 0x22 SLT KECCAK256 0xE2 0xE0 0xC3 SWAP13 DUP15 SWAP12 0x22 SELFBALANCE PUSH26 0x3EF17546F46323FD1FE91F0093A9F61806869599041E9F64736F PUSH13 0x63430008140033546869732070 PUSH6 0x72736F6E2077 PUSH10 0x74682069642023343520 PUSH10 0x73206E6F742073746166 PUSH7 0x2E205468697320 PUSH8 0x7579207472796969 PUSH15 0x6720746F2070726574656E7420626F PUSH21 0x682070726F666573736F7220616E64207374756666 0x2E KECCAK256 0x49 0x27 PUSH23 0x65207365656E207468656D2061726F756E642063616D70 PUSH22 0x7320617320612073747564656E742E54686520657363 PUSH2 0x6C61 PUSH21 0x6F72206F757473696465204359542069732062726F PUSH12 0x656E20616761696E2120506C PUSH6 0x617365206669 PUSH25 0x20697420757267656E746C792150726F706F73616C3A20556E PUSH10 0x76657273697479207368 PUSH16 0x756C64207072696F726974697A652053 SLOAD GASLIMIT 0x4D KECCAK256 PUSH19 0x657365617263682066756E64696E6720736967 PUSH15 0x69666963616E746C79206F76657220 BASEFEE PUSH22 0x6D616E697469657320746F206D61696E7461696E206F PUSH22 0x7220636F6D7065746974697665206564676520616E64 KECCAK256 PUSH2 0x6C69 PUSH8 0x6E20776974682066 PUSH22 0x74757265206A6F62206D61726B65742064656D616E64 PUSH20 0x2E2054686973206973206120707261676D617469 PUSH4 0x20617070 PUSH19 0x6F61636820666F72206C6F6E672D7465726D20 PUSH10 0x6E737469747574696F6E PUSH2 0x6C20 PUSH20 0x7563636573732E20234675747572655354454D57 PUSH9 0x656E2077696C6C204C SELFBALANCE BALANCE KECCAK256 PUSH16 0x70656E206E6577206D65616C206F7074 PUSH10 0x6F6E733F49206B6E6F77 KECCAK256 PUSH21 0x68697320706572736F6E2066726F6D206D7920636C PUSH2 0x7373 0x2E KECCAK256 SLOAD PUSH9 0x657927726520707265 PUSH21 0x656E64696E6720746F206265207374616666206167 PUSH2 0x696E 0x21 SLOAD PUSH9 0x697320697320646566 PUSH10 0x6E6974656C792066616B PUSH6 0x206E6577732E KECCAK256 PREVRANDAO PUSH16 0x6E27742062656C696576652069742E54 PUSH9 0x616E6B20796F752074 PUSH16 0x2074686520737461666620666F722074 PUSH9 0x6520717569636B2072 PUSH6 0x73706F6E7365 0x21 KECCAK256 SLOAD PUSH9 0x697320686173206265 PUSH6 0x6E20616E206F PUSH15 0x676F696E672069737375652E4E6F20 PUSH24 0x61792120492063616E2066696E616C6C7920626520667265 PUSH6 0x2066726F6D20 PUSH21 0x68652070726F6A656374214672616D696E67207468 PUSH10 0x73206173206120275072 PUSH16 0x666573736F7227207669657720697320 PUSH2 0x2062 PUSH10 0x7420646973696E67656E PUSH22 0x6F75732E204D616E7920666163756C74792062656C69 PUSH6 0x766520696E20 PUSH2 0x2062 PUSH2 0x6C61 PUSH15 0x63656420617070726F6163682E2054 PUSH9 0x652069737375652069 PUSH20 0x206D6F7265206E75616E636564207468616E2070 PUSH19 0x6573656E74656420686572652E492061677265 PUSH6 0x2C2064656669 PUSH15 0x6974656C79206E6F74207374616666 0x2E KECCAK256 JUMP PUSH16 0x74696E672066616B65206F6E20746869 PUSH20 0x206F6E652E486F772063616E20796F7520707265 PUSH21 0x656E6420746F20626520612070726F666573736F72 KECCAK256 PUSH2 0x6E64 KECCAK256 PUSH21 0x68656E20636F6D6D656E7420617320612073747564 PUSH6 0x6E743F204F75 PUSH19 0x2070726F6A656374206973207374696C6C206F PUSH15 0x676F696E672E2057652073686F756C PUSH5 0x206368616C PUSH13 0x656E6765207468697320757365 PUSH19 0x277320637265646962696C6974792154686973 KECCAK256 PUSH10 0x7320612073616D706C65 KECCAK256 PUSH4 0x6F6D6D65 PUSH15 0x74206F6E2074686520746573742070 PUSH16 0x7374417320612073747564656E742C20 0x49 KECCAK256 PUSH20 0x6565207468652070726163746963616C2062656E PUSH6 0x66697473206F PUSH7 0x20666F63757369 PUSH15 0x67206F6E205354454D20666F72206A PUSH16 0x622070726F7370656374732C20627574 KECCAK256 PUSH24 0x652073686F756C646E277420636F6D706C6574656C792064 PUSH6 0x66756E642068 PUSH22 0x6D616E69746965732E20546865792074656163682063 PUSH19 0x69746963616C207468696E6B696E672E546861 PUSH15 0x6B20796F7520666F72207265706F72 PUSH21 0x696E6720746869732069737375652E205765276C6C KECCAK256 PUSH20 0x656E642061206D61696E74656E616E6365207465 PUSH2 0x6D20 PUSH19 0x6967687420617761792E74686520434F4D5034 CALLDATALOAD BALANCE BALANCE KECCAK256 PUSH17 0x726F6A6563742077696C6C206265206361 PUSH15 0x63656C656421000000000000000000 "
		},
		"gasEstimates": {
			"creation": {
				"codeDepositCost": "1921000",
				"executionCost": "infinite",
				"totalCost": "infinite"
			},
			"external": {
				"addComment(uint256,string,string)": "infinite",
				"comments(uint256,uint256)": "infinite",
				"createPost(string,string)": "infinite",
				"getComment(uint256,uint256)": "infinite",
				"getCommentCount(uint256)": "infinite",
				"getCommentsBatch(uint256,uint256,uint256)": "infinite",
				"getPost(uint256)": "infinite",
				"hasVoted(uint256,address)": "5324",
				"postCount()": "2492",
				"posts(uint256)": "infinite",
				"voteOnTag(uint256,bool)": "infinite"
			},
			"internal": {
				"_createInitialPost(string memory,string memory,string memory)": "infinite"
			}
		},
		"methodIdentifiers": {
			"addComment(uint256,string,string)": "1521e616",
			"comments(uint256,uint256)": "fc6c776f",
			"createPost(string,string)": "392338f5",
			"getComment(uint256,uint256)": "48892753",
			"getCommentCount(uint256)": "0d4bfb4f",
			"getCommentsBatch(uint256,uint256,uint256)": "25cfb1c5",
			"getPost(uint256)": "40731c24",
			"hasVoted(uint256,address)": "43859632",
			"postCount()": "17906c2e",
			"posts(uint256)": "0b1e7f83",
			"voteOnTag(uint256,bool)": "6305dd23"
		}
	},
	"abi": [
		{
			"inputs": [],
			"stateMutability": "nonpayable",
			"type": "constructor"
		},
		{
			"anonymous": false,
			"inputs": [
				{
					"indexed": true,
					"internalType": "uint256",
					"name": "postId",
					"type": "uint256"
				},
				{
					"indexed": true,
					"internalType": "uint256",
					"name": "commentId",
					"type": "uint256"
				},
				{
					"indexed": true,
					"internalType": "address",
					"name": "author",
					"type": "address"
				},
				{
					"indexed": false,
					"internalType": "string",
					"name": "content",
					"type": "string"
				},
				{
					"indexed": false,
					"internalType": "string",
					"name": "tag",
					"type": "string"
				}
			],
			"name": "CommentAdded",
			"type": "event"
		},
		{
			"anonymous": false,
			"inputs": [
				{
					"indexed": true,
					"internalType": "uint256",
					"name": "postId",
					"type": "uint256"
				},
				{
					"indexed": true,
					"internalType": "address",
					"name": "author",
					"type": "address"
				},
				{
					"indexed": false,
					"internalType": "string",
					"name": "tag",
					"type": "string"
				},
				{
					"indexed": false,
					"internalType": "string",
					"name": "content",
					"type": "string"
				}
			],
			"name": "PostCreated",
			"type": "event"
		},
		{
			"anonymous": false,
			"inputs": [
				{
					"indexed": true,
					"internalType": "uint256",
					"name": "postId",
					"type": "uint256"
				},
				{
					"indexed": true,
					"internalType": "address",
					"name": "challenger",
					"type": "address"
				}
			],
			"name": "TagChallenged",
			"type": "event"
		},
		{
			"anonymous": false,
			"inputs": [
				{
					"indexed": true,
					"internalType": "uint256",
					"name": "postId",
					"type": "uint256"
				},
				{
					"indexed": true,
					"internalType": "address",
					"name": "voter",
					"type": "address"
				},
				{
					"indexed": false,
					"internalType": "bool",
					"name": "isRealVote",
					"type": "bool"
				}
			],
			"name": "VoteCast",
			"type": "event"
		},
		{
			"inputs": [
				{
					"internalType": "uint256",
					"name": "_postId",
					"type": "uint256"
				},
				{
					"internalType": "string",
					"name": "_content",
					"type": "string"
				},
				{
					"internalType": "string",
					"name": "_tag",
					"type": "string"
				}
			],
			"name": "addComment",
			"outputs": [],
			"stateMutability": "nonpayable",
			"type": "function"
		},
		{
			"inputs": [
				{
					"internalType": "uint256",
					"name": "",
					"type": "uint256"
				},
				{
					"internalType": "uint256",
					"name": "",
					"type": "uint256"
				}
			],
			"name": "comments",
			"outputs": [
				{
					"internalType": "address",
					"name": "author",
					"type": "address"
				},
				{
					"internalType": "string",
					"name": "content",
					"type": "string"
				},
				{
					"internalType": "string",
					"name": "tag",
					"type": "string"
				},
				{
					"internalType": "uint256",
					"name": "timestamp",
					"type": "uint256"
				}
			],
			"stateMutability": "view",
			"type": "function"
		},
		{
			"inputs": [
				{
					"internalType": "string",
					"name": "_content",
					"type": "string"
				},
				{
					"internalType": "string",
					"name": "_tag",
					"type": "string"
				}
			],
			"name": "createPost",
			"outputs": [],
			"stateMutability": "nonpayable",
			"type": "function"
		},
		{
			"inputs": [
				{
					"internalType": "uint256",
					"name": "_postId",
					"type": "uint256"
				},
				{
					"internalType": "uint256",
					"name": "_commentId",
					"type": "uint256"
				}
			],
			"name": "getComment",
			"outputs": [
				{
					"internalType": "address",
					"name": "author",
					"type": "address"
				},
				{
					"internalType": "string",
					"name": "content",
					"type": "string"
				},
				{
					"internalType": "string",
					"name": "tag",
					"type": "string"
				},
				{
					"internalType": "uint256",
					"name": "timestamp",
					"type": "uint256"
				}
			],
			"stateMutability": "view",
			"type": "function"
		},
		{
			"inputs": [
				{
					"internalType": "uint256",
					"name": "_postId",
					"type": "uint256"
				}
			],
			"name": "getCommentCount",
			"outputs": [
				{
					"internalType": "uint256",
					"name": "",
					"type": "uint256"
				}
			],
			"stateMutability": "view",
			"type": "function"
		},
		{
			"inputs": [
				{
					"internalType": "uint256",
					"name": "_postId",
					"type": "uint256"
				},
				{
					"internalType": "uint256",
					"name": "_startId",
					"type": "uint256"
				},
				{
					"internalType": "uint256",
					"name": "_batchSize",
					"type": "uint256"
				}
			],
			"name": "getCommentsBatch",
			"outputs": [
				{
					"internalType": "address[]",
					"name": "authors",
					"type": "address[]"
				},
				{
					"internalType": "string[]",
					"name": "contents",
					"type": "string[]"
				},
				{
					"internalType": "string[]",
					"name": "tags",
					"type": "string[]"
				},
				{
					"internalType": "uint256[]",
					"name": "timestamps",
					"type": "uint256[]"
				},
				{
					"internalType": "uint256",
					"name": "totalCount",
					"type": "uint256"
				}
			],
			"stateMutability": "view",
			"type": "function"
		},
		{
			"inputs": [
				{
					"internalType": "uint256",
					"name": "_postId",
					"type": "uint256"
				}
			],
			"name": "getPost",
			"outputs": [
				{
					"internalType": "address",
					"name": "author",
					"type": "address"
				},
				{
					"internalType": "string",
					"name": "content",
					"type": "string"
				},
				{
					"internalType": "string",
					"name": "tag",
					"type": "string"
				},
				{
					"internalType": "uint256",
					"name": "timestamp",
					"type": "uint256"
				},
				{
					"internalType": "bool",
					"name": "isTagChallenged",
					"type": "bool"
				},
				{
					"internalType": "uint256",
					"name": "realVotes",
					"type": "uint256"
				},
				{
					"internalType": "uint256",
					"name": "fakerVotes",
					"type": "uint256"
				},
				{
					"internalType": "uint256",
					"name": "commentCount",
					"type": "uint256"
				}
			],
			"stateMutability": "view",
			"type": "function"
		},
		{
			"inputs": [
				{
					"internalType": "uint256",
					"name": "_postId",
					"type": "uint256"
				},
				{
					"internalType": "address",
					"name": "_voter",
					"type": "address"
				}
			],
			"name": "hasVoted",
			"outputs": [
				{
					"internalType": "bool",
					"name": "",
					"type": "bool"
				}
			],
			"stateMutability": "view",
			"type": "function"
		},
		{
			"inputs": [],
			"name": "postCount",
			"outputs": [
				{
					"internalType": "uint256",
					"name": "",
					"type": "uint256"
				}
			],
			"stateMutability": "view",
			"type": "function"
		},
		{
			"inputs": [
				{
					"internalType": "uint256",
					"name": "",
					"type": "uint256"
				}
			],
			"name": "posts",
			"outputs": [
				{
					"internalType": "address",
					"name": "author",
					"type": "address"
				},
				{
					"internalType": "string",
					"name": "content",
					"type": "string"
				},
				{
					"internalType": "string",
					"name": "tag",
					"type": "string"
				},
				{
					"internalType": "uint256",
					"name": "timestamp",
					"type": "uint256"
				},
				{
					"internalType": "bool",
					"name": "isTagChallenged",
					"type": "bool"
				},
				{
					"internalType": "uint256",
					"name": "realVotes",
					"type": "uint256"
				},
				{
					"internalType": "uint256",
					"name": "fakerVotes",
					"type": "uint256"
				},
				{
					"internalType": "uint256",
					"name": "commentCount",
					"type": "uint256"
				}
			],
			"stateMutability": "view",
			"type": "function"
		},
		{
			"inputs": [
				{
					"internalType": "uint256",
					"name": "_postId",
					"type": "uint256"
				},
				{
					"internalType": "bool",
					"name": "_isRealVote",
					"type": "bool"
				}
			],
			"name": "voteOnTag",
			"outputs": [],
			"stateMutability": "nonpayable",
			"type": "function"
		}
	]
}